{
  "abi": [
    {
      "inputs": [
        {
          "internalType": "contract IOverlayV1Factory",
          "name": "_factory",
          "type": "address"
        }
      ],
      "stateMutability": "nonpayable",
      "type": "constructor"
    },
    {
      "inputs": [
        {
          "internalType": "contract IOverlayV1Market",
          "name": "market",
          "type": "address"
        },
        {
          "internalType": "uint256",
          "name": "fractionOfCapOi",
          "type": "uint256"
        }
      ],
      "name": "ask",
      "outputs": [
        {
          "internalType": "uint256",
          "name": "ask_",
          "type": "uint256"
        }
      ],
      "stateMutability": "view",
      "type": "function"
    },
    {
      "inputs": [
        {
          "internalType": "contract IOverlayV1Market",
          "name": "market",
          "type": "address"
        },
        {
          "internalType": "uint256",
          "name": "fractionOfCapOi",
          "type": "uint256"
        }
      ],
      "name": "bid",
      "outputs": [
        {
          "internalType": "uint256",
          "name": "bid_",
          "type": "uint256"
        }
      ],
      "stateMutability": "view",
      "type": "function"
    },
    {
      "inputs": [
        {
          "internalType": "contract IOverlayV1Market",
          "name": "market",
          "type": "address"
        }
      ],
      "name": "capOi",
      "outputs": [
        {
          "internalType": "uint256",
          "name": "capOi_",
          "type": "uint256"
        }
      ],
      "stateMutability": "view",
      "type": "function"
    },
    {
      "inputs": [
        {
          "internalType": "contract IOverlayV1Market",
          "name": "market",
          "type": "address"
        }
      ],
      "name": "circuitBreakerLevel",
      "outputs": [
        {
          "internalType": "uint256",
          "name": "circuitBreakerLevel_",
          "type": "uint256"
        }
      ],
      "stateMutability": "view",
      "type": "function"
    },
    {
      "inputs": [
        {
          "internalType": "contract IOverlayV1Market",
          "name": "market",
          "type": "address"
        },
        {
          "internalType": "address",
          "name": "owner",
          "type": "address"
        },
        {
          "internalType": "uint256",
          "name": "id",
          "type": "uint256"
        }
      ],
      "name": "collateral",
      "outputs": [
        {
          "internalType": "uint256",
          "name": "collateral_",
          "type": "uint256"
        }
      ],
      "stateMutability": "view",
      "type": "function"
    },
    {
      "inputs": [
        {
          "internalType": "contract IOverlayV1Market",
          "name": "market",
          "type": "address"
        },
        {
          "internalType": "address",
          "name": "owner",
          "type": "address"
        },
        {
          "internalType": "uint256",
          "name": "id",
          "type": "uint256"
        }
      ],
      "name": "cost",
      "outputs": [
        {
          "internalType": "uint256",
          "name": "cost_",
          "type": "uint256"
        }
      ],
      "stateMutability": "view",
      "type": "function"
    },
    {
      "inputs": [
        {
          "internalType": "contract IOverlayV1Market",
          "name": "market",
          "type": "address"
        },
        {
          "internalType": "uint256",
          "name": "collateral",
          "type": "uint256"
        },
        {
          "internalType": "uint256",
          "name": "leverage",
          "type": "uint256"
        },
        {
          "internalType": "bool",
          "name": "isLong",
          "type": "bool"
        }
      ],
      "name": "costEstimate",
      "outputs": [
        {
          "internalType": "uint256",
          "name": "cost_",
          "type": "uint256"
        }
      ],
      "stateMutability": "view",
      "type": "function"
    },
    {
      "inputs": [
        {
          "internalType": "address",
          "name": "feed",
          "type": "address"
        }
      ],
      "name": "data",
      "outputs": [
        {
          "components": [
            {
              "internalType": "uint256",
              "name": "timestamp",
              "type": "uint256"
            },
            {
              "internalType": "uint256",
              "name": "microWindow",
              "type": "uint256"
            },
            {
              "internalType": "uint256",
              "name": "macroWindow",
              "type": "uint256"
            },
            {
              "internalType": "uint256",
              "name": "priceOverMicroWindow",
              "type": "uint256"
            },
            {
              "internalType": "uint256",
              "name": "priceOverMacroWindow",
              "type": "uint256"
            },
            {
              "internalType": "uint256",
              "name": "priceOneMacroWindowAgo",
              "type": "uint256"
            },
            {
              "internalType": "uint256",
              "name": "reserveOverMicroWindow",
              "type": "uint256"
            },
            {
              "internalType": "bool",
              "name": "hasReserve",
              "type": "bool"
            }
          ],
          "internalType": "struct Oracle.Data",
          "name": "data_",
          "type": "tuple"
        }
      ],
      "stateMutability": "view",
      "type": "function"
    },
    {
      "inputs": [
        {
          "internalType": "contract IOverlayV1Market",
          "name": "market",
          "type": "address"
        },
        {
          "internalType": "address",
          "name": "owner",
          "type": "address"
        },
        {
          "internalType": "uint256",
          "name": "id",
          "type": "uint256"
        }
      ],
      "name": "debt",
      "outputs": [
        {
          "internalType": "uint256",
          "name": "debt_",
          "type": "uint256"
        }
      ],
      "stateMutability": "view",
      "type": "function"
    },
    {
      "inputs": [
        {
          "internalType": "contract IOverlayV1Market",
          "name": "market",
          "type": "address"
        },
        {
          "internalType": "uint256",
          "name": "collateral",
          "type": "uint256"
        },
        {
          "internalType": "uint256",
          "name": "leverage",
          "type": "uint256"
        },
        {
          "internalType": "bool",
          "name": "isLong",
          "type": "bool"
        }
      ],
      "name": "debtEstimate",
      "outputs": [
        {
          "internalType": "uint256",
          "name": "debt_",
          "type": "uint256"
        }
      ],
      "stateMutability": "view",
      "type": "function"
    },
    {
      "inputs": [],
      "name": "factory",
      "outputs": [
        {
          "internalType": "contract IOverlayV1Factory",
          "name": "",
          "type": "address"
        }
      ],
      "stateMutability": "view",
      "type": "function"
    },
    {
      "inputs": [
        {
          "internalType": "contract IOverlayV1Market",
          "name": "market",
          "type": "address"
        },
        {
          "internalType": "uint256",
          "name": "oi",
          "type": "uint256"
        }
      ],
      "name": "fractionOfCapOi",
      "outputs": [
        {
          "internalType": "uint256",
          "name": "fractionOfCapOi_",
          "type": "uint256"
        }
      ],
      "stateMutability": "view",
      "type": "function"
    },
    {
      "inputs": [
        {
          "internalType": "contract IOverlayV1Market",
          "name": "market",
          "type": "address"
        }
      ],
      "name": "fundingRate",
      "outputs": [
        {
          "internalType": "int256",
          "name": "fundingRate_",
          "type": "int256"
        }
      ],
      "stateMutability": "view",
      "type": "function"
    },
    {
      "inputs": [
        {
          "internalType": "contract IOverlayV1Market",
          "name": "market",
          "type": "address"
        },
        {
          "internalType": "address",
          "name": "owner",
          "type": "address"
        },
        {
          "internalType": "uint256",
          "name": "id",
          "type": "uint256"
        }
      ],
      "name": "liquidatable",
      "outputs": [
        {
          "internalType": "bool",
          "name": "liquidatable_",
          "type": "bool"
        }
      ],
      "stateMutability": "view",
      "type": "function"
    },
    {
      "inputs": [
        {
          "internalType": "contract IOverlayV1Market",
          "name": "market",
          "type": "address"
        },
        {
          "internalType": "address",
          "name": "owner",
          "type": "address"
        },
        {
          "internalType": "uint256",
          "name": "id",
          "type": "uint256"
        }
      ],
      "name": "liquidationFee",
      "outputs": [
        {
          "internalType": "uint256",
          "name": "liquidationFee_",
          "type": "uint256"
        }
      ],
      "stateMutability": "view",
      "type": "function"
    },
    {
      "inputs": [
        {
          "internalType": "contract IOverlayV1Market",
          "name": "market",
          "type": "address"
        },
        {
          "internalType": "address",
          "name": "owner",
          "type": "address"
        },
        {
          "internalType": "uint256",
          "name": "id",
          "type": "uint256"
        }
      ],
      "name": "liquidationPrice",
      "outputs": [
        {
          "internalType": "uint256",
          "name": "liquidationPrice_",
          "type": "uint256"
        }
      ],
      "stateMutability": "view",
      "type": "function"
    },
    {
      "inputs": [
        {
          "internalType": "contract IOverlayV1Market",
          "name": "market",
          "type": "address"
        },
        {
          "internalType": "uint256",
          "name": "collateral",
          "type": "uint256"
        },
        {
          "internalType": "uint256",
          "name": "leverage",
          "type": "uint256"
        },
        {
          "internalType": "bool",
          "name": "isLong",
          "type": "bool"
        }
      ],
      "name": "liquidationPriceEstimate",
      "outputs": [
        {
          "internalType": "uint256",
          "name": "liquidationPrice_",
          "type": "uint256"
        }
      ],
      "stateMutability": "view",
      "type": "function"
    },
    {
      "inputs": [
        {
          "internalType": "contract IOverlayV1Market",
          "name": "market",
          "type": "address"
        },
        {
          "internalType": "address",
          "name": "owner",
          "type": "address"
        },
        {
          "internalType": "uint256",
          "name": "id",
          "type": "uint256"
        }
      ],
      "name": "maintenanceMargin",
      "outputs": [
        {
          "internalType": "uint256",
          "name": "maintenanceMargin_",
          "type": "uint256"
        }
      ],
      "stateMutability": "view",
      "type": "function"
    },
    {
      "inputs": [
        {
          "internalType": "contract IOverlayV1Market",
          "name": "market",
          "type": "address"
        },
        {
          "internalType": "uint256",
          "name": "collateral",
          "type": "uint256"
        },
        {
          "internalType": "uint256",
          "name": "leverage",
          "type": "uint256"
        },
        {
          "internalType": "bool",
          "name": "isLong",
          "type": "bool"
        }
      ],
      "name": "maintenanceMarginEstimate",
      "outputs": [
        {
          "internalType": "uint256",
          "name": "maintenanceMargin_",
          "type": "uint256"
        }
      ],
      "stateMutability": "view",
      "type": "function"
    },
    {
      "inputs": [
        {
          "internalType": "contract IOverlayV1Market",
          "name": "market",
          "type": "address"
        },
        {
          "internalType": "address",
          "name": "owner",
          "type": "address"
        },
        {
          "internalType": "uint256",
          "name": "id",
          "type": "uint256"
        }
      ],
      "name": "marginExcessBeforeLiquidation",
      "outputs": [
        {
          "internalType": "int256",
          "name": "excess_",
          "type": "int256"
        }
      ],
      "stateMutability": "view",
      "type": "function"
    },
    {
      "inputs": [
        {
          "internalType": "address",
          "name": "feed",
          "type": "address"
        }
      ],
      "name": "market",
      "outputs": [
        {
          "internalType": "contract IOverlayV1Market",
          "name": "market_",
          "type": "address"
        }
      ],
      "stateMutability": "view",
      "type": "function"
    },
    {
      "inputs": [
        {
          "internalType": "contract IOverlayV1Market",
          "name": "market",
          "type": "address"
        }
      ],
      "name": "marketState",
      "outputs": [
        {
          "components": [
            {
              "internalType": "uint256",
              "name": "bid",
              "type": "uint256"
            },
            {
              "internalType": "uint256",
              "name": "ask",
              "type": "uint256"
            },
            {
              "internalType": "uint256",
              "name": "mid",
              "type": "uint256"
            },
            {
              "internalType": "uint256",
              "name": "volumeBid",
              "type": "uint256"
            },
            {
              "internalType": "uint256",
              "name": "volumeAsk",
              "type": "uint256"
            },
            {
              "internalType": "uint256",
              "name": "oiLong",
              "type": "uint256"
            },
            {
              "internalType": "uint256",
              "name": "oiShort",
              "type": "uint256"
            },
            {
              "internalType": "uint256",
              "name": "capOi",
              "type": "uint256"
            },
            {
              "internalType": "uint256",
              "name": "circuitBreakerLevel",
              "type": "uint256"
            },
            {
              "internalType": "int256",
              "name": "fundingRate",
              "type": "int256"
            }
          ],
          "internalType": "struct IOverlayV1State.MarketState",
          "name": "state_",
          "type": "tuple"
        }
      ],
      "stateMutability": "view",
      "type": "function"
    },
    {
      "inputs": [
        {
          "internalType": "contract IOverlayV1Market",
          "name": "market",
          "type": "address"
        }
      ],
      "name": "mid",
      "outputs": [
        {
          "internalType": "uint256",
          "name": "mid_",
          "type": "uint256"
        }
      ],
      "stateMutability": "view",
      "type": "function"
    },
    {
      "inputs": [
        {
          "internalType": "contract IOverlayV1Market",
          "name": "market",
          "type": "address"
        }
      ],
      "name": "minted",
      "outputs": [
        {
          "internalType": "int256",
          "name": "minted_",
          "type": "int256"
        }
      ],
      "stateMutability": "view",
      "type": "function"
    },
    {
      "inputs": [
        {
          "internalType": "contract IOverlayV1Market",
          "name": "market",
          "type": "address"
        },
        {
          "internalType": "address",
          "name": "owner",
          "type": "address"
        },
        {
          "internalType": "uint256",
          "name": "id",
          "type": "uint256"
        }
      ],
      "name": "notional",
      "outputs": [
        {
          "internalType": "uint256",
          "name": "notional_",
          "type": "uint256"
        }
      ],
      "stateMutability": "view",
      "type": "function"
    },
    {
      "inputs": [
        {
          "internalType": "contract IOverlayV1Market",
          "name": "market",
          "type": "address"
        },
        {
          "internalType": "address",
          "name": "owner",
          "type": "address"
        },
        {
          "internalType": "uint256",
          "name": "id",
          "type": "uint256"
        }
      ],
      "name": "oi",
      "outputs": [
        {
          "internalType": "uint256",
          "name": "oi_",
          "type": "uint256"
        }
      ],
      "stateMutability": "view",
      "type": "function"
    },
    {
      "inputs": [
        {
          "internalType": "contract IOverlayV1Market",
          "name": "market",
          "type": "address"
        },
        {
          "internalType": "uint256",
          "name": "collateral",
          "type": "uint256"
        },
        {
          "internalType": "uint256",
          "name": "leverage",
          "type": "uint256"
        },
        {
          "internalType": "bool",
          "name": "isLong",
          "type": "bool"
        }
      ],
      "name": "oiEstimate",
      "outputs": [
        {
          "internalType": "uint256",
          "name": "oi_",
          "type": "uint256"
        }
      ],
      "stateMutability": "view",
      "type": "function"
    },
    {
      "inputs": [
        {
          "internalType": "contract IOverlayV1Market",
          "name": "market",
          "type": "address"
        }
      ],
      "name": "ois",
      "outputs": [
        {
          "internalType": "uint256",
          "name": "oiLong_",
          "type": "uint256"
        },
        {
          "internalType": "uint256",
          "name": "oiShort_",
          "type": "uint256"
        }
      ],
      "stateMutability": "view",
      "type": "function"
    },
    {
      "inputs": [
        {
          "internalType": "contract IOverlayV1Market",
          "name": "market",
          "type": "address"
        },
        {
          "internalType": "address",
          "name": "owner",
          "type": "address"
        },
        {
          "internalType": "uint256",
          "name": "id",
          "type": "uint256"
        }
      ],
      "name": "position",
      "outputs": [
        {
          "components": [
            {
              "internalType": "uint96",
              "name": "notionalInitial",
              "type": "uint96"
            },
            {
              "internalType": "uint96",
              "name": "debtInitial",
              "type": "uint96"
            },
            {
              "internalType": "int24",
              "name": "midTick",
              "type": "int24"
            },
            {
              "internalType": "int24",
              "name": "entryTick",
              "type": "int24"
            },
            {
              "internalType": "bool",
              "name": "isLong",
              "type": "bool"
            },
            {
              "internalType": "bool",
              "name": "liquidated",
              "type": "bool"
            },
            {
              "internalType": "uint240",
              "name": "oiShares",
              "type": "uint240"
            },
            {
              "internalType": "uint16",
              "name": "fractionRemaining",
              "type": "uint16"
            }
          ],
          "internalType": "struct Position.Info",
          "name": "position_",
          "type": "tuple"
        }
      ],
      "stateMutability": "view",
      "type": "function"
    },
    {
      "inputs": [
        {
          "internalType": "contract IOverlayV1Market",
          "name": "market",
          "type": "address"
        },
        {
          "internalType": "uint256",
          "name": "collateral",
          "type": "uint256"
        },
        {
          "internalType": "uint256",
          "name": "leverage",
          "type": "uint256"
        },
        {
          "internalType": "bool",
          "name": "isLong",
          "type": "bool"
        }
      ],
      "name": "positionEstimate",
      "outputs": [
        {
          "components": [
            {
              "internalType": "uint96",
              "name": "notionalInitial",
              "type": "uint96"
            },
            {
              "internalType": "uint96",
              "name": "debtInitial",
              "type": "uint96"
            },
            {
              "internalType": "int24",
              "name": "midTick",
              "type": "int24"
            },
            {
              "internalType": "int24",
              "name": "entryTick",
              "type": "int24"
            },
            {
              "internalType": "bool",
              "name": "isLong",
              "type": "bool"
            },
            {
              "internalType": "bool",
              "name": "liquidated",
              "type": "bool"
            },
            {
              "internalType": "uint240",
              "name": "oiShares",
              "type": "uint240"
            },
            {
              "internalType": "uint16",
              "name": "fractionRemaining",
              "type": "uint16"
            }
          ],
          "internalType": "struct Position.Info",
          "name": "position_",
          "type": "tuple"
        }
      ],
      "stateMutability": "view",
      "type": "function"
    },
    {
      "inputs": [
        {
          "internalType": "contract IOverlayV1Market",
          "name": "market",
          "type": "address"
        }
      ],
      "name": "prices",
      "outputs": [
        {
          "internalType": "uint256",
          "name": "bid_",
          "type": "uint256"
        },
        {
          "internalType": "uint256",
          "name": "ask_",
          "type": "uint256"
        },
        {
          "internalType": "uint256",
          "name": "mid_",
          "type": "uint256"
        }
      ],
      "stateMutability": "view",
      "type": "function"
    },
    {
      "inputs": [
        {
          "internalType": "contract IOverlayV1Market",
          "name": "market",
          "type": "address"
        },
        {
          "internalType": "address",
          "name": "owner",
          "type": "address"
        },
        {
          "internalType": "uint256",
          "name": "id",
          "type": "uint256"
        }
      ],
      "name": "tradingFee",
      "outputs": [
        {
          "internalType": "uint256",
          "name": "tradingFee_",
          "type": "uint256"
        }
      ],
      "stateMutability": "view",
      "type": "function"
    },
    {
      "inputs": [
        {
          "internalType": "contract IOverlayV1Market",
          "name": "market",
          "type": "address"
        },
        {
          "internalType": "address",
          "name": "owner",
          "type": "address"
        },
        {
          "internalType": "uint256",
          "name": "id",
          "type": "uint256"
        }
      ],
      "name": "value",
      "outputs": [
        {
          "internalType": "uint256",
          "name": "value_",
          "type": "uint256"
        }
      ],
      "stateMutability": "view",
      "type": "function"
    },
    {
      "inputs": [
        {
          "internalType": "contract IOverlayV1Market",
          "name": "market",
          "type": "address"
        },
        {
          "internalType": "uint256",
          "name": "fractionOfCapOi",
          "type": "uint256"
        }
      ],
      "name": "volumeAsk",
      "outputs": [
        {
          "internalType": "uint256",
          "name": "volumeAsk_",
          "type": "uint256"
        }
      ],
      "stateMutability": "view",
      "type": "function"
    },
    {
      "inputs": [
        {
          "internalType": "contract IOverlayV1Market",
          "name": "market",
          "type": "address"
        },
        {
          "internalType": "uint256",
          "name": "fractionOfCapOi",
          "type": "uint256"
        }
      ],
      "name": "volumeBid",
      "outputs": [
        {
          "internalType": "uint256",
          "name": "volumeBid_",
          "type": "uint256"
        }
      ],
      "stateMutability": "view",
      "type": "function"
    },
    {
      "inputs": [
        {
          "internalType": "contract IOverlayV1Market",
          "name": "market",
          "type": "address"
        }
      ],
      "name": "volumes",
      "outputs": [
        {
          "internalType": "uint256",
          "name": "volumeBid_",
          "type": "uint256"
        },
        {
          "internalType": "uint256",
          "name": "volumeAsk_",
          "type": "uint256"
        }
      ],
      "stateMutability": "view",
      "type": "function"
    }
  ],
  "bytecode": "60a06040523480156200001157600080fd5b506040516200504238038062005042833981016040819052620000349162000046565b6001600160a01b031660805262000078565b6000602082840312156200005957600080fd5b81516001600160a01b03811681146200007157600080fd5b9392505050565b608051614fa76200009b6000396000818161057001526130aa0152614fa76000f3fe608060405234801561001057600080fd5b506004361061025c5760003560e01c8063727e8a1b11610145578063b90d3d0c116100bd578063cfed246b1161008c578063d94cd80f11610071578063d94cd80f146105e6578063e8ef90b2146105f9578063f5d2b3341461060c57600080fd5b8063cfed246b146105a5578063d16f3bbf146105d357600080fd5b8063b90d3d0c14610538578063c18f32f614610558578063c45a01551461056b578063ce1b4f991461059257600080fd5b806393b0fe4911610114578063a7a9a62c116100f9578063a7a9a62c14610486578063a92c516514610512578063b1ec4c401461052557600080fd5b806393b0fe49146104485780639f382f6a1461045b57600080fd5b8063727e8a1b146103fc578063730c4aff1461040f57806381ec8b9e146104225780638e968fe51461043557600080fd5b80634c5cf658116101d85780635bbc8be2116101a7578063617f37bd1161018c578063617f37bd146103a157806365e55b32146103c95780636afd3d65146103dc57600080fd5b80635bbc8be21461037b5780635cfdcc0d1461038e57600080fd5b80634c5cf6581461032f5780634ea663161461034257806353f16f671461035557806359d667a51461036857600080fd5b80631c136a001161022f57806342d0c4431161021457806342d0c443146102f657806343ca411a1461030957806348d5dbcc1461031c57600080fd5b80631c136a00146102d05780631e7269c5146102e357600080fd5b806302eae85c146102615780630afb11e3146102875780631776f7e9146102aa57806317de4086146102bd575b600080fd5b61027461026f3660046148f2565b61061f565b6040519081526020015b60405180910390f35b61029a61029536600461493c565b6106b9565b604051901515815260200161027e565b6102746102b836600461493c565b610752565b6102746102cb3660046148f2565b610774565b6102746102de36600461493c565b610803565b6102746102f136600461497d565b6108d5565b61027461030436600461493c565b6109f5565b61027461031736600461499a565b610b0d565b61027461032a36600461499a565b610b8c565b61027461033d36600461493c565b610c0b565b61027461035036600461499a565b610c99565b61027461036336600461493c565b610d18565b61027461037636600461499a565b610da5565b61027461038936600461493c565b610e24565b61027461039c36600461497d565b610e3d565b6103b46103af36600461497d565b610e4e565b6040805192835260208301919091520161027e565b6102746103d73660046148f2565b610e64565b6103ef6103ea3660046148f2565b610ef3565b60405161027e91906149c6565b61027461040a36600461497d565b610fb4565b61027461041d36600461493c565b611039565b61027461043036600461497d565b611053565b61027461044336600461497d565b61105e565b61027461045636600461493c565b6110dc565b61046e61046936600461497d565b61116a565b6040516001600160a01b03909116815260200161027e565b61049961049436600461497d565b611175565b60405161027e9190600061014082019050825182526020830151602083015260408301516040830152606083015160608301526080830151608083015260a083015160a083015260c083015160c083015260e083015160e083015261010080840151818401525061012080840151818401525092915050565b61027461052036600461493c565b6112ea565b6103b461053336600461497d565b611304565b61054b61054636600461497d565b61139d565b60405161027e9190614a59565b61027461056636600461493c565b6113f0565b61046e7f000000000000000000000000000000000000000000000000000000000000000081565b6102746105a03660046148f2565b61147e565b6105b86105b336600461497d565b61150c565b6040805193845260208401929092529082015260600161027e565b6102746105e136600461499a565b6115b2565b6102746105f43660046148f2565b611631565b6103ef61060736600461493c565b6116bf565b61027461061a36600461493c565b61170b565b600080856001600160a01b03166337a7b7d86040518163ffffffff1660e01b8152600401602060405180830381865afa158015610660573d6000803e3d6000fd5b505050506040513d601f19601f820116820180604052508101906106849190614ab3565b90506000610691826118d3565b905060006106a28883898989611980565b90506106ad81611b96565b98975050505050505050565b600080846001600160a01b03166337a7b7d86040518163ffffffff1660e01b8152600401602060405180830381865afa1580156106fa573d6000803e3d6000fd5b505050506040513d601f19601f8201168201806040525081019061071e9190614ab3565b9050600061072b826118d3565b9050600061073a878787611bb2565b9050610747878383611d22565b979650505050505050565b600080610760858585611bb2565b905061076b81611f8d565b95945050505050565b600080856001600160a01b03166337a7b7d86040518163ffffffff1660e01b8152600401602060405180830381865afa1580156107b5573d6000803e3d6000fd5b505050506040513d601f19601f820116820180604052508101906107d99190614ab3565b905060006107e6826118d3565b905060006107f78883898989611980565b90506106ad8882611fa2565b600080846001600160a01b03166337a7b7d86040518163ffffffff1660e01b8152600401602060405180830381865afa158015610844573d6000803e3d6000fd5b505050506040513d601f19601f820116820180604052508101906108689190614ab3565b90506000610875826118d3565b90506000610884878787611bb2565b90506000610893888484612032565b905060006108a18984611fa2565b905060006108b08a86866121d1565b9050806108bd8385614ae6565b6108c79190614ae6565b9a9950505050505050505050565b600080600080846001600160a01b0316635b6df29a6040518163ffffffff1660e01b8152600401606060405180830381865afa158015610919573d6000803e3d6000fd5b505050506040513d601f19601f8201168201806040525081019061093d9190614b3e565b6040805160608101825263ffffffff858116825284166020820152601783900b81830152905163274bc14f60e21b8152600660048201529396509194509250906000906001600160a01b03881690639d2f053c90602401602060405180830381865afa1580156109b1573d6000803e3d6000fd5b505050506040513d601f19601f820116820180604052508101906109d59190614b8b565b905060006109e583428484612276565b92506106ad836040015160170b90565b600080846001600160a01b03166337a7b7d86040518163ffffffff1660e01b8152600401602060405180830381865afa158015610a36573d6000803e3d6000fd5b505050506040513d601f19601f82011682018060405250810190610a5a9190614ab3565b90506000610a67826118d3565b90506000610a76878787611bb2565b90506000610a85888484612473565b60405163274bc14f60e21b8152600b60048201529091506000906001600160a01b038a1690639d2f053c90602401602060405180830381865afa158015610ad0573d6000803e3d6000fd5b505050506040513d601f19601f82011682018060405250810190610af49190614b8b565b9050610b008282612641565b9998505050505050505050565b600080836001600160a01b03166337a7b7d86040518163ffffffff1660e01b8152600401602060405180830381865afa158015610b4e573d6000803e3d6000fd5b505050506040513d601f19601f82011682018060405250810190610b729190614ab3565b90506000610b7f826118d3565b905061076b858286612697565b600080836001600160a01b03166337a7b7d86040518163ffffffff1660e01b8152600401602060405180830381865afa158015610bcd573d6000803e3d6000fd5b505050506040513d601f19601f82011682018060405250810190610bf19190614ab3565b90506000610bfe826118d3565b905061076b8582866126c0565b600080846001600160a01b03166337a7b7d86040518163ffffffff1660e01b8152600401602060405180830381865afa158015610c4c573d6000803e3d6000fd5b505050506040513d601f19601f82011682018060405250810190610c709190614ab3565b90506000610c7d826118d3565b90506000610c8c878787611bb2565b905061074787838361278c565b600080836001600160a01b03166337a7b7d86040518163ffffffff1660e01b8152600401602060405180830381865afa158015610cda573d6000803e3d6000fd5b505050506040513d601f19601f82011682018060405250810190610cfe9190614ab3565b90506000610d0b826118d3565b905061076b8582866128d1565b600080846001600160a01b03166337a7b7d86040518163ffffffff1660e01b8152600401602060405180830381865afa158015610d59573d6000803e3d6000fd5b505050506040513d601f19601f82011682018060405250810190610d7d9190614ab3565b90506000610d8a826118d3565b90506000610d99878787611bb2565b90506107478782611fa2565b600080836001600160a01b03166337a7b7d86040518163ffffffff1660e01b8152600401602060405180830381865afa158015610de6573d6000803e3d6000fd5b505050506040513d601f19601f82011682018060405250810190610e0a9190614ab3565b90506000610e17826118d3565b905061076b858286612915565b600080610e32858585611bb2565b905061076b81612995565b6000610e48826129aa565b92915050565b600080610e5a83612ad1565b9094909350915050565b600080856001600160a01b03166337a7b7d86040518163ffffffff1660e01b8152600401602060405180830381865afa158015610ea5573d6000803e3d6000fd5b505050506040513d601f19601f82011682018060405250810190610ec99190614ab3565b90506000610ed6826118d3565b90506000610ee78883898989611980565b90506106ad8882612cdb565b6040805161010081018252600080825260208201819052918101829052606081018290526080810182905260a0810182905260c0810182905260e08101919091526000856001600160a01b03166337a7b7d86040518163ffffffff1660e01b8152600401602060405180830381865afa158015610f74573d6000803e3d6000fd5b505050506040513d601f19601f82011682018060405250810190610f989190614ab3565b90506000610fa5826118d3565b90506107478782888888611980565b600080826001600160a01b03166337a7b7d86040518163ffffffff1660e01b8152600401602060405180830381865afa158015610ff5573d6000803e3d6000fd5b505050506040513d601f19601f820116820180604052508101906110199190614ab3565b90506000611026826118d3565b905061103181612e03565b949350505050565b600080611047858585611bb2565b905061076b8582612e17565b6000610e4882612f28565b600080826001600160a01b03166337a7b7d86040518163ffffffff1660e01b8152600401602060405180830381865afa15801561109f573d6000803e3d6000fd5b505050506040513d601f19601f820116820180604052508101906110c39190614ab3565b905060006110d0826118d3565b90506110318482612f9b565b600080846001600160a01b03166337a7b7d86040518163ffffffff1660e01b8152600401602060405180830381865afa15801561111d573d6000803e3d6000fd5b505050506040513d601f19601f820116820180604052508101906111419190614ab3565b9050600061114e826118d3565b9050600061115d878787611bb2565b90506107478783836121d1565b6000610e4882613086565b6111cb604051806101400160405280600081526020016000815260200160008152602001600081526020016000815260200160008152602001600081526020016000815260200160008152602001600081525090565b6000826001600160a01b03166337a7b7d86040518163ffffffff1660e01b8152600401602060405180830381865afa15801561120b573d6000803e3d6000fd5b505050506040513d601f19601f8201168201806040525081019061122f9190614ab3565b9050600061123c826118d3565b905060008061124a86612ad1565b9150915060405180610140016040528061126688866000612915565b81526020016112778886600061316d565b815260200161128585612e03565b8152602001611296888660006126c0565b81526020016112a7888660006128d1565b81526020018381526020018281526020016112c28886612f9b565b81526020016112d088612f28565b81526020016112de886129aa565b90529695505050505050565b6000806112f8858585611bb2565b905061076b85826131ac565b6000806000836001600160a01b03166337a7b7d86040518163ffffffff1660e01b8152600401602060405180830381865afa158015611347573d6000803e3d6000fd5b505050506040513d601f19601f8201168201806040525081019061136b9190614ab3565b90506000611378826118d3565b9050611386858260006126c0565b9350611394858260006128d1565b92505050915091565b6113e7604051806101000160405280600081526020016000815260200160008152602001600081526020016000815260200160008152602001600081526020016000151581525090565b610e48826118d3565b600080846001600160a01b03166337a7b7d86040518163ffffffff1660e01b8152600401602060405180830381865afa158015611431573d6000803e3d6000fd5b505050506040513d601f19601f820116820180604052508101906114559190614ab3565b90506000611462826118d3565b90506000611471878787611bb2565b9050610747878383612473565b600080856001600160a01b03166337a7b7d86040518163ffffffff1660e01b8152600401602060405180830381865afa1580156114bf573d6000803e3d6000fd5b505050506040513d601f19601f820116820180604052508101906114e39190614ab3565b905060006114f0826118d3565b905060006115018883898989611980565b90506106ad81611f8d565b600080600080846001600160a01b03166337a7b7d86040518163ffffffff1660e01b8152600401602060405180830381865afa158015611550573d6000803e3d6000fd5b505050506040513d601f19601f820116820180604052508101906115749190614ab3565b90506000611581826118d3565b905061158f86826000612915565b945061159d8682600061316d565b93506115a881612e03565b9496939550505050565b600080836001600160a01b03166337a7b7d86040518163ffffffff1660e01b8152600401602060405180830381865afa1580156115f3573d6000803e3d6000fd5b505050506040513d601f19601f820116820180604052508101906116179190614ab3565b90506000611624826118d3565b905061076b85828661316d565b600080856001600160a01b03166337a7b7d86040518163ffffffff1660e01b8152600401602060405180830381865afa158015611672573d6000803e3d6000fd5b505050506040513d601f19601f820116820180604052508101906116969190614ab3565b905060006116a3826118d3565b905060006116b48883898989611980565b90506106ad81612995565b6040805161010081018252600080825260208201819052918101829052606081018290526080810182905260a0810182905260c0810182905260e0810191909152611031848484611bb2565b600080846001600160a01b03166337a7b7d86040518163ffffffff1660e01b8152600401602060405180830381865afa15801561174c573d6000803e3d6000fd5b505050506040513d601f19601f820116820180604052508101906117709190614ab3565b9050600061177f868686611bb2565b9050600061178c82613303565b60405163274bc14f60e21b8152600a60048201529091506000906001600160a01b03891690639d2f053c90602401602060405180830381865afa1580156117d7573d6000803e3d6000fd5b505050506040513d601f19601f820116820180604052508101906117fb9190614b8b565b905060006118098985611fa2565b905060006118178a86612e17565b905060006118258b876131ac565b90506000821161186d5760405162461bcd60e51b815260206004820152600e60248201526d04f564c56313a206f69203d3d20360941b60448201526064015b60405180910390fd5b600061189f8361189961189261188b89670de0b6b3a7640000614ba4565b8890613312565b8590613343565b90613312565b905086608001516118b9576118b48187614bbb565b6118c3565b6118c38682613343565b9c9b505050505050505050505050565b61191d604051806101000160405280600081526020016000815260200160008152602001600081526020016000815260200160008152602001600081526020016000151581525090565b816001600160a01b03166352bfe7896040518163ffffffff1660e01b815260040161010060405180830381865afa15801561195c573d6000803e3d6000fd5b505050506040513d601f19601f82011682018060405250810190610e489190614bde565b6040805161010081018252600080825260208201819052918101829052606081018290526080810182905260a0810182905260c0810182905260e08101829052906119cb8585612641565b905060006119d98683614ba4565b905060006119e7888461335e565b905060006119f68a8a84612697565b9050600080611a048c612ad1565b915091506000611ac5858a611a195783611a1b565b845b8b611a87578f6001600160a01b031663f333fe136040518163ffffffff1660e01b8152600401602060405180830381865afa158015611a5e573d6000803e3d6000fd5b505050506040513d601f19601f82011682018060405250810190611a829190614b8b565b6133c6565b8f6001600160a01b0316632acb38106040518163ffffffff1660e01b8152600401602060405180830381865afa158015611a5e573d6000803e3d6000fd5b90506000611ad28d612e03565b905060008a611aeb57611ae68f8f88612915565b611af6565b611af68f8f8861316d565b90506040518061010001604052808a6bffffffffffffffffffffffff168152602001896bffffffffffffffffffffffff168152602001611b35846133ef565b60020b8152602001611b46836133ef565b60020b81528c15156020820152600060408201526001600160f01b0385166060820152608001611b7d670de0b6b3a7640000613489565b61ffff1690529f9e505050505050505050505050505050565b6000670de0b6b3a7640000611bab8382613502565b9392505050565b6040805161010081018252600080825260208201819052918101829052606081018290526080810182905260a0810182905260c0810182905260e08101919091526040516bffffffffffffffffffffffff19606085901b166020820152603481018390526000906054016040516020818303038152906040528051906020012090506000806000806000806000808c6001600160a01b031663514ea4bf8a6040518263ffffffff1660e01b8152600401611c6e91815260200190565b61010060405180830381865afa158015611c8c573d6000803e3d6000fd5b505050506040513d601f19601f82011682018060405250810190611cb09190614cae565b60408051610100810182526bffffffffffffffffffffffff998a168152989097166020890152600295860b968801969096529290930b60608601521515608085015290151560a08401526001600160f01b031660c083015261ffff1660e08201529d9c50505050505050505050505050565b6000806000611d3086612ad1565b9150915060008460800151611d455781611d47565b825b905060008560800151611dbb57876001600160a01b031663f333fe136040518163ffffffff1660e01b8152600401602060405180830381865afa158015611d92573d6000803e3d6000fd5b505050506040513d601f19601f82011682018060405250810190611db69190614b8b565b611e1d565b876001600160a01b0316632acb38106040518163ffffffff1660e01b8152600401602060405180830381865afa158015611df9573d6000803e3d6000fd5b505050506040513d601f19601f82011682018060405250810190611e1d9190614b8b565b90506000611e2a88612e03565b60405163274bc14f60e21b8152600a60048201529091506000906001600160a01b038b1690639d2f053c90602401602060405180830381865afa158015611e75573d6000803e3d6000fd5b505050506040513d601f19601f82011682018060405250810190611e999190614b8b565b90506108c78484846001600160a01b038e16639d2f053c60036040518263ffffffff1660e01b8152600401611ed091815260200190565b602060405180830381865afa158015611eed573d6000803e3d6000fd5b505050506040513d601f19601f82011682018060405250810190611f119190614b8b565b6001600160a01b038f16639d2f053c60086040518263ffffffff1660e01b8152600401611f4091815260200190565b602060405180830381865afa158015611f5d573d6000803e3d6000fd5b505050506040513d601f19601f82011682018060405250810190611f819190614b8b565b8d949392919087613531565b6000670de0b6b3a7640000611bab83826135ba565b60405163274bc14f60e21b81526008600482015260009081906001600160a01b03851690639d2f053c90602401602060405180830381865afa158015611fec573d6000803e3d6000fd5b505050506040513d601f19601f820116820180604052508101906120109190614b8b565b9050600061202684670de0b6b3a76400006135e7565b905061076b8183612641565b6000670de0b6b3a7640000818061204887612ad1565b915091506000856080015161205d578161205f565b825b9050600086608001516120d357886001600160a01b031663f333fe136040518163ffffffff1660e01b8152600401602060405180830381865afa1580156120aa573d6000803e3d6000fd5b505050506040513d601f19601f820116820180604052508101906120ce9190614b8b565b612135565b886001600160a01b0316632acb38106040518163ffffffff1660e01b8152600401602060405180830381865afa158015612111573d6000803e3d6000fd5b505050506040513d601f19601f820116820180604052508101906121359190614b8b565b9050600061214588878585613611565b905060006121528a612e03565b60405163274bc14f60e21b8152600360048201529091506000906001600160a01b038d1690639d2f053c90602401602060405180830381865afa15801561219d573d6000803e3d6000fd5b505050506040513d601f19601f820116820180604052508101906121c19190614b8b565b90506118c38a8987878686613658565b6000806121df858585611d22565b9050801561226e5760405163274bc14f60e21b8152600a60048201526000906001600160a01b03871690639d2f053c90602401602060405180830381865afa15801561222f573d6000803e3d6000fd5b505050506040513d601f19601f820116820180604052508101906122539190614b8b565b90506000612262878787612032565b9050610747818361375d565b509392505050565b6040805160608101825260008082526020820181905291810182905285519091859163ffffffff90811690831610156122d457865163ffffffff908116906122c5908416640100000000614bbb565b6122cf9190614ba4565b6122e7565b86516122e09083614d65565b63ffffffff165b602088015190915063ffffffff166000612305896040015160170b90565b90508183101580612314575081155b1561235e5760405180606001604052808563ffffffff1681526020016123398961377e565b63ffffffff16815260200161234d8861379e565b60170b815250945050505050611031565b816123698482614ba4565b6123739083614d8a565b61237d9190614e27565b9050600061238b8783614e55565b9050806123cf5760405180606001604052808663ffffffff1681526020016123b28a61377e565b63ffffffff16815260006020909101529550611031945050505050565b60006123da83613825565b905060006123e789613825565b905060006123f58284614bbb565b6123ff8c84614e95565b6124098989614ba4565b6124139086614e95565b61241d9190614bbb565b6124279190614eb4565b905060405180606001604052808963ffffffff1681526020016124498361377e565b63ffffffff16815260200161245d8661379e565b60170b90529d9c50505050505050505050505050565b6000670de0b6b3a7640000818061248987612ad1565b915091506000856080015161249e57816124a0565b825b90506000866080015161251457886001600160a01b031663f333fe136040518163ffffffff1660e01b8152600401602060405180830381865afa1580156124eb573d6000803e3d6000fd5b505050506040513d601f19601f8201168201806040525081019061250f9190614b8b565b612576565b886001600160a01b0316632acb38106040518163ffffffff1660e01b8152600401602060405180830381865afa158015612552573d6000803e3d6000fd5b505050506040513d601f19601f820116820180604052508101906125769190614b8b565b9050600061258688878585613611565b9050600088608001516125ad576125a88b8b6125a38e8e87612697565b61316d565b6125c2565b6125c28b8b6125bd8e8e87612697565b612915565b60405163274bc14f60e21b8152600360048201529091506000906001600160a01b038d1690639d2f053c90602401602060405180830381865afa15801561260d573d6000803e3d6000fd5b505050506040513d601f19601f820116820180604052508101906126319190614b8b565b90506118c38a898787868661383c565b60008061264e8385614e95565b90508061265f576000915050610e48565b670de0b6b3a7640000612673600183614ba4565b61267d9190614eb4565b612688906001614bbb565b915050610e48565b5092915050565b6000806126a48585612f9b565b9050806126b657600019915050611bab565b61076b8382613867565b600080600080866001600160a01b031663b445e2e76040518163ffffffff1660e01b8152600401606060405180830381865afa158015612704573d6000803e3d6000fd5b505050506040513d601f19601f820116820180604052508101906127289190614b3e565b925092509250600060405180606001604052808563ffffffff1681526020018463ffffffff1681526020018360170b8152509050600086905061277c4289602001518385612276909392919063ffffffff16565b9150610b00826040015160170b90565b6000670de0b6b3a764000081806127a287612ad1565b91509150600085608001516127b757816127b9565b825b90506000866080015161282d57886001600160a01b031663f333fe136040518163ffffffff1660e01b8152600401602060405180830381865afa158015612804573d6000803e3d6000fd5b505050506040513d601f19601f820116820180604052508101906128289190614b8b565b61288f565b886001600160a01b0316632acb38106040518163ffffffff1660e01b8152600401602060405180830381865afa15801561286b573d6000803e3d6000fd5b505050506040513d601f19601f8201168201806040525081019061288f9190614b8b565b9050600061289f88878585613611565b9050600088608001516128c1576128bc8b8b6125a38e8e87612697565b612152565b6121528b8b6125bd8e8e87612697565b600080600080866001600160a01b031663d565cc336040518163ffffffff1660e01b8152600401606060405180830381865afa158015612704573d6000803e3d6000fd5b6000806129238585856126c0565b604051638607f5c360e01b81529091506001600160a01b03861690638607f5c3906129549087908590600401614ec8565b602060405180830381865afa158015612971573d6000803e3d6000fd5b505050506040513d601f19601f8201168201806040525081019061076b9190614b8b565b6000670de0b6b3a7640000611bab8382613896565b60008060006129b884612ad1565b90925090508082116000816129cd57826129cf565b835b90506000826129de57846129e0565b835b905060006129ee8284614bbb565b905060006129fc8385614ba4565b9050811580612a09575080155b15612a1d5750600098975050505050505050565b60405163274bc14f60e21b8152600060048201819052906001600160a01b038b1690639d2f053c90602401602060405180830381865afa158015612a65573d6000803e3d6000fd5b505050506040513d601f19601f82011682018060405250810190612a899190614b8b565b90506000612aab612a9b836002614e95565b612aa58587613867565b9061375d565b905086612ac057612abb81614f30565b612ac2565b805b9b9a5050505050505050505050565b600080826001600160a01b0316635dedde6d6040518163ffffffff1660e01b8152600401602060405180830381865afa158015612b12573d6000803e3d6000fd5b505050506040513d601f19601f82011682018060405250810190612b369190614b8b565b9150826001600160a01b031663091630146040518163ffffffff1660e01b8152600401602060405180830381865afa158015612b76573d6000803e3d6000fd5b505050506040513d601f19601f82011682018060405250810190612b9a9190614b8b565b90506000836001600160a01b031663c6838e8b6040518163ffffffff1660e01b8152600401602060405180830381865afa158015612bdc573d6000803e3d6000fd5b505050506040513d601f19601f82011682018060405250810190612c009190614b8b565b612c0a9042614ba4565b90508015612cd557818311600081612c225783612c24565b845b9050600082612c335785612c35565b845b604051639f0a545960e01b81526004810184905260248101829052604481018690529091506001600160a01b03881690639f0a5459906064016040805180830381865afa158015612c8a573d6000803e3d6000fd5b505050506040513d601f19601f82011682018060405250810190612cae9190614f4d565b909250905082612cbe5780612cc0565b815b955082612ccd5781612ccf565b805b94505050505b50915091565b600080612ce783613303565b60405163274bc14f60e21b8152600a60048201529091506000906001600160a01b03861690639d2f053c90602401602060405180830381865afa158015612d32573d6000803e3d6000fd5b505050506040513d601f19601f82011682018060405250810190612d569190614b8b565b90506000612d648686611fa2565b90506000612d7186611b96565b90506000612d7e87612995565b905060008211612dc15760405162461bcd60e51b815260206004820152600e60248201526d04f564c56313a206f69203d3d20360941b6044820152606401611864565b6000612ddf8361189961189261188b89670de0b6b3a7640000614ba4565b90508760800151612df957612df48187614bbb565b610b00565b610b008682613343565b6000610e48826060015183608001516138be565b6000670de0b6b3a76400008180612e2d86612ad1565b9150915060008560800151612e425781612e44565b825b905060008660800151612eb857876001600160a01b031663f333fe136040518163ffffffff1660e01b8152600401602060405180830381865afa158015612e8f573d6000803e3d6000fd5b505050506040513d601f19601f82011682018060405250810190612eb39190614b8b565b612f1a565b876001600160a01b0316632acb38106040518163ffffffff1660e01b8152600401602060405180830381865afa158015612ef6573d6000803e3d6000fd5b505050506040513d601f19601f82011682018060405250810190612f1a9190614b8b565b90506106ad87868484613611565b6040516383ba191760e01b8152670de0b6b3a764000060048201526000906001600160a01b038316906383ba191790602401602060405180830381865afa158015612f77573d6000803e3d6000fd5b505050506040513d601f19601f82011682018060405250810190610e489190614b8b565b60405163274bc14f60e21b815260048181015260009081906001600160a01b03851690639d2f053c90602401602060405180830381865afa158015612fe4573d6000803e3d6000fd5b505050506040513d601f19601f820116820180604052508101906130089190614b8b565b60405163ecc1619160e01b81529091506001600160a01b0385169063ecc16191906130399086908590600401614ec8565b602060405180830381865afa158015613056573d6000803e3d6000fd5b505050506040513d601f19601f8201168201806040525081019061307a9190614b8b565b9050611031838261335e565b60405163d4dfadbf60e01b81526001600160a01b03828116600483015260009182917f0000000000000000000000000000000000000000000000000000000000000000169063d4dfadbf90602401602060405180830381865afa1580156130f1573d6000803e3d6000fd5b505050506040513d601f19601f820116820180604052508101906131159190614ab3565b90506001600160a01b038116610e485760405162461bcd60e51b815260206004820152600d60248201527f4f564c56313a216d61726b6574000000000000000000000000000000000000006044820152606401611864565b60008061317b8585856128d1565b60405163176d4ae160e11b81529091506001600160a01b03861690632eda95c2906129549087908590600401614ec8565b6000670de0b6b3a7640000816131c284836135e7565b905060006131d085846135ba565b905060006131de8685613502565b90506000806131ec89612ad1565b91509150600088608001516132015781613203565b825b905060008960800151613277578a6001600160a01b031663f333fe136040518163ffffffff1660e01b8152600401602060405180830381865afa15801561324e573d6000803e3d6000fd5b505050506040513d601f19601f820116820180604052508101906132729190614b8b565b6132d9565b8a6001600160a01b0316632acb38106040518163ffffffff1660e01b8152600401602060405180830381865afa1580156132b5573d6000803e3d6000fd5b505050506040513d601f19601f820116820180604052508101906132d99190614b8b565b905060006132e98b8a8585613611565b90506118c3876132fd886118998c86612641565b90613343565b6000610e4882606001516138d9565b60008261332157506000610e48565b6000613335670de0b6b3a764000085614e95565b905082612673600183614ba4565b600080828411613354576000611031565b6110318385614ba4565b60008061336a84612e03565b9050600081116133bc5760405162461bcd60e51b815260206004820152600c60248201527f4f564c56313a6d69643d3d3000000000000000000000000000000000000000006044820152606401611864565b6110318382613867565b60008215806133d3575081155b6133e7576133e28483856139b1565b611031565b509192915050565b60008061340483670de111a6b7de4000613a64565b90506956d225004ee68c3fffff19811215801561342b575069fe1c215e8f838e0000008113155b6134775760405162461bcd60e51b815260206004820152601960248201527f4f564c56313a207469636b206f7574206f6620626f756e6473000000000000006044820152606401611864565b611bab670de0b6b3a764000082614e27565b6000806134a0612710670de0b6b3a7640000614eb4565b905060006134ae8285614eb4565b905061ffff811115611bab5760405162461bcd60e51b815260206004820152601e60248201527f4f564c56313a20466978656443617374206f7574206f6620626f756e647300006044820152606401611864565b60008061350e84613b6e565b905060006135258261351f87613b81565b90612641565b905061076b8185612641565b6000670de0b6b3a7640000816135478a836135e7565b90508960a001518061355f575060e08a015161ffff16155b1561356f57600092505050610747565b600061357f8b848c8c8c8c613658565b9050600061358d8388612641565b9050600061359b838861375d565b90506135a78183614bbb565b9092109c9b505050505050505050505050565b6000806135c684613b6e565b905060006135258261351f87602001516bffffffffffffffffffffffff1690565b6000806135f384613b6e565b905060006135258261351f87516bffffffffffffffffffffffff1690565b60008061361e8686613bb3565b905080158061362b575083155b80613634575082155b15613643576000915050611031565b61364e8185856139b1565b9695505050505050565b6000806136658888613502565b9050600061367389896135e7565b905060006136818a8a6135ba565b905060006136918b8b8b8b613611565b9050600061369e8c613303565b90508b608001511561371a576136db6136b7838a612641565b6136d66136cc8a670de0b6b3a7640000614bbb565b61351f8686612641565b613bd6565b6136e9866118998786612641565b6136f39190614bbb565b95506137136137028383612641565b61370c9085614bbb565b8790613343565b955061374e565b6137248282612641565b613732866118998786612641565b61373c9190614bbb565b955061374b613702838a612641565b95505b50505050509695505050505050565b60008061376a8385614e95565b9050611031670de0b6b3a764000082614eb4565b60008063ffffffff8311156137975763ffffffff611bab565b5090919050565b600080777fffffffffffffffffffffffffffffffffffffffffffffff19831261380457777fffffffffffffffffffffffffffffffffffffffffffffff83136137e65782611bab565b777fffffffffffffffffffffffffffffffffffffffffffffff611bab565b777fffffffffffffffffffffffffffffffffffffffffffffff199392505050565b6000808212156138385781600003610e48565b5090565b60008061384d888888888888613658565b9050600061385b89896135ba565b9050610b008183614bbb565b60008261387657506000610e48565b600061388a670de0b6b3a764000085614e95565b90506126888382614eb4565b6000806138a384846135e7565b905060006138b185856135ba565b90508161364e8183613343565b60006138cd6002848418614eb4565b611bab90848416614bbb565b6000806138f2670de0b6b3a7640000600285900b614d8a565b90506956d225004ee68c3fffff198112158015613919575069fe1c215e8f838e0000008113155b6139655760405162461bcd60e51b815260206004820152601960248201527f4f564c56313a207469636b206f7574206f6620626f756e6473000000000000006044820152606401611864565b600061397082613825565b9050600082121561399f576133e2613990670de111a6b7de400083613be5565b670de0b6b3a764000090613867565b611031670de111a6b7de400082613cc4565b6000808060001985870985870292508281108382030391505080600014156139eb57600084116139e057600080fd5b508290049050611bab565b8084116139f757600080fd5b6000848688096000868103871696879004966002600389028118808a02820302808a02820302808a02820302808a02820302808a02820302808a02909103029181900381900460010186841190950394909402919094039290920491909117919091029150509392505050565b60008083118015613a785750600160ff1b83105b613ac45760405162461bcd60e51b815260206004820152601b60248201527f4669786564506f696e743a2061206f7574206f6620626f756e647300000000006044820152606401611864565b600082118015613ad75750600160ff1b82105b613b235760405162461bcd60e51b815260206004820152601b60248201527f4669786564506f696e743a2062206f7574206f6620626f756e647300000000006044820152606401611864565b82826000613b318383613da6565b9050600080821215613b465781600003613b48565b815b90506000613b62613b5b83612710612641565b6001613e60565b90506106ad8184614ae6565b6000610e488260e0015161ffff16613e6d565b600080613b9a83516bffffffffffffffffffffffff1690565b90506000613ba784613e94565b90506110318282613867565b600080613bca8460c001516001600160f01b031690565b9050611031818461375d565b60008183106137975781611bab565b6000811580613bfb5750670de0b6b3a764000083145b15613c0f5750670de0b6b3a7640000610e48565b82613c1c57506000610e48565b670de0b6b3a7640000821415613c33575081610e48565b613c46670de0b6b3a76400006002614e95565b821415613c5e57613c578384612641565b9050610e48565b613c71670de0b6b3a76400006004614e95565b821415613c90576000613c848485612641565b90506126888182612641565b6000613c9c8484613ea3565b90506000613caf613b5b83612710612641565b9050613cbb8282613e60565b92505050610e48565b6000811580613cda5750670de0b6b3a764000083145b15613cee5750670de0b6b3a7640000610e48565b82613cfb57506000610e48565b670de0b6b3a7640000821415613d12575081610e48565b613d25670de0b6b3a76400006002614e95565b821415613d3657613c57838461375d565b613d49670de0b6b3a76400006004614e95565b821415613d68576000613d5c848561375d565b9050612688818261375d565b6000613d748484613ea3565b90506000613d87613b5b83612710612641565b905080821015613d9c57600092505050610e48565b613cbb8282613fa4565b600080670c7d713b49da000083138015613dc75750670f43fc2c04ee000083125b15613ddc57613dd583613fb1565b9050613df2565b670de0b6b3a7640000613dee846140d9565b0290505b6000670c7d713b49da000085138015613e125750670f43fc2c04ee000085125b15613e2757613e2085613fb1565b9050613e3d565b670de0b6b3a7640000613e39866140d9565b0290505b81670de0b6b3a7640000820281613e5657613e56614e11565b0595945050505050565b6000806110318385614bbb565b600080613e84612710670de0b6b3a7640000614eb4565b9050611bab8161ffff8516614e95565b6000610e4882604001516138d9565b600081613eb95750670de0b6b3a7640000610e48565b82613ec657506000610e48565b613ed7600160ff1b84106006614484565b82613efd770bce5086492111aea88f4bb1ca6bcf584181ea8059f7653284106007614484565b826000670c7d713b49da000083138015613f1e5750670f43fc2c04ee000083125b15613f55576000613f2e84613fb1565b9050670de0b6b3a764000080820784020583670de0b6b3a764000083050201915050613f63565b81613f5f846140d9565b0290505b670de0b6b3a76400009005613f9b680238fd42c5cf03ffff198212801590613f94575068070c1cc73b00c800008213155b6008614484565b61364e81614496565b6000806110318385614ba4565b670de0b6b3a7640000026000806ec097ce7bc90715b34b9f1000000000808401906ec097ce7bc90715b34b9f0fffffffff1985010281613ff357613ff3614e11565b05905060006ec097ce7bc90715b34b9f100000000082800205905081806ec097ce7bc90715b34b9f100000000081840205915060038205016ec097ce7bc90715b34b9f100000000082840205915060058205016ec097ce7bc90715b34b9f100000000082840205915060078205016ec097ce7bc90715b34b9f100000000082840205915060098205016ec097ce7bc90715b34b9f1000000000828402059150600b8205016ec097ce7bc90715b34b9f1000000000828402059150600d8205016ec097ce7bc90715b34b9f1000000000828402059150600f82050160020295945050505050565b6000670de0b6b3a764000082121561411b57614112826ec097ce7bc90715b34b9f10000000008161410c5761410c614e11565b056140d9565b60000392915050565b60007e1600ef3172e58d2e933ec884fde10064c63b5372d805e203c0000000000000831261416c57770195e54c5dd42177f53a27172fa9ec630262827000000000830592506806f05b59d3b2000000015b73011798004d755d3c8bc8e03204cf44619e00000083126141a4576b1425982cf597cd205cef7380830592506803782dace9d9000000015b606492830292026e01855144814a7ff805980ff008400083126141ec576e01855144814a7ff805980ff008400068056bc75e2d63100000840205925068ad78ebc5ac62000000015b6b02df0ab5a80a22c61ab5a7008312614227576b02df0ab5a80a22c61ab5a70068056bc75e2d6310000084020592506856bc75e2d631000000015b693f1fce3da636ea5cf850831261425e57693f1fce3da636ea5cf85068056bc75e2d631000008402059250682b5e3af16b18800000015b690127fa27722cc06cc5e2831261429557690127fa27722cc06cc5e268056bc75e2d6310000084020592506815af1d78b58c400000015b68280e60114edb805d0383126142ca5768280e60114edb805d0368056bc75e2d631000008402059250680ad78ebc5ac6200000015b680ebc5fb4174612111083126142f557680ebc5fb4174612111068056bc75e2d631000009384020592015b6808f00f760a4b2db55d831261432a576808f00f760a4b2db55d68056bc75e2d6310000084020592506802b5e3af16b1880000015b6806f5f1775788937937831261435f576806f5f177578893793768056bc75e2d63100000840205925068015af1d78b58c40000015b6806248f33704b2866038312614393576806248f33704b28660368056bc75e2d63100000840205925067ad78ebc5ac620000015b6805c548670b9510e7ac83126143c7576805c548670b9510e7ac68056bc75e2d6310000084020592506756bc75e2d6310000015b600068056bc75e2d63100000840168056bc75e2d6310000080860302816143f0576143f0614e11565b059050600068056bc75e2d63100000828002059050818068056bc75e2d63100000818402059150600382050168056bc75e2d63100000828402059150600582050168056bc75e2d63100000828402059150600782050168056bc75e2d63100000828402059150600982050168056bc75e2d63100000828402059150600b820501600202606485820105979650505050505050565b816144925761449281614879565b5050565b60006144c5680238fd42c5cf03ffff1983121580156144be575068070c1cc73b00c800008313155b6009614484565b60008212156144fe576144da82600003614496565b6ec097ce7bc90715b34b9f1000000000816144f7576144f7614e11565b0592915050565b60006806f05b59d3b2000000831261453e57506806f05b59d3b1ffffff1990910190770195e54c5dd42177f53a27172fa9ec630262827000000000614574565b6803782dace9d9000000831261457057506803782dace9d8ffffff19909101906b1425982cf597cd205cef7380614574565b5060015b6064929092029168056bc75e2d6310000068ad78ebc5ac6200000084126145c45768ad78ebc5ac61ffffff199093019268056bc75e2d631000006e01855144814a7ff805980ff008400082020590505b6856bc75e2d6310000008412614600576856bc75e2d630ffffff199093019268056bc75e2d631000006b02df0ab5a80a22c61ab5a70082020590505b682b5e3af16b18800000841261463a57682b5e3af16b187fffff199093019268056bc75e2d63100000693f1fce3da636ea5cf85082020590505b6815af1d78b58c4000008412614674576815af1d78b58c3fffff199093019268056bc75e2d63100000690127fa27722cc06cc5e282020590505b680ad78ebc5ac620000084126146ad57680ad78ebc5ac61fffff199093019268056bc75e2d6310000068280e60114edb805d0382020590505b68056bc75e2d6310000084126146e65768056bc75e2d630fffff199093019268056bc75e2d63100000680ebc5fb4174612111082020590505b6802b5e3af16b1880000841261471f576802b5e3af16b187ffff199093019268056bc75e2d631000006808f00f760a4b2db55d82020590505b68015af1d78b58c4000084126147585768015af1d78b58c3ffff199093019268056bc75e2d631000006806f5f177578893793782020590505b68056bc75e2d631000008481019085906002908280020505918201919050600368056bc75e2d631000008783020505918201919050600468056bc75e2d631000008783020505918201919050600568056bc75e2d631000008783020505918201919050600668056bc75e2d631000008783020505918201919050600768056bc75e2d631000008783020505918201919050600868056bc75e2d631000008783020505918201919050600968056bc75e2d631000008783020505918201919050600a68056bc75e2d631000008783020505918201919050600b68056bc75e2d631000008783020505918201919050600c68056bc75e2d631000008783020505918201919050606468056bc75e2d63100000848402058502059695505050505050565b62461bcd60e51b6000908152602060045260076024526642414c23000030600a808404818106603090810160081b95839006959095019082900491820690940160101b939093010160c81b604452606490fd5b6001600160a01b03811681146148e157600080fd5b50565b80151581146148e157600080fd5b6000806000806080858703121561490857600080fd5b8435614913816148cc565b935060208501359250604085013591506060850135614931816148e4565b939692955090935050565b60008060006060848603121561495157600080fd5b833561495c816148cc565b9250602084013561496c816148cc565b929592945050506040919091013590565b60006020828403121561498f57600080fd5b8135611bab816148cc565b600080604083850312156149ad57600080fd5b82356149b8816148cc565b946020939093013593505050565b6000610100820190506bffffffffffffffffffffffff80845116835280602085015116602084015250604083015160020b6040830152606083015160020b606083015260808301511515608083015260a0830151614a2860a084018215159052565b5060c0830151614a4360c08401826001600160f01b03169052565b5060e083015161269060e084018261ffff169052565b6101008101610e488284805182526020810151602083015260408101516040830152606081015160608301526080810151608083015260a081015160a083015260c081015160c083015260e0810151151560e08301525050565b600060208284031215614ac557600080fd5b8151611bab816148cc565b634e487b7160e01b600052601160045260246000fd5b60008083128015600160ff1b850184121615614b0457614b04614ad0565b836001600160ff1b03018313811615614b1f57614b1f614ad0565b50500390565b805163ffffffff81168114614b3957600080fd5b919050565b600080600060608486031215614b5357600080fd5b614b5c84614b25565b9250614b6a60208501614b25565b915060408401518060170b8114614b8057600080fd5b809150509250925092565b600060208284031215614b9d57600080fd5b5051919050565b600082821015614bb657614bb6614ad0565b500390565b60008219821115614bce57614bce614ad0565b500190565b8051614b39816148e4565b6000610100808385031215614bf257600080fd5b6040519081019067ffffffffffffffff82118183101715614c2357634e487b7160e01b600052604160045260246000fd5b81604052835181526020840151602082015260408401516040820152606084015160608201526080840151608082015260a084015160a082015260c084015160c0820152614c7360e08501614bd3565b60e0820152949350505050565b80516bffffffffffffffffffffffff81168114614b3957600080fd5b8051600281900b8114614b3957600080fd5b600080600080600080600080610100898b031215614ccb57600080fd5b614cd489614c80565b9750614ce260208a01614c80565b9650614cf060408a01614c9c565b9550614cfe60608a01614c9c565b94506080890151614d0e816148e4565b60a08a0151909450614d1f816148e4565b60c08a01519093506001600160f01b0381168114614d3c57600080fd5b60e08a015190925061ffff81168114614d5457600080fd5b809150509295985092959890939650565b600063ffffffff83811690831681811015614d8257614d82614ad0565b039392505050565b60006001600160ff1b03600084136000841385830485118282161615614db257614db2614ad0565b600160ff1b6000871282811687830589121615614dd157614dd1614ad0565b60008712925087820587128484161615614ded57614ded614ad0565b87850587128184161615614e0357614e03614ad0565b505050929093029392505050565b634e487b7160e01b600052601260045260246000fd5b600082614e3657614e36614e11565b600160ff1b821460001984141615614e5057614e50614ad0565b500590565b6000808212826001600160ff1b0303841381151615614e7657614e76614ad0565b600160ff1b8390038412811615614e8f57614e8f614ad0565b50500190565b6000816000190483118215151615614eaf57614eaf614ad0565b500290565b600082614ec357614ec3614e11565b500490565b6101208101614f228285805182526020810151602083015260408101516040830152606081015160608301526080810151608083015260a081015160a083015260c081015160c083015260e0810151151560e08301525050565b826101008301529392505050565b6000600160ff1b821415614f4657614f46614ad0565b5060000390565b60008060408385031215614f6057600080fd5b50508051602090910151909290915056fea2646970667358221220186092f4a8841b985f614ebdb7fff90e14842f9cc6ab024746c9b7baa4b6a01664736f6c634300080a0033",
  "bytecodeSha1": "f1867845c15575f69d6f5157d3c464b52beeeb39",
  "compiler": {
    "evm_version": "istanbul",
    "optimizer": {
      "enabled": true,
      "runs": 800
    },
    "version": "0.8.10+commit.fc410830"
  },
  "contractName": "OverlayV1State",
  "language": "Solidity",
  "natspec": {
    "kind": "dev",
    "methods": {
      "ask(address,uint256)": {
        "details": "fractionOfCapOi (i.e. oi / capOi) is FixedPoint",
        "notice": "Gets the ask price trader will receive on the Overlay marketgiven fraction of cap on open interest trade represents",
        "returns": {
          "ask_": "as the received ask price"
        }
      },
      "bid(address,uint256)": {
        "details": "fractionOfCapOi (i.e. oi / capOi) is FixedPoint",
        "notice": "Gets the bid price trader will receive on the Overlay marketgiven fraction of cap on open interest trade represents",
        "returns": {
          "bid_": "as the received bid price"
        }
      },
      "capOi(address)": {
        "notice": "Gets the current cap on open interest on the Overlay marketaccounting for front and back-running bounds",
        "returns": {
          "capOi_": "as the current open interest cap"
        }
      },
      "circuitBreakerLevel(address)": {
        "details": "circuit breaker level is reported as fraction of capOi in FixedPoint",
        "notice": "Gets the current level of the circuit breaker for theopen interest cap on the Overlay market",
        "returns": {
          "circuitBreakerLevel_": "as the current circuit breaker level"
        }
      },
      "collateral(address,address,uint256)": {
        "details": "N(t) = Q * (OI(t) / OI(0)) - D; where Q = notional at build,OI(t) = current open interest, OI(0) = open interest at build,D = debt at build",
        "notice": "Gets the current collateral backing the position on theOverlay market for the given position owner, id",
        "returns": {
          "collateral_": "as the current collateral backing the position"
        }
      },
      "cost(address,address,uint256)": {
        "notice": "Gets the current cost of the position on the Overlaymarket for the given position owner, id",
        "returns": {
          "cost_": "as the cost to build the position"
        }
      },
      "costEstimate(address,uint256,uint256,bool)": {
        "notice": "Gets the estimated cost of the position to be builton the Overlay market for the given (collateral, leverage,isLong) attributes"
      },
      "data(address)": {
        "notice": "Gets the oracle data from the given feed"
      },
      "debt(address,address,uint256)": {
        "notice": "Gets the current debt of the position on the Overlaymarket for the given position owner, id",
        "returns": {
          "debt_": "as the current debt taken on by the position"
        }
      },
      "debtEstimate(address,uint256,uint256,bool)": {
        "notice": "Gets the estimated debt of the position to be builton the Overlay market for the given (collateral, leverage,isLong) attributes"
      },
      "fractionOfCapOi(address,uint256)": {
        "details": "fractionOfCapOi = oi / capOi is FixedPoint",
        "notice": "Gets the fraction of the current open interest cap thegiven oi contracts represents on the Overlay market",
        "returns": {
          "fractionOfCapOi_": "as fraction of open interest cap given oi is"
        }
      },
      "fundingRate(address)": {
        "details": "f = 2 * k * ( oiLong - oiShort ) / (oiLong + oiShort)such that long > short then positive",
        "notice": "Gets the current funding rate on the Overlay market",
        "returns": {
          "fundingRate_": "as the current funding rate"
        }
      },
      "liquidatable(address,address,uint256)": {
        "notice": "Gets whether the position is currently liquidatable on the Overlaymarket for the given position owner, id",
        "returns": {
          "liquidatable_": "as whether the position is liquidatable"
        }
      },
      "liquidationFee(address,address,uint256)": {
        "details": "liquidationFee_ == 0 if not liquidatable",
        "notice": "Gets the liquidation fee rewarded to the liquidator ifposition currently liquidatable on the Overlay marketfor the given position owner, id",
        "returns": {
          "liquidationFee_": "as the current liquidation fee reward"
        }
      },
      "liquidationPrice(address,address,uint256)": {
        "notice": "Gets the current liquidation price of the position on theOverlay market for the given position owner, id",
        "returns": {
          "liquidationPrice_": "as the current liquidation price"
        }
      },
      "liquidationPriceEstimate(address,uint256,uint256,bool)": {
        "notice": "Gets the estimated liquidation price of the position to be builton the Overlay market for the given (collateral, leverage, isLong)attributes"
      },
      "maintenanceMargin(address,address,uint256)": {
        "notice": "Gets the maintenance margin required to keep the positionopen on the Overlay market for the given position owner, id",
        "returns": {
          "maintenanceMargin_": "as the maintenance margin"
        }
      },
      "maintenanceMarginEstimate(address,uint256,uint256,bool)": {
        "notice": "Gets the estimated maintenance margin of the position to be builton the Overlay market for the given (collateral, leverage, isLong)attributes"
      },
      "marginExcessBeforeLiquidation(address,address,uint256)": {
        "details": "excess_ > 0: returns excess margin before liquidationexcess_ < 0, returns margin lost due to delayed liquidation",
        "notice": "Gets the current position remaining margin to eat throughbefore liquidation occurs on the Overlay marketfor the given position owner, id",
        "returns": {
          "excess_": "as the current value less maintenance and liq fees"
        }
      },
      "market(address)": {
        "details": "reverts if market doesn't exist",
        "notice": "Gets the Overlay market address for the given feed"
      },
      "marketState(address)": {
        "details": "WARNING: makes many calls to market",
        "notice": "Gets relevant market info to aggregate calls into asingle function",
        "returns": {
          "state_": "as the current aggregate market state"
        }
      },
      "mid(address)": {
        "notice": "Gets the mid price from feed used for liquidationson the Overlay market",
        "returns": {
          "mid_": "as the received mid price"
        }
      },
      "minted(address)": {
        "details": "minted_ > 0 means more OVL has been minted than burned recently",
        "notice": "Gets the current rolling amount minted (+) or burned (-)by the Overlay market",
        "returns": {
          "minted_": "as the current rolling amount minted"
        }
      },
      "notional(address,address,uint256)": {
        "notice": "Gets the current notional of the position on the Overlay marketfor the given position owner, id (accounts for PnL)",
        "returns": {
          "notional_": "as the current notional of the position"
        }
      },
      "oi(address,address,uint256)": {
        "notice": "Gets the current open interest of the position on the Overlaymarket for the given position owner, id",
        "returns": {
          "oi_": "as the current open interest occupied by the position"
        }
      },
      "oiEstimate(address,uint256,uint256,bool)": {
        "notice": "Gets the estimated open interest of the position to be builton the Overlay market for the given (collateral, leverage,isLong) attributes"
      },
      "ois(address)": {
        "notice": "Gets the current open interest values on the Overlay marketaccounting for funding",
        "returns": {
          "oiLong_": "as the current open interest long",
          "oiShort_": "as the current open interest short"
        }
      },
      "position(address,address,uint256)": {
        "notice": "Gets the position from the Overlay market or the givenposition owner and position id"
      },
      "positionEstimate(address,uint256,uint256,bool)": {
        "notice": "Gets the estimated position to be built on the Overlay marketfor the given (collateral, leverage, isLong) attributes"
      },
      "prices(address)": {
        "notice": "Gets the current bid, ask, and mid price values on theOverlay market accounting for recent volume",
        "returns": {
          "ask_": "as the current ask price",
          "bid_": "as the current bid price",
          "mid_": "as the current mid price from feed"
        }
      },
      "tradingFee(address,address,uint256)": {
        "details": "tradingFee = notional * tradingFeeRate",
        "notice": "Gets the trading fee charged to unwind the position on theOverlay market for the given position owner, id",
        "returns": {
          "tradingFee_": "as the current trading fee charged"
        }
      },
      "value(address,address,uint256)": {
        "notice": "Gets the current value of the position on the Overlay marketfor the given position owner, id",
        "returns": {
          "value_": "as the current value of the position"
        }
      },
      "volumeAsk(address,uint256)": {
        "details": "fractionOfCapOi (i.e. oi / capOi) is FixedPoint",
        "notice": "Gets the rolling volume on the ask after the trader placestrade on the Overlay market given fraction of cap onopen interest trade represents",
        "returns": {
          "volumeAsk_": "as the volume on the ask"
        }
      },
      "volumeBid(address,uint256)": {
        "details": "fractionOfCapOi (i.e. oi / capOi) is FixedPoint",
        "notice": "Gets the rolling volume on the bid after the trader placestrade on the Overlay market given fraction of cap onopen interest trade represents",
        "returns": {
          "volumeBid_": "as the volume on the bid"
        }
      },
      "volumes(address)": {
        "notice": "Gets the current rolling volume on the bid and ask sidesof the Overlay market",
        "returns": {
          "volumeAsk_": "as the current rolling volume on the ask",
          "volumeBid_": "as the current rolling volume on the bid"
        }
      }
    },
    "title": "A market state contract to view the current state ofan Overlay market",
    "version": 1
  },
  "opcodes": "PUSH1 0x80 PUSH1 0x40 MSTORE CALLVALUE DUP1 ISZERO PUSH2 0x10 JUMPI PUSH1 0x0 DUP1 REVERT JUMPDEST POP PUSH1 0x4 CALLDATASIZE LT PUSH2 0x25C JUMPI PUSH1 0x0 CALLDATALOAD PUSH1 0xE0 SHR DUP1 PUSH4 0x727E8A1B GT PUSH2 0x145 JUMPI DUP1 PUSH4 0xB90D3D0C GT PUSH2 0xBD JUMPI DUP1 PUSH4 0xCFED246B GT PUSH2 0x8C JUMPI DUP1 PUSH4 0xD94CD80F GT PUSH2 0x71 JUMPI DUP1 PUSH4 0xD94CD80F EQ PUSH2 0x5E6 JUMPI DUP1 PUSH4 0xE8EF90B2 EQ PUSH2 0x5F9 JUMPI DUP1 PUSH4 0xF5D2B334 EQ PUSH2 0x60C JUMPI PUSH1 0x0 DUP1 REVERT JUMPDEST DUP1 PUSH4 0xCFED246B EQ PUSH2 0x5A5 JUMPI DUP1 PUSH4 0xD16F3BBF EQ PUSH2 0x5D3 JUMPI PUSH1 0x0 DUP1 REVERT JUMPDEST DUP1 PUSH4 0xB90D3D0C EQ PUSH2 0x538 JUMPI DUP1 PUSH4 0xC18F32F6 EQ PUSH2 0x558 JUMPI DUP1 PUSH4 0xC45A0155 EQ PUSH2 0x56B JUMPI DUP1 PUSH4 0xCE1B4F99 EQ PUSH2 0x592 JUMPI PUSH1 0x0 DUP1 REVERT JUMPDEST DUP1 PUSH4 0x93B0FE49 GT PUSH2 0x114 JUMPI DUP1 PUSH4 0xA7A9A62C GT PUSH2 0xF9 JUMPI DUP1 PUSH4 0xA7A9A62C EQ PUSH2 0x486 JUMPI DUP1 PUSH4 0xA92C5165 EQ PUSH2 0x512 JUMPI DUP1 PUSH4 0xB1EC4C40 EQ PUSH2 0x525 JUMPI PUSH1 0x0 DUP1 REVERT JUMPDEST DUP1 PUSH4 0x93B0FE49 EQ PUSH2 0x448 JUMPI DUP1 PUSH4 0x9F382F6A EQ PUSH2 0x45B JUMPI PUSH1 0x0 DUP1 REVERT JUMPDEST DUP1 PUSH4 0x727E8A1B EQ PUSH2 0x3FC JUMPI DUP1 PUSH4 0x730C4AFF EQ PUSH2 0x40F JUMPI DUP1 PUSH4 0x81EC8B9E EQ PUSH2 0x422 JUMPI DUP1 PUSH4 0x8E968FE5 EQ PUSH2 0x435 JUMPI PUSH1 0x0 DUP1 REVERT JUMPDEST DUP1 PUSH4 0x4C5CF658 GT PUSH2 0x1D8 JUMPI DUP1 PUSH4 0x5BBC8BE2 GT PUSH2 0x1A7 JUMPI DUP1 PUSH4 0x617F37BD GT PUSH2 0x18C JUMPI DUP1 PUSH4 0x617F37BD EQ PUSH2 0x3A1 JUMPI DUP1 PUSH4 0x65E55B32 EQ PUSH2 0x3C9 JUMPI DUP1 PUSH4 0x6AFD3D65 EQ PUSH2 0x3DC JUMPI PUSH1 0x0 DUP1 REVERT JUMPDEST DUP1 PUSH4 0x5BBC8BE2 EQ PUSH2 0x37B JUMPI DUP1 PUSH4 0x5CFDCC0D EQ PUSH2 0x38E JUMPI PUSH1 0x0 DUP1 REVERT JUMPDEST DUP1 PUSH4 0x4C5CF658 EQ PUSH2 0x32F JUMPI DUP1 PUSH4 0x4EA66316 EQ PUSH2 0x342 JUMPI DUP1 PUSH4 0x53F16F67 EQ PUSH2 0x355 JUMPI DUP1 PUSH4 0x59D667A5 EQ PUSH2 0x368 JUMPI PUSH1 0x0 DUP1 REVERT JUMPDEST DUP1 PUSH4 0x1C136A00 GT PUSH2 0x22F JUMPI DUP1 PUSH4 0x42D0C443 GT PUSH2 0x214 JUMPI DUP1 PUSH4 0x42D0C443 EQ PUSH2 0x2F6 JUMPI DUP1 PUSH4 0x43CA411A EQ PUSH2 0x309 JUMPI DUP1 PUSH4 0x48D5DBCC EQ PUSH2 0x31C JUMPI PUSH1 0x0 DUP1 REVERT JUMPDEST DUP1 PUSH4 0x1C136A00 EQ PUSH2 0x2D0 JUMPI DUP1 PUSH4 0x1E7269C5 EQ PUSH2 0x2E3 JUMPI PUSH1 0x0 DUP1 REVERT JUMPDEST DUP1 PUSH4 0x2EAE85C EQ PUSH2 0x261 JUMPI DUP1 PUSH4 0xAFB11E3 EQ PUSH2 0x287 JUMPI DUP1 PUSH4 0x1776F7E9 EQ PUSH2 0x2AA JUMPI DUP1 PUSH4 0x17DE4086 EQ PUSH2 0x2BD JUMPI JUMPDEST PUSH1 0x0 DUP1 REVERT JUMPDEST PUSH2 0x274 PUSH2 0x26F CALLDATASIZE PUSH1 0x4 PUSH2 0x48F2 JUMP JUMPDEST PUSH2 0x61F JUMP JUMPDEST PUSH1 0x40 MLOAD SWAP1 DUP2 MSTORE PUSH1 0x20 ADD JUMPDEST PUSH1 0x40 MLOAD DUP1 SWAP2 SUB SWAP1 RETURN JUMPDEST PUSH2 0x29A PUSH2 0x295 CALLDATASIZE PUSH1 0x4 PUSH2 0x493C JUMP JUMPDEST PUSH2 0x6B9 JUMP JUMPDEST PUSH1 0x40 MLOAD SWAP1 ISZERO ISZERO DUP2 MSTORE PUSH1 0x20 ADD PUSH2 0x27E JUMP JUMPDEST PUSH2 0x274 PUSH2 0x2B8 CALLDATASIZE PUSH1 0x4 PUSH2 0x493C JUMP JUMPDEST PUSH2 0x752 JUMP JUMPDEST PUSH2 0x274 PUSH2 0x2CB CALLDATASIZE PUSH1 0x4 PUSH2 0x48F2 JUMP JUMPDEST PUSH2 0x774 JUMP JUMPDEST PUSH2 0x274 PUSH2 0x2DE CALLDATASIZE PUSH1 0x4 PUSH2 0x493C JUMP JUMPDEST PUSH2 0x803 JUMP JUMPDEST PUSH2 0x274 PUSH2 0x2F1 CALLDATASIZE PUSH1 0x4 PUSH2 0x497D JUMP JUMPDEST PUSH2 0x8D5 JUMP JUMPDEST PUSH2 0x274 PUSH2 0x304 CALLDATASIZE PUSH1 0x4 PUSH2 0x493C JUMP JUMPDEST PUSH2 0x9F5 JUMP JUMPDEST PUSH2 0x274 PUSH2 0x317 CALLDATASIZE PUSH1 0x4 PUSH2 0x499A JUMP JUMPDEST PUSH2 0xB0D JUMP JUMPDEST PUSH2 0x274 PUSH2 0x32A CALLDATASIZE PUSH1 0x4 PUSH2 0x499A JUMP JUMPDEST PUSH2 0xB8C JUMP JUMPDEST PUSH2 0x274 PUSH2 0x33D CALLDATASIZE PUSH1 0x4 PUSH2 0x493C JUMP JUMPDEST PUSH2 0xC0B JUMP JUMPDEST PUSH2 0x274 PUSH2 0x350 CALLDATASIZE PUSH1 0x4 PUSH2 0x499A JUMP JUMPDEST PUSH2 0xC99 JUMP JUMPDEST PUSH2 0x274 PUSH2 0x363 CALLDATASIZE PUSH1 0x4 PUSH2 0x493C JUMP JUMPDEST PUSH2 0xD18 JUMP JUMPDEST PUSH2 0x274 PUSH2 0x376 CALLDATASIZE PUSH1 0x4 PUSH2 0x499A JUMP JUMPDEST PUSH2 0xDA5 JUMP JUMPDEST PUSH2 0x274 PUSH2 0x389 CALLDATASIZE PUSH1 0x4 PUSH2 0x493C JUMP JUMPDEST PUSH2 0xE24 JUMP JUMPDEST PUSH2 0x274 PUSH2 0x39C CALLDATASIZE PUSH1 0x4 PUSH2 0x497D JUMP JUMPDEST PUSH2 0xE3D JUMP JUMPDEST PUSH2 0x3B4 PUSH2 0x3AF CALLDATASIZE PUSH1 0x4 PUSH2 0x497D JUMP JUMPDEST PUSH2 0xE4E JUMP JUMPDEST PUSH1 0x40 DUP1 MLOAD SWAP3 DUP4 MSTORE PUSH1 0x20 DUP4 ADD SWAP2 SWAP1 SWAP2 MSTORE ADD PUSH2 0x27E JUMP JUMPDEST PUSH2 0x274 PUSH2 0x3D7 CALLDATASIZE PUSH1 0x4 PUSH2 0x48F2 JUMP JUMPDEST PUSH2 0xE64 JUMP JUMPDEST PUSH2 0x3EF PUSH2 0x3EA CALLDATASIZE PUSH1 0x4 PUSH2 0x48F2 JUMP JUMPDEST PUSH2 0xEF3 JUMP JUMPDEST PUSH1 0x40 MLOAD PUSH2 0x27E SWAP2 SWAP1 PUSH2 0x49C6 JUMP JUMPDEST PUSH2 0x274 PUSH2 0x40A CALLDATASIZE PUSH1 0x4 PUSH2 0x497D JUMP JUMPDEST PUSH2 0xFB4 JUMP JUMPDEST PUSH2 0x274 PUSH2 0x41D CALLDATASIZE PUSH1 0x4 PUSH2 0x493C JUMP JUMPDEST PUSH2 0x1039 JUMP JUMPDEST PUSH2 0x274 PUSH2 0x430 CALLDATASIZE PUSH1 0x4 PUSH2 0x497D JUMP JUMPDEST PUSH2 0x1053 JUMP JUMPDEST PUSH2 0x274 PUSH2 0x443 CALLDATASIZE PUSH1 0x4 PUSH2 0x497D JUMP JUMPDEST PUSH2 0x105E JUMP JUMPDEST PUSH2 0x274 PUSH2 0x456 CALLDATASIZE PUSH1 0x4 PUSH2 0x493C JUMP JUMPDEST PUSH2 0x10DC JUMP JUMPDEST PUSH2 0x46E PUSH2 0x469 CALLDATASIZE PUSH1 0x4 PUSH2 0x497D JUMP JUMPDEST PUSH2 0x116A JUMP JUMPDEST PUSH1 0x40 MLOAD PUSH1 0x1 PUSH1 0x1 PUSH1 0xA0 SHL SUB SWAP1 SWAP2 AND DUP2 MSTORE PUSH1 0x20 ADD PUSH2 0x27E JUMP JUMPDEST PUSH2 0x499 PUSH2 0x494 CALLDATASIZE PUSH1 0x4 PUSH2 0x497D JUMP JUMPDEST PUSH2 0x1175 JUMP JUMPDEST PUSH1 0x40 MLOAD PUSH2 0x27E SWAP2 SWAP1 PUSH1 0x0 PUSH2 0x140 DUP3 ADD SWAP1 POP DUP3 MLOAD DUP3 MSTORE PUSH1 0x20 DUP4 ADD MLOAD PUSH1 0x20 DUP4 ADD MSTORE PUSH1 0x40 DUP4 ADD MLOAD PUSH1 0x40 DUP4 ADD MSTORE PUSH1 0x60 DUP4 ADD MLOAD PUSH1 0x60 DUP4 ADD MSTORE PUSH1 0x80 DUP4 ADD MLOAD PUSH1 0x80 DUP4 ADD MSTORE PUSH1 0xA0 DUP4 ADD MLOAD PUSH1 0xA0 DUP4 ADD MSTORE PUSH1 0xC0 DUP4 ADD MLOAD PUSH1 0xC0 DUP4 ADD MSTORE PUSH1 0xE0 DUP4 ADD MLOAD PUSH1 0xE0 DUP4 ADD MSTORE PUSH2 0x100 DUP1 DUP5 ADD MLOAD DUP2 DUP5 ADD MSTORE POP PUSH2 0x120 DUP1 DUP5 ADD MLOAD DUP2 DUP5 ADD MSTORE POP SWAP3 SWAP2 POP POP JUMP JUMPDEST PUSH2 0x274 PUSH2 0x520 CALLDATASIZE PUSH1 0x4 PUSH2 0x493C JUMP JUMPDEST PUSH2 0x12EA JUMP JUMPDEST PUSH2 0x3B4 PUSH2 0x533 CALLDATASIZE PUSH1 0x4 PUSH2 0x497D JUMP JUMPDEST PUSH2 0x1304 JUMP JUMPDEST PUSH2 0x54B PUSH2 0x546 CALLDATASIZE PUSH1 0x4 PUSH2 0x497D JUMP JUMPDEST PUSH2 0x139D JUMP JUMPDEST PUSH1 0x40 MLOAD PUSH2 0x27E SWAP2 SWAP1 PUSH2 0x4A59 JUMP JUMPDEST PUSH2 0x274 PUSH2 0x566 CALLDATASIZE PUSH1 0x4 PUSH2 0x493C JUMP JUMPDEST PUSH2 0x13F0 JUMP JUMPDEST PUSH2 0x46E PUSH32 0x0 DUP2 JUMP JUMPDEST PUSH2 0x274 PUSH2 0x5A0 CALLDATASIZE PUSH1 0x4 PUSH2 0x48F2 JUMP JUMPDEST PUSH2 0x147E JUMP JUMPDEST PUSH2 0x5B8 PUSH2 0x5B3 CALLDATASIZE PUSH1 0x4 PUSH2 0x497D JUMP JUMPDEST PUSH2 0x150C JUMP JUMPDEST PUSH1 0x40 DUP1 MLOAD SWAP4 DUP5 MSTORE PUSH1 0x20 DUP5 ADD SWAP3 SWAP1 SWAP3 MSTORE SWAP1 DUP3 ADD MSTORE PUSH1 0x60 ADD PUSH2 0x27E JUMP JUMPDEST PUSH2 0x274 PUSH2 0x5E1 CALLDATASIZE PUSH1 0x4 PUSH2 0x499A JUMP JUMPDEST PUSH2 0x15B2 JUMP JUMPDEST PUSH2 0x274 PUSH2 0x5F4 CALLDATASIZE PUSH1 0x4 PUSH2 0x48F2 JUMP JUMPDEST PUSH2 0x1631 JUMP JUMPDEST PUSH2 0x3EF PUSH2 0x607 CALLDATASIZE PUSH1 0x4 PUSH2 0x493C JUMP JUMPDEST PUSH2 0x16BF JUMP JUMPDEST PUSH2 0x274 PUSH2 0x61A CALLDATASIZE PUSH1 0x4 PUSH2 0x493C JUMP JUMPDEST PUSH2 0x170B JUMP JUMPDEST PUSH1 0x0 DUP1 DUP6 PUSH1 0x1 PUSH1 0x1 PUSH1 0xA0 SHL SUB AND PUSH4 0x37A7B7D8 PUSH1 0x40 MLOAD DUP2 PUSH4 0xFFFFFFFF AND PUSH1 0xE0 SHL DUP2 MSTORE PUSH1 0x4 ADD PUSH1 0x20 PUSH1 0x40 MLOAD DUP1 DUP4 SUB DUP2 DUP7 GAS STATICCALL ISZERO DUP1 ISZERO PUSH2 0x660 JUMPI RETURNDATASIZE PUSH1 0x0 DUP1 RETURNDATACOPY RETURNDATASIZE PUSH1 0x0 REVERT JUMPDEST POP POP POP POP PUSH1 0x40 MLOAD RETURNDATASIZE PUSH1 0x1F NOT PUSH1 0x1F DUP3 ADD AND DUP3 ADD DUP1 PUSH1 0x40 MSTORE POP DUP2 ADD SWAP1 PUSH2 0x684 SWAP2 SWAP1 PUSH2 0x4AB3 JUMP JUMPDEST SWAP1 POP PUSH1 0x0 PUSH2 0x691 DUP3 PUSH2 0x18D3 JUMP JUMPDEST SWAP1 POP PUSH1 0x0 PUSH2 0x6A2 DUP9 DUP4 DUP10 DUP10 DUP10 PUSH2 0x1980 JUMP JUMPDEST SWAP1 POP PUSH2 0x6AD DUP2 PUSH2 0x1B96 JUMP JUMPDEST SWAP9 SWAP8 POP POP POP POP POP POP POP POP JUMP JUMPDEST PUSH1 0x0 DUP1 DUP5 PUSH1 0x1 PUSH1 0x1 PUSH1 0xA0 SHL SUB AND PUSH4 0x37A7B7D8 PUSH1 0x40 MLOAD DUP2 PUSH4 0xFFFFFFFF AND PUSH1 0xE0 SHL DUP2 MSTORE PUSH1 0x4 ADD PUSH1 0x20 PUSH1 0x40 MLOAD DUP1 DUP4 SUB DUP2 DUP7 GAS STATICCALL ISZERO DUP1 ISZERO PUSH2 0x6FA JUMPI RETURNDATASIZE PUSH1 0x0 DUP1 RETURNDATACOPY RETURNDATASIZE PUSH1 0x0 REVERT JUMPDEST POP POP POP POP PUSH1 0x40 MLOAD RETURNDATASIZE PUSH1 0x1F NOT PUSH1 0x1F DUP3 ADD AND DUP3 ADD DUP1 PUSH1 0x40 MSTORE POP DUP2 ADD SWAP1 PUSH2 0x71E SWAP2 SWAP1 PUSH2 0x4AB3 JUMP JUMPDEST SWAP1 POP PUSH1 0x0 PUSH2 0x72B DUP3 PUSH2 0x18D3 JUMP JUMPDEST SWAP1 POP PUSH1 0x0 PUSH2 0x73A DUP8 DUP8 DUP8 PUSH2 0x1BB2 JUMP JUMPDEST SWAP1 POP PUSH2 0x747 DUP8 DUP4 DUP4 PUSH2 0x1D22 JUMP JUMPDEST SWAP8 SWAP7 POP POP POP POP POP POP POP JUMP JUMPDEST PUSH1 0x0 DUP1 PUSH2 0x760 DUP6 DUP6 DUP6 PUSH2 0x1BB2 JUMP JUMPDEST SWAP1 POP PUSH2 0x76B DUP2 PUSH2 0x1F8D JUMP JUMPDEST SWAP6 SWAP5 POP POP POP POP POP JUMP JUMPDEST PUSH1 0x0 DUP1 DUP6 PUSH1 0x1 PUSH1 0x1 PUSH1 0xA0 SHL SUB AND PUSH4 0x37A7B7D8 PUSH1 0x40 MLOAD DUP2 PUSH4 0xFFFFFFFF AND PUSH1 0xE0 SHL DUP2 MSTORE PUSH1 0x4 ADD PUSH1 0x20 PUSH1 0x40 MLOAD DUP1 DUP4 SUB DUP2 DUP7 GAS STATICCALL ISZERO DUP1 ISZERO PUSH2 0x7B5 JUMPI RETURNDATASIZE PUSH1 0x0 DUP1 RETURNDATACOPY RETURNDATASIZE PUSH1 0x0 REVERT JUMPDEST POP POP POP POP PUSH1 0x40 MLOAD RETURNDATASIZE PUSH1 0x1F NOT PUSH1 0x1F DUP3 ADD AND DUP3 ADD DUP1 PUSH1 0x40 MSTORE POP DUP2 ADD SWAP1 PUSH2 0x7D9 SWAP2 SWAP1 PUSH2 0x4AB3 JUMP JUMPDEST SWAP1 POP PUSH1 0x0 PUSH2 0x7E6 DUP3 PUSH2 0x18D3 JUMP JUMPDEST SWAP1 POP PUSH1 0x0 PUSH2 0x7F7 DUP9 DUP4 DUP10 DUP10 DUP10 PUSH2 0x1980 JUMP JUMPDEST SWAP1 POP PUSH2 0x6AD DUP9 DUP3 PUSH2 0x1FA2 JUMP JUMPDEST PUSH1 0x0 DUP1 DUP5 PUSH1 0x1 PUSH1 0x1 PUSH1 0xA0 SHL SUB AND PUSH4 0x37A7B7D8 PUSH1 0x40 MLOAD DUP2 PUSH4 0xFFFFFFFF AND PUSH1 0xE0 SHL DUP2 MSTORE PUSH1 0x4 ADD PUSH1 0x20 PUSH1 0x40 MLOAD DUP1 DUP4 SUB DUP2 DUP7 GAS STATICCALL ISZERO DUP1 ISZERO PUSH2 0x844 JUMPI RETURNDATASIZE PUSH1 0x0 DUP1 RETURNDATACOPY RETURNDATASIZE PUSH1 0x0 REVERT JUMPDEST POP POP POP POP PUSH1 0x40 MLOAD RETURNDATASIZE PUSH1 0x1F NOT PUSH1 0x1F DUP3 ADD AND DUP3 ADD DUP1 PUSH1 0x40 MSTORE POP DUP2 ADD SWAP1 PUSH2 0x868 SWAP2 SWAP1 PUSH2 0x4AB3 JUMP JUMPDEST SWAP1 POP PUSH1 0x0 PUSH2 0x875 DUP3 PUSH2 0x18D3 JUMP JUMPDEST SWAP1 POP PUSH1 0x0 PUSH2 0x884 DUP8 DUP8 DUP8 PUSH2 0x1BB2 JUMP JUMPDEST SWAP1 POP PUSH1 0x0 PUSH2 0x893 DUP9 DUP5 DUP5 PUSH2 0x2032 JUMP JUMPDEST SWAP1 POP PUSH1 0x0 PUSH2 0x8A1 DUP10 DUP5 PUSH2 0x1FA2 JUMP JUMPDEST SWAP1 POP PUSH1 0x0 PUSH2 0x8B0 DUP11 DUP7 DUP7 PUSH2 0x21D1 JUMP JUMPDEST SWAP1 POP DUP1 PUSH2 0x8BD DUP4 DUP6 PUSH2 0x4AE6 JUMP JUMPDEST PUSH2 0x8C7 SWAP2 SWAP1 PUSH2 0x4AE6 JUMP JUMPDEST SWAP11 SWAP10 POP POP POP POP POP POP POP POP POP POP JUMP JUMPDEST PUSH1 0x0 DUP1 PUSH1 0x0 DUP1 DUP5 PUSH1 0x1 PUSH1 0x1 PUSH1 0xA0 SHL SUB AND PUSH4 0x5B6DF29A PUSH1 0x40 MLOAD DUP2 PUSH4 0xFFFFFFFF AND PUSH1 0xE0 SHL DUP2 MSTORE PUSH1 0x4 ADD PUSH1 0x60 PUSH1 0x40 MLOAD DUP1 DUP4 SUB DUP2 DUP7 GAS STATICCALL ISZERO DUP1 ISZERO PUSH2 0x919 JUMPI RETURNDATASIZE PUSH1 0x0 DUP1 RETURNDATACOPY RETURNDATASIZE PUSH1 0x0 REVERT JUMPDEST POP POP POP POP PUSH1 0x40 MLOAD RETURNDATASIZE PUSH1 0x1F NOT PUSH1 0x1F DUP3 ADD AND DUP3 ADD DUP1 PUSH1 0x40 MSTORE POP DUP2 ADD SWAP1 PUSH2 0x93D SWAP2 SWAP1 PUSH2 0x4B3E JUMP JUMPDEST PUSH1 0x40 DUP1 MLOAD PUSH1 0x60 DUP2 ADD DUP3 MSTORE PUSH4 0xFFFFFFFF DUP6 DUP2 AND DUP3 MSTORE DUP5 AND PUSH1 0x20 DUP3 ADD MSTORE PUSH1 0x17 DUP4 SWAP1 SIGNEXTEND DUP2 DUP4 ADD MSTORE SWAP1 MLOAD PUSH4 0x274BC14F PUSH1 0xE2 SHL DUP2 MSTORE PUSH1 0x6 PUSH1 0x4 DUP3 ADD MSTORE SWAP4 SWAP7 POP SWAP2 SWAP5 POP SWAP3 POP SWAP1 PUSH1 0x0 SWAP1 PUSH1 0x1 PUSH1 0x1 PUSH1 0xA0 SHL SUB DUP9 AND SWAP1 PUSH4 0x9D2F053C SWAP1 PUSH1 0x24 ADD PUSH1 0x20 PUSH1 0x40 MLOAD DUP1 DUP4 SUB DUP2 DUP7 GAS STATICCALL ISZERO DUP1 ISZERO PUSH2 0x9B1 JUMPI RETURNDATASIZE PUSH1 0x0 DUP1 RETURNDATACOPY RETURNDATASIZE PUSH1 0x0 REVERT JUMPDEST POP POP POP POP PUSH1 0x40 MLOAD RETURNDATASIZE PUSH1 0x1F NOT PUSH1 0x1F DUP3 ADD AND DUP3 ADD DUP1 PUSH1 0x40 MSTORE POP DUP2 ADD SWAP1 PUSH2 0x9D5 SWAP2 SWAP1 PUSH2 0x4B8B JUMP JUMPDEST SWAP1 POP PUSH1 0x0 PUSH2 0x9E5 DUP4 TIMESTAMP DUP5 DUP5 PUSH2 0x2276 JUMP JUMPDEST SWAP3 POP PUSH2 0x6AD DUP4 PUSH1 0x40 ADD MLOAD PUSH1 0x17 SIGNEXTEND SWAP1 JUMP JUMPDEST PUSH1 0x0 DUP1 DUP5 PUSH1 0x1 PUSH1 0x1 PUSH1 0xA0 SHL SUB AND PUSH4 0x37A7B7D8 PUSH1 0x40 MLOAD DUP2 PUSH4 0xFFFFFFFF AND PUSH1 0xE0 SHL DUP2 MSTORE PUSH1 0x4 ADD PUSH1 0x20 PUSH1 0x40 MLOAD DUP1 DUP4 SUB DUP2 DUP7 GAS STATICCALL ISZERO DUP1 ISZERO PUSH2 0xA36 JUMPI RETURNDATASIZE PUSH1 0x0 DUP1 RETURNDATACOPY RETURNDATASIZE PUSH1 0x0 REVERT JUMPDEST POP POP POP POP PUSH1 0x40 MLOAD RETURNDATASIZE PUSH1 0x1F NOT PUSH1 0x1F DUP3 ADD AND DUP3 ADD DUP1 PUSH1 0x40 MSTORE POP DUP2 ADD SWAP1 PUSH2 0xA5A SWAP2 SWAP1 PUSH2 0x4AB3 JUMP JUMPDEST SWAP1 POP PUSH1 0x0 PUSH2 0xA67 DUP3 PUSH2 0x18D3 JUMP JUMPDEST SWAP1 POP PUSH1 0x0 PUSH2 0xA76 DUP8 DUP8 DUP8 PUSH2 0x1BB2 JUMP JUMPDEST SWAP1 POP PUSH1 0x0 PUSH2 0xA85 DUP9 DUP5 DUP5 PUSH2 0x2473 JUMP JUMPDEST PUSH1 0x40 MLOAD PUSH4 0x274BC14F PUSH1 0xE2 SHL DUP2 MSTORE PUSH1 0xB PUSH1 0x4 DUP3 ADD MSTORE SWAP1 SWAP2 POP PUSH1 0x0 SWAP1 PUSH1 0x1 PUSH1 0x1 PUSH1 0xA0 SHL SUB DUP11 AND SWAP1 PUSH4 0x9D2F053C SWAP1 PUSH1 0x24 ADD PUSH1 0x20 PUSH1 0x40 MLOAD DUP1 DUP4 SUB DUP2 DUP7 GAS STATICCALL ISZERO DUP1 ISZERO PUSH2 0xAD0 JUMPI RETURNDATASIZE PUSH1 0x0 DUP1 RETURNDATACOPY RETURNDATASIZE PUSH1 0x0 REVERT JUMPDEST POP POP POP POP PUSH1 0x40 MLOAD RETURNDATASIZE PUSH1 0x1F NOT PUSH1 0x1F DUP3 ADD AND DUP3 ADD DUP1 PUSH1 0x40 MSTORE POP DUP2 ADD SWAP1 PUSH2 0xAF4 SWAP2 SWAP1 PUSH2 0x4B8B JUMP JUMPDEST SWAP1 POP PUSH2 0xB00 DUP3 DUP3 PUSH2 0x2641 JUMP JUMPDEST SWAP10 SWAP9 POP POP POP POP POP POP POP POP POP JUMP JUMPDEST PUSH1 0x0 DUP1 DUP4 PUSH1 0x1 PUSH1 0x1 PUSH1 0xA0 SHL SUB AND PUSH4 0x37A7B7D8 PUSH1 0x40 MLOAD DUP2 PUSH4 0xFFFFFFFF AND PUSH1 0xE0 SHL DUP2 MSTORE PUSH1 0x4 ADD PUSH1 0x20 PUSH1 0x40 MLOAD DUP1 DUP4 SUB DUP2 DUP7 GAS STATICCALL ISZERO DUP1 ISZERO PUSH2 0xB4E JUMPI RETURNDATASIZE PUSH1 0x0 DUP1 RETURNDATACOPY RETURNDATASIZE PUSH1 0x0 REVERT JUMPDEST POP POP POP POP PUSH1 0x40 MLOAD RETURNDATASIZE PUSH1 0x1F NOT PUSH1 0x1F DUP3 ADD AND DUP3 ADD DUP1 PUSH1 0x40 MSTORE POP DUP2 ADD SWAP1 PUSH2 0xB72 SWAP2 SWAP1 PUSH2 0x4AB3 JUMP JUMPDEST SWAP1 POP PUSH1 0x0 PUSH2 0xB7F DUP3 PUSH2 0x18D3 JUMP JUMPDEST SWAP1 POP PUSH2 0x76B DUP6 DUP3 DUP7 PUSH2 0x2697 JUMP JUMPDEST PUSH1 0x0 DUP1 DUP4 PUSH1 0x1 PUSH1 0x1 PUSH1 0xA0 SHL SUB AND PUSH4 0x37A7B7D8 PUSH1 0x40 MLOAD DUP2 PUSH4 0xFFFFFFFF AND PUSH1 0xE0 SHL DUP2 MSTORE PUSH1 0x4 ADD PUSH1 0x20 PUSH1 0x40 MLOAD DUP1 DUP4 SUB DUP2 DUP7 GAS STATICCALL ISZERO DUP1 ISZERO PUSH2 0xBCD JUMPI RETURNDATASIZE PUSH1 0x0 DUP1 RETURNDATACOPY RETURNDATASIZE PUSH1 0x0 REVERT JUMPDEST POP POP POP POP PUSH1 0x40 MLOAD RETURNDATASIZE PUSH1 0x1F NOT PUSH1 0x1F DUP3 ADD AND DUP3 ADD DUP1 PUSH1 0x40 MSTORE POP DUP2 ADD SWAP1 PUSH2 0xBF1 SWAP2 SWAP1 PUSH2 0x4AB3 JUMP JUMPDEST SWAP1 POP PUSH1 0x0 PUSH2 0xBFE DUP3 PUSH2 0x18D3 JUMP JUMPDEST SWAP1 POP PUSH2 0x76B DUP6 DUP3 DUP7 PUSH2 0x26C0 JUMP JUMPDEST PUSH1 0x0 DUP1 DUP5 PUSH1 0x1 PUSH1 0x1 PUSH1 0xA0 SHL SUB AND PUSH4 0x37A7B7D8 PUSH1 0x40 MLOAD DUP2 PUSH4 0xFFFFFFFF AND PUSH1 0xE0 SHL DUP2 MSTORE PUSH1 0x4 ADD PUSH1 0x20 PUSH1 0x40 MLOAD DUP1 DUP4 SUB DUP2 DUP7 GAS STATICCALL ISZERO DUP1 ISZERO PUSH2 0xC4C JUMPI RETURNDATASIZE PUSH1 0x0 DUP1 RETURNDATACOPY RETURNDATASIZE PUSH1 0x0 REVERT JUMPDEST POP POP POP POP PUSH1 0x40 MLOAD RETURNDATASIZE PUSH1 0x1F NOT PUSH1 0x1F DUP3 ADD AND DUP3 ADD DUP1 PUSH1 0x40 MSTORE POP DUP2 ADD SWAP1 PUSH2 0xC70 SWAP2 SWAP1 PUSH2 0x4AB3 JUMP JUMPDEST SWAP1 POP PUSH1 0x0 PUSH2 0xC7D DUP3 PUSH2 0x18D3 JUMP JUMPDEST SWAP1 POP PUSH1 0x0 PUSH2 0xC8C DUP8 DUP8 DUP8 PUSH2 0x1BB2 JUMP JUMPDEST SWAP1 POP PUSH2 0x747 DUP8 DUP4 DUP4 PUSH2 0x278C JUMP JUMPDEST PUSH1 0x0 DUP1 DUP4 PUSH1 0x1 PUSH1 0x1 PUSH1 0xA0 SHL SUB AND PUSH4 0x37A7B7D8 PUSH1 0x40 MLOAD DUP2 PUSH4 0xFFFFFFFF AND PUSH1 0xE0 SHL DUP2 MSTORE PUSH1 0x4 ADD PUSH1 0x20 PUSH1 0x40 MLOAD DUP1 DUP4 SUB DUP2 DUP7 GAS STATICCALL ISZERO DUP1 ISZERO PUSH2 0xCDA JUMPI RETURNDATASIZE PUSH1 0x0 DUP1 RETURNDATACOPY RETURNDATASIZE PUSH1 0x0 REVERT JUMPDEST POP POP POP POP PUSH1 0x40 MLOAD RETURNDATASIZE PUSH1 0x1F NOT PUSH1 0x1F DUP3 ADD AND DUP3 ADD DUP1 PUSH1 0x40 MSTORE POP DUP2 ADD SWAP1 PUSH2 0xCFE SWAP2 SWAP1 PUSH2 0x4AB3 JUMP JUMPDEST SWAP1 POP PUSH1 0x0 PUSH2 0xD0B DUP3 PUSH2 0x18D3 JUMP JUMPDEST SWAP1 POP PUSH2 0x76B DUP6 DUP3 DUP7 PUSH2 0x28D1 JUMP JUMPDEST PUSH1 0x0 DUP1 DUP5 PUSH1 0x1 PUSH1 0x1 PUSH1 0xA0 SHL SUB AND PUSH4 0x37A7B7D8 PUSH1 0x40 MLOAD DUP2 PUSH4 0xFFFFFFFF AND PUSH1 0xE0 SHL DUP2 MSTORE PUSH1 0x4 ADD PUSH1 0x20 PUSH1 0x40 MLOAD DUP1 DUP4 SUB DUP2 DUP7 GAS STATICCALL ISZERO DUP1 ISZERO PUSH2 0xD59 JUMPI RETURNDATASIZE PUSH1 0x0 DUP1 RETURNDATACOPY RETURNDATASIZE PUSH1 0x0 REVERT JUMPDEST POP POP POP POP PUSH1 0x40 MLOAD RETURNDATASIZE PUSH1 0x1F NOT PUSH1 0x1F DUP3 ADD AND DUP3 ADD DUP1 PUSH1 0x40 MSTORE POP DUP2 ADD SWAP1 PUSH2 0xD7D SWAP2 SWAP1 PUSH2 0x4AB3 JUMP JUMPDEST SWAP1 POP PUSH1 0x0 PUSH2 0xD8A DUP3 PUSH2 0x18D3 JUMP JUMPDEST SWAP1 POP PUSH1 0x0 PUSH2 0xD99 DUP8 DUP8 DUP8 PUSH2 0x1BB2 JUMP JUMPDEST SWAP1 POP PUSH2 0x747 DUP8 DUP3 PUSH2 0x1FA2 JUMP JUMPDEST PUSH1 0x0 DUP1 DUP4 PUSH1 0x1 PUSH1 0x1 PUSH1 0xA0 SHL SUB AND PUSH4 0x37A7B7D8 PUSH1 0x40 MLOAD DUP2 PUSH4 0xFFFFFFFF AND PUSH1 0xE0 SHL DUP2 MSTORE PUSH1 0x4 ADD PUSH1 0x20 PUSH1 0x40 MLOAD DUP1 DUP4 SUB DUP2 DUP7 GAS STATICCALL ISZERO DUP1 ISZERO PUSH2 0xDE6 JUMPI RETURNDATASIZE PUSH1 0x0 DUP1 RETURNDATACOPY RETURNDATASIZE PUSH1 0x0 REVERT JUMPDEST POP POP POP POP PUSH1 0x40 MLOAD RETURNDATASIZE PUSH1 0x1F NOT PUSH1 0x1F DUP3 ADD AND DUP3 ADD DUP1 PUSH1 0x40 MSTORE POP DUP2 ADD SWAP1 PUSH2 0xE0A SWAP2 SWAP1 PUSH2 0x4AB3 JUMP JUMPDEST SWAP1 POP PUSH1 0x0 PUSH2 0xE17 DUP3 PUSH2 0x18D3 JUMP JUMPDEST SWAP1 POP PUSH2 0x76B DUP6 DUP3 DUP7 PUSH2 0x2915 JUMP JUMPDEST PUSH1 0x0 DUP1 PUSH2 0xE32 DUP6 DUP6 DUP6 PUSH2 0x1BB2 JUMP JUMPDEST SWAP1 POP PUSH2 0x76B DUP2 PUSH2 0x2995 JUMP JUMPDEST PUSH1 0x0 PUSH2 0xE48 DUP3 PUSH2 0x29AA JUMP JUMPDEST SWAP3 SWAP2 POP POP JUMP JUMPDEST PUSH1 0x0 DUP1 PUSH2 0xE5A DUP4 PUSH2 0x2AD1 JUMP JUMPDEST SWAP1 SWAP5 SWAP1 SWAP4 POP SWAP2 POP POP JUMP JUMPDEST PUSH1 0x0 DUP1 DUP6 PUSH1 0x1 PUSH1 0x1 PUSH1 0xA0 SHL SUB AND PUSH4 0x37A7B7D8 PUSH1 0x40 MLOAD DUP2 PUSH4 0xFFFFFFFF AND PUSH1 0xE0 SHL DUP2 MSTORE PUSH1 0x4 ADD PUSH1 0x20 PUSH1 0x40 MLOAD DUP1 DUP4 SUB DUP2 DUP7 GAS STATICCALL ISZERO DUP1 ISZERO PUSH2 0xEA5 JUMPI RETURNDATASIZE PUSH1 0x0 DUP1 RETURNDATACOPY RETURNDATASIZE PUSH1 0x0 REVERT JUMPDEST POP POP POP POP PUSH1 0x40 MLOAD RETURNDATASIZE PUSH1 0x1F NOT PUSH1 0x1F DUP3 ADD AND DUP3 ADD DUP1 PUSH1 0x40 MSTORE POP DUP2 ADD SWAP1 PUSH2 0xEC9 SWAP2 SWAP1 PUSH2 0x4AB3 JUMP JUMPDEST SWAP1 POP PUSH1 0x0 PUSH2 0xED6 DUP3 PUSH2 0x18D3 JUMP JUMPDEST SWAP1 POP PUSH1 0x0 PUSH2 0xEE7 DUP9 DUP4 DUP10 DUP10 DUP10 PUSH2 0x1980 JUMP JUMPDEST SWAP1 POP PUSH2 0x6AD DUP9 DUP3 PUSH2 0x2CDB JUMP JUMPDEST PUSH1 0x40 DUP1 MLOAD PUSH2 0x100 DUP2 ADD DUP3 MSTORE PUSH1 0x0 DUP1 DUP3 MSTORE PUSH1 0x20 DUP3 ADD DUP2 SWAP1 MSTORE SWAP2 DUP2 ADD DUP3 SWAP1 MSTORE PUSH1 0x60 DUP2 ADD DUP3 SWAP1 MSTORE PUSH1 0x80 DUP2 ADD DUP3 SWAP1 MSTORE PUSH1 0xA0 DUP2 ADD DUP3 SWAP1 MSTORE PUSH1 0xC0 DUP2 ADD DUP3 SWAP1 MSTORE PUSH1 0xE0 DUP2 ADD SWAP2 SWAP1 SWAP2 MSTORE PUSH1 0x0 DUP6 PUSH1 0x1 PUSH1 0x1 PUSH1 0xA0 SHL SUB AND PUSH4 0x37A7B7D8 PUSH1 0x40 MLOAD DUP2 PUSH4 0xFFFFFFFF AND PUSH1 0xE0 SHL DUP2 MSTORE PUSH1 0x4 ADD PUSH1 0x20 PUSH1 0x40 MLOAD DUP1 DUP4 SUB DUP2 DUP7 GAS STATICCALL ISZERO DUP1 ISZERO PUSH2 0xF74 JUMPI RETURNDATASIZE PUSH1 0x0 DUP1 RETURNDATACOPY RETURNDATASIZE PUSH1 0x0 REVERT JUMPDEST POP POP POP POP PUSH1 0x40 MLOAD RETURNDATASIZE PUSH1 0x1F NOT PUSH1 0x1F DUP3 ADD AND DUP3 ADD DUP1 PUSH1 0x40 MSTORE POP DUP2 ADD SWAP1 PUSH2 0xF98 SWAP2 SWAP1 PUSH2 0x4AB3 JUMP JUMPDEST SWAP1 POP PUSH1 0x0 PUSH2 0xFA5 DUP3 PUSH2 0x18D3 JUMP JUMPDEST SWAP1 POP PUSH2 0x747 DUP8 DUP3 DUP9 DUP9 DUP9 PUSH2 0x1980 JUMP JUMPDEST PUSH1 0x0 DUP1 DUP3 PUSH1 0x1 PUSH1 0x1 PUSH1 0xA0 SHL SUB AND PUSH4 0x37A7B7D8 PUSH1 0x40 MLOAD DUP2 PUSH4 0xFFFFFFFF AND PUSH1 0xE0 SHL DUP2 MSTORE PUSH1 0x4 ADD PUSH1 0x20 PUSH1 0x40 MLOAD DUP1 DUP4 SUB DUP2 DUP7 GAS STATICCALL ISZERO DUP1 ISZERO PUSH2 0xFF5 JUMPI RETURNDATASIZE PUSH1 0x0 DUP1 RETURNDATACOPY RETURNDATASIZE PUSH1 0x0 REVERT JUMPDEST POP POP POP POP PUSH1 0x40 MLOAD RETURNDATASIZE PUSH1 0x1F NOT PUSH1 0x1F DUP3 ADD AND DUP3 ADD DUP1 PUSH1 0x40 MSTORE POP DUP2 ADD SWAP1 PUSH2 0x1019 SWAP2 SWAP1 PUSH2 0x4AB3 JUMP JUMPDEST SWAP1 POP PUSH1 0x0 PUSH2 0x1026 DUP3 PUSH2 0x18D3 JUMP JUMPDEST SWAP1 POP PUSH2 0x1031 DUP2 PUSH2 0x2E03 JUMP JUMPDEST SWAP5 SWAP4 POP POP POP POP JUMP JUMPDEST PUSH1 0x0 DUP1 PUSH2 0x1047 DUP6 DUP6 DUP6 PUSH2 0x1BB2 JUMP JUMPDEST SWAP1 POP PUSH2 0x76B DUP6 DUP3 PUSH2 0x2E17 JUMP JUMPDEST PUSH1 0x0 PUSH2 0xE48 DUP3 PUSH2 0x2F28 JUMP JUMPDEST PUSH1 0x0 DUP1 DUP3 PUSH1 0x1 PUSH1 0x1 PUSH1 0xA0 SHL SUB AND PUSH4 0x37A7B7D8 PUSH1 0x40 MLOAD DUP2 PUSH4 0xFFFFFFFF AND PUSH1 0xE0 SHL DUP2 MSTORE PUSH1 0x4 ADD PUSH1 0x20 PUSH1 0x40 MLOAD DUP1 DUP4 SUB DUP2 DUP7 GAS STATICCALL ISZERO DUP1 ISZERO PUSH2 0x109F JUMPI RETURNDATASIZE PUSH1 0x0 DUP1 RETURNDATACOPY RETURNDATASIZE PUSH1 0x0 REVERT JUMPDEST POP POP POP POP PUSH1 0x40 MLOAD RETURNDATASIZE PUSH1 0x1F NOT PUSH1 0x1F DUP3 ADD AND DUP3 ADD DUP1 PUSH1 0x40 MSTORE POP DUP2 ADD SWAP1 PUSH2 0x10C3 SWAP2 SWAP1 PUSH2 0x4AB3 JUMP JUMPDEST SWAP1 POP PUSH1 0x0 PUSH2 0x10D0 DUP3 PUSH2 0x18D3 JUMP JUMPDEST SWAP1 POP PUSH2 0x1031 DUP5 DUP3 PUSH2 0x2F9B JUMP JUMPDEST PUSH1 0x0 DUP1 DUP5 PUSH1 0x1 PUSH1 0x1 PUSH1 0xA0 SHL SUB AND PUSH4 0x37A7B7D8 PUSH1 0x40 MLOAD DUP2 PUSH4 0xFFFFFFFF AND PUSH1 0xE0 SHL DUP2 MSTORE PUSH1 0x4 ADD PUSH1 0x20 PUSH1 0x40 MLOAD DUP1 DUP4 SUB DUP2 DUP7 GAS STATICCALL ISZERO DUP1 ISZERO PUSH2 0x111D JUMPI RETURNDATASIZE PUSH1 0x0 DUP1 RETURNDATACOPY RETURNDATASIZE PUSH1 0x0 REVERT JUMPDEST POP POP POP POP PUSH1 0x40 MLOAD RETURNDATASIZE PUSH1 0x1F NOT PUSH1 0x1F DUP3 ADD AND DUP3 ADD DUP1 PUSH1 0x40 MSTORE POP DUP2 ADD SWAP1 PUSH2 0x1141 SWAP2 SWAP1 PUSH2 0x4AB3 JUMP JUMPDEST SWAP1 POP PUSH1 0x0 PUSH2 0x114E DUP3 PUSH2 0x18D3 JUMP JUMPDEST SWAP1 POP PUSH1 0x0 PUSH2 0x115D DUP8 DUP8 DUP8 PUSH2 0x1BB2 JUMP JUMPDEST SWAP1 POP PUSH2 0x747 DUP8 DUP4 DUP4 PUSH2 0x21D1 JUMP JUMPDEST PUSH1 0x0 PUSH2 0xE48 DUP3 PUSH2 0x3086 JUMP JUMPDEST PUSH2 0x11CB PUSH1 0x40 MLOAD DUP1 PUSH2 0x140 ADD PUSH1 0x40 MSTORE DUP1 PUSH1 0x0 DUP2 MSTORE PUSH1 0x20 ADD PUSH1 0x0 DUP2 MSTORE PUSH1 0x20 ADD PUSH1 0x0 DUP2 MSTORE PUSH1 0x20 ADD PUSH1 0x0 DUP2 MSTORE PUSH1 0x20 ADD PUSH1 0x0 DUP2 MSTORE PUSH1 0x20 ADD PUSH1 0x0 DUP2 MSTORE PUSH1 0x20 ADD PUSH1 0x0 DUP2 MSTORE PUSH1 0x20 ADD PUSH1 0x0 DUP2 MSTORE PUSH1 0x20 ADD PUSH1 0x0 DUP2 MSTORE PUSH1 0x20 ADD PUSH1 0x0 DUP2 MSTORE POP SWAP1 JUMP JUMPDEST PUSH1 0x0 DUP3 PUSH1 0x1 PUSH1 0x1 PUSH1 0xA0 SHL SUB AND PUSH4 0x37A7B7D8 PUSH1 0x40 MLOAD DUP2 PUSH4 0xFFFFFFFF AND PUSH1 0xE0 SHL DUP2 MSTORE PUSH1 0x4 ADD PUSH1 0x20 PUSH1 0x40 MLOAD DUP1 DUP4 SUB DUP2 DUP7 GAS STATICCALL ISZERO DUP1 ISZERO PUSH2 0x120B JUMPI RETURNDATASIZE PUSH1 0x0 DUP1 RETURNDATACOPY RETURNDATASIZE PUSH1 0x0 REVERT JUMPDEST POP POP POP POP PUSH1 0x40 MLOAD RETURNDATASIZE PUSH1 0x1F NOT PUSH1 0x1F DUP3 ADD AND DUP3 ADD DUP1 PUSH1 0x40 MSTORE POP DUP2 ADD SWAP1 PUSH2 0x122F SWAP2 SWAP1 PUSH2 0x4AB3 JUMP JUMPDEST SWAP1 POP PUSH1 0x0 PUSH2 0x123C DUP3 PUSH2 0x18D3 JUMP JUMPDEST SWAP1 POP PUSH1 0x0 DUP1 PUSH2 0x124A DUP7 PUSH2 0x2AD1 JUMP JUMPDEST SWAP2 POP SWAP2 POP PUSH1 0x40 MLOAD DUP1 PUSH2 0x140 ADD PUSH1 0x40 MSTORE DUP1 PUSH2 0x1266 DUP9 DUP7 PUSH1 0x0 PUSH2 0x2915 JUMP JUMPDEST DUP2 MSTORE PUSH1 0x20 ADD PUSH2 0x1277 DUP9 DUP7 PUSH1 0x0 PUSH2 0x316D JUMP JUMPDEST DUP2 MSTORE PUSH1 0x20 ADD PUSH2 0x1285 DUP6 PUSH2 0x2E03 JUMP JUMPDEST DUP2 MSTORE PUSH1 0x20 ADD PUSH2 0x1296 DUP9 DUP7 PUSH1 0x0 PUSH2 0x26C0 JUMP JUMPDEST DUP2 MSTORE PUSH1 0x20 ADD PUSH2 0x12A7 DUP9 DUP7 PUSH1 0x0 PUSH2 0x28D1 JUMP JUMPDEST DUP2 MSTORE PUSH1 0x20 ADD DUP4 DUP2 MSTORE PUSH1 0x20 ADD DUP3 DUP2 MSTORE PUSH1 0x20 ADD PUSH2 0x12C2 DUP9 DUP7 PUSH2 0x2F9B JUMP JUMPDEST DUP2 MSTORE PUSH1 0x20 ADD PUSH2 0x12D0 DUP9 PUSH2 0x2F28 JUMP JUMPDEST DUP2 MSTORE PUSH1 0x20 ADD PUSH2 0x12DE DUP9 PUSH2 0x29AA JUMP JUMPDEST SWAP1 MSTORE SWAP7 SWAP6 POP POP POP POP POP POP JUMP JUMPDEST PUSH1 0x0 DUP1 PUSH2 0x12F8 DUP6 DUP6 DUP6 PUSH2 0x1BB2 JUMP JUMPDEST SWAP1 POP PUSH2 0x76B DUP6 DUP3 PUSH2 0x31AC JUMP JUMPDEST PUSH1 0x0 DUP1 PUSH1 0x0 DUP4 PUSH1 0x1 PUSH1 0x1 PUSH1 0xA0 SHL SUB AND PUSH4 0x37A7B7D8 PUSH1 0x40 MLOAD DUP2 PUSH4 0xFFFFFFFF AND PUSH1 0xE0 SHL DUP2 MSTORE PUSH1 0x4 ADD PUSH1 0x20 PUSH1 0x40 MLOAD DUP1 DUP4 SUB DUP2 DUP7 GAS STATICCALL ISZERO DUP1 ISZERO PUSH2 0x1347 JUMPI RETURNDATASIZE PUSH1 0x0 DUP1 RETURNDATACOPY RETURNDATASIZE PUSH1 0x0 REVERT JUMPDEST POP POP POP POP PUSH1 0x40 MLOAD RETURNDATASIZE PUSH1 0x1F NOT PUSH1 0x1F DUP3 ADD AND DUP3 ADD DUP1 PUSH1 0x40 MSTORE POP DUP2 ADD SWAP1 PUSH2 0x136B SWAP2 SWAP1 PUSH2 0x4AB3 JUMP JUMPDEST SWAP1 POP PUSH1 0x0 PUSH2 0x1378 DUP3 PUSH2 0x18D3 JUMP JUMPDEST SWAP1 POP PUSH2 0x1386 DUP6 DUP3 PUSH1 0x0 PUSH2 0x26C0 JUMP JUMPDEST SWAP4 POP PUSH2 0x1394 DUP6 DUP3 PUSH1 0x0 PUSH2 0x28D1 JUMP JUMPDEST SWAP3 POP POP POP SWAP2 POP SWAP2 JUMP JUMPDEST PUSH2 0x13E7 PUSH1 0x40 MLOAD DUP1 PUSH2 0x100 ADD PUSH1 0x40 MSTORE DUP1 PUSH1 0x0 DUP2 MSTORE PUSH1 0x20 ADD PUSH1 0x0 DUP2 MSTORE PUSH1 0x20 ADD PUSH1 0x0 DUP2 MSTORE PUSH1 0x20 ADD PUSH1 0x0 DUP2 MSTORE PUSH1 0x20 ADD PUSH1 0x0 DUP2 MSTORE PUSH1 0x20 ADD PUSH1 0x0 DUP2 MSTORE PUSH1 0x20 ADD PUSH1 0x0 DUP2 MSTORE PUSH1 0x20 ADD PUSH1 0x0 ISZERO ISZERO DUP2 MSTORE POP SWAP1 JUMP JUMPDEST PUSH2 0xE48 DUP3 PUSH2 0x18D3 JUMP JUMPDEST PUSH1 0x0 DUP1 DUP5 PUSH1 0x1 PUSH1 0x1 PUSH1 0xA0 SHL SUB AND PUSH4 0x37A7B7D8 PUSH1 0x40 MLOAD DUP2 PUSH4 0xFFFFFFFF AND PUSH1 0xE0 SHL DUP2 MSTORE PUSH1 0x4 ADD PUSH1 0x20 PUSH1 0x40 MLOAD DUP1 DUP4 SUB DUP2 DUP7 GAS STATICCALL ISZERO DUP1 ISZERO PUSH2 0x1431 JUMPI RETURNDATASIZE PUSH1 0x0 DUP1 RETURNDATACOPY RETURNDATASIZE PUSH1 0x0 REVERT JUMPDEST POP POP POP POP PUSH1 0x40 MLOAD RETURNDATASIZE PUSH1 0x1F NOT PUSH1 0x1F DUP3 ADD AND DUP3 ADD DUP1 PUSH1 0x40 MSTORE POP DUP2 ADD SWAP1 PUSH2 0x1455 SWAP2 SWAP1 PUSH2 0x4AB3 JUMP JUMPDEST SWAP1 POP PUSH1 0x0 PUSH2 0x1462 DUP3 PUSH2 0x18D3 JUMP JUMPDEST SWAP1 POP PUSH1 0x0 PUSH2 0x1471 DUP8 DUP8 DUP8 PUSH2 0x1BB2 JUMP JUMPDEST SWAP1 POP PUSH2 0x747 DUP8 DUP4 DUP4 PUSH2 0x2473 JUMP JUMPDEST PUSH1 0x0 DUP1 DUP6 PUSH1 0x1 PUSH1 0x1 PUSH1 0xA0 SHL SUB AND PUSH4 0x37A7B7D8 PUSH1 0x40 MLOAD DUP2 PUSH4 0xFFFFFFFF AND PUSH1 0xE0 SHL DUP2 MSTORE PUSH1 0x4 ADD PUSH1 0x20 PUSH1 0x40 MLOAD DUP1 DUP4 SUB DUP2 DUP7 GAS STATICCALL ISZERO DUP1 ISZERO PUSH2 0x14BF JUMPI RETURNDATASIZE PUSH1 0x0 DUP1 RETURNDATACOPY RETURNDATASIZE PUSH1 0x0 REVERT JUMPDEST POP POP POP POP PUSH1 0x40 MLOAD RETURNDATASIZE PUSH1 0x1F NOT PUSH1 0x1F DUP3 ADD AND DUP3 ADD DUP1 PUSH1 0x40 MSTORE POP DUP2 ADD SWAP1 PUSH2 0x14E3 SWAP2 SWAP1 PUSH2 0x4AB3 JUMP JUMPDEST SWAP1 POP PUSH1 0x0 PUSH2 0x14F0 DUP3 PUSH2 0x18D3 JUMP JUMPDEST SWAP1 POP PUSH1 0x0 PUSH2 0x1501 DUP9 DUP4 DUP10 DUP10 DUP10 PUSH2 0x1980 JUMP JUMPDEST SWAP1 POP PUSH2 0x6AD DUP2 PUSH2 0x1F8D JUMP JUMPDEST PUSH1 0x0 DUP1 PUSH1 0x0 DUP1 DUP5 PUSH1 0x1 PUSH1 0x1 PUSH1 0xA0 SHL SUB AND PUSH4 0x37A7B7D8 PUSH1 0x40 MLOAD DUP2 PUSH4 0xFFFFFFFF AND PUSH1 0xE0 SHL DUP2 MSTORE PUSH1 0x4 ADD PUSH1 0x20 PUSH1 0x40 MLOAD DUP1 DUP4 SUB DUP2 DUP7 GAS STATICCALL ISZERO DUP1 ISZERO PUSH2 0x1550 JUMPI RETURNDATASIZE PUSH1 0x0 DUP1 RETURNDATACOPY RETURNDATASIZE PUSH1 0x0 REVERT JUMPDEST POP POP POP POP PUSH1 0x40 MLOAD RETURNDATASIZE PUSH1 0x1F NOT PUSH1 0x1F DUP3 ADD AND DUP3 ADD DUP1 PUSH1 0x40 MSTORE POP DUP2 ADD SWAP1 PUSH2 0x1574 SWAP2 SWAP1 PUSH2 0x4AB3 JUMP JUMPDEST SWAP1 POP PUSH1 0x0 PUSH2 0x1581 DUP3 PUSH2 0x18D3 JUMP JUMPDEST SWAP1 POP PUSH2 0x158F DUP7 DUP3 PUSH1 0x0 PUSH2 0x2915 JUMP JUMPDEST SWAP5 POP PUSH2 0x159D DUP7 DUP3 PUSH1 0x0 PUSH2 0x316D JUMP JUMPDEST SWAP4 POP PUSH2 0x15A8 DUP2 PUSH2 0x2E03 JUMP JUMPDEST SWAP5 SWAP7 SWAP4 SWAP6 POP POP POP POP JUMP JUMPDEST PUSH1 0x0 DUP1 DUP4 PUSH1 0x1 PUSH1 0x1 PUSH1 0xA0 SHL SUB AND PUSH4 0x37A7B7D8 PUSH1 0x40 MLOAD DUP2 PUSH4 0xFFFFFFFF AND PUSH1 0xE0 SHL DUP2 MSTORE PUSH1 0x4 ADD PUSH1 0x20 PUSH1 0x40 MLOAD DUP1 DUP4 SUB DUP2 DUP7 GAS STATICCALL ISZERO DUP1 ISZERO PUSH2 0x15F3 JUMPI RETURNDATASIZE PUSH1 0x0 DUP1 RETURNDATACOPY RETURNDATASIZE PUSH1 0x0 REVERT JUMPDEST POP POP POP POP PUSH1 0x40 MLOAD RETURNDATASIZE PUSH1 0x1F NOT PUSH1 0x1F DUP3 ADD AND DUP3 ADD DUP1 PUSH1 0x40 MSTORE POP DUP2 ADD SWAP1 PUSH2 0x1617 SWAP2 SWAP1 PUSH2 0x4AB3 JUMP JUMPDEST SWAP1 POP PUSH1 0x0 PUSH2 0x1624 DUP3 PUSH2 0x18D3 JUMP JUMPDEST SWAP1 POP PUSH2 0x76B DUP6 DUP3 DUP7 PUSH2 0x316D JUMP JUMPDEST PUSH1 0x0 DUP1 DUP6 PUSH1 0x1 PUSH1 0x1 PUSH1 0xA0 SHL SUB AND PUSH4 0x37A7B7D8 PUSH1 0x40 MLOAD DUP2 PUSH4 0xFFFFFFFF AND PUSH1 0xE0 SHL DUP2 MSTORE PUSH1 0x4 ADD PUSH1 0x20 PUSH1 0x40 MLOAD DUP1 DUP4 SUB DUP2 DUP7 GAS STATICCALL ISZERO DUP1 ISZERO PUSH2 0x1672 JUMPI RETURNDATASIZE PUSH1 0x0 DUP1 RETURNDATACOPY RETURNDATASIZE PUSH1 0x0 REVERT JUMPDEST POP POP POP POP PUSH1 0x40 MLOAD RETURNDATASIZE PUSH1 0x1F NOT PUSH1 0x1F DUP3 ADD AND DUP3 ADD DUP1 PUSH1 0x40 MSTORE POP DUP2 ADD SWAP1 PUSH2 0x1696 SWAP2 SWAP1 PUSH2 0x4AB3 JUMP JUMPDEST SWAP1 POP PUSH1 0x0 PUSH2 0x16A3 DUP3 PUSH2 0x18D3 JUMP JUMPDEST SWAP1 POP PUSH1 0x0 PUSH2 0x16B4 DUP9 DUP4 DUP10 DUP10 DUP10 PUSH2 0x1980 JUMP JUMPDEST SWAP1 POP PUSH2 0x6AD DUP2 PUSH2 0x2995 JUMP JUMPDEST PUSH1 0x40 DUP1 MLOAD PUSH2 0x100 DUP2 ADD DUP3 MSTORE PUSH1 0x0 DUP1 DUP3 MSTORE PUSH1 0x20 DUP3 ADD DUP2 SWAP1 MSTORE SWAP2 DUP2 ADD DUP3 SWAP1 MSTORE PUSH1 0x60 DUP2 ADD DUP3 SWAP1 MSTORE PUSH1 0x80 DUP2 ADD DUP3 SWAP1 MSTORE PUSH1 0xA0 DUP2 ADD DUP3 SWAP1 MSTORE PUSH1 0xC0 DUP2 ADD DUP3 SWAP1 MSTORE PUSH1 0xE0 DUP2 ADD SWAP2 SWAP1 SWAP2 MSTORE PUSH2 0x1031 DUP5 DUP5 DUP5 PUSH2 0x1BB2 JUMP JUMPDEST PUSH1 0x0 DUP1 DUP5 PUSH1 0x1 PUSH1 0x1 PUSH1 0xA0 SHL SUB AND PUSH4 0x37A7B7D8 PUSH1 0x40 MLOAD DUP2 PUSH4 0xFFFFFFFF AND PUSH1 0xE0 SHL DUP2 MSTORE PUSH1 0x4 ADD PUSH1 0x20 PUSH1 0x40 MLOAD DUP1 DUP4 SUB DUP2 DUP7 GAS STATICCALL ISZERO DUP1 ISZERO PUSH2 0x174C JUMPI RETURNDATASIZE PUSH1 0x0 DUP1 RETURNDATACOPY RETURNDATASIZE PUSH1 0x0 REVERT JUMPDEST POP POP POP POP PUSH1 0x40 MLOAD RETURNDATASIZE PUSH1 0x1F NOT PUSH1 0x1F DUP3 ADD AND DUP3 ADD DUP1 PUSH1 0x40 MSTORE POP DUP2 ADD SWAP1 PUSH2 0x1770 SWAP2 SWAP1 PUSH2 0x4AB3 JUMP JUMPDEST SWAP1 POP PUSH1 0x0 PUSH2 0x177F DUP7 DUP7 DUP7 PUSH2 0x1BB2 JUMP JUMPDEST SWAP1 POP PUSH1 0x0 PUSH2 0x178C DUP3 PUSH2 0x3303 JUMP JUMPDEST PUSH1 0x40 MLOAD PUSH4 0x274BC14F PUSH1 0xE2 SHL DUP2 MSTORE PUSH1 0xA PUSH1 0x4 DUP3 ADD MSTORE SWAP1 SWAP2 POP PUSH1 0x0 SWAP1 PUSH1 0x1 PUSH1 0x1 PUSH1 0xA0 SHL SUB DUP10 AND SWAP1 PUSH4 0x9D2F053C SWAP1 PUSH1 0x24 ADD PUSH1 0x20 PUSH1 0x40 MLOAD DUP1 DUP4 SUB DUP2 DUP7 GAS STATICCALL ISZERO DUP1 ISZERO PUSH2 0x17D7 JUMPI RETURNDATASIZE PUSH1 0x0 DUP1 RETURNDATACOPY RETURNDATASIZE PUSH1 0x0 REVERT JUMPDEST POP POP POP POP PUSH1 0x40 MLOAD RETURNDATASIZE PUSH1 0x1F NOT PUSH1 0x1F DUP3 ADD AND DUP3 ADD DUP1 PUSH1 0x40 MSTORE POP DUP2 ADD SWAP1 PUSH2 0x17FB SWAP2 SWAP1 PUSH2 0x4B8B JUMP JUMPDEST SWAP1 POP PUSH1 0x0 PUSH2 0x1809 DUP10 DUP6 PUSH2 0x1FA2 JUMP JUMPDEST SWAP1 POP PUSH1 0x0 PUSH2 0x1817 DUP11 DUP7 PUSH2 0x2E17 JUMP JUMPDEST SWAP1 POP PUSH1 0x0 PUSH2 0x1825 DUP12 DUP8 PUSH2 0x31AC JUMP JUMPDEST SWAP1 POP PUSH1 0x0 DUP3 GT PUSH2 0x186D JUMPI PUSH1 0x40 MLOAD PUSH3 0x461BCD PUSH1 0xE5 SHL DUP2 MSTORE PUSH1 0x20 PUSH1 0x4 DUP3 ADD MSTORE PUSH1 0xE PUSH1 0x24 DUP3 ADD MSTORE PUSH14 0x4F564C56313A206F69203D3D203 PUSH1 0x94 SHL PUSH1 0x44 DUP3 ADD MSTORE PUSH1 0x64 ADD JUMPDEST PUSH1 0x40 MLOAD DUP1 SWAP2 SUB SWAP1 REVERT JUMPDEST PUSH1 0x0 PUSH2 0x189F DUP4 PUSH2 0x1899 PUSH2 0x1892 PUSH2 0x188B DUP10 PUSH8 0xDE0B6B3A7640000 PUSH2 0x4BA4 JUMP JUMPDEST DUP9 SWAP1 PUSH2 0x3312 JUMP JUMPDEST DUP6 SWAP1 PUSH2 0x3343 JUMP JUMPDEST SWAP1 PUSH2 0x3312 JUMP JUMPDEST SWAP1 POP DUP7 PUSH1 0x80 ADD MLOAD PUSH2 0x18B9 JUMPI PUSH2 0x18B4 DUP2 DUP8 PUSH2 0x4BBB JUMP JUMPDEST PUSH2 0x18C3 JUMP JUMPDEST PUSH2 0x18C3 DUP7 DUP3 PUSH2 0x3343 JUMP JUMPDEST SWAP13 SWAP12 POP POP POP POP POP POP POP POP POP POP POP POP JUMP JUMPDEST PUSH2 0x191D PUSH1 0x40 MLOAD DUP1 PUSH2 0x100 ADD PUSH1 0x40 MSTORE DUP1 PUSH1 0x0 DUP2 MSTORE PUSH1 0x20 ADD PUSH1 0x0 DUP2 MSTORE PUSH1 0x20 ADD PUSH1 0x0 DUP2 MSTORE PUSH1 0x20 ADD PUSH1 0x0 DUP2 MSTORE PUSH1 0x20 ADD PUSH1 0x0 DUP2 MSTORE PUSH1 0x20 ADD PUSH1 0x0 DUP2 MSTORE PUSH1 0x20 ADD PUSH1 0x0 DUP2 MSTORE PUSH1 0x20 ADD PUSH1 0x0 ISZERO ISZERO DUP2 MSTORE POP SWAP1 JUMP JUMPDEST DUP2 PUSH1 0x1 PUSH1 0x1 PUSH1 0xA0 SHL SUB AND PUSH4 0x52BFE789 PUSH1 0x40 MLOAD DUP2 PUSH4 0xFFFFFFFF AND PUSH1 0xE0 SHL DUP2 MSTORE PUSH1 0x4 ADD PUSH2 0x100 PUSH1 0x40 MLOAD DUP1 DUP4 SUB DUP2 DUP7 GAS STATICCALL ISZERO DUP1 ISZERO PUSH2 0x195C JUMPI RETURNDATASIZE PUSH1 0x0 DUP1 RETURNDATACOPY RETURNDATASIZE PUSH1 0x0 REVERT JUMPDEST POP POP POP POP PUSH1 0x40 MLOAD RETURNDATASIZE PUSH1 0x1F NOT PUSH1 0x1F DUP3 ADD AND DUP3 ADD DUP1 PUSH1 0x40 MSTORE POP DUP2 ADD SWAP1 PUSH2 0xE48 SWAP2 SWAP1 PUSH2 0x4BDE JUMP JUMPDEST PUSH1 0x40 DUP1 MLOAD PUSH2 0x100 DUP2 ADD DUP3 MSTORE PUSH1 0x0 DUP1 DUP3 MSTORE PUSH1 0x20 DUP3 ADD DUP2 SWAP1 MSTORE SWAP2 DUP2 ADD DUP3 SWAP1 MSTORE PUSH1 0x60 DUP2 ADD DUP3 SWAP1 MSTORE PUSH1 0x80 DUP2 ADD DUP3 SWAP1 MSTORE PUSH1 0xA0 DUP2 ADD DUP3 SWAP1 MSTORE PUSH1 0xC0 DUP2 ADD DUP3 SWAP1 MSTORE PUSH1 0xE0 DUP2 ADD DUP3 SWAP1 MSTORE SWAP1 PUSH2 0x19CB DUP6 DUP6 PUSH2 0x2641 JUMP JUMPDEST SWAP1 POP PUSH1 0x0 PUSH2 0x19D9 DUP7 DUP4 PUSH2 0x4BA4 JUMP JUMPDEST SWAP1 POP PUSH1 0x0 PUSH2 0x19E7 DUP9 DUP5 PUSH2 0x335E JUMP JUMPDEST SWAP1 POP PUSH1 0x0 PUSH2 0x19F6 DUP11 DUP11 DUP5 PUSH2 0x2697 JUMP JUMPDEST SWAP1 POP PUSH1 0x0 DUP1 PUSH2 0x1A04 DUP13 PUSH2 0x2AD1 JUMP JUMPDEST SWAP2 POP SWAP2 POP PUSH1 0x0 PUSH2 0x1AC5 DUP6 DUP11 PUSH2 0x1A19 JUMPI DUP4 PUSH2 0x1A1B JUMP JUMPDEST DUP5 JUMPDEST DUP12 PUSH2 0x1A87 JUMPI DUP16 PUSH1 0x1 PUSH1 0x1 PUSH1 0xA0 SHL SUB AND PUSH4 0xF333FE13 PUSH1 0x40 MLOAD DUP2 PUSH4 0xFFFFFFFF AND PUSH1 0xE0 SHL DUP2 MSTORE PUSH1 0x4 ADD PUSH1 0x20 PUSH1 0x40 MLOAD DUP1 DUP4 SUB DUP2 DUP7 GAS STATICCALL ISZERO DUP1 ISZERO PUSH2 0x1A5E JUMPI RETURNDATASIZE PUSH1 0x0 DUP1 RETURNDATACOPY RETURNDATASIZE PUSH1 0x0 REVERT JUMPDEST POP POP POP POP PUSH1 0x40 MLOAD RETURNDATASIZE PUSH1 0x1F NOT PUSH1 0x1F DUP3 ADD AND DUP3 ADD DUP1 PUSH1 0x40 MSTORE POP DUP2 ADD SWAP1 PUSH2 0x1A82 SWAP2 SWAP1 PUSH2 0x4B8B JUMP JUMPDEST PUSH2 0x33C6 JUMP JUMPDEST DUP16 PUSH1 0x1 PUSH1 0x1 PUSH1 0xA0 SHL SUB AND PUSH4 0x2ACB3810 PUSH1 0x40 MLOAD DUP2 PUSH4 0xFFFFFFFF AND PUSH1 0xE0 SHL DUP2 MSTORE PUSH1 0x4 ADD PUSH1 0x20 PUSH1 0x40 MLOAD DUP1 DUP4 SUB DUP2 DUP7 GAS STATICCALL ISZERO DUP1 ISZERO PUSH2 0x1A5E JUMPI RETURNDATASIZE PUSH1 0x0 DUP1 RETURNDATACOPY RETURNDATASIZE PUSH1 0x0 REVERT JUMPDEST SWAP1 POP PUSH1 0x0 PUSH2 0x1AD2 DUP14 PUSH2 0x2E03 JUMP JUMPDEST SWAP1 POP PUSH1 0x0 DUP11 PUSH2 0x1AEB JUMPI PUSH2 0x1AE6 DUP16 DUP16 DUP9 PUSH2 0x2915 JUMP JUMPDEST PUSH2 0x1AF6 JUMP JUMPDEST PUSH2 0x1AF6 DUP16 DUP16 DUP9 PUSH2 0x316D JUMP JUMPDEST SWAP1 POP PUSH1 0x40 MLOAD DUP1 PUSH2 0x100 ADD PUSH1 0x40 MSTORE DUP1 DUP11 PUSH12 0xFFFFFFFFFFFFFFFFFFFFFFFF AND DUP2 MSTORE PUSH1 0x20 ADD DUP10 PUSH12 0xFFFFFFFFFFFFFFFFFFFFFFFF AND DUP2 MSTORE PUSH1 0x20 ADD PUSH2 0x1B35 DUP5 PUSH2 0x33EF JUMP JUMPDEST PUSH1 0x2 SIGNEXTEND DUP2 MSTORE PUSH1 0x20 ADD PUSH2 0x1B46 DUP4 PUSH2 0x33EF JUMP JUMPDEST PUSH1 0x2 SIGNEXTEND DUP2 MSTORE DUP13 ISZERO ISZERO PUSH1 0x20 DUP3 ADD MSTORE PUSH1 0x0 PUSH1 0x40 DUP3 ADD MSTORE PUSH1 0x1 PUSH1 0x1 PUSH1 0xF0 SHL SUB DUP6 AND PUSH1 0x60 DUP3 ADD MSTORE PUSH1 0x80 ADD PUSH2 0x1B7D PUSH8 0xDE0B6B3A7640000 PUSH2 0x3489 JUMP JUMPDEST PUSH2 0xFFFF AND SWAP1 MSTORE SWAP16 SWAP15 POP POP POP POP POP POP POP POP POP POP POP POP POP POP POP JUMP JUMPDEST PUSH1 0x0 PUSH8 0xDE0B6B3A7640000 PUSH2 0x1BAB DUP4 DUP3 PUSH2 0x3502 JUMP JUMPDEST SWAP4 SWAP3 POP POP POP JUMP JUMPDEST PUSH1 0x40 DUP1 MLOAD PUSH2 0x100 DUP2 ADD DUP3 MSTORE PUSH1 0x0 DUP1 DUP3 MSTORE PUSH1 0x20 DUP3 ADD DUP2 SWAP1 MSTORE SWAP2 DUP2 ADD DUP3 SWAP1 MSTORE PUSH1 0x60 DUP2 ADD DUP3 SWAP1 MSTORE PUSH1 0x80 DUP2 ADD DUP3 SWAP1 MSTORE PUSH1 0xA0 DUP2 ADD DUP3 SWAP1 MSTORE PUSH1 0xC0 DUP2 ADD DUP3 SWAP1 MSTORE PUSH1 0xE0 DUP2 ADD SWAP2 SWAP1 SWAP2 MSTORE PUSH1 0x40 MLOAD PUSH12 0xFFFFFFFFFFFFFFFFFFFFFFFF NOT PUSH1 0x60 DUP6 SWAP1 SHL AND PUSH1 0x20 DUP3 ADD MSTORE PUSH1 0x34 DUP2 ADD DUP4 SWAP1 MSTORE PUSH1 0x0 SWAP1 PUSH1 0x54 ADD PUSH1 0x40 MLOAD PUSH1 0x20 DUP2 DUP4 SUB SUB DUP2 MSTORE SWAP1 PUSH1 0x40 MSTORE DUP1 MLOAD SWAP1 PUSH1 0x20 ADD KECCAK256 SWAP1 POP PUSH1 0x0 DUP1 PUSH1 0x0 DUP1 PUSH1 0x0 DUP1 PUSH1 0x0 DUP1 DUP13 PUSH1 0x1 PUSH1 0x1 PUSH1 0xA0 SHL SUB AND PUSH4 0x514EA4BF DUP11 PUSH1 0x40 MLOAD DUP3 PUSH4 0xFFFFFFFF AND PUSH1 0xE0 SHL DUP2 MSTORE PUSH1 0x4 ADD PUSH2 0x1C6E SWAP2 DUP2 MSTORE PUSH1 0x20 ADD SWAP1 JUMP JUMPDEST PUSH2 0x100 PUSH1 0x40 MLOAD DUP1 DUP4 SUB DUP2 DUP7 GAS STATICCALL ISZERO DUP1 ISZERO PUSH2 0x1C8C JUMPI RETURNDATASIZE PUSH1 0x0 DUP1 RETURNDATACOPY RETURNDATASIZE PUSH1 0x0 REVERT JUMPDEST POP POP POP POP PUSH1 0x40 MLOAD RETURNDATASIZE PUSH1 0x1F NOT PUSH1 0x1F DUP3 ADD AND DUP3 ADD DUP1 PUSH1 0x40 MSTORE POP DUP2 ADD SWAP1 PUSH2 0x1CB0 SWAP2 SWAP1 PUSH2 0x4CAE JUMP JUMPDEST PUSH1 0x40 DUP1 MLOAD PUSH2 0x100 DUP2 ADD DUP3 MSTORE PUSH12 0xFFFFFFFFFFFFFFFFFFFFFFFF SWAP10 DUP11 AND DUP2 MSTORE SWAP9 SWAP1 SWAP8 AND PUSH1 0x20 DUP10 ADD MSTORE PUSH1 0x2 SWAP6 DUP7 SIGNEXTEND SWAP7 DUP9 ADD SWAP7 SWAP1 SWAP7 MSTORE SWAP3 SWAP1 SWAP4 SIGNEXTEND PUSH1 0x60 DUP7 ADD MSTORE ISZERO ISZERO PUSH1 0x80 DUP6 ADD MSTORE SWAP1 ISZERO ISZERO PUSH1 0xA0 DUP5 ADD MSTORE PUSH1 0x1 PUSH1 0x1 PUSH1 0xF0 SHL SUB AND PUSH1 0xC0 DUP4 ADD MSTORE PUSH2 0xFFFF AND PUSH1 0xE0 DUP3 ADD MSTORE SWAP14 SWAP13 POP POP POP POP POP POP POP POP POP POP POP POP POP JUMP JUMPDEST PUSH1 0x0 DUP1 PUSH1 0x0 PUSH2 0x1D30 DUP7 PUSH2 0x2AD1 JUMP JUMPDEST SWAP2 POP SWAP2 POP PUSH1 0x0 DUP5 PUSH1 0x80 ADD MLOAD PUSH2 0x1D45 JUMPI DUP2 PUSH2 0x1D47 JUMP JUMPDEST DUP3 JUMPDEST SWAP1 POP PUSH1 0x0 DUP6 PUSH1 0x80 ADD MLOAD PUSH2 0x1DBB JUMPI DUP8 PUSH1 0x1 PUSH1 0x1 PUSH1 0xA0 SHL SUB AND PUSH4 0xF333FE13 PUSH1 0x40 MLOAD DUP2 PUSH4 0xFFFFFFFF AND PUSH1 0xE0 SHL DUP2 MSTORE PUSH1 0x4 ADD PUSH1 0x20 PUSH1 0x40 MLOAD DUP1 DUP4 SUB DUP2 DUP7 GAS STATICCALL ISZERO DUP1 ISZERO PUSH2 0x1D92 JUMPI RETURNDATASIZE PUSH1 0x0 DUP1 RETURNDATACOPY RETURNDATASIZE PUSH1 0x0 REVERT JUMPDEST POP POP POP POP PUSH1 0x40 MLOAD RETURNDATASIZE PUSH1 0x1F NOT PUSH1 0x1F DUP3 ADD AND DUP3 ADD DUP1 PUSH1 0x40 MSTORE POP DUP2 ADD SWAP1 PUSH2 0x1DB6 SWAP2 SWAP1 PUSH2 0x4B8B JUMP JUMPDEST PUSH2 0x1E1D JUMP JUMPDEST DUP8 PUSH1 0x1 PUSH1 0x1 PUSH1 0xA0 SHL SUB AND PUSH4 0x2ACB3810 PUSH1 0x40 MLOAD DUP2 PUSH4 0xFFFFFFFF AND PUSH1 0xE0 SHL DUP2 MSTORE PUSH1 0x4 ADD PUSH1 0x20 PUSH1 0x40 MLOAD DUP1 DUP4 SUB DUP2 DUP7 GAS STATICCALL ISZERO DUP1 ISZERO PUSH2 0x1DF9 JUMPI RETURNDATASIZE PUSH1 0x0 DUP1 RETURNDATACOPY RETURNDATASIZE PUSH1 0x0 REVERT JUMPDEST POP POP POP POP PUSH1 0x40 MLOAD RETURNDATASIZE PUSH1 0x1F NOT PUSH1 0x1F DUP3 ADD AND DUP3 ADD DUP1 PUSH1 0x40 MSTORE POP DUP2 ADD SWAP1 PUSH2 0x1E1D SWAP2 SWAP1 PUSH2 0x4B8B JUMP JUMPDEST SWAP1 POP PUSH1 0x0 PUSH2 0x1E2A DUP9 PUSH2 0x2E03 JUMP JUMPDEST PUSH1 0x40 MLOAD PUSH4 0x274BC14F PUSH1 0xE2 SHL DUP2 MSTORE PUSH1 0xA PUSH1 0x4 DUP3 ADD MSTORE SWAP1 SWAP2 POP PUSH1 0x0 SWAP1 PUSH1 0x1 PUSH1 0x1 PUSH1 0xA0 SHL SUB DUP12 AND SWAP1 PUSH4 0x9D2F053C SWAP1 PUSH1 0x24 ADD PUSH1 0x20 PUSH1 0x40 MLOAD DUP1 DUP4 SUB DUP2 DUP7 GAS STATICCALL ISZERO DUP1 ISZERO PUSH2 0x1E75 JUMPI RETURNDATASIZE PUSH1 0x0 DUP1 RETURNDATACOPY RETURNDATASIZE PUSH1 0x0 REVERT JUMPDEST POP POP POP POP PUSH1 0x40 MLOAD RETURNDATASIZE PUSH1 0x1F NOT PUSH1 0x1F DUP3 ADD AND DUP3 ADD DUP1 PUSH1 0x40 MSTORE POP DUP2 ADD SWAP1 PUSH2 0x1E99 SWAP2 SWAP1 PUSH2 0x4B8B JUMP JUMPDEST SWAP1 POP PUSH2 0x8C7 DUP5 DUP5 DUP5 PUSH1 0x1 PUSH1 0x1 PUSH1 0xA0 SHL SUB DUP15 AND PUSH4 0x9D2F053C PUSH1 0x3 PUSH1 0x40 MLOAD DUP3 PUSH4 0xFFFFFFFF AND PUSH1 0xE0 SHL DUP2 MSTORE PUSH1 0x4 ADD PUSH2 0x1ED0 SWAP2 DUP2 MSTORE PUSH1 0x20 ADD SWAP1 JUMP JUMPDEST PUSH1 0x20 PUSH1 0x40 MLOAD DUP1 DUP4 SUB DUP2 DUP7 GAS STATICCALL ISZERO DUP1 ISZERO PUSH2 0x1EED JUMPI RETURNDATASIZE PUSH1 0x0 DUP1 RETURNDATACOPY RETURNDATASIZE PUSH1 0x0 REVERT JUMPDEST POP POP POP POP PUSH1 0x40 MLOAD RETURNDATASIZE PUSH1 0x1F NOT PUSH1 0x1F DUP3 ADD AND DUP3 ADD DUP1 PUSH1 0x40 MSTORE POP DUP2 ADD SWAP1 PUSH2 0x1F11 SWAP2 SWAP1 PUSH2 0x4B8B JUMP JUMPDEST PUSH1 0x1 PUSH1 0x1 PUSH1 0xA0 SHL SUB DUP16 AND PUSH4 0x9D2F053C PUSH1 0x8 PUSH1 0x40 MLOAD DUP3 PUSH4 0xFFFFFFFF AND PUSH1 0xE0 SHL DUP2 MSTORE PUSH1 0x4 ADD PUSH2 0x1F40 SWAP2 DUP2 MSTORE PUSH1 0x20 ADD SWAP1 JUMP JUMPDEST PUSH1 0x20 PUSH1 0x40 MLOAD DUP1 DUP4 SUB DUP2 DUP7 GAS STATICCALL ISZERO DUP1 ISZERO PUSH2 0x1F5D JUMPI RETURNDATASIZE PUSH1 0x0 DUP1 RETURNDATACOPY RETURNDATASIZE PUSH1 0x0 REVERT JUMPDEST POP POP POP POP PUSH1 0x40 MLOAD RETURNDATASIZE PUSH1 0x1F NOT PUSH1 0x1F DUP3 ADD AND DUP3 ADD DUP1 PUSH1 0x40 MSTORE POP DUP2 ADD SWAP1 PUSH2 0x1F81 SWAP2 SWAP1 PUSH2 0x4B8B JUMP JUMPDEST DUP14 SWAP5 SWAP4 SWAP3 SWAP2 SWAP1 DUP8 PUSH2 0x3531 JUMP JUMPDEST PUSH1 0x0 PUSH8 0xDE0B6B3A7640000 PUSH2 0x1BAB DUP4 DUP3 PUSH2 0x35BA JUMP JUMPDEST PUSH1 0x40 MLOAD PUSH4 0x274BC14F PUSH1 0xE2 SHL DUP2 MSTORE PUSH1 0x8 PUSH1 0x4 DUP3 ADD MSTORE PUSH1 0x0 SWAP1 DUP2 SWAP1 PUSH1 0x1 PUSH1 0x1 PUSH1 0xA0 SHL SUB DUP6 AND SWAP1 PUSH4 0x9D2F053C SWAP1 PUSH1 0x24 ADD PUSH1 0x20 PUSH1 0x40 MLOAD DUP1 DUP4 SUB DUP2 DUP7 GAS STATICCALL ISZERO DUP1 ISZERO PUSH2 0x1FEC JUMPI RETURNDATASIZE PUSH1 0x0 DUP1 RETURNDATACOPY RETURNDATASIZE PUSH1 0x0 REVERT JUMPDEST POP POP POP POP PUSH1 0x40 MLOAD RETURNDATASIZE PUSH1 0x1F NOT PUSH1 0x1F DUP3 ADD AND DUP3 ADD DUP1 PUSH1 0x40 MSTORE POP DUP2 ADD SWAP1 PUSH2 0x2010 SWAP2 SWAP1 PUSH2 0x4B8B JUMP JUMPDEST SWAP1 POP PUSH1 0x0 PUSH2 0x2026 DUP5 PUSH8 0xDE0B6B3A7640000 PUSH2 0x35E7 JUMP JUMPDEST SWAP1 POP PUSH2 0x76B DUP2 DUP4 PUSH2 0x2641 JUMP JUMPDEST PUSH1 0x0 PUSH8 0xDE0B6B3A7640000 DUP2 DUP1 PUSH2 0x2048 DUP8 PUSH2 0x2AD1 JUMP JUMPDEST SWAP2 POP SWAP2 POP PUSH1 0x0 DUP6 PUSH1 0x80 ADD MLOAD PUSH2 0x205D JUMPI DUP2 PUSH2 0x205F JUMP JUMPDEST DUP3 JUMPDEST SWAP1 POP PUSH1 0x0 DUP7 PUSH1 0x80 ADD MLOAD PUSH2 0x20D3 JUMPI DUP9 PUSH1 0x1 PUSH1 0x1 PUSH1 0xA0 SHL SUB AND PUSH4 0xF333FE13 PUSH1 0x40 MLOAD DUP2 PUSH4 0xFFFFFFFF AND PUSH1 0xE0 SHL DUP2 MSTORE PUSH1 0x4 ADD PUSH1 0x20 PUSH1 0x40 MLOAD DUP1 DUP4 SUB DUP2 DUP7 GAS STATICCALL ISZERO DUP1 ISZERO PUSH2 0x20AA JUMPI RETURNDATASIZE PUSH1 0x0 DUP1 RETURNDATACOPY RETURNDATASIZE PUSH1 0x0 REVERT JUMPDEST POP POP POP POP PUSH1 0x40 MLOAD RETURNDATASIZE PUSH1 0x1F NOT PUSH1 0x1F DUP3 ADD AND DUP3 ADD DUP1 PUSH1 0x40 MSTORE POP DUP2 ADD SWAP1 PUSH2 0x20CE SWAP2 SWAP1 PUSH2 0x4B8B JUMP JUMPDEST PUSH2 0x2135 JUMP JUMPDEST DUP9 PUSH1 0x1 PUSH1 0x1 PUSH1 0xA0 SHL SUB AND PUSH4 0x2ACB3810 PUSH1 0x40 MLOAD DUP2 PUSH4 0xFFFFFFFF AND PUSH1 0xE0 SHL DUP2 MSTORE PUSH1 0x4 ADD PUSH1 0x20 PUSH1 0x40 MLOAD DUP1 DUP4 SUB DUP2 DUP7 GAS STATICCALL ISZERO DUP1 ISZERO PUSH2 0x2111 JUMPI RETURNDATASIZE PUSH1 0x0 DUP1 RETURNDATACOPY RETURNDATASIZE PUSH1 0x0 REVERT JUMPDEST POP POP POP POP PUSH1 0x40 MLOAD RETURNDATASIZE PUSH1 0x1F NOT PUSH1 0x1F DUP3 ADD AND DUP3 ADD DUP1 PUSH1 0x40 MSTORE POP DUP2 ADD SWAP1 PUSH2 0x2135 SWAP2 SWAP1 PUSH2 0x4B8B JUMP JUMPDEST SWAP1 POP PUSH1 0x0 PUSH2 0x2145 DUP9 DUP8 DUP6 DUP6 PUSH2 0x3611 JUMP JUMPDEST SWAP1 POP PUSH1 0x0 PUSH2 0x2152 DUP11 PUSH2 0x2E03 JUMP JUMPDEST PUSH1 0x40 MLOAD PUSH4 0x274BC14F PUSH1 0xE2 SHL DUP2 MSTORE PUSH1 0x3 PUSH1 0x4 DUP3 ADD MSTORE SWAP1 SWAP2 POP PUSH1 0x0 SWAP1 PUSH1 0x1 PUSH1 0x1 PUSH1 0xA0 SHL SUB DUP14 AND SWAP1 PUSH4 0x9D2F053C SWAP1 PUSH1 0x24 ADD PUSH1 0x20 PUSH1 0x40 MLOAD DUP1 DUP4 SUB DUP2 DUP7 GAS STATICCALL ISZERO DUP1 ISZERO PUSH2 0x219D JUMPI RETURNDATASIZE PUSH1 0x0 DUP1 RETURNDATACOPY RETURNDATASIZE PUSH1 0x0 REVERT JUMPDEST POP POP POP POP PUSH1 0x40 MLOAD RETURNDATASIZE PUSH1 0x1F NOT PUSH1 0x1F DUP3 ADD AND DUP3 ADD DUP1 PUSH1 0x40 MSTORE POP DUP2 ADD SWAP1 PUSH2 0x21C1 SWAP2 SWAP1 PUSH2 0x4B8B JUMP JUMPDEST SWAP1 POP PUSH2 0x18C3 DUP11 DUP10 DUP8 DUP8 DUP7 DUP7 PUSH2 0x3658 JUMP JUMPDEST PUSH1 0x0 DUP1 PUSH2 0x21DF DUP6 DUP6 DUP6 PUSH2 0x1D22 JUMP JUMPDEST SWAP1 POP DUP1 ISZERO PUSH2 0x226E JUMPI PUSH1 0x40 MLOAD PUSH4 0x274BC14F PUSH1 0xE2 SHL DUP2 MSTORE PUSH1 0xA PUSH1 0x4 DUP3 ADD MSTORE PUSH1 0x0 SWAP1 PUSH1 0x1 PUSH1 0x1 PUSH1 0xA0 SHL SUB DUP8 AND SWAP1 PUSH4 0x9D2F053C SWAP1 PUSH1 0x24 ADD PUSH1 0x20 PUSH1 0x40 MLOAD DUP1 DUP4 SUB DUP2 DUP7 GAS STATICCALL ISZERO DUP1 ISZERO PUSH2 0x222F JUMPI RETURNDATASIZE PUSH1 0x0 DUP1 RETURNDATACOPY RETURNDATASIZE PUSH1 0x0 REVERT JUMPDEST POP POP POP POP PUSH1 0x40 MLOAD RETURNDATASIZE PUSH1 0x1F NOT PUSH1 0x1F DUP3 ADD AND DUP3 ADD DUP1 PUSH1 0x40 MSTORE POP DUP2 ADD SWAP1 PUSH2 0x2253 SWAP2 SWAP1 PUSH2 0x4B8B JUMP JUMPDEST SWAP1 POP PUSH1 0x0 PUSH2 0x2262 DUP8 DUP8 DUP8 PUSH2 0x2032 JUMP JUMPDEST SWAP1 POP PUSH2 0x747 DUP2 DUP4 PUSH2 0x375D JUMP JUMPDEST POP SWAP4 SWAP3 POP POP POP JUMP JUMPDEST PUSH1 0x40 DUP1 MLOAD PUSH1 0x60 DUP2 ADD DUP3 MSTORE PUSH1 0x0 DUP1 DUP3 MSTORE PUSH1 0x20 DUP3 ADD DUP2 SWAP1 MSTORE SWAP2 DUP2 ADD DUP3 SWAP1 MSTORE DUP6 MLOAD SWAP1 SWAP2 DUP6 SWAP2 PUSH4 0xFFFFFFFF SWAP1 DUP2 AND SWAP1 DUP4 AND LT ISZERO PUSH2 0x22D4 JUMPI DUP7 MLOAD PUSH4 0xFFFFFFFF SWAP1 DUP2 AND SWAP1 PUSH2 0x22C5 SWAP1 DUP5 AND PUSH5 0x100000000 PUSH2 0x4BBB JUMP JUMPDEST PUSH2 0x22CF SWAP2 SWAP1 PUSH2 0x4BA4 JUMP JUMPDEST PUSH2 0x22E7 JUMP JUMPDEST DUP7 MLOAD PUSH2 0x22E0 SWAP1 DUP4 PUSH2 0x4D65 JUMP JUMPDEST PUSH4 0xFFFFFFFF AND JUMPDEST PUSH1 0x20 DUP9 ADD MLOAD SWAP1 SWAP2 POP PUSH4 0xFFFFFFFF AND PUSH1 0x0 PUSH2 0x2305 DUP10 PUSH1 0x40 ADD MLOAD PUSH1 0x17 SIGNEXTEND SWAP1 JUMP JUMPDEST SWAP1 POP DUP2 DUP4 LT ISZERO DUP1 PUSH2 0x2314 JUMPI POP DUP2 ISZERO JUMPDEST ISZERO PUSH2 0x235E JUMPI PUSH1 0x40 MLOAD DUP1 PUSH1 0x60 ADD PUSH1 0x40 MSTORE DUP1 DUP6 PUSH4 0xFFFFFFFF AND DUP2 MSTORE PUSH1 0x20 ADD PUSH2 0x2339 DUP10 PUSH2 0x377E JUMP JUMPDEST PUSH4 0xFFFFFFFF AND DUP2 MSTORE PUSH1 0x20 ADD PUSH2 0x234D DUP9 PUSH2 0x379E JUMP JUMPDEST PUSH1 0x17 SIGNEXTEND DUP2 MSTORE POP SWAP5 POP POP POP POP POP PUSH2 0x1031 JUMP JUMPDEST DUP2 PUSH2 0x2369 DUP5 DUP3 PUSH2 0x4BA4 JUMP JUMPDEST PUSH2 0x2373 SWAP1 DUP4 PUSH2 0x4D8A JUMP JUMPDEST PUSH2 0x237D SWAP2 SWAP1 PUSH2 0x4E27 JUMP JUMPDEST SWAP1 POP PUSH1 0x0 PUSH2 0x238B DUP8 DUP4 PUSH2 0x4E55 JUMP JUMPDEST SWAP1 POP DUP1 PUSH2 0x23CF JUMPI PUSH1 0x40 MLOAD DUP1 PUSH1 0x60 ADD PUSH1 0x40 MSTORE DUP1 DUP7 PUSH4 0xFFFFFFFF AND DUP2 MSTORE PUSH1 0x20 ADD PUSH2 0x23B2 DUP11 PUSH2 0x377E JUMP JUMPDEST PUSH4 0xFFFFFFFF AND DUP2 MSTORE PUSH1 0x0 PUSH1 0x20 SWAP1 SWAP2 ADD MSTORE SWAP6 POP PUSH2 0x1031 SWAP5 POP POP POP POP POP JUMP JUMPDEST PUSH1 0x0 PUSH2 0x23DA DUP4 PUSH2 0x3825 JUMP JUMPDEST SWAP1 POP PUSH1 0x0 PUSH2 0x23E7 DUP10 PUSH2 0x3825 JUMP JUMPDEST SWAP1 POP PUSH1 0x0 PUSH2 0x23F5 DUP3 DUP5 PUSH2 0x4BBB JUMP JUMPDEST PUSH2 0x23FF DUP13 DUP5 PUSH2 0x4E95 JUMP JUMPDEST PUSH2 0x2409 DUP10 DUP10 PUSH2 0x4BA4 JUMP JUMPDEST PUSH2 0x2413 SWAP1 DUP7 PUSH2 0x4E95 JUMP JUMPDEST PUSH2 0x241D SWAP2 SWAP1 PUSH2 0x4BBB JUMP JUMPDEST PUSH2 0x2427 SWAP2 SWAP1 PUSH2 0x4EB4 JUMP JUMPDEST SWAP1 POP PUSH1 0x40 MLOAD DUP1 PUSH1 0x60 ADD PUSH1 0x40 MSTORE DUP1 DUP10 PUSH4 0xFFFFFFFF AND DUP2 MSTORE PUSH1 0x20 ADD PUSH2 0x2449 DUP4 PUSH2 0x377E JUMP JUMPDEST PUSH4 0xFFFFFFFF AND DUP2 MSTORE PUSH1 0x20 ADD PUSH2 0x245D DUP7 PUSH2 0x379E JUMP JUMPDEST PUSH1 0x17 SIGNEXTEND SWAP1 MSTORE SWAP14 SWAP13 POP POP POP POP POP POP POP POP POP POP POP POP POP JUMP JUMPDEST PUSH1 0x0 PUSH8 0xDE0B6B3A7640000 DUP2 DUP1 PUSH2 0x2489 DUP8 PUSH2 0x2AD1 JUMP JUMPDEST SWAP2 POP SWAP2 POP PUSH1 0x0 DUP6 PUSH1 0x80 ADD MLOAD PUSH2 0x249E JUMPI DUP2 PUSH2 0x24A0 JUMP JUMPDEST DUP3 JUMPDEST SWAP1 POP PUSH1 0x0 DUP7 PUSH1 0x80 ADD MLOAD PUSH2 0x2514 JUMPI DUP9 PUSH1 0x1 PUSH1 0x1 PUSH1 0xA0 SHL SUB AND PUSH4 0xF333FE13 PUSH1 0x40 MLOAD DUP2 PUSH4 0xFFFFFFFF AND PUSH1 0xE0 SHL DUP2 MSTORE PUSH1 0x4 ADD PUSH1 0x20 PUSH1 0x40 MLOAD DUP1 DUP4 SUB DUP2 DUP7 GAS STATICCALL ISZERO DUP1 ISZERO PUSH2 0x24EB JUMPI RETURNDATASIZE PUSH1 0x0 DUP1 RETURNDATACOPY RETURNDATASIZE PUSH1 0x0 REVERT JUMPDEST POP POP POP POP PUSH1 0x40 MLOAD RETURNDATASIZE PUSH1 0x1F NOT PUSH1 0x1F DUP3 ADD AND DUP3 ADD DUP1 PUSH1 0x40 MSTORE POP DUP2 ADD SWAP1 PUSH2 0x250F SWAP2 SWAP1 PUSH2 0x4B8B JUMP JUMPDEST PUSH2 0x2576 JUMP JUMPDEST DUP9 PUSH1 0x1 PUSH1 0x1 PUSH1 0xA0 SHL SUB AND PUSH4 0x2ACB3810 PUSH1 0x40 MLOAD DUP2 PUSH4 0xFFFFFFFF AND PUSH1 0xE0 SHL DUP2 MSTORE PUSH1 0x4 ADD PUSH1 0x20 PUSH1 0x40 MLOAD DUP1 DUP4 SUB DUP2 DUP7 GAS STATICCALL ISZERO DUP1 ISZERO PUSH2 0x2552 JUMPI RETURNDATASIZE PUSH1 0x0 DUP1 RETURNDATACOPY RETURNDATASIZE PUSH1 0x0 REVERT JUMPDEST POP POP POP POP PUSH1 0x40 MLOAD RETURNDATASIZE PUSH1 0x1F NOT PUSH1 0x1F DUP3 ADD AND DUP3 ADD DUP1 PUSH1 0x40 MSTORE POP DUP2 ADD SWAP1 PUSH2 0x2576 SWAP2 SWAP1 PUSH2 0x4B8B JUMP JUMPDEST SWAP1 POP PUSH1 0x0 PUSH2 0x2586 DUP9 DUP8 DUP6 DUP6 PUSH2 0x3611 JUMP JUMPDEST SWAP1 POP PUSH1 0x0 DUP9 PUSH1 0x80 ADD MLOAD PUSH2 0x25AD JUMPI PUSH2 0x25A8 DUP12 DUP12 PUSH2 0x25A3 DUP15 DUP15 DUP8 PUSH2 0x2697 JUMP JUMPDEST PUSH2 0x316D JUMP JUMPDEST PUSH2 0x25C2 JUMP JUMPDEST PUSH2 0x25C2 DUP12 DUP12 PUSH2 0x25BD DUP15 DUP15 DUP8 PUSH2 0x2697 JUMP JUMPDEST PUSH2 0x2915 JUMP JUMPDEST PUSH1 0x40 MLOAD PUSH4 0x274BC14F PUSH1 0xE2 SHL DUP2 MSTORE PUSH1 0x3 PUSH1 0x4 DUP3 ADD MSTORE SWAP1 SWAP2 POP PUSH1 0x0 SWAP1 PUSH1 0x1 PUSH1 0x1 PUSH1 0xA0 SHL SUB DUP14 AND SWAP1 PUSH4 0x9D2F053C SWAP1 PUSH1 0x24 ADD PUSH1 0x20 PUSH1 0x40 MLOAD DUP1 DUP4 SUB DUP2 DUP7 GAS STATICCALL ISZERO DUP1 ISZERO PUSH2 0x260D JUMPI RETURNDATASIZE PUSH1 0x0 DUP1 RETURNDATACOPY RETURNDATASIZE PUSH1 0x0 REVERT JUMPDEST POP POP POP POP PUSH1 0x40 MLOAD RETURNDATASIZE PUSH1 0x1F NOT PUSH1 0x1F DUP3 ADD AND DUP3 ADD DUP1 PUSH1 0x40 MSTORE POP DUP2 ADD SWAP1 PUSH2 0x2631 SWAP2 SWAP1 PUSH2 0x4B8B JUMP JUMPDEST SWAP1 POP PUSH2 0x18C3 DUP11 DUP10 DUP8 DUP8 DUP7 DUP7 PUSH2 0x383C JUMP JUMPDEST PUSH1 0x0 DUP1 PUSH2 0x264E DUP4 DUP6 PUSH2 0x4E95 JUMP JUMPDEST SWAP1 POP DUP1 PUSH2 0x265F JUMPI PUSH1 0x0 SWAP2 POP POP PUSH2 0xE48 JUMP JUMPDEST PUSH8 0xDE0B6B3A7640000 PUSH2 0x2673 PUSH1 0x1 DUP4 PUSH2 0x4BA4 JUMP JUMPDEST PUSH2 0x267D SWAP2 SWAP1 PUSH2 0x4EB4 JUMP JUMPDEST PUSH2 0x2688 SWAP1 PUSH1 0x1 PUSH2 0x4BBB JUMP JUMPDEST SWAP2 POP POP PUSH2 0xE48 JUMP JUMPDEST POP SWAP3 SWAP2 POP POP JUMP JUMPDEST PUSH1 0x0 DUP1 PUSH2 0x26A4 DUP6 DUP6 PUSH2 0x2F9B JUMP JUMPDEST SWAP1 POP DUP1 PUSH2 0x26B6 JUMPI PUSH1 0x0 NOT SWAP2 POP POP PUSH2 0x1BAB JUMP JUMPDEST PUSH2 0x76B DUP4 DUP3 PUSH2 0x3867 JUMP JUMPDEST PUSH1 0x0 DUP1 PUSH1 0x0 DUP1 DUP7 PUSH1 0x1 PUSH1 0x1 PUSH1 0xA0 SHL SUB AND PUSH4 0xB445E2E7 PUSH1 0x40 MLOAD DUP2 PUSH4 0xFFFFFFFF AND PUSH1 0xE0 SHL DUP2 MSTORE PUSH1 0x4 ADD PUSH1 0x60 PUSH1 0x40 MLOAD DUP1 DUP4 SUB DUP2 DUP7 GAS STATICCALL ISZERO DUP1 ISZERO PUSH2 0x2704 JUMPI RETURNDATASIZE PUSH1 0x0 DUP1 RETURNDATACOPY RETURNDATASIZE PUSH1 0x0 REVERT JUMPDEST POP POP POP POP PUSH1 0x40 MLOAD RETURNDATASIZE PUSH1 0x1F NOT PUSH1 0x1F DUP3 ADD AND DUP3 ADD DUP1 PUSH1 0x40 MSTORE POP DUP2 ADD SWAP1 PUSH2 0x2728 SWAP2 SWAP1 PUSH2 0x4B3E JUMP JUMPDEST SWAP3 POP SWAP3 POP SWAP3 POP PUSH1 0x0 PUSH1 0x40 MLOAD DUP1 PUSH1 0x60 ADD PUSH1 0x40 MSTORE DUP1 DUP6 PUSH4 0xFFFFFFFF AND DUP2 MSTORE PUSH1 0x20 ADD DUP5 PUSH4 0xFFFFFFFF AND DUP2 MSTORE PUSH1 0x20 ADD DUP4 PUSH1 0x17 SIGNEXTEND DUP2 MSTORE POP SWAP1 POP PUSH1 0x0 DUP7 SWAP1 POP PUSH2 0x277C TIMESTAMP DUP10 PUSH1 0x20 ADD MLOAD DUP4 DUP6 PUSH2 0x2276 SWAP1 SWAP4 SWAP3 SWAP2 SWAP1 PUSH4 0xFFFFFFFF AND JUMP JUMPDEST SWAP2 POP PUSH2 0xB00 DUP3 PUSH1 0x40 ADD MLOAD PUSH1 0x17 SIGNEXTEND SWAP1 JUMP JUMPDEST PUSH1 0x0 PUSH8 0xDE0B6B3A7640000 DUP2 DUP1 PUSH2 0x27A2 DUP8 PUSH2 0x2AD1 JUMP JUMPDEST SWAP2 POP SWAP2 POP PUSH1 0x0 DUP6 PUSH1 0x80 ADD MLOAD PUSH2 0x27B7 JUMPI DUP2 PUSH2 0x27B9 JUMP JUMPDEST DUP3 JUMPDEST SWAP1 POP PUSH1 0x0 DUP7 PUSH1 0x80 ADD MLOAD PUSH2 0x282D JUMPI DUP9 PUSH1 0x1 PUSH1 0x1 PUSH1 0xA0 SHL SUB AND PUSH4 0xF333FE13 PUSH1 0x40 MLOAD DUP2 PUSH4 0xFFFFFFFF AND PUSH1 0xE0 SHL DUP2 MSTORE PUSH1 0x4 ADD PUSH1 0x20 PUSH1 0x40 MLOAD DUP1 DUP4 SUB DUP2 DUP7 GAS STATICCALL ISZERO DUP1 ISZERO PUSH2 0x2804 JUMPI RETURNDATASIZE PUSH1 0x0 DUP1 RETURNDATACOPY RETURNDATASIZE PUSH1 0x0 REVERT JUMPDEST POP POP POP POP PUSH1 0x40 MLOAD RETURNDATASIZE PUSH1 0x1F NOT PUSH1 0x1F DUP3 ADD AND DUP3 ADD DUP1 PUSH1 0x40 MSTORE POP DUP2 ADD SWAP1 PUSH2 0x2828 SWAP2 SWAP1 PUSH2 0x4B8B JUMP JUMPDEST PUSH2 0x288F JUMP JUMPDEST DUP9 PUSH1 0x1 PUSH1 0x1 PUSH1 0xA0 SHL SUB AND PUSH4 0x2ACB3810 PUSH1 0x40 MLOAD DUP2 PUSH4 0xFFFFFFFF AND PUSH1 0xE0 SHL DUP2 MSTORE PUSH1 0x4 ADD PUSH1 0x20 PUSH1 0x40 MLOAD DUP1 DUP4 SUB DUP2 DUP7 GAS STATICCALL ISZERO DUP1 ISZERO PUSH2 0x286B JUMPI RETURNDATASIZE PUSH1 0x0 DUP1 RETURNDATACOPY RETURNDATASIZE PUSH1 0x0 REVERT JUMPDEST POP POP POP POP PUSH1 0x40 MLOAD RETURNDATASIZE PUSH1 0x1F NOT PUSH1 0x1F DUP3 ADD AND DUP3 ADD DUP1 PUSH1 0x40 MSTORE POP DUP2 ADD SWAP1 PUSH2 0x288F SWAP2 SWAP1 PUSH2 0x4B8B JUMP JUMPDEST SWAP1 POP PUSH1 0x0 PUSH2 0x289F DUP9 DUP8 DUP6 DUP6 PUSH2 0x3611 JUMP JUMPDEST SWAP1 POP PUSH1 0x0 DUP9 PUSH1 0x80 ADD MLOAD PUSH2 0x28C1 JUMPI PUSH2 0x28BC DUP12 DUP12 PUSH2 0x25A3 DUP15 DUP15 DUP8 PUSH2 0x2697 JUMP JUMPDEST PUSH2 0x2152 JUMP JUMPDEST PUSH2 0x2152 DUP12 DUP12 PUSH2 0x25BD DUP15 DUP15 DUP8 PUSH2 0x2697 JUMP JUMPDEST PUSH1 0x0 DUP1 PUSH1 0x0 DUP1 DUP7 PUSH1 0x1 PUSH1 0x1 PUSH1 0xA0 SHL SUB AND PUSH4 0xD565CC33 PUSH1 0x40 MLOAD DUP2 PUSH4 0xFFFFFFFF AND PUSH1 0xE0 SHL DUP2 MSTORE PUSH1 0x4 ADD PUSH1 0x60 PUSH1 0x40 MLOAD DUP1 DUP4 SUB DUP2 DUP7 GAS STATICCALL ISZERO DUP1 ISZERO PUSH2 0x2704 JUMPI RETURNDATASIZE PUSH1 0x0 DUP1 RETURNDATACOPY RETURNDATASIZE PUSH1 0x0 REVERT JUMPDEST PUSH1 0x0 DUP1 PUSH2 0x2923 DUP6 DUP6 DUP6 PUSH2 0x26C0 JUMP JUMPDEST PUSH1 0x40 MLOAD PUSH4 0x8607F5C3 PUSH1 0xE0 SHL DUP2 MSTORE SWAP1 SWAP2 POP PUSH1 0x1 PUSH1 0x1 PUSH1 0xA0 SHL SUB DUP7 AND SWAP1 PUSH4 0x8607F5C3 SWAP1 PUSH2 0x2954 SWAP1 DUP8 SWAP1 DUP6 SWAP1 PUSH1 0x4 ADD PUSH2 0x4EC8 JUMP JUMPDEST PUSH1 0x20 PUSH1 0x40 MLOAD DUP1 DUP4 SUB DUP2 DUP7 GAS STATICCALL ISZERO DUP1 ISZERO PUSH2 0x2971 JUMPI RETURNDATASIZE PUSH1 0x0 DUP1 RETURNDATACOPY RETURNDATASIZE PUSH1 0x0 REVERT JUMPDEST POP POP POP POP PUSH1 0x40 MLOAD RETURNDATASIZE PUSH1 0x1F NOT PUSH1 0x1F DUP3 ADD AND DUP3 ADD DUP1 PUSH1 0x40 MSTORE POP DUP2 ADD SWAP1 PUSH2 0x76B SWAP2 SWAP1 PUSH2 0x4B8B JUMP JUMPDEST PUSH1 0x0 PUSH8 0xDE0B6B3A7640000 PUSH2 0x1BAB DUP4 DUP3 PUSH2 0x3896 JUMP JUMPDEST PUSH1 0x0 DUP1 PUSH1 0x0 PUSH2 0x29B8 DUP5 PUSH2 0x2AD1 JUMP JUMPDEST SWAP1 SWAP3 POP SWAP1 POP DUP1 DUP3 GT PUSH1 0x0 DUP2 PUSH2 0x29CD JUMPI DUP3 PUSH2 0x29CF JUMP JUMPDEST DUP4 JUMPDEST SWAP1 POP PUSH1 0x0 DUP3 PUSH2 0x29DE JUMPI DUP5 PUSH2 0x29E0 JUMP JUMPDEST DUP4 JUMPDEST SWAP1 POP PUSH1 0x0 PUSH2 0x29EE DUP3 DUP5 PUSH2 0x4BBB JUMP JUMPDEST SWAP1 POP PUSH1 0x0 PUSH2 0x29FC DUP4 DUP6 PUSH2 0x4BA4 JUMP JUMPDEST SWAP1 POP DUP2 ISZERO DUP1 PUSH2 0x2A09 JUMPI POP DUP1 ISZERO JUMPDEST ISZERO PUSH2 0x2A1D JUMPI POP PUSH1 0x0 SWAP9 SWAP8 POP POP POP POP POP POP POP POP JUMP JUMPDEST PUSH1 0x40 MLOAD PUSH4 0x274BC14F PUSH1 0xE2 SHL DUP2 MSTORE PUSH1 0x0 PUSH1 0x4 DUP3 ADD DUP2 SWAP1 MSTORE SWAP1 PUSH1 0x1 PUSH1 0x1 PUSH1 0xA0 SHL SUB DUP12 AND SWAP1 PUSH4 0x9D2F053C SWAP1 PUSH1 0x24 ADD PUSH1 0x20 PUSH1 0x40 MLOAD DUP1 DUP4 SUB DUP2 DUP7 GAS STATICCALL ISZERO DUP1 ISZERO PUSH2 0x2A65 JUMPI RETURNDATASIZE PUSH1 0x0 DUP1 RETURNDATACOPY RETURNDATASIZE PUSH1 0x0 REVERT JUMPDEST POP POP POP POP PUSH1 0x40 MLOAD RETURNDATASIZE PUSH1 0x1F NOT PUSH1 0x1F DUP3 ADD AND DUP3 ADD DUP1 PUSH1 0x40 MSTORE POP DUP2 ADD SWAP1 PUSH2 0x2A89 SWAP2 SWAP1 PUSH2 0x4B8B JUMP JUMPDEST SWAP1 POP PUSH1 0x0 PUSH2 0x2AAB PUSH2 0x2A9B DUP4 PUSH1 0x2 PUSH2 0x4E95 JUMP JUMPDEST PUSH2 0x2AA5 DUP6 DUP8 PUSH2 0x3867 JUMP JUMPDEST SWAP1 PUSH2 0x375D JUMP JUMPDEST SWAP1 POP DUP7 PUSH2 0x2AC0 JUMPI PUSH2 0x2ABB DUP2 PUSH2 0x4F30 JUMP JUMPDEST PUSH2 0x2AC2 JUMP JUMPDEST DUP1 JUMPDEST SWAP12 SWAP11 POP POP POP POP POP POP POP POP POP POP POP JUMP JUMPDEST PUSH1 0x0 DUP1 DUP3 PUSH1 0x1 PUSH1 0x1 PUSH1 0xA0 SHL SUB AND PUSH4 0x5DEDDE6D PUSH1 0x40 MLOAD DUP2 PUSH4 0xFFFFFFFF AND PUSH1 0xE0 SHL DUP2 MSTORE PUSH1 0x4 ADD PUSH1 0x20 PUSH1 0x40 MLOAD DUP1 DUP4 SUB DUP2 DUP7 GAS STATICCALL ISZERO DUP1 ISZERO PUSH2 0x2B12 JUMPI RETURNDATASIZE PUSH1 0x0 DUP1 RETURNDATACOPY RETURNDATASIZE PUSH1 0x0 REVERT JUMPDEST POP POP POP POP PUSH1 0x40 MLOAD RETURNDATASIZE PUSH1 0x1F NOT PUSH1 0x1F DUP3 ADD AND DUP3 ADD DUP1 PUSH1 0x40 MSTORE POP DUP2 ADD SWAP1 PUSH2 0x2B36 SWAP2 SWAP1 PUSH2 0x4B8B JUMP JUMPDEST SWAP2 POP DUP3 PUSH1 0x1 PUSH1 0x1 PUSH1 0xA0 SHL SUB AND PUSH4 0x9163014 PUSH1 0x40 MLOAD DUP2 PUSH4 0xFFFFFFFF AND PUSH1 0xE0 SHL DUP2 MSTORE PUSH1 0x4 ADD PUSH1 0x20 PUSH1 0x40 MLOAD DUP1 DUP4 SUB DUP2 DUP7 GAS STATICCALL ISZERO DUP1 ISZERO PUSH2 0x2B76 JUMPI RETURNDATASIZE PUSH1 0x0 DUP1 RETURNDATACOPY RETURNDATASIZE PUSH1 0x0 REVERT JUMPDEST POP POP POP POP PUSH1 0x40 MLOAD RETURNDATASIZE PUSH1 0x1F NOT PUSH1 0x1F DUP3 ADD AND DUP3 ADD DUP1 PUSH1 0x40 MSTORE POP DUP2 ADD SWAP1 PUSH2 0x2B9A SWAP2 SWAP1 PUSH2 0x4B8B JUMP JUMPDEST SWAP1 POP PUSH1 0x0 DUP4 PUSH1 0x1 PUSH1 0x1 PUSH1 0xA0 SHL SUB AND PUSH4 0xC6838E8B PUSH1 0x40 MLOAD DUP2 PUSH4 0xFFFFFFFF AND PUSH1 0xE0 SHL DUP2 MSTORE PUSH1 0x4 ADD PUSH1 0x20 PUSH1 0x40 MLOAD DUP1 DUP4 SUB DUP2 DUP7 GAS STATICCALL ISZERO DUP1 ISZERO PUSH2 0x2BDC JUMPI RETURNDATASIZE PUSH1 0x0 DUP1 RETURNDATACOPY RETURNDATASIZE PUSH1 0x0 REVERT JUMPDEST POP POP POP POP PUSH1 0x40 MLOAD RETURNDATASIZE PUSH1 0x1F NOT PUSH1 0x1F DUP3 ADD AND DUP3 ADD DUP1 PUSH1 0x40 MSTORE POP DUP2 ADD SWAP1 PUSH2 0x2C00 SWAP2 SWAP1 PUSH2 0x4B8B JUMP JUMPDEST PUSH2 0x2C0A SWAP1 TIMESTAMP PUSH2 0x4BA4 JUMP JUMPDEST SWAP1 POP DUP1 ISZERO PUSH2 0x2CD5 JUMPI DUP2 DUP4 GT PUSH1 0x0 DUP2 PUSH2 0x2C22 JUMPI DUP4 PUSH2 0x2C24 JUMP JUMPDEST DUP5 JUMPDEST SWAP1 POP PUSH1 0x0 DUP3 PUSH2 0x2C33 JUMPI DUP6 PUSH2 0x2C35 JUMP JUMPDEST DUP5 JUMPDEST PUSH1 0x40 MLOAD PUSH4 0x9F0A5459 PUSH1 0xE0 SHL DUP2 MSTORE PUSH1 0x4 DUP2 ADD DUP5 SWAP1 MSTORE PUSH1 0x24 DUP2 ADD DUP3 SWAP1 MSTORE PUSH1 0x44 DUP2 ADD DUP7 SWAP1 MSTORE SWAP1 SWAP2 POP PUSH1 0x1 PUSH1 0x1 PUSH1 0xA0 SHL SUB DUP9 AND SWAP1 PUSH4 0x9F0A5459 SWAP1 PUSH1 0x64 ADD PUSH1 0x40 DUP1 MLOAD DUP1 DUP4 SUB DUP2 DUP7 GAS STATICCALL ISZERO DUP1 ISZERO PUSH2 0x2C8A JUMPI RETURNDATASIZE PUSH1 0x0 DUP1 RETURNDATACOPY RETURNDATASIZE PUSH1 0x0 REVERT JUMPDEST POP POP POP POP PUSH1 0x40 MLOAD RETURNDATASIZE PUSH1 0x1F NOT PUSH1 0x1F DUP3 ADD AND DUP3 ADD DUP1 PUSH1 0x40 MSTORE POP DUP2 ADD SWAP1 PUSH2 0x2CAE SWAP2 SWAP1 PUSH2 0x4F4D JUMP JUMPDEST SWAP1 SWAP3 POP SWAP1 POP DUP3 PUSH2 0x2CBE JUMPI DUP1 PUSH2 0x2CC0 JUMP JUMPDEST DUP2 JUMPDEST SWAP6 POP DUP3 PUSH2 0x2CCD JUMPI DUP2 PUSH2 0x2CCF JUMP JUMPDEST DUP1 JUMPDEST SWAP5 POP POP POP POP JUMPDEST POP SWAP2 POP SWAP2 JUMP JUMPDEST PUSH1 0x0 DUP1 PUSH2 0x2CE7 DUP4 PUSH2 0x3303 JUMP JUMPDEST PUSH1 0x40 MLOAD PUSH4 0x274BC14F PUSH1 0xE2 SHL DUP2 MSTORE PUSH1 0xA PUSH1 0x4 DUP3 ADD MSTORE SWAP1 SWAP2 POP PUSH1 0x0 SWAP1 PUSH1 0x1 PUSH1 0x1 PUSH1 0xA0 SHL SUB DUP7 AND SWAP1 PUSH4 0x9D2F053C SWAP1 PUSH1 0x24 ADD PUSH1 0x20 PUSH1 0x40 MLOAD DUP1 DUP4 SUB DUP2 DUP7 GAS STATICCALL ISZERO DUP1 ISZERO PUSH2 0x2D32 JUMPI RETURNDATASIZE PUSH1 0x0 DUP1 RETURNDATACOPY RETURNDATASIZE PUSH1 0x0 REVERT JUMPDEST POP POP POP POP PUSH1 0x40 MLOAD RETURNDATASIZE PUSH1 0x1F NOT PUSH1 0x1F DUP3 ADD AND DUP3 ADD DUP1 PUSH1 0x40 MSTORE POP DUP2 ADD SWAP1 PUSH2 0x2D56 SWAP2 SWAP1 PUSH2 0x4B8B JUMP JUMPDEST SWAP1 POP PUSH1 0x0 PUSH2 0x2D64 DUP7 DUP7 PUSH2 0x1FA2 JUMP JUMPDEST SWAP1 POP PUSH1 0x0 PUSH2 0x2D71 DUP7 PUSH2 0x1B96 JUMP JUMPDEST SWAP1 POP PUSH1 0x0 PUSH2 0x2D7E DUP8 PUSH2 0x2995 JUMP JUMPDEST SWAP1 POP PUSH1 0x0 DUP3 GT PUSH2 0x2DC1 JUMPI PUSH1 0x40 MLOAD PUSH3 0x461BCD PUSH1 0xE5 SHL DUP2 MSTORE PUSH1 0x20 PUSH1 0x4 DUP3 ADD MSTORE PUSH1 0xE PUSH1 0x24 DUP3 ADD MSTORE PUSH14 0x4F564C56313A206F69203D3D203 PUSH1 0x94 SHL PUSH1 0x44 DUP3 ADD MSTORE PUSH1 0x64 ADD PUSH2 0x1864 JUMP JUMPDEST PUSH1 0x0 PUSH2 0x2DDF DUP4 PUSH2 0x1899 PUSH2 0x1892 PUSH2 0x188B DUP10 PUSH8 0xDE0B6B3A7640000 PUSH2 0x4BA4 JUMP JUMPDEST SWAP1 POP DUP8 PUSH1 0x80 ADD MLOAD PUSH2 0x2DF9 JUMPI PUSH2 0x2DF4 DUP2 DUP8 PUSH2 0x4BBB JUMP JUMPDEST PUSH2 0xB00 JUMP JUMPDEST PUSH2 0xB00 DUP7 DUP3 PUSH2 0x3343 JUMP JUMPDEST PUSH1 0x0 PUSH2 0xE48 DUP3 PUSH1 0x60 ADD MLOAD DUP4 PUSH1 0x80 ADD MLOAD PUSH2 0x38BE JUMP JUMPDEST PUSH1 0x0 PUSH8 0xDE0B6B3A7640000 DUP2 DUP1 PUSH2 0x2E2D DUP7 PUSH2 0x2AD1 JUMP JUMPDEST SWAP2 POP SWAP2 POP PUSH1 0x0 DUP6 PUSH1 0x80 ADD MLOAD PUSH2 0x2E42 JUMPI DUP2 PUSH2 0x2E44 JUMP JUMPDEST DUP3 JUMPDEST SWAP1 POP PUSH1 0x0 DUP7 PUSH1 0x80 ADD MLOAD PUSH2 0x2EB8 JUMPI DUP8 PUSH1 0x1 PUSH1 0x1 PUSH1 0xA0 SHL SUB AND PUSH4 0xF333FE13 PUSH1 0x40 MLOAD DUP2 PUSH4 0xFFFFFFFF AND PUSH1 0xE0 SHL DUP2 MSTORE PUSH1 0x4 ADD PUSH1 0x20 PUSH1 0x40 MLOAD DUP1 DUP4 SUB DUP2 DUP7 GAS STATICCALL ISZERO DUP1 ISZERO PUSH2 0x2E8F JUMPI RETURNDATASIZE PUSH1 0x0 DUP1 RETURNDATACOPY RETURNDATASIZE PUSH1 0x0 REVERT JUMPDEST POP POP POP POP PUSH1 0x40 MLOAD RETURNDATASIZE PUSH1 0x1F NOT PUSH1 0x1F DUP3 ADD AND DUP3 ADD DUP1 PUSH1 0x40 MSTORE POP DUP2 ADD SWAP1 PUSH2 0x2EB3 SWAP2 SWAP1 PUSH2 0x4B8B JUMP JUMPDEST PUSH2 0x2F1A JUMP JUMPDEST DUP8 PUSH1 0x1 PUSH1 0x1 PUSH1 0xA0 SHL SUB AND PUSH4 0x2ACB3810 PUSH1 0x40 MLOAD DUP2 PUSH4 0xFFFFFFFF AND PUSH1 0xE0 SHL DUP2 MSTORE PUSH1 0x4 ADD PUSH1 0x20 PUSH1 0x40 MLOAD DUP1 DUP4 SUB DUP2 DUP7 GAS STATICCALL ISZERO DUP1 ISZERO PUSH2 0x2EF6 JUMPI RETURNDATASIZE PUSH1 0x0 DUP1 RETURNDATACOPY RETURNDATASIZE PUSH1 0x0 REVERT JUMPDEST POP POP POP POP PUSH1 0x40 MLOAD RETURNDATASIZE PUSH1 0x1F NOT PUSH1 0x1F DUP3 ADD AND DUP3 ADD DUP1 PUSH1 0x40 MSTORE POP DUP2 ADD SWAP1 PUSH2 0x2F1A SWAP2 SWAP1 PUSH2 0x4B8B JUMP JUMPDEST SWAP1 POP PUSH2 0x6AD DUP8 DUP7 DUP5 DUP5 PUSH2 0x3611 JUMP JUMPDEST PUSH1 0x40 MLOAD PUSH4 0x83BA1917 PUSH1 0xE0 SHL DUP2 MSTORE PUSH8 0xDE0B6B3A7640000 PUSH1 0x4 DUP3 ADD MSTORE PUSH1 0x0 SWAP1 PUSH1 0x1 PUSH1 0x1 PUSH1 0xA0 SHL SUB DUP4 AND SWAP1 PUSH4 0x83BA1917 SWAP1 PUSH1 0x24 ADD PUSH1 0x20 PUSH1 0x40 MLOAD DUP1 DUP4 SUB DUP2 DUP7 GAS STATICCALL ISZERO DUP1 ISZERO PUSH2 0x2F77 JUMPI RETURNDATASIZE PUSH1 0x0 DUP1 RETURNDATACOPY RETURNDATASIZE PUSH1 0x0 REVERT JUMPDEST POP POP POP POP PUSH1 0x40 MLOAD RETURNDATASIZE PUSH1 0x1F NOT PUSH1 0x1F DUP3 ADD AND DUP3 ADD DUP1 PUSH1 0x40 MSTORE POP DUP2 ADD SWAP1 PUSH2 0xE48 SWAP2 SWAP1 PUSH2 0x4B8B JUMP JUMPDEST PUSH1 0x40 MLOAD PUSH4 0x274BC14F PUSH1 0xE2 SHL DUP2 MSTORE PUSH1 0x4 DUP2 DUP2 ADD MSTORE PUSH1 0x0 SWAP1 DUP2 SWAP1 PUSH1 0x1 PUSH1 0x1 PUSH1 0xA0 SHL SUB DUP6 AND SWAP1 PUSH4 0x9D2F053C SWAP1 PUSH1 0x24 ADD PUSH1 0x20 PUSH1 0x40 MLOAD DUP1 DUP4 SUB DUP2 DUP7 GAS STATICCALL ISZERO DUP1 ISZERO PUSH2 0x2FE4 JUMPI RETURNDATASIZE PUSH1 0x0 DUP1 RETURNDATACOPY RETURNDATASIZE PUSH1 0x0 REVERT JUMPDEST POP POP POP POP PUSH1 0x40 MLOAD RETURNDATASIZE PUSH1 0x1F NOT PUSH1 0x1F DUP3 ADD AND DUP3 ADD DUP1 PUSH1 0x40 MSTORE POP DUP2 ADD SWAP1 PUSH2 0x3008 SWAP2 SWAP1 PUSH2 0x4B8B JUMP JUMPDEST PUSH1 0x40 MLOAD PUSH4 0xECC16191 PUSH1 0xE0 SHL DUP2 MSTORE SWAP1 SWAP2 POP PUSH1 0x1 PUSH1 0x1 PUSH1 0xA0 SHL SUB DUP6 AND SWAP1 PUSH4 0xECC16191 SWAP1 PUSH2 0x3039 SWAP1 DUP7 SWAP1 DUP6 SWAP1 PUSH1 0x4 ADD PUSH2 0x4EC8 JUMP JUMPDEST PUSH1 0x20 PUSH1 0x40 MLOAD DUP1 DUP4 SUB DUP2 DUP7 GAS STATICCALL ISZERO DUP1 ISZERO PUSH2 0x3056 JUMPI RETURNDATASIZE PUSH1 0x0 DUP1 RETURNDATACOPY RETURNDATASIZE PUSH1 0x0 REVERT JUMPDEST POP POP POP POP PUSH1 0x40 MLOAD RETURNDATASIZE PUSH1 0x1F NOT PUSH1 0x1F DUP3 ADD AND DUP3 ADD DUP1 PUSH1 0x40 MSTORE POP DUP2 ADD SWAP1 PUSH2 0x307A SWAP2 SWAP1 PUSH2 0x4B8B JUMP JUMPDEST SWAP1 POP PUSH2 0x1031 DUP4 DUP3 PUSH2 0x335E JUMP JUMPDEST PUSH1 0x40 MLOAD PUSH4 0xD4DFADBF PUSH1 0xE0 SHL DUP2 MSTORE PUSH1 0x1 PUSH1 0x1 PUSH1 0xA0 SHL SUB DUP3 DUP2 AND PUSH1 0x4 DUP4 ADD MSTORE PUSH1 0x0 SWAP2 DUP3 SWAP2 PUSH32 0x0 AND SWAP1 PUSH4 0xD4DFADBF SWAP1 PUSH1 0x24 ADD PUSH1 0x20 PUSH1 0x40 MLOAD DUP1 DUP4 SUB DUP2 DUP7 GAS STATICCALL ISZERO DUP1 ISZERO PUSH2 0x30F1 JUMPI RETURNDATASIZE PUSH1 0x0 DUP1 RETURNDATACOPY RETURNDATASIZE PUSH1 0x0 REVERT JUMPDEST POP POP POP POP PUSH1 0x40 MLOAD RETURNDATASIZE PUSH1 0x1F NOT PUSH1 0x1F DUP3 ADD AND DUP3 ADD DUP1 PUSH1 0x40 MSTORE POP DUP2 ADD SWAP1 PUSH2 0x3115 SWAP2 SWAP1 PUSH2 0x4AB3 JUMP JUMPDEST SWAP1 POP PUSH1 0x1 PUSH1 0x1 PUSH1 0xA0 SHL SUB DUP2 AND PUSH2 0xE48 JUMPI PUSH1 0x40 MLOAD PUSH3 0x461BCD PUSH1 0xE5 SHL DUP2 MSTORE PUSH1 0x20 PUSH1 0x4 DUP3 ADD MSTORE PUSH1 0xD PUSH1 0x24 DUP3 ADD MSTORE PUSH32 0x4F564C56313A216D61726B657400000000000000000000000000000000000000 PUSH1 0x44 DUP3 ADD MSTORE PUSH1 0x64 ADD PUSH2 0x1864 JUMP JUMPDEST PUSH1 0x0 DUP1 PUSH2 0x317B DUP6 DUP6 DUP6 PUSH2 0x28D1 JUMP JUMPDEST PUSH1 0x40 MLOAD PUSH4 0x176D4AE1 PUSH1 0xE1 SHL DUP2 MSTORE SWAP1 SWAP2 POP PUSH1 0x1 PUSH1 0x1 PUSH1 0xA0 SHL SUB DUP7 AND SWAP1 PUSH4 0x2EDA95C2 SWAP1 PUSH2 0x2954 SWAP1 DUP8 SWAP1 DUP6 SWAP1 PUSH1 0x4 ADD PUSH2 0x4EC8 JUMP JUMPDEST PUSH1 0x0 PUSH8 0xDE0B6B3A7640000 DUP2 PUSH2 0x31C2 DUP5 DUP4 PUSH2 0x35E7 JUMP JUMPDEST SWAP1 POP PUSH1 0x0 PUSH2 0x31D0 DUP6 DUP5 PUSH2 0x35BA JUMP JUMPDEST SWAP1 POP PUSH1 0x0 PUSH2 0x31DE DUP7 DUP6 PUSH2 0x3502 JUMP JUMPDEST SWAP1 POP PUSH1 0x0 DUP1 PUSH2 0x31EC DUP10 PUSH2 0x2AD1 JUMP JUMPDEST SWAP2 POP SWAP2 POP PUSH1 0x0 DUP9 PUSH1 0x80 ADD MLOAD PUSH2 0x3201 JUMPI DUP2 PUSH2 0x3203 JUMP JUMPDEST DUP3 JUMPDEST SWAP1 POP PUSH1 0x0 DUP10 PUSH1 0x80 ADD MLOAD PUSH2 0x3277 JUMPI DUP11 PUSH1 0x1 PUSH1 0x1 PUSH1 0xA0 SHL SUB AND PUSH4 0xF333FE13 PUSH1 0x40 MLOAD DUP2 PUSH4 0xFFFFFFFF AND PUSH1 0xE0 SHL DUP2 MSTORE PUSH1 0x4 ADD PUSH1 0x20 PUSH1 0x40 MLOAD DUP1 DUP4 SUB DUP2 DUP7 GAS STATICCALL ISZERO DUP1 ISZERO PUSH2 0x324E JUMPI RETURNDATASIZE PUSH1 0x0 DUP1 RETURNDATACOPY RETURNDATASIZE PUSH1 0x0 REVERT JUMPDEST POP POP POP POP PUSH1 0x40 MLOAD RETURNDATASIZE PUSH1 0x1F NOT PUSH1 0x1F DUP3 ADD AND DUP3 ADD DUP1 PUSH1 0x40 MSTORE POP DUP2 ADD SWAP1 PUSH2 0x3272 SWAP2 SWAP1 PUSH2 0x4B8B JUMP JUMPDEST PUSH2 0x32D9 JUMP JUMPDEST DUP11 PUSH1 0x1 PUSH1 0x1 PUSH1 0xA0 SHL SUB AND PUSH4 0x2ACB3810 PUSH1 0x40 MLOAD DUP2 PUSH4 0xFFFFFFFF AND PUSH1 0xE0 SHL DUP2 MSTORE PUSH1 0x4 ADD PUSH1 0x20 PUSH1 0x40 MLOAD DUP1 DUP4 SUB DUP2 DUP7 GAS STATICCALL ISZERO DUP1 ISZERO PUSH2 0x32B5 JUMPI RETURNDATASIZE PUSH1 0x0 DUP1 RETURNDATACOPY RETURNDATASIZE PUSH1 0x0 REVERT JUMPDEST POP POP POP POP PUSH1 0x40 MLOAD RETURNDATASIZE PUSH1 0x1F NOT PUSH1 0x1F DUP3 ADD AND DUP3 ADD DUP1 PUSH1 0x40 MSTORE POP DUP2 ADD SWAP1 PUSH2 0x32D9 SWAP2 SWAP1 PUSH2 0x4B8B JUMP JUMPDEST SWAP1 POP PUSH1 0x0 PUSH2 0x32E9 DUP12 DUP11 DUP6 DUP6 PUSH2 0x3611 JUMP JUMPDEST SWAP1 POP PUSH2 0x18C3 DUP8 PUSH2 0x32FD DUP9 PUSH2 0x1899 DUP13 DUP7 PUSH2 0x2641 JUMP JUMPDEST SWAP1 PUSH2 0x3343 JUMP JUMPDEST PUSH1 0x0 PUSH2 0xE48 DUP3 PUSH1 0x60 ADD MLOAD PUSH2 0x38D9 JUMP JUMPDEST PUSH1 0x0 DUP3 PUSH2 0x3321 JUMPI POP PUSH1 0x0 PUSH2 0xE48 JUMP JUMPDEST PUSH1 0x0 PUSH2 0x3335 PUSH8 0xDE0B6B3A7640000 DUP6 PUSH2 0x4E95 JUMP JUMPDEST SWAP1 POP DUP3 PUSH2 0x2673 PUSH1 0x1 DUP4 PUSH2 0x4BA4 JUMP JUMPDEST PUSH1 0x0 DUP1 DUP3 DUP5 GT PUSH2 0x3354 JUMPI PUSH1 0x0 PUSH2 0x1031 JUMP JUMPDEST PUSH2 0x1031 DUP4 DUP6 PUSH2 0x4BA4 JUMP JUMPDEST PUSH1 0x0 DUP1 PUSH2 0x336A DUP5 PUSH2 0x2E03 JUMP JUMPDEST SWAP1 POP PUSH1 0x0 DUP2 GT PUSH2 0x33BC JUMPI PUSH1 0x40 MLOAD PUSH3 0x461BCD PUSH1 0xE5 SHL DUP2 MSTORE PUSH1 0x20 PUSH1 0x4 DUP3 ADD MSTORE PUSH1 0xC PUSH1 0x24 DUP3 ADD MSTORE PUSH32 0x4F564C56313A6D69643D3D300000000000000000000000000000000000000000 PUSH1 0x44 DUP3 ADD MSTORE PUSH1 0x64 ADD PUSH2 0x1864 JUMP JUMPDEST PUSH2 0x1031 DUP4 DUP3 PUSH2 0x3867 JUMP JUMPDEST PUSH1 0x0 DUP3 ISZERO DUP1 PUSH2 0x33D3 JUMPI POP DUP2 ISZERO JUMPDEST PUSH2 0x33E7 JUMPI PUSH2 0x33E2 DUP5 DUP4 DUP6 PUSH2 0x39B1 JUMP JUMPDEST PUSH2 0x1031 JUMP JUMPDEST POP SWAP2 SWAP3 SWAP2 POP POP JUMP JUMPDEST PUSH1 0x0 DUP1 PUSH2 0x3404 DUP4 PUSH8 0xDE111A6B7DE4000 PUSH2 0x3A64 JUMP JUMPDEST SWAP1 POP PUSH10 0x56D225004EE68C3FFFFF NOT DUP2 SLT ISZERO DUP1 ISZERO PUSH2 0x342B JUMPI POP PUSH10 0xFE1C215E8F838E000000 DUP2 SGT ISZERO JUMPDEST PUSH2 0x3477 JUMPI PUSH1 0x40 MLOAD PUSH3 0x461BCD PUSH1 0xE5 SHL DUP2 MSTORE PUSH1 0x20 PUSH1 0x4 DUP3 ADD MSTORE PUSH1 0x19 PUSH1 0x24 DUP3 ADD MSTORE PUSH32 0x4F564C56313A207469636B206F7574206F6620626F756E647300000000000000 PUSH1 0x44 DUP3 ADD MSTORE PUSH1 0x64 ADD PUSH2 0x1864 JUMP JUMPDEST PUSH2 0x1BAB PUSH8 0xDE0B6B3A7640000 DUP3 PUSH2 0x4E27 JUMP JUMPDEST PUSH1 0x0 DUP1 PUSH2 0x34A0 PUSH2 0x2710 PUSH8 0xDE0B6B3A7640000 PUSH2 0x4EB4 JUMP JUMPDEST SWAP1 POP PUSH1 0x0 PUSH2 0x34AE DUP3 DUP6 PUSH2 0x4EB4 JUMP JUMPDEST SWAP1 POP PUSH2 0xFFFF DUP2 GT ISZERO PUSH2 0x1BAB JUMPI PUSH1 0x40 MLOAD PUSH3 0x461BCD PUSH1 0xE5 SHL DUP2 MSTORE PUSH1 0x20 PUSH1 0x4 DUP3 ADD MSTORE PUSH1 0x1E PUSH1 0x24 DUP3 ADD MSTORE PUSH32 0x4F564C56313A20466978656443617374206F7574206F6620626F756E64730000 PUSH1 0x44 DUP3 ADD MSTORE PUSH1 0x64 ADD PUSH2 0x1864 JUMP JUMPDEST PUSH1 0x0 DUP1 PUSH2 0x350E DUP5 PUSH2 0x3B6E JUMP JUMPDEST SWAP1 POP PUSH1 0x0 PUSH2 0x3525 DUP3 PUSH2 0x351F DUP8 PUSH2 0x3B81 JUMP JUMPDEST SWAP1 PUSH2 0x2641 JUMP JUMPDEST SWAP1 POP PUSH2 0x76B DUP2 DUP6 PUSH2 0x2641 JUMP JUMPDEST PUSH1 0x0 PUSH8 0xDE0B6B3A7640000 DUP2 PUSH2 0x3547 DUP11 DUP4 PUSH2 0x35E7 JUMP JUMPDEST SWAP1 POP DUP10 PUSH1 0xA0 ADD MLOAD DUP1 PUSH2 0x355F JUMPI POP PUSH1 0xE0 DUP11 ADD MLOAD PUSH2 0xFFFF AND ISZERO JUMPDEST ISZERO PUSH2 0x356F JUMPI PUSH1 0x0 SWAP3 POP POP POP PUSH2 0x747 JUMP JUMPDEST PUSH1 0x0 PUSH2 0x357F DUP12 DUP5 DUP13 DUP13 DUP13 DUP13 PUSH2 0x3658 JUMP JUMPDEST SWAP1 POP PUSH1 0x0 PUSH2 0x358D DUP4 DUP9 PUSH2 0x2641 JUMP JUMPDEST SWAP1 POP PUSH1 0x0 PUSH2 0x359B DUP4 DUP9 PUSH2 0x375D JUMP JUMPDEST SWAP1 POP PUSH2 0x35A7 DUP2 DUP4 PUSH2 0x4BBB JUMP JUMPDEST SWAP1 SWAP3 LT SWAP13 SWAP12 POP POP POP POP POP POP POP POP POP POP POP POP JUMP JUMPDEST PUSH1 0x0 DUP1 PUSH2 0x35C6 DUP5 PUSH2 0x3B6E JUMP JUMPDEST SWAP1 POP PUSH1 0x0 PUSH2 0x3525 DUP3 PUSH2 0x351F DUP8 PUSH1 0x20 ADD MLOAD PUSH12 0xFFFFFFFFFFFFFFFFFFFFFFFF AND SWAP1 JUMP JUMPDEST PUSH1 0x0 DUP1 PUSH2 0x35F3 DUP5 PUSH2 0x3B6E JUMP JUMPDEST SWAP1 POP PUSH1 0x0 PUSH2 0x3525 DUP3 PUSH2 0x351F DUP8 MLOAD PUSH12 0xFFFFFFFFFFFFFFFFFFFFFFFF AND SWAP1 JUMP JUMPDEST PUSH1 0x0 DUP1 PUSH2 0x361E DUP7 DUP7 PUSH2 0x3BB3 JUMP JUMPDEST SWAP1 POP DUP1 ISZERO DUP1 PUSH2 0x362B JUMPI POP DUP4 ISZERO JUMPDEST DUP1 PUSH2 0x3634 JUMPI POP DUP3 ISZERO JUMPDEST ISZERO PUSH2 0x3643 JUMPI PUSH1 0x0 SWAP2 POP POP PUSH2 0x1031 JUMP JUMPDEST PUSH2 0x364E DUP2 DUP6 DUP6 PUSH2 0x39B1 JUMP JUMPDEST SWAP7 SWAP6 POP POP POP POP POP POP JUMP JUMPDEST PUSH1 0x0 DUP1 PUSH2 0x3665 DUP9 DUP9 PUSH2 0x3502 JUMP JUMPDEST SWAP1 POP PUSH1 0x0 PUSH2 0x3673 DUP10 DUP10 PUSH2 0x35E7 JUMP JUMPDEST SWAP1 POP PUSH1 0x0 PUSH2 0x3681 DUP11 DUP11 PUSH2 0x35BA JUMP JUMPDEST SWAP1 POP PUSH1 0x0 PUSH2 0x3691 DUP12 DUP12 DUP12 DUP12 PUSH2 0x3611 JUMP JUMPDEST SWAP1 POP PUSH1 0x0 PUSH2 0x369E DUP13 PUSH2 0x3303 JUMP JUMPDEST SWAP1 POP DUP12 PUSH1 0x80 ADD MLOAD ISZERO PUSH2 0x371A JUMPI PUSH2 0x36DB PUSH2 0x36B7 DUP4 DUP11 PUSH2 0x2641 JUMP JUMPDEST PUSH2 0x36D6 PUSH2 0x36CC DUP11 PUSH8 0xDE0B6B3A7640000 PUSH2 0x4BBB JUMP JUMPDEST PUSH2 0x351F DUP7 DUP7 PUSH2 0x2641 JUMP JUMPDEST PUSH2 0x3BD6 JUMP JUMPDEST PUSH2 0x36E9 DUP7 PUSH2 0x1899 DUP8 DUP7 PUSH2 0x2641 JUMP JUMPDEST PUSH2 0x36F3 SWAP2 SWAP1 PUSH2 0x4BBB JUMP JUMPDEST SWAP6 POP PUSH2 0x3713 PUSH2 0x3702 DUP4 DUP4 PUSH2 0x2641 JUMP JUMPDEST PUSH2 0x370C SWAP1 DUP6 PUSH2 0x4BBB JUMP JUMPDEST DUP8 SWAP1 PUSH2 0x3343 JUMP JUMPDEST SWAP6 POP PUSH2 0x374E JUMP JUMPDEST PUSH2 0x3724 DUP3 DUP3 PUSH2 0x2641 JUMP JUMPDEST PUSH2 0x3732 DUP7 PUSH2 0x1899 DUP8 DUP7 PUSH2 0x2641 JUMP JUMPDEST PUSH2 0x373C SWAP2 SWAP1 PUSH2 0x4BBB JUMP JUMPDEST SWAP6 POP PUSH2 0x374B PUSH2 0x3702 DUP4 DUP11 PUSH2 0x2641 JUMP JUMPDEST SWAP6 POP JUMPDEST POP POP POP POP POP SWAP7 SWAP6 POP POP POP POP POP POP JUMP JUMPDEST PUSH1 0x0 DUP1 PUSH2 0x376A DUP4 DUP6 PUSH2 0x4E95 JUMP JUMPDEST SWAP1 POP PUSH2 0x1031 PUSH8 0xDE0B6B3A7640000 DUP3 PUSH2 0x4EB4 JUMP JUMPDEST PUSH1 0x0 DUP1 PUSH4 0xFFFFFFFF DUP4 GT ISZERO PUSH2 0x3797 JUMPI PUSH4 0xFFFFFFFF PUSH2 0x1BAB JUMP JUMPDEST POP SWAP1 SWAP2 SWAP1 POP JUMP JUMPDEST PUSH1 0x0 DUP1 PUSH24 0x7FFFFFFFFFFFFFFFFFFFFFFFFFFFFFFFFFFFFFFFFFFFFFFF NOT DUP4 SLT PUSH2 0x3804 JUMPI PUSH24 0x7FFFFFFFFFFFFFFFFFFFFFFFFFFFFFFFFFFFFFFFFFFFFFFF DUP4 SGT PUSH2 0x37E6 JUMPI DUP3 PUSH2 0x1BAB JUMP JUMPDEST PUSH24 0x7FFFFFFFFFFFFFFFFFFFFFFFFFFFFFFFFFFFFFFFFFFFFFFF PUSH2 0x1BAB JUMP JUMPDEST PUSH24 0x7FFFFFFFFFFFFFFFFFFFFFFFFFFFFFFFFFFFFFFFFFFFFFFF NOT SWAP4 SWAP3 POP POP POP JUMP JUMPDEST PUSH1 0x0 DUP1 DUP3 SLT ISZERO PUSH2 0x3838 JUMPI DUP2 PUSH1 0x0 SUB PUSH2 0xE48 JUMP JUMPDEST POP SWAP1 JUMP JUMPDEST PUSH1 0x0 DUP1 PUSH2 0x384D DUP9 DUP9 DUP9 DUP9 DUP9 DUP9 PUSH2 0x3658 JUMP JUMPDEST SWAP1 POP PUSH1 0x0 PUSH2 0x385B DUP10 DUP10 PUSH2 0x35BA JUMP JUMPDEST SWAP1 POP PUSH2 0xB00 DUP2 DUP4 PUSH2 0x4BBB JUMP JUMPDEST PUSH1 0x0 DUP3 PUSH2 0x3876 JUMPI POP PUSH1 0x0 PUSH2 0xE48 JUMP JUMPDEST PUSH1 0x0 PUSH2 0x388A PUSH8 0xDE0B6B3A7640000 DUP6 PUSH2 0x4E95 JUMP JUMPDEST SWAP1 POP PUSH2 0x2688 DUP4 DUP3 PUSH2 0x4EB4 JUMP JUMPDEST PUSH1 0x0 DUP1 PUSH2 0x38A3 DUP5 DUP5 PUSH2 0x35E7 JUMP JUMPDEST SWAP1 POP PUSH1 0x0 PUSH2 0x38B1 DUP6 DUP6 PUSH2 0x35BA JUMP JUMPDEST SWAP1 POP DUP2 PUSH2 0x364E DUP2 DUP4 PUSH2 0x3343 JUMP JUMPDEST PUSH1 0x0 PUSH2 0x38CD PUSH1 0x2 DUP5 DUP5 XOR PUSH2 0x4EB4 JUMP JUMPDEST PUSH2 0x1BAB SWAP1 DUP5 DUP5 AND PUSH2 0x4BBB JUMP JUMPDEST PUSH1 0x0 DUP1 PUSH2 0x38F2 PUSH8 0xDE0B6B3A7640000 PUSH1 0x2 DUP6 SWAP1 SIGNEXTEND PUSH2 0x4D8A JUMP JUMPDEST SWAP1 POP PUSH10 0x56D225004EE68C3FFFFF NOT DUP2 SLT ISZERO DUP1 ISZERO PUSH2 0x3919 JUMPI POP PUSH10 0xFE1C215E8F838E000000 DUP2 SGT ISZERO JUMPDEST PUSH2 0x3965 JUMPI PUSH1 0x40 MLOAD PUSH3 0x461BCD PUSH1 0xE5 SHL DUP2 MSTORE PUSH1 0x20 PUSH1 0x4 DUP3 ADD MSTORE PUSH1 0x19 PUSH1 0x24 DUP3 ADD MSTORE PUSH32 0x4F564C56313A207469636B206F7574206F6620626F756E647300000000000000 PUSH1 0x44 DUP3 ADD MSTORE PUSH1 0x64 ADD PUSH2 0x1864 JUMP JUMPDEST PUSH1 0x0 PUSH2 0x3970 DUP3 PUSH2 0x3825 JUMP JUMPDEST SWAP1 POP PUSH1 0x0 DUP3 SLT ISZERO PUSH2 0x399F JUMPI PUSH2 0x33E2 PUSH2 0x3990 PUSH8 0xDE111A6B7DE4000 DUP4 PUSH2 0x3BE5 JUMP JUMPDEST PUSH8 0xDE0B6B3A7640000 SWAP1 PUSH2 0x3867 JUMP JUMPDEST PUSH2 0x1031 PUSH8 0xDE111A6B7DE4000 DUP3 PUSH2 0x3CC4 JUMP JUMPDEST PUSH1 0x0 DUP1 DUP1 PUSH1 0x0 NOT DUP6 DUP8 MULMOD DUP6 DUP8 MUL SWAP3 POP DUP3 DUP2 LT DUP4 DUP3 SUB SUB SWAP2 POP POP DUP1 PUSH1 0x0 EQ ISZERO PUSH2 0x39EB JUMPI PUSH1 0x0 DUP5 GT PUSH2 0x39E0 JUMPI PUSH1 0x0 DUP1 REVERT JUMPDEST POP DUP3 SWAP1 DIV SWAP1 POP PUSH2 0x1BAB JUMP JUMPDEST DUP1 DUP5 GT PUSH2 0x39F7 JUMPI PUSH1 0x0 DUP1 REVERT JUMPDEST PUSH1 0x0 DUP5 DUP7 DUP9 MULMOD PUSH1 0x0 DUP7 DUP2 SUB DUP8 AND SWAP7 DUP8 SWAP1 DIV SWAP7 PUSH1 0x2 PUSH1 0x3 DUP10 MUL DUP2 XOR DUP1 DUP11 MUL DUP3 SUB MUL DUP1 DUP11 MUL DUP3 SUB MUL DUP1 DUP11 MUL DUP3 SUB MUL DUP1 DUP11 MUL DUP3 SUB MUL DUP1 DUP11 MUL DUP3 SUB MUL DUP1 DUP11 MUL SWAP1 SWAP2 SUB MUL SWAP2 DUP2 SWAP1 SUB DUP2 SWAP1 DIV PUSH1 0x1 ADD DUP7 DUP5 GT SWAP1 SWAP6 SUB SWAP5 SWAP1 SWAP5 MUL SWAP2 SWAP1 SWAP5 SUB SWAP3 SWAP1 SWAP3 DIV SWAP2 SWAP1 SWAP2 OR SWAP2 SWAP1 SWAP2 MUL SWAP2 POP POP SWAP4 SWAP3 POP POP POP JUMP JUMPDEST PUSH1 0x0 DUP1 DUP4 GT DUP1 ISZERO PUSH2 0x3A78 JUMPI POP PUSH1 0x1 PUSH1 0xFF SHL DUP4 LT JUMPDEST PUSH2 0x3AC4 JUMPI PUSH1 0x40 MLOAD PUSH3 0x461BCD PUSH1 0xE5 SHL DUP2 MSTORE PUSH1 0x20 PUSH1 0x4 DUP3 ADD MSTORE PUSH1 0x1B PUSH1 0x24 DUP3 ADD MSTORE PUSH32 0x4669786564506F696E743A2061206F7574206F6620626F756E64730000000000 PUSH1 0x44 DUP3 ADD MSTORE PUSH1 0x64 ADD PUSH2 0x1864 JUMP JUMPDEST PUSH1 0x0 DUP3 GT DUP1 ISZERO PUSH2 0x3AD7 JUMPI POP PUSH1 0x1 PUSH1 0xFF SHL DUP3 LT JUMPDEST PUSH2 0x3B23 JUMPI PUSH1 0x40 MLOAD PUSH3 0x461BCD PUSH1 0xE5 SHL DUP2 MSTORE PUSH1 0x20 PUSH1 0x4 DUP3 ADD MSTORE PUSH1 0x1B PUSH1 0x24 DUP3 ADD MSTORE PUSH32 0x4669786564506F696E743A2062206F7574206F6620626F756E64730000000000 PUSH1 0x44 DUP3 ADD MSTORE PUSH1 0x64 ADD PUSH2 0x1864 JUMP JUMPDEST DUP3 DUP3 PUSH1 0x0 PUSH2 0x3B31 DUP4 DUP4 PUSH2 0x3DA6 JUMP JUMPDEST SWAP1 POP PUSH1 0x0 DUP1 DUP3 SLT ISZERO PUSH2 0x3B46 JUMPI DUP2 PUSH1 0x0 SUB PUSH2 0x3B48 JUMP JUMPDEST DUP2 JUMPDEST SWAP1 POP PUSH1 0x0 PUSH2 0x3B62 PUSH2 0x3B5B DUP4 PUSH2 0x2710 PUSH2 0x2641 JUMP JUMPDEST PUSH1 0x1 PUSH2 0x3E60 JUMP JUMPDEST SWAP1 POP PUSH2 0x6AD DUP2 DUP5 PUSH2 0x4AE6 JUMP JUMPDEST PUSH1 0x0 PUSH2 0xE48 DUP3 PUSH1 0xE0 ADD MLOAD PUSH2 0xFFFF AND PUSH2 0x3E6D JUMP JUMPDEST PUSH1 0x0 DUP1 PUSH2 0x3B9A DUP4 MLOAD PUSH12 0xFFFFFFFFFFFFFFFFFFFFFFFF AND SWAP1 JUMP JUMPDEST SWAP1 POP PUSH1 0x0 PUSH2 0x3BA7 DUP5 PUSH2 0x3E94 JUMP JUMPDEST SWAP1 POP PUSH2 0x1031 DUP3 DUP3 PUSH2 0x3867 JUMP JUMPDEST PUSH1 0x0 DUP1 PUSH2 0x3BCA DUP5 PUSH1 0xC0 ADD MLOAD PUSH1 0x1 PUSH1 0x1 PUSH1 0xF0 SHL SUB AND SWAP1 JUMP JUMPDEST SWAP1 POP PUSH2 0x1031 DUP2 DUP5 PUSH2 0x375D JUMP JUMPDEST PUSH1 0x0 DUP2 DUP4 LT PUSH2 0x3797 JUMPI DUP2 PUSH2 0x1BAB JUMP JUMPDEST PUSH1 0x0 DUP2 ISZERO DUP1 PUSH2 0x3BFB JUMPI POP PUSH8 0xDE0B6B3A7640000 DUP4 EQ JUMPDEST ISZERO PUSH2 0x3C0F JUMPI POP PUSH8 0xDE0B6B3A7640000 PUSH2 0xE48 JUMP JUMPDEST DUP3 PUSH2 0x3C1C JUMPI POP PUSH1 0x0 PUSH2 0xE48 JUMP JUMPDEST PUSH8 0xDE0B6B3A7640000 DUP3 EQ ISZERO PUSH2 0x3C33 JUMPI POP DUP2 PUSH2 0xE48 JUMP JUMPDEST PUSH2 0x3C46 PUSH8 0xDE0B6B3A7640000 PUSH1 0x2 PUSH2 0x4E95 JUMP JUMPDEST DUP3 EQ ISZERO PUSH2 0x3C5E JUMPI PUSH2 0x3C57 DUP4 DUP5 PUSH2 0x2641 JUMP JUMPDEST SWAP1 POP PUSH2 0xE48 JUMP JUMPDEST PUSH2 0x3C71 PUSH8 0xDE0B6B3A7640000 PUSH1 0x4 PUSH2 0x4E95 JUMP JUMPDEST DUP3 EQ ISZERO PUSH2 0x3C90 JUMPI PUSH1 0x0 PUSH2 0x3C84 DUP5 DUP6 PUSH2 0x2641 JUMP JUMPDEST SWAP1 POP PUSH2 0x2688 DUP2 DUP3 PUSH2 0x2641 JUMP JUMPDEST PUSH1 0x0 PUSH2 0x3C9C DUP5 DUP5 PUSH2 0x3EA3 JUMP JUMPDEST SWAP1 POP PUSH1 0x0 PUSH2 0x3CAF PUSH2 0x3B5B DUP4 PUSH2 0x2710 PUSH2 0x2641 JUMP JUMPDEST SWAP1 POP PUSH2 0x3CBB DUP3 DUP3 PUSH2 0x3E60 JUMP JUMPDEST SWAP3 POP POP POP PUSH2 0xE48 JUMP JUMPDEST PUSH1 0x0 DUP2 ISZERO DUP1 PUSH2 0x3CDA JUMPI POP PUSH8 0xDE0B6B3A7640000 DUP4 EQ JUMPDEST ISZERO PUSH2 0x3CEE JUMPI POP PUSH8 0xDE0B6B3A7640000 PUSH2 0xE48 JUMP JUMPDEST DUP3 PUSH2 0x3CFB JUMPI POP PUSH1 0x0 PUSH2 0xE48 JUMP JUMPDEST PUSH8 0xDE0B6B3A7640000 DUP3 EQ ISZERO PUSH2 0x3D12 JUMPI POP DUP2 PUSH2 0xE48 JUMP JUMPDEST PUSH2 0x3D25 PUSH8 0xDE0B6B3A7640000 PUSH1 0x2 PUSH2 0x4E95 JUMP JUMPDEST DUP3 EQ ISZERO PUSH2 0x3D36 JUMPI PUSH2 0x3C57 DUP4 DUP5 PUSH2 0x375D JUMP JUMPDEST PUSH2 0x3D49 PUSH8 0xDE0B6B3A7640000 PUSH1 0x4 PUSH2 0x4E95 JUMP JUMPDEST DUP3 EQ ISZERO PUSH2 0x3D68 JUMPI PUSH1 0x0 PUSH2 0x3D5C DUP5 DUP6 PUSH2 0x375D JUMP JUMPDEST SWAP1 POP PUSH2 0x2688 DUP2 DUP3 PUSH2 0x375D JUMP JUMPDEST PUSH1 0x0 PUSH2 0x3D74 DUP5 DUP5 PUSH2 0x3EA3 JUMP JUMPDEST SWAP1 POP PUSH1 0x0 PUSH2 0x3D87 PUSH2 0x3B5B DUP4 PUSH2 0x2710 PUSH2 0x2641 JUMP JUMPDEST SWAP1 POP DUP1 DUP3 LT ISZERO PUSH2 0x3D9C JUMPI PUSH1 0x0 SWAP3 POP POP POP PUSH2 0xE48 JUMP JUMPDEST PUSH2 0x3CBB DUP3 DUP3 PUSH2 0x3FA4 JUMP JUMPDEST PUSH1 0x0 DUP1 PUSH8 0xC7D713B49DA0000 DUP4 SGT DUP1 ISZERO PUSH2 0x3DC7 JUMPI POP PUSH8 0xF43FC2C04EE0000 DUP4 SLT JUMPDEST ISZERO PUSH2 0x3DDC JUMPI PUSH2 0x3DD5 DUP4 PUSH2 0x3FB1 JUMP JUMPDEST SWAP1 POP PUSH2 0x3DF2 JUMP JUMPDEST PUSH8 0xDE0B6B3A7640000 PUSH2 0x3DEE DUP5 PUSH2 0x40D9 JUMP JUMPDEST MUL SWAP1 POP JUMPDEST PUSH1 0x0 PUSH8 0xC7D713B49DA0000 DUP6 SGT DUP1 ISZERO PUSH2 0x3E12 JUMPI POP PUSH8 0xF43FC2C04EE0000 DUP6 SLT JUMPDEST ISZERO PUSH2 0x3E27 JUMPI PUSH2 0x3E20 DUP6 PUSH2 0x3FB1 JUMP JUMPDEST SWAP1 POP PUSH2 0x3E3D JUMP JUMPDEST PUSH8 0xDE0B6B3A7640000 PUSH2 0x3E39 DUP7 PUSH2 0x40D9 JUMP JUMPDEST MUL SWAP1 POP JUMPDEST DUP2 PUSH8 0xDE0B6B3A7640000 DUP3 MUL DUP2 PUSH2 0x3E56 JUMPI PUSH2 0x3E56 PUSH2 0x4E11 JUMP JUMPDEST SDIV SWAP6 SWAP5 POP POP POP POP POP JUMP JUMPDEST PUSH1 0x0 DUP1 PUSH2 0x1031 DUP4 DUP6 PUSH2 0x4BBB JUMP JUMPDEST PUSH1 0x0 DUP1 PUSH2 0x3E84 PUSH2 0x2710 PUSH8 0xDE0B6B3A7640000 PUSH2 0x4EB4 JUMP JUMPDEST SWAP1 POP PUSH2 0x1BAB DUP2 PUSH2 0xFFFF DUP6 AND PUSH2 0x4E95 JUMP JUMPDEST PUSH1 0x0 PUSH2 0xE48 DUP3 PUSH1 0x40 ADD MLOAD PUSH2 0x38D9 JUMP JUMPDEST PUSH1 0x0 DUP2 PUSH2 0x3EB9 JUMPI POP PUSH8 0xDE0B6B3A7640000 PUSH2 0xE48 JUMP JUMPDEST DUP3 PUSH2 0x3EC6 JUMPI POP PUSH1 0x0 PUSH2 0xE48 JUMP JUMPDEST PUSH2 0x3ED7 PUSH1 0x1 PUSH1 0xFF SHL DUP5 LT PUSH1 0x6 PUSH2 0x4484 JUMP JUMPDEST DUP3 PUSH2 0x3EFD PUSH24 0xBCE5086492111AEA88F4BB1CA6BCF584181EA8059F76532 DUP5 LT PUSH1 0x7 PUSH2 0x4484 JUMP JUMPDEST DUP3 PUSH1 0x0 PUSH8 0xC7D713B49DA0000 DUP4 SGT DUP1 ISZERO PUSH2 0x3F1E JUMPI POP PUSH8 0xF43FC2C04EE0000 DUP4 SLT JUMPDEST ISZERO PUSH2 0x3F55 JUMPI PUSH1 0x0 PUSH2 0x3F2E DUP5 PUSH2 0x3FB1 JUMP JUMPDEST SWAP1 POP PUSH8 0xDE0B6B3A7640000 DUP1 DUP3 SMOD DUP5 MUL SDIV DUP4 PUSH8 0xDE0B6B3A7640000 DUP4 SDIV MUL ADD SWAP2 POP POP PUSH2 0x3F63 JUMP JUMPDEST DUP2 PUSH2 0x3F5F DUP5 PUSH2 0x40D9 JUMP JUMPDEST MUL SWAP1 POP JUMPDEST PUSH8 0xDE0B6B3A7640000 SWAP1 SDIV PUSH2 0x3F9B PUSH9 0x238FD42C5CF03FFFF NOT DUP3 SLT DUP1 ISZERO SWAP1 PUSH2 0x3F94 JUMPI POP PUSH9 0x70C1CC73B00C80000 DUP3 SGT ISZERO JUMPDEST PUSH1 0x8 PUSH2 0x4484 JUMP JUMPDEST PUSH2 0x364E DUP2 PUSH2 0x4496 JUMP JUMPDEST PUSH1 0x0 DUP1 PUSH2 0x1031 DUP4 DUP6 PUSH2 0x4BA4 JUMP JUMPDEST PUSH8 0xDE0B6B3A7640000 MUL PUSH1 0x0 DUP1 PUSH15 0xC097CE7BC90715B34B9F1000000000 DUP1 DUP5 ADD SWAP1 PUSH15 0xC097CE7BC90715B34B9F0FFFFFFFFF NOT DUP6 ADD MUL DUP2 PUSH2 0x3FF3 JUMPI PUSH2 0x3FF3 PUSH2 0x4E11 JUMP JUMPDEST SDIV SWAP1 POP PUSH1 0x0 PUSH15 0xC097CE7BC90715B34B9F1000000000 DUP3 DUP1 MUL SDIV SWAP1 POP DUP2 DUP1 PUSH15 0xC097CE7BC90715B34B9F1000000000 DUP2 DUP5 MUL SDIV SWAP2 POP PUSH1 0x3 DUP3 SDIV ADD PUSH15 0xC097CE7BC90715B34B9F1000000000 DUP3 DUP5 MUL SDIV SWAP2 POP PUSH1 0x5 DUP3 SDIV ADD PUSH15 0xC097CE7BC90715B34B9F1000000000 DUP3 DUP5 MUL SDIV SWAP2 POP PUSH1 0x7 DUP3 SDIV ADD PUSH15 0xC097CE7BC90715B34B9F1000000000 DUP3 DUP5 MUL SDIV SWAP2 POP PUSH1 0x9 DUP3 SDIV ADD PUSH15 0xC097CE7BC90715B34B9F1000000000 DUP3 DUP5 MUL SDIV SWAP2 POP PUSH1 0xB DUP3 SDIV ADD PUSH15 0xC097CE7BC90715B34B9F1000000000 DUP3 DUP5 MUL SDIV SWAP2 POP PUSH1 0xD DUP3 SDIV ADD PUSH15 0xC097CE7BC90715B34B9F1000000000 DUP3 DUP5 MUL SDIV SWAP2 POP PUSH1 0xF DUP3 SDIV ADD PUSH1 0x2 MUL SWAP6 SWAP5 POP POP POP POP POP JUMP JUMPDEST PUSH1 0x0 PUSH8 0xDE0B6B3A7640000 DUP3 SLT ISZERO PUSH2 0x411B JUMPI PUSH2 0x4112 DUP3 PUSH15 0xC097CE7BC90715B34B9F1000000000 DUP2 PUSH2 0x410C JUMPI PUSH2 0x410C PUSH2 0x4E11 JUMP JUMPDEST SDIV PUSH2 0x40D9 JUMP JUMPDEST PUSH1 0x0 SUB SWAP3 SWAP2 POP POP JUMP JUMPDEST PUSH1 0x0 PUSH31 0x1600EF3172E58D2E933EC884FDE10064C63B5372D805E203C0000000000000 DUP4 SLT PUSH2 0x416C JUMPI PUSH24 0x195E54C5DD42177F53A27172FA9EC630262827000000000 DUP4 SDIV SWAP3 POP PUSH9 0x6F05B59D3B2000000 ADD JUMPDEST PUSH20 0x11798004D755D3C8BC8E03204CF44619E000000 DUP4 SLT PUSH2 0x41A4 JUMPI PUSH12 0x1425982CF597CD205CEF7380 DUP4 SDIV SWAP3 POP PUSH9 0x3782DACE9D9000000 ADD JUMPDEST PUSH1 0x64 SWAP3 DUP4 MUL SWAP3 MUL PUSH15 0x1855144814A7FF805980FF0084000 DUP4 SLT PUSH2 0x41EC JUMPI PUSH15 0x1855144814A7FF805980FF0084000 PUSH9 0x56BC75E2D63100000 DUP5 MUL SDIV SWAP3 POP PUSH9 0xAD78EBC5AC62000000 ADD JUMPDEST PUSH12 0x2DF0AB5A80A22C61AB5A700 DUP4 SLT PUSH2 0x4227 JUMPI PUSH12 0x2DF0AB5A80A22C61AB5A700 PUSH9 0x56BC75E2D63100000 DUP5 MUL SDIV SWAP3 POP PUSH9 0x56BC75E2D631000000 ADD JUMPDEST PUSH10 0x3F1FCE3DA636EA5CF850 DUP4 SLT PUSH2 0x425E JUMPI PUSH10 0x3F1FCE3DA636EA5CF850 PUSH9 0x56BC75E2D63100000 DUP5 MUL SDIV SWAP3 POP PUSH9 0x2B5E3AF16B18800000 ADD JUMPDEST PUSH10 0x127FA27722CC06CC5E2 DUP4 SLT PUSH2 0x4295 JUMPI PUSH10 0x127FA27722CC06CC5E2 PUSH9 0x56BC75E2D63100000 DUP5 MUL SDIV SWAP3 POP PUSH9 0x15AF1D78B58C400000 ADD JUMPDEST PUSH9 0x280E60114EDB805D03 DUP4 SLT PUSH2 0x42CA JUMPI PUSH9 0x280E60114EDB805D03 PUSH9 0x56BC75E2D63100000 DUP5 MUL SDIV SWAP3 POP PUSH9 0xAD78EBC5AC6200000 ADD JUMPDEST PUSH9 0xEBC5FB41746121110 DUP4 SLT PUSH2 0x42F5 JUMPI PUSH9 0xEBC5FB41746121110 PUSH9 0x56BC75E2D63100000 SWAP4 DUP5 MUL SDIV SWAP3 ADD JUMPDEST PUSH9 0x8F00F760A4B2DB55D DUP4 SLT PUSH2 0x432A JUMPI PUSH9 0x8F00F760A4B2DB55D PUSH9 0x56BC75E2D63100000 DUP5 MUL SDIV SWAP3 POP PUSH9 0x2B5E3AF16B1880000 ADD JUMPDEST PUSH9 0x6F5F1775788937937 DUP4 SLT PUSH2 0x435F JUMPI PUSH9 0x6F5F1775788937937 PUSH9 0x56BC75E2D63100000 DUP5 MUL SDIV SWAP3 POP PUSH9 0x15AF1D78B58C40000 ADD JUMPDEST PUSH9 0x6248F33704B286603 DUP4 SLT PUSH2 0x4393 JUMPI PUSH9 0x6248F33704B286603 PUSH9 0x56BC75E2D63100000 DUP5 MUL SDIV SWAP3 POP PUSH8 0xAD78EBC5AC620000 ADD JUMPDEST PUSH9 0x5C548670B9510E7AC DUP4 SLT PUSH2 0x43C7 JUMPI PUSH9 0x5C548670B9510E7AC PUSH9 0x56BC75E2D63100000 DUP5 MUL SDIV SWAP3 POP PUSH8 0x56BC75E2D6310000 ADD JUMPDEST PUSH1 0x0 PUSH9 0x56BC75E2D63100000 DUP5 ADD PUSH9 0x56BC75E2D63100000 DUP1 DUP7 SUB MUL DUP2 PUSH2 0x43F0 JUMPI PUSH2 0x43F0 PUSH2 0x4E11 JUMP JUMPDEST SDIV SWAP1 POP PUSH1 0x0 PUSH9 0x56BC75E2D63100000 DUP3 DUP1 MUL SDIV SWAP1 POP DUP2 DUP1 PUSH9 0x56BC75E2D63100000 DUP2 DUP5 MUL SDIV SWAP2 POP PUSH1 0x3 DUP3 SDIV ADD PUSH9 0x56BC75E2D63100000 DUP3 DUP5 MUL SDIV SWAP2 POP PUSH1 0x5 DUP3 SDIV ADD PUSH9 0x56BC75E2D63100000 DUP3 DUP5 MUL SDIV SWAP2 POP PUSH1 0x7 DUP3 SDIV ADD PUSH9 0x56BC75E2D63100000 DUP3 DUP5 MUL SDIV SWAP2 POP PUSH1 0x9 DUP3 SDIV ADD PUSH9 0x56BC75E2D63100000 DUP3 DUP5 MUL SDIV SWAP2 POP PUSH1 0xB DUP3 SDIV ADD PUSH1 0x2 MUL PUSH1 0x64 DUP6 DUP3 ADD SDIV SWAP8 SWAP7 POP POP POP POP POP POP POP JUMP JUMPDEST DUP2 PUSH2 0x4492 JUMPI PUSH2 0x4492 DUP2 PUSH2 0x4879 JUMP JUMPDEST POP POP JUMP JUMPDEST PUSH1 0x0 PUSH2 0x44C5 PUSH9 0x238FD42C5CF03FFFF NOT DUP4 SLT ISZERO DUP1 ISZERO PUSH2 0x44BE JUMPI POP PUSH9 0x70C1CC73B00C80000 DUP4 SGT ISZERO JUMPDEST PUSH1 0x9 PUSH2 0x4484 JUMP JUMPDEST PUSH1 0x0 DUP3 SLT ISZERO PUSH2 0x44FE JUMPI PUSH2 0x44DA DUP3 PUSH1 0x0 SUB PUSH2 0x4496 JUMP JUMPDEST PUSH15 0xC097CE7BC90715B34B9F1000000000 DUP2 PUSH2 0x44F7 JUMPI PUSH2 0x44F7 PUSH2 0x4E11 JUMP JUMPDEST SDIV SWAP3 SWAP2 POP POP JUMP JUMPDEST PUSH1 0x0 PUSH9 0x6F05B59D3B2000000 DUP4 SLT PUSH2 0x453E JUMPI POP PUSH9 0x6F05B59D3B1FFFFFF NOT SWAP1 SWAP2 ADD SWAP1 PUSH24 0x195E54C5DD42177F53A27172FA9EC630262827000000000 PUSH2 0x4574 JUMP JUMPDEST PUSH9 0x3782DACE9D9000000 DUP4 SLT PUSH2 0x4570 JUMPI POP PUSH9 0x3782DACE9D8FFFFFF NOT SWAP1 SWAP2 ADD SWAP1 PUSH12 0x1425982CF597CD205CEF7380 PUSH2 0x4574 JUMP JUMPDEST POP PUSH1 0x1 JUMPDEST PUSH1 0x64 SWAP3 SWAP1 SWAP3 MUL SWAP2 PUSH9 0x56BC75E2D63100000 PUSH9 0xAD78EBC5AC62000000 DUP5 SLT PUSH2 0x45C4 JUMPI PUSH9 0xAD78EBC5AC61FFFFFF NOT SWAP1 SWAP4 ADD SWAP3 PUSH9 0x56BC75E2D63100000 PUSH15 0x1855144814A7FF805980FF0084000 DUP3 MUL SDIV SWAP1 POP JUMPDEST PUSH9 0x56BC75E2D631000000 DUP5 SLT PUSH2 0x4600 JUMPI PUSH9 0x56BC75E2D630FFFFFF NOT SWAP1 SWAP4 ADD SWAP3 PUSH9 0x56BC75E2D63100000 PUSH12 0x2DF0AB5A80A22C61AB5A700 DUP3 MUL SDIV SWAP1 POP JUMPDEST PUSH9 0x2B5E3AF16B18800000 DUP5 SLT PUSH2 0x463A JUMPI PUSH9 0x2B5E3AF16B187FFFFF NOT SWAP1 SWAP4 ADD SWAP3 PUSH9 0x56BC75E2D63100000 PUSH10 0x3F1FCE3DA636EA5CF850 DUP3 MUL SDIV SWAP1 POP JUMPDEST PUSH9 0x15AF1D78B58C400000 DUP5 SLT PUSH2 0x4674 JUMPI PUSH9 0x15AF1D78B58C3FFFFF NOT SWAP1 SWAP4 ADD SWAP3 PUSH9 0x56BC75E2D63100000 PUSH10 0x127FA27722CC06CC5E2 DUP3 MUL SDIV SWAP1 POP JUMPDEST PUSH9 0xAD78EBC5AC6200000 DUP5 SLT PUSH2 0x46AD JUMPI PUSH9 0xAD78EBC5AC61FFFFF NOT SWAP1 SWAP4 ADD SWAP3 PUSH9 0x56BC75E2D63100000 PUSH9 0x280E60114EDB805D03 DUP3 MUL SDIV SWAP1 POP JUMPDEST PUSH9 0x56BC75E2D63100000 DUP5 SLT PUSH2 0x46E6 JUMPI PUSH9 0x56BC75E2D630FFFFF NOT SWAP1 SWAP4 ADD SWAP3 PUSH9 0x56BC75E2D63100000 PUSH9 0xEBC5FB41746121110 DUP3 MUL SDIV SWAP1 POP JUMPDEST PUSH9 0x2B5E3AF16B1880000 DUP5 SLT PUSH2 0x471F JUMPI PUSH9 0x2B5E3AF16B187FFFF NOT SWAP1 SWAP4 ADD SWAP3 PUSH9 0x56BC75E2D63100000 PUSH9 0x8F00F760A4B2DB55D DUP3 MUL SDIV SWAP1 POP JUMPDEST PUSH9 0x15AF1D78B58C40000 DUP5 SLT PUSH2 0x4758 JUMPI PUSH9 0x15AF1D78B58C3FFFF NOT SWAP1 SWAP4 ADD SWAP3 PUSH9 0x56BC75E2D63100000 PUSH9 0x6F5F1775788937937 DUP3 MUL SDIV SWAP1 POP JUMPDEST PUSH9 0x56BC75E2D63100000 DUP5 DUP2 ADD SWAP1 DUP6 SWAP1 PUSH1 0x2 SWAP1 DUP3 DUP1 MUL SDIV SDIV SWAP2 DUP3 ADD SWAP2 SWAP1 POP PUSH1 0x3 PUSH9 0x56BC75E2D63100000 DUP8 DUP4 MUL SDIV SDIV SWAP2 DUP3 ADD SWAP2 SWAP1 POP PUSH1 0x4 PUSH9 0x56BC75E2D63100000 DUP8 DUP4 MUL SDIV SDIV SWAP2 DUP3 ADD SWAP2 SWAP1 POP PUSH1 0x5 PUSH9 0x56BC75E2D63100000 DUP8 DUP4 MUL SDIV SDIV SWAP2 DUP3 ADD SWAP2 SWAP1 POP PUSH1 0x6 PUSH9 0x56BC75E2D63100000 DUP8 DUP4 MUL SDIV SDIV SWAP2 DUP3 ADD SWAP2 SWAP1 POP PUSH1 0x7 PUSH9 0x56BC75E2D63100000 DUP8 DUP4 MUL SDIV SDIV SWAP2 DUP3 ADD SWAP2 SWAP1 POP PUSH1 0x8 PUSH9 0x56BC75E2D63100000 DUP8 DUP4 MUL SDIV SDIV SWAP2 DUP3 ADD SWAP2 SWAP1 POP PUSH1 0x9 PUSH9 0x56BC75E2D63100000 DUP8 DUP4 MUL SDIV SDIV SWAP2 DUP3 ADD SWAP2 SWAP1 POP PUSH1 0xA PUSH9 0x56BC75E2D63100000 DUP8 DUP4 MUL SDIV SDIV SWAP2 DUP3 ADD SWAP2 SWAP1 POP PUSH1 0xB PUSH9 0x56BC75E2D63100000 DUP8 DUP4 MUL SDIV SDIV SWAP2 DUP3 ADD SWAP2 SWAP1 POP PUSH1 0xC PUSH9 0x56BC75E2D63100000 DUP8 DUP4 MUL SDIV SDIV SWAP2 DUP3 ADD SWAP2 SWAP1 POP PUSH1 0x64 PUSH9 0x56BC75E2D63100000 DUP5 DUP5 MUL SDIV DUP6 MUL SDIV SWAP7 SWAP6 POP POP POP POP POP POP JUMP JUMPDEST PUSH3 0x461BCD PUSH1 0xE5 SHL PUSH1 0x0 SWAP1 DUP2 MSTORE PUSH1 0x20 PUSH1 0x4 MSTORE PUSH1 0x7 PUSH1 0x24 MSTORE PUSH7 0x42414C23000030 PUSH1 0xA DUP1 DUP5 DIV DUP2 DUP2 MOD PUSH1 0x30 SWAP1 DUP2 ADD PUSH1 0x8 SHL SWAP6 DUP4 SWAP1 MOD SWAP6 SWAP1 SWAP6 ADD SWAP1 DUP3 SWAP1 DIV SWAP2 DUP3 MOD SWAP1 SWAP5 ADD PUSH1 0x10 SHL SWAP4 SWAP1 SWAP4 ADD ADD PUSH1 0xC8 SHL PUSH1 0x44 MSTORE PUSH1 0x64 SWAP1 REVERT JUMPDEST PUSH1 0x1 PUSH1 0x1 PUSH1 0xA0 SHL SUB DUP2 AND DUP2 EQ PUSH2 0x48E1 JUMPI PUSH1 0x0 DUP1 REVERT JUMPDEST POP JUMP JUMPDEST DUP1 ISZERO ISZERO DUP2 EQ PUSH2 0x48E1 JUMPI PUSH1 0x0 DUP1 REVERT JUMPDEST PUSH1 0x0 DUP1 PUSH1 0x0 DUP1 PUSH1 0x80 DUP6 DUP8 SUB SLT ISZERO PUSH2 0x4908 JUMPI PUSH1 0x0 DUP1 REVERT JUMPDEST DUP5 CALLDATALOAD PUSH2 0x4913 DUP2 PUSH2 0x48CC JUMP JUMPDEST SWAP4 POP PUSH1 0x20 DUP6 ADD CALLDATALOAD SWAP3 POP PUSH1 0x40 DUP6 ADD CALLDATALOAD SWAP2 POP PUSH1 0x60 DUP6 ADD CALLDATALOAD PUSH2 0x4931 DUP2 PUSH2 0x48E4 JUMP JUMPDEST SWAP4 SWAP7 SWAP3 SWAP6 POP SWAP1 SWAP4 POP POP JUMP JUMPDEST PUSH1 0x0 DUP1 PUSH1 0x0 PUSH1 0x60 DUP5 DUP7 SUB SLT ISZERO PUSH2 0x4951 JUMPI PUSH1 0x0 DUP1 REVERT JUMPDEST DUP4 CALLDATALOAD PUSH2 0x495C DUP2 PUSH2 0x48CC JUMP JUMPDEST SWAP3 POP PUSH1 0x20 DUP5 ADD CALLDATALOAD PUSH2 0x496C DUP2 PUSH2 0x48CC JUMP JUMPDEST SWAP3 SWAP6 SWAP3 SWAP5 POP POP POP PUSH1 0x40 SWAP2 SWAP1 SWAP2 ADD CALLDATALOAD SWAP1 JUMP JUMPDEST PUSH1 0x0 PUSH1 0x20 DUP3 DUP5 SUB SLT ISZERO PUSH2 0x498F JUMPI PUSH1 0x0 DUP1 REVERT JUMPDEST DUP2 CALLDATALOAD PUSH2 0x1BAB DUP2 PUSH2 0x48CC JUMP JUMPDEST PUSH1 0x0 DUP1 PUSH1 0x40 DUP4 DUP6 SUB SLT ISZERO PUSH2 0x49AD JUMPI PUSH1 0x0 DUP1 REVERT JUMPDEST DUP3 CALLDATALOAD PUSH2 0x49B8 DUP2 PUSH2 0x48CC JUMP JUMPDEST SWAP5 PUSH1 0x20 SWAP4 SWAP1 SWAP4 ADD CALLDATALOAD SWAP4 POP POP POP JUMP JUMPDEST PUSH1 0x0 PUSH2 0x100 DUP3 ADD SWAP1 POP PUSH12 0xFFFFFFFFFFFFFFFFFFFFFFFF DUP1 DUP5 MLOAD AND DUP4 MSTORE DUP1 PUSH1 0x20 DUP6 ADD MLOAD AND PUSH1 0x20 DUP5 ADD MSTORE POP PUSH1 0x40 DUP4 ADD MLOAD PUSH1 0x2 SIGNEXTEND PUSH1 0x40 DUP4 ADD MSTORE PUSH1 0x60 DUP4 ADD MLOAD PUSH1 0x2 SIGNEXTEND PUSH1 0x60 DUP4 ADD MSTORE PUSH1 0x80 DUP4 ADD MLOAD ISZERO ISZERO PUSH1 0x80 DUP4 ADD MSTORE PUSH1 0xA0 DUP4 ADD MLOAD PUSH2 0x4A28 PUSH1 0xA0 DUP5 ADD DUP3 ISZERO ISZERO SWAP1 MSTORE JUMP JUMPDEST POP PUSH1 0xC0 DUP4 ADD MLOAD PUSH2 0x4A43 PUSH1 0xC0 DUP5 ADD DUP3 PUSH1 0x1 PUSH1 0x1 PUSH1 0xF0 SHL SUB AND SWAP1 MSTORE JUMP JUMPDEST POP PUSH1 0xE0 DUP4 ADD MLOAD PUSH2 0x2690 PUSH1 0xE0 DUP5 ADD DUP3 PUSH2 0xFFFF AND SWAP1 MSTORE JUMP JUMPDEST PUSH2 0x100 DUP2 ADD PUSH2 0xE48 DUP3 DUP5 DUP1 MLOAD DUP3 MSTORE PUSH1 0x20 DUP2 ADD MLOAD PUSH1 0x20 DUP4 ADD MSTORE PUSH1 0x40 DUP2 ADD MLOAD PUSH1 0x40 DUP4 ADD MSTORE PUSH1 0x60 DUP2 ADD MLOAD PUSH1 0x60 DUP4 ADD MSTORE PUSH1 0x80 DUP2 ADD MLOAD PUSH1 0x80 DUP4 ADD MSTORE PUSH1 0xA0 DUP2 ADD MLOAD PUSH1 0xA0 DUP4 ADD MSTORE PUSH1 0xC0 DUP2 ADD MLOAD PUSH1 0xC0 DUP4 ADD MSTORE PUSH1 0xE0 DUP2 ADD MLOAD ISZERO ISZERO PUSH1 0xE0 DUP4 ADD MSTORE POP POP JUMP JUMPDEST PUSH1 0x0 PUSH1 0x20 DUP3 DUP5 SUB SLT ISZERO PUSH2 0x4AC5 JUMPI PUSH1 0x0 DUP1 REVERT JUMPDEST DUP2 MLOAD PUSH2 0x1BAB DUP2 PUSH2 0x48CC JUMP JUMPDEST PUSH4 0x4E487B71 PUSH1 0xE0 SHL PUSH1 0x0 MSTORE PUSH1 0x11 PUSH1 0x4 MSTORE PUSH1 0x24 PUSH1 0x0 REVERT JUMPDEST PUSH1 0x0 DUP1 DUP4 SLT DUP1 ISZERO PUSH1 0x1 PUSH1 0xFF SHL DUP6 ADD DUP5 SLT AND ISZERO PUSH2 0x4B04 JUMPI PUSH2 0x4B04 PUSH2 0x4AD0 JUMP JUMPDEST DUP4 PUSH1 0x1 PUSH1 0x1 PUSH1 0xFF SHL SUB ADD DUP4 SGT DUP2 AND ISZERO PUSH2 0x4B1F JUMPI PUSH2 0x4B1F PUSH2 0x4AD0 JUMP JUMPDEST POP POP SUB SWAP1 JUMP JUMPDEST DUP1 MLOAD PUSH4 0xFFFFFFFF DUP2 AND DUP2 EQ PUSH2 0x4B39 JUMPI PUSH1 0x0 DUP1 REVERT JUMPDEST SWAP2 SWAP1 POP JUMP JUMPDEST PUSH1 0x0 DUP1 PUSH1 0x0 PUSH1 0x60 DUP5 DUP7 SUB SLT ISZERO PUSH2 0x4B53 JUMPI PUSH1 0x0 DUP1 REVERT JUMPDEST PUSH2 0x4B5C DUP5 PUSH2 0x4B25 JUMP JUMPDEST SWAP3 POP PUSH2 0x4B6A PUSH1 0x20 DUP6 ADD PUSH2 0x4B25 JUMP JUMPDEST SWAP2 POP PUSH1 0x40 DUP5 ADD MLOAD DUP1 PUSH1 0x17 SIGNEXTEND DUP2 EQ PUSH2 0x4B80 JUMPI PUSH1 0x0 DUP1 REVERT JUMPDEST DUP1 SWAP2 POP POP SWAP3 POP SWAP3 POP SWAP3 JUMP JUMPDEST PUSH1 0x0 PUSH1 0x20 DUP3 DUP5 SUB SLT ISZERO PUSH2 0x4B9D JUMPI PUSH1 0x0 DUP1 REVERT JUMPDEST POP MLOAD SWAP2 SWAP1 POP JUMP JUMPDEST PUSH1 0x0 DUP3 DUP3 LT ISZERO PUSH2 0x4BB6 JUMPI PUSH2 0x4BB6 PUSH2 0x4AD0 JUMP JUMPDEST POP SUB SWAP1 JUMP JUMPDEST PUSH1 0x0 DUP3 NOT DUP3 GT ISZERO PUSH2 0x4BCE JUMPI PUSH2 0x4BCE PUSH2 0x4AD0 JUMP JUMPDEST POP ADD SWAP1 JUMP JUMPDEST DUP1 MLOAD PUSH2 0x4B39 DUP2 PUSH2 0x48E4 JUMP JUMPDEST PUSH1 0x0 PUSH2 0x100 DUP1 DUP4 DUP6 SUB SLT ISZERO PUSH2 0x4BF2 JUMPI PUSH1 0x0 DUP1 REVERT JUMPDEST PUSH1 0x40 MLOAD SWAP1 DUP2 ADD SWAP1 PUSH8 0xFFFFFFFFFFFFFFFF DUP3 GT DUP2 DUP4 LT OR ISZERO PUSH2 0x4C23 JUMPI PUSH4 0x4E487B71 PUSH1 0xE0 SHL PUSH1 0x0 MSTORE PUSH1 0x41 PUSH1 0x4 MSTORE PUSH1 0x24 PUSH1 0x0 REVERT JUMPDEST DUP2 PUSH1 0x40 MSTORE DUP4 MLOAD DUP2 MSTORE PUSH1 0x20 DUP5 ADD MLOAD PUSH1 0x20 DUP3 ADD MSTORE PUSH1 0x40 DUP5 ADD MLOAD PUSH1 0x40 DUP3 ADD MSTORE PUSH1 0x60 DUP5 ADD MLOAD PUSH1 0x60 DUP3 ADD MSTORE PUSH1 0x80 DUP5 ADD MLOAD PUSH1 0x80 DUP3 ADD MSTORE PUSH1 0xA0 DUP5 ADD MLOAD PUSH1 0xA0 DUP3 ADD MSTORE PUSH1 0xC0 DUP5 ADD MLOAD PUSH1 0xC0 DUP3 ADD MSTORE PUSH2 0x4C73 PUSH1 0xE0 DUP6 ADD PUSH2 0x4BD3 JUMP JUMPDEST PUSH1 0xE0 DUP3 ADD MSTORE SWAP5 SWAP4 POP POP POP POP JUMP JUMPDEST DUP1 MLOAD PUSH12 0xFFFFFFFFFFFFFFFFFFFFFFFF DUP2 AND DUP2 EQ PUSH2 0x4B39 JUMPI PUSH1 0x0 DUP1 REVERT JUMPDEST DUP1 MLOAD PUSH1 0x2 DUP2 SWAP1 SIGNEXTEND DUP2 EQ PUSH2 0x4B39 JUMPI PUSH1 0x0 DUP1 REVERT JUMPDEST PUSH1 0x0 DUP1 PUSH1 0x0 DUP1 PUSH1 0x0 DUP1 PUSH1 0x0 DUP1 PUSH2 0x100 DUP10 DUP12 SUB SLT ISZERO PUSH2 0x4CCB JUMPI PUSH1 0x0 DUP1 REVERT JUMPDEST PUSH2 0x4CD4 DUP10 PUSH2 0x4C80 JUMP JUMPDEST SWAP8 POP PUSH2 0x4CE2 PUSH1 0x20 DUP11 ADD PUSH2 0x4C80 JUMP JUMPDEST SWAP7 POP PUSH2 0x4CF0 PUSH1 0x40 DUP11 ADD PUSH2 0x4C9C JUMP JUMPDEST SWAP6 POP PUSH2 0x4CFE PUSH1 0x60 DUP11 ADD PUSH2 0x4C9C JUMP JUMPDEST SWAP5 POP PUSH1 0x80 DUP10 ADD MLOAD PUSH2 0x4D0E DUP2 PUSH2 0x48E4 JUMP JUMPDEST PUSH1 0xA0 DUP11 ADD MLOAD SWAP1 SWAP5 POP PUSH2 0x4D1F DUP2 PUSH2 0x48E4 JUMP JUMPDEST PUSH1 0xC0 DUP11 ADD MLOAD SWAP1 SWAP4 POP PUSH1 0x1 PUSH1 0x1 PUSH1 0xF0 SHL SUB DUP2 AND DUP2 EQ PUSH2 0x4D3C JUMPI PUSH1 0x0 DUP1 REVERT JUMPDEST PUSH1 0xE0 DUP11 ADD MLOAD SWAP1 SWAP3 POP PUSH2 0xFFFF DUP2 AND DUP2 EQ PUSH2 0x4D54 JUMPI PUSH1 0x0 DUP1 REVERT JUMPDEST DUP1 SWAP2 POP POP SWAP3 SWAP6 SWAP9 POP SWAP3 SWAP6 SWAP9 SWAP1 SWAP4 SWAP7 POP JUMP JUMPDEST PUSH1 0x0 PUSH4 0xFFFFFFFF DUP4 DUP2 AND SWAP1 DUP4 AND DUP2 DUP2 LT ISZERO PUSH2 0x4D82 JUMPI PUSH2 0x4D82 PUSH2 0x4AD0 JUMP JUMPDEST SUB SWAP4 SWAP3 POP POP POP JUMP JUMPDEST PUSH1 0x0 PUSH1 0x1 PUSH1 0x1 PUSH1 0xFF SHL SUB PUSH1 0x0 DUP5 SGT PUSH1 0x0 DUP5 SGT DUP6 DUP4 DIV DUP6 GT DUP3 DUP3 AND AND ISZERO PUSH2 0x4DB2 JUMPI PUSH2 0x4DB2 PUSH2 0x4AD0 JUMP JUMPDEST PUSH1 0x1 PUSH1 0xFF SHL PUSH1 0x0 DUP8 SLT DUP3 DUP2 AND DUP8 DUP4 SDIV DUP10 SLT AND ISZERO PUSH2 0x4DD1 JUMPI PUSH2 0x4DD1 PUSH2 0x4AD0 JUMP JUMPDEST PUSH1 0x0 DUP8 SLT SWAP3 POP DUP8 DUP3 SDIV DUP8 SLT DUP5 DUP5 AND AND ISZERO PUSH2 0x4DED JUMPI PUSH2 0x4DED PUSH2 0x4AD0 JUMP JUMPDEST DUP8 DUP6 SDIV DUP8 SLT DUP2 DUP5 AND AND ISZERO PUSH2 0x4E03 JUMPI PUSH2 0x4E03 PUSH2 0x4AD0 JUMP JUMPDEST POP POP POP SWAP3 SWAP1 SWAP4 MUL SWAP4 SWAP3 POP POP POP JUMP JUMPDEST PUSH4 0x4E487B71 PUSH1 0xE0 SHL PUSH1 0x0 MSTORE PUSH1 0x12 PUSH1 0x4 MSTORE PUSH1 0x24 PUSH1 0x0 REVERT JUMPDEST PUSH1 0x0 DUP3 PUSH2 0x4E36 JUMPI PUSH2 0x4E36 PUSH2 0x4E11 JUMP JUMPDEST PUSH1 0x1 PUSH1 0xFF SHL DUP3 EQ PUSH1 0x0 NOT DUP5 EQ AND ISZERO PUSH2 0x4E50 JUMPI PUSH2 0x4E50 PUSH2 0x4AD0 JUMP JUMPDEST POP SDIV SWAP1 JUMP JUMPDEST PUSH1 0x0 DUP1 DUP3 SLT DUP3 PUSH1 0x1 PUSH1 0x1 PUSH1 0xFF SHL SUB SUB DUP5 SGT DUP2 ISZERO AND ISZERO PUSH2 0x4E76 JUMPI PUSH2 0x4E76 PUSH2 0x4AD0 JUMP JUMPDEST PUSH1 0x1 PUSH1 0xFF SHL DUP4 SWAP1 SUB DUP5 SLT DUP2 AND ISZERO PUSH2 0x4E8F JUMPI PUSH2 0x4E8F PUSH2 0x4AD0 JUMP JUMPDEST POP POP ADD SWAP1 JUMP JUMPDEST PUSH1 0x0 DUP2 PUSH1 0x0 NOT DIV DUP4 GT DUP3 ISZERO ISZERO AND ISZERO PUSH2 0x4EAF JUMPI PUSH2 0x4EAF PUSH2 0x4AD0 JUMP JUMPDEST POP MUL SWAP1 JUMP JUMPDEST PUSH1 0x0 DUP3 PUSH2 0x4EC3 JUMPI PUSH2 0x4EC3 PUSH2 0x4E11 JUMP JUMPDEST POP DIV SWAP1 JUMP JUMPDEST PUSH2 0x120 DUP2 ADD PUSH2 0x4F22 DUP3 DUP6 DUP1 MLOAD DUP3 MSTORE PUSH1 0x20 DUP2 ADD MLOAD PUSH1 0x20 DUP4 ADD MSTORE PUSH1 0x40 DUP2 ADD MLOAD PUSH1 0x40 DUP4 ADD MSTORE PUSH1 0x60 DUP2 ADD MLOAD PUSH1 0x60 DUP4 ADD MSTORE PUSH1 0x80 DUP2 ADD MLOAD PUSH1 0x80 DUP4 ADD MSTORE PUSH1 0xA0 DUP2 ADD MLOAD PUSH1 0xA0 DUP4 ADD MSTORE PUSH1 0xC0 DUP2 ADD MLOAD PUSH1 0xC0 DUP4 ADD MSTORE PUSH1 0xE0 DUP2 ADD MLOAD ISZERO ISZERO PUSH1 0xE0 DUP4 ADD MSTORE POP POP JUMP JUMPDEST DUP3 PUSH2 0x100 DUP4 ADD MSTORE SWAP4 SWAP3 POP POP POP JUMP JUMPDEST PUSH1 0x0 PUSH1 0x1 PUSH1 0xFF SHL DUP3 EQ ISZERO PUSH2 0x4F46 JUMPI PUSH2 0x4F46 PUSH2 0x4AD0 JUMP JUMPDEST POP PUSH1 0x0 SUB SWAP1 JUMP JUMPDEST PUSH1 0x0 DUP1 PUSH1 0x40 DUP4 DUP6 SUB SLT ISZERO PUSH2 0x4F60 JUMPI PUSH1 0x0 DUP1 REVERT JUMPDEST POP POP DUP1 MLOAD PUSH1 0x20 SWAP1 SWAP2 ADD MLOAD SWAP1 SWAP3 SWAP1 SWAP2 POP JUMP INVALID LOG2 PUSH5 0x6970667358 0x22 SLT KECCAK256 XOR PUSH1 0x92 DELEGATECALL 0xA8 DUP5 SHL SWAP9 0x5F PUSH2 0x4EBD 0xB7 SELFDESTRUCT 0xF9 0xE EQ DUP5 0x2F SWAP13 0xC6 0xAB MUL SELFBALANCE CHAINID 0xC9 0xB7 0xBA LOG4 0xB6 LOG0 AND PUSH5 0x736F6C6343 STOP ADDMOD EXP STOP CALLER ",
  "sha1": "d0fed865d3455de39890a5fb2739ed548bc4bca0",
  "source": "// SPDX-License-Identifier: MIT\npragma solidity 0.8.10;\n\nimport \"./interfaces/IOverlayV1State.sol\";\n\nimport \"./state/OverlayV1BaseState.sol\";\nimport \"./state/OverlayV1EstimateState.sol\";\nimport \"./state/OverlayV1OIState.sol\";\nimport \"./state/OverlayV1PositionState.sol\";\nimport \"./state/OverlayV1PriceState.sol\";\n\n/// @title A market state contract to view the current state of\n/// @title an Overlay market\ncontract OverlayV1State is\n    IOverlayV1State,\n    OverlayV1BaseState,\n    OverlayV1PriceState,\n    OverlayV1OIState,\n    OverlayV1EstimateState,\n    OverlayV1PositionState\n{\n    constructor(IOverlayV1Factory _factory) OverlayV1BaseState(_factory) {}\n\n    /// @notice Gets relevant market info to aggregate calls into a\n    /// @notice single function\n    /// @dev WARNING: makes many calls to market\n    /// @return state_ as the current aggregate market state\n    function marketState(IOverlayV1Market market)\n        external\n        view\n        returns (MarketState memory state_)\n    {\n        address feed = market.feed();\n        Oracle.Data memory data = _getOracleData(feed);\n\n        (uint256 oiLong, uint256 oiShort) = _ois(market);\n        state_ = MarketState({\n            bid: _bid(market, data, 0),\n            ask: _ask(market, data, 0),\n            mid: _mid(data),\n            volumeBid: _volumeBid(market, data, 0),\n            volumeAsk: _volumeAsk(market, data, 0),\n            oiLong: oiLong,\n            oiShort: oiShort,\n            capOi: _capOi(market, data),\n            circuitBreakerLevel: _circuitBreakerLevel(market),\n            fundingRate: _fundingRate(market)\n        });\n    }\n}\n",
  "sourcePath": "contracts/OverlayV1State.sol",
  "type": "contract"
}