{
  "abi": [
    {
      "inputs": [
        {
          "internalType": "contract IOverlayV1Factory",
          "name": "_factory",
          "type": "address"
        }
      ],
      "stateMutability": "nonpayable",
      "type": "constructor"
    },
    {
      "inputs": [
        {
          "internalType": "address",
          "name": "feed",
          "type": "address"
        },
        {
          "internalType": "uint256",
          "name": "fractionOfCapOi",
          "type": "uint256"
        }
      ],
      "name": "ask",
      "outputs": [
        {
          "internalType": "uint256",
          "name": "ask_",
          "type": "uint256"
        }
      ],
      "stateMutability": "view",
      "type": "function"
    },
    {
      "inputs": [
        {
          "internalType": "address",
          "name": "feed",
          "type": "address"
        },
        {
          "internalType": "uint256",
          "name": "fractionOfCapOi",
          "type": "uint256"
        }
      ],
      "name": "bid",
      "outputs": [
        {
          "internalType": "uint256",
          "name": "bid_",
          "type": "uint256"
        }
      ],
      "stateMutability": "view",
      "type": "function"
    },
    {
      "inputs": [
        {
          "internalType": "address",
          "name": "feed",
          "type": "address"
        }
      ],
      "name": "capOi",
      "outputs": [
        {
          "internalType": "uint256",
          "name": "capOi_",
          "type": "uint256"
        }
      ],
      "stateMutability": "view",
      "type": "function"
    },
    {
      "inputs": [
        {
          "internalType": "address",
          "name": "feed",
          "type": "address"
        }
      ],
      "name": "circuitBreakerLevel",
      "outputs": [
        {
          "internalType": "uint256",
          "name": "circuitBreakerLevel_",
          "type": "uint256"
        }
      ],
      "stateMutability": "view",
      "type": "function"
    },
    {
      "inputs": [
        {
          "internalType": "address",
          "name": "feed",
          "type": "address"
        },
        {
          "internalType": "address",
          "name": "owner",
          "type": "address"
        },
        {
          "internalType": "uint256",
          "name": "id",
          "type": "uint256"
        }
      ],
      "name": "collateral",
      "outputs": [
        {
          "internalType": "uint256",
          "name": "collateral_",
          "type": "uint256"
        }
      ],
      "stateMutability": "view",
      "type": "function"
    },
    {
      "inputs": [
        {
          "internalType": "address",
          "name": "feed",
          "type": "address"
        },
        {
          "internalType": "address",
          "name": "owner",
          "type": "address"
        },
        {
          "internalType": "uint256",
          "name": "id",
          "type": "uint256"
        }
      ],
      "name": "cost",
      "outputs": [
        {
          "internalType": "uint256",
          "name": "cost_",
          "type": "uint256"
        }
      ],
      "stateMutability": "view",
      "type": "function"
    },
    {
      "inputs": [
        {
          "internalType": "address",
          "name": "feed",
          "type": "address"
        }
      ],
      "name": "data",
      "outputs": [
        {
          "components": [
            {
              "internalType": "uint256",
              "name": "timestamp",
              "type": "uint256"
            },
            {
              "internalType": "uint256",
              "name": "microWindow",
              "type": "uint256"
            },
            {
              "internalType": "uint256",
              "name": "macroWindow",
              "type": "uint256"
            },
            {
              "internalType": "uint256",
              "name": "priceOverMicroWindow",
              "type": "uint256"
            },
            {
              "internalType": "uint256",
              "name": "priceOverMacroWindow",
              "type": "uint256"
            },
            {
              "internalType": "uint256",
              "name": "priceOneMacroWindowAgo",
              "type": "uint256"
            },
            {
              "internalType": "uint256",
              "name": "reserveOverMicroWindow",
              "type": "uint256"
            },
            {
              "internalType": "bool",
              "name": "hasReserve",
              "type": "bool"
            }
          ],
          "internalType": "struct Oracle.Data",
          "name": "data_",
          "type": "tuple"
        }
      ],
      "stateMutability": "view",
      "type": "function"
    },
    {
      "inputs": [
        {
          "internalType": "address",
          "name": "feed",
          "type": "address"
        },
        {
          "internalType": "address",
          "name": "owner",
          "type": "address"
        },
        {
          "internalType": "uint256",
          "name": "id",
          "type": "uint256"
        }
      ],
      "name": "debt",
      "outputs": [
        {
          "internalType": "uint256",
          "name": "debt_",
          "type": "uint256"
        }
      ],
      "stateMutability": "view",
      "type": "function"
    },
    {
      "inputs": [],
      "name": "factory",
      "outputs": [
        {
          "internalType": "contract IOverlayV1Factory",
          "name": "",
          "type": "address"
        }
      ],
      "stateMutability": "view",
      "type": "function"
    },
    {
      "inputs": [
        {
          "internalType": "address",
          "name": "feed",
          "type": "address"
        },
        {
          "internalType": "uint256",
          "name": "oi",
          "type": "uint256"
        }
      ],
      "name": "fractionOfCapOi",
      "outputs": [
        {
          "internalType": "uint256",
          "name": "fractionOfCapOi_",
          "type": "uint256"
        }
      ],
      "stateMutability": "view",
      "type": "function"
    },
    {
      "inputs": [
        {
          "internalType": "address",
          "name": "feed",
          "type": "address"
        }
      ],
      "name": "fundingRate",
      "outputs": [
        {
          "internalType": "int256",
          "name": "fundingRate_",
          "type": "int256"
        }
      ],
      "stateMutability": "view",
      "type": "function"
    },
    {
      "inputs": [
        {
          "internalType": "address",
          "name": "feed",
          "type": "address"
        },
        {
          "internalType": "address",
          "name": "owner",
          "type": "address"
        },
        {
          "internalType": "uint256",
          "name": "id",
          "type": "uint256"
        }
      ],
      "name": "liquidatable",
      "outputs": [
        {
          "internalType": "bool",
          "name": "liquidatable_",
          "type": "bool"
        }
      ],
      "stateMutability": "view",
      "type": "function"
    },
    {
      "inputs": [
        {
          "internalType": "address",
          "name": "feed",
          "type": "address"
        },
        {
          "internalType": "address",
          "name": "owner",
          "type": "address"
        },
        {
          "internalType": "uint256",
          "name": "id",
          "type": "uint256"
        }
      ],
      "name": "liquidationFee",
      "outputs": [
        {
          "internalType": "uint256",
          "name": "liquidationFee_",
          "type": "uint256"
        }
      ],
      "stateMutability": "view",
      "type": "function"
    },
    {
      "inputs": [
        {
          "internalType": "address",
          "name": "feed",
          "type": "address"
        },
        {
          "internalType": "address",
          "name": "owner",
          "type": "address"
        },
        {
          "internalType": "uint256",
          "name": "id",
          "type": "uint256"
        }
      ],
      "name": "liquidationPrice",
      "outputs": [
        {
          "internalType": "uint256",
          "name": "liquidationPrice_",
          "type": "uint256"
        }
      ],
      "stateMutability": "view",
      "type": "function"
    },
    {
      "inputs": [
        {
          "internalType": "address",
          "name": "feed",
          "type": "address"
        },
        {
          "internalType": "address",
          "name": "owner",
          "type": "address"
        },
        {
          "internalType": "uint256",
          "name": "id",
          "type": "uint256"
        }
      ],
      "name": "maintenanceMargin",
      "outputs": [
        {
          "internalType": "uint256",
          "name": "maintenanceMargin_",
          "type": "uint256"
        }
      ],
      "stateMutability": "view",
      "type": "function"
    },
    {
      "inputs": [
        {
          "internalType": "address",
          "name": "feed",
          "type": "address"
        },
        {
          "internalType": "address",
          "name": "owner",
          "type": "address"
        },
        {
          "internalType": "uint256",
          "name": "id",
          "type": "uint256"
        }
      ],
      "name": "marginExcessBeforeLiquidation",
      "outputs": [
        {
          "internalType": "int256",
          "name": "excess_",
          "type": "int256"
        }
      ],
      "stateMutability": "view",
      "type": "function"
    },
    {
      "inputs": [
        {
          "internalType": "address",
          "name": "feed",
          "type": "address"
        }
      ],
      "name": "market",
      "outputs": [
        {
          "internalType": "contract IOverlayV1Market",
          "name": "market_",
          "type": "address"
        }
      ],
      "stateMutability": "view",
      "type": "function"
    },
    {
      "inputs": [
        {
          "internalType": "address",
          "name": "feed",
          "type": "address"
        }
      ],
      "name": "mid",
      "outputs": [
        {
          "internalType": "uint256",
          "name": "mid_",
          "type": "uint256"
        }
      ],
      "stateMutability": "view",
      "type": "function"
    },
    {
      "inputs": [
        {
          "internalType": "address",
          "name": "feed",
          "type": "address"
        }
      ],
      "name": "minted",
      "outputs": [
        {
          "internalType": "int256",
          "name": "minted_",
          "type": "int256"
        }
      ],
      "stateMutability": "view",
      "type": "function"
    },
    {
      "inputs": [
        {
          "internalType": "address",
          "name": "feed",
          "type": "address"
        },
        {
          "internalType": "address",
          "name": "owner",
          "type": "address"
        },
        {
          "internalType": "uint256",
          "name": "id",
          "type": "uint256"
        }
      ],
      "name": "notional",
      "outputs": [
        {
          "internalType": "uint256",
          "name": "notional_",
          "type": "uint256"
        }
      ],
      "stateMutability": "view",
      "type": "function"
    },
    {
      "inputs": [
        {
          "internalType": "address",
          "name": "feed",
          "type": "address"
        },
        {
          "internalType": "address",
          "name": "owner",
          "type": "address"
        },
        {
          "internalType": "uint256",
          "name": "id",
          "type": "uint256"
        }
      ],
      "name": "oi",
      "outputs": [
        {
          "internalType": "uint256",
          "name": "oi_",
          "type": "uint256"
        }
      ],
      "stateMutability": "view",
      "type": "function"
    },
    {
      "inputs": [
        {
          "internalType": "address",
          "name": "feed",
          "type": "address"
        }
      ],
      "name": "ois",
      "outputs": [
        {
          "internalType": "uint256",
          "name": "oiLong_",
          "type": "uint256"
        },
        {
          "internalType": "uint256",
          "name": "oiShort_",
          "type": "uint256"
        }
      ],
      "stateMutability": "view",
      "type": "function"
    },
    {
      "inputs": [
        {
          "internalType": "address",
          "name": "feed",
          "type": "address"
        },
        {
          "internalType": "address",
          "name": "owner",
          "type": "address"
        },
        {
          "internalType": "uint256",
          "name": "id",
          "type": "uint256"
        }
      ],
      "name": "position",
      "outputs": [
        {
          "components": [
            {
              "internalType": "uint96",
              "name": "notional",
              "type": "uint96"
            },
            {
              "internalType": "uint96",
              "name": "debt",
              "type": "uint96"
            },
            {
              "internalType": "uint48",
              "name": "entryToMidRatio",
              "type": "uint48"
            },
            {
              "internalType": "bool",
              "name": "isLong",
              "type": "bool"
            },
            {
              "internalType": "bool",
              "name": "liquidated",
              "type": "bool"
            },
            {
              "internalType": "uint256",
              "name": "oiShares",
              "type": "uint256"
            }
          ],
          "internalType": "struct Position.Info",
          "name": "position_",
          "type": "tuple"
        }
      ],
      "stateMutability": "view",
      "type": "function"
    },
    {
      "inputs": [
        {
          "internalType": "address",
          "name": "feed",
          "type": "address"
        }
      ],
      "name": "prices",
      "outputs": [
        {
          "internalType": "uint256",
          "name": "bid_",
          "type": "uint256"
        },
        {
          "internalType": "uint256",
          "name": "ask_",
          "type": "uint256"
        },
        {
          "internalType": "uint256",
          "name": "mid_",
          "type": "uint256"
        }
      ],
      "stateMutability": "view",
      "type": "function"
    },
    {
      "inputs": [
        {
          "internalType": "address",
          "name": "feed",
          "type": "address"
        },
        {
          "internalType": "address",
          "name": "owner",
          "type": "address"
        },
        {
          "internalType": "uint256",
          "name": "id",
          "type": "uint256"
        }
      ],
      "name": "tradingFee",
      "outputs": [
        {
          "internalType": "uint256",
          "name": "tradingFee_",
          "type": "uint256"
        }
      ],
      "stateMutability": "view",
      "type": "function"
    },
    {
      "inputs": [
        {
          "internalType": "address",
          "name": "feed",
          "type": "address"
        },
        {
          "internalType": "address",
          "name": "owner",
          "type": "address"
        },
        {
          "internalType": "uint256",
          "name": "id",
          "type": "uint256"
        }
      ],
      "name": "value",
      "outputs": [
        {
          "internalType": "uint256",
          "name": "value_",
          "type": "uint256"
        }
      ],
      "stateMutability": "view",
      "type": "function"
    },
    {
      "inputs": [
        {
          "internalType": "address",
          "name": "feed",
          "type": "address"
        },
        {
          "internalType": "uint256",
          "name": "fractionOfCapOi",
          "type": "uint256"
        }
      ],
      "name": "volumeAsk",
      "outputs": [
        {
          "internalType": "uint256",
          "name": "volumeAsk_",
          "type": "uint256"
        }
      ],
      "stateMutability": "view",
      "type": "function"
    },
    {
      "inputs": [
        {
          "internalType": "address",
          "name": "feed",
          "type": "address"
        },
        {
          "internalType": "uint256",
          "name": "fractionOfCapOi",
          "type": "uint256"
        }
      ],
      "name": "volumeBid",
      "outputs": [
        {
          "internalType": "uint256",
          "name": "volumeBid_",
          "type": "uint256"
        }
      ],
      "stateMutability": "view",
      "type": "function"
    },
    {
      "inputs": [
        {
          "internalType": "address",
          "name": "feed",
          "type": "address"
        }
      ],
      "name": "volumes",
      "outputs": [
        {
          "internalType": "uint256",
          "name": "volumeBid_",
          "type": "uint256"
        },
        {
          "internalType": "uint256",
          "name": "volumeAsk_",
          "type": "uint256"
        }
      ],
      "stateMutability": "view",
      "type": "function"
    }
  ],
  "bytecode": "60a06040523480156200001157600080fd5b5060405162002e3238038062002e32833981016040819052620000349162000046565b6001600160a01b031660805262000078565b6000602082840312156200005957600080fd5b81516001600160a01b03811681146200007157600080fd5b9392505050565b608051612d976200009b600039600081816103fe0152610ee00152612d976000f3fe608060405234801561001057600080fd5b50600436106101cf5760003560e01c8063727e8a1b11610104578063b1ec4c40116100a2578063cfed246b11610071578063cfed246b14610420578063d16f3bbf1461044e578063e8ef90b214610461578063f5d2b334146104de57600080fd5b8063b1ec4c40146103b3578063b90d3d0c146103c6578063c18f32f6146103e6578063c45a0155146103f957600080fd5b80638e968fe5116100de5780638e968fe51461034f57806393b0fe49146103625780639f382f6a14610375578063a92c5165146103a057600080fd5b8063727e8a1b14610316578063730c4aff1461032957806381ec8b9e1461033c57600080fd5b80634c5cf6581161017157806359d667a51161014b57806359d667a5146102b55780635bbc8be2146102c85780635cfdcc0d146102db578063617f37bd146102ee57600080fd5b80634c5cf6581461027c5780634ea663161461028f57806353f16f67146102a257600080fd5b80631e7269c5116101ad5780631e7269c51461023057806342d0c4431461024357806343ca411a1461025657806348d5dbcc1461026957600080fd5b80630afb11e3146101d45780631776f7e9146101fc5780631c136a001461021d575b600080fd5b6101e76101e23660046128c6565b6104f1565b60405190151581526020015b60405180910390f35b61020f61020a3660046128c6565b610531565b6040519081526020016101f3565b61020f61022b3660046128c6565b610561565b61020f61023e366004612907565b6105da565b61020f6102513660046128c6565b610714565b61020f610264366004612924565b6107c6565b61020f610277366004612924565b6107f5565b61020f61028a3660046128c6565b61081b565b61020f61029d366004612924565b610850565b61020f6102b03660046128c6565b610876565b61020f6102c3366004612924565b6108aa565b61020f6102d63660046128c6565b6108d0565b61020f6102e9366004612907565b6108f6565b6103016102fc366004612907565b610a2b565b604080519283526020830191909152016101f3565b61020f610324366004612907565b610a4f565b61020f6103373660046128c6565b610a6d565b61020f61034a366004612907565b610a94565b61020f61035d366004612907565b610b13565b61020f6103703660046128c6565b610b40565b610388610383366004612907565b610b75565b6040516001600160a01b0390911681526020016101f3565b61020f6103ae3660046128c6565b610b86565b6103016103c1366004612907565b610bad565b6103d96103d4366004612907565b610bed565b6040516101f39190612950565b61020f6103f43660046128c6565b610c40565b6103887f000000000000000000000000000000000000000000000000000000000000000081565b61043361042e366004612907565b610c75565b604080519384526020840192909252908201526060016101f3565b61020f61045c366004612924565b610cc2565b61047461046f3660046128c6565b610ce8565b6040516101f39190600060c0820190506bffffffffffffffffffffffff8084511683528060208501511660208401525065ffffffffffff604084015116604083015260608301511515606083015260808301511515608083015260a083015160a083015292915050565b61020f6104ec3660046128c6565b610d30565b6000806104fd85610ebc565b9050600061050a86610fa3565b90506000610519838787611050565b9050610526838383611194565b979650505050505050565b60008061053d85610ebc565b9050600061054c828686611050565b9050610557816113ff565b9695505050505050565b60008061056d85610ebc565b9050600061057a86610fa3565b90506000610589838787611050565b90506000610598848484611414565b905060006105a685846115b3565b905060006105b5868686611643565b9050806105c283856129c0565b6105cc91906129c0565b9a9950505050505050505050565b6000806105e683610ebc565b90506000806000836001600160a01b0316635b6df29a6040518163ffffffff1660e01b8152600401606060405180830381865afa15801561062b573d6000803e3d6000fd5b505050506040513d601f19601f8201168201806040525081019061064f9190612a18565b6040805160608101825263ffffffff858116825284166020820152601783900b81830152905163274bc14f60e21b8152600660048201529396509194509250906000906001600160a01b03871690639d2f053c90602401602060405180830381865afa1580156106c3573d6000803e3d6000fd5b505050506040513d601f19601f820116820180604052508101906106e79190612a65565b905060006106f7834284846116e8565b9250610707836040015160170b90565b9998505050505050505050565b60008061072085610ebc565b9050600061072d86610fa3565b9050600061073c838787611050565b9050600061074b848484611920565b60405163274bc14f60e21b8152600b60048201529091506000906001600160a01b03861690639d2f053c90602401602060405180830381865afa158015610796573d6000803e3d6000fd5b505050506040513d601f19601f820116820180604052508101906107ba9190612a65565b90506107078282611aee565b6000806107d284610ebc565b905060006107df85610fa3565b90506107ec828286611b35565b95945050505050565b60008061080184610ebc565b9050600061080e85610fa3565b90506107ec828286611b5e565b60008061082785610ebc565b9050600061083486610fa3565b90506000610843838787611050565b9050610526838383611c2a565b60008061085c84610ebc565b9050600061086985610fa3565b90506107ec828286611d6f565b60008061088285610ebc565b9050600061088f86610fa3565b9050600061089e838787611050565b905061052683826115b3565b6000806108b684610ebc565b905060006108c385610fa3565b90506107ec828286611db3565b6000806108dc85610ebc565b905060006108eb828686611050565b905061055781611e33565b60008061090283610ebc565b905060008061091083611e48565b90925090508082116000816109255782610927565b835b90506000826109365784610938565b835b905060006109468284612a7e565b905060006109548385612a96565b9050811580610961575080155b15610976575060009998505050505050505050565b60405163274bc14f60e21b8152600060048201819052906001600160a01b038a1690639d2f053c90602401602060405180830381865afa1580156109be573d6000803e3d6000fd5b505050506040513d601f19601f820116820180604052508101906109e29190612a65565b90506000610a046109f4836002612aad565b6109fe8587612052565b90612081565b905086610a1957610a1481612acc565b610a1b565b805b9c9b505050505050505050505050565b6000806000610a3984610ebc565b9050610a4481611e48565b909590945092505050565b600080610a5b83610fa3565b9050610a66816120a2565b9392505050565b600080610a7985610ebc565b90506000610a88828686611050565b905061055782826120b6565b600080610aa083610ebc565b6040516383ba191760e01b8152670de0b6b3a764000060048201529091506001600160a01b038216906383ba191790602401602060405180830381865afa158015610aef573d6000803e3d6000fd5b505050506040513d601f19601f82011682018060405250810190610a669190612a65565b600080610b1f83610ebc565b90506000610b2c84610fa3565b9050610b3882826121d3565b949350505050565b600080610b4c85610ebc565b90506000610b5986610fa3565b90506000610b68838787611050565b9050610526838383611643565b6000610b8082610ebc565b92915050565b600080610b9285610ebc565b90506000610ba1828686611050565b905061055782826122be565b6000806000610bbb84610ebc565b90506000610bc885610fa3565b9050610bd682826000611b5e565b9350610be482826000611d6f565b92505050915091565b610c37604051806101000160405280600081526020016000815260200160008152602001600081526020016000815260200160008152602001600081526020016000151581525090565b610b8082610fa3565b600080610c4c85610ebc565b90506000610c5986610fa3565b90506000610c68838787611050565b9050610526838383611920565b600080600080610c8485610ebc565b90506000610c9186610fa3565b9050610c9f82826000611db3565b9450610cad82826000612415565b9350610cb8816120a2565b9496939550505050565b600080610cce84610ebc565b90506000610cdb85610fa3565b90506107ec828286612415565b6040805160c081018252600080825260208201819052918101829052606081018290526080810182905260a0810182905290610d2385610ebc565b90506107ec818585611050565b600080610d3c85610ebc565b90506000610d4986610fa3565b90506000610d58838787611050565b90506000610d6582612454565b60405163274bc14f60e21b8152600a60048201529091506000906001600160a01b03861690639d2f053c90602401602060405180830381865afa158015610db0573d6000803e3d6000fd5b505050506040513d601f19601f82011682018060405250810190610dd49190612a65565b90506000610de286856115b3565b90506000610df087866120b6565b90506000610dfe88876122be565b905060008211610e555760405162461bcd60e51b815260206004820152600e60248201527f4f564c56313a206f69203d3d203000000000000000000000000000000000000060448201526064015b60405180910390fd5b6000610e8783610e81610e7a610e7389670de0b6b3a7640000612a96565b88906124a9565b85906124da565b906124a9565b90508660600151610ea157610e9c8187612a7e565b610eab565b610eab86826124da565b9d9c50505050505050505050505050565b60405163d4dfadbf60e01b81526001600160a01b03828116600483015260009182917f0000000000000000000000000000000000000000000000000000000000000000169063d4dfadbf90602401602060405180830381865afa158015610f27573d6000803e3d6000fd5b505050506040513d601f19601f82011682018060405250810190610f4b9190612ae9565b90506001600160a01b038116610b805760405162461bcd60e51b815260206004820152600d60248201527f4f564c56313a216d61726b6574000000000000000000000000000000000000006044820152606401610e4c565b610fed604051806101000160405280600081526020016000815260200160008152602001600081526020016000815260200160008152602001600081526020016000151581525090565b816001600160a01b03166352bfe7896040518163ffffffff1660e01b815260040161010060405180830381865afa15801561102c573d6000803e3d6000fd5b505050506040513d601f19601f82011682018060405250810190610b809190612b16565b6040805160c081018252600080825260208201819052918101829052606081018290526080810182905260a08101919091526040516bffffffffffffffffffffffff19606085901b166020820152603481018390526000906054016040516020818303038152906040528051906020012090506000806000806000808a6001600160a01b031663514ea4bf886040518263ffffffff1660e01b81526004016110fa91815260200190565b60c060405180830381865afa158015611117573d6000803e3d6000fd5b505050506040513d601f19601f8201168201806040525081019061113b9190612bd4565b6040805160c0810182526bffffffffffffffffffffffff978816815296909516602087015265ffffffffffff9093169385019390935215156060840152901515608083015260a08201529b9a5050505050505050505050565b60008060006111a286611e48565b91509150600084606001516111b757816111b9565b825b90506000856060015161122d57876001600160a01b031663f333fe136040518163ffffffff1660e01b8152600401602060405180830381865afa158015611204573d6000803e3d6000fd5b505050506040513d601f19601f820116820180604052508101906112289190612a65565b61128f565b876001600160a01b0316632acb38106040518163ffffffff1660e01b8152600401602060405180830381865afa15801561126b573d6000803e3d6000fd5b505050506040513d601f19601f8201168201806040525081019061128f9190612a65565b9050600061129c886120a2565b60405163274bc14f60e21b8152600a60048201529091506000906001600160a01b038b1690639d2f053c90602401602060405180830381865afa1580156112e7573d6000803e3d6000fd5b505050506040513d601f19601f8201168201806040525081019061130b9190612a65565b90506105cc8484846001600160a01b038e16639d2f053c60036040518263ffffffff1660e01b815260040161134291815260200190565b602060405180830381865afa15801561135f573d6000803e3d6000fd5b505050506040513d601f19601f820116820180604052508101906113839190612a65565b6001600160a01b038f16639d2f053c60086040518263ffffffff1660e01b81526004016113b291815260200190565b602060405180830381865afa1580156113cf573d6000803e3d6000fd5b505050506040513d601f19601f820116820180604052508101906113f39190612a65565b8d9493929190876124f5565b6000670de0b6b3a7640000610a668382612576565b6000670de0b6b3a7640000818061142a87611e48565b915091506000856060015161143f5781611441565b825b9050600086606001516114b557886001600160a01b031663f333fe136040518163ffffffff1660e01b8152600401602060405180830381865afa15801561148c573d6000803e3d6000fd5b505050506040513d601f19601f820116820180604052508101906114b09190612a65565b611517565b886001600160a01b0316632acb38106040518163ffffffff1660e01b8152600401602060405180830381865afa1580156114f3573d6000803e3d6000fd5b505050506040513d601f19601f820116820180604052508101906115179190612a65565b905060006115278887858561259b565b905060006115348a6120a2565b60405163274bc14f60e21b8152600360048201529091506000906001600160a01b038d1690639d2f053c90602401602060405180830381865afa15801561157f573d6000803e3d6000fd5b505050506040513d601f19601f820116820180604052508101906115a39190612a65565b9050610a1b8a89878786866125d2565b60405163274bc14f60e21b81526008600482015260009081906001600160a01b03851690639d2f053c90602401602060405180830381865afa1580156115fd573d6000803e3d6000fd5b505050506040513d601f19601f820116820180604052508101906116219190612a65565b9050600061163784670de0b6b3a76400006126d7565b90506107ec8183611aee565b600080611651858585611194565b905080156116e05760405163274bc14f60e21b8152600a60048201526000906001600160a01b03871690639d2f053c90602401602060405180830381865afa1580156116a1573d6000803e3d6000fd5b505050506040513d601f19601f820116820180604052508101906116c59190612a65565b905060006116d4878787611414565b90506105268183612081565b509392505050565b6040805160608101825260008082526020820181905291810182905285519091859163ffffffff908116908316101561174657865163ffffffff90811690611737908416640100000000612a7e565b6117419190612a96565b611759565b86516117529083612c4e565b63ffffffff165b602088015190915063ffffffff166000611777896040015160170b90565b90508183101580611786575081155b156117d05760405180606001604052808563ffffffff1681526020016117ab896126f3565b63ffffffff1681526020016117bf88612713565b60170b815250945050505050610b38565b60006117dc8484612052565b905060006117e983612785565b905060008084121561180d576117ff8383612081565b61180890612acc565b611817565b6118178383612081565b905061182381856129c0565b935060006118318a86612c73565b9050806118785760405180606001604052808963ffffffff1681526020016118588d6126f3565b63ffffffff16815260006020909101529850610b38975050505050505050565b600061188386612785565b905060006118908c612785565b9050600061189e8284612a7e565b6118a88f84612aad565b6118b28c8c612a96565b6118bc9086612aad565b6118c69190612a7e565b6118d09190612cb3565b905060405180606001604052808c63ffffffff1681526020016118f2836126f3565b63ffffffff16815260200161190686612713565b60170b90529b505050505050505050505050949350505050565b6000670de0b6b3a7640000818061193687611e48565b915091506000856060015161194b578161194d565b825b9050600086606001516119c157886001600160a01b031663f333fe136040518163ffffffff1660e01b8152600401602060405180830381865afa158015611998573d6000803e3d6000fd5b505050506040513d601f19601f820116820180604052508101906119bc9190612a65565b611a23565b886001600160a01b0316632acb38106040518163ffffffff1660e01b8152600401602060405180830381865afa1580156119ff573d6000803e3d6000fd5b505050506040513d601f19601f82011682018060405250810190611a239190612a65565b90506000611a338887858561259b565b905060008860600151611a5a57611a558b8b611a508e8e87611b35565b612415565b611a6f565b611a6f8b8b611a6a8e8e87611b35565b611db3565b60405163274bc14f60e21b8152600360048201529091506000906001600160a01b038d1690639d2f053c90602401602060405180830381865afa158015611aba573d6000803e3d6000fd5b505050506040513d601f19601f82011682018060405250810190611ade9190612a65565b9050610a1b8a898787868661279c565b600080611afb8385612aad565b905080611b0c576000915050610b80565b670de0b6b3a7640000611b20600183612a96565b611b2a9190612cb3565b610b38906001612a7e565b600080611b4285856121d3565b905080611b5457600019915050610a66565b6107ec8382612052565b600080600080866001600160a01b031663b445e2e76040518163ffffffff1660e01b8152600401606060405180830381865afa158015611ba2573d6000803e3d6000fd5b505050506040513d601f19601f82011682018060405250810190611bc69190612a18565b925092509250600060405180606001604052808563ffffffff1681526020018463ffffffff1681526020018360170b81525090506000869050611c1a42896020015183856116e8909392919063ffffffff16565b9150610707826040015160170b90565b6000670de0b6b3a76400008180611c4087611e48565b9150915060008560600151611c555781611c57565b825b905060008660600151611ccb57886001600160a01b031663f333fe136040518163ffffffff1660e01b8152600401602060405180830381865afa158015611ca2573d6000803e3d6000fd5b505050506040513d601f19601f82011682018060405250810190611cc69190612a65565b611d2d565b886001600160a01b0316632acb38106040518163ffffffff1660e01b8152600401602060405180830381865afa158015611d09573d6000803e3d6000fd5b505050506040513d601f19601f82011682018060405250810190611d2d9190612a65565b90506000611d3d8887858561259b565b905060008860600151611d5f57611d5a8b8b611a508e8e87611b35565b611534565b6115348b8b611a6a8e8e87611b35565b600080600080866001600160a01b031663d565cc336040518163ffffffff1660e01b8152600401606060405180830381865afa158015611ba2573d6000803e3d6000fd5b600080611dc1858585611b5e565b604051638607f5c360e01b81529091506001600160a01b03861690638607f5c390611df29087908590600401612cd5565b602060405180830381865afa158015611e0f573d6000803e3d6000fd5b505050506040513d601f19601f820116820180604052508101906107ec9190612a65565b6000670de0b6b3a7640000610a6683826127c7565b600080826001600160a01b0316635dedde6d6040518163ffffffff1660e01b8152600401602060405180830381865afa158015611e89573d6000803e3d6000fd5b505050506040513d601f19601f82011682018060405250810190611ead9190612a65565b9150826001600160a01b031663091630146040518163ffffffff1660e01b8152600401602060405180830381865afa158015611eed573d6000803e3d6000fd5b505050506040513d601f19601f82011682018060405250810190611f119190612a65565b90506000836001600160a01b031663c6838e8b6040518163ffffffff1660e01b8152600401602060405180830381865afa158015611f53573d6000803e3d6000fd5b505050506040513d601f19601f82011682018060405250810190611f779190612a65565b611f819042612a96565b9050801561204c57818311600081611f995783611f9b565b845b9050600082611faa5785611fac565b845b604051639f0a545960e01b81526004810184905260248101829052604481018690529091506001600160a01b03881690639f0a5459906064016040805180830381865afa158015612001573d6000803e3d6000fd5b505050506040513d601f19601f820116820180604052508101906120259190612d3d565b9092509050826120355780612037565b815b9550826120445781612046565b805b94505050505b50915091565b60008261206157506000610b80565b6000612075670de0b6b3a764000085612aad565b9050610b388382612cb3565b60008061208e8385612aad565b9050610b38670de0b6b3a764000082612cb3565b6000610b80826060015183608001516127ef565b6000670de0b6b3a764000081806120cc86611e48565b91509150600085606001516120e157816120e3565b825b90506000866060015161215757876001600160a01b031663f333fe136040518163ffffffff1660e01b8152600401602060405180830381865afa15801561212e573d6000803e3d6000fd5b505050506040513d601f19601f820116820180604052508101906121529190612a65565b6121b9565b876001600160a01b0316632acb38106040518163ffffffff1660e01b8152600401602060405180830381865afa158015612195573d6000803e3d6000fd5b505050506040513d601f19601f820116820180604052508101906121b99190612a65565b90506121c78786848461259b565b98975050505050505050565b60405163274bc14f60e21b815260048181015260009081906001600160a01b03851690639d2f053c90602401602060405180830381865afa15801561221c573d6000803e3d6000fd5b505050506040513d601f19601f820116820180604052508101906122409190612a65565b60405163ecc1619160e01b81529091506001600160a01b0385169063ecc16191906122719086908590600401612cd5565b602060405180830381865afa15801561228e573d6000803e3d6000fd5b505050506040513d601f19601f820116820180604052508101906122b29190612a65565b9050610b38838261280a565b6000670de0b6b3a7640000816122d484836126d7565b905060006122e28584612576565b905060006122f08685612872565b90506000806122fe89611e48565b91509150600088606001516123135781612315565b825b905060008960600151612389578a6001600160a01b031663f333fe136040518163ffffffff1660e01b8152600401602060405180830381865afa158015612360573d6000803e3d6000fd5b505050506040513d601f19601f820116820180604052508101906123849190612a65565b6123eb565b8a6001600160a01b0316632acb38106040518163ffffffff1660e01b8152600401602060405180830381865afa1580156123c7573d6000803e3d6000fd5b505050506040513d601f19601f820116820180604052508101906123eb9190612a65565b905060006123fb8b8a858561259b565b9050610a1b8761240f88610e818c86611aee565b906124da565b600080612423858585611d6f565b60405163176d4ae160e11b81529091506001600160a01b03861690632eda95c290611df29087908590600401612cd5565b60008061246083612883565b9050600061246f8460a0015190565b9050600061248985516bffffffffffffffffffffffff1690565b90508161249b57506000949350505050565b6107ec82610e818584611aee565b6000826124b857506000610b80565b60006124cc670de0b6b3a764000085612aad565b905082611b20600183612a96565b6000808284116124eb576000610b38565b610b388385612a96565b6000670de0b6b3a76400008161250b8a836126d7565b905089608001518061251b575080155b1561252b57600092505050610526565b600061253b8b848c8c8c8c6125d2565b905060006125498388611aee565b905060006125578388612081565b90506125638183612a7e565b9092109c9b505050505050505050505050565b6000610a668261259585602001516bffffffffffffffffffffffff1690565b90611aee565b6000806125a88686612872565b90508015806125b5575083155b156125c4576000915050610b38565b61055783610e818387611aee565b6000806125df8888612872565b905060006125ed89896126d7565b905060006125fb8a8a612576565b9050600061260b8b8b8b8b61259b565b905060006126188c612454565b90508b606001511561269457612655612631838a611aee565b6126506126468a670de0b6b3a7640000612a7e565b6125958686611aee565b61289f565b61266386610e818786611aee565b61266d9190612a7e565b955061268d61267c8383611aee565b6126869085612a7e565b87906124da565b95506126c8565b61269e8282611aee565b6126ac86610e818786611aee565b6126b69190612a7e565b95506126c561267c838a611aee565b95505b50505050509695505050505050565b6000610a668261259585516bffffffffffffffffffffffff1690565b60008063ffffffff83111561270c5763ffffffff610a66565b5090919050565b6000806001600160bf1b031983128015906127465750777fffffffffffffffffffffffffffffffffffffffffffffff8313155b61270c576001600160bf1b0319831261277757777fffffffffffffffffffffffffffffffffffffffffffffff610a66565b6001600160bf1b0319610a66565b6000808212156127985781600003610b80565b5090565b6000806127ad8888888888886125d2565b905060006127bb8989612576565b90506107078183612a7e565b6000806127d484846126d7565b905060006127e28585612576565b90508161055781836124da565b60006127fe6002848418612cb3565b610a6690848416612a7e565b600080612816846120a2565b9050600081116128685760405162461bcd60e51b815260206004820152600c60248201527f4f564c56313a6d69643d3d3000000000000000000000000000000000000000006044820152606401610e4c565b610b388382612052565b6000610a66826125958560a0015190565b6000612710826040015165ffffffffffff16610b809190612aad565b600081831061270c5781610a66565b6001600160a01b03811681146128c357600080fd5b50565b6000806000606084860312156128db57600080fd5b83356128e6816128ae565b925060208401356128f6816128ae565b929592945050506040919091013590565b60006020828403121561291957600080fd5b8135610a66816128ae565b6000806040838503121561293757600080fd5b8235612942816128ae565b946020939093013593505050565b6101008101610b808284805182526020810151602083015260408101516040830152606081015160608301526080810151608083015260a081015160a083015260c081015160c083015260e0810151151560e08301525050565b634e487b7160e01b600052601160045260246000fd5b60008083128015600160ff1b8501841216156129de576129de6129aa565b836001600160ff1b030183138116156129f9576129f96129aa565b50500390565b805163ffffffff81168114612a1357600080fd5b919050565b600080600060608486031215612a2d57600080fd5b612a36846129ff565b9250612a44602085016129ff565b915060408401518060170b8114612a5a57600080fd5b809150509250925092565b600060208284031215612a7757600080fd5b5051919050565b60008219821115612a9157612a916129aa565b500190565b600082821015612aa857612aa86129aa565b500390565b6000816000190483118215151615612ac757612ac76129aa565b500290565b6000600160ff1b821415612ae257612ae26129aa565b5060000390565b600060208284031215612afb57600080fd5b8151610a66816128ae565b80518015158114612a1357600080fd5b6000610100808385031215612b2a57600080fd5b6040519081019067ffffffffffffffff82118183101715612b5b57634e487b7160e01b600052604160045260246000fd5b81604052835181526020840151602082015260408401516040820152606084015160608201526080840151608082015260a084015160a082015260c084015160c0820152612bab60e08501612b06565b60e0820152949350505050565b80516bffffffffffffffffffffffff81168114612a1357600080fd5b60008060008060008060c08789031215612bed57600080fd5b612bf687612bb8565b9550612c0460208801612bb8565b9450604087015165ffffffffffff81168114612c1f57600080fd5b9350612c2d60608801612b06565b9250612c3b60808801612b06565b915060a087015190509295509295509295565b600063ffffffff83811690831681811015612c6b57612c6b6129aa565b039392505050565b6000808212826001600160ff1b0303841381151615612c9457612c946129aa565b600160ff1b8390038412811615612cad57612cad6129aa565b50500190565b600082612cd057634e487b7160e01b600052601260045260246000fd5b500490565b6101208101612d2f8285805182526020810151602083015260408101516040830152606081015160608301526080810151608083015260a081015160a083015260c081015160c083015260e0810151151560e08301525050565b826101008301529392505050565b60008060408385031215612d5057600080fd5b50508051602090910151909290915056fea2646970667358221220dc8b4117d57856e5138b089d50a22ae926dbd780b6fe9fc8e4fa6fba5f2f816164736f6c634300080a0033",
  "bytecodeSha1": "74d650c8cef50efb766e0c73dbe19b374473064c",
  "compiler": {
    "evm_version": "istanbul",
    "optimizer": {
      "enabled": true,
      "runs": 800
    },
    "version": "0.8.10+commit.fc410830"
  },
  "contractName": "OverlayV1State",
  "language": "Solidity",
  "natspec": {
    "kind": "dev",
    "methods": {
      "ask(address,uint256)": {
        "details": "fractionOfCapOi (i.e. oi / capOi) is FixedPoint",
        "notice": "Gets the ask price trader will receive on the Overlay marketassociated with the given feed address given fraction ofcap on open interest trade represents",
        "returns": {
          "ask_": "as the received ask price"
        }
      },
      "bid(address,uint256)": {
        "details": "fractionOfCapOi (i.e. oi / capOi) is FixedPoint",
        "notice": "Gets the bid price trader will receive on the Overlay marketassociated with the given feed address given fraction ofcap on open interest trade represents",
        "returns": {
          "bid_": "as the received bid price"
        }
      },
      "capOi(address)": {
        "notice": "Gets the current cap on open interest on the Overlay marketassociated with the given feed address accounting forfront and back-running bounds",
        "returns": {
          "capOi_": "as the current open interest cap"
        }
      },
      "circuitBreakerLevel(address)": {
        "details": "circuit breaker level is reported as fraction of capOi in FixedPoint",
        "notice": "Gets the current level of the circuit breaker for theopen interest cap on the Overlay market associated withthe given feed address",
        "returns": {
          "circuitBreakerLevel_": "as the current circuit breaker level"
        }
      },
      "collateral(address,address,uint256)": {
        "details": "N(t) = Q * (OI(t) / OI(0)) - D; where Q = notional at build,OI(t) = current open interest, OI(0) = open interest at build,D = debt at build",
        "notice": "Gets the current collateral backing the position on theOverlay market associated with the given feed addressfor the given position owner, id",
        "returns": {
          "collateral_": "as the current collateral backing the position"
        }
      },
      "cost(address,address,uint256)": {
        "notice": "Gets the current cost of the position on the Overlaymarket associated with the given feed address for the givenposition owner, id",
        "returns": {
          "cost_": "as the cost to build the position"
        }
      },
      "data(address)": {
        "notice": "Gets the oracle data from the given feed"
      },
      "debt(address,address,uint256)": {
        "notice": "Gets the current debt of the position on the Overlaymarket associated with the given feed address for the givenposition owner, id",
        "returns": {
          "debt_": "as the current debt taken on by the position"
        }
      },
      "fractionOfCapOi(address,uint256)": {
        "details": "fractionOfCapOi = oi / capOi is FixedPoint",
        "notice": "Gets the fraction of the current open interest cap thegiven oi contracts represents on the Overlay marketassociated with the given feed address",
        "returns": {
          "fractionOfCapOi_": "as fraction of open interest cap given oi is"
        }
      },
      "fundingRate(address)": {
        "details": "f = 2 * k * ( oiLong - oiShort ) / (oiLong + oiShort)such that long > short then positive",
        "notice": "Gets the current funding rate on the Overlay marketassociated with the given feed address",
        "returns": {
          "fundingRate_": "as the current funding rate"
        }
      },
      "liquidatable(address,address,uint256)": {
        "notice": "Gets whether the position is currently liquidatable on the Overlaymarket associated with the given feed address for the givenposition owner, id",
        "returns": {
          "liquidatable_": "as whether the position is liquidatable"
        }
      },
      "liquidationFee(address,address,uint256)": {
        "details": "liquidationFee_ == 0 if not liquidatable",
        "notice": "Gets the liquidation fee rewarded to the liquidator ifposition currently liquidatable on the Overlay market associatedwith the given feed address for the given position owner, id",
        "returns": {
          "liquidationFee_": "as the current liquidation fee reward"
        }
      },
      "liquidationPrice(address,address,uint256)": {
        "notice": "Gets the current liquidation price of the position on theOverlay market associated with the given feed addressfor the given position owner, id",
        "returns": {
          "liquidationPrice_": "as the current liquidation price"
        }
      },
      "maintenanceMargin(address,address,uint256)": {
        "notice": "Gets the maintenance margin required to keep the positionopen on the Overlay market associated with the given feedaddress for the given position owner, id",
        "returns": {
          "maintenanceMargin_": "as the maintenance margin"
        }
      },
      "marginExcessBeforeLiquidation(address,address,uint256)": {
        "details": "excess_ > 0: returns excess margin before liquidationexcess_ < 0, returns margin lost due to delayed liquidation",
        "notice": "Gets the current position remaining margin to eat throughbefore liquidation occurs on the Overlay marketassociated with the given feed address for the givenposition owner, id",
        "returns": {
          "excess_": "as the current value less maintenance and liq fees"
        }
      },
      "market(address)": {
        "details": "reverts if market doesn't exist",
        "notice": "Gets the Overlay market address for the given feed"
      },
      "mid(address)": {
        "notice": "Gets the mid price from feed used for liquidationson the Overlay market associated with the given feed address",
        "returns": {
          "mid_": "as the received mid price"
        }
      },
      "minted(address)": {
        "details": "minted_ > 0 means more OVL has been minted than burned recently",
        "notice": "Gets the current rolling amount minted (+) or burned (-)by the Overlay market associated with the given feed address",
        "returns": {
          "minted_": "as the current rolling amount minted"
        }
      },
      "notional(address,address,uint256)": {
        "notice": "Gets the current notional of the position on the Overlay marketassociated with the given feed address for the givenposition owner, id (accounts for PnL)",
        "returns": {
          "notional_": "as the current notional of the position"
        }
      },
      "oi(address,address,uint256)": {
        "notice": "Gets the current open interest of the position on the Overlaymarket associated with the given feed address for the givenposition owner, id",
        "returns": {
          "oi_": "as the current open interest occupied by the position"
        }
      },
      "ois(address)": {
        "notice": "Gets the current open interest values on the Overlay marketassociated with the given feed address accounting for funding",
        "returns": {
          "oiLong_": "as the current open interest long",
          "oiShort_": "as the current open interest short"
        }
      },
      "position(address,address,uint256)": {
        "notice": "Gets the position from the Overlay market associated withthe given feed for the given position owner and position id"
      },
      "prices(address)": {
        "notice": "Gets the current bid, ask, and mid price values on theOverlay market associated with the given feed addressaccounting for recent volume",
        "returns": {
          "ask_": "as the current ask price",
          "bid_": "as the current bid price",
          "mid_": "as the current mid price from feed"
        }
      },
      "tradingFee(address,address,uint256)": {
        "details": "tradingFee = notional * tradingFeeRate",
        "notice": "Gets the trading fee charged to unwind the position on theOverlay market associated with the given feed address forthe given position owner, id",
        "returns": {
          "tradingFee_": "as the current trading fee charged"
        }
      },
      "value(address,address,uint256)": {
        "notice": "Gets the current value of the position on the Overlay marketassociated with the given feed address for the givenposition owner, id",
        "returns": {
          "value_": "as the current value of the position"
        }
      },
      "volumeAsk(address,uint256)": {
        "details": "fractionOfCapOi (i.e. oi / capOi) is FixedPoint",
        "notice": "Gets the rolling volume on the ask after the trader placestrade on the Overlay market associated with the given feedaddress given fraction of cap on open interest trade represents",
        "returns": {
          "volumeAsk_": "as the volume on the ask"
        }
      },
      "volumeBid(address,uint256)": {
        "details": "fractionOfCapOi (i.e. oi / capOi) is FixedPoint",
        "notice": "Gets the rolling volume on the bid after the trader placestrade on the Overlay market associated with the given feedaddress given fraction of cap on open interest trade represents",
        "returns": {
          "volumeBid_": "as the volume on the bid"
        }
      },
      "volumes(address)": {
        "notice": "Gets the current rolling volume on the bid and ask sidesof the Overlay market associated with the given feed address",
        "returns": {
          "volumeAsk_": "as the current rolling volume on the ask",
          "volumeBid_": "as the current rolling volume on the bid"
        }
      }
    },
    "title": "A market state contract to view the current state ofan Overlay market",
    "version": 1
  },
  "opcodes": "PUSH1 0x80 PUSH1 0x40 MSTORE CALLVALUE DUP1 ISZERO PUSH2 0x10 JUMPI PUSH1 0x0 DUP1 REVERT JUMPDEST POP PUSH1 0x4 CALLDATASIZE LT PUSH2 0x1CF JUMPI PUSH1 0x0 CALLDATALOAD PUSH1 0xE0 SHR DUP1 PUSH4 0x727E8A1B GT PUSH2 0x104 JUMPI DUP1 PUSH4 0xB1EC4C40 GT PUSH2 0xA2 JUMPI DUP1 PUSH4 0xCFED246B GT PUSH2 0x71 JUMPI DUP1 PUSH4 0xCFED246B EQ PUSH2 0x420 JUMPI DUP1 PUSH4 0xD16F3BBF EQ PUSH2 0x44E JUMPI DUP1 PUSH4 0xE8EF90B2 EQ PUSH2 0x461 JUMPI DUP1 PUSH4 0xF5D2B334 EQ PUSH2 0x4DE JUMPI PUSH1 0x0 DUP1 REVERT JUMPDEST DUP1 PUSH4 0xB1EC4C40 EQ PUSH2 0x3B3 JUMPI DUP1 PUSH4 0xB90D3D0C EQ PUSH2 0x3C6 JUMPI DUP1 PUSH4 0xC18F32F6 EQ PUSH2 0x3E6 JUMPI DUP1 PUSH4 0xC45A0155 EQ PUSH2 0x3F9 JUMPI PUSH1 0x0 DUP1 REVERT JUMPDEST DUP1 PUSH4 0x8E968FE5 GT PUSH2 0xDE JUMPI DUP1 PUSH4 0x8E968FE5 EQ PUSH2 0x34F JUMPI DUP1 PUSH4 0x93B0FE49 EQ PUSH2 0x362 JUMPI DUP1 PUSH4 0x9F382F6A EQ PUSH2 0x375 JUMPI DUP1 PUSH4 0xA92C5165 EQ PUSH2 0x3A0 JUMPI PUSH1 0x0 DUP1 REVERT JUMPDEST DUP1 PUSH4 0x727E8A1B EQ PUSH2 0x316 JUMPI DUP1 PUSH4 0x730C4AFF EQ PUSH2 0x329 JUMPI DUP1 PUSH4 0x81EC8B9E EQ PUSH2 0x33C JUMPI PUSH1 0x0 DUP1 REVERT JUMPDEST DUP1 PUSH4 0x4C5CF658 GT PUSH2 0x171 JUMPI DUP1 PUSH4 0x59D667A5 GT PUSH2 0x14B JUMPI DUP1 PUSH4 0x59D667A5 EQ PUSH2 0x2B5 JUMPI DUP1 PUSH4 0x5BBC8BE2 EQ PUSH2 0x2C8 JUMPI DUP1 PUSH4 0x5CFDCC0D EQ PUSH2 0x2DB JUMPI DUP1 PUSH4 0x617F37BD EQ PUSH2 0x2EE JUMPI PUSH1 0x0 DUP1 REVERT JUMPDEST DUP1 PUSH4 0x4C5CF658 EQ PUSH2 0x27C JUMPI DUP1 PUSH4 0x4EA66316 EQ PUSH2 0x28F JUMPI DUP1 PUSH4 0x53F16F67 EQ PUSH2 0x2A2 JUMPI PUSH1 0x0 DUP1 REVERT JUMPDEST DUP1 PUSH4 0x1E7269C5 GT PUSH2 0x1AD JUMPI DUP1 PUSH4 0x1E7269C5 EQ PUSH2 0x230 JUMPI DUP1 PUSH4 0x42D0C443 EQ PUSH2 0x243 JUMPI DUP1 PUSH4 0x43CA411A EQ PUSH2 0x256 JUMPI DUP1 PUSH4 0x48D5DBCC EQ PUSH2 0x269 JUMPI PUSH1 0x0 DUP1 REVERT JUMPDEST DUP1 PUSH4 0xAFB11E3 EQ PUSH2 0x1D4 JUMPI DUP1 PUSH4 0x1776F7E9 EQ PUSH2 0x1FC JUMPI DUP1 PUSH4 0x1C136A00 EQ PUSH2 0x21D JUMPI JUMPDEST PUSH1 0x0 DUP1 REVERT JUMPDEST PUSH2 0x1E7 PUSH2 0x1E2 CALLDATASIZE PUSH1 0x4 PUSH2 0x28C6 JUMP JUMPDEST PUSH2 0x4F1 JUMP JUMPDEST PUSH1 0x40 MLOAD SWAP1 ISZERO ISZERO DUP2 MSTORE PUSH1 0x20 ADD JUMPDEST PUSH1 0x40 MLOAD DUP1 SWAP2 SUB SWAP1 RETURN JUMPDEST PUSH2 0x20F PUSH2 0x20A CALLDATASIZE PUSH1 0x4 PUSH2 0x28C6 JUMP JUMPDEST PUSH2 0x531 JUMP JUMPDEST PUSH1 0x40 MLOAD SWAP1 DUP2 MSTORE PUSH1 0x20 ADD PUSH2 0x1F3 JUMP JUMPDEST PUSH2 0x20F PUSH2 0x22B CALLDATASIZE PUSH1 0x4 PUSH2 0x28C6 JUMP JUMPDEST PUSH2 0x561 JUMP JUMPDEST PUSH2 0x20F PUSH2 0x23E CALLDATASIZE PUSH1 0x4 PUSH2 0x2907 JUMP JUMPDEST PUSH2 0x5DA JUMP JUMPDEST PUSH2 0x20F PUSH2 0x251 CALLDATASIZE PUSH1 0x4 PUSH2 0x28C6 JUMP JUMPDEST PUSH2 0x714 JUMP JUMPDEST PUSH2 0x20F PUSH2 0x264 CALLDATASIZE PUSH1 0x4 PUSH2 0x2924 JUMP JUMPDEST PUSH2 0x7C6 JUMP JUMPDEST PUSH2 0x20F PUSH2 0x277 CALLDATASIZE PUSH1 0x4 PUSH2 0x2924 JUMP JUMPDEST PUSH2 0x7F5 JUMP JUMPDEST PUSH2 0x20F PUSH2 0x28A CALLDATASIZE PUSH1 0x4 PUSH2 0x28C6 JUMP JUMPDEST PUSH2 0x81B JUMP JUMPDEST PUSH2 0x20F PUSH2 0x29D CALLDATASIZE PUSH1 0x4 PUSH2 0x2924 JUMP JUMPDEST PUSH2 0x850 JUMP JUMPDEST PUSH2 0x20F PUSH2 0x2B0 CALLDATASIZE PUSH1 0x4 PUSH2 0x28C6 JUMP JUMPDEST PUSH2 0x876 JUMP JUMPDEST PUSH2 0x20F PUSH2 0x2C3 CALLDATASIZE PUSH1 0x4 PUSH2 0x2924 JUMP JUMPDEST PUSH2 0x8AA JUMP JUMPDEST PUSH2 0x20F PUSH2 0x2D6 CALLDATASIZE PUSH1 0x4 PUSH2 0x28C6 JUMP JUMPDEST PUSH2 0x8D0 JUMP JUMPDEST PUSH2 0x20F PUSH2 0x2E9 CALLDATASIZE PUSH1 0x4 PUSH2 0x2907 JUMP JUMPDEST PUSH2 0x8F6 JUMP JUMPDEST PUSH2 0x301 PUSH2 0x2FC CALLDATASIZE PUSH1 0x4 PUSH2 0x2907 JUMP JUMPDEST PUSH2 0xA2B JUMP JUMPDEST PUSH1 0x40 DUP1 MLOAD SWAP3 DUP4 MSTORE PUSH1 0x20 DUP4 ADD SWAP2 SWAP1 SWAP2 MSTORE ADD PUSH2 0x1F3 JUMP JUMPDEST PUSH2 0x20F PUSH2 0x324 CALLDATASIZE PUSH1 0x4 PUSH2 0x2907 JUMP JUMPDEST PUSH2 0xA4F JUMP JUMPDEST PUSH2 0x20F PUSH2 0x337 CALLDATASIZE PUSH1 0x4 PUSH2 0x28C6 JUMP JUMPDEST PUSH2 0xA6D JUMP JUMPDEST PUSH2 0x20F PUSH2 0x34A CALLDATASIZE PUSH1 0x4 PUSH2 0x2907 JUMP JUMPDEST PUSH2 0xA94 JUMP JUMPDEST PUSH2 0x20F PUSH2 0x35D CALLDATASIZE PUSH1 0x4 PUSH2 0x2907 JUMP JUMPDEST PUSH2 0xB13 JUMP JUMPDEST PUSH2 0x20F PUSH2 0x370 CALLDATASIZE PUSH1 0x4 PUSH2 0x28C6 JUMP JUMPDEST PUSH2 0xB40 JUMP JUMPDEST PUSH2 0x388 PUSH2 0x383 CALLDATASIZE PUSH1 0x4 PUSH2 0x2907 JUMP JUMPDEST PUSH2 0xB75 JUMP JUMPDEST PUSH1 0x40 MLOAD PUSH1 0x1 PUSH1 0x1 PUSH1 0xA0 SHL SUB SWAP1 SWAP2 AND DUP2 MSTORE PUSH1 0x20 ADD PUSH2 0x1F3 JUMP JUMPDEST PUSH2 0x20F PUSH2 0x3AE CALLDATASIZE PUSH1 0x4 PUSH2 0x28C6 JUMP JUMPDEST PUSH2 0xB86 JUMP JUMPDEST PUSH2 0x301 PUSH2 0x3C1 CALLDATASIZE PUSH1 0x4 PUSH2 0x2907 JUMP JUMPDEST PUSH2 0xBAD JUMP JUMPDEST PUSH2 0x3D9 PUSH2 0x3D4 CALLDATASIZE PUSH1 0x4 PUSH2 0x2907 JUMP JUMPDEST PUSH2 0xBED JUMP JUMPDEST PUSH1 0x40 MLOAD PUSH2 0x1F3 SWAP2 SWAP1 PUSH2 0x2950 JUMP JUMPDEST PUSH2 0x20F PUSH2 0x3F4 CALLDATASIZE PUSH1 0x4 PUSH2 0x28C6 JUMP JUMPDEST PUSH2 0xC40 JUMP JUMPDEST PUSH2 0x388 PUSH32 0x0 DUP2 JUMP JUMPDEST PUSH2 0x433 PUSH2 0x42E CALLDATASIZE PUSH1 0x4 PUSH2 0x2907 JUMP JUMPDEST PUSH2 0xC75 JUMP JUMPDEST PUSH1 0x40 DUP1 MLOAD SWAP4 DUP5 MSTORE PUSH1 0x20 DUP5 ADD SWAP3 SWAP1 SWAP3 MSTORE SWAP1 DUP3 ADD MSTORE PUSH1 0x60 ADD PUSH2 0x1F3 JUMP JUMPDEST PUSH2 0x20F PUSH2 0x45C CALLDATASIZE PUSH1 0x4 PUSH2 0x2924 JUMP JUMPDEST PUSH2 0xCC2 JUMP JUMPDEST PUSH2 0x474 PUSH2 0x46F CALLDATASIZE PUSH1 0x4 PUSH2 0x28C6 JUMP JUMPDEST PUSH2 0xCE8 JUMP JUMPDEST PUSH1 0x40 MLOAD PUSH2 0x1F3 SWAP2 SWAP1 PUSH1 0x0 PUSH1 0xC0 DUP3 ADD SWAP1 POP PUSH12 0xFFFFFFFFFFFFFFFFFFFFFFFF DUP1 DUP5 MLOAD AND DUP4 MSTORE DUP1 PUSH1 0x20 DUP6 ADD MLOAD AND PUSH1 0x20 DUP5 ADD MSTORE POP PUSH6 0xFFFFFFFFFFFF PUSH1 0x40 DUP5 ADD MLOAD AND PUSH1 0x40 DUP4 ADD MSTORE PUSH1 0x60 DUP4 ADD MLOAD ISZERO ISZERO PUSH1 0x60 DUP4 ADD MSTORE PUSH1 0x80 DUP4 ADD MLOAD ISZERO ISZERO PUSH1 0x80 DUP4 ADD MSTORE PUSH1 0xA0 DUP4 ADD MLOAD PUSH1 0xA0 DUP4 ADD MSTORE SWAP3 SWAP2 POP POP JUMP JUMPDEST PUSH2 0x20F PUSH2 0x4EC CALLDATASIZE PUSH1 0x4 PUSH2 0x28C6 JUMP JUMPDEST PUSH2 0xD30 JUMP JUMPDEST PUSH1 0x0 DUP1 PUSH2 0x4FD DUP6 PUSH2 0xEBC JUMP JUMPDEST SWAP1 POP PUSH1 0x0 PUSH2 0x50A DUP7 PUSH2 0xFA3 JUMP JUMPDEST SWAP1 POP PUSH1 0x0 PUSH2 0x519 DUP4 DUP8 DUP8 PUSH2 0x1050 JUMP JUMPDEST SWAP1 POP PUSH2 0x526 DUP4 DUP4 DUP4 PUSH2 0x1194 JUMP JUMPDEST SWAP8 SWAP7 POP POP POP POP POP POP POP JUMP JUMPDEST PUSH1 0x0 DUP1 PUSH2 0x53D DUP6 PUSH2 0xEBC JUMP JUMPDEST SWAP1 POP PUSH1 0x0 PUSH2 0x54C DUP3 DUP7 DUP7 PUSH2 0x1050 JUMP JUMPDEST SWAP1 POP PUSH2 0x557 DUP2 PUSH2 0x13FF JUMP JUMPDEST SWAP7 SWAP6 POP POP POP POP POP POP JUMP JUMPDEST PUSH1 0x0 DUP1 PUSH2 0x56D DUP6 PUSH2 0xEBC JUMP JUMPDEST SWAP1 POP PUSH1 0x0 PUSH2 0x57A DUP7 PUSH2 0xFA3 JUMP JUMPDEST SWAP1 POP PUSH1 0x0 PUSH2 0x589 DUP4 DUP8 DUP8 PUSH2 0x1050 JUMP JUMPDEST SWAP1 POP PUSH1 0x0 PUSH2 0x598 DUP5 DUP5 DUP5 PUSH2 0x1414 JUMP JUMPDEST SWAP1 POP PUSH1 0x0 PUSH2 0x5A6 DUP6 DUP5 PUSH2 0x15B3 JUMP JUMPDEST SWAP1 POP PUSH1 0x0 PUSH2 0x5B5 DUP7 DUP7 DUP7 PUSH2 0x1643 JUMP JUMPDEST SWAP1 POP DUP1 PUSH2 0x5C2 DUP4 DUP6 PUSH2 0x29C0 JUMP JUMPDEST PUSH2 0x5CC SWAP2 SWAP1 PUSH2 0x29C0 JUMP JUMPDEST SWAP11 SWAP10 POP POP POP POP POP POP POP POP POP POP JUMP JUMPDEST PUSH1 0x0 DUP1 PUSH2 0x5E6 DUP4 PUSH2 0xEBC JUMP JUMPDEST SWAP1 POP PUSH1 0x0 DUP1 PUSH1 0x0 DUP4 PUSH1 0x1 PUSH1 0x1 PUSH1 0xA0 SHL SUB AND PUSH4 0x5B6DF29A PUSH1 0x40 MLOAD DUP2 PUSH4 0xFFFFFFFF AND PUSH1 0xE0 SHL DUP2 MSTORE PUSH1 0x4 ADD PUSH1 0x60 PUSH1 0x40 MLOAD DUP1 DUP4 SUB DUP2 DUP7 GAS STATICCALL ISZERO DUP1 ISZERO PUSH2 0x62B JUMPI RETURNDATASIZE PUSH1 0x0 DUP1 RETURNDATACOPY RETURNDATASIZE PUSH1 0x0 REVERT JUMPDEST POP POP POP POP PUSH1 0x40 MLOAD RETURNDATASIZE PUSH1 0x1F NOT PUSH1 0x1F DUP3 ADD AND DUP3 ADD DUP1 PUSH1 0x40 MSTORE POP DUP2 ADD SWAP1 PUSH2 0x64F SWAP2 SWAP1 PUSH2 0x2A18 JUMP JUMPDEST PUSH1 0x40 DUP1 MLOAD PUSH1 0x60 DUP2 ADD DUP3 MSTORE PUSH4 0xFFFFFFFF DUP6 DUP2 AND DUP3 MSTORE DUP5 AND PUSH1 0x20 DUP3 ADD MSTORE PUSH1 0x17 DUP4 SWAP1 SIGNEXTEND DUP2 DUP4 ADD MSTORE SWAP1 MLOAD PUSH4 0x274BC14F PUSH1 0xE2 SHL DUP2 MSTORE PUSH1 0x6 PUSH1 0x4 DUP3 ADD MSTORE SWAP4 SWAP7 POP SWAP2 SWAP5 POP SWAP3 POP SWAP1 PUSH1 0x0 SWAP1 PUSH1 0x1 PUSH1 0x1 PUSH1 0xA0 SHL SUB DUP8 AND SWAP1 PUSH4 0x9D2F053C SWAP1 PUSH1 0x24 ADD PUSH1 0x20 PUSH1 0x40 MLOAD DUP1 DUP4 SUB DUP2 DUP7 GAS STATICCALL ISZERO DUP1 ISZERO PUSH2 0x6C3 JUMPI RETURNDATASIZE PUSH1 0x0 DUP1 RETURNDATACOPY RETURNDATASIZE PUSH1 0x0 REVERT JUMPDEST POP POP POP POP PUSH1 0x40 MLOAD RETURNDATASIZE PUSH1 0x1F NOT PUSH1 0x1F DUP3 ADD AND DUP3 ADD DUP1 PUSH1 0x40 MSTORE POP DUP2 ADD SWAP1 PUSH2 0x6E7 SWAP2 SWAP1 PUSH2 0x2A65 JUMP JUMPDEST SWAP1 POP PUSH1 0x0 PUSH2 0x6F7 DUP4 TIMESTAMP DUP5 DUP5 PUSH2 0x16E8 JUMP JUMPDEST SWAP3 POP PUSH2 0x707 DUP4 PUSH1 0x40 ADD MLOAD PUSH1 0x17 SIGNEXTEND SWAP1 JUMP JUMPDEST SWAP10 SWAP9 POP POP POP POP POP POP POP POP POP JUMP JUMPDEST PUSH1 0x0 DUP1 PUSH2 0x720 DUP6 PUSH2 0xEBC JUMP JUMPDEST SWAP1 POP PUSH1 0x0 PUSH2 0x72D DUP7 PUSH2 0xFA3 JUMP JUMPDEST SWAP1 POP PUSH1 0x0 PUSH2 0x73C DUP4 DUP8 DUP8 PUSH2 0x1050 JUMP JUMPDEST SWAP1 POP PUSH1 0x0 PUSH2 0x74B DUP5 DUP5 DUP5 PUSH2 0x1920 JUMP JUMPDEST PUSH1 0x40 MLOAD PUSH4 0x274BC14F PUSH1 0xE2 SHL DUP2 MSTORE PUSH1 0xB PUSH1 0x4 DUP3 ADD MSTORE SWAP1 SWAP2 POP PUSH1 0x0 SWAP1 PUSH1 0x1 PUSH1 0x1 PUSH1 0xA0 SHL SUB DUP7 AND SWAP1 PUSH4 0x9D2F053C SWAP1 PUSH1 0x24 ADD PUSH1 0x20 PUSH1 0x40 MLOAD DUP1 DUP4 SUB DUP2 DUP7 GAS STATICCALL ISZERO DUP1 ISZERO PUSH2 0x796 JUMPI RETURNDATASIZE PUSH1 0x0 DUP1 RETURNDATACOPY RETURNDATASIZE PUSH1 0x0 REVERT JUMPDEST POP POP POP POP PUSH1 0x40 MLOAD RETURNDATASIZE PUSH1 0x1F NOT PUSH1 0x1F DUP3 ADD AND DUP3 ADD DUP1 PUSH1 0x40 MSTORE POP DUP2 ADD SWAP1 PUSH2 0x7BA SWAP2 SWAP1 PUSH2 0x2A65 JUMP JUMPDEST SWAP1 POP PUSH2 0x707 DUP3 DUP3 PUSH2 0x1AEE JUMP JUMPDEST PUSH1 0x0 DUP1 PUSH2 0x7D2 DUP5 PUSH2 0xEBC JUMP JUMPDEST SWAP1 POP PUSH1 0x0 PUSH2 0x7DF DUP6 PUSH2 0xFA3 JUMP JUMPDEST SWAP1 POP PUSH2 0x7EC DUP3 DUP3 DUP7 PUSH2 0x1B35 JUMP JUMPDEST SWAP6 SWAP5 POP POP POP POP POP JUMP JUMPDEST PUSH1 0x0 DUP1 PUSH2 0x801 DUP5 PUSH2 0xEBC JUMP JUMPDEST SWAP1 POP PUSH1 0x0 PUSH2 0x80E DUP6 PUSH2 0xFA3 JUMP JUMPDEST SWAP1 POP PUSH2 0x7EC DUP3 DUP3 DUP7 PUSH2 0x1B5E JUMP JUMPDEST PUSH1 0x0 DUP1 PUSH2 0x827 DUP6 PUSH2 0xEBC JUMP JUMPDEST SWAP1 POP PUSH1 0x0 PUSH2 0x834 DUP7 PUSH2 0xFA3 JUMP JUMPDEST SWAP1 POP PUSH1 0x0 PUSH2 0x843 DUP4 DUP8 DUP8 PUSH2 0x1050 JUMP JUMPDEST SWAP1 POP PUSH2 0x526 DUP4 DUP4 DUP4 PUSH2 0x1C2A JUMP JUMPDEST PUSH1 0x0 DUP1 PUSH2 0x85C DUP5 PUSH2 0xEBC JUMP JUMPDEST SWAP1 POP PUSH1 0x0 PUSH2 0x869 DUP6 PUSH2 0xFA3 JUMP JUMPDEST SWAP1 POP PUSH2 0x7EC DUP3 DUP3 DUP7 PUSH2 0x1D6F JUMP JUMPDEST PUSH1 0x0 DUP1 PUSH2 0x882 DUP6 PUSH2 0xEBC JUMP JUMPDEST SWAP1 POP PUSH1 0x0 PUSH2 0x88F DUP7 PUSH2 0xFA3 JUMP JUMPDEST SWAP1 POP PUSH1 0x0 PUSH2 0x89E DUP4 DUP8 DUP8 PUSH2 0x1050 JUMP JUMPDEST SWAP1 POP PUSH2 0x526 DUP4 DUP3 PUSH2 0x15B3 JUMP JUMPDEST PUSH1 0x0 DUP1 PUSH2 0x8B6 DUP5 PUSH2 0xEBC JUMP JUMPDEST SWAP1 POP PUSH1 0x0 PUSH2 0x8C3 DUP6 PUSH2 0xFA3 JUMP JUMPDEST SWAP1 POP PUSH2 0x7EC DUP3 DUP3 DUP7 PUSH2 0x1DB3 JUMP JUMPDEST PUSH1 0x0 DUP1 PUSH2 0x8DC DUP6 PUSH2 0xEBC JUMP JUMPDEST SWAP1 POP PUSH1 0x0 PUSH2 0x8EB DUP3 DUP7 DUP7 PUSH2 0x1050 JUMP JUMPDEST SWAP1 POP PUSH2 0x557 DUP2 PUSH2 0x1E33 JUMP JUMPDEST PUSH1 0x0 DUP1 PUSH2 0x902 DUP4 PUSH2 0xEBC JUMP JUMPDEST SWAP1 POP PUSH1 0x0 DUP1 PUSH2 0x910 DUP4 PUSH2 0x1E48 JUMP JUMPDEST SWAP1 SWAP3 POP SWAP1 POP DUP1 DUP3 GT PUSH1 0x0 DUP2 PUSH2 0x925 JUMPI DUP3 PUSH2 0x927 JUMP JUMPDEST DUP4 JUMPDEST SWAP1 POP PUSH1 0x0 DUP3 PUSH2 0x936 JUMPI DUP5 PUSH2 0x938 JUMP JUMPDEST DUP4 JUMPDEST SWAP1 POP PUSH1 0x0 PUSH2 0x946 DUP3 DUP5 PUSH2 0x2A7E JUMP JUMPDEST SWAP1 POP PUSH1 0x0 PUSH2 0x954 DUP4 DUP6 PUSH2 0x2A96 JUMP JUMPDEST SWAP1 POP DUP2 ISZERO DUP1 PUSH2 0x961 JUMPI POP DUP1 ISZERO JUMPDEST ISZERO PUSH2 0x976 JUMPI POP PUSH1 0x0 SWAP10 SWAP9 POP POP POP POP POP POP POP POP POP JUMP JUMPDEST PUSH1 0x40 MLOAD PUSH4 0x274BC14F PUSH1 0xE2 SHL DUP2 MSTORE PUSH1 0x0 PUSH1 0x4 DUP3 ADD DUP2 SWAP1 MSTORE SWAP1 PUSH1 0x1 PUSH1 0x1 PUSH1 0xA0 SHL SUB DUP11 AND SWAP1 PUSH4 0x9D2F053C SWAP1 PUSH1 0x24 ADD PUSH1 0x20 PUSH1 0x40 MLOAD DUP1 DUP4 SUB DUP2 DUP7 GAS STATICCALL ISZERO DUP1 ISZERO PUSH2 0x9BE JUMPI RETURNDATASIZE PUSH1 0x0 DUP1 RETURNDATACOPY RETURNDATASIZE PUSH1 0x0 REVERT JUMPDEST POP POP POP POP PUSH1 0x40 MLOAD RETURNDATASIZE PUSH1 0x1F NOT PUSH1 0x1F DUP3 ADD AND DUP3 ADD DUP1 PUSH1 0x40 MSTORE POP DUP2 ADD SWAP1 PUSH2 0x9E2 SWAP2 SWAP1 PUSH2 0x2A65 JUMP JUMPDEST SWAP1 POP PUSH1 0x0 PUSH2 0xA04 PUSH2 0x9F4 DUP4 PUSH1 0x2 PUSH2 0x2AAD JUMP JUMPDEST PUSH2 0x9FE DUP6 DUP8 PUSH2 0x2052 JUMP JUMPDEST SWAP1 PUSH2 0x2081 JUMP JUMPDEST SWAP1 POP DUP7 PUSH2 0xA19 JUMPI PUSH2 0xA14 DUP2 PUSH2 0x2ACC JUMP JUMPDEST PUSH2 0xA1B JUMP JUMPDEST DUP1 JUMPDEST SWAP13 SWAP12 POP POP POP POP POP POP POP POP POP POP POP POP JUMP JUMPDEST PUSH1 0x0 DUP1 PUSH1 0x0 PUSH2 0xA39 DUP5 PUSH2 0xEBC JUMP JUMPDEST SWAP1 POP PUSH2 0xA44 DUP2 PUSH2 0x1E48 JUMP JUMPDEST SWAP1 SWAP6 SWAP1 SWAP5 POP SWAP3 POP POP POP JUMP JUMPDEST PUSH1 0x0 DUP1 PUSH2 0xA5B DUP4 PUSH2 0xFA3 JUMP JUMPDEST SWAP1 POP PUSH2 0xA66 DUP2 PUSH2 0x20A2 JUMP JUMPDEST SWAP4 SWAP3 POP POP POP JUMP JUMPDEST PUSH1 0x0 DUP1 PUSH2 0xA79 DUP6 PUSH2 0xEBC JUMP JUMPDEST SWAP1 POP PUSH1 0x0 PUSH2 0xA88 DUP3 DUP7 DUP7 PUSH2 0x1050 JUMP JUMPDEST SWAP1 POP PUSH2 0x557 DUP3 DUP3 PUSH2 0x20B6 JUMP JUMPDEST PUSH1 0x0 DUP1 PUSH2 0xAA0 DUP4 PUSH2 0xEBC JUMP JUMPDEST PUSH1 0x40 MLOAD PUSH4 0x83BA1917 PUSH1 0xE0 SHL DUP2 MSTORE PUSH8 0xDE0B6B3A7640000 PUSH1 0x4 DUP3 ADD MSTORE SWAP1 SWAP2 POP PUSH1 0x1 PUSH1 0x1 PUSH1 0xA0 SHL SUB DUP3 AND SWAP1 PUSH4 0x83BA1917 SWAP1 PUSH1 0x24 ADD PUSH1 0x20 PUSH1 0x40 MLOAD DUP1 DUP4 SUB DUP2 DUP7 GAS STATICCALL ISZERO DUP1 ISZERO PUSH2 0xAEF JUMPI RETURNDATASIZE PUSH1 0x0 DUP1 RETURNDATACOPY RETURNDATASIZE PUSH1 0x0 REVERT JUMPDEST POP POP POP POP PUSH1 0x40 MLOAD RETURNDATASIZE PUSH1 0x1F NOT PUSH1 0x1F DUP3 ADD AND DUP3 ADD DUP1 PUSH1 0x40 MSTORE POP DUP2 ADD SWAP1 PUSH2 0xA66 SWAP2 SWAP1 PUSH2 0x2A65 JUMP JUMPDEST PUSH1 0x0 DUP1 PUSH2 0xB1F DUP4 PUSH2 0xEBC JUMP JUMPDEST SWAP1 POP PUSH1 0x0 PUSH2 0xB2C DUP5 PUSH2 0xFA3 JUMP JUMPDEST SWAP1 POP PUSH2 0xB38 DUP3 DUP3 PUSH2 0x21D3 JUMP JUMPDEST SWAP5 SWAP4 POP POP POP POP JUMP JUMPDEST PUSH1 0x0 DUP1 PUSH2 0xB4C DUP6 PUSH2 0xEBC JUMP JUMPDEST SWAP1 POP PUSH1 0x0 PUSH2 0xB59 DUP7 PUSH2 0xFA3 JUMP JUMPDEST SWAP1 POP PUSH1 0x0 PUSH2 0xB68 DUP4 DUP8 DUP8 PUSH2 0x1050 JUMP JUMPDEST SWAP1 POP PUSH2 0x526 DUP4 DUP4 DUP4 PUSH2 0x1643 JUMP JUMPDEST PUSH1 0x0 PUSH2 0xB80 DUP3 PUSH2 0xEBC JUMP JUMPDEST SWAP3 SWAP2 POP POP JUMP JUMPDEST PUSH1 0x0 DUP1 PUSH2 0xB92 DUP6 PUSH2 0xEBC JUMP JUMPDEST SWAP1 POP PUSH1 0x0 PUSH2 0xBA1 DUP3 DUP7 DUP7 PUSH2 0x1050 JUMP JUMPDEST SWAP1 POP PUSH2 0x557 DUP3 DUP3 PUSH2 0x22BE JUMP JUMPDEST PUSH1 0x0 DUP1 PUSH1 0x0 PUSH2 0xBBB DUP5 PUSH2 0xEBC JUMP JUMPDEST SWAP1 POP PUSH1 0x0 PUSH2 0xBC8 DUP6 PUSH2 0xFA3 JUMP JUMPDEST SWAP1 POP PUSH2 0xBD6 DUP3 DUP3 PUSH1 0x0 PUSH2 0x1B5E JUMP JUMPDEST SWAP4 POP PUSH2 0xBE4 DUP3 DUP3 PUSH1 0x0 PUSH2 0x1D6F JUMP JUMPDEST SWAP3 POP POP POP SWAP2 POP SWAP2 JUMP JUMPDEST PUSH2 0xC37 PUSH1 0x40 MLOAD DUP1 PUSH2 0x100 ADD PUSH1 0x40 MSTORE DUP1 PUSH1 0x0 DUP2 MSTORE PUSH1 0x20 ADD PUSH1 0x0 DUP2 MSTORE PUSH1 0x20 ADD PUSH1 0x0 DUP2 MSTORE PUSH1 0x20 ADD PUSH1 0x0 DUP2 MSTORE PUSH1 0x20 ADD PUSH1 0x0 DUP2 MSTORE PUSH1 0x20 ADD PUSH1 0x0 DUP2 MSTORE PUSH1 0x20 ADD PUSH1 0x0 DUP2 MSTORE PUSH1 0x20 ADD PUSH1 0x0 ISZERO ISZERO DUP2 MSTORE POP SWAP1 JUMP JUMPDEST PUSH2 0xB80 DUP3 PUSH2 0xFA3 JUMP JUMPDEST PUSH1 0x0 DUP1 PUSH2 0xC4C DUP6 PUSH2 0xEBC JUMP JUMPDEST SWAP1 POP PUSH1 0x0 PUSH2 0xC59 DUP7 PUSH2 0xFA3 JUMP JUMPDEST SWAP1 POP PUSH1 0x0 PUSH2 0xC68 DUP4 DUP8 DUP8 PUSH2 0x1050 JUMP JUMPDEST SWAP1 POP PUSH2 0x526 DUP4 DUP4 DUP4 PUSH2 0x1920 JUMP JUMPDEST PUSH1 0x0 DUP1 PUSH1 0x0 DUP1 PUSH2 0xC84 DUP6 PUSH2 0xEBC JUMP JUMPDEST SWAP1 POP PUSH1 0x0 PUSH2 0xC91 DUP7 PUSH2 0xFA3 JUMP JUMPDEST SWAP1 POP PUSH2 0xC9F DUP3 DUP3 PUSH1 0x0 PUSH2 0x1DB3 JUMP JUMPDEST SWAP5 POP PUSH2 0xCAD DUP3 DUP3 PUSH1 0x0 PUSH2 0x2415 JUMP JUMPDEST SWAP4 POP PUSH2 0xCB8 DUP2 PUSH2 0x20A2 JUMP JUMPDEST SWAP5 SWAP7 SWAP4 SWAP6 POP POP POP POP JUMP JUMPDEST PUSH1 0x0 DUP1 PUSH2 0xCCE DUP5 PUSH2 0xEBC JUMP JUMPDEST SWAP1 POP PUSH1 0x0 PUSH2 0xCDB DUP6 PUSH2 0xFA3 JUMP JUMPDEST SWAP1 POP PUSH2 0x7EC DUP3 DUP3 DUP7 PUSH2 0x2415 JUMP JUMPDEST PUSH1 0x40 DUP1 MLOAD PUSH1 0xC0 DUP2 ADD DUP3 MSTORE PUSH1 0x0 DUP1 DUP3 MSTORE PUSH1 0x20 DUP3 ADD DUP2 SWAP1 MSTORE SWAP2 DUP2 ADD DUP3 SWAP1 MSTORE PUSH1 0x60 DUP2 ADD DUP3 SWAP1 MSTORE PUSH1 0x80 DUP2 ADD DUP3 SWAP1 MSTORE PUSH1 0xA0 DUP2 ADD DUP3 SWAP1 MSTORE SWAP1 PUSH2 0xD23 DUP6 PUSH2 0xEBC JUMP JUMPDEST SWAP1 POP PUSH2 0x7EC DUP2 DUP6 DUP6 PUSH2 0x1050 JUMP JUMPDEST PUSH1 0x0 DUP1 PUSH2 0xD3C DUP6 PUSH2 0xEBC JUMP JUMPDEST SWAP1 POP PUSH1 0x0 PUSH2 0xD49 DUP7 PUSH2 0xFA3 JUMP JUMPDEST SWAP1 POP PUSH1 0x0 PUSH2 0xD58 DUP4 DUP8 DUP8 PUSH2 0x1050 JUMP JUMPDEST SWAP1 POP PUSH1 0x0 PUSH2 0xD65 DUP3 PUSH2 0x2454 JUMP JUMPDEST PUSH1 0x40 MLOAD PUSH4 0x274BC14F PUSH1 0xE2 SHL DUP2 MSTORE PUSH1 0xA PUSH1 0x4 DUP3 ADD MSTORE SWAP1 SWAP2 POP PUSH1 0x0 SWAP1 PUSH1 0x1 PUSH1 0x1 PUSH1 0xA0 SHL SUB DUP7 AND SWAP1 PUSH4 0x9D2F053C SWAP1 PUSH1 0x24 ADD PUSH1 0x20 PUSH1 0x40 MLOAD DUP1 DUP4 SUB DUP2 DUP7 GAS STATICCALL ISZERO DUP1 ISZERO PUSH2 0xDB0 JUMPI RETURNDATASIZE PUSH1 0x0 DUP1 RETURNDATACOPY RETURNDATASIZE PUSH1 0x0 REVERT JUMPDEST POP POP POP POP PUSH1 0x40 MLOAD RETURNDATASIZE PUSH1 0x1F NOT PUSH1 0x1F DUP3 ADD AND DUP3 ADD DUP1 PUSH1 0x40 MSTORE POP DUP2 ADD SWAP1 PUSH2 0xDD4 SWAP2 SWAP1 PUSH2 0x2A65 JUMP JUMPDEST SWAP1 POP PUSH1 0x0 PUSH2 0xDE2 DUP7 DUP6 PUSH2 0x15B3 JUMP JUMPDEST SWAP1 POP PUSH1 0x0 PUSH2 0xDF0 DUP8 DUP7 PUSH2 0x20B6 JUMP JUMPDEST SWAP1 POP PUSH1 0x0 PUSH2 0xDFE DUP9 DUP8 PUSH2 0x22BE JUMP JUMPDEST SWAP1 POP PUSH1 0x0 DUP3 GT PUSH2 0xE55 JUMPI PUSH1 0x40 MLOAD PUSH3 0x461BCD PUSH1 0xE5 SHL DUP2 MSTORE PUSH1 0x20 PUSH1 0x4 DUP3 ADD MSTORE PUSH1 0xE PUSH1 0x24 DUP3 ADD MSTORE PUSH32 0x4F564C56313A206F69203D3D2030000000000000000000000000000000000000 PUSH1 0x44 DUP3 ADD MSTORE PUSH1 0x64 ADD JUMPDEST PUSH1 0x40 MLOAD DUP1 SWAP2 SUB SWAP1 REVERT JUMPDEST PUSH1 0x0 PUSH2 0xE87 DUP4 PUSH2 0xE81 PUSH2 0xE7A PUSH2 0xE73 DUP10 PUSH8 0xDE0B6B3A7640000 PUSH2 0x2A96 JUMP JUMPDEST DUP9 SWAP1 PUSH2 0x24A9 JUMP JUMPDEST DUP6 SWAP1 PUSH2 0x24DA JUMP JUMPDEST SWAP1 PUSH2 0x24A9 JUMP JUMPDEST SWAP1 POP DUP7 PUSH1 0x60 ADD MLOAD PUSH2 0xEA1 JUMPI PUSH2 0xE9C DUP2 DUP8 PUSH2 0x2A7E JUMP JUMPDEST PUSH2 0xEAB JUMP JUMPDEST PUSH2 0xEAB DUP7 DUP3 PUSH2 0x24DA JUMP JUMPDEST SWAP14 SWAP13 POP POP POP POP POP POP POP POP POP POP POP POP POP JUMP JUMPDEST PUSH1 0x40 MLOAD PUSH4 0xD4DFADBF PUSH1 0xE0 SHL DUP2 MSTORE PUSH1 0x1 PUSH1 0x1 PUSH1 0xA0 SHL SUB DUP3 DUP2 AND PUSH1 0x4 DUP4 ADD MSTORE PUSH1 0x0 SWAP2 DUP3 SWAP2 PUSH32 0x0 AND SWAP1 PUSH4 0xD4DFADBF SWAP1 PUSH1 0x24 ADD PUSH1 0x20 PUSH1 0x40 MLOAD DUP1 DUP4 SUB DUP2 DUP7 GAS STATICCALL ISZERO DUP1 ISZERO PUSH2 0xF27 JUMPI RETURNDATASIZE PUSH1 0x0 DUP1 RETURNDATACOPY RETURNDATASIZE PUSH1 0x0 REVERT JUMPDEST POP POP POP POP PUSH1 0x40 MLOAD RETURNDATASIZE PUSH1 0x1F NOT PUSH1 0x1F DUP3 ADD AND DUP3 ADD DUP1 PUSH1 0x40 MSTORE POP DUP2 ADD SWAP1 PUSH2 0xF4B SWAP2 SWAP1 PUSH2 0x2AE9 JUMP JUMPDEST SWAP1 POP PUSH1 0x1 PUSH1 0x1 PUSH1 0xA0 SHL SUB DUP2 AND PUSH2 0xB80 JUMPI PUSH1 0x40 MLOAD PUSH3 0x461BCD PUSH1 0xE5 SHL DUP2 MSTORE PUSH1 0x20 PUSH1 0x4 DUP3 ADD MSTORE PUSH1 0xD PUSH1 0x24 DUP3 ADD MSTORE PUSH32 0x4F564C56313A216D61726B657400000000000000000000000000000000000000 PUSH1 0x44 DUP3 ADD MSTORE PUSH1 0x64 ADD PUSH2 0xE4C JUMP JUMPDEST PUSH2 0xFED PUSH1 0x40 MLOAD DUP1 PUSH2 0x100 ADD PUSH1 0x40 MSTORE DUP1 PUSH1 0x0 DUP2 MSTORE PUSH1 0x20 ADD PUSH1 0x0 DUP2 MSTORE PUSH1 0x20 ADD PUSH1 0x0 DUP2 MSTORE PUSH1 0x20 ADD PUSH1 0x0 DUP2 MSTORE PUSH1 0x20 ADD PUSH1 0x0 DUP2 MSTORE PUSH1 0x20 ADD PUSH1 0x0 DUP2 MSTORE PUSH1 0x20 ADD PUSH1 0x0 DUP2 MSTORE PUSH1 0x20 ADD PUSH1 0x0 ISZERO ISZERO DUP2 MSTORE POP SWAP1 JUMP JUMPDEST DUP2 PUSH1 0x1 PUSH1 0x1 PUSH1 0xA0 SHL SUB AND PUSH4 0x52BFE789 PUSH1 0x40 MLOAD DUP2 PUSH4 0xFFFFFFFF AND PUSH1 0xE0 SHL DUP2 MSTORE PUSH1 0x4 ADD PUSH2 0x100 PUSH1 0x40 MLOAD DUP1 DUP4 SUB DUP2 DUP7 GAS STATICCALL ISZERO DUP1 ISZERO PUSH2 0x102C JUMPI RETURNDATASIZE PUSH1 0x0 DUP1 RETURNDATACOPY RETURNDATASIZE PUSH1 0x0 REVERT JUMPDEST POP POP POP POP PUSH1 0x40 MLOAD RETURNDATASIZE PUSH1 0x1F NOT PUSH1 0x1F DUP3 ADD AND DUP3 ADD DUP1 PUSH1 0x40 MSTORE POP DUP2 ADD SWAP1 PUSH2 0xB80 SWAP2 SWAP1 PUSH2 0x2B16 JUMP JUMPDEST PUSH1 0x40 DUP1 MLOAD PUSH1 0xC0 DUP2 ADD DUP3 MSTORE PUSH1 0x0 DUP1 DUP3 MSTORE PUSH1 0x20 DUP3 ADD DUP2 SWAP1 MSTORE SWAP2 DUP2 ADD DUP3 SWAP1 MSTORE PUSH1 0x60 DUP2 ADD DUP3 SWAP1 MSTORE PUSH1 0x80 DUP2 ADD DUP3 SWAP1 MSTORE PUSH1 0xA0 DUP2 ADD SWAP2 SWAP1 SWAP2 MSTORE PUSH1 0x40 MLOAD PUSH12 0xFFFFFFFFFFFFFFFFFFFFFFFF NOT PUSH1 0x60 DUP6 SWAP1 SHL AND PUSH1 0x20 DUP3 ADD MSTORE PUSH1 0x34 DUP2 ADD DUP4 SWAP1 MSTORE PUSH1 0x0 SWAP1 PUSH1 0x54 ADD PUSH1 0x40 MLOAD PUSH1 0x20 DUP2 DUP4 SUB SUB DUP2 MSTORE SWAP1 PUSH1 0x40 MSTORE DUP1 MLOAD SWAP1 PUSH1 0x20 ADD KECCAK256 SWAP1 POP PUSH1 0x0 DUP1 PUSH1 0x0 DUP1 PUSH1 0x0 DUP1 DUP11 PUSH1 0x1 PUSH1 0x1 PUSH1 0xA0 SHL SUB AND PUSH4 0x514EA4BF DUP9 PUSH1 0x40 MLOAD DUP3 PUSH4 0xFFFFFFFF AND PUSH1 0xE0 SHL DUP2 MSTORE PUSH1 0x4 ADD PUSH2 0x10FA SWAP2 DUP2 MSTORE PUSH1 0x20 ADD SWAP1 JUMP JUMPDEST PUSH1 0xC0 PUSH1 0x40 MLOAD DUP1 DUP4 SUB DUP2 DUP7 GAS STATICCALL ISZERO DUP1 ISZERO PUSH2 0x1117 JUMPI RETURNDATASIZE PUSH1 0x0 DUP1 RETURNDATACOPY RETURNDATASIZE PUSH1 0x0 REVERT JUMPDEST POP POP POP POP PUSH1 0x40 MLOAD RETURNDATASIZE PUSH1 0x1F NOT PUSH1 0x1F DUP3 ADD AND DUP3 ADD DUP1 PUSH1 0x40 MSTORE POP DUP2 ADD SWAP1 PUSH2 0x113B SWAP2 SWAP1 PUSH2 0x2BD4 JUMP JUMPDEST PUSH1 0x40 DUP1 MLOAD PUSH1 0xC0 DUP2 ADD DUP3 MSTORE PUSH12 0xFFFFFFFFFFFFFFFFFFFFFFFF SWAP8 DUP9 AND DUP2 MSTORE SWAP7 SWAP1 SWAP6 AND PUSH1 0x20 DUP8 ADD MSTORE PUSH6 0xFFFFFFFFFFFF SWAP1 SWAP4 AND SWAP4 DUP6 ADD SWAP4 SWAP1 SWAP4 MSTORE ISZERO ISZERO PUSH1 0x60 DUP5 ADD MSTORE SWAP1 ISZERO ISZERO PUSH1 0x80 DUP4 ADD MSTORE PUSH1 0xA0 DUP3 ADD MSTORE SWAP12 SWAP11 POP POP POP POP POP POP POP POP POP POP POP JUMP JUMPDEST PUSH1 0x0 DUP1 PUSH1 0x0 PUSH2 0x11A2 DUP7 PUSH2 0x1E48 JUMP JUMPDEST SWAP2 POP SWAP2 POP PUSH1 0x0 DUP5 PUSH1 0x60 ADD MLOAD PUSH2 0x11B7 JUMPI DUP2 PUSH2 0x11B9 JUMP JUMPDEST DUP3 JUMPDEST SWAP1 POP PUSH1 0x0 DUP6 PUSH1 0x60 ADD MLOAD PUSH2 0x122D JUMPI DUP8 PUSH1 0x1 PUSH1 0x1 PUSH1 0xA0 SHL SUB AND PUSH4 0xF333FE13 PUSH1 0x40 MLOAD DUP2 PUSH4 0xFFFFFFFF AND PUSH1 0xE0 SHL DUP2 MSTORE PUSH1 0x4 ADD PUSH1 0x20 PUSH1 0x40 MLOAD DUP1 DUP4 SUB DUP2 DUP7 GAS STATICCALL ISZERO DUP1 ISZERO PUSH2 0x1204 JUMPI RETURNDATASIZE PUSH1 0x0 DUP1 RETURNDATACOPY RETURNDATASIZE PUSH1 0x0 REVERT JUMPDEST POP POP POP POP PUSH1 0x40 MLOAD RETURNDATASIZE PUSH1 0x1F NOT PUSH1 0x1F DUP3 ADD AND DUP3 ADD DUP1 PUSH1 0x40 MSTORE POP DUP2 ADD SWAP1 PUSH2 0x1228 SWAP2 SWAP1 PUSH2 0x2A65 JUMP JUMPDEST PUSH2 0x128F JUMP JUMPDEST DUP8 PUSH1 0x1 PUSH1 0x1 PUSH1 0xA0 SHL SUB AND PUSH4 0x2ACB3810 PUSH1 0x40 MLOAD DUP2 PUSH4 0xFFFFFFFF AND PUSH1 0xE0 SHL DUP2 MSTORE PUSH1 0x4 ADD PUSH1 0x20 PUSH1 0x40 MLOAD DUP1 DUP4 SUB DUP2 DUP7 GAS STATICCALL ISZERO DUP1 ISZERO PUSH2 0x126B JUMPI RETURNDATASIZE PUSH1 0x0 DUP1 RETURNDATACOPY RETURNDATASIZE PUSH1 0x0 REVERT JUMPDEST POP POP POP POP PUSH1 0x40 MLOAD RETURNDATASIZE PUSH1 0x1F NOT PUSH1 0x1F DUP3 ADD AND DUP3 ADD DUP1 PUSH1 0x40 MSTORE POP DUP2 ADD SWAP1 PUSH2 0x128F SWAP2 SWAP1 PUSH2 0x2A65 JUMP JUMPDEST SWAP1 POP PUSH1 0x0 PUSH2 0x129C DUP9 PUSH2 0x20A2 JUMP JUMPDEST PUSH1 0x40 MLOAD PUSH4 0x274BC14F PUSH1 0xE2 SHL DUP2 MSTORE PUSH1 0xA PUSH1 0x4 DUP3 ADD MSTORE SWAP1 SWAP2 POP PUSH1 0x0 SWAP1 PUSH1 0x1 PUSH1 0x1 PUSH1 0xA0 SHL SUB DUP12 AND SWAP1 PUSH4 0x9D2F053C SWAP1 PUSH1 0x24 ADD PUSH1 0x20 PUSH1 0x40 MLOAD DUP1 DUP4 SUB DUP2 DUP7 GAS STATICCALL ISZERO DUP1 ISZERO PUSH2 0x12E7 JUMPI RETURNDATASIZE PUSH1 0x0 DUP1 RETURNDATACOPY RETURNDATASIZE PUSH1 0x0 REVERT JUMPDEST POP POP POP POP PUSH1 0x40 MLOAD RETURNDATASIZE PUSH1 0x1F NOT PUSH1 0x1F DUP3 ADD AND DUP3 ADD DUP1 PUSH1 0x40 MSTORE POP DUP2 ADD SWAP1 PUSH2 0x130B SWAP2 SWAP1 PUSH2 0x2A65 JUMP JUMPDEST SWAP1 POP PUSH2 0x5CC DUP5 DUP5 DUP5 PUSH1 0x1 PUSH1 0x1 PUSH1 0xA0 SHL SUB DUP15 AND PUSH4 0x9D2F053C PUSH1 0x3 PUSH1 0x40 MLOAD DUP3 PUSH4 0xFFFFFFFF AND PUSH1 0xE0 SHL DUP2 MSTORE PUSH1 0x4 ADD PUSH2 0x1342 SWAP2 DUP2 MSTORE PUSH1 0x20 ADD SWAP1 JUMP JUMPDEST PUSH1 0x20 PUSH1 0x40 MLOAD DUP1 DUP4 SUB DUP2 DUP7 GAS STATICCALL ISZERO DUP1 ISZERO PUSH2 0x135F JUMPI RETURNDATASIZE PUSH1 0x0 DUP1 RETURNDATACOPY RETURNDATASIZE PUSH1 0x0 REVERT JUMPDEST POP POP POP POP PUSH1 0x40 MLOAD RETURNDATASIZE PUSH1 0x1F NOT PUSH1 0x1F DUP3 ADD AND DUP3 ADD DUP1 PUSH1 0x40 MSTORE POP DUP2 ADD SWAP1 PUSH2 0x1383 SWAP2 SWAP1 PUSH2 0x2A65 JUMP JUMPDEST PUSH1 0x1 PUSH1 0x1 PUSH1 0xA0 SHL SUB DUP16 AND PUSH4 0x9D2F053C PUSH1 0x8 PUSH1 0x40 MLOAD DUP3 PUSH4 0xFFFFFFFF AND PUSH1 0xE0 SHL DUP2 MSTORE PUSH1 0x4 ADD PUSH2 0x13B2 SWAP2 DUP2 MSTORE PUSH1 0x20 ADD SWAP1 JUMP JUMPDEST PUSH1 0x20 PUSH1 0x40 MLOAD DUP1 DUP4 SUB DUP2 DUP7 GAS STATICCALL ISZERO DUP1 ISZERO PUSH2 0x13CF JUMPI RETURNDATASIZE PUSH1 0x0 DUP1 RETURNDATACOPY RETURNDATASIZE PUSH1 0x0 REVERT JUMPDEST POP POP POP POP PUSH1 0x40 MLOAD RETURNDATASIZE PUSH1 0x1F NOT PUSH1 0x1F DUP3 ADD AND DUP3 ADD DUP1 PUSH1 0x40 MSTORE POP DUP2 ADD SWAP1 PUSH2 0x13F3 SWAP2 SWAP1 PUSH2 0x2A65 JUMP JUMPDEST DUP14 SWAP5 SWAP4 SWAP3 SWAP2 SWAP1 DUP8 PUSH2 0x24F5 JUMP JUMPDEST PUSH1 0x0 PUSH8 0xDE0B6B3A7640000 PUSH2 0xA66 DUP4 DUP3 PUSH2 0x2576 JUMP JUMPDEST PUSH1 0x0 PUSH8 0xDE0B6B3A7640000 DUP2 DUP1 PUSH2 0x142A DUP8 PUSH2 0x1E48 JUMP JUMPDEST SWAP2 POP SWAP2 POP PUSH1 0x0 DUP6 PUSH1 0x60 ADD MLOAD PUSH2 0x143F JUMPI DUP2 PUSH2 0x1441 JUMP JUMPDEST DUP3 JUMPDEST SWAP1 POP PUSH1 0x0 DUP7 PUSH1 0x60 ADD MLOAD PUSH2 0x14B5 JUMPI DUP9 PUSH1 0x1 PUSH1 0x1 PUSH1 0xA0 SHL SUB AND PUSH4 0xF333FE13 PUSH1 0x40 MLOAD DUP2 PUSH4 0xFFFFFFFF AND PUSH1 0xE0 SHL DUP2 MSTORE PUSH1 0x4 ADD PUSH1 0x20 PUSH1 0x40 MLOAD DUP1 DUP4 SUB DUP2 DUP7 GAS STATICCALL ISZERO DUP1 ISZERO PUSH2 0x148C JUMPI RETURNDATASIZE PUSH1 0x0 DUP1 RETURNDATACOPY RETURNDATASIZE PUSH1 0x0 REVERT JUMPDEST POP POP POP POP PUSH1 0x40 MLOAD RETURNDATASIZE PUSH1 0x1F NOT PUSH1 0x1F DUP3 ADD AND DUP3 ADD DUP1 PUSH1 0x40 MSTORE POP DUP2 ADD SWAP1 PUSH2 0x14B0 SWAP2 SWAP1 PUSH2 0x2A65 JUMP JUMPDEST PUSH2 0x1517 JUMP JUMPDEST DUP9 PUSH1 0x1 PUSH1 0x1 PUSH1 0xA0 SHL SUB AND PUSH4 0x2ACB3810 PUSH1 0x40 MLOAD DUP2 PUSH4 0xFFFFFFFF AND PUSH1 0xE0 SHL DUP2 MSTORE PUSH1 0x4 ADD PUSH1 0x20 PUSH1 0x40 MLOAD DUP1 DUP4 SUB DUP2 DUP7 GAS STATICCALL ISZERO DUP1 ISZERO PUSH2 0x14F3 JUMPI RETURNDATASIZE PUSH1 0x0 DUP1 RETURNDATACOPY RETURNDATASIZE PUSH1 0x0 REVERT JUMPDEST POP POP POP POP PUSH1 0x40 MLOAD RETURNDATASIZE PUSH1 0x1F NOT PUSH1 0x1F DUP3 ADD AND DUP3 ADD DUP1 PUSH1 0x40 MSTORE POP DUP2 ADD SWAP1 PUSH2 0x1517 SWAP2 SWAP1 PUSH2 0x2A65 JUMP JUMPDEST SWAP1 POP PUSH1 0x0 PUSH2 0x1527 DUP9 DUP8 DUP6 DUP6 PUSH2 0x259B JUMP JUMPDEST SWAP1 POP PUSH1 0x0 PUSH2 0x1534 DUP11 PUSH2 0x20A2 JUMP JUMPDEST PUSH1 0x40 MLOAD PUSH4 0x274BC14F PUSH1 0xE2 SHL DUP2 MSTORE PUSH1 0x3 PUSH1 0x4 DUP3 ADD MSTORE SWAP1 SWAP2 POP PUSH1 0x0 SWAP1 PUSH1 0x1 PUSH1 0x1 PUSH1 0xA0 SHL SUB DUP14 AND SWAP1 PUSH4 0x9D2F053C SWAP1 PUSH1 0x24 ADD PUSH1 0x20 PUSH1 0x40 MLOAD DUP1 DUP4 SUB DUP2 DUP7 GAS STATICCALL ISZERO DUP1 ISZERO PUSH2 0x157F JUMPI RETURNDATASIZE PUSH1 0x0 DUP1 RETURNDATACOPY RETURNDATASIZE PUSH1 0x0 REVERT JUMPDEST POP POP POP POP PUSH1 0x40 MLOAD RETURNDATASIZE PUSH1 0x1F NOT PUSH1 0x1F DUP3 ADD AND DUP3 ADD DUP1 PUSH1 0x40 MSTORE POP DUP2 ADD SWAP1 PUSH2 0x15A3 SWAP2 SWAP1 PUSH2 0x2A65 JUMP JUMPDEST SWAP1 POP PUSH2 0xA1B DUP11 DUP10 DUP8 DUP8 DUP7 DUP7 PUSH2 0x25D2 JUMP JUMPDEST PUSH1 0x40 MLOAD PUSH4 0x274BC14F PUSH1 0xE2 SHL DUP2 MSTORE PUSH1 0x8 PUSH1 0x4 DUP3 ADD MSTORE PUSH1 0x0 SWAP1 DUP2 SWAP1 PUSH1 0x1 PUSH1 0x1 PUSH1 0xA0 SHL SUB DUP6 AND SWAP1 PUSH4 0x9D2F053C SWAP1 PUSH1 0x24 ADD PUSH1 0x20 PUSH1 0x40 MLOAD DUP1 DUP4 SUB DUP2 DUP7 GAS STATICCALL ISZERO DUP1 ISZERO PUSH2 0x15FD JUMPI RETURNDATASIZE PUSH1 0x0 DUP1 RETURNDATACOPY RETURNDATASIZE PUSH1 0x0 REVERT JUMPDEST POP POP POP POP PUSH1 0x40 MLOAD RETURNDATASIZE PUSH1 0x1F NOT PUSH1 0x1F DUP3 ADD AND DUP3 ADD DUP1 PUSH1 0x40 MSTORE POP DUP2 ADD SWAP1 PUSH2 0x1621 SWAP2 SWAP1 PUSH2 0x2A65 JUMP JUMPDEST SWAP1 POP PUSH1 0x0 PUSH2 0x1637 DUP5 PUSH8 0xDE0B6B3A7640000 PUSH2 0x26D7 JUMP JUMPDEST SWAP1 POP PUSH2 0x7EC DUP2 DUP4 PUSH2 0x1AEE JUMP JUMPDEST PUSH1 0x0 DUP1 PUSH2 0x1651 DUP6 DUP6 DUP6 PUSH2 0x1194 JUMP JUMPDEST SWAP1 POP DUP1 ISZERO PUSH2 0x16E0 JUMPI PUSH1 0x40 MLOAD PUSH4 0x274BC14F PUSH1 0xE2 SHL DUP2 MSTORE PUSH1 0xA PUSH1 0x4 DUP3 ADD MSTORE PUSH1 0x0 SWAP1 PUSH1 0x1 PUSH1 0x1 PUSH1 0xA0 SHL SUB DUP8 AND SWAP1 PUSH4 0x9D2F053C SWAP1 PUSH1 0x24 ADD PUSH1 0x20 PUSH1 0x40 MLOAD DUP1 DUP4 SUB DUP2 DUP7 GAS STATICCALL ISZERO DUP1 ISZERO PUSH2 0x16A1 JUMPI RETURNDATASIZE PUSH1 0x0 DUP1 RETURNDATACOPY RETURNDATASIZE PUSH1 0x0 REVERT JUMPDEST POP POP POP POP PUSH1 0x40 MLOAD RETURNDATASIZE PUSH1 0x1F NOT PUSH1 0x1F DUP3 ADD AND DUP3 ADD DUP1 PUSH1 0x40 MSTORE POP DUP2 ADD SWAP1 PUSH2 0x16C5 SWAP2 SWAP1 PUSH2 0x2A65 JUMP JUMPDEST SWAP1 POP PUSH1 0x0 PUSH2 0x16D4 DUP8 DUP8 DUP8 PUSH2 0x1414 JUMP JUMPDEST SWAP1 POP PUSH2 0x526 DUP2 DUP4 PUSH2 0x2081 JUMP JUMPDEST POP SWAP4 SWAP3 POP POP POP JUMP JUMPDEST PUSH1 0x40 DUP1 MLOAD PUSH1 0x60 DUP2 ADD DUP3 MSTORE PUSH1 0x0 DUP1 DUP3 MSTORE PUSH1 0x20 DUP3 ADD DUP2 SWAP1 MSTORE SWAP2 DUP2 ADD DUP3 SWAP1 MSTORE DUP6 MLOAD SWAP1 SWAP2 DUP6 SWAP2 PUSH4 0xFFFFFFFF SWAP1 DUP2 AND SWAP1 DUP4 AND LT ISZERO PUSH2 0x1746 JUMPI DUP7 MLOAD PUSH4 0xFFFFFFFF SWAP1 DUP2 AND SWAP1 PUSH2 0x1737 SWAP1 DUP5 AND PUSH5 0x100000000 PUSH2 0x2A7E JUMP JUMPDEST PUSH2 0x1741 SWAP2 SWAP1 PUSH2 0x2A96 JUMP JUMPDEST PUSH2 0x1759 JUMP JUMPDEST DUP7 MLOAD PUSH2 0x1752 SWAP1 DUP4 PUSH2 0x2C4E JUMP JUMPDEST PUSH4 0xFFFFFFFF AND JUMPDEST PUSH1 0x20 DUP9 ADD MLOAD SWAP1 SWAP2 POP PUSH4 0xFFFFFFFF AND PUSH1 0x0 PUSH2 0x1777 DUP10 PUSH1 0x40 ADD MLOAD PUSH1 0x17 SIGNEXTEND SWAP1 JUMP JUMPDEST SWAP1 POP DUP2 DUP4 LT ISZERO DUP1 PUSH2 0x1786 JUMPI POP DUP2 ISZERO JUMPDEST ISZERO PUSH2 0x17D0 JUMPI PUSH1 0x40 MLOAD DUP1 PUSH1 0x60 ADD PUSH1 0x40 MSTORE DUP1 DUP6 PUSH4 0xFFFFFFFF AND DUP2 MSTORE PUSH1 0x20 ADD PUSH2 0x17AB DUP10 PUSH2 0x26F3 JUMP JUMPDEST PUSH4 0xFFFFFFFF AND DUP2 MSTORE PUSH1 0x20 ADD PUSH2 0x17BF DUP9 PUSH2 0x2713 JUMP JUMPDEST PUSH1 0x17 SIGNEXTEND DUP2 MSTORE POP SWAP5 POP POP POP POP POP PUSH2 0xB38 JUMP JUMPDEST PUSH1 0x0 PUSH2 0x17DC DUP5 DUP5 PUSH2 0x2052 JUMP JUMPDEST SWAP1 POP PUSH1 0x0 PUSH2 0x17E9 DUP4 PUSH2 0x2785 JUMP JUMPDEST SWAP1 POP PUSH1 0x0 DUP1 DUP5 SLT ISZERO PUSH2 0x180D JUMPI PUSH2 0x17FF DUP4 DUP4 PUSH2 0x2081 JUMP JUMPDEST PUSH2 0x1808 SWAP1 PUSH2 0x2ACC JUMP JUMPDEST PUSH2 0x1817 JUMP JUMPDEST PUSH2 0x1817 DUP4 DUP4 PUSH2 0x2081 JUMP JUMPDEST SWAP1 POP PUSH2 0x1823 DUP2 DUP6 PUSH2 0x29C0 JUMP JUMPDEST SWAP4 POP PUSH1 0x0 PUSH2 0x1831 DUP11 DUP7 PUSH2 0x2C73 JUMP JUMPDEST SWAP1 POP DUP1 PUSH2 0x1878 JUMPI PUSH1 0x40 MLOAD DUP1 PUSH1 0x60 ADD PUSH1 0x40 MSTORE DUP1 DUP10 PUSH4 0xFFFFFFFF AND DUP2 MSTORE PUSH1 0x20 ADD PUSH2 0x1858 DUP14 PUSH2 0x26F3 JUMP JUMPDEST PUSH4 0xFFFFFFFF AND DUP2 MSTORE PUSH1 0x0 PUSH1 0x20 SWAP1 SWAP2 ADD MSTORE SWAP9 POP PUSH2 0xB38 SWAP8 POP POP POP POP POP POP POP POP JUMP JUMPDEST PUSH1 0x0 PUSH2 0x1883 DUP7 PUSH2 0x2785 JUMP JUMPDEST SWAP1 POP PUSH1 0x0 PUSH2 0x1890 DUP13 PUSH2 0x2785 JUMP JUMPDEST SWAP1 POP PUSH1 0x0 PUSH2 0x189E DUP3 DUP5 PUSH2 0x2A7E JUMP JUMPDEST PUSH2 0x18A8 DUP16 DUP5 PUSH2 0x2AAD JUMP JUMPDEST PUSH2 0x18B2 DUP13 DUP13 PUSH2 0x2A96 JUMP JUMPDEST PUSH2 0x18BC SWAP1 DUP7 PUSH2 0x2AAD JUMP JUMPDEST PUSH2 0x18C6 SWAP2 SWAP1 PUSH2 0x2A7E JUMP JUMPDEST PUSH2 0x18D0 SWAP2 SWAP1 PUSH2 0x2CB3 JUMP JUMPDEST SWAP1 POP PUSH1 0x40 MLOAD DUP1 PUSH1 0x60 ADD PUSH1 0x40 MSTORE DUP1 DUP13 PUSH4 0xFFFFFFFF AND DUP2 MSTORE PUSH1 0x20 ADD PUSH2 0x18F2 DUP4 PUSH2 0x26F3 JUMP JUMPDEST PUSH4 0xFFFFFFFF AND DUP2 MSTORE PUSH1 0x20 ADD PUSH2 0x1906 DUP7 PUSH2 0x2713 JUMP JUMPDEST PUSH1 0x17 SIGNEXTEND SWAP1 MSTORE SWAP12 POP POP POP POP POP POP POP POP POP POP POP POP SWAP5 SWAP4 POP POP POP POP JUMP JUMPDEST PUSH1 0x0 PUSH8 0xDE0B6B3A7640000 DUP2 DUP1 PUSH2 0x1936 DUP8 PUSH2 0x1E48 JUMP JUMPDEST SWAP2 POP SWAP2 POP PUSH1 0x0 DUP6 PUSH1 0x60 ADD MLOAD PUSH2 0x194B JUMPI DUP2 PUSH2 0x194D JUMP JUMPDEST DUP3 JUMPDEST SWAP1 POP PUSH1 0x0 DUP7 PUSH1 0x60 ADD MLOAD PUSH2 0x19C1 JUMPI DUP9 PUSH1 0x1 PUSH1 0x1 PUSH1 0xA0 SHL SUB AND PUSH4 0xF333FE13 PUSH1 0x40 MLOAD DUP2 PUSH4 0xFFFFFFFF AND PUSH1 0xE0 SHL DUP2 MSTORE PUSH1 0x4 ADD PUSH1 0x20 PUSH1 0x40 MLOAD DUP1 DUP4 SUB DUP2 DUP7 GAS STATICCALL ISZERO DUP1 ISZERO PUSH2 0x1998 JUMPI RETURNDATASIZE PUSH1 0x0 DUP1 RETURNDATACOPY RETURNDATASIZE PUSH1 0x0 REVERT JUMPDEST POP POP POP POP PUSH1 0x40 MLOAD RETURNDATASIZE PUSH1 0x1F NOT PUSH1 0x1F DUP3 ADD AND DUP3 ADD DUP1 PUSH1 0x40 MSTORE POP DUP2 ADD SWAP1 PUSH2 0x19BC SWAP2 SWAP1 PUSH2 0x2A65 JUMP JUMPDEST PUSH2 0x1A23 JUMP JUMPDEST DUP9 PUSH1 0x1 PUSH1 0x1 PUSH1 0xA0 SHL SUB AND PUSH4 0x2ACB3810 PUSH1 0x40 MLOAD DUP2 PUSH4 0xFFFFFFFF AND PUSH1 0xE0 SHL DUP2 MSTORE PUSH1 0x4 ADD PUSH1 0x20 PUSH1 0x40 MLOAD DUP1 DUP4 SUB DUP2 DUP7 GAS STATICCALL ISZERO DUP1 ISZERO PUSH2 0x19FF JUMPI RETURNDATASIZE PUSH1 0x0 DUP1 RETURNDATACOPY RETURNDATASIZE PUSH1 0x0 REVERT JUMPDEST POP POP POP POP PUSH1 0x40 MLOAD RETURNDATASIZE PUSH1 0x1F NOT PUSH1 0x1F DUP3 ADD AND DUP3 ADD DUP1 PUSH1 0x40 MSTORE POP DUP2 ADD SWAP1 PUSH2 0x1A23 SWAP2 SWAP1 PUSH2 0x2A65 JUMP JUMPDEST SWAP1 POP PUSH1 0x0 PUSH2 0x1A33 DUP9 DUP8 DUP6 DUP6 PUSH2 0x259B JUMP JUMPDEST SWAP1 POP PUSH1 0x0 DUP9 PUSH1 0x60 ADD MLOAD PUSH2 0x1A5A JUMPI PUSH2 0x1A55 DUP12 DUP12 PUSH2 0x1A50 DUP15 DUP15 DUP8 PUSH2 0x1B35 JUMP JUMPDEST PUSH2 0x2415 JUMP JUMPDEST PUSH2 0x1A6F JUMP JUMPDEST PUSH2 0x1A6F DUP12 DUP12 PUSH2 0x1A6A DUP15 DUP15 DUP8 PUSH2 0x1B35 JUMP JUMPDEST PUSH2 0x1DB3 JUMP JUMPDEST PUSH1 0x40 MLOAD PUSH4 0x274BC14F PUSH1 0xE2 SHL DUP2 MSTORE PUSH1 0x3 PUSH1 0x4 DUP3 ADD MSTORE SWAP1 SWAP2 POP PUSH1 0x0 SWAP1 PUSH1 0x1 PUSH1 0x1 PUSH1 0xA0 SHL SUB DUP14 AND SWAP1 PUSH4 0x9D2F053C SWAP1 PUSH1 0x24 ADD PUSH1 0x20 PUSH1 0x40 MLOAD DUP1 DUP4 SUB DUP2 DUP7 GAS STATICCALL ISZERO DUP1 ISZERO PUSH2 0x1ABA JUMPI RETURNDATASIZE PUSH1 0x0 DUP1 RETURNDATACOPY RETURNDATASIZE PUSH1 0x0 REVERT JUMPDEST POP POP POP POP PUSH1 0x40 MLOAD RETURNDATASIZE PUSH1 0x1F NOT PUSH1 0x1F DUP3 ADD AND DUP3 ADD DUP1 PUSH1 0x40 MSTORE POP DUP2 ADD SWAP1 PUSH2 0x1ADE SWAP2 SWAP1 PUSH2 0x2A65 JUMP JUMPDEST SWAP1 POP PUSH2 0xA1B DUP11 DUP10 DUP8 DUP8 DUP7 DUP7 PUSH2 0x279C JUMP JUMPDEST PUSH1 0x0 DUP1 PUSH2 0x1AFB DUP4 DUP6 PUSH2 0x2AAD JUMP JUMPDEST SWAP1 POP DUP1 PUSH2 0x1B0C JUMPI PUSH1 0x0 SWAP2 POP POP PUSH2 0xB80 JUMP JUMPDEST PUSH8 0xDE0B6B3A7640000 PUSH2 0x1B20 PUSH1 0x1 DUP4 PUSH2 0x2A96 JUMP JUMPDEST PUSH2 0x1B2A SWAP2 SWAP1 PUSH2 0x2CB3 JUMP JUMPDEST PUSH2 0xB38 SWAP1 PUSH1 0x1 PUSH2 0x2A7E JUMP JUMPDEST PUSH1 0x0 DUP1 PUSH2 0x1B42 DUP6 DUP6 PUSH2 0x21D3 JUMP JUMPDEST SWAP1 POP DUP1 PUSH2 0x1B54 JUMPI PUSH1 0x0 NOT SWAP2 POP POP PUSH2 0xA66 JUMP JUMPDEST PUSH2 0x7EC DUP4 DUP3 PUSH2 0x2052 JUMP JUMPDEST PUSH1 0x0 DUP1 PUSH1 0x0 DUP1 DUP7 PUSH1 0x1 PUSH1 0x1 PUSH1 0xA0 SHL SUB AND PUSH4 0xB445E2E7 PUSH1 0x40 MLOAD DUP2 PUSH4 0xFFFFFFFF AND PUSH1 0xE0 SHL DUP2 MSTORE PUSH1 0x4 ADD PUSH1 0x60 PUSH1 0x40 MLOAD DUP1 DUP4 SUB DUP2 DUP7 GAS STATICCALL ISZERO DUP1 ISZERO PUSH2 0x1BA2 JUMPI RETURNDATASIZE PUSH1 0x0 DUP1 RETURNDATACOPY RETURNDATASIZE PUSH1 0x0 REVERT JUMPDEST POP POP POP POP PUSH1 0x40 MLOAD RETURNDATASIZE PUSH1 0x1F NOT PUSH1 0x1F DUP3 ADD AND DUP3 ADD DUP1 PUSH1 0x40 MSTORE POP DUP2 ADD SWAP1 PUSH2 0x1BC6 SWAP2 SWAP1 PUSH2 0x2A18 JUMP JUMPDEST SWAP3 POP SWAP3 POP SWAP3 POP PUSH1 0x0 PUSH1 0x40 MLOAD DUP1 PUSH1 0x60 ADD PUSH1 0x40 MSTORE DUP1 DUP6 PUSH4 0xFFFFFFFF AND DUP2 MSTORE PUSH1 0x20 ADD DUP5 PUSH4 0xFFFFFFFF AND DUP2 MSTORE PUSH1 0x20 ADD DUP4 PUSH1 0x17 SIGNEXTEND DUP2 MSTORE POP SWAP1 POP PUSH1 0x0 DUP7 SWAP1 POP PUSH2 0x1C1A TIMESTAMP DUP10 PUSH1 0x20 ADD MLOAD DUP4 DUP6 PUSH2 0x16E8 SWAP1 SWAP4 SWAP3 SWAP2 SWAP1 PUSH4 0xFFFFFFFF AND JUMP JUMPDEST SWAP2 POP PUSH2 0x707 DUP3 PUSH1 0x40 ADD MLOAD PUSH1 0x17 SIGNEXTEND SWAP1 JUMP JUMPDEST PUSH1 0x0 PUSH8 0xDE0B6B3A7640000 DUP2 DUP1 PUSH2 0x1C40 DUP8 PUSH2 0x1E48 JUMP JUMPDEST SWAP2 POP SWAP2 POP PUSH1 0x0 DUP6 PUSH1 0x60 ADD MLOAD PUSH2 0x1C55 JUMPI DUP2 PUSH2 0x1C57 JUMP JUMPDEST DUP3 JUMPDEST SWAP1 POP PUSH1 0x0 DUP7 PUSH1 0x60 ADD MLOAD PUSH2 0x1CCB JUMPI DUP9 PUSH1 0x1 PUSH1 0x1 PUSH1 0xA0 SHL SUB AND PUSH4 0xF333FE13 PUSH1 0x40 MLOAD DUP2 PUSH4 0xFFFFFFFF AND PUSH1 0xE0 SHL DUP2 MSTORE PUSH1 0x4 ADD PUSH1 0x20 PUSH1 0x40 MLOAD DUP1 DUP4 SUB DUP2 DUP7 GAS STATICCALL ISZERO DUP1 ISZERO PUSH2 0x1CA2 JUMPI RETURNDATASIZE PUSH1 0x0 DUP1 RETURNDATACOPY RETURNDATASIZE PUSH1 0x0 REVERT JUMPDEST POP POP POP POP PUSH1 0x40 MLOAD RETURNDATASIZE PUSH1 0x1F NOT PUSH1 0x1F DUP3 ADD AND DUP3 ADD DUP1 PUSH1 0x40 MSTORE POP DUP2 ADD SWAP1 PUSH2 0x1CC6 SWAP2 SWAP1 PUSH2 0x2A65 JUMP JUMPDEST PUSH2 0x1D2D JUMP JUMPDEST DUP9 PUSH1 0x1 PUSH1 0x1 PUSH1 0xA0 SHL SUB AND PUSH4 0x2ACB3810 PUSH1 0x40 MLOAD DUP2 PUSH4 0xFFFFFFFF AND PUSH1 0xE0 SHL DUP2 MSTORE PUSH1 0x4 ADD PUSH1 0x20 PUSH1 0x40 MLOAD DUP1 DUP4 SUB DUP2 DUP7 GAS STATICCALL ISZERO DUP1 ISZERO PUSH2 0x1D09 JUMPI RETURNDATASIZE PUSH1 0x0 DUP1 RETURNDATACOPY RETURNDATASIZE PUSH1 0x0 REVERT JUMPDEST POP POP POP POP PUSH1 0x40 MLOAD RETURNDATASIZE PUSH1 0x1F NOT PUSH1 0x1F DUP3 ADD AND DUP3 ADD DUP1 PUSH1 0x40 MSTORE POP DUP2 ADD SWAP1 PUSH2 0x1D2D SWAP2 SWAP1 PUSH2 0x2A65 JUMP JUMPDEST SWAP1 POP PUSH1 0x0 PUSH2 0x1D3D DUP9 DUP8 DUP6 DUP6 PUSH2 0x259B JUMP JUMPDEST SWAP1 POP PUSH1 0x0 DUP9 PUSH1 0x60 ADD MLOAD PUSH2 0x1D5F JUMPI PUSH2 0x1D5A DUP12 DUP12 PUSH2 0x1A50 DUP15 DUP15 DUP8 PUSH2 0x1B35 JUMP JUMPDEST PUSH2 0x1534 JUMP JUMPDEST PUSH2 0x1534 DUP12 DUP12 PUSH2 0x1A6A DUP15 DUP15 DUP8 PUSH2 0x1B35 JUMP JUMPDEST PUSH1 0x0 DUP1 PUSH1 0x0 DUP1 DUP7 PUSH1 0x1 PUSH1 0x1 PUSH1 0xA0 SHL SUB AND PUSH4 0xD565CC33 PUSH1 0x40 MLOAD DUP2 PUSH4 0xFFFFFFFF AND PUSH1 0xE0 SHL DUP2 MSTORE PUSH1 0x4 ADD PUSH1 0x60 PUSH1 0x40 MLOAD DUP1 DUP4 SUB DUP2 DUP7 GAS STATICCALL ISZERO DUP1 ISZERO PUSH2 0x1BA2 JUMPI RETURNDATASIZE PUSH1 0x0 DUP1 RETURNDATACOPY RETURNDATASIZE PUSH1 0x0 REVERT JUMPDEST PUSH1 0x0 DUP1 PUSH2 0x1DC1 DUP6 DUP6 DUP6 PUSH2 0x1B5E JUMP JUMPDEST PUSH1 0x40 MLOAD PUSH4 0x8607F5C3 PUSH1 0xE0 SHL DUP2 MSTORE SWAP1 SWAP2 POP PUSH1 0x1 PUSH1 0x1 PUSH1 0xA0 SHL SUB DUP7 AND SWAP1 PUSH4 0x8607F5C3 SWAP1 PUSH2 0x1DF2 SWAP1 DUP8 SWAP1 DUP6 SWAP1 PUSH1 0x4 ADD PUSH2 0x2CD5 JUMP JUMPDEST PUSH1 0x20 PUSH1 0x40 MLOAD DUP1 DUP4 SUB DUP2 DUP7 GAS STATICCALL ISZERO DUP1 ISZERO PUSH2 0x1E0F JUMPI RETURNDATASIZE PUSH1 0x0 DUP1 RETURNDATACOPY RETURNDATASIZE PUSH1 0x0 REVERT JUMPDEST POP POP POP POP PUSH1 0x40 MLOAD RETURNDATASIZE PUSH1 0x1F NOT PUSH1 0x1F DUP3 ADD AND DUP3 ADD DUP1 PUSH1 0x40 MSTORE POP DUP2 ADD SWAP1 PUSH2 0x7EC SWAP2 SWAP1 PUSH2 0x2A65 JUMP JUMPDEST PUSH1 0x0 PUSH8 0xDE0B6B3A7640000 PUSH2 0xA66 DUP4 DUP3 PUSH2 0x27C7 JUMP JUMPDEST PUSH1 0x0 DUP1 DUP3 PUSH1 0x1 PUSH1 0x1 PUSH1 0xA0 SHL SUB AND PUSH4 0x5DEDDE6D PUSH1 0x40 MLOAD DUP2 PUSH4 0xFFFFFFFF AND PUSH1 0xE0 SHL DUP2 MSTORE PUSH1 0x4 ADD PUSH1 0x20 PUSH1 0x40 MLOAD DUP1 DUP4 SUB DUP2 DUP7 GAS STATICCALL ISZERO DUP1 ISZERO PUSH2 0x1E89 JUMPI RETURNDATASIZE PUSH1 0x0 DUP1 RETURNDATACOPY RETURNDATASIZE PUSH1 0x0 REVERT JUMPDEST POP POP POP POP PUSH1 0x40 MLOAD RETURNDATASIZE PUSH1 0x1F NOT PUSH1 0x1F DUP3 ADD AND DUP3 ADD DUP1 PUSH1 0x40 MSTORE POP DUP2 ADD SWAP1 PUSH2 0x1EAD SWAP2 SWAP1 PUSH2 0x2A65 JUMP JUMPDEST SWAP2 POP DUP3 PUSH1 0x1 PUSH1 0x1 PUSH1 0xA0 SHL SUB AND PUSH4 0x9163014 PUSH1 0x40 MLOAD DUP2 PUSH4 0xFFFFFFFF AND PUSH1 0xE0 SHL DUP2 MSTORE PUSH1 0x4 ADD PUSH1 0x20 PUSH1 0x40 MLOAD DUP1 DUP4 SUB DUP2 DUP7 GAS STATICCALL ISZERO DUP1 ISZERO PUSH2 0x1EED JUMPI RETURNDATASIZE PUSH1 0x0 DUP1 RETURNDATACOPY RETURNDATASIZE PUSH1 0x0 REVERT JUMPDEST POP POP POP POP PUSH1 0x40 MLOAD RETURNDATASIZE PUSH1 0x1F NOT PUSH1 0x1F DUP3 ADD AND DUP3 ADD DUP1 PUSH1 0x40 MSTORE POP DUP2 ADD SWAP1 PUSH2 0x1F11 SWAP2 SWAP1 PUSH2 0x2A65 JUMP JUMPDEST SWAP1 POP PUSH1 0x0 DUP4 PUSH1 0x1 PUSH1 0x1 PUSH1 0xA0 SHL SUB AND PUSH4 0xC6838E8B PUSH1 0x40 MLOAD DUP2 PUSH4 0xFFFFFFFF AND PUSH1 0xE0 SHL DUP2 MSTORE PUSH1 0x4 ADD PUSH1 0x20 PUSH1 0x40 MLOAD DUP1 DUP4 SUB DUP2 DUP7 GAS STATICCALL ISZERO DUP1 ISZERO PUSH2 0x1F53 JUMPI RETURNDATASIZE PUSH1 0x0 DUP1 RETURNDATACOPY RETURNDATASIZE PUSH1 0x0 REVERT JUMPDEST POP POP POP POP PUSH1 0x40 MLOAD RETURNDATASIZE PUSH1 0x1F NOT PUSH1 0x1F DUP3 ADD AND DUP3 ADD DUP1 PUSH1 0x40 MSTORE POP DUP2 ADD SWAP1 PUSH2 0x1F77 SWAP2 SWAP1 PUSH2 0x2A65 JUMP JUMPDEST PUSH2 0x1F81 SWAP1 TIMESTAMP PUSH2 0x2A96 JUMP JUMPDEST SWAP1 POP DUP1 ISZERO PUSH2 0x204C JUMPI DUP2 DUP4 GT PUSH1 0x0 DUP2 PUSH2 0x1F99 JUMPI DUP4 PUSH2 0x1F9B JUMP JUMPDEST DUP5 JUMPDEST SWAP1 POP PUSH1 0x0 DUP3 PUSH2 0x1FAA JUMPI DUP6 PUSH2 0x1FAC JUMP JUMPDEST DUP5 JUMPDEST PUSH1 0x40 MLOAD PUSH4 0x9F0A5459 PUSH1 0xE0 SHL DUP2 MSTORE PUSH1 0x4 DUP2 ADD DUP5 SWAP1 MSTORE PUSH1 0x24 DUP2 ADD DUP3 SWAP1 MSTORE PUSH1 0x44 DUP2 ADD DUP7 SWAP1 MSTORE SWAP1 SWAP2 POP PUSH1 0x1 PUSH1 0x1 PUSH1 0xA0 SHL SUB DUP9 AND SWAP1 PUSH4 0x9F0A5459 SWAP1 PUSH1 0x64 ADD PUSH1 0x40 DUP1 MLOAD DUP1 DUP4 SUB DUP2 DUP7 GAS STATICCALL ISZERO DUP1 ISZERO PUSH2 0x2001 JUMPI RETURNDATASIZE PUSH1 0x0 DUP1 RETURNDATACOPY RETURNDATASIZE PUSH1 0x0 REVERT JUMPDEST POP POP POP POP PUSH1 0x40 MLOAD RETURNDATASIZE PUSH1 0x1F NOT PUSH1 0x1F DUP3 ADD AND DUP3 ADD DUP1 PUSH1 0x40 MSTORE POP DUP2 ADD SWAP1 PUSH2 0x2025 SWAP2 SWAP1 PUSH2 0x2D3D JUMP JUMPDEST SWAP1 SWAP3 POP SWAP1 POP DUP3 PUSH2 0x2035 JUMPI DUP1 PUSH2 0x2037 JUMP JUMPDEST DUP2 JUMPDEST SWAP6 POP DUP3 PUSH2 0x2044 JUMPI DUP2 PUSH2 0x2046 JUMP JUMPDEST DUP1 JUMPDEST SWAP5 POP POP POP POP JUMPDEST POP SWAP2 POP SWAP2 JUMP JUMPDEST PUSH1 0x0 DUP3 PUSH2 0x2061 JUMPI POP PUSH1 0x0 PUSH2 0xB80 JUMP JUMPDEST PUSH1 0x0 PUSH2 0x2075 PUSH8 0xDE0B6B3A7640000 DUP6 PUSH2 0x2AAD JUMP JUMPDEST SWAP1 POP PUSH2 0xB38 DUP4 DUP3 PUSH2 0x2CB3 JUMP JUMPDEST PUSH1 0x0 DUP1 PUSH2 0x208E DUP4 DUP6 PUSH2 0x2AAD JUMP JUMPDEST SWAP1 POP PUSH2 0xB38 PUSH8 0xDE0B6B3A7640000 DUP3 PUSH2 0x2CB3 JUMP JUMPDEST PUSH1 0x0 PUSH2 0xB80 DUP3 PUSH1 0x60 ADD MLOAD DUP4 PUSH1 0x80 ADD MLOAD PUSH2 0x27EF JUMP JUMPDEST PUSH1 0x0 PUSH8 0xDE0B6B3A7640000 DUP2 DUP1 PUSH2 0x20CC DUP7 PUSH2 0x1E48 JUMP JUMPDEST SWAP2 POP SWAP2 POP PUSH1 0x0 DUP6 PUSH1 0x60 ADD MLOAD PUSH2 0x20E1 JUMPI DUP2 PUSH2 0x20E3 JUMP JUMPDEST DUP3 JUMPDEST SWAP1 POP PUSH1 0x0 DUP7 PUSH1 0x60 ADD MLOAD PUSH2 0x2157 JUMPI DUP8 PUSH1 0x1 PUSH1 0x1 PUSH1 0xA0 SHL SUB AND PUSH4 0xF333FE13 PUSH1 0x40 MLOAD DUP2 PUSH4 0xFFFFFFFF AND PUSH1 0xE0 SHL DUP2 MSTORE PUSH1 0x4 ADD PUSH1 0x20 PUSH1 0x40 MLOAD DUP1 DUP4 SUB DUP2 DUP7 GAS STATICCALL ISZERO DUP1 ISZERO PUSH2 0x212E JUMPI RETURNDATASIZE PUSH1 0x0 DUP1 RETURNDATACOPY RETURNDATASIZE PUSH1 0x0 REVERT JUMPDEST POP POP POP POP PUSH1 0x40 MLOAD RETURNDATASIZE PUSH1 0x1F NOT PUSH1 0x1F DUP3 ADD AND DUP3 ADD DUP1 PUSH1 0x40 MSTORE POP DUP2 ADD SWAP1 PUSH2 0x2152 SWAP2 SWAP1 PUSH2 0x2A65 JUMP JUMPDEST PUSH2 0x21B9 JUMP JUMPDEST DUP8 PUSH1 0x1 PUSH1 0x1 PUSH1 0xA0 SHL SUB AND PUSH4 0x2ACB3810 PUSH1 0x40 MLOAD DUP2 PUSH4 0xFFFFFFFF AND PUSH1 0xE0 SHL DUP2 MSTORE PUSH1 0x4 ADD PUSH1 0x20 PUSH1 0x40 MLOAD DUP1 DUP4 SUB DUP2 DUP7 GAS STATICCALL ISZERO DUP1 ISZERO PUSH2 0x2195 JUMPI RETURNDATASIZE PUSH1 0x0 DUP1 RETURNDATACOPY RETURNDATASIZE PUSH1 0x0 REVERT JUMPDEST POP POP POP POP PUSH1 0x40 MLOAD RETURNDATASIZE PUSH1 0x1F NOT PUSH1 0x1F DUP3 ADD AND DUP3 ADD DUP1 PUSH1 0x40 MSTORE POP DUP2 ADD SWAP1 PUSH2 0x21B9 SWAP2 SWAP1 PUSH2 0x2A65 JUMP JUMPDEST SWAP1 POP PUSH2 0x21C7 DUP8 DUP7 DUP5 DUP5 PUSH2 0x259B JUMP JUMPDEST SWAP9 SWAP8 POP POP POP POP POP POP POP POP JUMP JUMPDEST PUSH1 0x40 MLOAD PUSH4 0x274BC14F PUSH1 0xE2 SHL DUP2 MSTORE PUSH1 0x4 DUP2 DUP2 ADD MSTORE PUSH1 0x0 SWAP1 DUP2 SWAP1 PUSH1 0x1 PUSH1 0x1 PUSH1 0xA0 SHL SUB DUP6 AND SWAP1 PUSH4 0x9D2F053C SWAP1 PUSH1 0x24 ADD PUSH1 0x20 PUSH1 0x40 MLOAD DUP1 DUP4 SUB DUP2 DUP7 GAS STATICCALL ISZERO DUP1 ISZERO PUSH2 0x221C JUMPI RETURNDATASIZE PUSH1 0x0 DUP1 RETURNDATACOPY RETURNDATASIZE PUSH1 0x0 REVERT JUMPDEST POP POP POP POP PUSH1 0x40 MLOAD RETURNDATASIZE PUSH1 0x1F NOT PUSH1 0x1F DUP3 ADD AND DUP3 ADD DUP1 PUSH1 0x40 MSTORE POP DUP2 ADD SWAP1 PUSH2 0x2240 SWAP2 SWAP1 PUSH2 0x2A65 JUMP JUMPDEST PUSH1 0x40 MLOAD PUSH4 0xECC16191 PUSH1 0xE0 SHL DUP2 MSTORE SWAP1 SWAP2 POP PUSH1 0x1 PUSH1 0x1 PUSH1 0xA0 SHL SUB DUP6 AND SWAP1 PUSH4 0xECC16191 SWAP1 PUSH2 0x2271 SWAP1 DUP7 SWAP1 DUP6 SWAP1 PUSH1 0x4 ADD PUSH2 0x2CD5 JUMP JUMPDEST PUSH1 0x20 PUSH1 0x40 MLOAD DUP1 DUP4 SUB DUP2 DUP7 GAS STATICCALL ISZERO DUP1 ISZERO PUSH2 0x228E JUMPI RETURNDATASIZE PUSH1 0x0 DUP1 RETURNDATACOPY RETURNDATASIZE PUSH1 0x0 REVERT JUMPDEST POP POP POP POP PUSH1 0x40 MLOAD RETURNDATASIZE PUSH1 0x1F NOT PUSH1 0x1F DUP3 ADD AND DUP3 ADD DUP1 PUSH1 0x40 MSTORE POP DUP2 ADD SWAP1 PUSH2 0x22B2 SWAP2 SWAP1 PUSH2 0x2A65 JUMP JUMPDEST SWAP1 POP PUSH2 0xB38 DUP4 DUP3 PUSH2 0x280A JUMP JUMPDEST PUSH1 0x0 PUSH8 0xDE0B6B3A7640000 DUP2 PUSH2 0x22D4 DUP5 DUP4 PUSH2 0x26D7 JUMP JUMPDEST SWAP1 POP PUSH1 0x0 PUSH2 0x22E2 DUP6 DUP5 PUSH2 0x2576 JUMP JUMPDEST SWAP1 POP PUSH1 0x0 PUSH2 0x22F0 DUP7 DUP6 PUSH2 0x2872 JUMP JUMPDEST SWAP1 POP PUSH1 0x0 DUP1 PUSH2 0x22FE DUP10 PUSH2 0x1E48 JUMP JUMPDEST SWAP2 POP SWAP2 POP PUSH1 0x0 DUP9 PUSH1 0x60 ADD MLOAD PUSH2 0x2313 JUMPI DUP2 PUSH2 0x2315 JUMP JUMPDEST DUP3 JUMPDEST SWAP1 POP PUSH1 0x0 DUP10 PUSH1 0x60 ADD MLOAD PUSH2 0x2389 JUMPI DUP11 PUSH1 0x1 PUSH1 0x1 PUSH1 0xA0 SHL SUB AND PUSH4 0xF333FE13 PUSH1 0x40 MLOAD DUP2 PUSH4 0xFFFFFFFF AND PUSH1 0xE0 SHL DUP2 MSTORE PUSH1 0x4 ADD PUSH1 0x20 PUSH1 0x40 MLOAD DUP1 DUP4 SUB DUP2 DUP7 GAS STATICCALL ISZERO DUP1 ISZERO PUSH2 0x2360 JUMPI RETURNDATASIZE PUSH1 0x0 DUP1 RETURNDATACOPY RETURNDATASIZE PUSH1 0x0 REVERT JUMPDEST POP POP POP POP PUSH1 0x40 MLOAD RETURNDATASIZE PUSH1 0x1F NOT PUSH1 0x1F DUP3 ADD AND DUP3 ADD DUP1 PUSH1 0x40 MSTORE POP DUP2 ADD SWAP1 PUSH2 0x2384 SWAP2 SWAP1 PUSH2 0x2A65 JUMP JUMPDEST PUSH2 0x23EB JUMP JUMPDEST DUP11 PUSH1 0x1 PUSH1 0x1 PUSH1 0xA0 SHL SUB AND PUSH4 0x2ACB3810 PUSH1 0x40 MLOAD DUP2 PUSH4 0xFFFFFFFF AND PUSH1 0xE0 SHL DUP2 MSTORE PUSH1 0x4 ADD PUSH1 0x20 PUSH1 0x40 MLOAD DUP1 DUP4 SUB DUP2 DUP7 GAS STATICCALL ISZERO DUP1 ISZERO PUSH2 0x23C7 JUMPI RETURNDATASIZE PUSH1 0x0 DUP1 RETURNDATACOPY RETURNDATASIZE PUSH1 0x0 REVERT JUMPDEST POP POP POP POP PUSH1 0x40 MLOAD RETURNDATASIZE PUSH1 0x1F NOT PUSH1 0x1F DUP3 ADD AND DUP3 ADD DUP1 PUSH1 0x40 MSTORE POP DUP2 ADD SWAP1 PUSH2 0x23EB SWAP2 SWAP1 PUSH2 0x2A65 JUMP JUMPDEST SWAP1 POP PUSH1 0x0 PUSH2 0x23FB DUP12 DUP11 DUP6 DUP6 PUSH2 0x259B JUMP JUMPDEST SWAP1 POP PUSH2 0xA1B DUP8 PUSH2 0x240F DUP9 PUSH2 0xE81 DUP13 DUP7 PUSH2 0x1AEE JUMP JUMPDEST SWAP1 PUSH2 0x24DA JUMP JUMPDEST PUSH1 0x0 DUP1 PUSH2 0x2423 DUP6 DUP6 DUP6 PUSH2 0x1D6F JUMP JUMPDEST PUSH1 0x40 MLOAD PUSH4 0x176D4AE1 PUSH1 0xE1 SHL DUP2 MSTORE SWAP1 SWAP2 POP PUSH1 0x1 PUSH1 0x1 PUSH1 0xA0 SHL SUB DUP7 AND SWAP1 PUSH4 0x2EDA95C2 SWAP1 PUSH2 0x1DF2 SWAP1 DUP8 SWAP1 DUP6 SWAP1 PUSH1 0x4 ADD PUSH2 0x2CD5 JUMP JUMPDEST PUSH1 0x0 DUP1 PUSH2 0x2460 DUP4 PUSH2 0x2883 JUMP JUMPDEST SWAP1 POP PUSH1 0x0 PUSH2 0x246F DUP5 PUSH1 0xA0 ADD MLOAD SWAP1 JUMP JUMPDEST SWAP1 POP PUSH1 0x0 PUSH2 0x2489 DUP6 MLOAD PUSH12 0xFFFFFFFFFFFFFFFFFFFFFFFF AND SWAP1 JUMP JUMPDEST SWAP1 POP DUP2 PUSH2 0x249B JUMPI POP PUSH1 0x0 SWAP5 SWAP4 POP POP POP POP JUMP JUMPDEST PUSH2 0x7EC DUP3 PUSH2 0xE81 DUP6 DUP5 PUSH2 0x1AEE JUMP JUMPDEST PUSH1 0x0 DUP3 PUSH2 0x24B8 JUMPI POP PUSH1 0x0 PUSH2 0xB80 JUMP JUMPDEST PUSH1 0x0 PUSH2 0x24CC PUSH8 0xDE0B6B3A7640000 DUP6 PUSH2 0x2AAD JUMP JUMPDEST SWAP1 POP DUP3 PUSH2 0x1B20 PUSH1 0x1 DUP4 PUSH2 0x2A96 JUMP JUMPDEST PUSH1 0x0 DUP1 DUP3 DUP5 GT PUSH2 0x24EB JUMPI PUSH1 0x0 PUSH2 0xB38 JUMP JUMPDEST PUSH2 0xB38 DUP4 DUP6 PUSH2 0x2A96 JUMP JUMPDEST PUSH1 0x0 PUSH8 0xDE0B6B3A7640000 DUP2 PUSH2 0x250B DUP11 DUP4 PUSH2 0x26D7 JUMP JUMPDEST SWAP1 POP DUP10 PUSH1 0x80 ADD MLOAD DUP1 PUSH2 0x251B JUMPI POP DUP1 ISZERO JUMPDEST ISZERO PUSH2 0x252B JUMPI PUSH1 0x0 SWAP3 POP POP POP PUSH2 0x526 JUMP JUMPDEST PUSH1 0x0 PUSH2 0x253B DUP12 DUP5 DUP13 DUP13 DUP13 DUP13 PUSH2 0x25D2 JUMP JUMPDEST SWAP1 POP PUSH1 0x0 PUSH2 0x2549 DUP4 DUP9 PUSH2 0x1AEE JUMP JUMPDEST SWAP1 POP PUSH1 0x0 PUSH2 0x2557 DUP4 DUP9 PUSH2 0x2081 JUMP JUMPDEST SWAP1 POP PUSH2 0x2563 DUP2 DUP4 PUSH2 0x2A7E JUMP JUMPDEST SWAP1 SWAP3 LT SWAP13 SWAP12 POP POP POP POP POP POP POP POP POP POP POP POP JUMP JUMPDEST PUSH1 0x0 PUSH2 0xA66 DUP3 PUSH2 0x2595 DUP6 PUSH1 0x20 ADD MLOAD PUSH12 0xFFFFFFFFFFFFFFFFFFFFFFFF AND SWAP1 JUMP JUMPDEST SWAP1 PUSH2 0x1AEE JUMP JUMPDEST PUSH1 0x0 DUP1 PUSH2 0x25A8 DUP7 DUP7 PUSH2 0x2872 JUMP JUMPDEST SWAP1 POP DUP1 ISZERO DUP1 PUSH2 0x25B5 JUMPI POP DUP4 ISZERO JUMPDEST ISZERO PUSH2 0x25C4 JUMPI PUSH1 0x0 SWAP2 POP POP PUSH2 0xB38 JUMP JUMPDEST PUSH2 0x557 DUP4 PUSH2 0xE81 DUP4 DUP8 PUSH2 0x1AEE JUMP JUMPDEST PUSH1 0x0 DUP1 PUSH2 0x25DF DUP9 DUP9 PUSH2 0x2872 JUMP JUMPDEST SWAP1 POP PUSH1 0x0 PUSH2 0x25ED DUP10 DUP10 PUSH2 0x26D7 JUMP JUMPDEST SWAP1 POP PUSH1 0x0 PUSH2 0x25FB DUP11 DUP11 PUSH2 0x2576 JUMP JUMPDEST SWAP1 POP PUSH1 0x0 PUSH2 0x260B DUP12 DUP12 DUP12 DUP12 PUSH2 0x259B JUMP JUMPDEST SWAP1 POP PUSH1 0x0 PUSH2 0x2618 DUP13 PUSH2 0x2454 JUMP JUMPDEST SWAP1 POP DUP12 PUSH1 0x60 ADD MLOAD ISZERO PUSH2 0x2694 JUMPI PUSH2 0x2655 PUSH2 0x2631 DUP4 DUP11 PUSH2 0x1AEE JUMP JUMPDEST PUSH2 0x2650 PUSH2 0x2646 DUP11 PUSH8 0xDE0B6B3A7640000 PUSH2 0x2A7E JUMP JUMPDEST PUSH2 0x2595 DUP7 DUP7 PUSH2 0x1AEE JUMP JUMPDEST PUSH2 0x289F JUMP JUMPDEST PUSH2 0x2663 DUP7 PUSH2 0xE81 DUP8 DUP7 PUSH2 0x1AEE JUMP JUMPDEST PUSH2 0x266D SWAP2 SWAP1 PUSH2 0x2A7E JUMP JUMPDEST SWAP6 POP PUSH2 0x268D PUSH2 0x267C DUP4 DUP4 PUSH2 0x1AEE JUMP JUMPDEST PUSH2 0x2686 SWAP1 DUP6 PUSH2 0x2A7E JUMP JUMPDEST DUP8 SWAP1 PUSH2 0x24DA JUMP JUMPDEST SWAP6 POP PUSH2 0x26C8 JUMP JUMPDEST PUSH2 0x269E DUP3 DUP3 PUSH2 0x1AEE JUMP JUMPDEST PUSH2 0x26AC DUP7 PUSH2 0xE81 DUP8 DUP7 PUSH2 0x1AEE JUMP JUMPDEST PUSH2 0x26B6 SWAP2 SWAP1 PUSH2 0x2A7E JUMP JUMPDEST SWAP6 POP PUSH2 0x26C5 PUSH2 0x267C DUP4 DUP11 PUSH2 0x1AEE JUMP JUMPDEST SWAP6 POP JUMPDEST POP POP POP POP POP SWAP7 SWAP6 POP POP POP POP POP POP JUMP JUMPDEST PUSH1 0x0 PUSH2 0xA66 DUP3 PUSH2 0x2595 DUP6 MLOAD PUSH12 0xFFFFFFFFFFFFFFFFFFFFFFFF AND SWAP1 JUMP JUMPDEST PUSH1 0x0 DUP1 PUSH4 0xFFFFFFFF DUP4 GT ISZERO PUSH2 0x270C JUMPI PUSH4 0xFFFFFFFF PUSH2 0xA66 JUMP JUMPDEST POP SWAP1 SWAP2 SWAP1 POP JUMP JUMPDEST PUSH1 0x0 DUP1 PUSH1 0x1 PUSH1 0x1 PUSH1 0xBF SHL SUB NOT DUP4 SLT DUP1 ISZERO SWAP1 PUSH2 0x2746 JUMPI POP PUSH24 0x7FFFFFFFFFFFFFFFFFFFFFFFFFFFFFFFFFFFFFFFFFFFFFFF DUP4 SGT ISZERO JUMPDEST PUSH2 0x270C JUMPI PUSH1 0x1 PUSH1 0x1 PUSH1 0xBF SHL SUB NOT DUP4 SLT PUSH2 0x2777 JUMPI PUSH24 0x7FFFFFFFFFFFFFFFFFFFFFFFFFFFFFFFFFFFFFFFFFFFFFFF PUSH2 0xA66 JUMP JUMPDEST PUSH1 0x1 PUSH1 0x1 PUSH1 0xBF SHL SUB NOT PUSH2 0xA66 JUMP JUMPDEST PUSH1 0x0 DUP1 DUP3 SLT ISZERO PUSH2 0x2798 JUMPI DUP2 PUSH1 0x0 SUB PUSH2 0xB80 JUMP JUMPDEST POP SWAP1 JUMP JUMPDEST PUSH1 0x0 DUP1 PUSH2 0x27AD DUP9 DUP9 DUP9 DUP9 DUP9 DUP9 PUSH2 0x25D2 JUMP JUMPDEST SWAP1 POP PUSH1 0x0 PUSH2 0x27BB DUP10 DUP10 PUSH2 0x2576 JUMP JUMPDEST SWAP1 POP PUSH2 0x707 DUP2 DUP4 PUSH2 0x2A7E JUMP JUMPDEST PUSH1 0x0 DUP1 PUSH2 0x27D4 DUP5 DUP5 PUSH2 0x26D7 JUMP JUMPDEST SWAP1 POP PUSH1 0x0 PUSH2 0x27E2 DUP6 DUP6 PUSH2 0x2576 JUMP JUMPDEST SWAP1 POP DUP2 PUSH2 0x557 DUP2 DUP4 PUSH2 0x24DA JUMP JUMPDEST PUSH1 0x0 PUSH2 0x27FE PUSH1 0x2 DUP5 DUP5 XOR PUSH2 0x2CB3 JUMP JUMPDEST PUSH2 0xA66 SWAP1 DUP5 DUP5 AND PUSH2 0x2A7E JUMP JUMPDEST PUSH1 0x0 DUP1 PUSH2 0x2816 DUP5 PUSH2 0x20A2 JUMP JUMPDEST SWAP1 POP PUSH1 0x0 DUP2 GT PUSH2 0x2868 JUMPI PUSH1 0x40 MLOAD PUSH3 0x461BCD PUSH1 0xE5 SHL DUP2 MSTORE PUSH1 0x20 PUSH1 0x4 DUP3 ADD MSTORE PUSH1 0xC PUSH1 0x24 DUP3 ADD MSTORE PUSH32 0x4F564C56313A6D69643D3D300000000000000000000000000000000000000000 PUSH1 0x44 DUP3 ADD MSTORE PUSH1 0x64 ADD PUSH2 0xE4C JUMP JUMPDEST PUSH2 0xB38 DUP4 DUP3 PUSH2 0x2052 JUMP JUMPDEST PUSH1 0x0 PUSH2 0xA66 DUP3 PUSH2 0x2595 DUP6 PUSH1 0xA0 ADD MLOAD SWAP1 JUMP JUMPDEST PUSH1 0x0 PUSH2 0x2710 DUP3 PUSH1 0x40 ADD MLOAD PUSH6 0xFFFFFFFFFFFF AND PUSH2 0xB80 SWAP2 SWAP1 PUSH2 0x2AAD JUMP JUMPDEST PUSH1 0x0 DUP2 DUP4 LT PUSH2 0x270C JUMPI DUP2 PUSH2 0xA66 JUMP JUMPDEST PUSH1 0x1 PUSH1 0x1 PUSH1 0xA0 SHL SUB DUP2 AND DUP2 EQ PUSH2 0x28C3 JUMPI PUSH1 0x0 DUP1 REVERT JUMPDEST POP JUMP JUMPDEST PUSH1 0x0 DUP1 PUSH1 0x0 PUSH1 0x60 DUP5 DUP7 SUB SLT ISZERO PUSH2 0x28DB JUMPI PUSH1 0x0 DUP1 REVERT JUMPDEST DUP4 CALLDATALOAD PUSH2 0x28E6 DUP2 PUSH2 0x28AE JUMP JUMPDEST SWAP3 POP PUSH1 0x20 DUP5 ADD CALLDATALOAD PUSH2 0x28F6 DUP2 PUSH2 0x28AE JUMP JUMPDEST SWAP3 SWAP6 SWAP3 SWAP5 POP POP POP PUSH1 0x40 SWAP2 SWAP1 SWAP2 ADD CALLDATALOAD SWAP1 JUMP JUMPDEST PUSH1 0x0 PUSH1 0x20 DUP3 DUP5 SUB SLT ISZERO PUSH2 0x2919 JUMPI PUSH1 0x0 DUP1 REVERT JUMPDEST DUP2 CALLDATALOAD PUSH2 0xA66 DUP2 PUSH2 0x28AE JUMP JUMPDEST PUSH1 0x0 DUP1 PUSH1 0x40 DUP4 DUP6 SUB SLT ISZERO PUSH2 0x2937 JUMPI PUSH1 0x0 DUP1 REVERT JUMPDEST DUP3 CALLDATALOAD PUSH2 0x2942 DUP2 PUSH2 0x28AE JUMP JUMPDEST SWAP5 PUSH1 0x20 SWAP4 SWAP1 SWAP4 ADD CALLDATALOAD SWAP4 POP POP POP JUMP JUMPDEST PUSH2 0x100 DUP2 ADD PUSH2 0xB80 DUP3 DUP5 DUP1 MLOAD DUP3 MSTORE PUSH1 0x20 DUP2 ADD MLOAD PUSH1 0x20 DUP4 ADD MSTORE PUSH1 0x40 DUP2 ADD MLOAD PUSH1 0x40 DUP4 ADD MSTORE PUSH1 0x60 DUP2 ADD MLOAD PUSH1 0x60 DUP4 ADD MSTORE PUSH1 0x80 DUP2 ADD MLOAD PUSH1 0x80 DUP4 ADD MSTORE PUSH1 0xA0 DUP2 ADD MLOAD PUSH1 0xA0 DUP4 ADD MSTORE PUSH1 0xC0 DUP2 ADD MLOAD PUSH1 0xC0 DUP4 ADD MSTORE PUSH1 0xE0 DUP2 ADD MLOAD ISZERO ISZERO PUSH1 0xE0 DUP4 ADD MSTORE POP POP JUMP JUMPDEST PUSH4 0x4E487B71 PUSH1 0xE0 SHL PUSH1 0x0 MSTORE PUSH1 0x11 PUSH1 0x4 MSTORE PUSH1 0x24 PUSH1 0x0 REVERT JUMPDEST PUSH1 0x0 DUP1 DUP4 SLT DUP1 ISZERO PUSH1 0x1 PUSH1 0xFF SHL DUP6 ADD DUP5 SLT AND ISZERO PUSH2 0x29DE JUMPI PUSH2 0x29DE PUSH2 0x29AA JUMP JUMPDEST DUP4 PUSH1 0x1 PUSH1 0x1 PUSH1 0xFF SHL SUB ADD DUP4 SGT DUP2 AND ISZERO PUSH2 0x29F9 JUMPI PUSH2 0x29F9 PUSH2 0x29AA JUMP JUMPDEST POP POP SUB SWAP1 JUMP JUMPDEST DUP1 MLOAD PUSH4 0xFFFFFFFF DUP2 AND DUP2 EQ PUSH2 0x2A13 JUMPI PUSH1 0x0 DUP1 REVERT JUMPDEST SWAP2 SWAP1 POP JUMP JUMPDEST PUSH1 0x0 DUP1 PUSH1 0x0 PUSH1 0x60 DUP5 DUP7 SUB SLT ISZERO PUSH2 0x2A2D JUMPI PUSH1 0x0 DUP1 REVERT JUMPDEST PUSH2 0x2A36 DUP5 PUSH2 0x29FF JUMP JUMPDEST SWAP3 POP PUSH2 0x2A44 PUSH1 0x20 DUP6 ADD PUSH2 0x29FF JUMP JUMPDEST SWAP2 POP PUSH1 0x40 DUP5 ADD MLOAD DUP1 PUSH1 0x17 SIGNEXTEND DUP2 EQ PUSH2 0x2A5A JUMPI PUSH1 0x0 DUP1 REVERT JUMPDEST DUP1 SWAP2 POP POP SWAP3 POP SWAP3 POP SWAP3 JUMP JUMPDEST PUSH1 0x0 PUSH1 0x20 DUP3 DUP5 SUB SLT ISZERO PUSH2 0x2A77 JUMPI PUSH1 0x0 DUP1 REVERT JUMPDEST POP MLOAD SWAP2 SWAP1 POP JUMP JUMPDEST PUSH1 0x0 DUP3 NOT DUP3 GT ISZERO PUSH2 0x2A91 JUMPI PUSH2 0x2A91 PUSH2 0x29AA JUMP JUMPDEST POP ADD SWAP1 JUMP JUMPDEST PUSH1 0x0 DUP3 DUP3 LT ISZERO PUSH2 0x2AA8 JUMPI PUSH2 0x2AA8 PUSH2 0x29AA JUMP JUMPDEST POP SUB SWAP1 JUMP JUMPDEST PUSH1 0x0 DUP2 PUSH1 0x0 NOT DIV DUP4 GT DUP3 ISZERO ISZERO AND ISZERO PUSH2 0x2AC7 JUMPI PUSH2 0x2AC7 PUSH2 0x29AA JUMP JUMPDEST POP MUL SWAP1 JUMP JUMPDEST PUSH1 0x0 PUSH1 0x1 PUSH1 0xFF SHL DUP3 EQ ISZERO PUSH2 0x2AE2 JUMPI PUSH2 0x2AE2 PUSH2 0x29AA JUMP JUMPDEST POP PUSH1 0x0 SUB SWAP1 JUMP JUMPDEST PUSH1 0x0 PUSH1 0x20 DUP3 DUP5 SUB SLT ISZERO PUSH2 0x2AFB JUMPI PUSH1 0x0 DUP1 REVERT JUMPDEST DUP2 MLOAD PUSH2 0xA66 DUP2 PUSH2 0x28AE JUMP JUMPDEST DUP1 MLOAD DUP1 ISZERO ISZERO DUP2 EQ PUSH2 0x2A13 JUMPI PUSH1 0x0 DUP1 REVERT JUMPDEST PUSH1 0x0 PUSH2 0x100 DUP1 DUP4 DUP6 SUB SLT ISZERO PUSH2 0x2B2A JUMPI PUSH1 0x0 DUP1 REVERT JUMPDEST PUSH1 0x40 MLOAD SWAP1 DUP2 ADD SWAP1 PUSH8 0xFFFFFFFFFFFFFFFF DUP3 GT DUP2 DUP4 LT OR ISZERO PUSH2 0x2B5B JUMPI PUSH4 0x4E487B71 PUSH1 0xE0 SHL PUSH1 0x0 MSTORE PUSH1 0x41 PUSH1 0x4 MSTORE PUSH1 0x24 PUSH1 0x0 REVERT JUMPDEST DUP2 PUSH1 0x40 MSTORE DUP4 MLOAD DUP2 MSTORE PUSH1 0x20 DUP5 ADD MLOAD PUSH1 0x20 DUP3 ADD MSTORE PUSH1 0x40 DUP5 ADD MLOAD PUSH1 0x40 DUP3 ADD MSTORE PUSH1 0x60 DUP5 ADD MLOAD PUSH1 0x60 DUP3 ADD MSTORE PUSH1 0x80 DUP5 ADD MLOAD PUSH1 0x80 DUP3 ADD MSTORE PUSH1 0xA0 DUP5 ADD MLOAD PUSH1 0xA0 DUP3 ADD MSTORE PUSH1 0xC0 DUP5 ADD MLOAD PUSH1 0xC0 DUP3 ADD MSTORE PUSH2 0x2BAB PUSH1 0xE0 DUP6 ADD PUSH2 0x2B06 JUMP JUMPDEST PUSH1 0xE0 DUP3 ADD MSTORE SWAP5 SWAP4 POP POP POP POP JUMP JUMPDEST DUP1 MLOAD PUSH12 0xFFFFFFFFFFFFFFFFFFFFFFFF DUP2 AND DUP2 EQ PUSH2 0x2A13 JUMPI PUSH1 0x0 DUP1 REVERT JUMPDEST PUSH1 0x0 DUP1 PUSH1 0x0 DUP1 PUSH1 0x0 DUP1 PUSH1 0xC0 DUP8 DUP10 SUB SLT ISZERO PUSH2 0x2BED JUMPI PUSH1 0x0 DUP1 REVERT JUMPDEST PUSH2 0x2BF6 DUP8 PUSH2 0x2BB8 JUMP JUMPDEST SWAP6 POP PUSH2 0x2C04 PUSH1 0x20 DUP9 ADD PUSH2 0x2BB8 JUMP JUMPDEST SWAP5 POP PUSH1 0x40 DUP8 ADD MLOAD PUSH6 0xFFFFFFFFFFFF DUP2 AND DUP2 EQ PUSH2 0x2C1F JUMPI PUSH1 0x0 DUP1 REVERT JUMPDEST SWAP4 POP PUSH2 0x2C2D PUSH1 0x60 DUP9 ADD PUSH2 0x2B06 JUMP JUMPDEST SWAP3 POP PUSH2 0x2C3B PUSH1 0x80 DUP9 ADD PUSH2 0x2B06 JUMP JUMPDEST SWAP2 POP PUSH1 0xA0 DUP8 ADD MLOAD SWAP1 POP SWAP3 SWAP6 POP SWAP3 SWAP6 POP SWAP3 SWAP6 JUMP JUMPDEST PUSH1 0x0 PUSH4 0xFFFFFFFF DUP4 DUP2 AND SWAP1 DUP4 AND DUP2 DUP2 LT ISZERO PUSH2 0x2C6B JUMPI PUSH2 0x2C6B PUSH2 0x29AA JUMP JUMPDEST SUB SWAP4 SWAP3 POP POP POP JUMP JUMPDEST PUSH1 0x0 DUP1 DUP3 SLT DUP3 PUSH1 0x1 PUSH1 0x1 PUSH1 0xFF SHL SUB SUB DUP5 SGT DUP2 ISZERO AND ISZERO PUSH2 0x2C94 JUMPI PUSH2 0x2C94 PUSH2 0x29AA JUMP JUMPDEST PUSH1 0x1 PUSH1 0xFF SHL DUP4 SWAP1 SUB DUP5 SLT DUP2 AND ISZERO PUSH2 0x2CAD JUMPI PUSH2 0x2CAD PUSH2 0x29AA JUMP JUMPDEST POP POP ADD SWAP1 JUMP JUMPDEST PUSH1 0x0 DUP3 PUSH2 0x2CD0 JUMPI PUSH4 0x4E487B71 PUSH1 0xE0 SHL PUSH1 0x0 MSTORE PUSH1 0x12 PUSH1 0x4 MSTORE PUSH1 0x24 PUSH1 0x0 REVERT JUMPDEST POP DIV SWAP1 JUMP JUMPDEST PUSH2 0x120 DUP2 ADD PUSH2 0x2D2F DUP3 DUP6 DUP1 MLOAD DUP3 MSTORE PUSH1 0x20 DUP2 ADD MLOAD PUSH1 0x20 DUP4 ADD MSTORE PUSH1 0x40 DUP2 ADD MLOAD PUSH1 0x40 DUP4 ADD MSTORE PUSH1 0x60 DUP2 ADD MLOAD PUSH1 0x60 DUP4 ADD MSTORE PUSH1 0x80 DUP2 ADD MLOAD PUSH1 0x80 DUP4 ADD MSTORE PUSH1 0xA0 DUP2 ADD MLOAD PUSH1 0xA0 DUP4 ADD MSTORE PUSH1 0xC0 DUP2 ADD MLOAD PUSH1 0xC0 DUP4 ADD MSTORE PUSH1 0xE0 DUP2 ADD MLOAD ISZERO ISZERO PUSH1 0xE0 DUP4 ADD MSTORE POP POP JUMP JUMPDEST DUP3 PUSH2 0x100 DUP4 ADD MSTORE SWAP4 SWAP3 POP POP POP JUMP JUMPDEST PUSH1 0x0 DUP1 PUSH1 0x40 DUP4 DUP6 SUB SLT ISZERO PUSH2 0x2D50 JUMPI PUSH1 0x0 DUP1 REVERT JUMPDEST POP POP DUP1 MLOAD PUSH1 0x20 SWAP1 SWAP2 ADD MLOAD SWAP1 SWAP3 SWAP1 SWAP2 POP JUMP INVALID LOG2 PUSH5 0x6970667358 0x22 SLT KECCAK256 0xDC DUP12 COINBASE OR 0xD5 PUSH25 0x56E5138B089D50A22AE926DBD780B6FE9FC8E4FA6FBA5F2F81 PUSH2 0x6473 PUSH16 0x6C634300080A00330000000000000000 ",
  "sha1": "de04ce1c6e4d733f5c0fd7c04bb57be30f38e147",
  "source": "// SPDX-License-Identifier: MIT\npragma solidity 0.8.10;\n\nimport \"./interfaces/IOverlayV1State.sol\";\n\nimport \"./state/OverlayV1BaseState.sol\";\nimport \"./state/OverlayV1OIState.sol\";\nimport \"./state/OverlayV1PositionState.sol\";\nimport \"./state/OverlayV1PriceState.sol\";\n\n/// @title A market state contract to view the current state of\n/// @title an Overlay market\ncontract OverlayV1State is\n    IOverlayV1State,\n    OverlayV1BaseState,\n    OverlayV1PriceState,\n    OverlayV1OIState,\n    OverlayV1PositionState\n{\n    constructor(IOverlayV1Factory _factory) OverlayV1BaseState(_factory) {}\n}\n",
  "sourcePath": "contracts/OverlayV1State.sol",
  "type": "contract"
}