{
  "abi": [
    {
      "inputs": [
        {
          "internalType": "contract IOverlayV1Factory",
          "name": "_factory",
          "type": "address"
        }
      ],
      "stateMutability": "nonpayable",
      "type": "constructor"
    },
    {
      "inputs": [
        {
          "internalType": "contract IOverlayV1Market",
          "name": "market",
          "type": "address"
        },
        {
          "internalType": "uint256",
          "name": "fractionOfCapOi",
          "type": "uint256"
        }
      ],
      "name": "ask",
      "outputs": [
        {
          "internalType": "uint256",
          "name": "ask_",
          "type": "uint256"
        }
      ],
      "stateMutability": "view",
      "type": "function"
    },
    {
      "inputs": [
        {
          "internalType": "contract IOverlayV1Market",
          "name": "market",
          "type": "address"
        },
        {
          "internalType": "uint256",
          "name": "fractionOfCapOi",
          "type": "uint256"
        }
      ],
      "name": "bid",
      "outputs": [
        {
          "internalType": "uint256",
          "name": "bid_",
          "type": "uint256"
        }
      ],
      "stateMutability": "view",
      "type": "function"
    },
    {
      "inputs": [
        {
          "internalType": "contract IOverlayV1Market",
          "name": "market",
          "type": "address"
        }
      ],
      "name": "capOi",
      "outputs": [
        {
          "internalType": "uint256",
          "name": "capOi_",
          "type": "uint256"
        }
      ],
      "stateMutability": "view",
      "type": "function"
    },
    {
      "inputs": [
        {
          "internalType": "contract IOverlayV1Market",
          "name": "market",
          "type": "address"
        }
      ],
      "name": "circuitBreakerLevel",
      "outputs": [
        {
          "internalType": "uint256",
          "name": "circuitBreakerLevel_",
          "type": "uint256"
        }
      ],
      "stateMutability": "view",
      "type": "function"
    },
    {
      "inputs": [
        {
          "internalType": "contract IOverlayV1Market",
          "name": "market",
          "type": "address"
        },
        {
          "internalType": "address",
          "name": "owner",
          "type": "address"
        },
        {
          "internalType": "uint256",
          "name": "id",
          "type": "uint256"
        }
      ],
      "name": "collateral",
      "outputs": [
        {
          "internalType": "uint256",
          "name": "collateral_",
          "type": "uint256"
        }
      ],
      "stateMutability": "view",
      "type": "function"
    },
    {
      "inputs": [
        {
          "internalType": "contract IOverlayV1Market",
          "name": "market",
          "type": "address"
        },
        {
          "internalType": "address",
          "name": "owner",
          "type": "address"
        },
        {
          "internalType": "uint256",
          "name": "id",
          "type": "uint256"
        }
      ],
      "name": "cost",
      "outputs": [
        {
          "internalType": "uint256",
          "name": "cost_",
          "type": "uint256"
        }
      ],
      "stateMutability": "view",
      "type": "function"
    },
    {
      "inputs": [
        {
          "internalType": "address",
          "name": "feed",
          "type": "address"
        }
      ],
      "name": "data",
      "outputs": [
        {
          "components": [
            {
              "internalType": "uint256",
              "name": "timestamp",
              "type": "uint256"
            },
            {
              "internalType": "uint256",
              "name": "microWindow",
              "type": "uint256"
            },
            {
              "internalType": "uint256",
              "name": "macroWindow",
              "type": "uint256"
            },
            {
              "internalType": "uint256",
              "name": "priceOverMicroWindow",
              "type": "uint256"
            },
            {
              "internalType": "uint256",
              "name": "priceOverMacroWindow",
              "type": "uint256"
            },
            {
              "internalType": "uint256",
              "name": "priceOneMacroWindowAgo",
              "type": "uint256"
            },
            {
              "internalType": "uint256",
              "name": "reserveOverMicroWindow",
              "type": "uint256"
            },
            {
              "internalType": "bool",
              "name": "hasReserve",
              "type": "bool"
            }
          ],
          "internalType": "struct Oracle.Data",
          "name": "data_",
          "type": "tuple"
        }
      ],
      "stateMutability": "view",
      "type": "function"
    },
    {
      "inputs": [
        {
          "internalType": "contract IOverlayV1Market",
          "name": "market",
          "type": "address"
        },
        {
          "internalType": "address",
          "name": "owner",
          "type": "address"
        },
        {
          "internalType": "uint256",
          "name": "id",
          "type": "uint256"
        }
      ],
      "name": "debt",
      "outputs": [
        {
          "internalType": "uint256",
          "name": "debt_",
          "type": "uint256"
        }
      ],
      "stateMutability": "view",
      "type": "function"
    },
    {
      "inputs": [],
      "name": "factory",
      "outputs": [
        {
          "internalType": "contract IOverlayV1Factory",
          "name": "",
          "type": "address"
        }
      ],
      "stateMutability": "view",
      "type": "function"
    },
    {
      "inputs": [
        {
          "internalType": "contract IOverlayV1Market",
          "name": "market",
          "type": "address"
        },
        {
          "internalType": "uint256",
          "name": "oi",
          "type": "uint256"
        }
      ],
      "name": "fractionOfCapOi",
      "outputs": [
        {
          "internalType": "uint256",
          "name": "fractionOfCapOi_",
          "type": "uint256"
        }
      ],
      "stateMutability": "view",
      "type": "function"
    },
    {
      "inputs": [
        {
          "internalType": "contract IOverlayV1Market",
          "name": "market",
          "type": "address"
        }
      ],
      "name": "fundingRate",
      "outputs": [
        {
          "internalType": "int256",
          "name": "fundingRate_",
          "type": "int256"
        }
      ],
      "stateMutability": "view",
      "type": "function"
    },
    {
      "inputs": [
        {
          "internalType": "contract IOverlayV1Market",
          "name": "market",
          "type": "address"
        },
        {
          "internalType": "address",
          "name": "owner",
          "type": "address"
        },
        {
          "internalType": "uint256",
          "name": "id",
          "type": "uint256"
        }
      ],
      "name": "liquidatable",
      "outputs": [
        {
          "internalType": "bool",
          "name": "liquidatable_",
          "type": "bool"
        }
      ],
      "stateMutability": "view",
      "type": "function"
    },
    {
      "inputs": [
        {
          "internalType": "contract IOverlayV1Market",
          "name": "market",
          "type": "address"
        },
        {
          "internalType": "address",
          "name": "owner",
          "type": "address"
        },
        {
          "internalType": "uint256",
          "name": "id",
          "type": "uint256"
        }
      ],
      "name": "liquidationFee",
      "outputs": [
        {
          "internalType": "uint256",
          "name": "liquidationFee_",
          "type": "uint256"
        }
      ],
      "stateMutability": "view",
      "type": "function"
    },
    {
      "inputs": [
        {
          "internalType": "contract IOverlayV1Market",
          "name": "market",
          "type": "address"
        },
        {
          "internalType": "address",
          "name": "owner",
          "type": "address"
        },
        {
          "internalType": "uint256",
          "name": "id",
          "type": "uint256"
        }
      ],
      "name": "liquidationPrice",
      "outputs": [
        {
          "internalType": "uint256",
          "name": "liquidationPrice_",
          "type": "uint256"
        }
      ],
      "stateMutability": "view",
      "type": "function"
    },
    {
      "inputs": [
        {
          "internalType": "contract IOverlayV1Market",
          "name": "market",
          "type": "address"
        },
        {
          "internalType": "address",
          "name": "owner",
          "type": "address"
        },
        {
          "internalType": "uint256",
          "name": "id",
          "type": "uint256"
        }
      ],
      "name": "maintenanceMargin",
      "outputs": [
        {
          "internalType": "uint256",
          "name": "maintenanceMargin_",
          "type": "uint256"
        }
      ],
      "stateMutability": "view",
      "type": "function"
    },
    {
      "inputs": [
        {
          "internalType": "contract IOverlayV1Market",
          "name": "market",
          "type": "address"
        },
        {
          "internalType": "address",
          "name": "owner",
          "type": "address"
        },
        {
          "internalType": "uint256",
          "name": "id",
          "type": "uint256"
        }
      ],
      "name": "marginExcessBeforeLiquidation",
      "outputs": [
        {
          "internalType": "int256",
          "name": "excess_",
          "type": "int256"
        }
      ],
      "stateMutability": "view",
      "type": "function"
    },
    {
      "inputs": [
        {
          "internalType": "address",
          "name": "feed",
          "type": "address"
        }
      ],
      "name": "market",
      "outputs": [
        {
          "internalType": "contract IOverlayV1Market",
          "name": "market_",
          "type": "address"
        }
      ],
      "stateMutability": "view",
      "type": "function"
    },
    {
      "inputs": [
        {
          "internalType": "contract IOverlayV1Market",
          "name": "market",
          "type": "address"
        }
      ],
      "name": "marketState",
      "outputs": [
        {
          "components": [
            {
              "internalType": "uint256",
              "name": "bid",
              "type": "uint256"
            },
            {
              "internalType": "uint256",
              "name": "ask",
              "type": "uint256"
            },
            {
              "internalType": "uint256",
              "name": "mid",
              "type": "uint256"
            },
            {
              "internalType": "uint256",
              "name": "volumeBid",
              "type": "uint256"
            },
            {
              "internalType": "uint256",
              "name": "volumeAsk",
              "type": "uint256"
            },
            {
              "internalType": "uint256",
              "name": "oiLong",
              "type": "uint256"
            },
            {
              "internalType": "uint256",
              "name": "oiShort",
              "type": "uint256"
            },
            {
              "internalType": "uint256",
              "name": "capOi",
              "type": "uint256"
            },
            {
              "internalType": "uint256",
              "name": "circuitBreakerLevel",
              "type": "uint256"
            },
            {
              "internalType": "int256",
              "name": "fundingRate",
              "type": "int256"
            }
          ],
          "internalType": "struct IOverlayV1State.MarketState",
          "name": "state_",
          "type": "tuple"
        }
      ],
      "stateMutability": "view",
      "type": "function"
    },
    {
      "inputs": [
        {
          "internalType": "contract IOverlayV1Market",
          "name": "market",
          "type": "address"
        }
      ],
      "name": "mid",
      "outputs": [
        {
          "internalType": "uint256",
          "name": "mid_",
          "type": "uint256"
        }
      ],
      "stateMutability": "view",
      "type": "function"
    },
    {
      "inputs": [
        {
          "internalType": "contract IOverlayV1Market",
          "name": "market",
          "type": "address"
        }
      ],
      "name": "minted",
      "outputs": [
        {
          "internalType": "int256",
          "name": "minted_",
          "type": "int256"
        }
      ],
      "stateMutability": "view",
      "type": "function"
    },
    {
      "inputs": [
        {
          "internalType": "contract IOverlayV1Market",
          "name": "market",
          "type": "address"
        },
        {
          "internalType": "address",
          "name": "owner",
          "type": "address"
        },
        {
          "internalType": "uint256",
          "name": "id",
          "type": "uint256"
        }
      ],
      "name": "notional",
      "outputs": [
        {
          "internalType": "uint256",
          "name": "notional_",
          "type": "uint256"
        }
      ],
      "stateMutability": "view",
      "type": "function"
    },
    {
      "inputs": [
        {
          "internalType": "contract IOverlayV1Market",
          "name": "market",
          "type": "address"
        },
        {
          "internalType": "address",
          "name": "owner",
          "type": "address"
        },
        {
          "internalType": "uint256",
          "name": "id",
          "type": "uint256"
        }
      ],
      "name": "oi",
      "outputs": [
        {
          "internalType": "uint256",
          "name": "oi_",
          "type": "uint256"
        }
      ],
      "stateMutability": "view",
      "type": "function"
    },
    {
      "inputs": [
        {
          "internalType": "contract IOverlayV1Market",
          "name": "market",
          "type": "address"
        }
      ],
      "name": "ois",
      "outputs": [
        {
          "internalType": "uint256",
          "name": "oiLong_",
          "type": "uint256"
        },
        {
          "internalType": "uint256",
          "name": "oiShort_",
          "type": "uint256"
        }
      ],
      "stateMutability": "view",
      "type": "function"
    },
    {
      "inputs": [
        {
          "internalType": "contract IOverlayV1Market",
          "name": "market",
          "type": "address"
        },
        {
          "internalType": "address",
          "name": "owner",
          "type": "address"
        },
        {
          "internalType": "uint256",
          "name": "id",
          "type": "uint256"
        }
      ],
      "name": "position",
      "outputs": [
        {
          "components": [
            {
              "internalType": "uint96",
              "name": "notional",
              "type": "uint96"
            },
            {
              "internalType": "uint96",
              "name": "debt",
              "type": "uint96"
            },
            {
              "internalType": "uint48",
              "name": "entryToMidRatio",
              "type": "uint48"
            },
            {
              "internalType": "bool",
              "name": "isLong",
              "type": "bool"
            },
            {
              "internalType": "bool",
              "name": "liquidated",
              "type": "bool"
            },
            {
              "internalType": "uint256",
              "name": "oiShares",
              "type": "uint256"
            }
          ],
          "internalType": "struct Position.Info",
          "name": "position_",
          "type": "tuple"
        }
      ],
      "stateMutability": "view",
      "type": "function"
    },
    {
      "inputs": [
        {
          "internalType": "contract IOverlayV1Market",
          "name": "market",
          "type": "address"
        }
      ],
      "name": "prices",
      "outputs": [
        {
          "internalType": "uint256",
          "name": "bid_",
          "type": "uint256"
        },
        {
          "internalType": "uint256",
          "name": "ask_",
          "type": "uint256"
        },
        {
          "internalType": "uint256",
          "name": "mid_",
          "type": "uint256"
        }
      ],
      "stateMutability": "view",
      "type": "function"
    },
    {
      "inputs": [
        {
          "internalType": "contract IOverlayV1Market",
          "name": "market",
          "type": "address"
        },
        {
          "internalType": "address",
          "name": "owner",
          "type": "address"
        },
        {
          "internalType": "uint256",
          "name": "id",
          "type": "uint256"
        }
      ],
      "name": "tradingFee",
      "outputs": [
        {
          "internalType": "uint256",
          "name": "tradingFee_",
          "type": "uint256"
        }
      ],
      "stateMutability": "view",
      "type": "function"
    },
    {
      "inputs": [
        {
          "internalType": "contract IOverlayV1Market",
          "name": "market",
          "type": "address"
        },
        {
          "internalType": "address",
          "name": "owner",
          "type": "address"
        },
        {
          "internalType": "uint256",
          "name": "id",
          "type": "uint256"
        }
      ],
      "name": "value",
      "outputs": [
        {
          "internalType": "uint256",
          "name": "value_",
          "type": "uint256"
        }
      ],
      "stateMutability": "view",
      "type": "function"
    },
    {
      "inputs": [
        {
          "internalType": "contract IOverlayV1Market",
          "name": "market",
          "type": "address"
        },
        {
          "internalType": "uint256",
          "name": "fractionOfCapOi",
          "type": "uint256"
        }
      ],
      "name": "volumeAsk",
      "outputs": [
        {
          "internalType": "uint256",
          "name": "volumeAsk_",
          "type": "uint256"
        }
      ],
      "stateMutability": "view",
      "type": "function"
    },
    {
      "inputs": [
        {
          "internalType": "contract IOverlayV1Market",
          "name": "market",
          "type": "address"
        },
        {
          "internalType": "uint256",
          "name": "fractionOfCapOi",
          "type": "uint256"
        }
      ],
      "name": "volumeBid",
      "outputs": [
        {
          "internalType": "uint256",
          "name": "volumeBid_",
          "type": "uint256"
        }
      ],
      "stateMutability": "view",
      "type": "function"
    },
    {
      "inputs": [
        {
          "internalType": "contract IOverlayV1Market",
          "name": "market",
          "type": "address"
        }
      ],
      "name": "volumes",
      "outputs": [
        {
          "internalType": "uint256",
          "name": "volumeBid_",
          "type": "uint256"
        },
        {
          "internalType": "uint256",
          "name": "volumeAsk_",
          "type": "uint256"
        }
      ],
      "stateMutability": "view",
      "type": "function"
    }
  ],
  "bytecode": "60a06040523480156200001157600080fd5b50604051620035e6380380620035e6833981016040819052620000349162000046565b6001600160a01b031660805262000078565b6000602082840312156200005957600080fd5b81516001600160a01b03811681146200007157600080fd5b9392505050565b60805161354b6200009b600039600081816104950152612955015261354b6000f3fe608060405234801561001057600080fd5b50600436106101da5760003560e01c8063730c4aff11610104578063b1ec4c40116100a2578063cfed246b11610071578063cfed246b146104b7578063d16f3bbf146104e5578063e8ef90b2146104f8578063f5d2b3341461057557600080fd5b8063b1ec4c401461044a578063b90d3d0c1461045d578063c18f32f61461047d578063c45a01551461049057600080fd5b806393b0fe49116100de57806393b0fe491461036d5780639f382f6a14610380578063a7a9a62c146103ab578063a92c51651461043757600080fd5b8063730c4aff1461033457806381ec8b9e146103475780638e968fe51461035a57600080fd5b80634c5cf6581161017c5780635bbc8be21161014b5780635bbc8be2146102d35780635cfdcc0d146102e6578063617f37bd146102f9578063727e8a1b1461032157600080fd5b80634c5cf658146102875780634ea663161461029a57806353f16f67146102ad57806359d667a5146102c057600080fd5b80631e7269c5116101b85780631e7269c51461023b57806342d0c4431461024e57806343ca411a1461026157806348d5dbcc1461027457600080fd5b80630afb11e3146101df5780631776f7e9146102075780631c136a0014610228575b600080fd5b6101f26101ed36600461307a565b610588565b60405190151581526020015b60405180910390f35b61021a61021536600461307a565b610621565b6040519081526020016101fe565b61021a61023636600461307a565b610643565b61021a6102493660046130bb565b610715565b61021a61025c36600461307a565b610841565b61021a61026f3660046130d8565b610959565b61021a6102823660046130d8565b6109d8565b61021a61029536600461307a565b610a57565b61021a6102a83660046130d8565b610ae5565b61021a6102bb36600461307a565b610b64565b61021a6102ce3660046130d8565b610bf1565b61021a6102e136600461307a565b610c70565b61021a6102f43660046130bb565b610c89565b61030c6103073660046130bb565b610c9a565b604080519283526020830191909152016101fe565b61021a61032f3660046130bb565b610cb0565b61021a61034236600461307a565b610d35565b61021a6103553660046130bb565b610d4f565b61021a6103683660046130bb565b610d5a565b61021a61037b36600461307a565b610dd8565b61039361038e3660046130bb565b610e66565b6040516001600160a01b0390911681526020016101fe565b6103be6103b93660046130bb565b610e71565b6040516101fe9190600061014082019050825182526020830151602083015260408301516040830152606083015160608301526080830151608083015260a083015160a083015260c083015160c083015260e083015160e083015261010080840151818401525061012080840151818401525092915050565b61021a61044536600461307a565b610fe6565b61030c6104583660046130bb565b611000565b61047061046b3660046130bb565b611099565b6040516101fe9190613104565b61021a61048b36600461307a565b6110ec565b6103937f000000000000000000000000000000000000000000000000000000000000000081565b6104ca6104c53660046130bb565b61117a565b604080519384526020840192909252908201526060016101fe565b61021a6104f33660046130d8565b611220565b61050b61050636600461307a565b61129f565b6040516101fe9190600060c0820190506bffffffffffffffffffffffff8084511683528060208501511660208401525065ffffffffffff604084015116604083015260608301511515606083015260808301511515608083015260a083015160a083015292915050565b61021a61058336600461307a565b6112dc565b600080846001600160a01b03166337a7b7d86040518163ffffffff1660e01b8152600401602060405180830381865afa1580156105c9573d6000803e3d6000fd5b505050506040513d601f19601f820116820180604052508101906105ed919061315e565b905060006105fa826114c1565b9050600061060987878761156e565b90506106168783836116b2565b979650505050505050565b60008061062f85858561156e565b905061063a8161191d565b95945050505050565b600080846001600160a01b03166337a7b7d86040518163ffffffff1660e01b8152600401602060405180830381865afa158015610684573d6000803e3d6000fd5b505050506040513d601f19601f820116820180604052508101906106a8919061315e565b905060006106b5826114c1565b905060006106c487878761156e565b905060006106d3888484611939565b905060006106e18984611ae8565b905060006106f08a8686611b78565b9050806106fd8385613191565b6107079190613191565b9a9950505050505050505050565b600080600080846001600160a01b0316635b6df29a6040518163ffffffff1660e01b8152600401606060405180830381865afa158015610759573d6000803e3d6000fd5b505050506040513d601f19601f8201168201806040525081019061077d91906131e9565b6040805160608101825263ffffffff858116825284166020820152601783900b81830152905163274bc14f60e21b8152600660048201529396509194509250906000906001600160a01b03881690639d2f053c90602401602060405180830381865afa1580156107f1573d6000803e3d6000fd5b505050506040513d601f19601f820116820180604052508101906108159190613236565b9050600061082583428484611c1d565b9250610835836040015160170b90565b98975050505050505050565b600080846001600160a01b03166337a7b7d86040518163ffffffff1660e01b8152600401602060405180830381865afa158015610882573d6000803e3d6000fd5b505050506040513d601f19601f820116820180604052508101906108a6919061315e565b905060006108b3826114c1565b905060006108c287878761156e565b905060006108d1888484611e55565b60405163274bc14f60e21b8152600b60048201529091506000906001600160a01b038a1690639d2f053c90602401602060405180830381865afa15801561091c573d6000803e3d6000fd5b505050506040513d601f19601f820116820180604052508101906109409190613236565b905061094c8282612023565b9998505050505050505050565b600080836001600160a01b03166337a7b7d86040518163ffffffff1660e01b8152600401602060405180830381865afa15801561099a573d6000803e3d6000fd5b505050506040513d601f19601f820116820180604052508101906109be919061315e565b905060006109cb826114c1565b905061063a85828661206a565b600080836001600160a01b03166337a7b7d86040518163ffffffff1660e01b8152600401602060405180830381865afa158015610a19573d6000803e3d6000fd5b505050506040513d601f19601f82011682018060405250810190610a3d919061315e565b90506000610a4a826114c1565b905061063a858286612093565b600080846001600160a01b03166337a7b7d86040518163ffffffff1660e01b8152600401602060405180830381865afa158015610a98573d6000803e3d6000fd5b505050506040513d601f19601f82011682018060405250810190610abc919061315e565b90506000610ac9826114c1565b90506000610ad887878761156e565b905061061687838361215f565b600080836001600160a01b03166337a7b7d86040518163ffffffff1660e01b8152600401602060405180830381865afa158015610b26573d6000803e3d6000fd5b505050506040513d601f19601f82011682018060405250810190610b4a919061315e565b90506000610b57826114c1565b905061063a8582866122a4565b600080846001600160a01b03166337a7b7d86040518163ffffffff1660e01b8152600401602060405180830381865afa158015610ba5573d6000803e3d6000fd5b505050506040513d601f19601f82011682018060405250810190610bc9919061315e565b90506000610bd6826114c1565b90506000610be587878761156e565b90506106168782611ae8565b600080836001600160a01b03166337a7b7d86040518163ffffffff1660e01b8152600401602060405180830381865afa158015610c32573d6000803e3d6000fd5b505050506040513d601f19601f82011682018060405250810190610c56919061315e565b90506000610c63826114c1565b905061063a8582866122e8565b600080610c7e85858561156e565b905061063a81612368565b6000610c948261237d565b92915050565b600080610ca6836124a4565b9094909350915050565b600080826001600160a01b03166337a7b7d86040518163ffffffff1660e01b8152600401602060405180830381865afa158015610cf1573d6000803e3d6000fd5b505050506040513d601f19601f82011682018060405250810190610d15919061315e565b90506000610d22826114c1565b9050610d2d816126ae565b949350505050565b600080610d4385858561156e565b905061063a85826126c2565b6000610c94826127d3565b600080826001600160a01b03166337a7b7d86040518163ffffffff1660e01b8152600401602060405180830381865afa158015610d9b573d6000803e3d6000fd5b505050506040513d601f19601f82011682018060405250810190610dbf919061315e565b90506000610dcc826114c1565b9050610d2d8482612846565b600080846001600160a01b03166337a7b7d86040518163ffffffff1660e01b8152600401602060405180830381865afa158015610e19573d6000803e3d6000fd5b505050506040513d601f19601f82011682018060405250810190610e3d919061315e565b90506000610e4a826114c1565b90506000610e5987878761156e565b9050610616878383611b78565b6000610c9482612931565b610ec7604051806101400160405280600081526020016000815260200160008152602001600081526020016000815260200160008152602001600081526020016000815260200160008152602001600081525090565b6000826001600160a01b03166337a7b7d86040518163ffffffff1660e01b8152600401602060405180830381865afa158015610f07573d6000803e3d6000fd5b505050506040513d601f19601f82011682018060405250810190610f2b919061315e565b90506000610f38826114c1565b9050600080610f46866124a4565b91509150604051806101400160405280610f62888660006122e8565b8152602001610f7388866000612a18565b8152602001610f81856126ae565b8152602001610f9288866000612093565b8152602001610fa3888660006122a4565b8152602001838152602001828152602001610fbe8886612846565b8152602001610fcc886127d3565b8152602001610fda8861237d565b90529695505050505050565b600080610ff485858561156e565b905061063a8582612a57565b6000806000836001600160a01b03166337a7b7d86040518163ffffffff1660e01b8152600401602060405180830381865afa158015611043573d6000803e3d6000fd5b505050506040513d601f19601f82011682018060405250810190611067919061315e565b90506000611074826114c1565b905061108285826000612093565b9350611090858260006122a4565b92505050915091565b6110e3604051806101000160405280600081526020016000815260200160008152602001600081526020016000815260200160008152602001600081526020016000151581525090565b610c94826114c1565b600080846001600160a01b03166337a7b7d86040518163ffffffff1660e01b8152600401602060405180830381865afa15801561112d573d6000803e3d6000fd5b505050506040513d601f19601f82011682018060405250810190611151919061315e565b9050600061115e826114c1565b9050600061116d87878761156e565b9050610616878383611e55565b600080600080846001600160a01b03166337a7b7d86040518163ffffffff1660e01b8152600401602060405180830381865afa1580156111be573d6000803e3d6000fd5b505050506040513d601f19601f820116820180604052508101906111e2919061315e565b905060006111ef826114c1565b90506111fd868260006122e8565b945061120b86826000612a18565b9350611216816126ae565b9496939550505050565b600080836001600160a01b03166337a7b7d86040518163ffffffff1660e01b8152600401602060405180830381865afa158015611261573d6000803e3d6000fd5b505050506040513d601f19601f82011682018060405250810190611285919061315e565b90506000611292826114c1565b905061063a858286612a18565b6040805160c081018252600080825260208201819052918101829052606081018290526080810182905260a0810191909152610d2d84848461156e565b600080846001600160a01b03166337a7b7d86040518163ffffffff1660e01b8152600401602060405180830381865afa15801561131d573d6000803e3d6000fd5b505050506040513d601f19601f82011682018060405250810190611341919061315e565b9050600061134e826114c1565b9050600061135d87878761156e565b9050600061136a82612bae565b60405163274bc14f60e21b8152600a60048201529091506000906001600160a01b038a1690639d2f053c90602401602060405180830381865afa1580156113b5573d6000803e3d6000fd5b505050506040513d601f19601f820116820180604052508101906113d99190613236565b905060006113e78a85611ae8565b905060006113f58b866126c2565b905060006114038c87612a57565b90506000821161145a5760405162461bcd60e51b815260206004820152600e60248201527f4f564c56313a206f69203d3d203000000000000000000000000000000000000060448201526064015b60405180910390fd5b600061148c8361148661147f61147889670de0b6b3a764000061324f565b8890612c03565b8590612c34565b90612c03565b905086606001516114a6576114a18187613266565b6114b0565b6114b08682612c34565b9d9c50505050505050505050505050565b61150b604051806101000160405280600081526020016000815260200160008152602001600081526020016000815260200160008152602001600081526020016000151581525090565b816001600160a01b03166352bfe7896040518163ffffffff1660e01b815260040161010060405180830381865afa15801561154a573d6000803e3d6000fd5b505050506040513d601f19601f82011682018060405250810190610c94919061328e565b6040805160c081018252600080825260208201819052918101829052606081018290526080810182905260a08101919091526040516bffffffffffffffffffffffff19606085901b166020820152603481018390526000906054016040516020818303038152906040528051906020012090506000806000806000808a6001600160a01b031663514ea4bf886040518263ffffffff1660e01b815260040161161891815260200190565b60c060405180830381865afa158015611635573d6000803e3d6000fd5b505050506040513d601f19601f82011682018060405250810190611659919061334c565b6040805160c0810182526bffffffffffffffffffffffff978816815296909516602087015265ffffffffffff9093169385019390935215156060840152901515608083015260a08201529b9a5050505050505050505050565b60008060006116c0866124a4565b91509150600084606001516116d557816116d7565b825b90506000856060015161174b57876001600160a01b031663f333fe136040518163ffffffff1660e01b8152600401602060405180830381865afa158015611722573d6000803e3d6000fd5b505050506040513d601f19601f820116820180604052508101906117469190613236565b6117ad565b876001600160a01b0316632acb38106040518163ffffffff1660e01b8152600401602060405180830381865afa158015611789573d6000803e3d6000fd5b505050506040513d601f19601f820116820180604052508101906117ad9190613236565b905060006117ba886126ae565b60405163274bc14f60e21b8152600a60048201529091506000906001600160a01b038b1690639d2f053c90602401602060405180830381865afa158015611805573d6000803e3d6000fd5b505050506040513d601f19601f820116820180604052508101906118299190613236565b90506107078484846001600160a01b038e16639d2f053c60036040518263ffffffff1660e01b815260040161186091815260200190565b602060405180830381865afa15801561187d573d6000803e3d6000fd5b505050506040513d601f19601f820116820180604052508101906118a19190613236565b6001600160a01b038f16639d2f053c60086040518263ffffffff1660e01b81526004016118d091815260200190565b602060405180830381865afa1580156118ed573d6000803e3d6000fd5b505050506040513d601f19601f820116820180604052508101906119119190613236565b8d949392919087612c4f565b6000670de0b6b3a76400006119328382612cd0565b9392505050565b6000670de0b6b3a7640000818061194f876124a4565b91509150600085606001516119645781611966565b825b9050600086606001516119da57886001600160a01b031663f333fe136040518163ffffffff1660e01b8152600401602060405180830381865afa1580156119b1573d6000803e3d6000fd5b505050506040513d601f19601f820116820180604052508101906119d59190613236565b611a3c565b886001600160a01b0316632acb38106040518163ffffffff1660e01b8152600401602060405180830381865afa158015611a18573d6000803e3d6000fd5b505050506040513d601f19601f82011682018060405250810190611a3c9190613236565b90506000611a4c88878585612cf5565b90506000611a598a6126ae565b60405163274bc14f60e21b8152600360048201529091506000906001600160a01b038d1690639d2f053c90602401602060405180830381865afa158015611aa4573d6000803e3d6000fd5b505050506040513d601f19601f82011682018060405250810190611ac89190613236565b9050611ad88a8987878686612d36565b9c9b505050505050505050505050565b60405163274bc14f60e21b81526008600482015260009081906001600160a01b03851690639d2f053c90602401602060405180830381865afa158015611b32573d6000803e3d6000fd5b505050506040513d601f19601f82011682018060405250810190611b569190613236565b90506000611b6c84670de0b6b3a7640000612e3b565b905061063a8183612023565b600080611b868585856116b2565b90508015611c155760405163274bc14f60e21b8152600a60048201526000906001600160a01b03871690639d2f053c90602401602060405180830381865afa158015611bd6573d6000803e3d6000fd5b505050506040513d601f19601f82011682018060405250810190611bfa9190613236565b90506000611c09878787611939565b90506106168183612e57565b509392505050565b6040805160608101825260008082526020820181905291810182905285519091859163ffffffff9081169083161015611c7b57865163ffffffff90811690611c6c908416640100000000613266565b611c76919061324f565b611c8e565b8651611c8790836133c6565b63ffffffff165b602088015190915063ffffffff166000611cac896040015160170b90565b90508183101580611cbb575081155b15611d055760405180606001604052808563ffffffff168152602001611ce089612e78565b63ffffffff168152602001611cf488612e98565b60170b815250945050505050610d2d565b6000611d118484612f0a565b90506000611d1e83612f39565b9050600080841215611d4257611d348383612e57565b611d3d906133eb565b611d4c565b611d4c8383612e57565b9050611d588185613191565b93506000611d668a86613408565b905080611dad5760405180606001604052808963ffffffff168152602001611d8d8d612e78565b63ffffffff16815260006020909101529850610d2d975050505050505050565b6000611db886612f39565b90506000611dc58c612f39565b90506000611dd38284613266565b611ddd8f84613448565b611de78c8c61324f565b611df19086613448565b611dfb9190613266565b611e059190613467565b905060405180606001604052808c63ffffffff168152602001611e2783612e78565b63ffffffff168152602001611e3b86612e98565b60170b90529b505050505050505050505050949350505050565b6000670de0b6b3a76400008180611e6b876124a4565b9150915060008560600151611e805781611e82565b825b905060008660600151611ef657886001600160a01b031663f333fe136040518163ffffffff1660e01b8152600401602060405180830381865afa158015611ecd573d6000803e3d6000fd5b505050506040513d601f19601f82011682018060405250810190611ef19190613236565b611f58565b886001600160a01b0316632acb38106040518163ffffffff1660e01b8152600401602060405180830381865afa158015611f34573d6000803e3d6000fd5b505050506040513d601f19601f82011682018060405250810190611f589190613236565b90506000611f6888878585612cf5565b905060008860600151611f8f57611f8a8b8b611f858e8e8761206a565b612a18565b611fa4565b611fa48b8b611f9f8e8e8761206a565b6122e8565b60405163274bc14f60e21b8152600360048201529091506000906001600160a01b038d1690639d2f053c90602401602060405180830381865afa158015611fef573d6000803e3d6000fd5b505050506040513d601f19601f820116820180604052508101906120139190613236565b9050611ad88a8987878686612f50565b6000806120308385613448565b905080612041576000915050610c94565b670de0b6b3a764000061205560018361324f565b61205f9190613467565b610d2d906001613266565b6000806120778585612846565b90508061208957600019915050611932565b61063a8382612f0a565b600080600080866001600160a01b031663b445e2e76040518163ffffffff1660e01b8152600401606060405180830381865afa1580156120d7573d6000803e3d6000fd5b505050506040513d601f19601f820116820180604052508101906120fb91906131e9565b925092509250600060405180606001604052808563ffffffff1681526020018463ffffffff1681526020018360170b8152509050600086905061214f4289602001518385611c1d909392919063ffffffff16565b915061094c826040015160170b90565b6000670de0b6b3a76400008180612175876124a4565b915091506000856060015161218a578161218c565b825b90506000866060015161220057886001600160a01b031663f333fe136040518163ffffffff1660e01b8152600401602060405180830381865afa1580156121d7573d6000803e3d6000fd5b505050506040513d601f19601f820116820180604052508101906121fb9190613236565b612262565b886001600160a01b0316632acb38106040518163ffffffff1660e01b8152600401602060405180830381865afa15801561223e573d6000803e3d6000fd5b505050506040513d601f19601f820116820180604052508101906122629190613236565b9050600061227288878585612cf5565b9050600088606001516122945761228f8b8b611f858e8e8761206a565b611a59565b611a598b8b611f9f8e8e8761206a565b600080600080866001600160a01b031663d565cc336040518163ffffffff1660e01b8152600401606060405180830381865afa1580156120d7573d6000803e3d6000fd5b6000806122f6858585612093565b604051638607f5c360e01b81529091506001600160a01b03861690638607f5c3906123279087908590600401613489565b602060405180830381865afa158015612344573d6000803e3d6000fd5b505050506040513d601f19601f8201168201806040525081019061063a9190613236565b6000670de0b6b3a76400006119328382612f7b565b600080600061238b846124a4565b90925090508082116000816123a057826123a2565b835b90506000826123b157846123b3565b835b905060006123c18284613266565b905060006123cf838561324f565b90508115806123dc575080155b156123f05750600098975050505050505050565b60405163274bc14f60e21b8152600060048201819052906001600160a01b038b1690639d2f053c90602401602060405180830381865afa158015612438573d6000803e3d6000fd5b505050506040513d601f19601f8201168201806040525081019061245c9190613236565b9050600061247e61246e836002613448565b6124788587612f0a565b90612e57565b9050866124935761248e816133eb565b612495565b805b9b9a5050505050505050505050565b600080826001600160a01b0316635dedde6d6040518163ffffffff1660e01b8152600401602060405180830381865afa1580156124e5573d6000803e3d6000fd5b505050506040513d601f19601f820116820180604052508101906125099190613236565b9150826001600160a01b031663091630146040518163ffffffff1660e01b8152600401602060405180830381865afa158015612549573d6000803e3d6000fd5b505050506040513d601f19601f8201168201806040525081019061256d9190613236565b90506000836001600160a01b031663c6838e8b6040518163ffffffff1660e01b8152600401602060405180830381865afa1580156125af573d6000803e3d6000fd5b505050506040513d601f19601f820116820180604052508101906125d39190613236565b6125dd904261324f565b905080156126a8578183116000816125f557836125f7565b845b90506000826126065785612608565b845b604051639f0a545960e01b81526004810184905260248101829052604481018690529091506001600160a01b03881690639f0a5459906064016040805180830381865afa15801561265d573d6000803e3d6000fd5b505050506040513d601f19601f8201168201806040525081019061268191906134f1565b9092509050826126915780612693565b815b9550826126a057816126a2565b805b94505050505b50915091565b6000610c9482606001518360800151612fa3565b6000670de0b6b3a764000081806126d8866124a4565b91509150600085606001516126ed57816126ef565b825b90506000866060015161276357876001600160a01b031663f333fe136040518163ffffffff1660e01b8152600401602060405180830381865afa15801561273a573d6000803e3d6000fd5b505050506040513d601f19601f8201168201806040525081019061275e9190613236565b6127c5565b876001600160a01b0316632acb38106040518163ffffffff1660e01b8152600401602060405180830381865afa1580156127a1573d6000803e3d6000fd5b505050506040513d601f19601f820116820180604052508101906127c59190613236565b905061083587868484612cf5565b6040516383ba191760e01b8152670de0b6b3a764000060048201526000906001600160a01b038316906383ba191790602401602060405180830381865afa158015612822573d6000803e3d6000fd5b505050506040513d601f19601f82011682018060405250810190610c949190613236565b60405163274bc14f60e21b815260048181015260009081906001600160a01b03851690639d2f053c90602401602060405180830381865afa15801561288f573d6000803e3d6000fd5b505050506040513d601f19601f820116820180604052508101906128b39190613236565b60405163ecc1619160e01b81529091506001600160a01b0385169063ecc16191906128e49086908590600401613489565b602060405180830381865afa158015612901573d6000803e3d6000fd5b505050506040513d601f19601f820116820180604052508101906129259190613236565b9050610d2d8382612fbe565b60405163d4dfadbf60e01b81526001600160a01b03828116600483015260009182917f0000000000000000000000000000000000000000000000000000000000000000169063d4dfadbf90602401602060405180830381865afa15801561299c573d6000803e3d6000fd5b505050506040513d601f19601f820116820180604052508101906129c0919061315e565b90506001600160a01b038116610c945760405162461bcd60e51b815260206004820152600d60248201527f4f564c56313a216d61726b6574000000000000000000000000000000000000006044820152606401611451565b600080612a268585856122a4565b60405163176d4ae160e11b81529091506001600160a01b03861690632eda95c2906123279087908590600401613489565b6000670de0b6b3a764000081612a6d8483612e3b565b90506000612a7b8584612cd0565b90506000612a898685613026565b9050600080612a97896124a4565b9150915060008860600151612aac5781612aae565b825b905060008960600151612b22578a6001600160a01b031663f333fe136040518163ffffffff1660e01b8152600401602060405180830381865afa158015612af9573d6000803e3d6000fd5b505050506040513d601f19601f82011682018060405250810190612b1d9190613236565b612b84565b8a6001600160a01b0316632acb38106040518163ffffffff1660e01b8152600401602060405180830381865afa158015612b60573d6000803e3d6000fd5b505050506040513d601f19601f82011682018060405250810190612b849190613236565b90506000612b948b8a8585612cf5565b9050611ad887612ba8886114868c86612023565b90612c34565b600080612bba83613037565b90506000612bc98460a0015190565b90506000612be385516bffffffffffffffffffffffff1690565b905081612bf557506000949350505050565b61063a826114868584612023565b600082612c1257506000610c94565b6000612c26670de0b6b3a764000085613448565b90508261205560018361324f565b600080828411612c45576000610d2d565b610d2d838561324f565b6000670de0b6b3a764000081612c658a83612e3b565b9050896080015180612c75575080155b15612c8557600092505050610616565b6000612c958b848c8c8c8c612d36565b90506000612ca38388612023565b90506000612cb18388612e57565b9050612cbd8183613266565b9092109c9b505050505050505050505050565b600061193282612cef85602001516bffffffffffffffffffffffff1690565b90612023565b600080612d028686613026565b9050801580612d0f575083155b15612d1e576000915050610d2d565b612d2c836114868387612023565b9695505050505050565b600080612d438888613026565b90506000612d518989612e3b565b90506000612d5f8a8a612cd0565b90506000612d6f8b8b8b8b612cf5565b90506000612d7c8c612bae565b90508b6060015115612df857612db9612d95838a612023565b612db4612daa8a670de0b6b3a7640000613266565b612cef8686612023565b613053565b612dc7866114868786612023565b612dd19190613266565b9550612df1612de08383612023565b612dea9085613266565b8790612c34565b9550612e2c565b612e028282612023565b612e10866114868786612023565b612e1a9190613266565b9550612e29612de0838a612023565b95505b50505050509695505050505050565b600061193282612cef85516bffffffffffffffffffffffff1690565b600080612e648385613448565b9050610d2d670de0b6b3a764000082613467565b60008063ffffffff831115612e915763ffffffff611932565b5090919050565b6000806001600160bf1b03198312801590612ecb5750777fffffffffffffffffffffffffffffffffffffffffffffff8313155b612e91576001600160bf1b03198312612efc57777fffffffffffffffffffffffffffffffffffffffffffffff611932565b6001600160bf1b0319611932565b600082612f1957506000610c94565b6000612f2d670de0b6b3a764000085613448565b9050610d2d8382613467565b600080821215612f4c5781600003610c94565b5090565b600080612f61888888888888612d36565b90506000612f6f8989612cd0565b905061094c8183613266565b600080612f888484612e3b565b90506000612f968585612cd0565b905081612d2c8183612c34565b6000612fb26002848418613467565b61193290848416613266565b600080612fca846126ae565b90506000811161301c5760405162461bcd60e51b815260206004820152600c60248201527f4f564c56313a6d69643d3d3000000000000000000000000000000000000000006044820152606401611451565b610d2d8382612f0a565b600061193282612cef8560a0015190565b6000612710826040015165ffffffffffff16610c949190613448565b6000818310612e915781611932565b6001600160a01b038116811461307757600080fd5b50565b60008060006060848603121561308f57600080fd5b833561309a81613062565b925060208401356130aa81613062565b929592945050506040919091013590565b6000602082840312156130cd57600080fd5b813561193281613062565b600080604083850312156130eb57600080fd5b82356130f681613062565b946020939093013593505050565b6101008101610c948284805182526020810151602083015260408101516040830152606081015160608301526080810151608083015260a081015160a083015260c081015160c083015260e0810151151560e08301525050565b60006020828403121561317057600080fd5b815161193281613062565b634e487b7160e01b600052601160045260246000fd5b60008083128015600160ff1b8501841216156131af576131af61317b565b836001600160ff1b030183138116156131ca576131ca61317b565b50500390565b805163ffffffff811681146131e457600080fd5b919050565b6000806000606084860312156131fe57600080fd5b613207846131d0565b9250613215602085016131d0565b915060408401518060170b811461322b57600080fd5b809150509250925092565b60006020828403121561324857600080fd5b5051919050565b6000828210156132615761326161317b565b500390565b600082198211156132795761327961317b565b500190565b805180151581146131e457600080fd5b60006101008083850312156132a257600080fd5b6040519081019067ffffffffffffffff821181831017156132d357634e487b7160e01b600052604160045260246000fd5b81604052835181526020840151602082015260408401516040820152606084015160608201526080840151608082015260a084015160a082015260c084015160c082015261332360e0850161327e565b60e0820152949350505050565b80516bffffffffffffffffffffffff811681146131e457600080fd5b60008060008060008060c0878903121561336557600080fd5b61336e87613330565b955061337c60208801613330565b9450604087015165ffffffffffff8116811461339757600080fd5b93506133a56060880161327e565b92506133b36080880161327e565b915060a087015190509295509295509295565b600063ffffffff838116908316818110156133e3576133e361317b565b039392505050565b6000600160ff1b8214156134015761340161317b565b5060000390565b6000808212826001600160ff1b03038413811516156134295761342961317b565b600160ff1b83900384128116156134425761344261317b565b50500190565b60008160001904831182151516156134625761346261317b565b500290565b60008261348457634e487b7160e01b600052601260045260246000fd5b500490565b61012081016134e38285805182526020810151602083015260408101516040830152606081015160608301526080810151608083015260a081015160a083015260c081015160c083015260e0810151151560e08301525050565b826101008301529392505050565b6000806040838503121561350457600080fd5b50508051602090910151909290915056fea2646970667358221220831639a04f35786b03a8c0e4f416af71df2019540497d8f6118d0d095f3104ee64736f6c634300080a0033",
  "bytecodeSha1": "f3f189f1ab6669906e434d18d7fd22063e4a0b54",
  "compiler": {
    "evm_version": "istanbul",
    "optimizer": {
      "enabled": true,
      "runs": 800
    },
    "version": "0.8.10+commit.fc410830"
  },
  "contractName": "OverlayV1State",
  "language": "Solidity",
  "natspec": {
    "kind": "dev",
    "methods": {
      "ask(address,uint256)": {
        "details": "fractionOfCapOi (i.e. oi / capOi) is FixedPoint",
        "notice": "Gets the ask price trader will receive on the Overlay marketgiven fraction of cap on open interest trade represents",
        "returns": {
          "ask_": "as the received ask price"
        }
      },
      "bid(address,uint256)": {
        "details": "fractionOfCapOi (i.e. oi / capOi) is FixedPoint",
        "notice": "Gets the bid price trader will receive on the Overlay marketgiven fraction of cap on open interest trade represents",
        "returns": {
          "bid_": "as the received bid price"
        }
      },
      "capOi(address)": {
        "notice": "Gets the current cap on open interest on the Overlay marketaccounting for front and back-running bounds",
        "returns": {
          "capOi_": "as the current open interest cap"
        }
      },
      "circuitBreakerLevel(address)": {
        "details": "circuit breaker level is reported as fraction of capOi in FixedPoint",
        "notice": "Gets the current level of the circuit breaker for theopen interest cap on the Overlay market",
        "returns": {
          "circuitBreakerLevel_": "as the current circuit breaker level"
        }
      },
      "collateral(address,address,uint256)": {
        "details": "N(t) = Q * (OI(t) / OI(0)) - D; where Q = notional at build,OI(t) = current open interest, OI(0) = open interest at build,D = debt at build",
        "notice": "Gets the current collateral backing the position on theOverlay market for the given position owner, id",
        "returns": {
          "collateral_": "as the current collateral backing the position"
        }
      },
      "cost(address,address,uint256)": {
        "notice": "Gets the current cost of the position on the Overlaymarket for the given position owner, id",
        "returns": {
          "cost_": "as the cost to build the position"
        }
      },
      "data(address)": {
        "notice": "Gets the oracle data from the given feed"
      },
      "debt(address,address,uint256)": {
        "notice": "Gets the current debt of the position on the Overlaymarket for the given position owner, id",
        "returns": {
          "debt_": "as the current debt taken on by the position"
        }
      },
      "fractionOfCapOi(address,uint256)": {
        "details": "fractionOfCapOi = oi / capOi is FixedPoint",
        "notice": "Gets the fraction of the current open interest cap thegiven oi contracts represents on the Overlay market",
        "returns": {
          "fractionOfCapOi_": "as fraction of open interest cap given oi is"
        }
      },
      "fundingRate(address)": {
        "details": "f = 2 * k * ( oiLong - oiShort ) / (oiLong + oiShort)such that long > short then positive",
        "notice": "Gets the current funding rate on the Overlay market",
        "returns": {
          "fundingRate_": "as the current funding rate"
        }
      },
      "liquidatable(address,address,uint256)": {
        "notice": "Gets whether the position is currently liquidatable on the Overlaymarket for the given position owner, id",
        "returns": {
          "liquidatable_": "as whether the position is liquidatable"
        }
      },
      "liquidationFee(address,address,uint256)": {
        "details": "liquidationFee_ == 0 if not liquidatable",
        "notice": "Gets the liquidation fee rewarded to the liquidator ifposition currently liquidatable on the Overlay marketfor the given position owner, id",
        "returns": {
          "liquidationFee_": "as the current liquidation fee reward"
        }
      },
      "liquidationPrice(address,address,uint256)": {
        "notice": "Gets the current liquidation price of the position on theOverlay market for the given position owner, id",
        "returns": {
          "liquidationPrice_": "as the current liquidation price"
        }
      },
      "maintenanceMargin(address,address,uint256)": {
        "notice": "Gets the maintenance margin required to keep the positionopen on the Overlay market for the given position owner, id",
        "returns": {
          "maintenanceMargin_": "as the maintenance margin"
        }
      },
      "marginExcessBeforeLiquidation(address,address,uint256)": {
        "details": "excess_ > 0: returns excess margin before liquidationexcess_ < 0, returns margin lost due to delayed liquidation",
        "notice": "Gets the current position remaining margin to eat throughbefore liquidation occurs on the Overlay marketfor the given position owner, id",
        "returns": {
          "excess_": "as the current value less maintenance and liq fees"
        }
      },
      "market(address)": {
        "details": "reverts if market doesn't exist",
        "notice": "Gets the Overlay market address for the given feed"
      },
      "marketState(address)": {
        "details": "WARNING: makes many calls to market",
        "notice": "Gets relevant market info to aggregate calls into asingle function",
        "returns": {
          "state_": "as the current aggregate market state"
        }
      },
      "mid(address)": {
        "notice": "Gets the mid price from feed used for liquidationson the Overlay market",
        "returns": {
          "mid_": "as the received mid price"
        }
      },
      "minted(address)": {
        "details": "minted_ > 0 means more OVL has been minted than burned recently",
        "notice": "Gets the current rolling amount minted (+) or burned (-)by the Overlay market",
        "returns": {
          "minted_": "as the current rolling amount minted"
        }
      },
      "notional(address,address,uint256)": {
        "notice": "Gets the current notional of the position on the Overlay marketfor the given position owner, id (accounts for PnL)",
        "returns": {
          "notional_": "as the current notional of the position"
        }
      },
      "oi(address,address,uint256)": {
        "notice": "Gets the current open interest of the position on the Overlaymarket for the given position owner, id",
        "returns": {
          "oi_": "as the current open interest occupied by the position"
        }
      },
      "ois(address)": {
        "notice": "Gets the current open interest values on the Overlay marketaccounting for funding",
        "returns": {
          "oiLong_": "as the current open interest long",
          "oiShort_": "as the current open interest short"
        }
      },
      "position(address,address,uint256)": {
        "notice": "Gets the position from the Overlay market or the givenposition owner and position id"
      },
      "prices(address)": {
        "notice": "Gets the current bid, ask, and mid price values on theOverlay market accounting for recent volume",
        "returns": {
          "ask_": "as the current ask price",
          "bid_": "as the current bid price",
          "mid_": "as the current mid price from feed"
        }
      },
      "tradingFee(address,address,uint256)": {
        "details": "tradingFee = notional * tradingFeeRate",
        "notice": "Gets the trading fee charged to unwind the position on theOverlay market for the given position owner, id",
        "returns": {
          "tradingFee_": "as the current trading fee charged"
        }
      },
      "value(address,address,uint256)": {
        "notice": "Gets the current value of the position on the Overlay marketfor the given position owner, id",
        "returns": {
          "value_": "as the current value of the position"
        }
      },
      "volumeAsk(address,uint256)": {
        "details": "fractionOfCapOi (i.e. oi / capOi) is FixedPoint",
        "notice": "Gets the rolling volume on the ask after the trader placestrade on the Overlay market given fraction of cap onopen interest trade represents",
        "returns": {
          "volumeAsk_": "as the volume on the ask"
        }
      },
      "volumeBid(address,uint256)": {
        "details": "fractionOfCapOi (i.e. oi / capOi) is FixedPoint",
        "notice": "Gets the rolling volume on the bid after the trader placestrade on the Overlay market given fraction of cap onopen interest trade represents",
        "returns": {
          "volumeBid_": "as the volume on the bid"
        }
      },
      "volumes(address)": {
        "notice": "Gets the current rolling volume on the bid and ask sidesof the Overlay market",
        "returns": {
          "volumeAsk_": "as the current rolling volume on the ask",
          "volumeBid_": "as the current rolling volume on the bid"
        }
      }
    },
    "title": "A market state contract to view the current state ofan Overlay market",
    "version": 1
  },
  "opcodes": "PUSH1 0x80 PUSH1 0x40 MSTORE CALLVALUE DUP1 ISZERO PUSH2 0x10 JUMPI PUSH1 0x0 DUP1 REVERT JUMPDEST POP PUSH1 0x4 CALLDATASIZE LT PUSH2 0x1DA JUMPI PUSH1 0x0 CALLDATALOAD PUSH1 0xE0 SHR DUP1 PUSH4 0x730C4AFF GT PUSH2 0x104 JUMPI DUP1 PUSH4 0xB1EC4C40 GT PUSH2 0xA2 JUMPI DUP1 PUSH4 0xCFED246B GT PUSH2 0x71 JUMPI DUP1 PUSH4 0xCFED246B EQ PUSH2 0x4B7 JUMPI DUP1 PUSH4 0xD16F3BBF EQ PUSH2 0x4E5 JUMPI DUP1 PUSH4 0xE8EF90B2 EQ PUSH2 0x4F8 JUMPI DUP1 PUSH4 0xF5D2B334 EQ PUSH2 0x575 JUMPI PUSH1 0x0 DUP1 REVERT JUMPDEST DUP1 PUSH4 0xB1EC4C40 EQ PUSH2 0x44A JUMPI DUP1 PUSH4 0xB90D3D0C EQ PUSH2 0x45D JUMPI DUP1 PUSH4 0xC18F32F6 EQ PUSH2 0x47D JUMPI DUP1 PUSH4 0xC45A0155 EQ PUSH2 0x490 JUMPI PUSH1 0x0 DUP1 REVERT JUMPDEST DUP1 PUSH4 0x93B0FE49 GT PUSH2 0xDE JUMPI DUP1 PUSH4 0x93B0FE49 EQ PUSH2 0x36D JUMPI DUP1 PUSH4 0x9F382F6A EQ PUSH2 0x380 JUMPI DUP1 PUSH4 0xA7A9A62C EQ PUSH2 0x3AB JUMPI DUP1 PUSH4 0xA92C5165 EQ PUSH2 0x437 JUMPI PUSH1 0x0 DUP1 REVERT JUMPDEST DUP1 PUSH4 0x730C4AFF EQ PUSH2 0x334 JUMPI DUP1 PUSH4 0x81EC8B9E EQ PUSH2 0x347 JUMPI DUP1 PUSH4 0x8E968FE5 EQ PUSH2 0x35A JUMPI PUSH1 0x0 DUP1 REVERT JUMPDEST DUP1 PUSH4 0x4C5CF658 GT PUSH2 0x17C JUMPI DUP1 PUSH4 0x5BBC8BE2 GT PUSH2 0x14B JUMPI DUP1 PUSH4 0x5BBC8BE2 EQ PUSH2 0x2D3 JUMPI DUP1 PUSH4 0x5CFDCC0D EQ PUSH2 0x2E6 JUMPI DUP1 PUSH4 0x617F37BD EQ PUSH2 0x2F9 JUMPI DUP1 PUSH4 0x727E8A1B EQ PUSH2 0x321 JUMPI PUSH1 0x0 DUP1 REVERT JUMPDEST DUP1 PUSH4 0x4C5CF658 EQ PUSH2 0x287 JUMPI DUP1 PUSH4 0x4EA66316 EQ PUSH2 0x29A JUMPI DUP1 PUSH4 0x53F16F67 EQ PUSH2 0x2AD JUMPI DUP1 PUSH4 0x59D667A5 EQ PUSH2 0x2C0 JUMPI PUSH1 0x0 DUP1 REVERT JUMPDEST DUP1 PUSH4 0x1E7269C5 GT PUSH2 0x1B8 JUMPI DUP1 PUSH4 0x1E7269C5 EQ PUSH2 0x23B JUMPI DUP1 PUSH4 0x42D0C443 EQ PUSH2 0x24E JUMPI DUP1 PUSH4 0x43CA411A EQ PUSH2 0x261 JUMPI DUP1 PUSH4 0x48D5DBCC EQ PUSH2 0x274 JUMPI PUSH1 0x0 DUP1 REVERT JUMPDEST DUP1 PUSH4 0xAFB11E3 EQ PUSH2 0x1DF JUMPI DUP1 PUSH4 0x1776F7E9 EQ PUSH2 0x207 JUMPI DUP1 PUSH4 0x1C136A00 EQ PUSH2 0x228 JUMPI JUMPDEST PUSH1 0x0 DUP1 REVERT JUMPDEST PUSH2 0x1F2 PUSH2 0x1ED CALLDATASIZE PUSH1 0x4 PUSH2 0x307A JUMP JUMPDEST PUSH2 0x588 JUMP JUMPDEST PUSH1 0x40 MLOAD SWAP1 ISZERO ISZERO DUP2 MSTORE PUSH1 0x20 ADD JUMPDEST PUSH1 0x40 MLOAD DUP1 SWAP2 SUB SWAP1 RETURN JUMPDEST PUSH2 0x21A PUSH2 0x215 CALLDATASIZE PUSH1 0x4 PUSH2 0x307A JUMP JUMPDEST PUSH2 0x621 JUMP JUMPDEST PUSH1 0x40 MLOAD SWAP1 DUP2 MSTORE PUSH1 0x20 ADD PUSH2 0x1FE JUMP JUMPDEST PUSH2 0x21A PUSH2 0x236 CALLDATASIZE PUSH1 0x4 PUSH2 0x307A JUMP JUMPDEST PUSH2 0x643 JUMP JUMPDEST PUSH2 0x21A PUSH2 0x249 CALLDATASIZE PUSH1 0x4 PUSH2 0x30BB JUMP JUMPDEST PUSH2 0x715 JUMP JUMPDEST PUSH2 0x21A PUSH2 0x25C CALLDATASIZE PUSH1 0x4 PUSH2 0x307A JUMP JUMPDEST PUSH2 0x841 JUMP JUMPDEST PUSH2 0x21A PUSH2 0x26F CALLDATASIZE PUSH1 0x4 PUSH2 0x30D8 JUMP JUMPDEST PUSH2 0x959 JUMP JUMPDEST PUSH2 0x21A PUSH2 0x282 CALLDATASIZE PUSH1 0x4 PUSH2 0x30D8 JUMP JUMPDEST PUSH2 0x9D8 JUMP JUMPDEST PUSH2 0x21A PUSH2 0x295 CALLDATASIZE PUSH1 0x4 PUSH2 0x307A JUMP JUMPDEST PUSH2 0xA57 JUMP JUMPDEST PUSH2 0x21A PUSH2 0x2A8 CALLDATASIZE PUSH1 0x4 PUSH2 0x30D8 JUMP JUMPDEST PUSH2 0xAE5 JUMP JUMPDEST PUSH2 0x21A PUSH2 0x2BB CALLDATASIZE PUSH1 0x4 PUSH2 0x307A JUMP JUMPDEST PUSH2 0xB64 JUMP JUMPDEST PUSH2 0x21A PUSH2 0x2CE CALLDATASIZE PUSH1 0x4 PUSH2 0x30D8 JUMP JUMPDEST PUSH2 0xBF1 JUMP JUMPDEST PUSH2 0x21A PUSH2 0x2E1 CALLDATASIZE PUSH1 0x4 PUSH2 0x307A JUMP JUMPDEST PUSH2 0xC70 JUMP JUMPDEST PUSH2 0x21A PUSH2 0x2F4 CALLDATASIZE PUSH1 0x4 PUSH2 0x30BB JUMP JUMPDEST PUSH2 0xC89 JUMP JUMPDEST PUSH2 0x30C PUSH2 0x307 CALLDATASIZE PUSH1 0x4 PUSH2 0x30BB JUMP JUMPDEST PUSH2 0xC9A JUMP JUMPDEST PUSH1 0x40 DUP1 MLOAD SWAP3 DUP4 MSTORE PUSH1 0x20 DUP4 ADD SWAP2 SWAP1 SWAP2 MSTORE ADD PUSH2 0x1FE JUMP JUMPDEST PUSH2 0x21A PUSH2 0x32F CALLDATASIZE PUSH1 0x4 PUSH2 0x30BB JUMP JUMPDEST PUSH2 0xCB0 JUMP JUMPDEST PUSH2 0x21A PUSH2 0x342 CALLDATASIZE PUSH1 0x4 PUSH2 0x307A JUMP JUMPDEST PUSH2 0xD35 JUMP JUMPDEST PUSH2 0x21A PUSH2 0x355 CALLDATASIZE PUSH1 0x4 PUSH2 0x30BB JUMP JUMPDEST PUSH2 0xD4F JUMP JUMPDEST PUSH2 0x21A PUSH2 0x368 CALLDATASIZE PUSH1 0x4 PUSH2 0x30BB JUMP JUMPDEST PUSH2 0xD5A JUMP JUMPDEST PUSH2 0x21A PUSH2 0x37B CALLDATASIZE PUSH1 0x4 PUSH2 0x307A JUMP JUMPDEST PUSH2 0xDD8 JUMP JUMPDEST PUSH2 0x393 PUSH2 0x38E CALLDATASIZE PUSH1 0x4 PUSH2 0x30BB JUMP JUMPDEST PUSH2 0xE66 JUMP JUMPDEST PUSH1 0x40 MLOAD PUSH1 0x1 PUSH1 0x1 PUSH1 0xA0 SHL SUB SWAP1 SWAP2 AND DUP2 MSTORE PUSH1 0x20 ADD PUSH2 0x1FE JUMP JUMPDEST PUSH2 0x3BE PUSH2 0x3B9 CALLDATASIZE PUSH1 0x4 PUSH2 0x30BB JUMP JUMPDEST PUSH2 0xE71 JUMP JUMPDEST PUSH1 0x40 MLOAD PUSH2 0x1FE SWAP2 SWAP1 PUSH1 0x0 PUSH2 0x140 DUP3 ADD SWAP1 POP DUP3 MLOAD DUP3 MSTORE PUSH1 0x20 DUP4 ADD MLOAD PUSH1 0x20 DUP4 ADD MSTORE PUSH1 0x40 DUP4 ADD MLOAD PUSH1 0x40 DUP4 ADD MSTORE PUSH1 0x60 DUP4 ADD MLOAD PUSH1 0x60 DUP4 ADD MSTORE PUSH1 0x80 DUP4 ADD MLOAD PUSH1 0x80 DUP4 ADD MSTORE PUSH1 0xA0 DUP4 ADD MLOAD PUSH1 0xA0 DUP4 ADD MSTORE PUSH1 0xC0 DUP4 ADD MLOAD PUSH1 0xC0 DUP4 ADD MSTORE PUSH1 0xE0 DUP4 ADD MLOAD PUSH1 0xE0 DUP4 ADD MSTORE PUSH2 0x100 DUP1 DUP5 ADD MLOAD DUP2 DUP5 ADD MSTORE POP PUSH2 0x120 DUP1 DUP5 ADD MLOAD DUP2 DUP5 ADD MSTORE POP SWAP3 SWAP2 POP POP JUMP JUMPDEST PUSH2 0x21A PUSH2 0x445 CALLDATASIZE PUSH1 0x4 PUSH2 0x307A JUMP JUMPDEST PUSH2 0xFE6 JUMP JUMPDEST PUSH2 0x30C PUSH2 0x458 CALLDATASIZE PUSH1 0x4 PUSH2 0x30BB JUMP JUMPDEST PUSH2 0x1000 JUMP JUMPDEST PUSH2 0x470 PUSH2 0x46B CALLDATASIZE PUSH1 0x4 PUSH2 0x30BB JUMP JUMPDEST PUSH2 0x1099 JUMP JUMPDEST PUSH1 0x40 MLOAD PUSH2 0x1FE SWAP2 SWAP1 PUSH2 0x3104 JUMP JUMPDEST PUSH2 0x21A PUSH2 0x48B CALLDATASIZE PUSH1 0x4 PUSH2 0x307A JUMP JUMPDEST PUSH2 0x10EC JUMP JUMPDEST PUSH2 0x393 PUSH32 0x0 DUP2 JUMP JUMPDEST PUSH2 0x4CA PUSH2 0x4C5 CALLDATASIZE PUSH1 0x4 PUSH2 0x30BB JUMP JUMPDEST PUSH2 0x117A JUMP JUMPDEST PUSH1 0x40 DUP1 MLOAD SWAP4 DUP5 MSTORE PUSH1 0x20 DUP5 ADD SWAP3 SWAP1 SWAP3 MSTORE SWAP1 DUP3 ADD MSTORE PUSH1 0x60 ADD PUSH2 0x1FE JUMP JUMPDEST PUSH2 0x21A PUSH2 0x4F3 CALLDATASIZE PUSH1 0x4 PUSH2 0x30D8 JUMP JUMPDEST PUSH2 0x1220 JUMP JUMPDEST PUSH2 0x50B PUSH2 0x506 CALLDATASIZE PUSH1 0x4 PUSH2 0x307A JUMP JUMPDEST PUSH2 0x129F JUMP JUMPDEST PUSH1 0x40 MLOAD PUSH2 0x1FE SWAP2 SWAP1 PUSH1 0x0 PUSH1 0xC0 DUP3 ADD SWAP1 POP PUSH12 0xFFFFFFFFFFFFFFFFFFFFFFFF DUP1 DUP5 MLOAD AND DUP4 MSTORE DUP1 PUSH1 0x20 DUP6 ADD MLOAD AND PUSH1 0x20 DUP5 ADD MSTORE POP PUSH6 0xFFFFFFFFFFFF PUSH1 0x40 DUP5 ADD MLOAD AND PUSH1 0x40 DUP4 ADD MSTORE PUSH1 0x60 DUP4 ADD MLOAD ISZERO ISZERO PUSH1 0x60 DUP4 ADD MSTORE PUSH1 0x80 DUP4 ADD MLOAD ISZERO ISZERO PUSH1 0x80 DUP4 ADD MSTORE PUSH1 0xA0 DUP4 ADD MLOAD PUSH1 0xA0 DUP4 ADD MSTORE SWAP3 SWAP2 POP POP JUMP JUMPDEST PUSH2 0x21A PUSH2 0x583 CALLDATASIZE PUSH1 0x4 PUSH2 0x307A JUMP JUMPDEST PUSH2 0x12DC JUMP JUMPDEST PUSH1 0x0 DUP1 DUP5 PUSH1 0x1 PUSH1 0x1 PUSH1 0xA0 SHL SUB AND PUSH4 0x37A7B7D8 PUSH1 0x40 MLOAD DUP2 PUSH4 0xFFFFFFFF AND PUSH1 0xE0 SHL DUP2 MSTORE PUSH1 0x4 ADD PUSH1 0x20 PUSH1 0x40 MLOAD DUP1 DUP4 SUB DUP2 DUP7 GAS STATICCALL ISZERO DUP1 ISZERO PUSH2 0x5C9 JUMPI RETURNDATASIZE PUSH1 0x0 DUP1 RETURNDATACOPY RETURNDATASIZE PUSH1 0x0 REVERT JUMPDEST POP POP POP POP PUSH1 0x40 MLOAD RETURNDATASIZE PUSH1 0x1F NOT PUSH1 0x1F DUP3 ADD AND DUP3 ADD DUP1 PUSH1 0x40 MSTORE POP DUP2 ADD SWAP1 PUSH2 0x5ED SWAP2 SWAP1 PUSH2 0x315E JUMP JUMPDEST SWAP1 POP PUSH1 0x0 PUSH2 0x5FA DUP3 PUSH2 0x14C1 JUMP JUMPDEST SWAP1 POP PUSH1 0x0 PUSH2 0x609 DUP8 DUP8 DUP8 PUSH2 0x156E JUMP JUMPDEST SWAP1 POP PUSH2 0x616 DUP8 DUP4 DUP4 PUSH2 0x16B2 JUMP JUMPDEST SWAP8 SWAP7 POP POP POP POP POP POP POP JUMP JUMPDEST PUSH1 0x0 DUP1 PUSH2 0x62F DUP6 DUP6 DUP6 PUSH2 0x156E JUMP JUMPDEST SWAP1 POP PUSH2 0x63A DUP2 PUSH2 0x191D JUMP JUMPDEST SWAP6 SWAP5 POP POP POP POP POP JUMP JUMPDEST PUSH1 0x0 DUP1 DUP5 PUSH1 0x1 PUSH1 0x1 PUSH1 0xA0 SHL SUB AND PUSH4 0x37A7B7D8 PUSH1 0x40 MLOAD DUP2 PUSH4 0xFFFFFFFF AND PUSH1 0xE0 SHL DUP2 MSTORE PUSH1 0x4 ADD PUSH1 0x20 PUSH1 0x40 MLOAD DUP1 DUP4 SUB DUP2 DUP7 GAS STATICCALL ISZERO DUP1 ISZERO PUSH2 0x684 JUMPI RETURNDATASIZE PUSH1 0x0 DUP1 RETURNDATACOPY RETURNDATASIZE PUSH1 0x0 REVERT JUMPDEST POP POP POP POP PUSH1 0x40 MLOAD RETURNDATASIZE PUSH1 0x1F NOT PUSH1 0x1F DUP3 ADD AND DUP3 ADD DUP1 PUSH1 0x40 MSTORE POP DUP2 ADD SWAP1 PUSH2 0x6A8 SWAP2 SWAP1 PUSH2 0x315E JUMP JUMPDEST SWAP1 POP PUSH1 0x0 PUSH2 0x6B5 DUP3 PUSH2 0x14C1 JUMP JUMPDEST SWAP1 POP PUSH1 0x0 PUSH2 0x6C4 DUP8 DUP8 DUP8 PUSH2 0x156E JUMP JUMPDEST SWAP1 POP PUSH1 0x0 PUSH2 0x6D3 DUP9 DUP5 DUP5 PUSH2 0x1939 JUMP JUMPDEST SWAP1 POP PUSH1 0x0 PUSH2 0x6E1 DUP10 DUP5 PUSH2 0x1AE8 JUMP JUMPDEST SWAP1 POP PUSH1 0x0 PUSH2 0x6F0 DUP11 DUP7 DUP7 PUSH2 0x1B78 JUMP JUMPDEST SWAP1 POP DUP1 PUSH2 0x6FD DUP4 DUP6 PUSH2 0x3191 JUMP JUMPDEST PUSH2 0x707 SWAP2 SWAP1 PUSH2 0x3191 JUMP JUMPDEST SWAP11 SWAP10 POP POP POP POP POP POP POP POP POP POP JUMP JUMPDEST PUSH1 0x0 DUP1 PUSH1 0x0 DUP1 DUP5 PUSH1 0x1 PUSH1 0x1 PUSH1 0xA0 SHL SUB AND PUSH4 0x5B6DF29A PUSH1 0x40 MLOAD DUP2 PUSH4 0xFFFFFFFF AND PUSH1 0xE0 SHL DUP2 MSTORE PUSH1 0x4 ADD PUSH1 0x60 PUSH1 0x40 MLOAD DUP1 DUP4 SUB DUP2 DUP7 GAS STATICCALL ISZERO DUP1 ISZERO PUSH2 0x759 JUMPI RETURNDATASIZE PUSH1 0x0 DUP1 RETURNDATACOPY RETURNDATASIZE PUSH1 0x0 REVERT JUMPDEST POP POP POP POP PUSH1 0x40 MLOAD RETURNDATASIZE PUSH1 0x1F NOT PUSH1 0x1F DUP3 ADD AND DUP3 ADD DUP1 PUSH1 0x40 MSTORE POP DUP2 ADD SWAP1 PUSH2 0x77D SWAP2 SWAP1 PUSH2 0x31E9 JUMP JUMPDEST PUSH1 0x40 DUP1 MLOAD PUSH1 0x60 DUP2 ADD DUP3 MSTORE PUSH4 0xFFFFFFFF DUP6 DUP2 AND DUP3 MSTORE DUP5 AND PUSH1 0x20 DUP3 ADD MSTORE PUSH1 0x17 DUP4 SWAP1 SIGNEXTEND DUP2 DUP4 ADD MSTORE SWAP1 MLOAD PUSH4 0x274BC14F PUSH1 0xE2 SHL DUP2 MSTORE PUSH1 0x6 PUSH1 0x4 DUP3 ADD MSTORE SWAP4 SWAP7 POP SWAP2 SWAP5 POP SWAP3 POP SWAP1 PUSH1 0x0 SWAP1 PUSH1 0x1 PUSH1 0x1 PUSH1 0xA0 SHL SUB DUP9 AND SWAP1 PUSH4 0x9D2F053C SWAP1 PUSH1 0x24 ADD PUSH1 0x20 PUSH1 0x40 MLOAD DUP1 DUP4 SUB DUP2 DUP7 GAS STATICCALL ISZERO DUP1 ISZERO PUSH2 0x7F1 JUMPI RETURNDATASIZE PUSH1 0x0 DUP1 RETURNDATACOPY RETURNDATASIZE PUSH1 0x0 REVERT JUMPDEST POP POP POP POP PUSH1 0x40 MLOAD RETURNDATASIZE PUSH1 0x1F NOT PUSH1 0x1F DUP3 ADD AND DUP3 ADD DUP1 PUSH1 0x40 MSTORE POP DUP2 ADD SWAP1 PUSH2 0x815 SWAP2 SWAP1 PUSH2 0x3236 JUMP JUMPDEST SWAP1 POP PUSH1 0x0 PUSH2 0x825 DUP4 TIMESTAMP DUP5 DUP5 PUSH2 0x1C1D JUMP JUMPDEST SWAP3 POP PUSH2 0x835 DUP4 PUSH1 0x40 ADD MLOAD PUSH1 0x17 SIGNEXTEND SWAP1 JUMP JUMPDEST SWAP9 SWAP8 POP POP POP POP POP POP POP POP JUMP JUMPDEST PUSH1 0x0 DUP1 DUP5 PUSH1 0x1 PUSH1 0x1 PUSH1 0xA0 SHL SUB AND PUSH4 0x37A7B7D8 PUSH1 0x40 MLOAD DUP2 PUSH4 0xFFFFFFFF AND PUSH1 0xE0 SHL DUP2 MSTORE PUSH1 0x4 ADD PUSH1 0x20 PUSH1 0x40 MLOAD DUP1 DUP4 SUB DUP2 DUP7 GAS STATICCALL ISZERO DUP1 ISZERO PUSH2 0x882 JUMPI RETURNDATASIZE PUSH1 0x0 DUP1 RETURNDATACOPY RETURNDATASIZE PUSH1 0x0 REVERT JUMPDEST POP POP POP POP PUSH1 0x40 MLOAD RETURNDATASIZE PUSH1 0x1F NOT PUSH1 0x1F DUP3 ADD AND DUP3 ADD DUP1 PUSH1 0x40 MSTORE POP DUP2 ADD SWAP1 PUSH2 0x8A6 SWAP2 SWAP1 PUSH2 0x315E JUMP JUMPDEST SWAP1 POP PUSH1 0x0 PUSH2 0x8B3 DUP3 PUSH2 0x14C1 JUMP JUMPDEST SWAP1 POP PUSH1 0x0 PUSH2 0x8C2 DUP8 DUP8 DUP8 PUSH2 0x156E JUMP JUMPDEST SWAP1 POP PUSH1 0x0 PUSH2 0x8D1 DUP9 DUP5 DUP5 PUSH2 0x1E55 JUMP JUMPDEST PUSH1 0x40 MLOAD PUSH4 0x274BC14F PUSH1 0xE2 SHL DUP2 MSTORE PUSH1 0xB PUSH1 0x4 DUP3 ADD MSTORE SWAP1 SWAP2 POP PUSH1 0x0 SWAP1 PUSH1 0x1 PUSH1 0x1 PUSH1 0xA0 SHL SUB DUP11 AND SWAP1 PUSH4 0x9D2F053C SWAP1 PUSH1 0x24 ADD PUSH1 0x20 PUSH1 0x40 MLOAD DUP1 DUP4 SUB DUP2 DUP7 GAS STATICCALL ISZERO DUP1 ISZERO PUSH2 0x91C JUMPI RETURNDATASIZE PUSH1 0x0 DUP1 RETURNDATACOPY RETURNDATASIZE PUSH1 0x0 REVERT JUMPDEST POP POP POP POP PUSH1 0x40 MLOAD RETURNDATASIZE PUSH1 0x1F NOT PUSH1 0x1F DUP3 ADD AND DUP3 ADD DUP1 PUSH1 0x40 MSTORE POP DUP2 ADD SWAP1 PUSH2 0x940 SWAP2 SWAP1 PUSH2 0x3236 JUMP JUMPDEST SWAP1 POP PUSH2 0x94C DUP3 DUP3 PUSH2 0x2023 JUMP JUMPDEST SWAP10 SWAP9 POP POP POP POP POP POP POP POP POP JUMP JUMPDEST PUSH1 0x0 DUP1 DUP4 PUSH1 0x1 PUSH1 0x1 PUSH1 0xA0 SHL SUB AND PUSH4 0x37A7B7D8 PUSH1 0x40 MLOAD DUP2 PUSH4 0xFFFFFFFF AND PUSH1 0xE0 SHL DUP2 MSTORE PUSH1 0x4 ADD PUSH1 0x20 PUSH1 0x40 MLOAD DUP1 DUP4 SUB DUP2 DUP7 GAS STATICCALL ISZERO DUP1 ISZERO PUSH2 0x99A JUMPI RETURNDATASIZE PUSH1 0x0 DUP1 RETURNDATACOPY RETURNDATASIZE PUSH1 0x0 REVERT JUMPDEST POP POP POP POP PUSH1 0x40 MLOAD RETURNDATASIZE PUSH1 0x1F NOT PUSH1 0x1F DUP3 ADD AND DUP3 ADD DUP1 PUSH1 0x40 MSTORE POP DUP2 ADD SWAP1 PUSH2 0x9BE SWAP2 SWAP1 PUSH2 0x315E JUMP JUMPDEST SWAP1 POP PUSH1 0x0 PUSH2 0x9CB DUP3 PUSH2 0x14C1 JUMP JUMPDEST SWAP1 POP PUSH2 0x63A DUP6 DUP3 DUP7 PUSH2 0x206A JUMP JUMPDEST PUSH1 0x0 DUP1 DUP4 PUSH1 0x1 PUSH1 0x1 PUSH1 0xA0 SHL SUB AND PUSH4 0x37A7B7D8 PUSH1 0x40 MLOAD DUP2 PUSH4 0xFFFFFFFF AND PUSH1 0xE0 SHL DUP2 MSTORE PUSH1 0x4 ADD PUSH1 0x20 PUSH1 0x40 MLOAD DUP1 DUP4 SUB DUP2 DUP7 GAS STATICCALL ISZERO DUP1 ISZERO PUSH2 0xA19 JUMPI RETURNDATASIZE PUSH1 0x0 DUP1 RETURNDATACOPY RETURNDATASIZE PUSH1 0x0 REVERT JUMPDEST POP POP POP POP PUSH1 0x40 MLOAD RETURNDATASIZE PUSH1 0x1F NOT PUSH1 0x1F DUP3 ADD AND DUP3 ADD DUP1 PUSH1 0x40 MSTORE POP DUP2 ADD SWAP1 PUSH2 0xA3D SWAP2 SWAP1 PUSH2 0x315E JUMP JUMPDEST SWAP1 POP PUSH1 0x0 PUSH2 0xA4A DUP3 PUSH2 0x14C1 JUMP JUMPDEST SWAP1 POP PUSH2 0x63A DUP6 DUP3 DUP7 PUSH2 0x2093 JUMP JUMPDEST PUSH1 0x0 DUP1 DUP5 PUSH1 0x1 PUSH1 0x1 PUSH1 0xA0 SHL SUB AND PUSH4 0x37A7B7D8 PUSH1 0x40 MLOAD DUP2 PUSH4 0xFFFFFFFF AND PUSH1 0xE0 SHL DUP2 MSTORE PUSH1 0x4 ADD PUSH1 0x20 PUSH1 0x40 MLOAD DUP1 DUP4 SUB DUP2 DUP7 GAS STATICCALL ISZERO DUP1 ISZERO PUSH2 0xA98 JUMPI RETURNDATASIZE PUSH1 0x0 DUP1 RETURNDATACOPY RETURNDATASIZE PUSH1 0x0 REVERT JUMPDEST POP POP POP POP PUSH1 0x40 MLOAD RETURNDATASIZE PUSH1 0x1F NOT PUSH1 0x1F DUP3 ADD AND DUP3 ADD DUP1 PUSH1 0x40 MSTORE POP DUP2 ADD SWAP1 PUSH2 0xABC SWAP2 SWAP1 PUSH2 0x315E JUMP JUMPDEST SWAP1 POP PUSH1 0x0 PUSH2 0xAC9 DUP3 PUSH2 0x14C1 JUMP JUMPDEST SWAP1 POP PUSH1 0x0 PUSH2 0xAD8 DUP8 DUP8 DUP8 PUSH2 0x156E JUMP JUMPDEST SWAP1 POP PUSH2 0x616 DUP8 DUP4 DUP4 PUSH2 0x215F JUMP JUMPDEST PUSH1 0x0 DUP1 DUP4 PUSH1 0x1 PUSH1 0x1 PUSH1 0xA0 SHL SUB AND PUSH4 0x37A7B7D8 PUSH1 0x40 MLOAD DUP2 PUSH4 0xFFFFFFFF AND PUSH1 0xE0 SHL DUP2 MSTORE PUSH1 0x4 ADD PUSH1 0x20 PUSH1 0x40 MLOAD DUP1 DUP4 SUB DUP2 DUP7 GAS STATICCALL ISZERO DUP1 ISZERO PUSH2 0xB26 JUMPI RETURNDATASIZE PUSH1 0x0 DUP1 RETURNDATACOPY RETURNDATASIZE PUSH1 0x0 REVERT JUMPDEST POP POP POP POP PUSH1 0x40 MLOAD RETURNDATASIZE PUSH1 0x1F NOT PUSH1 0x1F DUP3 ADD AND DUP3 ADD DUP1 PUSH1 0x40 MSTORE POP DUP2 ADD SWAP1 PUSH2 0xB4A SWAP2 SWAP1 PUSH2 0x315E JUMP JUMPDEST SWAP1 POP PUSH1 0x0 PUSH2 0xB57 DUP3 PUSH2 0x14C1 JUMP JUMPDEST SWAP1 POP PUSH2 0x63A DUP6 DUP3 DUP7 PUSH2 0x22A4 JUMP JUMPDEST PUSH1 0x0 DUP1 DUP5 PUSH1 0x1 PUSH1 0x1 PUSH1 0xA0 SHL SUB AND PUSH4 0x37A7B7D8 PUSH1 0x40 MLOAD DUP2 PUSH4 0xFFFFFFFF AND PUSH1 0xE0 SHL DUP2 MSTORE PUSH1 0x4 ADD PUSH1 0x20 PUSH1 0x40 MLOAD DUP1 DUP4 SUB DUP2 DUP7 GAS STATICCALL ISZERO DUP1 ISZERO PUSH2 0xBA5 JUMPI RETURNDATASIZE PUSH1 0x0 DUP1 RETURNDATACOPY RETURNDATASIZE PUSH1 0x0 REVERT JUMPDEST POP POP POP POP PUSH1 0x40 MLOAD RETURNDATASIZE PUSH1 0x1F NOT PUSH1 0x1F DUP3 ADD AND DUP3 ADD DUP1 PUSH1 0x40 MSTORE POP DUP2 ADD SWAP1 PUSH2 0xBC9 SWAP2 SWAP1 PUSH2 0x315E JUMP JUMPDEST SWAP1 POP PUSH1 0x0 PUSH2 0xBD6 DUP3 PUSH2 0x14C1 JUMP JUMPDEST SWAP1 POP PUSH1 0x0 PUSH2 0xBE5 DUP8 DUP8 DUP8 PUSH2 0x156E JUMP JUMPDEST SWAP1 POP PUSH2 0x616 DUP8 DUP3 PUSH2 0x1AE8 JUMP JUMPDEST PUSH1 0x0 DUP1 DUP4 PUSH1 0x1 PUSH1 0x1 PUSH1 0xA0 SHL SUB AND PUSH4 0x37A7B7D8 PUSH1 0x40 MLOAD DUP2 PUSH4 0xFFFFFFFF AND PUSH1 0xE0 SHL DUP2 MSTORE PUSH1 0x4 ADD PUSH1 0x20 PUSH1 0x40 MLOAD DUP1 DUP4 SUB DUP2 DUP7 GAS STATICCALL ISZERO DUP1 ISZERO PUSH2 0xC32 JUMPI RETURNDATASIZE PUSH1 0x0 DUP1 RETURNDATACOPY RETURNDATASIZE PUSH1 0x0 REVERT JUMPDEST POP POP POP POP PUSH1 0x40 MLOAD RETURNDATASIZE PUSH1 0x1F NOT PUSH1 0x1F DUP3 ADD AND DUP3 ADD DUP1 PUSH1 0x40 MSTORE POP DUP2 ADD SWAP1 PUSH2 0xC56 SWAP2 SWAP1 PUSH2 0x315E JUMP JUMPDEST SWAP1 POP PUSH1 0x0 PUSH2 0xC63 DUP3 PUSH2 0x14C1 JUMP JUMPDEST SWAP1 POP PUSH2 0x63A DUP6 DUP3 DUP7 PUSH2 0x22E8 JUMP JUMPDEST PUSH1 0x0 DUP1 PUSH2 0xC7E DUP6 DUP6 DUP6 PUSH2 0x156E JUMP JUMPDEST SWAP1 POP PUSH2 0x63A DUP2 PUSH2 0x2368 JUMP JUMPDEST PUSH1 0x0 PUSH2 0xC94 DUP3 PUSH2 0x237D JUMP JUMPDEST SWAP3 SWAP2 POP POP JUMP JUMPDEST PUSH1 0x0 DUP1 PUSH2 0xCA6 DUP4 PUSH2 0x24A4 JUMP JUMPDEST SWAP1 SWAP5 SWAP1 SWAP4 POP SWAP2 POP POP JUMP JUMPDEST PUSH1 0x0 DUP1 DUP3 PUSH1 0x1 PUSH1 0x1 PUSH1 0xA0 SHL SUB AND PUSH4 0x37A7B7D8 PUSH1 0x40 MLOAD DUP2 PUSH4 0xFFFFFFFF AND PUSH1 0xE0 SHL DUP2 MSTORE PUSH1 0x4 ADD PUSH1 0x20 PUSH1 0x40 MLOAD DUP1 DUP4 SUB DUP2 DUP7 GAS STATICCALL ISZERO DUP1 ISZERO PUSH2 0xCF1 JUMPI RETURNDATASIZE PUSH1 0x0 DUP1 RETURNDATACOPY RETURNDATASIZE PUSH1 0x0 REVERT JUMPDEST POP POP POP POP PUSH1 0x40 MLOAD RETURNDATASIZE PUSH1 0x1F NOT PUSH1 0x1F DUP3 ADD AND DUP3 ADD DUP1 PUSH1 0x40 MSTORE POP DUP2 ADD SWAP1 PUSH2 0xD15 SWAP2 SWAP1 PUSH2 0x315E JUMP JUMPDEST SWAP1 POP PUSH1 0x0 PUSH2 0xD22 DUP3 PUSH2 0x14C1 JUMP JUMPDEST SWAP1 POP PUSH2 0xD2D DUP2 PUSH2 0x26AE JUMP JUMPDEST SWAP5 SWAP4 POP POP POP POP JUMP JUMPDEST PUSH1 0x0 DUP1 PUSH2 0xD43 DUP6 DUP6 DUP6 PUSH2 0x156E JUMP JUMPDEST SWAP1 POP PUSH2 0x63A DUP6 DUP3 PUSH2 0x26C2 JUMP JUMPDEST PUSH1 0x0 PUSH2 0xC94 DUP3 PUSH2 0x27D3 JUMP JUMPDEST PUSH1 0x0 DUP1 DUP3 PUSH1 0x1 PUSH1 0x1 PUSH1 0xA0 SHL SUB AND PUSH4 0x37A7B7D8 PUSH1 0x40 MLOAD DUP2 PUSH4 0xFFFFFFFF AND PUSH1 0xE0 SHL DUP2 MSTORE PUSH1 0x4 ADD PUSH1 0x20 PUSH1 0x40 MLOAD DUP1 DUP4 SUB DUP2 DUP7 GAS STATICCALL ISZERO DUP1 ISZERO PUSH2 0xD9B JUMPI RETURNDATASIZE PUSH1 0x0 DUP1 RETURNDATACOPY RETURNDATASIZE PUSH1 0x0 REVERT JUMPDEST POP POP POP POP PUSH1 0x40 MLOAD RETURNDATASIZE PUSH1 0x1F NOT PUSH1 0x1F DUP3 ADD AND DUP3 ADD DUP1 PUSH1 0x40 MSTORE POP DUP2 ADD SWAP1 PUSH2 0xDBF SWAP2 SWAP1 PUSH2 0x315E JUMP JUMPDEST SWAP1 POP PUSH1 0x0 PUSH2 0xDCC DUP3 PUSH2 0x14C1 JUMP JUMPDEST SWAP1 POP PUSH2 0xD2D DUP5 DUP3 PUSH2 0x2846 JUMP JUMPDEST PUSH1 0x0 DUP1 DUP5 PUSH1 0x1 PUSH1 0x1 PUSH1 0xA0 SHL SUB AND PUSH4 0x37A7B7D8 PUSH1 0x40 MLOAD DUP2 PUSH4 0xFFFFFFFF AND PUSH1 0xE0 SHL DUP2 MSTORE PUSH1 0x4 ADD PUSH1 0x20 PUSH1 0x40 MLOAD DUP1 DUP4 SUB DUP2 DUP7 GAS STATICCALL ISZERO DUP1 ISZERO PUSH2 0xE19 JUMPI RETURNDATASIZE PUSH1 0x0 DUP1 RETURNDATACOPY RETURNDATASIZE PUSH1 0x0 REVERT JUMPDEST POP POP POP POP PUSH1 0x40 MLOAD RETURNDATASIZE PUSH1 0x1F NOT PUSH1 0x1F DUP3 ADD AND DUP3 ADD DUP1 PUSH1 0x40 MSTORE POP DUP2 ADD SWAP1 PUSH2 0xE3D SWAP2 SWAP1 PUSH2 0x315E JUMP JUMPDEST SWAP1 POP PUSH1 0x0 PUSH2 0xE4A DUP3 PUSH2 0x14C1 JUMP JUMPDEST SWAP1 POP PUSH1 0x0 PUSH2 0xE59 DUP8 DUP8 DUP8 PUSH2 0x156E JUMP JUMPDEST SWAP1 POP PUSH2 0x616 DUP8 DUP4 DUP4 PUSH2 0x1B78 JUMP JUMPDEST PUSH1 0x0 PUSH2 0xC94 DUP3 PUSH2 0x2931 JUMP JUMPDEST PUSH2 0xEC7 PUSH1 0x40 MLOAD DUP1 PUSH2 0x140 ADD PUSH1 0x40 MSTORE DUP1 PUSH1 0x0 DUP2 MSTORE PUSH1 0x20 ADD PUSH1 0x0 DUP2 MSTORE PUSH1 0x20 ADD PUSH1 0x0 DUP2 MSTORE PUSH1 0x20 ADD PUSH1 0x0 DUP2 MSTORE PUSH1 0x20 ADD PUSH1 0x0 DUP2 MSTORE PUSH1 0x20 ADD PUSH1 0x0 DUP2 MSTORE PUSH1 0x20 ADD PUSH1 0x0 DUP2 MSTORE PUSH1 0x20 ADD PUSH1 0x0 DUP2 MSTORE PUSH1 0x20 ADD PUSH1 0x0 DUP2 MSTORE PUSH1 0x20 ADD PUSH1 0x0 DUP2 MSTORE POP SWAP1 JUMP JUMPDEST PUSH1 0x0 DUP3 PUSH1 0x1 PUSH1 0x1 PUSH1 0xA0 SHL SUB AND PUSH4 0x37A7B7D8 PUSH1 0x40 MLOAD DUP2 PUSH4 0xFFFFFFFF AND PUSH1 0xE0 SHL DUP2 MSTORE PUSH1 0x4 ADD PUSH1 0x20 PUSH1 0x40 MLOAD DUP1 DUP4 SUB DUP2 DUP7 GAS STATICCALL ISZERO DUP1 ISZERO PUSH2 0xF07 JUMPI RETURNDATASIZE PUSH1 0x0 DUP1 RETURNDATACOPY RETURNDATASIZE PUSH1 0x0 REVERT JUMPDEST POP POP POP POP PUSH1 0x40 MLOAD RETURNDATASIZE PUSH1 0x1F NOT PUSH1 0x1F DUP3 ADD AND DUP3 ADD DUP1 PUSH1 0x40 MSTORE POP DUP2 ADD SWAP1 PUSH2 0xF2B SWAP2 SWAP1 PUSH2 0x315E JUMP JUMPDEST SWAP1 POP PUSH1 0x0 PUSH2 0xF38 DUP3 PUSH2 0x14C1 JUMP JUMPDEST SWAP1 POP PUSH1 0x0 DUP1 PUSH2 0xF46 DUP7 PUSH2 0x24A4 JUMP JUMPDEST SWAP2 POP SWAP2 POP PUSH1 0x40 MLOAD DUP1 PUSH2 0x140 ADD PUSH1 0x40 MSTORE DUP1 PUSH2 0xF62 DUP9 DUP7 PUSH1 0x0 PUSH2 0x22E8 JUMP JUMPDEST DUP2 MSTORE PUSH1 0x20 ADD PUSH2 0xF73 DUP9 DUP7 PUSH1 0x0 PUSH2 0x2A18 JUMP JUMPDEST DUP2 MSTORE PUSH1 0x20 ADD PUSH2 0xF81 DUP6 PUSH2 0x26AE JUMP JUMPDEST DUP2 MSTORE PUSH1 0x20 ADD PUSH2 0xF92 DUP9 DUP7 PUSH1 0x0 PUSH2 0x2093 JUMP JUMPDEST DUP2 MSTORE PUSH1 0x20 ADD PUSH2 0xFA3 DUP9 DUP7 PUSH1 0x0 PUSH2 0x22A4 JUMP JUMPDEST DUP2 MSTORE PUSH1 0x20 ADD DUP4 DUP2 MSTORE PUSH1 0x20 ADD DUP3 DUP2 MSTORE PUSH1 0x20 ADD PUSH2 0xFBE DUP9 DUP7 PUSH2 0x2846 JUMP JUMPDEST DUP2 MSTORE PUSH1 0x20 ADD PUSH2 0xFCC DUP9 PUSH2 0x27D3 JUMP JUMPDEST DUP2 MSTORE PUSH1 0x20 ADD PUSH2 0xFDA DUP9 PUSH2 0x237D JUMP JUMPDEST SWAP1 MSTORE SWAP7 SWAP6 POP POP POP POP POP POP JUMP JUMPDEST PUSH1 0x0 DUP1 PUSH2 0xFF4 DUP6 DUP6 DUP6 PUSH2 0x156E JUMP JUMPDEST SWAP1 POP PUSH2 0x63A DUP6 DUP3 PUSH2 0x2A57 JUMP JUMPDEST PUSH1 0x0 DUP1 PUSH1 0x0 DUP4 PUSH1 0x1 PUSH1 0x1 PUSH1 0xA0 SHL SUB AND PUSH4 0x37A7B7D8 PUSH1 0x40 MLOAD DUP2 PUSH4 0xFFFFFFFF AND PUSH1 0xE0 SHL DUP2 MSTORE PUSH1 0x4 ADD PUSH1 0x20 PUSH1 0x40 MLOAD DUP1 DUP4 SUB DUP2 DUP7 GAS STATICCALL ISZERO DUP1 ISZERO PUSH2 0x1043 JUMPI RETURNDATASIZE PUSH1 0x0 DUP1 RETURNDATACOPY RETURNDATASIZE PUSH1 0x0 REVERT JUMPDEST POP POP POP POP PUSH1 0x40 MLOAD RETURNDATASIZE PUSH1 0x1F NOT PUSH1 0x1F DUP3 ADD AND DUP3 ADD DUP1 PUSH1 0x40 MSTORE POP DUP2 ADD SWAP1 PUSH2 0x1067 SWAP2 SWAP1 PUSH2 0x315E JUMP JUMPDEST SWAP1 POP PUSH1 0x0 PUSH2 0x1074 DUP3 PUSH2 0x14C1 JUMP JUMPDEST SWAP1 POP PUSH2 0x1082 DUP6 DUP3 PUSH1 0x0 PUSH2 0x2093 JUMP JUMPDEST SWAP4 POP PUSH2 0x1090 DUP6 DUP3 PUSH1 0x0 PUSH2 0x22A4 JUMP JUMPDEST SWAP3 POP POP POP SWAP2 POP SWAP2 JUMP JUMPDEST PUSH2 0x10E3 PUSH1 0x40 MLOAD DUP1 PUSH2 0x100 ADD PUSH1 0x40 MSTORE DUP1 PUSH1 0x0 DUP2 MSTORE PUSH1 0x20 ADD PUSH1 0x0 DUP2 MSTORE PUSH1 0x20 ADD PUSH1 0x0 DUP2 MSTORE PUSH1 0x20 ADD PUSH1 0x0 DUP2 MSTORE PUSH1 0x20 ADD PUSH1 0x0 DUP2 MSTORE PUSH1 0x20 ADD PUSH1 0x0 DUP2 MSTORE PUSH1 0x20 ADD PUSH1 0x0 DUP2 MSTORE PUSH1 0x20 ADD PUSH1 0x0 ISZERO ISZERO DUP2 MSTORE POP SWAP1 JUMP JUMPDEST PUSH2 0xC94 DUP3 PUSH2 0x14C1 JUMP JUMPDEST PUSH1 0x0 DUP1 DUP5 PUSH1 0x1 PUSH1 0x1 PUSH1 0xA0 SHL SUB AND PUSH4 0x37A7B7D8 PUSH1 0x40 MLOAD DUP2 PUSH4 0xFFFFFFFF AND PUSH1 0xE0 SHL DUP2 MSTORE PUSH1 0x4 ADD PUSH1 0x20 PUSH1 0x40 MLOAD DUP1 DUP4 SUB DUP2 DUP7 GAS STATICCALL ISZERO DUP1 ISZERO PUSH2 0x112D JUMPI RETURNDATASIZE PUSH1 0x0 DUP1 RETURNDATACOPY RETURNDATASIZE PUSH1 0x0 REVERT JUMPDEST POP POP POP POP PUSH1 0x40 MLOAD RETURNDATASIZE PUSH1 0x1F NOT PUSH1 0x1F DUP3 ADD AND DUP3 ADD DUP1 PUSH1 0x40 MSTORE POP DUP2 ADD SWAP1 PUSH2 0x1151 SWAP2 SWAP1 PUSH2 0x315E JUMP JUMPDEST SWAP1 POP PUSH1 0x0 PUSH2 0x115E DUP3 PUSH2 0x14C1 JUMP JUMPDEST SWAP1 POP PUSH1 0x0 PUSH2 0x116D DUP8 DUP8 DUP8 PUSH2 0x156E JUMP JUMPDEST SWAP1 POP PUSH2 0x616 DUP8 DUP4 DUP4 PUSH2 0x1E55 JUMP JUMPDEST PUSH1 0x0 DUP1 PUSH1 0x0 DUP1 DUP5 PUSH1 0x1 PUSH1 0x1 PUSH1 0xA0 SHL SUB AND PUSH4 0x37A7B7D8 PUSH1 0x40 MLOAD DUP2 PUSH4 0xFFFFFFFF AND PUSH1 0xE0 SHL DUP2 MSTORE PUSH1 0x4 ADD PUSH1 0x20 PUSH1 0x40 MLOAD DUP1 DUP4 SUB DUP2 DUP7 GAS STATICCALL ISZERO DUP1 ISZERO PUSH2 0x11BE JUMPI RETURNDATASIZE PUSH1 0x0 DUP1 RETURNDATACOPY RETURNDATASIZE PUSH1 0x0 REVERT JUMPDEST POP POP POP POP PUSH1 0x40 MLOAD RETURNDATASIZE PUSH1 0x1F NOT PUSH1 0x1F DUP3 ADD AND DUP3 ADD DUP1 PUSH1 0x40 MSTORE POP DUP2 ADD SWAP1 PUSH2 0x11E2 SWAP2 SWAP1 PUSH2 0x315E JUMP JUMPDEST SWAP1 POP PUSH1 0x0 PUSH2 0x11EF DUP3 PUSH2 0x14C1 JUMP JUMPDEST SWAP1 POP PUSH2 0x11FD DUP7 DUP3 PUSH1 0x0 PUSH2 0x22E8 JUMP JUMPDEST SWAP5 POP PUSH2 0x120B DUP7 DUP3 PUSH1 0x0 PUSH2 0x2A18 JUMP JUMPDEST SWAP4 POP PUSH2 0x1216 DUP2 PUSH2 0x26AE JUMP JUMPDEST SWAP5 SWAP7 SWAP4 SWAP6 POP POP POP POP JUMP JUMPDEST PUSH1 0x0 DUP1 DUP4 PUSH1 0x1 PUSH1 0x1 PUSH1 0xA0 SHL SUB AND PUSH4 0x37A7B7D8 PUSH1 0x40 MLOAD DUP2 PUSH4 0xFFFFFFFF AND PUSH1 0xE0 SHL DUP2 MSTORE PUSH1 0x4 ADD PUSH1 0x20 PUSH1 0x40 MLOAD DUP1 DUP4 SUB DUP2 DUP7 GAS STATICCALL ISZERO DUP1 ISZERO PUSH2 0x1261 JUMPI RETURNDATASIZE PUSH1 0x0 DUP1 RETURNDATACOPY RETURNDATASIZE PUSH1 0x0 REVERT JUMPDEST POP POP POP POP PUSH1 0x40 MLOAD RETURNDATASIZE PUSH1 0x1F NOT PUSH1 0x1F DUP3 ADD AND DUP3 ADD DUP1 PUSH1 0x40 MSTORE POP DUP2 ADD SWAP1 PUSH2 0x1285 SWAP2 SWAP1 PUSH2 0x315E JUMP JUMPDEST SWAP1 POP PUSH1 0x0 PUSH2 0x1292 DUP3 PUSH2 0x14C1 JUMP JUMPDEST SWAP1 POP PUSH2 0x63A DUP6 DUP3 DUP7 PUSH2 0x2A18 JUMP JUMPDEST PUSH1 0x40 DUP1 MLOAD PUSH1 0xC0 DUP2 ADD DUP3 MSTORE PUSH1 0x0 DUP1 DUP3 MSTORE PUSH1 0x20 DUP3 ADD DUP2 SWAP1 MSTORE SWAP2 DUP2 ADD DUP3 SWAP1 MSTORE PUSH1 0x60 DUP2 ADD DUP3 SWAP1 MSTORE PUSH1 0x80 DUP2 ADD DUP3 SWAP1 MSTORE PUSH1 0xA0 DUP2 ADD SWAP2 SWAP1 SWAP2 MSTORE PUSH2 0xD2D DUP5 DUP5 DUP5 PUSH2 0x156E JUMP JUMPDEST PUSH1 0x0 DUP1 DUP5 PUSH1 0x1 PUSH1 0x1 PUSH1 0xA0 SHL SUB AND PUSH4 0x37A7B7D8 PUSH1 0x40 MLOAD DUP2 PUSH4 0xFFFFFFFF AND PUSH1 0xE0 SHL DUP2 MSTORE PUSH1 0x4 ADD PUSH1 0x20 PUSH1 0x40 MLOAD DUP1 DUP4 SUB DUP2 DUP7 GAS STATICCALL ISZERO DUP1 ISZERO PUSH2 0x131D JUMPI RETURNDATASIZE PUSH1 0x0 DUP1 RETURNDATACOPY RETURNDATASIZE PUSH1 0x0 REVERT JUMPDEST POP POP POP POP PUSH1 0x40 MLOAD RETURNDATASIZE PUSH1 0x1F NOT PUSH1 0x1F DUP3 ADD AND DUP3 ADD DUP1 PUSH1 0x40 MSTORE POP DUP2 ADD SWAP1 PUSH2 0x1341 SWAP2 SWAP1 PUSH2 0x315E JUMP JUMPDEST SWAP1 POP PUSH1 0x0 PUSH2 0x134E DUP3 PUSH2 0x14C1 JUMP JUMPDEST SWAP1 POP PUSH1 0x0 PUSH2 0x135D DUP8 DUP8 DUP8 PUSH2 0x156E JUMP JUMPDEST SWAP1 POP PUSH1 0x0 PUSH2 0x136A DUP3 PUSH2 0x2BAE JUMP JUMPDEST PUSH1 0x40 MLOAD PUSH4 0x274BC14F PUSH1 0xE2 SHL DUP2 MSTORE PUSH1 0xA PUSH1 0x4 DUP3 ADD MSTORE SWAP1 SWAP2 POP PUSH1 0x0 SWAP1 PUSH1 0x1 PUSH1 0x1 PUSH1 0xA0 SHL SUB DUP11 AND SWAP1 PUSH4 0x9D2F053C SWAP1 PUSH1 0x24 ADD PUSH1 0x20 PUSH1 0x40 MLOAD DUP1 DUP4 SUB DUP2 DUP7 GAS STATICCALL ISZERO DUP1 ISZERO PUSH2 0x13B5 JUMPI RETURNDATASIZE PUSH1 0x0 DUP1 RETURNDATACOPY RETURNDATASIZE PUSH1 0x0 REVERT JUMPDEST POP POP POP POP PUSH1 0x40 MLOAD RETURNDATASIZE PUSH1 0x1F NOT PUSH1 0x1F DUP3 ADD AND DUP3 ADD DUP1 PUSH1 0x40 MSTORE POP DUP2 ADD SWAP1 PUSH2 0x13D9 SWAP2 SWAP1 PUSH2 0x3236 JUMP JUMPDEST SWAP1 POP PUSH1 0x0 PUSH2 0x13E7 DUP11 DUP6 PUSH2 0x1AE8 JUMP JUMPDEST SWAP1 POP PUSH1 0x0 PUSH2 0x13F5 DUP12 DUP7 PUSH2 0x26C2 JUMP JUMPDEST SWAP1 POP PUSH1 0x0 PUSH2 0x1403 DUP13 DUP8 PUSH2 0x2A57 JUMP JUMPDEST SWAP1 POP PUSH1 0x0 DUP3 GT PUSH2 0x145A JUMPI PUSH1 0x40 MLOAD PUSH3 0x461BCD PUSH1 0xE5 SHL DUP2 MSTORE PUSH1 0x20 PUSH1 0x4 DUP3 ADD MSTORE PUSH1 0xE PUSH1 0x24 DUP3 ADD MSTORE PUSH32 0x4F564C56313A206F69203D3D2030000000000000000000000000000000000000 PUSH1 0x44 DUP3 ADD MSTORE PUSH1 0x64 ADD JUMPDEST PUSH1 0x40 MLOAD DUP1 SWAP2 SUB SWAP1 REVERT JUMPDEST PUSH1 0x0 PUSH2 0x148C DUP4 PUSH2 0x1486 PUSH2 0x147F PUSH2 0x1478 DUP10 PUSH8 0xDE0B6B3A7640000 PUSH2 0x324F JUMP JUMPDEST DUP9 SWAP1 PUSH2 0x2C03 JUMP JUMPDEST DUP6 SWAP1 PUSH2 0x2C34 JUMP JUMPDEST SWAP1 PUSH2 0x2C03 JUMP JUMPDEST SWAP1 POP DUP7 PUSH1 0x60 ADD MLOAD PUSH2 0x14A6 JUMPI PUSH2 0x14A1 DUP2 DUP8 PUSH2 0x3266 JUMP JUMPDEST PUSH2 0x14B0 JUMP JUMPDEST PUSH2 0x14B0 DUP7 DUP3 PUSH2 0x2C34 JUMP JUMPDEST SWAP14 SWAP13 POP POP POP POP POP POP POP POP POP POP POP POP POP JUMP JUMPDEST PUSH2 0x150B PUSH1 0x40 MLOAD DUP1 PUSH2 0x100 ADD PUSH1 0x40 MSTORE DUP1 PUSH1 0x0 DUP2 MSTORE PUSH1 0x20 ADD PUSH1 0x0 DUP2 MSTORE PUSH1 0x20 ADD PUSH1 0x0 DUP2 MSTORE PUSH1 0x20 ADD PUSH1 0x0 DUP2 MSTORE PUSH1 0x20 ADD PUSH1 0x0 DUP2 MSTORE PUSH1 0x20 ADD PUSH1 0x0 DUP2 MSTORE PUSH1 0x20 ADD PUSH1 0x0 DUP2 MSTORE PUSH1 0x20 ADD PUSH1 0x0 ISZERO ISZERO DUP2 MSTORE POP SWAP1 JUMP JUMPDEST DUP2 PUSH1 0x1 PUSH1 0x1 PUSH1 0xA0 SHL SUB AND PUSH4 0x52BFE789 PUSH1 0x40 MLOAD DUP2 PUSH4 0xFFFFFFFF AND PUSH1 0xE0 SHL DUP2 MSTORE PUSH1 0x4 ADD PUSH2 0x100 PUSH1 0x40 MLOAD DUP1 DUP4 SUB DUP2 DUP7 GAS STATICCALL ISZERO DUP1 ISZERO PUSH2 0x154A JUMPI RETURNDATASIZE PUSH1 0x0 DUP1 RETURNDATACOPY RETURNDATASIZE PUSH1 0x0 REVERT JUMPDEST POP POP POP POP PUSH1 0x40 MLOAD RETURNDATASIZE PUSH1 0x1F NOT PUSH1 0x1F DUP3 ADD AND DUP3 ADD DUP1 PUSH1 0x40 MSTORE POP DUP2 ADD SWAP1 PUSH2 0xC94 SWAP2 SWAP1 PUSH2 0x328E JUMP JUMPDEST PUSH1 0x40 DUP1 MLOAD PUSH1 0xC0 DUP2 ADD DUP3 MSTORE PUSH1 0x0 DUP1 DUP3 MSTORE PUSH1 0x20 DUP3 ADD DUP2 SWAP1 MSTORE SWAP2 DUP2 ADD DUP3 SWAP1 MSTORE PUSH1 0x60 DUP2 ADD DUP3 SWAP1 MSTORE PUSH1 0x80 DUP2 ADD DUP3 SWAP1 MSTORE PUSH1 0xA0 DUP2 ADD SWAP2 SWAP1 SWAP2 MSTORE PUSH1 0x40 MLOAD PUSH12 0xFFFFFFFFFFFFFFFFFFFFFFFF NOT PUSH1 0x60 DUP6 SWAP1 SHL AND PUSH1 0x20 DUP3 ADD MSTORE PUSH1 0x34 DUP2 ADD DUP4 SWAP1 MSTORE PUSH1 0x0 SWAP1 PUSH1 0x54 ADD PUSH1 0x40 MLOAD PUSH1 0x20 DUP2 DUP4 SUB SUB DUP2 MSTORE SWAP1 PUSH1 0x40 MSTORE DUP1 MLOAD SWAP1 PUSH1 0x20 ADD KECCAK256 SWAP1 POP PUSH1 0x0 DUP1 PUSH1 0x0 DUP1 PUSH1 0x0 DUP1 DUP11 PUSH1 0x1 PUSH1 0x1 PUSH1 0xA0 SHL SUB AND PUSH4 0x514EA4BF DUP9 PUSH1 0x40 MLOAD DUP3 PUSH4 0xFFFFFFFF AND PUSH1 0xE0 SHL DUP2 MSTORE PUSH1 0x4 ADD PUSH2 0x1618 SWAP2 DUP2 MSTORE PUSH1 0x20 ADD SWAP1 JUMP JUMPDEST PUSH1 0xC0 PUSH1 0x40 MLOAD DUP1 DUP4 SUB DUP2 DUP7 GAS STATICCALL ISZERO DUP1 ISZERO PUSH2 0x1635 JUMPI RETURNDATASIZE PUSH1 0x0 DUP1 RETURNDATACOPY RETURNDATASIZE PUSH1 0x0 REVERT JUMPDEST POP POP POP POP PUSH1 0x40 MLOAD RETURNDATASIZE PUSH1 0x1F NOT PUSH1 0x1F DUP3 ADD AND DUP3 ADD DUP1 PUSH1 0x40 MSTORE POP DUP2 ADD SWAP1 PUSH2 0x1659 SWAP2 SWAP1 PUSH2 0x334C JUMP JUMPDEST PUSH1 0x40 DUP1 MLOAD PUSH1 0xC0 DUP2 ADD DUP3 MSTORE PUSH12 0xFFFFFFFFFFFFFFFFFFFFFFFF SWAP8 DUP9 AND DUP2 MSTORE SWAP7 SWAP1 SWAP6 AND PUSH1 0x20 DUP8 ADD MSTORE PUSH6 0xFFFFFFFFFFFF SWAP1 SWAP4 AND SWAP4 DUP6 ADD SWAP4 SWAP1 SWAP4 MSTORE ISZERO ISZERO PUSH1 0x60 DUP5 ADD MSTORE SWAP1 ISZERO ISZERO PUSH1 0x80 DUP4 ADD MSTORE PUSH1 0xA0 DUP3 ADD MSTORE SWAP12 SWAP11 POP POP POP POP POP POP POP POP POP POP POP JUMP JUMPDEST PUSH1 0x0 DUP1 PUSH1 0x0 PUSH2 0x16C0 DUP7 PUSH2 0x24A4 JUMP JUMPDEST SWAP2 POP SWAP2 POP PUSH1 0x0 DUP5 PUSH1 0x60 ADD MLOAD PUSH2 0x16D5 JUMPI DUP2 PUSH2 0x16D7 JUMP JUMPDEST DUP3 JUMPDEST SWAP1 POP PUSH1 0x0 DUP6 PUSH1 0x60 ADD MLOAD PUSH2 0x174B JUMPI DUP8 PUSH1 0x1 PUSH1 0x1 PUSH1 0xA0 SHL SUB AND PUSH4 0xF333FE13 PUSH1 0x40 MLOAD DUP2 PUSH4 0xFFFFFFFF AND PUSH1 0xE0 SHL DUP2 MSTORE PUSH1 0x4 ADD PUSH1 0x20 PUSH1 0x40 MLOAD DUP1 DUP4 SUB DUP2 DUP7 GAS STATICCALL ISZERO DUP1 ISZERO PUSH2 0x1722 JUMPI RETURNDATASIZE PUSH1 0x0 DUP1 RETURNDATACOPY RETURNDATASIZE PUSH1 0x0 REVERT JUMPDEST POP POP POP POP PUSH1 0x40 MLOAD RETURNDATASIZE PUSH1 0x1F NOT PUSH1 0x1F DUP3 ADD AND DUP3 ADD DUP1 PUSH1 0x40 MSTORE POP DUP2 ADD SWAP1 PUSH2 0x1746 SWAP2 SWAP1 PUSH2 0x3236 JUMP JUMPDEST PUSH2 0x17AD JUMP JUMPDEST DUP8 PUSH1 0x1 PUSH1 0x1 PUSH1 0xA0 SHL SUB AND PUSH4 0x2ACB3810 PUSH1 0x40 MLOAD DUP2 PUSH4 0xFFFFFFFF AND PUSH1 0xE0 SHL DUP2 MSTORE PUSH1 0x4 ADD PUSH1 0x20 PUSH1 0x40 MLOAD DUP1 DUP4 SUB DUP2 DUP7 GAS STATICCALL ISZERO DUP1 ISZERO PUSH2 0x1789 JUMPI RETURNDATASIZE PUSH1 0x0 DUP1 RETURNDATACOPY RETURNDATASIZE PUSH1 0x0 REVERT JUMPDEST POP POP POP POP PUSH1 0x40 MLOAD RETURNDATASIZE PUSH1 0x1F NOT PUSH1 0x1F DUP3 ADD AND DUP3 ADD DUP1 PUSH1 0x40 MSTORE POP DUP2 ADD SWAP1 PUSH2 0x17AD SWAP2 SWAP1 PUSH2 0x3236 JUMP JUMPDEST SWAP1 POP PUSH1 0x0 PUSH2 0x17BA DUP9 PUSH2 0x26AE JUMP JUMPDEST PUSH1 0x40 MLOAD PUSH4 0x274BC14F PUSH1 0xE2 SHL DUP2 MSTORE PUSH1 0xA PUSH1 0x4 DUP3 ADD MSTORE SWAP1 SWAP2 POP PUSH1 0x0 SWAP1 PUSH1 0x1 PUSH1 0x1 PUSH1 0xA0 SHL SUB DUP12 AND SWAP1 PUSH4 0x9D2F053C SWAP1 PUSH1 0x24 ADD PUSH1 0x20 PUSH1 0x40 MLOAD DUP1 DUP4 SUB DUP2 DUP7 GAS STATICCALL ISZERO DUP1 ISZERO PUSH2 0x1805 JUMPI RETURNDATASIZE PUSH1 0x0 DUP1 RETURNDATACOPY RETURNDATASIZE PUSH1 0x0 REVERT JUMPDEST POP POP POP POP PUSH1 0x40 MLOAD RETURNDATASIZE PUSH1 0x1F NOT PUSH1 0x1F DUP3 ADD AND DUP3 ADD DUP1 PUSH1 0x40 MSTORE POP DUP2 ADD SWAP1 PUSH2 0x1829 SWAP2 SWAP1 PUSH2 0x3236 JUMP JUMPDEST SWAP1 POP PUSH2 0x707 DUP5 DUP5 DUP5 PUSH1 0x1 PUSH1 0x1 PUSH1 0xA0 SHL SUB DUP15 AND PUSH4 0x9D2F053C PUSH1 0x3 PUSH1 0x40 MLOAD DUP3 PUSH4 0xFFFFFFFF AND PUSH1 0xE0 SHL DUP2 MSTORE PUSH1 0x4 ADD PUSH2 0x1860 SWAP2 DUP2 MSTORE PUSH1 0x20 ADD SWAP1 JUMP JUMPDEST PUSH1 0x20 PUSH1 0x40 MLOAD DUP1 DUP4 SUB DUP2 DUP7 GAS STATICCALL ISZERO DUP1 ISZERO PUSH2 0x187D JUMPI RETURNDATASIZE PUSH1 0x0 DUP1 RETURNDATACOPY RETURNDATASIZE PUSH1 0x0 REVERT JUMPDEST POP POP POP POP PUSH1 0x40 MLOAD RETURNDATASIZE PUSH1 0x1F NOT PUSH1 0x1F DUP3 ADD AND DUP3 ADD DUP1 PUSH1 0x40 MSTORE POP DUP2 ADD SWAP1 PUSH2 0x18A1 SWAP2 SWAP1 PUSH2 0x3236 JUMP JUMPDEST PUSH1 0x1 PUSH1 0x1 PUSH1 0xA0 SHL SUB DUP16 AND PUSH4 0x9D2F053C PUSH1 0x8 PUSH1 0x40 MLOAD DUP3 PUSH4 0xFFFFFFFF AND PUSH1 0xE0 SHL DUP2 MSTORE PUSH1 0x4 ADD PUSH2 0x18D0 SWAP2 DUP2 MSTORE PUSH1 0x20 ADD SWAP1 JUMP JUMPDEST PUSH1 0x20 PUSH1 0x40 MLOAD DUP1 DUP4 SUB DUP2 DUP7 GAS STATICCALL ISZERO DUP1 ISZERO PUSH2 0x18ED JUMPI RETURNDATASIZE PUSH1 0x0 DUP1 RETURNDATACOPY RETURNDATASIZE PUSH1 0x0 REVERT JUMPDEST POP POP POP POP PUSH1 0x40 MLOAD RETURNDATASIZE PUSH1 0x1F NOT PUSH1 0x1F DUP3 ADD AND DUP3 ADD DUP1 PUSH1 0x40 MSTORE POP DUP2 ADD SWAP1 PUSH2 0x1911 SWAP2 SWAP1 PUSH2 0x3236 JUMP JUMPDEST DUP14 SWAP5 SWAP4 SWAP3 SWAP2 SWAP1 DUP8 PUSH2 0x2C4F JUMP JUMPDEST PUSH1 0x0 PUSH8 0xDE0B6B3A7640000 PUSH2 0x1932 DUP4 DUP3 PUSH2 0x2CD0 JUMP JUMPDEST SWAP4 SWAP3 POP POP POP JUMP JUMPDEST PUSH1 0x0 PUSH8 0xDE0B6B3A7640000 DUP2 DUP1 PUSH2 0x194F DUP8 PUSH2 0x24A4 JUMP JUMPDEST SWAP2 POP SWAP2 POP PUSH1 0x0 DUP6 PUSH1 0x60 ADD MLOAD PUSH2 0x1964 JUMPI DUP2 PUSH2 0x1966 JUMP JUMPDEST DUP3 JUMPDEST SWAP1 POP PUSH1 0x0 DUP7 PUSH1 0x60 ADD MLOAD PUSH2 0x19DA JUMPI DUP9 PUSH1 0x1 PUSH1 0x1 PUSH1 0xA0 SHL SUB AND PUSH4 0xF333FE13 PUSH1 0x40 MLOAD DUP2 PUSH4 0xFFFFFFFF AND PUSH1 0xE0 SHL DUP2 MSTORE PUSH1 0x4 ADD PUSH1 0x20 PUSH1 0x40 MLOAD DUP1 DUP4 SUB DUP2 DUP7 GAS STATICCALL ISZERO DUP1 ISZERO PUSH2 0x19B1 JUMPI RETURNDATASIZE PUSH1 0x0 DUP1 RETURNDATACOPY RETURNDATASIZE PUSH1 0x0 REVERT JUMPDEST POP POP POP POP PUSH1 0x40 MLOAD RETURNDATASIZE PUSH1 0x1F NOT PUSH1 0x1F DUP3 ADD AND DUP3 ADD DUP1 PUSH1 0x40 MSTORE POP DUP2 ADD SWAP1 PUSH2 0x19D5 SWAP2 SWAP1 PUSH2 0x3236 JUMP JUMPDEST PUSH2 0x1A3C JUMP JUMPDEST DUP9 PUSH1 0x1 PUSH1 0x1 PUSH1 0xA0 SHL SUB AND PUSH4 0x2ACB3810 PUSH1 0x40 MLOAD DUP2 PUSH4 0xFFFFFFFF AND PUSH1 0xE0 SHL DUP2 MSTORE PUSH1 0x4 ADD PUSH1 0x20 PUSH1 0x40 MLOAD DUP1 DUP4 SUB DUP2 DUP7 GAS STATICCALL ISZERO DUP1 ISZERO PUSH2 0x1A18 JUMPI RETURNDATASIZE PUSH1 0x0 DUP1 RETURNDATACOPY RETURNDATASIZE PUSH1 0x0 REVERT JUMPDEST POP POP POP POP PUSH1 0x40 MLOAD RETURNDATASIZE PUSH1 0x1F NOT PUSH1 0x1F DUP3 ADD AND DUP3 ADD DUP1 PUSH1 0x40 MSTORE POP DUP2 ADD SWAP1 PUSH2 0x1A3C SWAP2 SWAP1 PUSH2 0x3236 JUMP JUMPDEST SWAP1 POP PUSH1 0x0 PUSH2 0x1A4C DUP9 DUP8 DUP6 DUP6 PUSH2 0x2CF5 JUMP JUMPDEST SWAP1 POP PUSH1 0x0 PUSH2 0x1A59 DUP11 PUSH2 0x26AE JUMP JUMPDEST PUSH1 0x40 MLOAD PUSH4 0x274BC14F PUSH1 0xE2 SHL DUP2 MSTORE PUSH1 0x3 PUSH1 0x4 DUP3 ADD MSTORE SWAP1 SWAP2 POP PUSH1 0x0 SWAP1 PUSH1 0x1 PUSH1 0x1 PUSH1 0xA0 SHL SUB DUP14 AND SWAP1 PUSH4 0x9D2F053C SWAP1 PUSH1 0x24 ADD PUSH1 0x20 PUSH1 0x40 MLOAD DUP1 DUP4 SUB DUP2 DUP7 GAS STATICCALL ISZERO DUP1 ISZERO PUSH2 0x1AA4 JUMPI RETURNDATASIZE PUSH1 0x0 DUP1 RETURNDATACOPY RETURNDATASIZE PUSH1 0x0 REVERT JUMPDEST POP POP POP POP PUSH1 0x40 MLOAD RETURNDATASIZE PUSH1 0x1F NOT PUSH1 0x1F DUP3 ADD AND DUP3 ADD DUP1 PUSH1 0x40 MSTORE POP DUP2 ADD SWAP1 PUSH2 0x1AC8 SWAP2 SWAP1 PUSH2 0x3236 JUMP JUMPDEST SWAP1 POP PUSH2 0x1AD8 DUP11 DUP10 DUP8 DUP8 DUP7 DUP7 PUSH2 0x2D36 JUMP JUMPDEST SWAP13 SWAP12 POP POP POP POP POP POP POP POP POP POP POP POP JUMP JUMPDEST PUSH1 0x40 MLOAD PUSH4 0x274BC14F PUSH1 0xE2 SHL DUP2 MSTORE PUSH1 0x8 PUSH1 0x4 DUP3 ADD MSTORE PUSH1 0x0 SWAP1 DUP2 SWAP1 PUSH1 0x1 PUSH1 0x1 PUSH1 0xA0 SHL SUB DUP6 AND SWAP1 PUSH4 0x9D2F053C SWAP1 PUSH1 0x24 ADD PUSH1 0x20 PUSH1 0x40 MLOAD DUP1 DUP4 SUB DUP2 DUP7 GAS STATICCALL ISZERO DUP1 ISZERO PUSH2 0x1B32 JUMPI RETURNDATASIZE PUSH1 0x0 DUP1 RETURNDATACOPY RETURNDATASIZE PUSH1 0x0 REVERT JUMPDEST POP POP POP POP PUSH1 0x40 MLOAD RETURNDATASIZE PUSH1 0x1F NOT PUSH1 0x1F DUP3 ADD AND DUP3 ADD DUP1 PUSH1 0x40 MSTORE POP DUP2 ADD SWAP1 PUSH2 0x1B56 SWAP2 SWAP1 PUSH2 0x3236 JUMP JUMPDEST SWAP1 POP PUSH1 0x0 PUSH2 0x1B6C DUP5 PUSH8 0xDE0B6B3A7640000 PUSH2 0x2E3B JUMP JUMPDEST SWAP1 POP PUSH2 0x63A DUP2 DUP4 PUSH2 0x2023 JUMP JUMPDEST PUSH1 0x0 DUP1 PUSH2 0x1B86 DUP6 DUP6 DUP6 PUSH2 0x16B2 JUMP JUMPDEST SWAP1 POP DUP1 ISZERO PUSH2 0x1C15 JUMPI PUSH1 0x40 MLOAD PUSH4 0x274BC14F PUSH1 0xE2 SHL DUP2 MSTORE PUSH1 0xA PUSH1 0x4 DUP3 ADD MSTORE PUSH1 0x0 SWAP1 PUSH1 0x1 PUSH1 0x1 PUSH1 0xA0 SHL SUB DUP8 AND SWAP1 PUSH4 0x9D2F053C SWAP1 PUSH1 0x24 ADD PUSH1 0x20 PUSH1 0x40 MLOAD DUP1 DUP4 SUB DUP2 DUP7 GAS STATICCALL ISZERO DUP1 ISZERO PUSH2 0x1BD6 JUMPI RETURNDATASIZE PUSH1 0x0 DUP1 RETURNDATACOPY RETURNDATASIZE PUSH1 0x0 REVERT JUMPDEST POP POP POP POP PUSH1 0x40 MLOAD RETURNDATASIZE PUSH1 0x1F NOT PUSH1 0x1F DUP3 ADD AND DUP3 ADD DUP1 PUSH1 0x40 MSTORE POP DUP2 ADD SWAP1 PUSH2 0x1BFA SWAP2 SWAP1 PUSH2 0x3236 JUMP JUMPDEST SWAP1 POP PUSH1 0x0 PUSH2 0x1C09 DUP8 DUP8 DUP8 PUSH2 0x1939 JUMP JUMPDEST SWAP1 POP PUSH2 0x616 DUP2 DUP4 PUSH2 0x2E57 JUMP JUMPDEST POP SWAP4 SWAP3 POP POP POP JUMP JUMPDEST PUSH1 0x40 DUP1 MLOAD PUSH1 0x60 DUP2 ADD DUP3 MSTORE PUSH1 0x0 DUP1 DUP3 MSTORE PUSH1 0x20 DUP3 ADD DUP2 SWAP1 MSTORE SWAP2 DUP2 ADD DUP3 SWAP1 MSTORE DUP6 MLOAD SWAP1 SWAP2 DUP6 SWAP2 PUSH4 0xFFFFFFFF SWAP1 DUP2 AND SWAP1 DUP4 AND LT ISZERO PUSH2 0x1C7B JUMPI DUP7 MLOAD PUSH4 0xFFFFFFFF SWAP1 DUP2 AND SWAP1 PUSH2 0x1C6C SWAP1 DUP5 AND PUSH5 0x100000000 PUSH2 0x3266 JUMP JUMPDEST PUSH2 0x1C76 SWAP2 SWAP1 PUSH2 0x324F JUMP JUMPDEST PUSH2 0x1C8E JUMP JUMPDEST DUP7 MLOAD PUSH2 0x1C87 SWAP1 DUP4 PUSH2 0x33C6 JUMP JUMPDEST PUSH4 0xFFFFFFFF AND JUMPDEST PUSH1 0x20 DUP9 ADD MLOAD SWAP1 SWAP2 POP PUSH4 0xFFFFFFFF AND PUSH1 0x0 PUSH2 0x1CAC DUP10 PUSH1 0x40 ADD MLOAD PUSH1 0x17 SIGNEXTEND SWAP1 JUMP JUMPDEST SWAP1 POP DUP2 DUP4 LT ISZERO DUP1 PUSH2 0x1CBB JUMPI POP DUP2 ISZERO JUMPDEST ISZERO PUSH2 0x1D05 JUMPI PUSH1 0x40 MLOAD DUP1 PUSH1 0x60 ADD PUSH1 0x40 MSTORE DUP1 DUP6 PUSH4 0xFFFFFFFF AND DUP2 MSTORE PUSH1 0x20 ADD PUSH2 0x1CE0 DUP10 PUSH2 0x2E78 JUMP JUMPDEST PUSH4 0xFFFFFFFF AND DUP2 MSTORE PUSH1 0x20 ADD PUSH2 0x1CF4 DUP9 PUSH2 0x2E98 JUMP JUMPDEST PUSH1 0x17 SIGNEXTEND DUP2 MSTORE POP SWAP5 POP POP POP POP POP PUSH2 0xD2D JUMP JUMPDEST PUSH1 0x0 PUSH2 0x1D11 DUP5 DUP5 PUSH2 0x2F0A JUMP JUMPDEST SWAP1 POP PUSH1 0x0 PUSH2 0x1D1E DUP4 PUSH2 0x2F39 JUMP JUMPDEST SWAP1 POP PUSH1 0x0 DUP1 DUP5 SLT ISZERO PUSH2 0x1D42 JUMPI PUSH2 0x1D34 DUP4 DUP4 PUSH2 0x2E57 JUMP JUMPDEST PUSH2 0x1D3D SWAP1 PUSH2 0x33EB JUMP JUMPDEST PUSH2 0x1D4C JUMP JUMPDEST PUSH2 0x1D4C DUP4 DUP4 PUSH2 0x2E57 JUMP JUMPDEST SWAP1 POP PUSH2 0x1D58 DUP2 DUP6 PUSH2 0x3191 JUMP JUMPDEST SWAP4 POP PUSH1 0x0 PUSH2 0x1D66 DUP11 DUP7 PUSH2 0x3408 JUMP JUMPDEST SWAP1 POP DUP1 PUSH2 0x1DAD JUMPI PUSH1 0x40 MLOAD DUP1 PUSH1 0x60 ADD PUSH1 0x40 MSTORE DUP1 DUP10 PUSH4 0xFFFFFFFF AND DUP2 MSTORE PUSH1 0x20 ADD PUSH2 0x1D8D DUP14 PUSH2 0x2E78 JUMP JUMPDEST PUSH4 0xFFFFFFFF AND DUP2 MSTORE PUSH1 0x0 PUSH1 0x20 SWAP1 SWAP2 ADD MSTORE SWAP9 POP PUSH2 0xD2D SWAP8 POP POP POP POP POP POP POP POP JUMP JUMPDEST PUSH1 0x0 PUSH2 0x1DB8 DUP7 PUSH2 0x2F39 JUMP JUMPDEST SWAP1 POP PUSH1 0x0 PUSH2 0x1DC5 DUP13 PUSH2 0x2F39 JUMP JUMPDEST SWAP1 POP PUSH1 0x0 PUSH2 0x1DD3 DUP3 DUP5 PUSH2 0x3266 JUMP JUMPDEST PUSH2 0x1DDD DUP16 DUP5 PUSH2 0x3448 JUMP JUMPDEST PUSH2 0x1DE7 DUP13 DUP13 PUSH2 0x324F JUMP JUMPDEST PUSH2 0x1DF1 SWAP1 DUP7 PUSH2 0x3448 JUMP JUMPDEST PUSH2 0x1DFB SWAP2 SWAP1 PUSH2 0x3266 JUMP JUMPDEST PUSH2 0x1E05 SWAP2 SWAP1 PUSH2 0x3467 JUMP JUMPDEST SWAP1 POP PUSH1 0x40 MLOAD DUP1 PUSH1 0x60 ADD PUSH1 0x40 MSTORE DUP1 DUP13 PUSH4 0xFFFFFFFF AND DUP2 MSTORE PUSH1 0x20 ADD PUSH2 0x1E27 DUP4 PUSH2 0x2E78 JUMP JUMPDEST PUSH4 0xFFFFFFFF AND DUP2 MSTORE PUSH1 0x20 ADD PUSH2 0x1E3B DUP7 PUSH2 0x2E98 JUMP JUMPDEST PUSH1 0x17 SIGNEXTEND SWAP1 MSTORE SWAP12 POP POP POP POP POP POP POP POP POP POP POP POP SWAP5 SWAP4 POP POP POP POP JUMP JUMPDEST PUSH1 0x0 PUSH8 0xDE0B6B3A7640000 DUP2 DUP1 PUSH2 0x1E6B DUP8 PUSH2 0x24A4 JUMP JUMPDEST SWAP2 POP SWAP2 POP PUSH1 0x0 DUP6 PUSH1 0x60 ADD MLOAD PUSH2 0x1E80 JUMPI DUP2 PUSH2 0x1E82 JUMP JUMPDEST DUP3 JUMPDEST SWAP1 POP PUSH1 0x0 DUP7 PUSH1 0x60 ADD MLOAD PUSH2 0x1EF6 JUMPI DUP9 PUSH1 0x1 PUSH1 0x1 PUSH1 0xA0 SHL SUB AND PUSH4 0xF333FE13 PUSH1 0x40 MLOAD DUP2 PUSH4 0xFFFFFFFF AND PUSH1 0xE0 SHL DUP2 MSTORE PUSH1 0x4 ADD PUSH1 0x20 PUSH1 0x40 MLOAD DUP1 DUP4 SUB DUP2 DUP7 GAS STATICCALL ISZERO DUP1 ISZERO PUSH2 0x1ECD JUMPI RETURNDATASIZE PUSH1 0x0 DUP1 RETURNDATACOPY RETURNDATASIZE PUSH1 0x0 REVERT JUMPDEST POP POP POP POP PUSH1 0x40 MLOAD RETURNDATASIZE PUSH1 0x1F NOT PUSH1 0x1F DUP3 ADD AND DUP3 ADD DUP1 PUSH1 0x40 MSTORE POP DUP2 ADD SWAP1 PUSH2 0x1EF1 SWAP2 SWAP1 PUSH2 0x3236 JUMP JUMPDEST PUSH2 0x1F58 JUMP JUMPDEST DUP9 PUSH1 0x1 PUSH1 0x1 PUSH1 0xA0 SHL SUB AND PUSH4 0x2ACB3810 PUSH1 0x40 MLOAD DUP2 PUSH4 0xFFFFFFFF AND PUSH1 0xE0 SHL DUP2 MSTORE PUSH1 0x4 ADD PUSH1 0x20 PUSH1 0x40 MLOAD DUP1 DUP4 SUB DUP2 DUP7 GAS STATICCALL ISZERO DUP1 ISZERO PUSH2 0x1F34 JUMPI RETURNDATASIZE PUSH1 0x0 DUP1 RETURNDATACOPY RETURNDATASIZE PUSH1 0x0 REVERT JUMPDEST POP POP POP POP PUSH1 0x40 MLOAD RETURNDATASIZE PUSH1 0x1F NOT PUSH1 0x1F DUP3 ADD AND DUP3 ADD DUP1 PUSH1 0x40 MSTORE POP DUP2 ADD SWAP1 PUSH2 0x1F58 SWAP2 SWAP1 PUSH2 0x3236 JUMP JUMPDEST SWAP1 POP PUSH1 0x0 PUSH2 0x1F68 DUP9 DUP8 DUP6 DUP6 PUSH2 0x2CF5 JUMP JUMPDEST SWAP1 POP PUSH1 0x0 DUP9 PUSH1 0x60 ADD MLOAD PUSH2 0x1F8F JUMPI PUSH2 0x1F8A DUP12 DUP12 PUSH2 0x1F85 DUP15 DUP15 DUP8 PUSH2 0x206A JUMP JUMPDEST PUSH2 0x2A18 JUMP JUMPDEST PUSH2 0x1FA4 JUMP JUMPDEST PUSH2 0x1FA4 DUP12 DUP12 PUSH2 0x1F9F DUP15 DUP15 DUP8 PUSH2 0x206A JUMP JUMPDEST PUSH2 0x22E8 JUMP JUMPDEST PUSH1 0x40 MLOAD PUSH4 0x274BC14F PUSH1 0xE2 SHL DUP2 MSTORE PUSH1 0x3 PUSH1 0x4 DUP3 ADD MSTORE SWAP1 SWAP2 POP PUSH1 0x0 SWAP1 PUSH1 0x1 PUSH1 0x1 PUSH1 0xA0 SHL SUB DUP14 AND SWAP1 PUSH4 0x9D2F053C SWAP1 PUSH1 0x24 ADD PUSH1 0x20 PUSH1 0x40 MLOAD DUP1 DUP4 SUB DUP2 DUP7 GAS STATICCALL ISZERO DUP1 ISZERO PUSH2 0x1FEF JUMPI RETURNDATASIZE PUSH1 0x0 DUP1 RETURNDATACOPY RETURNDATASIZE PUSH1 0x0 REVERT JUMPDEST POP POP POP POP PUSH1 0x40 MLOAD RETURNDATASIZE PUSH1 0x1F NOT PUSH1 0x1F DUP3 ADD AND DUP3 ADD DUP1 PUSH1 0x40 MSTORE POP DUP2 ADD SWAP1 PUSH2 0x2013 SWAP2 SWAP1 PUSH2 0x3236 JUMP JUMPDEST SWAP1 POP PUSH2 0x1AD8 DUP11 DUP10 DUP8 DUP8 DUP7 DUP7 PUSH2 0x2F50 JUMP JUMPDEST PUSH1 0x0 DUP1 PUSH2 0x2030 DUP4 DUP6 PUSH2 0x3448 JUMP JUMPDEST SWAP1 POP DUP1 PUSH2 0x2041 JUMPI PUSH1 0x0 SWAP2 POP POP PUSH2 0xC94 JUMP JUMPDEST PUSH8 0xDE0B6B3A7640000 PUSH2 0x2055 PUSH1 0x1 DUP4 PUSH2 0x324F JUMP JUMPDEST PUSH2 0x205F SWAP2 SWAP1 PUSH2 0x3467 JUMP JUMPDEST PUSH2 0xD2D SWAP1 PUSH1 0x1 PUSH2 0x3266 JUMP JUMPDEST PUSH1 0x0 DUP1 PUSH2 0x2077 DUP6 DUP6 PUSH2 0x2846 JUMP JUMPDEST SWAP1 POP DUP1 PUSH2 0x2089 JUMPI PUSH1 0x0 NOT SWAP2 POP POP PUSH2 0x1932 JUMP JUMPDEST PUSH2 0x63A DUP4 DUP3 PUSH2 0x2F0A JUMP JUMPDEST PUSH1 0x0 DUP1 PUSH1 0x0 DUP1 DUP7 PUSH1 0x1 PUSH1 0x1 PUSH1 0xA0 SHL SUB AND PUSH4 0xB445E2E7 PUSH1 0x40 MLOAD DUP2 PUSH4 0xFFFFFFFF AND PUSH1 0xE0 SHL DUP2 MSTORE PUSH1 0x4 ADD PUSH1 0x60 PUSH1 0x40 MLOAD DUP1 DUP4 SUB DUP2 DUP7 GAS STATICCALL ISZERO DUP1 ISZERO PUSH2 0x20D7 JUMPI RETURNDATASIZE PUSH1 0x0 DUP1 RETURNDATACOPY RETURNDATASIZE PUSH1 0x0 REVERT JUMPDEST POP POP POP POP PUSH1 0x40 MLOAD RETURNDATASIZE PUSH1 0x1F NOT PUSH1 0x1F DUP3 ADD AND DUP3 ADD DUP1 PUSH1 0x40 MSTORE POP DUP2 ADD SWAP1 PUSH2 0x20FB SWAP2 SWAP1 PUSH2 0x31E9 JUMP JUMPDEST SWAP3 POP SWAP3 POP SWAP3 POP PUSH1 0x0 PUSH1 0x40 MLOAD DUP1 PUSH1 0x60 ADD PUSH1 0x40 MSTORE DUP1 DUP6 PUSH4 0xFFFFFFFF AND DUP2 MSTORE PUSH1 0x20 ADD DUP5 PUSH4 0xFFFFFFFF AND DUP2 MSTORE PUSH1 0x20 ADD DUP4 PUSH1 0x17 SIGNEXTEND DUP2 MSTORE POP SWAP1 POP PUSH1 0x0 DUP7 SWAP1 POP PUSH2 0x214F TIMESTAMP DUP10 PUSH1 0x20 ADD MLOAD DUP4 DUP6 PUSH2 0x1C1D SWAP1 SWAP4 SWAP3 SWAP2 SWAP1 PUSH4 0xFFFFFFFF AND JUMP JUMPDEST SWAP2 POP PUSH2 0x94C DUP3 PUSH1 0x40 ADD MLOAD PUSH1 0x17 SIGNEXTEND SWAP1 JUMP JUMPDEST PUSH1 0x0 PUSH8 0xDE0B6B3A7640000 DUP2 DUP1 PUSH2 0x2175 DUP8 PUSH2 0x24A4 JUMP JUMPDEST SWAP2 POP SWAP2 POP PUSH1 0x0 DUP6 PUSH1 0x60 ADD MLOAD PUSH2 0x218A JUMPI DUP2 PUSH2 0x218C JUMP JUMPDEST DUP3 JUMPDEST SWAP1 POP PUSH1 0x0 DUP7 PUSH1 0x60 ADD MLOAD PUSH2 0x2200 JUMPI DUP9 PUSH1 0x1 PUSH1 0x1 PUSH1 0xA0 SHL SUB AND PUSH4 0xF333FE13 PUSH1 0x40 MLOAD DUP2 PUSH4 0xFFFFFFFF AND PUSH1 0xE0 SHL DUP2 MSTORE PUSH1 0x4 ADD PUSH1 0x20 PUSH1 0x40 MLOAD DUP1 DUP4 SUB DUP2 DUP7 GAS STATICCALL ISZERO DUP1 ISZERO PUSH2 0x21D7 JUMPI RETURNDATASIZE PUSH1 0x0 DUP1 RETURNDATACOPY RETURNDATASIZE PUSH1 0x0 REVERT JUMPDEST POP POP POP POP PUSH1 0x40 MLOAD RETURNDATASIZE PUSH1 0x1F NOT PUSH1 0x1F DUP3 ADD AND DUP3 ADD DUP1 PUSH1 0x40 MSTORE POP DUP2 ADD SWAP1 PUSH2 0x21FB SWAP2 SWAP1 PUSH2 0x3236 JUMP JUMPDEST PUSH2 0x2262 JUMP JUMPDEST DUP9 PUSH1 0x1 PUSH1 0x1 PUSH1 0xA0 SHL SUB AND PUSH4 0x2ACB3810 PUSH1 0x40 MLOAD DUP2 PUSH4 0xFFFFFFFF AND PUSH1 0xE0 SHL DUP2 MSTORE PUSH1 0x4 ADD PUSH1 0x20 PUSH1 0x40 MLOAD DUP1 DUP4 SUB DUP2 DUP7 GAS STATICCALL ISZERO DUP1 ISZERO PUSH2 0x223E JUMPI RETURNDATASIZE PUSH1 0x0 DUP1 RETURNDATACOPY RETURNDATASIZE PUSH1 0x0 REVERT JUMPDEST POP POP POP POP PUSH1 0x40 MLOAD RETURNDATASIZE PUSH1 0x1F NOT PUSH1 0x1F DUP3 ADD AND DUP3 ADD DUP1 PUSH1 0x40 MSTORE POP DUP2 ADD SWAP1 PUSH2 0x2262 SWAP2 SWAP1 PUSH2 0x3236 JUMP JUMPDEST SWAP1 POP PUSH1 0x0 PUSH2 0x2272 DUP9 DUP8 DUP6 DUP6 PUSH2 0x2CF5 JUMP JUMPDEST SWAP1 POP PUSH1 0x0 DUP9 PUSH1 0x60 ADD MLOAD PUSH2 0x2294 JUMPI PUSH2 0x228F DUP12 DUP12 PUSH2 0x1F85 DUP15 DUP15 DUP8 PUSH2 0x206A JUMP JUMPDEST PUSH2 0x1A59 JUMP JUMPDEST PUSH2 0x1A59 DUP12 DUP12 PUSH2 0x1F9F DUP15 DUP15 DUP8 PUSH2 0x206A JUMP JUMPDEST PUSH1 0x0 DUP1 PUSH1 0x0 DUP1 DUP7 PUSH1 0x1 PUSH1 0x1 PUSH1 0xA0 SHL SUB AND PUSH4 0xD565CC33 PUSH1 0x40 MLOAD DUP2 PUSH4 0xFFFFFFFF AND PUSH1 0xE0 SHL DUP2 MSTORE PUSH1 0x4 ADD PUSH1 0x60 PUSH1 0x40 MLOAD DUP1 DUP4 SUB DUP2 DUP7 GAS STATICCALL ISZERO DUP1 ISZERO PUSH2 0x20D7 JUMPI RETURNDATASIZE PUSH1 0x0 DUP1 RETURNDATACOPY RETURNDATASIZE PUSH1 0x0 REVERT JUMPDEST PUSH1 0x0 DUP1 PUSH2 0x22F6 DUP6 DUP6 DUP6 PUSH2 0x2093 JUMP JUMPDEST PUSH1 0x40 MLOAD PUSH4 0x8607F5C3 PUSH1 0xE0 SHL DUP2 MSTORE SWAP1 SWAP2 POP PUSH1 0x1 PUSH1 0x1 PUSH1 0xA0 SHL SUB DUP7 AND SWAP1 PUSH4 0x8607F5C3 SWAP1 PUSH2 0x2327 SWAP1 DUP8 SWAP1 DUP6 SWAP1 PUSH1 0x4 ADD PUSH2 0x3489 JUMP JUMPDEST PUSH1 0x20 PUSH1 0x40 MLOAD DUP1 DUP4 SUB DUP2 DUP7 GAS STATICCALL ISZERO DUP1 ISZERO PUSH2 0x2344 JUMPI RETURNDATASIZE PUSH1 0x0 DUP1 RETURNDATACOPY RETURNDATASIZE PUSH1 0x0 REVERT JUMPDEST POP POP POP POP PUSH1 0x40 MLOAD RETURNDATASIZE PUSH1 0x1F NOT PUSH1 0x1F DUP3 ADD AND DUP3 ADD DUP1 PUSH1 0x40 MSTORE POP DUP2 ADD SWAP1 PUSH2 0x63A SWAP2 SWAP1 PUSH2 0x3236 JUMP JUMPDEST PUSH1 0x0 PUSH8 0xDE0B6B3A7640000 PUSH2 0x1932 DUP4 DUP3 PUSH2 0x2F7B JUMP JUMPDEST PUSH1 0x0 DUP1 PUSH1 0x0 PUSH2 0x238B DUP5 PUSH2 0x24A4 JUMP JUMPDEST SWAP1 SWAP3 POP SWAP1 POP DUP1 DUP3 GT PUSH1 0x0 DUP2 PUSH2 0x23A0 JUMPI DUP3 PUSH2 0x23A2 JUMP JUMPDEST DUP4 JUMPDEST SWAP1 POP PUSH1 0x0 DUP3 PUSH2 0x23B1 JUMPI DUP5 PUSH2 0x23B3 JUMP JUMPDEST DUP4 JUMPDEST SWAP1 POP PUSH1 0x0 PUSH2 0x23C1 DUP3 DUP5 PUSH2 0x3266 JUMP JUMPDEST SWAP1 POP PUSH1 0x0 PUSH2 0x23CF DUP4 DUP6 PUSH2 0x324F JUMP JUMPDEST SWAP1 POP DUP2 ISZERO DUP1 PUSH2 0x23DC JUMPI POP DUP1 ISZERO JUMPDEST ISZERO PUSH2 0x23F0 JUMPI POP PUSH1 0x0 SWAP9 SWAP8 POP POP POP POP POP POP POP POP JUMP JUMPDEST PUSH1 0x40 MLOAD PUSH4 0x274BC14F PUSH1 0xE2 SHL DUP2 MSTORE PUSH1 0x0 PUSH1 0x4 DUP3 ADD DUP2 SWAP1 MSTORE SWAP1 PUSH1 0x1 PUSH1 0x1 PUSH1 0xA0 SHL SUB DUP12 AND SWAP1 PUSH4 0x9D2F053C SWAP1 PUSH1 0x24 ADD PUSH1 0x20 PUSH1 0x40 MLOAD DUP1 DUP4 SUB DUP2 DUP7 GAS STATICCALL ISZERO DUP1 ISZERO PUSH2 0x2438 JUMPI RETURNDATASIZE PUSH1 0x0 DUP1 RETURNDATACOPY RETURNDATASIZE PUSH1 0x0 REVERT JUMPDEST POP POP POP POP PUSH1 0x40 MLOAD RETURNDATASIZE PUSH1 0x1F NOT PUSH1 0x1F DUP3 ADD AND DUP3 ADD DUP1 PUSH1 0x40 MSTORE POP DUP2 ADD SWAP1 PUSH2 0x245C SWAP2 SWAP1 PUSH2 0x3236 JUMP JUMPDEST SWAP1 POP PUSH1 0x0 PUSH2 0x247E PUSH2 0x246E DUP4 PUSH1 0x2 PUSH2 0x3448 JUMP JUMPDEST PUSH2 0x2478 DUP6 DUP8 PUSH2 0x2F0A JUMP JUMPDEST SWAP1 PUSH2 0x2E57 JUMP JUMPDEST SWAP1 POP DUP7 PUSH2 0x2493 JUMPI PUSH2 0x248E DUP2 PUSH2 0x33EB JUMP JUMPDEST PUSH2 0x2495 JUMP JUMPDEST DUP1 JUMPDEST SWAP12 SWAP11 POP POP POP POP POP POP POP POP POP POP POP JUMP JUMPDEST PUSH1 0x0 DUP1 DUP3 PUSH1 0x1 PUSH1 0x1 PUSH1 0xA0 SHL SUB AND PUSH4 0x5DEDDE6D PUSH1 0x40 MLOAD DUP2 PUSH4 0xFFFFFFFF AND PUSH1 0xE0 SHL DUP2 MSTORE PUSH1 0x4 ADD PUSH1 0x20 PUSH1 0x40 MLOAD DUP1 DUP4 SUB DUP2 DUP7 GAS STATICCALL ISZERO DUP1 ISZERO PUSH2 0x24E5 JUMPI RETURNDATASIZE PUSH1 0x0 DUP1 RETURNDATACOPY RETURNDATASIZE PUSH1 0x0 REVERT JUMPDEST POP POP POP POP PUSH1 0x40 MLOAD RETURNDATASIZE PUSH1 0x1F NOT PUSH1 0x1F DUP3 ADD AND DUP3 ADD DUP1 PUSH1 0x40 MSTORE POP DUP2 ADD SWAP1 PUSH2 0x2509 SWAP2 SWAP1 PUSH2 0x3236 JUMP JUMPDEST SWAP2 POP DUP3 PUSH1 0x1 PUSH1 0x1 PUSH1 0xA0 SHL SUB AND PUSH4 0x9163014 PUSH1 0x40 MLOAD DUP2 PUSH4 0xFFFFFFFF AND PUSH1 0xE0 SHL DUP2 MSTORE PUSH1 0x4 ADD PUSH1 0x20 PUSH1 0x40 MLOAD DUP1 DUP4 SUB DUP2 DUP7 GAS STATICCALL ISZERO DUP1 ISZERO PUSH2 0x2549 JUMPI RETURNDATASIZE PUSH1 0x0 DUP1 RETURNDATACOPY RETURNDATASIZE PUSH1 0x0 REVERT JUMPDEST POP POP POP POP PUSH1 0x40 MLOAD RETURNDATASIZE PUSH1 0x1F NOT PUSH1 0x1F DUP3 ADD AND DUP3 ADD DUP1 PUSH1 0x40 MSTORE POP DUP2 ADD SWAP1 PUSH2 0x256D SWAP2 SWAP1 PUSH2 0x3236 JUMP JUMPDEST SWAP1 POP PUSH1 0x0 DUP4 PUSH1 0x1 PUSH1 0x1 PUSH1 0xA0 SHL SUB AND PUSH4 0xC6838E8B PUSH1 0x40 MLOAD DUP2 PUSH4 0xFFFFFFFF AND PUSH1 0xE0 SHL DUP2 MSTORE PUSH1 0x4 ADD PUSH1 0x20 PUSH1 0x40 MLOAD DUP1 DUP4 SUB DUP2 DUP7 GAS STATICCALL ISZERO DUP1 ISZERO PUSH2 0x25AF JUMPI RETURNDATASIZE PUSH1 0x0 DUP1 RETURNDATACOPY RETURNDATASIZE PUSH1 0x0 REVERT JUMPDEST POP POP POP POP PUSH1 0x40 MLOAD RETURNDATASIZE PUSH1 0x1F NOT PUSH1 0x1F DUP3 ADD AND DUP3 ADD DUP1 PUSH1 0x40 MSTORE POP DUP2 ADD SWAP1 PUSH2 0x25D3 SWAP2 SWAP1 PUSH2 0x3236 JUMP JUMPDEST PUSH2 0x25DD SWAP1 TIMESTAMP PUSH2 0x324F JUMP JUMPDEST SWAP1 POP DUP1 ISZERO PUSH2 0x26A8 JUMPI DUP2 DUP4 GT PUSH1 0x0 DUP2 PUSH2 0x25F5 JUMPI DUP4 PUSH2 0x25F7 JUMP JUMPDEST DUP5 JUMPDEST SWAP1 POP PUSH1 0x0 DUP3 PUSH2 0x2606 JUMPI DUP6 PUSH2 0x2608 JUMP JUMPDEST DUP5 JUMPDEST PUSH1 0x40 MLOAD PUSH4 0x9F0A5459 PUSH1 0xE0 SHL DUP2 MSTORE PUSH1 0x4 DUP2 ADD DUP5 SWAP1 MSTORE PUSH1 0x24 DUP2 ADD DUP3 SWAP1 MSTORE PUSH1 0x44 DUP2 ADD DUP7 SWAP1 MSTORE SWAP1 SWAP2 POP PUSH1 0x1 PUSH1 0x1 PUSH1 0xA0 SHL SUB DUP9 AND SWAP1 PUSH4 0x9F0A5459 SWAP1 PUSH1 0x64 ADD PUSH1 0x40 DUP1 MLOAD DUP1 DUP4 SUB DUP2 DUP7 GAS STATICCALL ISZERO DUP1 ISZERO PUSH2 0x265D JUMPI RETURNDATASIZE PUSH1 0x0 DUP1 RETURNDATACOPY RETURNDATASIZE PUSH1 0x0 REVERT JUMPDEST POP POP POP POP PUSH1 0x40 MLOAD RETURNDATASIZE PUSH1 0x1F NOT PUSH1 0x1F DUP3 ADD AND DUP3 ADD DUP1 PUSH1 0x40 MSTORE POP DUP2 ADD SWAP1 PUSH2 0x2681 SWAP2 SWAP1 PUSH2 0x34F1 JUMP JUMPDEST SWAP1 SWAP3 POP SWAP1 POP DUP3 PUSH2 0x2691 JUMPI DUP1 PUSH2 0x2693 JUMP JUMPDEST DUP2 JUMPDEST SWAP6 POP DUP3 PUSH2 0x26A0 JUMPI DUP2 PUSH2 0x26A2 JUMP JUMPDEST DUP1 JUMPDEST SWAP5 POP POP POP POP JUMPDEST POP SWAP2 POP SWAP2 JUMP JUMPDEST PUSH1 0x0 PUSH2 0xC94 DUP3 PUSH1 0x60 ADD MLOAD DUP4 PUSH1 0x80 ADD MLOAD PUSH2 0x2FA3 JUMP JUMPDEST PUSH1 0x0 PUSH8 0xDE0B6B3A7640000 DUP2 DUP1 PUSH2 0x26D8 DUP7 PUSH2 0x24A4 JUMP JUMPDEST SWAP2 POP SWAP2 POP PUSH1 0x0 DUP6 PUSH1 0x60 ADD MLOAD PUSH2 0x26ED JUMPI DUP2 PUSH2 0x26EF JUMP JUMPDEST DUP3 JUMPDEST SWAP1 POP PUSH1 0x0 DUP7 PUSH1 0x60 ADD MLOAD PUSH2 0x2763 JUMPI DUP8 PUSH1 0x1 PUSH1 0x1 PUSH1 0xA0 SHL SUB AND PUSH4 0xF333FE13 PUSH1 0x40 MLOAD DUP2 PUSH4 0xFFFFFFFF AND PUSH1 0xE0 SHL DUP2 MSTORE PUSH1 0x4 ADD PUSH1 0x20 PUSH1 0x40 MLOAD DUP1 DUP4 SUB DUP2 DUP7 GAS STATICCALL ISZERO DUP1 ISZERO PUSH2 0x273A JUMPI RETURNDATASIZE PUSH1 0x0 DUP1 RETURNDATACOPY RETURNDATASIZE PUSH1 0x0 REVERT JUMPDEST POP POP POP POP PUSH1 0x40 MLOAD RETURNDATASIZE PUSH1 0x1F NOT PUSH1 0x1F DUP3 ADD AND DUP3 ADD DUP1 PUSH1 0x40 MSTORE POP DUP2 ADD SWAP1 PUSH2 0x275E SWAP2 SWAP1 PUSH2 0x3236 JUMP JUMPDEST PUSH2 0x27C5 JUMP JUMPDEST DUP8 PUSH1 0x1 PUSH1 0x1 PUSH1 0xA0 SHL SUB AND PUSH4 0x2ACB3810 PUSH1 0x40 MLOAD DUP2 PUSH4 0xFFFFFFFF AND PUSH1 0xE0 SHL DUP2 MSTORE PUSH1 0x4 ADD PUSH1 0x20 PUSH1 0x40 MLOAD DUP1 DUP4 SUB DUP2 DUP7 GAS STATICCALL ISZERO DUP1 ISZERO PUSH2 0x27A1 JUMPI RETURNDATASIZE PUSH1 0x0 DUP1 RETURNDATACOPY RETURNDATASIZE PUSH1 0x0 REVERT JUMPDEST POP POP POP POP PUSH1 0x40 MLOAD RETURNDATASIZE PUSH1 0x1F NOT PUSH1 0x1F DUP3 ADD AND DUP3 ADD DUP1 PUSH1 0x40 MSTORE POP DUP2 ADD SWAP1 PUSH2 0x27C5 SWAP2 SWAP1 PUSH2 0x3236 JUMP JUMPDEST SWAP1 POP PUSH2 0x835 DUP8 DUP7 DUP5 DUP5 PUSH2 0x2CF5 JUMP JUMPDEST PUSH1 0x40 MLOAD PUSH4 0x83BA1917 PUSH1 0xE0 SHL DUP2 MSTORE PUSH8 0xDE0B6B3A7640000 PUSH1 0x4 DUP3 ADD MSTORE PUSH1 0x0 SWAP1 PUSH1 0x1 PUSH1 0x1 PUSH1 0xA0 SHL SUB DUP4 AND SWAP1 PUSH4 0x83BA1917 SWAP1 PUSH1 0x24 ADD PUSH1 0x20 PUSH1 0x40 MLOAD DUP1 DUP4 SUB DUP2 DUP7 GAS STATICCALL ISZERO DUP1 ISZERO PUSH2 0x2822 JUMPI RETURNDATASIZE PUSH1 0x0 DUP1 RETURNDATACOPY RETURNDATASIZE PUSH1 0x0 REVERT JUMPDEST POP POP POP POP PUSH1 0x40 MLOAD RETURNDATASIZE PUSH1 0x1F NOT PUSH1 0x1F DUP3 ADD AND DUP3 ADD DUP1 PUSH1 0x40 MSTORE POP DUP2 ADD SWAP1 PUSH2 0xC94 SWAP2 SWAP1 PUSH2 0x3236 JUMP JUMPDEST PUSH1 0x40 MLOAD PUSH4 0x274BC14F PUSH1 0xE2 SHL DUP2 MSTORE PUSH1 0x4 DUP2 DUP2 ADD MSTORE PUSH1 0x0 SWAP1 DUP2 SWAP1 PUSH1 0x1 PUSH1 0x1 PUSH1 0xA0 SHL SUB DUP6 AND SWAP1 PUSH4 0x9D2F053C SWAP1 PUSH1 0x24 ADD PUSH1 0x20 PUSH1 0x40 MLOAD DUP1 DUP4 SUB DUP2 DUP7 GAS STATICCALL ISZERO DUP1 ISZERO PUSH2 0x288F JUMPI RETURNDATASIZE PUSH1 0x0 DUP1 RETURNDATACOPY RETURNDATASIZE PUSH1 0x0 REVERT JUMPDEST POP POP POP POP PUSH1 0x40 MLOAD RETURNDATASIZE PUSH1 0x1F NOT PUSH1 0x1F DUP3 ADD AND DUP3 ADD DUP1 PUSH1 0x40 MSTORE POP DUP2 ADD SWAP1 PUSH2 0x28B3 SWAP2 SWAP1 PUSH2 0x3236 JUMP JUMPDEST PUSH1 0x40 MLOAD PUSH4 0xECC16191 PUSH1 0xE0 SHL DUP2 MSTORE SWAP1 SWAP2 POP PUSH1 0x1 PUSH1 0x1 PUSH1 0xA0 SHL SUB DUP6 AND SWAP1 PUSH4 0xECC16191 SWAP1 PUSH2 0x28E4 SWAP1 DUP7 SWAP1 DUP6 SWAP1 PUSH1 0x4 ADD PUSH2 0x3489 JUMP JUMPDEST PUSH1 0x20 PUSH1 0x40 MLOAD DUP1 DUP4 SUB DUP2 DUP7 GAS STATICCALL ISZERO DUP1 ISZERO PUSH2 0x2901 JUMPI RETURNDATASIZE PUSH1 0x0 DUP1 RETURNDATACOPY RETURNDATASIZE PUSH1 0x0 REVERT JUMPDEST POP POP POP POP PUSH1 0x40 MLOAD RETURNDATASIZE PUSH1 0x1F NOT PUSH1 0x1F DUP3 ADD AND DUP3 ADD DUP1 PUSH1 0x40 MSTORE POP DUP2 ADD SWAP1 PUSH2 0x2925 SWAP2 SWAP1 PUSH2 0x3236 JUMP JUMPDEST SWAP1 POP PUSH2 0xD2D DUP4 DUP3 PUSH2 0x2FBE JUMP JUMPDEST PUSH1 0x40 MLOAD PUSH4 0xD4DFADBF PUSH1 0xE0 SHL DUP2 MSTORE PUSH1 0x1 PUSH1 0x1 PUSH1 0xA0 SHL SUB DUP3 DUP2 AND PUSH1 0x4 DUP4 ADD MSTORE PUSH1 0x0 SWAP2 DUP3 SWAP2 PUSH32 0x0 AND SWAP1 PUSH4 0xD4DFADBF SWAP1 PUSH1 0x24 ADD PUSH1 0x20 PUSH1 0x40 MLOAD DUP1 DUP4 SUB DUP2 DUP7 GAS STATICCALL ISZERO DUP1 ISZERO PUSH2 0x299C JUMPI RETURNDATASIZE PUSH1 0x0 DUP1 RETURNDATACOPY RETURNDATASIZE PUSH1 0x0 REVERT JUMPDEST POP POP POP POP PUSH1 0x40 MLOAD RETURNDATASIZE PUSH1 0x1F NOT PUSH1 0x1F DUP3 ADD AND DUP3 ADD DUP1 PUSH1 0x40 MSTORE POP DUP2 ADD SWAP1 PUSH2 0x29C0 SWAP2 SWAP1 PUSH2 0x315E JUMP JUMPDEST SWAP1 POP PUSH1 0x1 PUSH1 0x1 PUSH1 0xA0 SHL SUB DUP2 AND PUSH2 0xC94 JUMPI PUSH1 0x40 MLOAD PUSH3 0x461BCD PUSH1 0xE5 SHL DUP2 MSTORE PUSH1 0x20 PUSH1 0x4 DUP3 ADD MSTORE PUSH1 0xD PUSH1 0x24 DUP3 ADD MSTORE PUSH32 0x4F564C56313A216D61726B657400000000000000000000000000000000000000 PUSH1 0x44 DUP3 ADD MSTORE PUSH1 0x64 ADD PUSH2 0x1451 JUMP JUMPDEST PUSH1 0x0 DUP1 PUSH2 0x2A26 DUP6 DUP6 DUP6 PUSH2 0x22A4 JUMP JUMPDEST PUSH1 0x40 MLOAD PUSH4 0x176D4AE1 PUSH1 0xE1 SHL DUP2 MSTORE SWAP1 SWAP2 POP PUSH1 0x1 PUSH1 0x1 PUSH1 0xA0 SHL SUB DUP7 AND SWAP1 PUSH4 0x2EDA95C2 SWAP1 PUSH2 0x2327 SWAP1 DUP8 SWAP1 DUP6 SWAP1 PUSH1 0x4 ADD PUSH2 0x3489 JUMP JUMPDEST PUSH1 0x0 PUSH8 0xDE0B6B3A7640000 DUP2 PUSH2 0x2A6D DUP5 DUP4 PUSH2 0x2E3B JUMP JUMPDEST SWAP1 POP PUSH1 0x0 PUSH2 0x2A7B DUP6 DUP5 PUSH2 0x2CD0 JUMP JUMPDEST SWAP1 POP PUSH1 0x0 PUSH2 0x2A89 DUP7 DUP6 PUSH2 0x3026 JUMP JUMPDEST SWAP1 POP PUSH1 0x0 DUP1 PUSH2 0x2A97 DUP10 PUSH2 0x24A4 JUMP JUMPDEST SWAP2 POP SWAP2 POP PUSH1 0x0 DUP9 PUSH1 0x60 ADD MLOAD PUSH2 0x2AAC JUMPI DUP2 PUSH2 0x2AAE JUMP JUMPDEST DUP3 JUMPDEST SWAP1 POP PUSH1 0x0 DUP10 PUSH1 0x60 ADD MLOAD PUSH2 0x2B22 JUMPI DUP11 PUSH1 0x1 PUSH1 0x1 PUSH1 0xA0 SHL SUB AND PUSH4 0xF333FE13 PUSH1 0x40 MLOAD DUP2 PUSH4 0xFFFFFFFF AND PUSH1 0xE0 SHL DUP2 MSTORE PUSH1 0x4 ADD PUSH1 0x20 PUSH1 0x40 MLOAD DUP1 DUP4 SUB DUP2 DUP7 GAS STATICCALL ISZERO DUP1 ISZERO PUSH2 0x2AF9 JUMPI RETURNDATASIZE PUSH1 0x0 DUP1 RETURNDATACOPY RETURNDATASIZE PUSH1 0x0 REVERT JUMPDEST POP POP POP POP PUSH1 0x40 MLOAD RETURNDATASIZE PUSH1 0x1F NOT PUSH1 0x1F DUP3 ADD AND DUP3 ADD DUP1 PUSH1 0x40 MSTORE POP DUP2 ADD SWAP1 PUSH2 0x2B1D SWAP2 SWAP1 PUSH2 0x3236 JUMP JUMPDEST PUSH2 0x2B84 JUMP JUMPDEST DUP11 PUSH1 0x1 PUSH1 0x1 PUSH1 0xA0 SHL SUB AND PUSH4 0x2ACB3810 PUSH1 0x40 MLOAD DUP2 PUSH4 0xFFFFFFFF AND PUSH1 0xE0 SHL DUP2 MSTORE PUSH1 0x4 ADD PUSH1 0x20 PUSH1 0x40 MLOAD DUP1 DUP4 SUB DUP2 DUP7 GAS STATICCALL ISZERO DUP1 ISZERO PUSH2 0x2B60 JUMPI RETURNDATASIZE PUSH1 0x0 DUP1 RETURNDATACOPY RETURNDATASIZE PUSH1 0x0 REVERT JUMPDEST POP POP POP POP PUSH1 0x40 MLOAD RETURNDATASIZE PUSH1 0x1F NOT PUSH1 0x1F DUP3 ADD AND DUP3 ADD DUP1 PUSH1 0x40 MSTORE POP DUP2 ADD SWAP1 PUSH2 0x2B84 SWAP2 SWAP1 PUSH2 0x3236 JUMP JUMPDEST SWAP1 POP PUSH1 0x0 PUSH2 0x2B94 DUP12 DUP11 DUP6 DUP6 PUSH2 0x2CF5 JUMP JUMPDEST SWAP1 POP PUSH2 0x1AD8 DUP8 PUSH2 0x2BA8 DUP9 PUSH2 0x1486 DUP13 DUP7 PUSH2 0x2023 JUMP JUMPDEST SWAP1 PUSH2 0x2C34 JUMP JUMPDEST PUSH1 0x0 DUP1 PUSH2 0x2BBA DUP4 PUSH2 0x3037 JUMP JUMPDEST SWAP1 POP PUSH1 0x0 PUSH2 0x2BC9 DUP5 PUSH1 0xA0 ADD MLOAD SWAP1 JUMP JUMPDEST SWAP1 POP PUSH1 0x0 PUSH2 0x2BE3 DUP6 MLOAD PUSH12 0xFFFFFFFFFFFFFFFFFFFFFFFF AND SWAP1 JUMP JUMPDEST SWAP1 POP DUP2 PUSH2 0x2BF5 JUMPI POP PUSH1 0x0 SWAP5 SWAP4 POP POP POP POP JUMP JUMPDEST PUSH2 0x63A DUP3 PUSH2 0x1486 DUP6 DUP5 PUSH2 0x2023 JUMP JUMPDEST PUSH1 0x0 DUP3 PUSH2 0x2C12 JUMPI POP PUSH1 0x0 PUSH2 0xC94 JUMP JUMPDEST PUSH1 0x0 PUSH2 0x2C26 PUSH8 0xDE0B6B3A7640000 DUP6 PUSH2 0x3448 JUMP JUMPDEST SWAP1 POP DUP3 PUSH2 0x2055 PUSH1 0x1 DUP4 PUSH2 0x324F JUMP JUMPDEST PUSH1 0x0 DUP1 DUP3 DUP5 GT PUSH2 0x2C45 JUMPI PUSH1 0x0 PUSH2 0xD2D JUMP JUMPDEST PUSH2 0xD2D DUP4 DUP6 PUSH2 0x324F JUMP JUMPDEST PUSH1 0x0 PUSH8 0xDE0B6B3A7640000 DUP2 PUSH2 0x2C65 DUP11 DUP4 PUSH2 0x2E3B JUMP JUMPDEST SWAP1 POP DUP10 PUSH1 0x80 ADD MLOAD DUP1 PUSH2 0x2C75 JUMPI POP DUP1 ISZERO JUMPDEST ISZERO PUSH2 0x2C85 JUMPI PUSH1 0x0 SWAP3 POP POP POP PUSH2 0x616 JUMP JUMPDEST PUSH1 0x0 PUSH2 0x2C95 DUP12 DUP5 DUP13 DUP13 DUP13 DUP13 PUSH2 0x2D36 JUMP JUMPDEST SWAP1 POP PUSH1 0x0 PUSH2 0x2CA3 DUP4 DUP9 PUSH2 0x2023 JUMP JUMPDEST SWAP1 POP PUSH1 0x0 PUSH2 0x2CB1 DUP4 DUP9 PUSH2 0x2E57 JUMP JUMPDEST SWAP1 POP PUSH2 0x2CBD DUP2 DUP4 PUSH2 0x3266 JUMP JUMPDEST SWAP1 SWAP3 LT SWAP13 SWAP12 POP POP POP POP POP POP POP POP POP POP POP POP JUMP JUMPDEST PUSH1 0x0 PUSH2 0x1932 DUP3 PUSH2 0x2CEF DUP6 PUSH1 0x20 ADD MLOAD PUSH12 0xFFFFFFFFFFFFFFFFFFFFFFFF AND SWAP1 JUMP JUMPDEST SWAP1 PUSH2 0x2023 JUMP JUMPDEST PUSH1 0x0 DUP1 PUSH2 0x2D02 DUP7 DUP7 PUSH2 0x3026 JUMP JUMPDEST SWAP1 POP DUP1 ISZERO DUP1 PUSH2 0x2D0F JUMPI POP DUP4 ISZERO JUMPDEST ISZERO PUSH2 0x2D1E JUMPI PUSH1 0x0 SWAP2 POP POP PUSH2 0xD2D JUMP JUMPDEST PUSH2 0x2D2C DUP4 PUSH2 0x1486 DUP4 DUP8 PUSH2 0x2023 JUMP JUMPDEST SWAP7 SWAP6 POP POP POP POP POP POP JUMP JUMPDEST PUSH1 0x0 DUP1 PUSH2 0x2D43 DUP9 DUP9 PUSH2 0x3026 JUMP JUMPDEST SWAP1 POP PUSH1 0x0 PUSH2 0x2D51 DUP10 DUP10 PUSH2 0x2E3B JUMP JUMPDEST SWAP1 POP PUSH1 0x0 PUSH2 0x2D5F DUP11 DUP11 PUSH2 0x2CD0 JUMP JUMPDEST SWAP1 POP PUSH1 0x0 PUSH2 0x2D6F DUP12 DUP12 DUP12 DUP12 PUSH2 0x2CF5 JUMP JUMPDEST SWAP1 POP PUSH1 0x0 PUSH2 0x2D7C DUP13 PUSH2 0x2BAE JUMP JUMPDEST SWAP1 POP DUP12 PUSH1 0x60 ADD MLOAD ISZERO PUSH2 0x2DF8 JUMPI PUSH2 0x2DB9 PUSH2 0x2D95 DUP4 DUP11 PUSH2 0x2023 JUMP JUMPDEST PUSH2 0x2DB4 PUSH2 0x2DAA DUP11 PUSH8 0xDE0B6B3A7640000 PUSH2 0x3266 JUMP JUMPDEST PUSH2 0x2CEF DUP7 DUP7 PUSH2 0x2023 JUMP JUMPDEST PUSH2 0x3053 JUMP JUMPDEST PUSH2 0x2DC7 DUP7 PUSH2 0x1486 DUP8 DUP7 PUSH2 0x2023 JUMP JUMPDEST PUSH2 0x2DD1 SWAP2 SWAP1 PUSH2 0x3266 JUMP JUMPDEST SWAP6 POP PUSH2 0x2DF1 PUSH2 0x2DE0 DUP4 DUP4 PUSH2 0x2023 JUMP JUMPDEST PUSH2 0x2DEA SWAP1 DUP6 PUSH2 0x3266 JUMP JUMPDEST DUP8 SWAP1 PUSH2 0x2C34 JUMP JUMPDEST SWAP6 POP PUSH2 0x2E2C JUMP JUMPDEST PUSH2 0x2E02 DUP3 DUP3 PUSH2 0x2023 JUMP JUMPDEST PUSH2 0x2E10 DUP7 PUSH2 0x1486 DUP8 DUP7 PUSH2 0x2023 JUMP JUMPDEST PUSH2 0x2E1A SWAP2 SWAP1 PUSH2 0x3266 JUMP JUMPDEST SWAP6 POP PUSH2 0x2E29 PUSH2 0x2DE0 DUP4 DUP11 PUSH2 0x2023 JUMP JUMPDEST SWAP6 POP JUMPDEST POP POP POP POP POP SWAP7 SWAP6 POP POP POP POP POP POP JUMP JUMPDEST PUSH1 0x0 PUSH2 0x1932 DUP3 PUSH2 0x2CEF DUP6 MLOAD PUSH12 0xFFFFFFFFFFFFFFFFFFFFFFFF AND SWAP1 JUMP JUMPDEST PUSH1 0x0 DUP1 PUSH2 0x2E64 DUP4 DUP6 PUSH2 0x3448 JUMP JUMPDEST SWAP1 POP PUSH2 0xD2D PUSH8 0xDE0B6B3A7640000 DUP3 PUSH2 0x3467 JUMP JUMPDEST PUSH1 0x0 DUP1 PUSH4 0xFFFFFFFF DUP4 GT ISZERO PUSH2 0x2E91 JUMPI PUSH4 0xFFFFFFFF PUSH2 0x1932 JUMP JUMPDEST POP SWAP1 SWAP2 SWAP1 POP JUMP JUMPDEST PUSH1 0x0 DUP1 PUSH1 0x1 PUSH1 0x1 PUSH1 0xBF SHL SUB NOT DUP4 SLT DUP1 ISZERO SWAP1 PUSH2 0x2ECB JUMPI POP PUSH24 0x7FFFFFFFFFFFFFFFFFFFFFFFFFFFFFFFFFFFFFFFFFFFFFFF DUP4 SGT ISZERO JUMPDEST PUSH2 0x2E91 JUMPI PUSH1 0x1 PUSH1 0x1 PUSH1 0xBF SHL SUB NOT DUP4 SLT PUSH2 0x2EFC JUMPI PUSH24 0x7FFFFFFFFFFFFFFFFFFFFFFFFFFFFFFFFFFFFFFFFFFFFFFF PUSH2 0x1932 JUMP JUMPDEST PUSH1 0x1 PUSH1 0x1 PUSH1 0xBF SHL SUB NOT PUSH2 0x1932 JUMP JUMPDEST PUSH1 0x0 DUP3 PUSH2 0x2F19 JUMPI POP PUSH1 0x0 PUSH2 0xC94 JUMP JUMPDEST PUSH1 0x0 PUSH2 0x2F2D PUSH8 0xDE0B6B3A7640000 DUP6 PUSH2 0x3448 JUMP JUMPDEST SWAP1 POP PUSH2 0xD2D DUP4 DUP3 PUSH2 0x3467 JUMP JUMPDEST PUSH1 0x0 DUP1 DUP3 SLT ISZERO PUSH2 0x2F4C JUMPI DUP2 PUSH1 0x0 SUB PUSH2 0xC94 JUMP JUMPDEST POP SWAP1 JUMP JUMPDEST PUSH1 0x0 DUP1 PUSH2 0x2F61 DUP9 DUP9 DUP9 DUP9 DUP9 DUP9 PUSH2 0x2D36 JUMP JUMPDEST SWAP1 POP PUSH1 0x0 PUSH2 0x2F6F DUP10 DUP10 PUSH2 0x2CD0 JUMP JUMPDEST SWAP1 POP PUSH2 0x94C DUP2 DUP4 PUSH2 0x3266 JUMP JUMPDEST PUSH1 0x0 DUP1 PUSH2 0x2F88 DUP5 DUP5 PUSH2 0x2E3B JUMP JUMPDEST SWAP1 POP PUSH1 0x0 PUSH2 0x2F96 DUP6 DUP6 PUSH2 0x2CD0 JUMP JUMPDEST SWAP1 POP DUP2 PUSH2 0x2D2C DUP2 DUP4 PUSH2 0x2C34 JUMP JUMPDEST PUSH1 0x0 PUSH2 0x2FB2 PUSH1 0x2 DUP5 DUP5 XOR PUSH2 0x3467 JUMP JUMPDEST PUSH2 0x1932 SWAP1 DUP5 DUP5 AND PUSH2 0x3266 JUMP JUMPDEST PUSH1 0x0 DUP1 PUSH2 0x2FCA DUP5 PUSH2 0x26AE JUMP JUMPDEST SWAP1 POP PUSH1 0x0 DUP2 GT PUSH2 0x301C JUMPI PUSH1 0x40 MLOAD PUSH3 0x461BCD PUSH1 0xE5 SHL DUP2 MSTORE PUSH1 0x20 PUSH1 0x4 DUP3 ADD MSTORE PUSH1 0xC PUSH1 0x24 DUP3 ADD MSTORE PUSH32 0x4F564C56313A6D69643D3D300000000000000000000000000000000000000000 PUSH1 0x44 DUP3 ADD MSTORE PUSH1 0x64 ADD PUSH2 0x1451 JUMP JUMPDEST PUSH2 0xD2D DUP4 DUP3 PUSH2 0x2F0A JUMP JUMPDEST PUSH1 0x0 PUSH2 0x1932 DUP3 PUSH2 0x2CEF DUP6 PUSH1 0xA0 ADD MLOAD SWAP1 JUMP JUMPDEST PUSH1 0x0 PUSH2 0x2710 DUP3 PUSH1 0x40 ADD MLOAD PUSH6 0xFFFFFFFFFFFF AND PUSH2 0xC94 SWAP2 SWAP1 PUSH2 0x3448 JUMP JUMPDEST PUSH1 0x0 DUP2 DUP4 LT PUSH2 0x2E91 JUMPI DUP2 PUSH2 0x1932 JUMP JUMPDEST PUSH1 0x1 PUSH1 0x1 PUSH1 0xA0 SHL SUB DUP2 AND DUP2 EQ PUSH2 0x3077 JUMPI PUSH1 0x0 DUP1 REVERT JUMPDEST POP JUMP JUMPDEST PUSH1 0x0 DUP1 PUSH1 0x0 PUSH1 0x60 DUP5 DUP7 SUB SLT ISZERO PUSH2 0x308F JUMPI PUSH1 0x0 DUP1 REVERT JUMPDEST DUP4 CALLDATALOAD PUSH2 0x309A DUP2 PUSH2 0x3062 JUMP JUMPDEST SWAP3 POP PUSH1 0x20 DUP5 ADD CALLDATALOAD PUSH2 0x30AA DUP2 PUSH2 0x3062 JUMP JUMPDEST SWAP3 SWAP6 SWAP3 SWAP5 POP POP POP PUSH1 0x40 SWAP2 SWAP1 SWAP2 ADD CALLDATALOAD SWAP1 JUMP JUMPDEST PUSH1 0x0 PUSH1 0x20 DUP3 DUP5 SUB SLT ISZERO PUSH2 0x30CD JUMPI PUSH1 0x0 DUP1 REVERT JUMPDEST DUP2 CALLDATALOAD PUSH2 0x1932 DUP2 PUSH2 0x3062 JUMP JUMPDEST PUSH1 0x0 DUP1 PUSH1 0x40 DUP4 DUP6 SUB SLT ISZERO PUSH2 0x30EB JUMPI PUSH1 0x0 DUP1 REVERT JUMPDEST DUP3 CALLDATALOAD PUSH2 0x30F6 DUP2 PUSH2 0x3062 JUMP JUMPDEST SWAP5 PUSH1 0x20 SWAP4 SWAP1 SWAP4 ADD CALLDATALOAD SWAP4 POP POP POP JUMP JUMPDEST PUSH2 0x100 DUP2 ADD PUSH2 0xC94 DUP3 DUP5 DUP1 MLOAD DUP3 MSTORE PUSH1 0x20 DUP2 ADD MLOAD PUSH1 0x20 DUP4 ADD MSTORE PUSH1 0x40 DUP2 ADD MLOAD PUSH1 0x40 DUP4 ADD MSTORE PUSH1 0x60 DUP2 ADD MLOAD PUSH1 0x60 DUP4 ADD MSTORE PUSH1 0x80 DUP2 ADD MLOAD PUSH1 0x80 DUP4 ADD MSTORE PUSH1 0xA0 DUP2 ADD MLOAD PUSH1 0xA0 DUP4 ADD MSTORE PUSH1 0xC0 DUP2 ADD MLOAD PUSH1 0xC0 DUP4 ADD MSTORE PUSH1 0xE0 DUP2 ADD MLOAD ISZERO ISZERO PUSH1 0xE0 DUP4 ADD MSTORE POP POP JUMP JUMPDEST PUSH1 0x0 PUSH1 0x20 DUP3 DUP5 SUB SLT ISZERO PUSH2 0x3170 JUMPI PUSH1 0x0 DUP1 REVERT JUMPDEST DUP2 MLOAD PUSH2 0x1932 DUP2 PUSH2 0x3062 JUMP JUMPDEST PUSH4 0x4E487B71 PUSH1 0xE0 SHL PUSH1 0x0 MSTORE PUSH1 0x11 PUSH1 0x4 MSTORE PUSH1 0x24 PUSH1 0x0 REVERT JUMPDEST PUSH1 0x0 DUP1 DUP4 SLT DUP1 ISZERO PUSH1 0x1 PUSH1 0xFF SHL DUP6 ADD DUP5 SLT AND ISZERO PUSH2 0x31AF JUMPI PUSH2 0x31AF PUSH2 0x317B JUMP JUMPDEST DUP4 PUSH1 0x1 PUSH1 0x1 PUSH1 0xFF SHL SUB ADD DUP4 SGT DUP2 AND ISZERO PUSH2 0x31CA JUMPI PUSH2 0x31CA PUSH2 0x317B JUMP JUMPDEST POP POP SUB SWAP1 JUMP JUMPDEST DUP1 MLOAD PUSH4 0xFFFFFFFF DUP2 AND DUP2 EQ PUSH2 0x31E4 JUMPI PUSH1 0x0 DUP1 REVERT JUMPDEST SWAP2 SWAP1 POP JUMP JUMPDEST PUSH1 0x0 DUP1 PUSH1 0x0 PUSH1 0x60 DUP5 DUP7 SUB SLT ISZERO PUSH2 0x31FE JUMPI PUSH1 0x0 DUP1 REVERT JUMPDEST PUSH2 0x3207 DUP5 PUSH2 0x31D0 JUMP JUMPDEST SWAP3 POP PUSH2 0x3215 PUSH1 0x20 DUP6 ADD PUSH2 0x31D0 JUMP JUMPDEST SWAP2 POP PUSH1 0x40 DUP5 ADD MLOAD DUP1 PUSH1 0x17 SIGNEXTEND DUP2 EQ PUSH2 0x322B JUMPI PUSH1 0x0 DUP1 REVERT JUMPDEST DUP1 SWAP2 POP POP SWAP3 POP SWAP3 POP SWAP3 JUMP JUMPDEST PUSH1 0x0 PUSH1 0x20 DUP3 DUP5 SUB SLT ISZERO PUSH2 0x3248 JUMPI PUSH1 0x0 DUP1 REVERT JUMPDEST POP MLOAD SWAP2 SWAP1 POP JUMP JUMPDEST PUSH1 0x0 DUP3 DUP3 LT ISZERO PUSH2 0x3261 JUMPI PUSH2 0x3261 PUSH2 0x317B JUMP JUMPDEST POP SUB SWAP1 JUMP JUMPDEST PUSH1 0x0 DUP3 NOT DUP3 GT ISZERO PUSH2 0x3279 JUMPI PUSH2 0x3279 PUSH2 0x317B JUMP JUMPDEST POP ADD SWAP1 JUMP JUMPDEST DUP1 MLOAD DUP1 ISZERO ISZERO DUP2 EQ PUSH2 0x31E4 JUMPI PUSH1 0x0 DUP1 REVERT JUMPDEST PUSH1 0x0 PUSH2 0x100 DUP1 DUP4 DUP6 SUB SLT ISZERO PUSH2 0x32A2 JUMPI PUSH1 0x0 DUP1 REVERT JUMPDEST PUSH1 0x40 MLOAD SWAP1 DUP2 ADD SWAP1 PUSH8 0xFFFFFFFFFFFFFFFF DUP3 GT DUP2 DUP4 LT OR ISZERO PUSH2 0x32D3 JUMPI PUSH4 0x4E487B71 PUSH1 0xE0 SHL PUSH1 0x0 MSTORE PUSH1 0x41 PUSH1 0x4 MSTORE PUSH1 0x24 PUSH1 0x0 REVERT JUMPDEST DUP2 PUSH1 0x40 MSTORE DUP4 MLOAD DUP2 MSTORE PUSH1 0x20 DUP5 ADD MLOAD PUSH1 0x20 DUP3 ADD MSTORE PUSH1 0x40 DUP5 ADD MLOAD PUSH1 0x40 DUP3 ADD MSTORE PUSH1 0x60 DUP5 ADD MLOAD PUSH1 0x60 DUP3 ADD MSTORE PUSH1 0x80 DUP5 ADD MLOAD PUSH1 0x80 DUP3 ADD MSTORE PUSH1 0xA0 DUP5 ADD MLOAD PUSH1 0xA0 DUP3 ADD MSTORE PUSH1 0xC0 DUP5 ADD MLOAD PUSH1 0xC0 DUP3 ADD MSTORE PUSH2 0x3323 PUSH1 0xE0 DUP6 ADD PUSH2 0x327E JUMP JUMPDEST PUSH1 0xE0 DUP3 ADD MSTORE SWAP5 SWAP4 POP POP POP POP JUMP JUMPDEST DUP1 MLOAD PUSH12 0xFFFFFFFFFFFFFFFFFFFFFFFF DUP2 AND DUP2 EQ PUSH2 0x31E4 JUMPI PUSH1 0x0 DUP1 REVERT JUMPDEST PUSH1 0x0 DUP1 PUSH1 0x0 DUP1 PUSH1 0x0 DUP1 PUSH1 0xC0 DUP8 DUP10 SUB SLT ISZERO PUSH2 0x3365 JUMPI PUSH1 0x0 DUP1 REVERT JUMPDEST PUSH2 0x336E DUP8 PUSH2 0x3330 JUMP JUMPDEST SWAP6 POP PUSH2 0x337C PUSH1 0x20 DUP9 ADD PUSH2 0x3330 JUMP JUMPDEST SWAP5 POP PUSH1 0x40 DUP8 ADD MLOAD PUSH6 0xFFFFFFFFFFFF DUP2 AND DUP2 EQ PUSH2 0x3397 JUMPI PUSH1 0x0 DUP1 REVERT JUMPDEST SWAP4 POP PUSH2 0x33A5 PUSH1 0x60 DUP9 ADD PUSH2 0x327E JUMP JUMPDEST SWAP3 POP PUSH2 0x33B3 PUSH1 0x80 DUP9 ADD PUSH2 0x327E JUMP JUMPDEST SWAP2 POP PUSH1 0xA0 DUP8 ADD MLOAD SWAP1 POP SWAP3 SWAP6 POP SWAP3 SWAP6 POP SWAP3 SWAP6 JUMP JUMPDEST PUSH1 0x0 PUSH4 0xFFFFFFFF DUP4 DUP2 AND SWAP1 DUP4 AND DUP2 DUP2 LT ISZERO PUSH2 0x33E3 JUMPI PUSH2 0x33E3 PUSH2 0x317B JUMP JUMPDEST SUB SWAP4 SWAP3 POP POP POP JUMP JUMPDEST PUSH1 0x0 PUSH1 0x1 PUSH1 0xFF SHL DUP3 EQ ISZERO PUSH2 0x3401 JUMPI PUSH2 0x3401 PUSH2 0x317B JUMP JUMPDEST POP PUSH1 0x0 SUB SWAP1 JUMP JUMPDEST PUSH1 0x0 DUP1 DUP3 SLT DUP3 PUSH1 0x1 PUSH1 0x1 PUSH1 0xFF SHL SUB SUB DUP5 SGT DUP2 ISZERO AND ISZERO PUSH2 0x3429 JUMPI PUSH2 0x3429 PUSH2 0x317B JUMP JUMPDEST PUSH1 0x1 PUSH1 0xFF SHL DUP4 SWAP1 SUB DUP5 SLT DUP2 AND ISZERO PUSH2 0x3442 JUMPI PUSH2 0x3442 PUSH2 0x317B JUMP JUMPDEST POP POP ADD SWAP1 JUMP JUMPDEST PUSH1 0x0 DUP2 PUSH1 0x0 NOT DIV DUP4 GT DUP3 ISZERO ISZERO AND ISZERO PUSH2 0x3462 JUMPI PUSH2 0x3462 PUSH2 0x317B JUMP JUMPDEST POP MUL SWAP1 JUMP JUMPDEST PUSH1 0x0 DUP3 PUSH2 0x3484 JUMPI PUSH4 0x4E487B71 PUSH1 0xE0 SHL PUSH1 0x0 MSTORE PUSH1 0x12 PUSH1 0x4 MSTORE PUSH1 0x24 PUSH1 0x0 REVERT JUMPDEST POP DIV SWAP1 JUMP JUMPDEST PUSH2 0x120 DUP2 ADD PUSH2 0x34E3 DUP3 DUP6 DUP1 MLOAD DUP3 MSTORE PUSH1 0x20 DUP2 ADD MLOAD PUSH1 0x20 DUP4 ADD MSTORE PUSH1 0x40 DUP2 ADD MLOAD PUSH1 0x40 DUP4 ADD MSTORE PUSH1 0x60 DUP2 ADD MLOAD PUSH1 0x60 DUP4 ADD MSTORE PUSH1 0x80 DUP2 ADD MLOAD PUSH1 0x80 DUP4 ADD MSTORE PUSH1 0xA0 DUP2 ADD MLOAD PUSH1 0xA0 DUP4 ADD MSTORE PUSH1 0xC0 DUP2 ADD MLOAD PUSH1 0xC0 DUP4 ADD MSTORE PUSH1 0xE0 DUP2 ADD MLOAD ISZERO ISZERO PUSH1 0xE0 DUP4 ADD MSTORE POP POP JUMP JUMPDEST DUP3 PUSH2 0x100 DUP4 ADD MSTORE SWAP4 SWAP3 POP POP POP JUMP JUMPDEST PUSH1 0x0 DUP1 PUSH1 0x40 DUP4 DUP6 SUB SLT ISZERO PUSH2 0x3504 JUMPI PUSH1 0x0 DUP1 REVERT JUMPDEST POP POP DUP1 MLOAD PUSH1 0x20 SWAP1 SWAP2 ADD MLOAD SWAP1 SWAP3 SWAP1 SWAP2 POP JUMP INVALID LOG2 PUSH5 0x6970667358 0x22 SLT KECCAK256 DUP4 AND CODECOPY LOG0 0x4F CALLDATALOAD PUSH25 0x6B03A8C0E4F416AF71DF2019540497D8F6118D0D095F3104EE PUSH5 0x736F6C6343 STOP ADDMOD EXP STOP CALLER ",
  "sha1": "9bff5776dfced6510ada8c330b4676cd8f359775",
  "source": "// SPDX-License-Identifier: MIT\npragma solidity 0.8.10;\n\nimport \"./interfaces/IOverlayV1State.sol\";\n\nimport \"./state/OverlayV1BaseState.sol\";\nimport \"./state/OverlayV1OIState.sol\";\nimport \"./state/OverlayV1PositionState.sol\";\nimport \"./state/OverlayV1PriceState.sol\";\n\n/// @title A market state contract to view the current state of\n/// @title an Overlay market\ncontract OverlayV1State is\n    IOverlayV1State,\n    OverlayV1BaseState,\n    OverlayV1PriceState,\n    OverlayV1OIState,\n    OverlayV1PositionState\n{\n    constructor(IOverlayV1Factory _factory) OverlayV1BaseState(_factory) {}\n\n    /// @notice Gets relevant market info to aggregate calls into a\n    /// @notice single function\n    /// @dev WARNING: makes many calls to market\n    /// @return state_ as the current aggregate market state\n    function marketState(IOverlayV1Market market)\n        external\n        view\n        returns (MarketState memory state_)\n    {\n        address feed = market.feed();\n        Oracle.Data memory data = _getOracleData(feed);\n\n        (uint256 oiLong, uint256 oiShort) = _ois(market);\n        state_ = MarketState({\n            bid: _bid(market, data, 0),\n            ask: _ask(market, data, 0),\n            mid: _mid(data),\n            volumeBid: _volumeBid(market, data, 0),\n            volumeAsk: _volumeAsk(market, data, 0),\n            oiLong: oiLong,\n            oiShort: oiShort,\n            capOi: _capOi(market, data),\n            circuitBreakerLevel: _circuitBreakerLevel(market),\n            fundingRate: _fundingRate(market)\n        });\n    }\n}\n",
  "sourcePath": "contracts/OverlayV1State.sol",
  "type": "contract"
}