{
  "abi": [
    {
      "inputs": [
        {
          "internalType": "address",
          "name": "_ovl",
          "type": "address"
        },
        {
          "internalType": "address",
          "name": "_feeRecipient",
          "type": "address"
        }
      ],
      "stateMutability": "nonpayable",
      "type": "constructor"
    },
    {
      "anonymous": false,
      "inputs": [
        {
          "indexed": true,
          "internalType": "address",
          "name": "user",
          "type": "address"
        },
        {
          "indexed": false,
          "internalType": "address",
          "name": "recipient",
          "type": "address"
        }
      ],
      "name": "FeeRecipientUpdated",
      "type": "event"
    },
    {
      "anonymous": false,
      "inputs": [
        {
          "indexed": true,
          "internalType": "address",
          "name": "user",
          "type": "address"
        },
        {
          "indexed": false,
          "internalType": "address",
          "name": "feedFactory",
          "type": "address"
        }
      ],
      "name": "FeedFactoryAdded",
      "type": "event"
    },
    {
      "anonymous": false,
      "inputs": [
        {
          "indexed": true,
          "internalType": "address",
          "name": "user",
          "type": "address"
        },
        {
          "indexed": false,
          "internalType": "address",
          "name": "market",
          "type": "address"
        },
        {
          "indexed": false,
          "internalType": "address",
          "name": "feed",
          "type": "address"
        }
      ],
      "name": "MarketDeployed",
      "type": "event"
    },
    {
      "anonymous": false,
      "inputs": [
        {
          "indexed": true,
          "internalType": "address",
          "name": "user",
          "type": "address"
        },
        {
          "indexed": true,
          "internalType": "address",
          "name": "market",
          "type": "address"
        },
        {
          "indexed": false,
          "internalType": "enum Risk.Parameters",
          "name": "name",
          "type": "uint8"
        },
        {
          "indexed": false,
          "internalType": "uint256",
          "name": "value",
          "type": "uint256"
        }
      ],
      "name": "ParamUpdated",
      "type": "event"
    },
    {
      "inputs": [
        {
          "internalType": "uint256",
          "name": "",
          "type": "uint256"
        }
      ],
      "name": "PARAMS_MAX",
      "outputs": [
        {
          "internalType": "uint256",
          "name": "",
          "type": "uint256"
        }
      ],
      "stateMutability": "view",
      "type": "function"
    },
    {
      "inputs": [
        {
          "internalType": "uint256",
          "name": "",
          "type": "uint256"
        }
      ],
      "name": "PARAMS_MIN",
      "outputs": [
        {
          "internalType": "uint256",
          "name": "",
          "type": "uint256"
        }
      ],
      "stateMutability": "view",
      "type": "function"
    },
    {
      "inputs": [
        {
          "internalType": "address",
          "name": "feedFactory",
          "type": "address"
        }
      ],
      "name": "addFeedFactory",
      "outputs": [],
      "stateMutability": "nonpayable",
      "type": "function"
    },
    {
      "inputs": [
        {
          "internalType": "address",
          "name": "feedFactory",
          "type": "address"
        },
        {
          "internalType": "address",
          "name": "feed",
          "type": "address"
        },
        {
          "internalType": "uint256[15]",
          "name": "params",
          "type": "uint256[15]"
        }
      ],
      "name": "deployMarket",
      "outputs": [
        {
          "internalType": "address",
          "name": "market_",
          "type": "address"
        }
      ],
      "stateMutability": "nonpayable",
      "type": "function"
    },
    {
      "inputs": [],
      "name": "deployer",
      "outputs": [
        {
          "internalType": "contract IOverlayV1Deployer",
          "name": "",
          "type": "address"
        }
      ],
      "stateMutability": "view",
      "type": "function"
    },
    {
      "inputs": [],
      "name": "feeRecipient",
      "outputs": [
        {
          "internalType": "address",
          "name": "",
          "type": "address"
        }
      ],
      "stateMutability": "view",
      "type": "function"
    },
    {
      "inputs": [
        {
          "internalType": "address",
          "name": "",
          "type": "address"
        }
      ],
      "name": "getMarket",
      "outputs": [
        {
          "internalType": "address",
          "name": "",
          "type": "address"
        }
      ],
      "stateMutability": "view",
      "type": "function"
    },
    {
      "inputs": [
        {
          "internalType": "address",
          "name": "",
          "type": "address"
        }
      ],
      "name": "isFeedFactory",
      "outputs": [
        {
          "internalType": "bool",
          "name": "",
          "type": "bool"
        }
      ],
      "stateMutability": "view",
      "type": "function"
    },
    {
      "inputs": [
        {
          "internalType": "address",
          "name": "",
          "type": "address"
        }
      ],
      "name": "isMarket",
      "outputs": [
        {
          "internalType": "bool",
          "name": "",
          "type": "bool"
        }
      ],
      "stateMutability": "view",
      "type": "function"
    },
    {
      "inputs": [],
      "name": "ovl",
      "outputs": [
        {
          "internalType": "contract IOverlayV1Token",
          "name": "",
          "type": "address"
        }
      ],
      "stateMutability": "view",
      "type": "function"
    },
    {
      "inputs": [
        {
          "internalType": "address",
          "name": "_feeRecipient",
          "type": "address"
        }
      ],
      "name": "setFeeRecipient",
      "outputs": [],
      "stateMutability": "nonpayable",
      "type": "function"
    },
    {
      "inputs": [
        {
          "internalType": "address",
          "name": "feed",
          "type": "address"
        },
        {
          "internalType": "enum Risk.Parameters",
          "name": "name",
          "type": "uint8"
        },
        {
          "internalType": "uint256",
          "name": "value",
          "type": "uint256"
        }
      ],
      "name": "setRiskParam",
      "outputs": [],
      "stateMutability": "nonpayable",
      "type": "function"
    }
  ],
  "bytecode": "6102a06040526317d7840060c0908152662386f26fc1000060e0819052655af3107a4000610100819052670de0b6b3a764000061012081905260006101408190526101609190915262015180610180526101a08190526101c08390526101e09290925266038d7ea4c68000610200526102205264e8d4a51000610240819052610260526102808190526200009591600f62000218565b50604080516101e0810182526503a3529440008152678ac7230489e80000602082015266470de4df8200009181019190915268056bc75e2d6310000060608201526a069e10de76676d08000000608082018190526801158e460913d0000060a08301526301e1338060c083015260e08201526702c68af0bb14000061010082018190526706f05b59d3b200006101208301526101408201526611c37937e08000610160820152670de0b6b3a7640000610180820152655af3107a40006101a0820152610e106101c08201526200016f90600f908162000266565b503480156200017d57600080fd5b506040516200666538038062006665833981016040819052620001a091620002e4565b6001600160a01b03828116608052601e80546001600160a01b0319169183169190911790556040518290620001d590620002a2565b6001600160a01b039091168152602001604051809103906000f08015801562000202573d6000803e3d6000fd5b506001600160a01b031660a052506200031c9050565b82600f810192821562000254579160200282015b828111156200025457825182906001600160401b03169055916020019190600101906200022c565b5062000262929150620002b0565b5090565b82600f810192821562000254579160200282015b828111156200025457825182906001600160581b03169055916020019190600101906200027a565b6152c480620013a183390190565b5b80821115620002625760008155600101620002b1565b80516001600160a01b0381168114620002df57600080fd5b919050565b60008060408385031215620002f857600080fd5b6200030383620002c7565b91506200031360208401620002c7565b90509250929050565b60805160a05161102e62000373600039600081816101ec015261073c01526000818161018a015281816102a901528181610487015281816106580152818161084d015281816108ee0152610a17015261102e6000f3fe608060405234801561001057600080fd5b50600436106100d45760003560e01c8063ceb2b09e11610081578063d613efa21161005b578063d613efa21461020e578063d9f4d29e14610221578063e74b981b1461024457600080fd5b8063ceb2b09e146101ac578063d4dfadbf146101bf578063d5f39488146101e757600080fd5b80636ec934da116100b25780636ec934da1461013f578063aba3a17514610172578063b29fa9c31461018557600080fd5b8063167b9f02146100d957806346904840146100ff5780636588ceee1461012a575b600080fd5b6100ec6100e7366004610e37565b610257565b6040519081526020015b60405180910390f35b601e54610112906001600160a01b031681565b6040516001600160a01b0390911681526020016100f6565b61013d610138366004610e68565b61026e565b005b61016261014d366004610e68565b60216020526000908152604090205460ff1681565b60405190151581526020016100f6565b61013d610180366004610e8c565b61044c565b6101127f000000000000000000000000000000000000000000000000000000000000000081565b6100ec6101ba366004610e37565b61060a565b6101126101cd366004610e68565b60208052600090815260409020546001600160a01b031681565b6101127f000000000000000000000000000000000000000000000000000000000000000081565b61011261021c366004610ed1565b61061a565b61016261022f366004610e68565b601f6020526000908152604090205460ff1681565b61013d610252366004610e68565b6109dc565b600f81600f811061026757600080fd5b0154905081565b604051632474521560e21b81527f1a6838efa4183e08fe3607359d1259272af9d4716f65e1a7b5921f78fd5a3c6a60048201523360248201527f00000000000000000000000000000000000000000000000000000000000000006001600160a01b0316906391d1485490604401602060405180830381865afa1580156102f8573d6000803e3d6000fd5b505050506040513d601f19601f8201168201806040525081019061031c9190610f22565b6103605760405162461bcd60e51b815260206004820152601060248201526f27ab262b189d1010b3b7bb32b93737b960811b60448201526064015b60405180910390fd5b6001600160a01b0381166000908152601f602052604090205460ff16156103ef5760405162461bcd60e51b815260206004820152602560248201527f4f564c56313a206665656420666163746f727920616c7265616479207375707060448201527f6f727465640000000000000000000000000000000000000000000000000000006064820152608401610357565b6001600160a01b0381166000818152601f6020908152604091829020805460ff19166001179055905191825233917fd03181f34238c7b31cd72984bcd778fb418e907cb080bebff1e90c75b70db46191015b60405180910390a250565b604051632474521560e21b81527f1a6838efa4183e08fe3607359d1259272af9d4716f65e1a7b5921f78fd5a3c6a60048201523360248201527f00000000000000000000000000000000000000000000000000000000000000006001600160a01b0316906391d1485490604401602060405180830381865afa1580156104d6573d6000803e3d6000fd5b505050506040513d601f19601f820116820180604052508101906104fa9190610f22565b6105395760405162461bcd60e51b815260206004820152601060248201526f27ab262b189d1010b3b7bb32b93737b960811b6044820152606401610357565b6105438282610ba2565b6001600160a01b03808416600090815260208052604090819020549051630c81a18560e31b8152911690819063640d0c28906105859086908690600401610f5a565b600060405180830381600087803b15801561059f57600080fd5b505af11580156105b3573d6000803e3d6000fd5b50505050806001600160a01b0316336001600160a01b03167ff0ac4a9433e75c2d3396f101f9cf8ce159232a6fd751a08a57c0e25c5d1d68c685856040516105fc929190610f5a565b60405180910390a350505050565b600081600f811061026757600080fd5b604051632474521560e21b81527f1a6838efa4183e08fe3607359d1259272af9d4716f65e1a7b5921f78fd5a3c6a60048201523360248201526000907f00000000000000000000000000000000000000000000000000000000000000006001600160a01b0316906391d1485490604401602060405180830381865afa1580156106a7573d6000803e3d6000fd5b505050506040513d601f19601f820116820180604052508101906106cb9190610f22565b61070a5760405162461bcd60e51b815260206004820152601060248201526f27ab262b189d1010b3b7bb32b93737b960811b6044820152606401610357565b6107148484610c21565b61071d82610db4565b604051634c96a38960e01b81526001600160a01b0384811660048301527f00000000000000000000000000000000000000000000000000000000000000001690634c96a389906024016020604051808303816000875af1158015610785573d6000803e3d6000fd5b505050506040513d601f19601f820116820180604052508101906107a99190610f86565b604051635ad7226f60e01b81529091506001600160a01b03821690635ad7226f906107d8908590600401610fa3565b600060405180830381600087803b1580156107f257600080fd5b505af1158015610806573d6000803e3d6000fd5b5050604051632f2ff15d60e01b81527ff0887ba65ee2024ea881d91b74c2450ef19e1557f03bed3ea9f16b037cbe2dc960048201526001600160a01b0384811660248301527f0000000000000000000000000000000000000000000000000000000000000000169250632f2ff15d9150604401600060405180830381600087803b15801561089357600080fd5b505af11580156108a7573d6000803e3d6000fd5b5050604051632f2ff15d60e01b81527f9667e80708b6eeeb0053fa0cca44e028ff548e2a9f029edfeac87c118b08b7c860048201526001600160a01b0384811660248301527f0000000000000000000000000000000000000000000000000000000000000000169250632f2ff15d9150604401600060405180830381600087803b15801561093457600080fd5b505af1158015610948573d6000803e3d6000fd5b505050506001600160a01b03838116600081815260208080526040808320805473ffffffffffffffffffffffffffffffffffffffff191695871695861790558483526021825291829020805460ff19166001179055815193845283019190915233917f495158bf52dadccd4ffb0dbda58d95af1942fd5dab5713cecc11c009480f8401910160405180910390a29392505050565b604051632474521560e21b81527f1a6838efa4183e08fe3607359d1259272af9d4716f65e1a7b5921f78fd5a3c6a60048201523360248201527f00000000000000000000000000000000000000000000000000000000000000006001600160a01b0316906391d1485490604401602060405180830381865afa158015610a66573d6000803e3d6000fd5b505050506040513d601f19601f82011682018060405250810190610a8a9190610f22565b610ac95760405162461bcd60e51b815260206004820152601060248201526f27ab262b189d1010b3b7bb32b93737b960811b6044820152606401610357565b6001600160a01b038116610b455760405162461bcd60e51b815260206004820152602e60248201527f4f564c56313a20666565526563697069656e742073686f756c64206e6f74206260448201527f65207a65726f20616464726573730000000000000000000000000000000000006064820152608401610357565b601e805473ffffffffffffffffffffffffffffffffffffffff19166001600160a01b03831690811790915560405190815233907faaebcf1bfa00580e41d966056b48521fa9f202645c86d4ddf28113e617c1b1d390602001610441565b6000610bae8184610e09565b90506000610bbd600f85610e09565b9050818310158015610bcf5750808311155b610c1b5760405162461bcd60e51b815260206004820152601a60248201527f4f564c56313a20706172616d206f7574206f6620626f756e64730000000000006044820152606401610357565b50505050565b6001600160a01b0381811660009081526020805260409020541615610c885760405162461bcd60e51b815260206004820152601c60248201527f4f564c56313a206d61726b657420616c726561647920657869737473000000006044820152606401610357565b6001600160a01b0382166000908152601f602052604090205460ff16610cfa5760405162461bcd60e51b815260206004820152602160248201527f4f564c56313a206665656420666163746f7279206e6f7420737570706f7274656044820152601960fa1b6064820152608401610357565b604051633963f74160e21b81526001600160a01b03828116600483015283169063e58fdd0490602401602060405180830381865afa158015610d40573d6000803e3d6000fd5b505050506040513d601f19601f82011682018060405250810190610d649190610f22565b610db05760405162461bcd60e51b815260206004820152601a60248201527f4f564c56313a206665656420646f6573206e6f742065786973740000000000006044820152606401610357565b5050565b600f60005b81811015610e0457610df281600e811115610dd657610dd6610f44565b8483600f8110610de857610de8610fb9565b6020020135610ba2565b80610dfc81610fcf565b915050610db9565b505050565b60008282600e811115610e1e57610e1e610f44565b600f8110610e2e57610e2e610fb9565b01549392505050565b600060208284031215610e4957600080fd5b5035919050565b6001600160a01b0381168114610e6557600080fd5b50565b600060208284031215610e7a57600080fd5b8135610e8581610e50565b9392505050565b600080600060608486031215610ea157600080fd5b8335610eac81610e50565b92506020840135600f8110610ec057600080fd5b929592945050506040919091013590565b6000806000610220808587031215610ee857600080fd5b8435610ef381610e50565b93506020850135610f0381610e50565b9250848101861015610f1457600080fd5b506040840190509250925092565b600060208284031215610f3457600080fd5b81518015158114610e8557600080fd5b634e487b7160e01b600052602160045260246000fd5b60408101600f8410610f7c57634e487b7160e01b600052602160045260246000fd5b9281526020015290565b600060208284031215610f9857600080fd5b8151610e8581610e50565b6101e08181019080848437506000815292915050565b634e487b7160e01b600052603260045260246000fd5b6000600019821415610ff157634e487b7160e01b600052601160045260246000fd5b506001019056fea2646970667358221220dd2c63df685a95615bd260f7da2fe57097d31e9284ad60010036553684a3e60f64736f6c634300080a003360c060405234801561001057600080fd5b506040516152c43803806152c483398101604081905261002f91610044565b336080526001600160a01b031660a052610074565b60006020828403121561005657600080fd5b81516001600160a01b038116811461006d57600080fd5b9392505050565b60805160a0516152186100ac6000396000818160c0015261012001526000818160ed01528181610147015261017601526152186000f3fe608060405234801561001057600080fd5b50600436106100675760003560e01c8063890357301161005057806389035730146100af578063b29fa9c31461011b578063c45a01551461014257600080fd5b806337a7b7d81461006c5780634c96a3891461009c575b600080fd5b60005461007f906001600160a01b031681565b6040516001600160a01b0390911681526020015b60405180910390f35b61007f6100aa366004610292565b610169565b600054604080516001600160a01b037f00000000000000000000000000000000000000000000000000000000000000008116825292831660208201527f000000000000000000000000000000000000000000000000000000000000000090921690820152606001610093565b61007f7f000000000000000000000000000000000000000000000000000000000000000081565b61007f7f000000000000000000000000000000000000000000000000000000000000000081565b6000336001600160a01b037f000000000000000000000000000000000000000000000000000000000000000016146101e75760405162461bcd60e51b815260206004820152600f60248201527f4f564c56313a2021666163746f72790000000000000000000000000000000000604482015260640160405180910390fd5b6000805473ffffffffffffffffffffffffffffffffffffffff19166001600160a01b038416908117909155604080516020810192909252016040516020818303038152906040528051906020012060405161024190610285565b8190604051809103906000f5905080158015610261573d6000803e3d6000fd5b506000805473ffffffffffffffffffffffffffffffffffffffff1916905592915050565b614f20806102c383390190565b6000602082840312156102a457600080fd5b81356001600160a01b03811681146102bb57600080fd5b939250505056fe60e06040523480156200001157600080fd5b506000806000336001600160a01b031663890357306040518163ffffffff1660e01b8152600401606060405180830381865afa15801562000056573d6000803e3d6000fd5b505050506040513d601f19601f820116820180604052508101906200007c9190620000bb565b6001600160a01b0392831660805290821660a0521660c0525062000105915050565b80516001600160a01b0381168114620000b657600080fd5b919050565b600080600060608486031215620000d157600080fd5b620000dc846200009e565b9250620000ec602085016200009e565b9150620000fc604085016200009e565b90509250925092565b60805160a05160c051614d6d620001b36000396000818161057b01528181610d2a01528181611397015281816114a00152818161176001526120670152600081816102250152818161150301528181611b9101528181612de7015261325f01526000818161051801528181610b3201528181610bcf01528181610c5901528181610cfb015281816112bc0152818161136801528181611f1a01528181611fbe01526120380152614d6d6000f3fe608060405234801561001057600080fd5b50600436106101da5760003560e01c80638607f5c311610104578063b445e2e7116100a2578063d43cbd8e11610071578063d43cbd8e146105a6578063d565cc33146105b9578063ecc16191146105e2578063f333fe13146105f557600080fd5b8063b445e2e71461053a578063bcbaf48714610563578063c45a015514610576578063c6838e8b1461059d57600080fd5b80639d2f053c116100de5780639d2f053c1461046d5780639f0a545914610480578063a2e62045146104a8578063b29fa9c31461051357600080fd5b80638607f5c3146104345780638eba35351461044757806392aac7011461045a57600080fd5b806358171a611161017c5780635dedde6d1161014b5780635dedde6d146103f2578063640d0c28146103fb5780636c6291591461040e57806383ba19171461042157600080fd5b806358171a611461035a578063599682881461037d5780635ad7226f146103905780635b6df29a146103a357600080fd5b80633197e192116101b85780633197e1921461021757806337a7b7d81461022057806346322c371461025f578063514ea4bf1461027457600080fd5b806309163014146101df5780632acb3810146101fb5780632eda95c214610204575b600080fd5b6101e860105481565b6040519081526020015b60405180910390f35b6101e860115481565b6101e86102123660046147a3565b6105fe565b6101e860195481565b6102477f000000000000000000000000000000000000000000000000000000000000000081565b6040516001600160a01b0390911681526020016101f2565b61027261026d3660046147d0565b6106b9565b005b6102f76102823660046147fc565b601660205260009081526040902080546001909101546bffffffffffffffffffffffff80831692600160601b810490911691600160c01b8204600290810b92600160d81b810490910b91600160f01b80830460ff90811693600160f81b900416916001600160f01b03811691900461ffff1688565b604080516bffffffffffffffffffffffff998a168152989097166020890152600295860b968801969096529290930b60608601521515608085015290151560a08401526001600160f01b031660c083015261ffff1660e0820152610100016101f2565b61036d610368366004614815565b610e25565b60405190151581526020016101f2565b6101e861038b366004614832565b610e91565b61027261039e366004614871565b611495565b6015546103cc9063ffffffff80821691640100000000810490911690600160401b900460170b83565b6040805163ffffffff948516815293909216602084015260170b908201526060016101f2565b6101e8600f5481565b6102726104093660046148f0565b611755565b6101e861041c366004614815565b6117eb565b6101e861042f3660046147fc565b611819565b6101e86104423660046147a3565b611888565b6101e8610455366004614920565b611937565b6101e8610468366004614815565b61194c565b6101e861047b3660046147fc565b6119d2565b61049361048e3660046147d0565b6119e9565b604080519283526020830191909152016101f2565b6104b0611b3b565b6040516101f29190600061010082019050825182526020830151602083015260408301516040830152606083015160608301526080830151608083015260a083015160a083015260c083015160c083015260e0830151151560e083015292915050565b6102477f000000000000000000000000000000000000000000000000000000000000000081565b6013546103cc9063ffffffff80821691640100000000810490911690600160401b900460170b83565b610272610571366004614957565b611c5c565b6102477f000000000000000000000000000000000000000000000000000000000000000081565b6101e860185481565b6101e86105b4366004614989565b612163565b6014546103cc9063ffffffff80821691640100000000810490911690600160401b900460170b83565b6101e86105f03660046147a3565b6121e7565b6101e860125481565b60006106128360600151846080015161221d565b90506000610621816002612234565b90506000610630816001612234565b9050600061063e8286612262565b6106489084614a2b565b90506801158e460913d00000811061069c5760405162461bcd60e51b815260206004820152601260248201527109eac98ac6274e6d8d2e0e0c2ceca7cdac2f60731b60448201526064015b60405180910390fd5b6106af6106a8826122b1565b8590612262565b9695505050505050565b670de0b6b3a76400008211156107115760405162461bcd60e51b815260206004820152601260248201527f4f564c56313a6672616374696f6e3e6d617800000000000000000000000000006044820152606401610693565b61072661071d8361234c565b61ffff166123c5565b9150600082116107785760405162461bcd60e51b815260206004820152601260248201527f4f564c56313a6672616374696f6e3c6d696e00000000000000000000000000006044820152606401610693565b6000806000806000610788611b3b565b905060006107986016338b6123ec565b90506107a38161250a565b6107e15760405162461bcd60e51b815260206004820152600f60248201526e27ab262b189d10b837b9b4ba34b7b760891b6044820152606401610693565b600081608001516107f4576010546107f8565b600f545b90506000826080015161080d57601254610811565b6011545b9050610851828261082187612527565b61082d60006003612234565b61083960006008612234565b6108456000600a612234565b8995949392919061253b565b1561089e5760405162461bcd60e51b815260206004820152601260248201527f4f564c56313a6c6971756964617461626c6500000000000000000000000000006044820152606401610693565b60006108bb6108b2866105f0846004612234565b61045587612527565b905083608001516108f0576108eb85610212876108e58f88888b6125c4909392919063ffffffff16565b85612601565b610915565b610915856104428761090f8f88888b6125c4909392919063ffffffff16565b856126ca565b96508360800151610929578987111561092e565b898710155b61096f5760405162461bcd60e51b815260206004820152601260248201527109eac98ac6274e6d8d2e0e0c2ceca7cdac2f60731b6044820152606401610693565b600061097c816003612234565b905061098c858d86868c8661278e565b9950610998858d61289a565b985060006109a781600b612234565b90506109b8868e87878d87876128c2565b97506109c4888c6128ec565b9750856080015115610a11576109e86109df878f88886125c4565b600f54906128fb565b600f556109f5868e612916565b60116000828254610a069190614a43565b90915550610a4d9050565b610a29610a20878f88886125c4565b601054906128fb565b601055610a36868e612916565b60126000828254610a479190614a43565b90915550505b610a5f610a5a8b8d614a5a565b612939565b50610a6a868e612916565b8660c001818151610a7b9190614a99565b6001600160f01b0316905250610a91868e6129f9565b8660e0019061ffff16908161ffff1681525050610abc338f886016612a7e909392919063ffffffff16565b50505050505050336001600160a01b03167fc13b78a0772a556b5387d497953273371ed42cff2af20c019d9f119a737685ba88888688610afc9190614a5a565b604080519384526020840192909252908201526060810185905260800160405180910390a2828410610bc5576001600160a01b037f0000000000000000000000000000000000000000000000000000000000000000166340c10f1930610b628688614a43565b6040516001600160e01b031960e085901b1681526001600160a01b0390921660048301526024820152604401600060405180830381600087803b158015610ba857600080fd5b505af1158015610bbc573d6000803e3d6000fd5b50505050610c4f565b6001600160a01b037f0000000000000000000000000000000000000000000000000000000000000000166342966c68610bfe8686614a43565b6040518263ffffffff1660e01b8152600401610c1c91815260200190565b600060405180830381600087803b158015610c3657600080fd5b505af1158015610c4a573d6000803e3d6000fd5b505050505b6001600160a01b037f00000000000000000000000000000000000000000000000000000000000000001663a9059cbb33610c898488614a43565b6040516001600160e01b031960e085901b1681526001600160a01b03909216600483015260248201526044016020604051808303816000875af1158015610cd4573d6000803e3d6000fd5b505050506040513d601f19601f82011682018060405250810190610cf89190614ac1565b507f00000000000000000000000000000000000000000000000000000000000000006001600160a01b031663a9059cbb7f00000000000000000000000000000000000000000000000000000000000000006001600160a01b031663469048406040518163ffffffff1660e01b8152600401602060405180830381865afa158015610d86573d6000803e3d6000fd5b505050506040513d601f19601f82011682018060405250810190610daa9190614ade565b6040516001600160e01b031960e084901b1681526001600160a01b039091166004820152602481018490526044016020604051808303816000875af1158015610df7573d6000803e3d6000fd5b505050506040513d601f19601f82011682018060405250810190610e1b9190614ac1565b5050505050505050565b60195460009081610e3e670de0b6b3a764000083612c07565b608085015160a086015191925090801580610e57575081155b15610e685750600095945050505050565b6000610e748383612c36565b9050838110158015610e865750848111155b979650505050505050565b6000670de0b6b3a7640000841015610eeb5760405162461bcd60e51b815260206004820152600d60248201527f4f564c56313a6c65763c6d696e000000000000000000000000000000000000006044820152606401610693565b610ef760006005612234565b841115610f465760405162461bcd60e51b815260206004820152600d60248201527f4f564c56313a6c65763e6d6178000000000000000000000000000000000000006044820152606401610693565b610f526000600c612234565b851015610fa15760405162461bcd60e51b815260206004820152601460248201527f4f564c56313a636f6c6c61746572616c3c6d696e0000000000000000000000006044820152606401610693565b6000806000806000610fb1611b3b565b90506000610fbf8b8b612262565b90506000610fcc83612527565b9050610fd88282611937565b96506000871161102a5760405162461bcd60e51b815260206004820152600b60248201527f4f564c56313a6f693d3d300000000000000000000000000000000000000000006044820152606401610693565b6110348c83614a43565b955061104c6110456000600b612234565b8390612262565b9350600061106b611065856105f061042f856004612234565b83611937565b90508a6110865761108184610442868b856126ca565b611095565b61109584610212868b85612601565b95508a6110a557898610156110aa565b898611155b6110eb5760405162461bcd60e51b815260206004820152601260248201527109eac98ac6274e6d8d2e0e0c2ceca7cdac2f60731b6044820152606401610693565b60006110f889838e612c67565b90506000604051806101000160405280866bffffffffffffffffffffffff1681526020018a6bffffffffffffffffffffffff16815260200161113986612d2f565b60020b815260200161114a8a612d2f565b60020b81528e15156020820152600060408201526001600160f01b0384166060820152608001611181670de0b6b3a764000061234c565b61ffff16905290506111df8d6111995760105461119d565b600f545b8e6111aa576012546111ae565b6011545b866111bb60006003612234565b6111c760006008612234565b6111d36000600a612234565b8795949392919061253b565b1561122c5760405162461bcd60e51b815260206004820152601260248201527f4f564c56313a6c6971756964617461626c6500000000000000000000000000006044820152606401610693565b6017549a5061123e6016338d84612a7e565b6017805490600061124e83614afb565b9091555050604080518c8152602081018c90529081018a90528d15156060820152608081018990523396507fb98b46cc473761b09478db481c36070133bf6b7a18241892f5477e725b063b5a955060a00193506112aa92505050565b60405180910390a26001600160a01b037f0000000000000000000000000000000000000000000000000000000000000000166323b872dd33306112ed858e614a2b565b6040516001600160e01b031960e086901b1681526001600160a01b03938416600482015292909116602483015260448201526064016020604051808303816000875af1158015611341573d6000803e3d6000fd5b505050506040513d601f19601f820116820180604052508101906113659190614ac1565b507f00000000000000000000000000000000000000000000000000000000000000006001600160a01b031663a9059cbb7f00000000000000000000000000000000000000000000000000000000000000006001600160a01b031663469048406040518163ffffffff1660e01b8152600401602060405180830381865afa1580156113f3573d6000803e3d6000fd5b505050506040513d601f19601f820116820180604052508101906114179190614ade565b6040516001600160e01b031960e084901b1681526001600160a01b039091166004820152602481018490526044016020604051808303816000875af1158015611464573d6000803e3d6000fd5b505050506040513d601f19601f820116820180604052508101906114889190614ac1565b5050505050949350505050565b336001600160a01b037f000000000000000000000000000000000000000000000000000000000000000016146114ff5760405162461bcd60e51b815260206004820152600f60248201526e4f564c56313a2021666163746f727960881b6044820152606401610693565b60007f00000000000000000000000000000000000000000000000000000000000000006001600160a01b03166352bfe7896040518163ffffffff1660e01b815260040161010060405180830381865afa158015611560573d6000803e3d6000fd5b505050506040513d601f19601f820116820180604052508101906115849190614b16565b9050600061159182612527565b116115cc5760405162461bcd60e51b815260206004820152600b60248201526a4f564c56313a216461746160a81b6044820152606401610693565b4260185560a082015160408301516101008401516101408501516116296116056115fe83670de0b6b3a7640000614a43565b8490612c07565b611610856002614bdc565b61161a9190614a2b565b670de0b6b3a764000090612c07565b8411156116885760405162461bcd60e51b815260206004820152602760248201527f4f564c56313a206d6178206c657620696d6d6564696174656c79206c6971756960448201526664617461626c6560c81b6064820152608401610693565b6101a086015160408601516801158e460913d00000906116a89083614bdc565b106117005760405162461bcd60e51b815260206004820152602260248201527f4f564c56313a2070726963652064726966742065786365656473206d61782065604482015261078760f41b6064820152608401610693565b61170b600d82612dc9565b60005b600f811015610e1b578781600f811061172957611729614bc6565b6020020151600082600f811061174157611741614bc6565b01558061174d81614afb565b91505061170e565b336001600160a01b037f000000000000000000000000000000000000000000000000000000000000000016146117bf5760405162461bcd60e51b815260206004820152600f60248201526e4f564c56313a2021666163746f727960881b6044820152606401610693565b6117c7612e94565b6117d18282612f18565b6117db8282612dc9565b6117e76000838361335d565b5050565b6000806117f9816001612234565b90506118128360c001518261338890919063ffffffff16565b9392505050565b6040805160608101825260155463ffffffff8082168352640100000000820481166020840152600160401b90910460170b92820192909252600091829061186590829060069061223416565b905061187482428360006133a9565b91506118808285612163565b949350505050565b600061189c836060015184608001516128ec565b905060006118ab816002612234565b905060006118ba816001612234565b905060006118c88286612262565b6118d29084614a2b565b90506801158e460913d0000081106119215760405162461bcd60e51b815260206004820152601260248201527109eac98ac6274e6d8d2e0e0c2ceca7cdac2f60731b6044820152606401610693565b6106af61193061161a836122b1565b8590613388565b60006119438383612c07565b90505b92915050565b60008061195a81600e612234565b9050600081670de0b6b3a764000085604001516119779190614bdc565b6119819190614c11565b90506000611990816002612234565b90506119c96119a8670de0b6b3a76400006002614bdc565b6119c3846119c38960c001518661338890919063ffffffff16565b90613388565b95945050505050565b600081600f81106119e257600080fd5b0154905081565b600080806119f78587614a2b565b90506000611a058688614a43565b90506000611a138789612262565b9050821580611a20575081155b15611a3357878794509450505050611b33565b60008087611a418280612234565b611a4c906002614bdc565b611a569190614bdc565b90506801158e460913d00000811015611a7857611a7561161a826122b1565b91505b6000611a848587612c07565b90506000611ab1611a958580613388565b611aa790670de0b6b3a7640000614a43565b6119c38480613388565b611ac390670de0b6b3a7640000614a43565b9050611aec611ae5611ade6002670de0b6b3a7640000614c11565b83906135a6565b8890613388565b9650611af88685613388565b95506002611b068789614a2b565b611b109190614c11565b9b508b15611b2557611b22858d612c36565b9a505b8b8b98509850505050505050505b935093915050565b611b85604051806101000160405280600081526020016000815260200160008152602001600081526020016000815260200160008152602001600081526020016000151581525090565b611b8d612e94565b60007f00000000000000000000000000000000000000000000000000000000000000006001600160a01b03166352bfe7896040518163ffffffff1660e01b815260040161010060405180830381865afa158015611bee573d6000803e3d6000fd5b505050506040513d601f19601f82011682018060405250810190611c129190614b16565b9050611c1d81610e25565b611c575760405162461bcd60e51b815260206004820152600b60248201526a4f564c56313a216461746160a81b6044820152606401610693565b919050565b6000808080808080611c7060168a8a6123ec565b9050611c7b8161250a565b611cb95760405162461bcd60e51b815260206004820152600f60248201526e27ab262b189d10b837b9b4ba34b7b760891b6044820152606401610693565b6000611cc3611b3b565b905060008260800151611cd857601054611cdc565b600f545b905060008360800151611cf157601254611cf5565b6011545b90506000611d04816003612234565b9050670de0b6b3a7640000611d1885612527565b9950611d4584848c85611d2d60006008612234565b611d396000600a612234565b8c95949392919061253b565b611d915760405162461bcd60e51b815260206004820152601360248201527f4f564c56313a216c6971756964617461626c65000000000000000000000000006044820152606401610693565b611d9f868286868e8761278e565b9b50611dab868261289a565b9a50611dc3611dbc6000600a612234565b8d90613388565b9850611dcf898d614a43565b9650611de0611ae560006009612234565b9750611dec8888614a43565b9650856080015115611e3057611e076109df878387876125c4565b600f55611e148682612916565b60116000828254611e259190614a43565b90915550611e639050565b611e3f610a20878387876125c4565b601055611e4c8682612916565b60126000828254611e5d9190614a43565b90915550505b611e7b88611e718d8f614a5a565b610a5a9190614a5a565b50600160a0870152600060c0870181905260e0870152611e9e60168f8f89612a7e565b505050505050876001600160a01b0316336001600160a01b03167ff1deb4d6391f20e8cad919356063127cf8453da1fdf246eb1b5e4549e848112e8985898b611ee79190614a5a565b611ef19190614a5a565b604080519283526020830191909152810188905260600160405180910390a36001600160a01b037f0000000000000000000000000000000000000000000000000000000000000000166342966c6883611f4a8989614a43565b611f549190614a2b565b6040518263ffffffff1660e01b8152600401611f7291815260200190565b600060405180830381600087803b158015611f8c57600080fd5b505af1158015611fa0573d6000803e3d6000fd5b505060405163a9059cbb60e01b8152336004820152602481018690527f00000000000000000000000000000000000000000000000000000000000000006001600160a01b0316925063a9059cbb91506044016020604051808303816000875af1158015612011573d6000803e3d6000fd5b505050506040513d601f19601f820116820180604052508101906120359190614ac1565b507f00000000000000000000000000000000000000000000000000000000000000006001600160a01b031663a9059cbb7f00000000000000000000000000000000000000000000000000000000000000006001600160a01b031663469048406040518163ffffffff1660e01b8152600401602060405180830381865afa1580156120c3573d6000803e3d6000fd5b505050506040513d601f19601f820116820180604052508101906120e79190614ade565b6040516001600160e01b031960e084901b1681526001600160a01b039091166004820152602481018490526044016020604051808303816000875af1158015612134573d6000803e3d6000fd5b505050506040513d601f19601f820116820180604052508101906121589190614ac1565b505050505050505050565b600080612174846040015160170b90565b90506000612183816007612234565b9050808213612196578392505050611946565b6121a1816002614c25565b82126121b257600092505050611946565b60006121be8383612c07565b6121d1670de0b6b3a76400006002614bdc565b6121db9190614a43565b90506106af8582613388565b60008260e00151156122175761220582612200856117eb565b6128ec565b9150612214826122008561194c565b91505b50919050565b60008183101561222d5781611943565b5090919050565b60008282600e81111561224957612249614bb0565b600f811061225957612259614bc6565b01549392505050565b60008061226f8385614bdc565b905080612280576000915050611946565b670de0b6b3a7640000612294600183614a43565b61229e9190614c11565b6122a9906001614a2b565b915050611946565b6000816122c75750670de0b6b3a7640000919050565b600160ff1b821061231a5760405162461bcd60e51b815260206004820152601b60248201527f4669786564506f696e743a2078206f7574206f6620626f756e647300000000006044820152606401610693565b81600061232682613698565b9050600061234061233983612710612262565b6001613a7b565b90506119c98282613a7b565b600080612363612710670de0b6b3a7640000614c11565b905060006123718285614c11565b905061ffff8111156118125760405162461bcd60e51b815260206004820152601e60248201527f4f564c56313a20466978656443617374206f7574206f6620626f756e647300006044820152606401610693565b6000806123dc612710670de0b6b3a7640000614c11565b90506118128161ffff8516614bdc565b60408051610100810182526000808252602080830182905282840182905260608084018390526080840183905260a0840183905260c0840183905260e090930182905283519590921b6bffffffffffffffffffffffff1916858301526034808601949094528251808603909401845260548501808452845194830194909420815294905292839020610154830190935282546bffffffffffffffffffffffff8082168352600160601b8204166074840152600160c01b8104600290810b6094850152600160d81b8204900b60b4840152600160f01b80820460ff908116151560d4860152600160f81b909204909116151560f48401526001909301546001600160f01b0381166101148401529290920461ffff166101349091015290565b60008160a0015115801561194657505060e0015161ffff16151590565b600061194682606001518360800151613a88565b6000670de0b6b3a7640000816125518a83613aa3565b90508960a0015180612569575060e08a015161ffff16155b1561257957600092505050610e86565b60006125898b848c8c8c8c61278e565b905060006125978388612262565b905060006125a58388613388565b90506125b18183614a2b565b9092109c9b505050505050505050505050565b6000806125d18686612916565b90508015806125de575083155b806125e7575082155b156125f6576000915050611880565b6106af818585613ad9565b6040805160608101825260145463ffffffff8082168352640100000000820481166020840152600160401b90910460170b92820192909252600091829061264c9086908690612c3616565b60208701519091506126629083904290846133a9565b8051601480546020840151604085015163ffffffff94851667ffffffffffffffff199093169290921764010000000094909116939093029290921767ffffffffffffffff16600160401b6001600160c01b0384160217905590925060170b9695505050505050565b6040805160608101825260135463ffffffff8082168352640100000000820481166020840152600160401b90910460170b9282019290925260009182906127159086908690612c3616565b602087015190915061272b9083904290846133a9565b8051601380546020840151604085015163ffffffff94851667ffffffffffffffff199093169290921764010000000094909116939093029290921767ffffffffffffffff16600160401b6001600160c01b0384160217905590925060170b6106af565b60008061279b8888613b8c565b905060006127a98989613aa3565b905060006127b78a8a613ba9565b905060006127c78b8b8b8b6125c4565b905060006127d48c613bd6565b90508b6080015115612857576128126127ed838a612262565b6122006128028a670de0b6b3a7640000614a2b565b61280c8686612262565b90612262565b612826866128208786612262565b90612c36565b6128309190614a2b565b955061285061283f8383612262565b6128499085614a2b565b87906128fb565b955061288b565b6128618282612262565b61286f866128208786612262565b6128799190614a2b565b955061288861283f838a612262565b95505b50505050509695505050505050565b6000806128a78484613aa3565b905060006128b58585613ba9565b9050816106af81836128fb565b6000806128d3898989898989613be5565b90506128df8184612262565b9998505050505050505050565b600081831061222d5781611943565b60008082841161290c576000611880565b6118808385614a43565b60008061292d8460c001516001600160f01b031690565b90506118808184613388565b6040805160608101825260155463ffffffff8082168352640100000000820481166020840152600160401b90910460170b92820192909252600091829061298590829060069061223416565b9050612993824283876133a9565b8051601580546020840151604085015163ffffffff94851667ffffffffffffffff199093169290921764010000000094909116939093029290921767ffffffffffffffff16600160401b6001600160c01b0384160217905590925060009060170b6119c9565b6000670de0b6b3a7640000821115612a535760405162461bcd60e51b815260206004820152601260248201527f4f564c56313a6672616374696f6e3e6d617800000000000000000000000000006044820152606401610693565b6000612a73612a6a84670de0b6b3a7640000614a43565b6119c386613c10565b90506118808161234c565b6040516bffffffffffffffffffffffff19606085901b166020820152603481018390528190859060009060540160408051808303601f1901815291815281516020928301208352828201939093529082016000208351815492850151938501516060860151608087015160a08801516bffffffffffffffffffffffff9485167fffffffffffffffff00000000000000000000000000000000000000000000000090971696909617600160601b9490971693909302959095177fffff000000000000ffffffffffffffffffffffffffffffffffffffffffffffff16600160c01b62ffffff928316027fffff000000ffffffffffffffffffffffffffffffffffffffffffffffffffffff1617600160d81b9190951602939093176001600160f01b03908116600160f01b94151585027effffffffffffffffffffffffffffffffffffffffffffffffffffffffffffff1617600160f81b9315159390930292909217815560c084015160e0909401519390911661ffff9093169091029190911760019091015550505050565b600082612c1657506000611946565b6000612c2a670de0b6b3a764000085614bdc565b90506122a98382614c11565b600082612c4557506000611946565b6000612c59670de0b6b3a764000085614bdc565b905082612294600183614a43565b60008082612c7757601054612c7b565b600f545b9050600083612c8c57601254612c90565b6011545b90506000612c9f878484613c23565b9050612cab8784614a2b565b9250612cb78183614a2b565b915085831115612d095760405162461bcd60e51b815260206004820152600c60248201527f4f564c56313a6f693e63617000000000000000000000000000000000000000006044820152606401610693565b8415612d1e57600f83905560118290556106af565b601092909255601255949350505050565b600080612d4483670de111a6b7de4000613c4c565b90506956d225004ee68c3fffff198112158015612d6b575069fe1c215e8f838e0000008113155b612db75760405162461bcd60e51b815260206004820152601960248201527f4f564c56313a207469636b206f7574206f6620626f756e6473000000000000006044820152606401610693565b611812670de0b6b3a764000082614cac565b600d82600e811115612ddd57612ddd614bb0565b14156117e75760007f00000000000000000000000000000000000000000000000000000000000000006001600160a01b03166352bfe7896040518163ffffffff1660e01b815260040161010060405180830381865afa158015612e44573d6000803e3d6000fd5b505050506040513d601f19601f82011682018060405250810190612e689190614b16565b60408101519091508290600090612e7f9083614bdc565b9050612e8a816122b1565b6019555050505050565b600060185442612ea49190614a43565b90508015612f1557601054600f5411600081612ec257601054612ec6565b600f545b9050600082612ed757600f54612edb565b6010545b9050612ee88282866119e9565b909250905082612ef85780612efa565b815b600f5582612f085781612f0a565b805b601055505042601855505b50565b600282600e811115612f2c57612f2c614bb0565b1415612fe757806000612f40816005612234565b90506000612f4f816008612234565b90506000612f5e81600a612234565b9050612f83612f786115fe83670de0b6b3a7640000614a43565b611610866002614bdc565b831115612fe25760405162461bcd60e51b815260206004820152602760248201527f4f564c56313a206d6178206c657620696d6d6564696174656c79206c6971756960448201526664617461626c6560c81b6064820152608401610693565b505050505b600582600e811115612ffb57612ffb614bb0565b14156130ab5780600061300f816002612234565b9050600061301e816008612234565b9050600061302d81600a612234565b90506130476116056115fe83670de0b6b3a7640000614a43565b8411156130a65760405162461bcd60e51b815260206004820152602760248201527f4f564c56313a206d6178206c657620696d6d6564696174656c79206c6971756960448201526664617461626c6560c81b6064820152608401610693565b505050505b600882600e8111156130bf576130bf614bb0565b1415613176578060006130d3816002612234565b905060006130e2816005612234565b905060006130f181600a612234565b905061311261160561310b83670de0b6b3a7640000614a43565b8690612c07565b8211156131715760405162461bcd60e51b815260206004820152602760248201527f4f564c56313a206d6178206c657620696d6d6564696174656c79206c6971756960448201526664617461626c6560c81b6064820152608401610693565b505050505b600a82600e81111561318a5761318a614bb0565b14156132415780600061319e816002612234565b905060006131ad816005612234565b905060006131bc816008612234565b90506131dd6116056131d686670de0b6b3a7640000614a43565b8390612c07565b82111561323c5760405162461bcd60e51b815260206004820152602760248201527f4f564c56313a206d6178206c657620696d6d6564696174656c79206c6971756960448201526664617461626c6560c81b6064820152608401610693565b505050505b600d82600e81111561325557613255614bb0565b14156117e75760007f00000000000000000000000000000000000000000000000000000000000000006001600160a01b03166352bfe7896040518163ffffffff1660e01b815260040161010060405180830381865afa1580156132bc573d6000803e3d6000fd5b505050506040513d601f19601f820116820180604052508101906132e09190614b16565b604081015190915082906801158e460913d00000906132ff9083614bdc565b106133575760405162461bcd60e51b815260206004820152602260248201527f4f564c56313a2070726963652064726966742065786365656473206d61782065604482015261078760f41b6064820152608401610693565b50505050565b808383600e81111561337157613371614bb0565b600f811061338157613381614bc6565b0155505050565b6000806133958385614bdc565b9050611880670de0b6b3a764000082614c11565b6040805160608101825260008082526020820181905291810182905285519091859163ffffffff908116908316101561340757865163ffffffff908116906133f8908416640100000000614a2b565b6134029190614a43565b61341a565b86516134139083614cda565b63ffffffff165b602088015190915063ffffffff166000613438896040015160170b90565b90508183101580613447575081155b156134915760405180606001604052808563ffffffff16815260200161346c89613d5b565b63ffffffff16815260200161348088613d74565b60170b815250945050505050611880565b8161349c8482614a43565b6134a69083614c25565b6134b09190614cac565b905060006134be8783614cf7565b9050806135025760405180606001604052808663ffffffff1681526020016134e58a613d5b565b63ffffffff16815260006020909101529550611880945050505050565b600061350d83613dfb565b9050600061351a89613dfb565b905060006135288284614a2b565b6135328c84614bdc565b61353c8989614a43565b6135469086614bdc565b6135509190614a2b565b61355a9190614c11565b905060405180606001604052808963ffffffff16815260200161357c83613d5b565b63ffffffff16815260200161359086613d74565b60170b90529d9c50505050505050505050505050565b60008115806135bc5750670de0b6b3a764000083145b156135d05750670de0b6b3a7640000611946565b826135dd57506000611946565b670de0b6b3a76400008214156135f4575081611946565b613607670de0b6b3a76400006002614bdc565b82141561361f576136188384613388565b9050611946565b613632670de0b6b3a76400006004614bdc565b8214156136515760006136458485613388565b90506122a98182613388565b600061365d8484613e12565b9050600061367061233983612710612262565b90508082101561368557600092505050611946565b61368f8282613f13565b92505050611946565b60006136c7680238fd42c5cf03ffff1983121580156136c0575068070c1cc73b00c800008313155b6009613f20565b6000821215613700576136dc82600003613698565b6ec097ce7bc90715b34b9f1000000000816136f9576136f9614bfb565b0592915050565b60006806f05b59d3b2000000831261374057506806f05b59d3b1ffffff1990910190770195e54c5dd42177f53a27172fa9ec630262827000000000613776565b6803782dace9d9000000831261377257506803782dace9d8ffffff19909101906b1425982cf597cd205cef7380613776565b5060015b6064929092029168056bc75e2d6310000068ad78ebc5ac6200000084126137c65768ad78ebc5ac61ffffff199093019268056bc75e2d631000006e01855144814a7ff805980ff008400082020590505b6856bc75e2d6310000008412613802576856bc75e2d630ffffff199093019268056bc75e2d631000006b02df0ab5a80a22c61ab5a70082020590505b682b5e3af16b18800000841261383c57682b5e3af16b187fffff199093019268056bc75e2d63100000693f1fce3da636ea5cf85082020590505b6815af1d78b58c4000008412613876576815af1d78b58c3fffff199093019268056bc75e2d63100000690127fa27722cc06cc5e282020590505b680ad78ebc5ac620000084126138af57680ad78ebc5ac61fffff199093019268056bc75e2d6310000068280e60114edb805d0382020590505b68056bc75e2d6310000084126138e85768056bc75e2d630fffff199093019268056bc75e2d63100000680ebc5fb4174612111082020590505b6802b5e3af16b18800008412613921576802b5e3af16b187ffff199093019268056bc75e2d631000006808f00f760a4b2db55d82020590505b68015af1d78b58c40000841261395a5768015af1d78b58c3ffff199093019268056bc75e2d631000006806f5f177578893793782020590505b68056bc75e2d631000008481019085906002908280020505918201919050600368056bc75e2d631000008783020505918201919050600468056bc75e2d631000008783020505918201919050600568056bc75e2d631000008783020505918201919050600668056bc75e2d631000008783020505918201919050600768056bc75e2d631000008783020505918201919050600868056bc75e2d631000008783020505918201919050600968056bc75e2d631000008783020505918201919050600a68056bc75e2d631000008783020505918201919050600b68056bc75e2d631000008783020505918201919050600c68056bc75e2d631000008783020505918201919050606468056bc75e2d63100000848402058502059695505050505050565b6000806118808385614a2b565b6000613a976002848418614c11565b61194390848416614a2b565b600080613aaf84613c10565b90506000613acd8261280c87516bffffffffffffffffffffffff1690565b90506119c98185612262565b600080806000198587098587029250828110838203039150508060001415613b135760008411613b0857600080fd5b508290049050611812565b808411613b1f57600080fd5b6000848688096000868103871696879004966002600389028118808a02820302808a02820302808a02820302808a02820302808a02820302808a02909103029181900381900460010186841190950394909402919094039290920491909117919091029150509392505050565b600080613b9884613c10565b90506000613acd8261280c87613f2e565b600080613bb584613c10565b90506000613acd8261280c87602001516bffffffffffffffffffffffff1690565b60006119468260600151613f60565b600080613bf688888888888861278e565b90506000613c048989613ba9565b90506128df8183614a2b565b60006119468260e0015161ffff166123c5565b6000821580613c30575081155b613c4457613c3f848385613ad9565b611880565b509192915050565b60008083118015613c605750600160ff1b83105b613cac5760405162461bcd60e51b815260206004820152601b60248201527f4669786564506f696e743a2061206f7574206f6620626f756e647300000000006044820152606401610693565b600082118015613cbf5750600160ff1b82105b613d0b5760405162461bcd60e51b815260206004820152601b60248201527f4669786564506f696e743a2062206f7574206f6620626f756e647300000000006044820152606401610693565b82826000613d198383614029565b9050600080821215613d2e5781600003613d30565b815b90506000613d4361233983612710612262565b9050613d4f8184614a5a565b98975050505050505050565b60008063ffffffff83111561222d5763ffffffff611812565b600080777fffffffffffffffffffffffffffffffffffffffffffffff198312613dda57777fffffffffffffffffffffffffffffffffffffffffffffff8313613dbc5782611812565b777fffffffffffffffffffffffffffffffffffffffffffffff611812565b777fffffffffffffffffffffffffffffffffffffffffffffff199392505050565b600080821215613e0e5781600003611946565b5090565b600081613e285750670de0b6b3a7640000611946565b82613e3557506000611946565b613e46600160ff1b84106006613f20565b82613e6c770bce5086492111aea88f4bb1ca6bcf584181ea8059f7653284106007613f20565b826000670c7d713b49da000083138015613e8d5750670f43fc2c04ee000083125b15613ec4576000613e9d846140e3565b9050670de0b6b3a764000080820784020583670de0b6b3a764000083050201915050613ed2565b81613ece8461420b565b0290505b670de0b6b3a76400009005613f0a680238fd42c5cf03ffff198212801590613f03575068070c1cc73b00c800008213155b6008613f20565b6106af81613698565b6000806118808385614a43565b816117e7576117e7816145b6565b600080613f4783516bffffffffffffffffffffffff1690565b90506000613f5484614609565b90506118808282612c07565b600080613f79670de0b6b3a7640000600285900b614c25565b90506956d225004ee68c3fffff198112158015613fa0575069fe1c215e8f838e0000008113155b613fec5760405162461bcd60e51b815260206004820152601960248201527f4f564c56313a207469636b206f7574206f6620626f756e6473000000000000006044820152606401610693565b6000613ff782613dfb565b9050600082121561401757613c3f61161a670de111a6b7de400083614618565b611880670de111a6b7de4000826135a6565b600080670c7d713b49da00008313801561404a5750670f43fc2c04ee000083125b1561405f57614058836140e3565b9050614075565b670de0b6b3a76400006140718461420b565b0290505b6000670c7d713b49da0000851380156140955750670f43fc2c04ee000085125b156140aa576140a3856140e3565b90506140c0565b670de0b6b3a76400006140bc8661420b565b0290505b81670de0b6b3a76400008202816140d9576140d9614bfb565b0595945050505050565b670de0b6b3a7640000026000806ec097ce7bc90715b34b9f1000000000808401906ec097ce7bc90715b34b9f0fffffffff198501028161412557614125614bfb565b05905060006ec097ce7bc90715b34b9f100000000082800205905081806ec097ce7bc90715b34b9f100000000081840205915060038205016ec097ce7bc90715b34b9f100000000082840205915060058205016ec097ce7bc90715b34b9f100000000082840205915060078205016ec097ce7bc90715b34b9f100000000082840205915060098205016ec097ce7bc90715b34b9f1000000000828402059150600b8205016ec097ce7bc90715b34b9f1000000000828402059150600d8205016ec097ce7bc90715b34b9f1000000000828402059150600f82050160020295945050505050565b6000670de0b6b3a764000082121561424d57614244826ec097ce7bc90715b34b9f10000000008161423e5761423e614bfb565b0561420b565b60000392915050565b60007e1600ef3172e58d2e933ec884fde10064c63b5372d805e203c0000000000000831261429e57770195e54c5dd42177f53a27172fa9ec630262827000000000830592506806f05b59d3b2000000015b73011798004d755d3c8bc8e03204cf44619e00000083126142d6576b1425982cf597cd205cef7380830592506803782dace9d9000000015b606492830292026e01855144814a7ff805980ff0084000831261431e576e01855144814a7ff805980ff008400068056bc75e2d63100000840205925068ad78ebc5ac62000000015b6b02df0ab5a80a22c61ab5a7008312614359576b02df0ab5a80a22c61ab5a70068056bc75e2d6310000084020592506856bc75e2d631000000015b693f1fce3da636ea5cf850831261439057693f1fce3da636ea5cf85068056bc75e2d631000008402059250682b5e3af16b18800000015b690127fa27722cc06cc5e283126143c757690127fa27722cc06cc5e268056bc75e2d6310000084020592506815af1d78b58c400000015b68280e60114edb805d0383126143fc5768280e60114edb805d0368056bc75e2d631000008402059250680ad78ebc5ac6200000015b680ebc5fb41746121110831261442757680ebc5fb4174612111068056bc75e2d631000009384020592015b6808f00f760a4b2db55d831261445c576808f00f760a4b2db55d68056bc75e2d6310000084020592506802b5e3af16b1880000015b6806f5f17757889379378312614491576806f5f177578893793768056bc75e2d63100000840205925068015af1d78b58c40000015b6806248f33704b28660383126144c5576806248f33704b28660368056bc75e2d63100000840205925067ad78ebc5ac620000015b6805c548670b9510e7ac83126144f9576805c548670b9510e7ac68056bc75e2d6310000084020592506756bc75e2d6310000015b600068056bc75e2d63100000840168056bc75e2d63100000808603028161452257614522614bfb565b059050600068056bc75e2d63100000828002059050818068056bc75e2d63100000818402059150600382050168056bc75e2d63100000828402059150600582050168056bc75e2d63100000828402059150600782050168056bc75e2d63100000828402059150600982050168056bc75e2d63100000828402059150600b820501600202606485820105979650505050505050565b62461bcd60e51b6000908152602060045260076024526642414c23000030600a808404818106603090810160081b95839006959095019082900491820690940160101b939093010160c81b604452606490fd5b60006119468260400151613f60565b600081158061462e5750670de0b6b3a764000083145b156146425750670de0b6b3a7640000611946565b8261464f57506000611946565b670de0b6b3a7640000821415614666575081611946565b614679670de0b6b3a76400006002614bdc565b82141561468a576136188384612262565b61469d670de0b6b3a76400006004614bdc565b8214156146bc5760006146b08485612262565b90506122a98182612262565b60006146c88484613e12565b905060006146db61233983612710612262565b905061368f8282613a7b565b634e487b7160e01b600052604160045260246000fd5b8015158114612f1557600080fd5b600061010080838503121561471f57600080fd5b6040519081019067ffffffffffffffff82118183101715614742576147426146e7565b81604052809250833581526020840135602082015260408401356040820152606084013560608201526080840135608082015260a084013560a082015260c084013560c082015260e08401359150614799826146fd565b60e0015292915050565b60008061012083850312156147b757600080fd5b6147c1848461470b565b94610100939093013593505050565b6000806000606084860312156147e557600080fd5b505081359360208301359350604090920135919050565b60006020828403121561480e57600080fd5b5035919050565b6000610100828403121561482857600080fd5b611943838361470b565b6000806000806080858703121561484857600080fd5b84359350602085013592506040850135614861816146fd565b9396929550929360600135925050565b60006101e080838503121561488557600080fd5b83601f84011261489457600080fd5b60405181810181811067ffffffffffffffff821117156148b6576148b66146e7565b6040529083019080858311156148cb57600080fd5b845b838110156148e55780358252602091820191016148cd565b509095945050505050565b6000806040838503121561490357600080fd5b8235600f811061491257600080fd5b946020939093013593505050565b6000806040838503121561493357600080fd5b50508035926020909101359150565b6001600160a01b0381168114612f1557600080fd5b6000806040838503121561496a57600080fd5b823561491281614942565b803563ffffffff81168114611c5757600080fd5b600080828403608081121561499d57600080fd5b60608112156149ab57600080fd5b506040516060810181811067ffffffffffffffff821117156149cf576149cf6146e7565b6040526149db84614975565b81526149e960208501614975565b602082015260408401358060170b8114614a0257600080fd5b6040820152946060939093013593505050565b634e487b7160e01b600052601160045260246000fd5b60008219821115614a3e57614a3e614a15565b500190565b600082821015614a5557614a55614a15565b500390565b60008083128015600160ff1b850184121615614a7857614a78614a15565b836001600160ff1b03018313811615614a9357614a93614a15565b50500390565b60006001600160f01b0383811690831681811015614ab957614ab9614a15565b039392505050565b600060208284031215614ad357600080fd5b8151611812816146fd565b600060208284031215614af057600080fd5b815161181281614942565b6000600019821415614b0f57614b0f614a15565b5060010190565b6000610100808385031215614b2a57600080fd5b6040519081019067ffffffffffffffff82118183101715614b4d57614b4d6146e7565b81604052835181526020840151602082015260408401516040820152606084015160608201526080840151608082015260a084015160a082015260c084015160c082015260e08401519150614ba1826146fd565b60e08101919091529392505050565b634e487b7160e01b600052602160045260246000fd5b634e487b7160e01b600052603260045260246000fd5b6000816000190483118215151615614bf657614bf6614a15565b500290565b634e487b7160e01b600052601260045260246000fd5b600082614c2057614c20614bfb565b500490565b60006001600160ff1b03600084136000841385830485118282161615614c4d57614c4d614a15565b600160ff1b6000871282811687830589121615614c6c57614c6c614a15565b60008712925087820587128484161615614c8857614c88614a15565b87850587128184161615614c9e57614c9e614a15565b505050929093029392505050565b600082614cbb57614cbb614bfb565b600160ff1b821460001984141615614cd557614cd5614a15565b500590565b600063ffffffff83811690831681811015614ab957614ab9614a15565b6000808212826001600160ff1b0303841381151615614d1857614d18614a15565b600160ff1b8390038412811615614d3157614d31614a15565b5050019056fea26469706673582212200021b79928c10c5dd53212990e858c1599d9ac0b76e0ea9db085df1df96072be64736f6c634300080a0033a26469706673582212201586bf595963ecf6883223b8f92a6ea9fc000d3627c04666d7f3d1004f87061164736f6c634300080a0033",
  "bytecodeSha1": "6d982b9156b0bfa70b827c7498c3eecc167b1a87",
  "compiler": {
    "evm_version": "istanbul",
    "optimizer": {
      "enabled": true,
      "runs": 800
    },
    "version": "0.8.10+commit.fc410830"
  },
  "contractName": "OverlayV1Factory",
  "language": "Solidity",
  "natspec": {
    "kind": "dev",
    "methods": {
      "addFeedFactory(address)": {
        "details": "adds a supported feed factory"
      },
      "deployMarket(address,address,uint256[15])": {
        "details": "deploys a new market contract",
        "returns": {
          "market_": "address of the new market"
        }
      },
      "setFeeRecipient(address)": {
        "notice": "Setter for fee repository"
      },
      "setRiskParam(address,uint8,uint256)": {
        "notice": "Setter for per-market risk parameters adjustable by governance"
      }
    },
    "version": 1
  },
  "opcodes": "PUSH1 0x80 PUSH1 0x40 MSTORE CALLVALUE DUP1 ISZERO PUSH2 0x10 JUMPI PUSH1 0x0 DUP1 REVERT JUMPDEST POP PUSH1 0x4 CALLDATASIZE LT PUSH2 0xD4 JUMPI PUSH1 0x0 CALLDATALOAD PUSH1 0xE0 SHR DUP1 PUSH4 0xCEB2B09E GT PUSH2 0x81 JUMPI DUP1 PUSH4 0xD613EFA2 GT PUSH2 0x5B JUMPI DUP1 PUSH4 0xD613EFA2 EQ PUSH2 0x20E JUMPI DUP1 PUSH4 0xD9F4D29E EQ PUSH2 0x221 JUMPI DUP1 PUSH4 0xE74B981B EQ PUSH2 0x244 JUMPI PUSH1 0x0 DUP1 REVERT JUMPDEST DUP1 PUSH4 0xCEB2B09E EQ PUSH2 0x1AC JUMPI DUP1 PUSH4 0xD4DFADBF EQ PUSH2 0x1BF JUMPI DUP1 PUSH4 0xD5F39488 EQ PUSH2 0x1E7 JUMPI PUSH1 0x0 DUP1 REVERT JUMPDEST DUP1 PUSH4 0x6EC934DA GT PUSH2 0xB2 JUMPI DUP1 PUSH4 0x6EC934DA EQ PUSH2 0x13F JUMPI DUP1 PUSH4 0xABA3A175 EQ PUSH2 0x172 JUMPI DUP1 PUSH4 0xB29FA9C3 EQ PUSH2 0x185 JUMPI PUSH1 0x0 DUP1 REVERT JUMPDEST DUP1 PUSH4 0x167B9F02 EQ PUSH2 0xD9 JUMPI DUP1 PUSH4 0x46904840 EQ PUSH2 0xFF JUMPI DUP1 PUSH4 0x6588CEEE EQ PUSH2 0x12A JUMPI JUMPDEST PUSH1 0x0 DUP1 REVERT JUMPDEST PUSH2 0xEC PUSH2 0xE7 CALLDATASIZE PUSH1 0x4 PUSH2 0xE37 JUMP JUMPDEST PUSH2 0x257 JUMP JUMPDEST PUSH1 0x40 MLOAD SWAP1 DUP2 MSTORE PUSH1 0x20 ADD JUMPDEST PUSH1 0x40 MLOAD DUP1 SWAP2 SUB SWAP1 RETURN JUMPDEST PUSH1 0x1E SLOAD PUSH2 0x112 SWAP1 PUSH1 0x1 PUSH1 0x1 PUSH1 0xA0 SHL SUB AND DUP2 JUMP JUMPDEST PUSH1 0x40 MLOAD PUSH1 0x1 PUSH1 0x1 PUSH1 0xA0 SHL SUB SWAP1 SWAP2 AND DUP2 MSTORE PUSH1 0x20 ADD PUSH2 0xF6 JUMP JUMPDEST PUSH2 0x13D PUSH2 0x138 CALLDATASIZE PUSH1 0x4 PUSH2 0xE68 JUMP JUMPDEST PUSH2 0x26E JUMP JUMPDEST STOP JUMPDEST PUSH2 0x162 PUSH2 0x14D CALLDATASIZE PUSH1 0x4 PUSH2 0xE68 JUMP JUMPDEST PUSH1 0x21 PUSH1 0x20 MSTORE PUSH1 0x0 SWAP1 DUP2 MSTORE PUSH1 0x40 SWAP1 KECCAK256 SLOAD PUSH1 0xFF AND DUP2 JUMP JUMPDEST PUSH1 0x40 MLOAD SWAP1 ISZERO ISZERO DUP2 MSTORE PUSH1 0x20 ADD PUSH2 0xF6 JUMP JUMPDEST PUSH2 0x13D PUSH2 0x180 CALLDATASIZE PUSH1 0x4 PUSH2 0xE8C JUMP JUMPDEST PUSH2 0x44C JUMP JUMPDEST PUSH2 0x112 PUSH32 0x0 DUP2 JUMP JUMPDEST PUSH2 0xEC PUSH2 0x1BA CALLDATASIZE PUSH1 0x4 PUSH2 0xE37 JUMP JUMPDEST PUSH2 0x60A JUMP JUMPDEST PUSH2 0x112 PUSH2 0x1CD CALLDATASIZE PUSH1 0x4 PUSH2 0xE68 JUMP JUMPDEST PUSH1 0x20 DUP1 MSTORE PUSH1 0x0 SWAP1 DUP2 MSTORE PUSH1 0x40 SWAP1 KECCAK256 SLOAD PUSH1 0x1 PUSH1 0x1 PUSH1 0xA0 SHL SUB AND DUP2 JUMP JUMPDEST PUSH2 0x112 PUSH32 0x0 DUP2 JUMP JUMPDEST PUSH2 0x112 PUSH2 0x21C CALLDATASIZE PUSH1 0x4 PUSH2 0xED1 JUMP JUMPDEST PUSH2 0x61A JUMP JUMPDEST PUSH2 0x162 PUSH2 0x22F CALLDATASIZE PUSH1 0x4 PUSH2 0xE68 JUMP JUMPDEST PUSH1 0x1F PUSH1 0x20 MSTORE PUSH1 0x0 SWAP1 DUP2 MSTORE PUSH1 0x40 SWAP1 KECCAK256 SLOAD PUSH1 0xFF AND DUP2 JUMP JUMPDEST PUSH2 0x13D PUSH2 0x252 CALLDATASIZE PUSH1 0x4 PUSH2 0xE68 JUMP JUMPDEST PUSH2 0x9DC JUMP JUMPDEST PUSH1 0xF DUP2 PUSH1 0xF DUP2 LT PUSH2 0x267 JUMPI PUSH1 0x0 DUP1 REVERT JUMPDEST ADD SLOAD SWAP1 POP DUP2 JUMP JUMPDEST PUSH1 0x40 MLOAD PUSH4 0x24745215 PUSH1 0xE2 SHL DUP2 MSTORE PUSH32 0x1A6838EFA4183E08FE3607359D1259272AF9D4716F65E1A7B5921F78FD5A3C6A PUSH1 0x4 DUP3 ADD MSTORE CALLER PUSH1 0x24 DUP3 ADD MSTORE PUSH32 0x0 PUSH1 0x1 PUSH1 0x1 PUSH1 0xA0 SHL SUB AND SWAP1 PUSH4 0x91D14854 SWAP1 PUSH1 0x44 ADD PUSH1 0x20 PUSH1 0x40 MLOAD DUP1 DUP4 SUB DUP2 DUP7 GAS STATICCALL ISZERO DUP1 ISZERO PUSH2 0x2F8 JUMPI RETURNDATASIZE PUSH1 0x0 DUP1 RETURNDATACOPY RETURNDATASIZE PUSH1 0x0 REVERT JUMPDEST POP POP POP POP PUSH1 0x40 MLOAD RETURNDATASIZE PUSH1 0x1F NOT PUSH1 0x1F DUP3 ADD AND DUP3 ADD DUP1 PUSH1 0x40 MSTORE POP DUP2 ADD SWAP1 PUSH2 0x31C SWAP2 SWAP1 PUSH2 0xF22 JUMP JUMPDEST PUSH2 0x360 JUMPI PUSH1 0x40 MLOAD PUSH3 0x461BCD PUSH1 0xE5 SHL DUP2 MSTORE PUSH1 0x20 PUSH1 0x4 DUP3 ADD MSTORE PUSH1 0x10 PUSH1 0x24 DUP3 ADD MSTORE PUSH16 0x27AB262B189D1010B3B7BB32B93737B9 PUSH1 0x81 SHL PUSH1 0x44 DUP3 ADD MSTORE PUSH1 0x64 ADD JUMPDEST PUSH1 0x40 MLOAD DUP1 SWAP2 SUB SWAP1 REVERT JUMPDEST PUSH1 0x1 PUSH1 0x1 PUSH1 0xA0 SHL SUB DUP2 AND PUSH1 0x0 SWAP1 DUP2 MSTORE PUSH1 0x1F PUSH1 0x20 MSTORE PUSH1 0x40 SWAP1 KECCAK256 SLOAD PUSH1 0xFF AND ISZERO PUSH2 0x3EF JUMPI PUSH1 0x40 MLOAD PUSH3 0x461BCD PUSH1 0xE5 SHL DUP2 MSTORE PUSH1 0x20 PUSH1 0x4 DUP3 ADD MSTORE PUSH1 0x25 PUSH1 0x24 DUP3 ADD MSTORE PUSH32 0x4F564C56313A206665656420666163746F727920616C72656164792073757070 PUSH1 0x44 DUP3 ADD MSTORE PUSH32 0x6F72746564000000000000000000000000000000000000000000000000000000 PUSH1 0x64 DUP3 ADD MSTORE PUSH1 0x84 ADD PUSH2 0x357 JUMP JUMPDEST PUSH1 0x1 PUSH1 0x1 PUSH1 0xA0 SHL SUB DUP2 AND PUSH1 0x0 DUP2 DUP2 MSTORE PUSH1 0x1F PUSH1 0x20 SWAP1 DUP2 MSTORE PUSH1 0x40 SWAP2 DUP3 SWAP1 KECCAK256 DUP1 SLOAD PUSH1 0xFF NOT AND PUSH1 0x1 OR SWAP1 SSTORE SWAP1 MLOAD SWAP2 DUP3 MSTORE CALLER SWAP2 PUSH32 0xD03181F34238C7B31CD72984BCD778FB418E907CB080BEBFF1E90C75B70DB461 SWAP2 ADD JUMPDEST PUSH1 0x40 MLOAD DUP1 SWAP2 SUB SWAP1 LOG2 POP JUMP JUMPDEST PUSH1 0x40 MLOAD PUSH4 0x24745215 PUSH1 0xE2 SHL DUP2 MSTORE PUSH32 0x1A6838EFA4183E08FE3607359D1259272AF9D4716F65E1A7B5921F78FD5A3C6A PUSH1 0x4 DUP3 ADD MSTORE CALLER PUSH1 0x24 DUP3 ADD MSTORE PUSH32 0x0 PUSH1 0x1 PUSH1 0x1 PUSH1 0xA0 SHL SUB AND SWAP1 PUSH4 0x91D14854 SWAP1 PUSH1 0x44 ADD PUSH1 0x20 PUSH1 0x40 MLOAD DUP1 DUP4 SUB DUP2 DUP7 GAS STATICCALL ISZERO DUP1 ISZERO PUSH2 0x4D6 JUMPI RETURNDATASIZE PUSH1 0x0 DUP1 RETURNDATACOPY RETURNDATASIZE PUSH1 0x0 REVERT JUMPDEST POP POP POP POP PUSH1 0x40 MLOAD RETURNDATASIZE PUSH1 0x1F NOT PUSH1 0x1F DUP3 ADD AND DUP3 ADD DUP1 PUSH1 0x40 MSTORE POP DUP2 ADD SWAP1 PUSH2 0x4FA SWAP2 SWAP1 PUSH2 0xF22 JUMP JUMPDEST PUSH2 0x539 JUMPI PUSH1 0x40 MLOAD PUSH3 0x461BCD PUSH1 0xE5 SHL DUP2 MSTORE PUSH1 0x20 PUSH1 0x4 DUP3 ADD MSTORE PUSH1 0x10 PUSH1 0x24 DUP3 ADD MSTORE PUSH16 0x27AB262B189D1010B3B7BB32B93737B9 PUSH1 0x81 SHL PUSH1 0x44 DUP3 ADD MSTORE PUSH1 0x64 ADD PUSH2 0x357 JUMP JUMPDEST PUSH2 0x543 DUP3 DUP3 PUSH2 0xBA2 JUMP JUMPDEST PUSH1 0x1 PUSH1 0x1 PUSH1 0xA0 SHL SUB DUP1 DUP5 AND PUSH1 0x0 SWAP1 DUP2 MSTORE PUSH1 0x20 DUP1 MSTORE PUSH1 0x40 SWAP1 DUP2 SWAP1 KECCAK256 SLOAD SWAP1 MLOAD PUSH4 0xC81A185 PUSH1 0xE3 SHL DUP2 MSTORE SWAP2 AND SWAP1 DUP2 SWAP1 PUSH4 0x640D0C28 SWAP1 PUSH2 0x585 SWAP1 DUP7 SWAP1 DUP7 SWAP1 PUSH1 0x4 ADD PUSH2 0xF5A JUMP JUMPDEST PUSH1 0x0 PUSH1 0x40 MLOAD DUP1 DUP4 SUB DUP2 PUSH1 0x0 DUP8 DUP1 EXTCODESIZE ISZERO DUP1 ISZERO PUSH2 0x59F JUMPI PUSH1 0x0 DUP1 REVERT JUMPDEST POP GAS CALL ISZERO DUP1 ISZERO PUSH2 0x5B3 JUMPI RETURNDATASIZE PUSH1 0x0 DUP1 RETURNDATACOPY RETURNDATASIZE PUSH1 0x0 REVERT JUMPDEST POP POP POP POP DUP1 PUSH1 0x1 PUSH1 0x1 PUSH1 0xA0 SHL SUB AND CALLER PUSH1 0x1 PUSH1 0x1 PUSH1 0xA0 SHL SUB AND PUSH32 0xF0AC4A9433E75C2D3396F101F9CF8CE159232A6FD751A08A57C0E25C5D1D68C6 DUP6 DUP6 PUSH1 0x40 MLOAD PUSH2 0x5FC SWAP3 SWAP2 SWAP1 PUSH2 0xF5A JUMP JUMPDEST PUSH1 0x40 MLOAD DUP1 SWAP2 SUB SWAP1 LOG3 POP POP POP POP JUMP JUMPDEST PUSH1 0x0 DUP2 PUSH1 0xF DUP2 LT PUSH2 0x267 JUMPI PUSH1 0x0 DUP1 REVERT JUMPDEST PUSH1 0x40 MLOAD PUSH4 0x24745215 PUSH1 0xE2 SHL DUP2 MSTORE PUSH32 0x1A6838EFA4183E08FE3607359D1259272AF9D4716F65E1A7B5921F78FD5A3C6A PUSH1 0x4 DUP3 ADD MSTORE CALLER PUSH1 0x24 DUP3 ADD MSTORE PUSH1 0x0 SWAP1 PUSH32 0x0 PUSH1 0x1 PUSH1 0x1 PUSH1 0xA0 SHL SUB AND SWAP1 PUSH4 0x91D14854 SWAP1 PUSH1 0x44 ADD PUSH1 0x20 PUSH1 0x40 MLOAD DUP1 DUP4 SUB DUP2 DUP7 GAS STATICCALL ISZERO DUP1 ISZERO PUSH2 0x6A7 JUMPI RETURNDATASIZE PUSH1 0x0 DUP1 RETURNDATACOPY RETURNDATASIZE PUSH1 0x0 REVERT JUMPDEST POP POP POP POP PUSH1 0x40 MLOAD RETURNDATASIZE PUSH1 0x1F NOT PUSH1 0x1F DUP3 ADD AND DUP3 ADD DUP1 PUSH1 0x40 MSTORE POP DUP2 ADD SWAP1 PUSH2 0x6CB SWAP2 SWAP1 PUSH2 0xF22 JUMP JUMPDEST PUSH2 0x70A JUMPI PUSH1 0x40 MLOAD PUSH3 0x461BCD PUSH1 0xE5 SHL DUP2 MSTORE PUSH1 0x20 PUSH1 0x4 DUP3 ADD MSTORE PUSH1 0x10 PUSH1 0x24 DUP3 ADD MSTORE PUSH16 0x27AB262B189D1010B3B7BB32B93737B9 PUSH1 0x81 SHL PUSH1 0x44 DUP3 ADD MSTORE PUSH1 0x64 ADD PUSH2 0x357 JUMP JUMPDEST PUSH2 0x714 DUP5 DUP5 PUSH2 0xC21 JUMP JUMPDEST PUSH2 0x71D DUP3 PUSH2 0xDB4 JUMP JUMPDEST PUSH1 0x40 MLOAD PUSH4 0x4C96A389 PUSH1 0xE0 SHL DUP2 MSTORE PUSH1 0x1 PUSH1 0x1 PUSH1 0xA0 SHL SUB DUP5 DUP2 AND PUSH1 0x4 DUP4 ADD MSTORE PUSH32 0x0 AND SWAP1 PUSH4 0x4C96A389 SWAP1 PUSH1 0x24 ADD PUSH1 0x20 PUSH1 0x40 MLOAD DUP1 DUP4 SUB DUP2 PUSH1 0x0 DUP8 GAS CALL ISZERO DUP1 ISZERO PUSH2 0x785 JUMPI RETURNDATASIZE PUSH1 0x0 DUP1 RETURNDATACOPY RETURNDATASIZE PUSH1 0x0 REVERT JUMPDEST POP POP POP POP PUSH1 0x40 MLOAD RETURNDATASIZE PUSH1 0x1F NOT PUSH1 0x1F DUP3 ADD AND DUP3 ADD DUP1 PUSH1 0x40 MSTORE POP DUP2 ADD SWAP1 PUSH2 0x7A9 SWAP2 SWAP1 PUSH2 0xF86 JUMP JUMPDEST PUSH1 0x40 MLOAD PUSH4 0x5AD7226F PUSH1 0xE0 SHL DUP2 MSTORE SWAP1 SWAP2 POP PUSH1 0x1 PUSH1 0x1 PUSH1 0xA0 SHL SUB DUP3 AND SWAP1 PUSH4 0x5AD7226F SWAP1 PUSH2 0x7D8 SWAP1 DUP6 SWAP1 PUSH1 0x4 ADD PUSH2 0xFA3 JUMP JUMPDEST PUSH1 0x0 PUSH1 0x40 MLOAD DUP1 DUP4 SUB DUP2 PUSH1 0x0 DUP8 DUP1 EXTCODESIZE ISZERO DUP1 ISZERO PUSH2 0x7F2 JUMPI PUSH1 0x0 DUP1 REVERT JUMPDEST POP GAS CALL ISZERO DUP1 ISZERO PUSH2 0x806 JUMPI RETURNDATASIZE PUSH1 0x0 DUP1 RETURNDATACOPY RETURNDATASIZE PUSH1 0x0 REVERT JUMPDEST POP POP PUSH1 0x40 MLOAD PUSH4 0x2F2FF15D PUSH1 0xE0 SHL DUP2 MSTORE PUSH32 0xF0887BA65EE2024EA881D91B74C2450EF19E1557F03BED3EA9F16B037CBE2DC9 PUSH1 0x4 DUP3 ADD MSTORE PUSH1 0x1 PUSH1 0x1 PUSH1 0xA0 SHL SUB DUP5 DUP2 AND PUSH1 0x24 DUP4 ADD MSTORE PUSH32 0x0 AND SWAP3 POP PUSH4 0x2F2FF15D SWAP2 POP PUSH1 0x44 ADD PUSH1 0x0 PUSH1 0x40 MLOAD DUP1 DUP4 SUB DUP2 PUSH1 0x0 DUP8 DUP1 EXTCODESIZE ISZERO DUP1 ISZERO PUSH2 0x893 JUMPI PUSH1 0x0 DUP1 REVERT JUMPDEST POP GAS CALL ISZERO DUP1 ISZERO PUSH2 0x8A7 JUMPI RETURNDATASIZE PUSH1 0x0 DUP1 RETURNDATACOPY RETURNDATASIZE PUSH1 0x0 REVERT JUMPDEST POP POP PUSH1 0x40 MLOAD PUSH4 0x2F2FF15D PUSH1 0xE0 SHL DUP2 MSTORE PUSH32 0x9667E80708B6EEEB0053FA0CCA44E028FF548E2A9F029EDFEAC87C118B08B7C8 PUSH1 0x4 DUP3 ADD MSTORE PUSH1 0x1 PUSH1 0x1 PUSH1 0xA0 SHL SUB DUP5 DUP2 AND PUSH1 0x24 DUP4 ADD MSTORE PUSH32 0x0 AND SWAP3 POP PUSH4 0x2F2FF15D SWAP2 POP PUSH1 0x44 ADD PUSH1 0x0 PUSH1 0x40 MLOAD DUP1 DUP4 SUB DUP2 PUSH1 0x0 DUP8 DUP1 EXTCODESIZE ISZERO DUP1 ISZERO PUSH2 0x934 JUMPI PUSH1 0x0 DUP1 REVERT JUMPDEST POP GAS CALL ISZERO DUP1 ISZERO PUSH2 0x948 JUMPI RETURNDATASIZE PUSH1 0x0 DUP1 RETURNDATACOPY RETURNDATASIZE PUSH1 0x0 REVERT JUMPDEST POP POP POP POP PUSH1 0x1 PUSH1 0x1 PUSH1 0xA0 SHL SUB DUP4 DUP2 AND PUSH1 0x0 DUP2 DUP2 MSTORE PUSH1 0x20 DUP1 DUP1 MSTORE PUSH1 0x40 DUP1 DUP4 KECCAK256 DUP1 SLOAD PUSH20 0xFFFFFFFFFFFFFFFFFFFFFFFFFFFFFFFFFFFFFFFF NOT AND SWAP6 DUP8 AND SWAP6 DUP7 OR SWAP1 SSTORE DUP5 DUP4 MSTORE PUSH1 0x21 DUP3 MSTORE SWAP2 DUP3 SWAP1 KECCAK256 DUP1 SLOAD PUSH1 0xFF NOT AND PUSH1 0x1 OR SWAP1 SSTORE DUP2 MLOAD SWAP4 DUP5 MSTORE DUP4 ADD SWAP2 SWAP1 SWAP2 MSTORE CALLER SWAP2 PUSH32 0x495158BF52DADCCD4FFB0DBDA58D95AF1942FD5DAB5713CECC11C009480F8401 SWAP2 ADD PUSH1 0x40 MLOAD DUP1 SWAP2 SUB SWAP1 LOG2 SWAP4 SWAP3 POP POP POP JUMP JUMPDEST PUSH1 0x40 MLOAD PUSH4 0x24745215 PUSH1 0xE2 SHL DUP2 MSTORE PUSH32 0x1A6838EFA4183E08FE3607359D1259272AF9D4716F65E1A7B5921F78FD5A3C6A PUSH1 0x4 DUP3 ADD MSTORE CALLER PUSH1 0x24 DUP3 ADD MSTORE PUSH32 0x0 PUSH1 0x1 PUSH1 0x1 PUSH1 0xA0 SHL SUB AND SWAP1 PUSH4 0x91D14854 SWAP1 PUSH1 0x44 ADD PUSH1 0x20 PUSH1 0x40 MLOAD DUP1 DUP4 SUB DUP2 DUP7 GAS STATICCALL ISZERO DUP1 ISZERO PUSH2 0xA66 JUMPI RETURNDATASIZE PUSH1 0x0 DUP1 RETURNDATACOPY RETURNDATASIZE PUSH1 0x0 REVERT JUMPDEST POP POP POP POP PUSH1 0x40 MLOAD RETURNDATASIZE PUSH1 0x1F NOT PUSH1 0x1F DUP3 ADD AND DUP3 ADD DUP1 PUSH1 0x40 MSTORE POP DUP2 ADD SWAP1 PUSH2 0xA8A SWAP2 SWAP1 PUSH2 0xF22 JUMP JUMPDEST PUSH2 0xAC9 JUMPI PUSH1 0x40 MLOAD PUSH3 0x461BCD PUSH1 0xE5 SHL DUP2 MSTORE PUSH1 0x20 PUSH1 0x4 DUP3 ADD MSTORE PUSH1 0x10 PUSH1 0x24 DUP3 ADD MSTORE PUSH16 0x27AB262B189D1010B3B7BB32B93737B9 PUSH1 0x81 SHL PUSH1 0x44 DUP3 ADD MSTORE PUSH1 0x64 ADD PUSH2 0x357 JUMP JUMPDEST PUSH1 0x1 PUSH1 0x1 PUSH1 0xA0 SHL SUB DUP2 AND PUSH2 0xB45 JUMPI PUSH1 0x40 MLOAD PUSH3 0x461BCD PUSH1 0xE5 SHL DUP2 MSTORE PUSH1 0x20 PUSH1 0x4 DUP3 ADD MSTORE PUSH1 0x2E PUSH1 0x24 DUP3 ADD MSTORE PUSH32 0x4F564C56313A20666565526563697069656E742073686F756C64206E6F742062 PUSH1 0x44 DUP3 ADD MSTORE PUSH32 0x65207A65726F2061646472657373000000000000000000000000000000000000 PUSH1 0x64 DUP3 ADD MSTORE PUSH1 0x84 ADD PUSH2 0x357 JUMP JUMPDEST PUSH1 0x1E DUP1 SLOAD PUSH20 0xFFFFFFFFFFFFFFFFFFFFFFFFFFFFFFFFFFFFFFFF NOT AND PUSH1 0x1 PUSH1 0x1 PUSH1 0xA0 SHL SUB DUP4 AND SWAP1 DUP2 OR SWAP1 SWAP2 SSTORE PUSH1 0x40 MLOAD SWAP1 DUP2 MSTORE CALLER SWAP1 PUSH32 0xAAEBCF1BFA00580E41D966056B48521FA9F202645C86D4DDF28113E617C1B1D3 SWAP1 PUSH1 0x20 ADD PUSH2 0x441 JUMP JUMPDEST PUSH1 0x0 PUSH2 0xBAE DUP2 DUP5 PUSH2 0xE09 JUMP JUMPDEST SWAP1 POP PUSH1 0x0 PUSH2 0xBBD PUSH1 0xF DUP6 PUSH2 0xE09 JUMP JUMPDEST SWAP1 POP DUP2 DUP4 LT ISZERO DUP1 ISZERO PUSH2 0xBCF JUMPI POP DUP1 DUP4 GT ISZERO JUMPDEST PUSH2 0xC1B JUMPI PUSH1 0x40 MLOAD PUSH3 0x461BCD PUSH1 0xE5 SHL DUP2 MSTORE PUSH1 0x20 PUSH1 0x4 DUP3 ADD MSTORE PUSH1 0x1A PUSH1 0x24 DUP3 ADD MSTORE PUSH32 0x4F564C56313A20706172616D206F7574206F6620626F756E6473000000000000 PUSH1 0x44 DUP3 ADD MSTORE PUSH1 0x64 ADD PUSH2 0x357 JUMP JUMPDEST POP POP POP POP JUMP JUMPDEST PUSH1 0x1 PUSH1 0x1 PUSH1 0xA0 SHL SUB DUP2 DUP2 AND PUSH1 0x0 SWAP1 DUP2 MSTORE PUSH1 0x20 DUP1 MSTORE PUSH1 0x40 SWAP1 KECCAK256 SLOAD AND ISZERO PUSH2 0xC88 JUMPI PUSH1 0x40 MLOAD PUSH3 0x461BCD PUSH1 0xE5 SHL DUP2 MSTORE PUSH1 0x20 PUSH1 0x4 DUP3 ADD MSTORE PUSH1 0x1C PUSH1 0x24 DUP3 ADD MSTORE PUSH32 0x4F564C56313A206D61726B657420616C72656164792065786973747300000000 PUSH1 0x44 DUP3 ADD MSTORE PUSH1 0x64 ADD PUSH2 0x357 JUMP JUMPDEST PUSH1 0x1 PUSH1 0x1 PUSH1 0xA0 SHL SUB DUP3 AND PUSH1 0x0 SWAP1 DUP2 MSTORE PUSH1 0x1F PUSH1 0x20 MSTORE PUSH1 0x40 SWAP1 KECCAK256 SLOAD PUSH1 0xFF AND PUSH2 0xCFA JUMPI PUSH1 0x40 MLOAD PUSH3 0x461BCD PUSH1 0xE5 SHL DUP2 MSTORE PUSH1 0x20 PUSH1 0x4 DUP3 ADD MSTORE PUSH1 0x21 PUSH1 0x24 DUP3 ADD MSTORE PUSH32 0x4F564C56313A206665656420666163746F7279206E6F7420737570706F727465 PUSH1 0x44 DUP3 ADD MSTORE PUSH1 0x19 PUSH1 0xFA SHL PUSH1 0x64 DUP3 ADD MSTORE PUSH1 0x84 ADD PUSH2 0x357 JUMP JUMPDEST PUSH1 0x40 MLOAD PUSH4 0x3963F741 PUSH1 0xE2 SHL DUP2 MSTORE PUSH1 0x1 PUSH1 0x1 PUSH1 0xA0 SHL SUB DUP3 DUP2 AND PUSH1 0x4 DUP4 ADD MSTORE DUP4 AND SWAP1 PUSH4 0xE58FDD04 SWAP1 PUSH1 0x24 ADD PUSH1 0x20 PUSH1 0x40 MLOAD DUP1 DUP4 SUB DUP2 DUP7 GAS STATICCALL ISZERO DUP1 ISZERO PUSH2 0xD40 JUMPI RETURNDATASIZE PUSH1 0x0 DUP1 RETURNDATACOPY RETURNDATASIZE PUSH1 0x0 REVERT JUMPDEST POP POP POP POP PUSH1 0x40 MLOAD RETURNDATASIZE PUSH1 0x1F NOT PUSH1 0x1F DUP3 ADD AND DUP3 ADD DUP1 PUSH1 0x40 MSTORE POP DUP2 ADD SWAP1 PUSH2 0xD64 SWAP2 SWAP1 PUSH2 0xF22 JUMP JUMPDEST PUSH2 0xDB0 JUMPI PUSH1 0x40 MLOAD PUSH3 0x461BCD PUSH1 0xE5 SHL DUP2 MSTORE PUSH1 0x20 PUSH1 0x4 DUP3 ADD MSTORE PUSH1 0x1A PUSH1 0x24 DUP3 ADD MSTORE PUSH32 0x4F564C56313A206665656420646F6573206E6F74206578697374000000000000 PUSH1 0x44 DUP3 ADD MSTORE PUSH1 0x64 ADD PUSH2 0x357 JUMP JUMPDEST POP POP JUMP JUMPDEST PUSH1 0xF PUSH1 0x0 JUMPDEST DUP2 DUP2 LT ISZERO PUSH2 0xE04 JUMPI PUSH2 0xDF2 DUP2 PUSH1 0xE DUP2 GT ISZERO PUSH2 0xDD6 JUMPI PUSH2 0xDD6 PUSH2 0xF44 JUMP JUMPDEST DUP5 DUP4 PUSH1 0xF DUP2 LT PUSH2 0xDE8 JUMPI PUSH2 0xDE8 PUSH2 0xFB9 JUMP JUMPDEST PUSH1 0x20 MUL ADD CALLDATALOAD PUSH2 0xBA2 JUMP JUMPDEST DUP1 PUSH2 0xDFC DUP2 PUSH2 0xFCF JUMP JUMPDEST SWAP2 POP POP PUSH2 0xDB9 JUMP JUMPDEST POP POP POP JUMP JUMPDEST PUSH1 0x0 DUP3 DUP3 PUSH1 0xE DUP2 GT ISZERO PUSH2 0xE1E JUMPI PUSH2 0xE1E PUSH2 0xF44 JUMP JUMPDEST PUSH1 0xF DUP2 LT PUSH2 0xE2E JUMPI PUSH2 0xE2E PUSH2 0xFB9 JUMP JUMPDEST ADD SLOAD SWAP4 SWAP3 POP POP POP JUMP JUMPDEST PUSH1 0x0 PUSH1 0x20 DUP3 DUP5 SUB SLT ISZERO PUSH2 0xE49 JUMPI PUSH1 0x0 DUP1 REVERT JUMPDEST POP CALLDATALOAD SWAP2 SWAP1 POP JUMP JUMPDEST PUSH1 0x1 PUSH1 0x1 PUSH1 0xA0 SHL SUB DUP2 AND DUP2 EQ PUSH2 0xE65 JUMPI PUSH1 0x0 DUP1 REVERT JUMPDEST POP JUMP JUMPDEST PUSH1 0x0 PUSH1 0x20 DUP3 DUP5 SUB SLT ISZERO PUSH2 0xE7A JUMPI PUSH1 0x0 DUP1 REVERT JUMPDEST DUP2 CALLDATALOAD PUSH2 0xE85 DUP2 PUSH2 0xE50 JUMP JUMPDEST SWAP4 SWAP3 POP POP POP JUMP JUMPDEST PUSH1 0x0 DUP1 PUSH1 0x0 PUSH1 0x60 DUP5 DUP7 SUB SLT ISZERO PUSH2 0xEA1 JUMPI PUSH1 0x0 DUP1 REVERT JUMPDEST DUP4 CALLDATALOAD PUSH2 0xEAC DUP2 PUSH2 0xE50 JUMP JUMPDEST SWAP3 POP PUSH1 0x20 DUP5 ADD CALLDATALOAD PUSH1 0xF DUP2 LT PUSH2 0xEC0 JUMPI PUSH1 0x0 DUP1 REVERT JUMPDEST SWAP3 SWAP6 SWAP3 SWAP5 POP POP POP PUSH1 0x40 SWAP2 SWAP1 SWAP2 ADD CALLDATALOAD SWAP1 JUMP JUMPDEST PUSH1 0x0 DUP1 PUSH1 0x0 PUSH2 0x220 DUP1 DUP6 DUP8 SUB SLT ISZERO PUSH2 0xEE8 JUMPI PUSH1 0x0 DUP1 REVERT JUMPDEST DUP5 CALLDATALOAD PUSH2 0xEF3 DUP2 PUSH2 0xE50 JUMP JUMPDEST SWAP4 POP PUSH1 0x20 DUP6 ADD CALLDATALOAD PUSH2 0xF03 DUP2 PUSH2 0xE50 JUMP JUMPDEST SWAP3 POP DUP5 DUP2 ADD DUP7 LT ISZERO PUSH2 0xF14 JUMPI PUSH1 0x0 DUP1 REVERT JUMPDEST POP PUSH1 0x40 DUP5 ADD SWAP1 POP SWAP3 POP SWAP3 POP SWAP3 JUMP JUMPDEST PUSH1 0x0 PUSH1 0x20 DUP3 DUP5 SUB SLT ISZERO PUSH2 0xF34 JUMPI PUSH1 0x0 DUP1 REVERT JUMPDEST DUP2 MLOAD DUP1 ISZERO ISZERO DUP2 EQ PUSH2 0xE85 JUMPI PUSH1 0x0 DUP1 REVERT JUMPDEST PUSH4 0x4E487B71 PUSH1 0xE0 SHL PUSH1 0x0 MSTORE PUSH1 0x21 PUSH1 0x4 MSTORE PUSH1 0x24 PUSH1 0x0 REVERT JUMPDEST PUSH1 0x40 DUP2 ADD PUSH1 0xF DUP5 LT PUSH2 0xF7C JUMPI PUSH4 0x4E487B71 PUSH1 0xE0 SHL PUSH1 0x0 MSTORE PUSH1 0x21 PUSH1 0x4 MSTORE PUSH1 0x24 PUSH1 0x0 REVERT JUMPDEST SWAP3 DUP2 MSTORE PUSH1 0x20 ADD MSTORE SWAP1 JUMP JUMPDEST PUSH1 0x0 PUSH1 0x20 DUP3 DUP5 SUB SLT ISZERO PUSH2 0xF98 JUMPI PUSH1 0x0 DUP1 REVERT JUMPDEST DUP2 MLOAD PUSH2 0xE85 DUP2 PUSH2 0xE50 JUMP JUMPDEST PUSH2 0x1E0 DUP2 DUP2 ADD SWAP1 DUP1 DUP5 DUP5 CALLDATACOPY POP PUSH1 0x0 DUP2 MSTORE SWAP3 SWAP2 POP POP JUMP JUMPDEST PUSH4 0x4E487B71 PUSH1 0xE0 SHL PUSH1 0x0 MSTORE PUSH1 0x32 PUSH1 0x4 MSTORE PUSH1 0x24 PUSH1 0x0 REVERT JUMPDEST PUSH1 0x0 PUSH1 0x0 NOT DUP3 EQ ISZERO PUSH2 0xFF1 JUMPI PUSH4 0x4E487B71 PUSH1 0xE0 SHL PUSH1 0x0 MSTORE PUSH1 0x11 PUSH1 0x4 MSTORE PUSH1 0x24 PUSH1 0x0 REVERT JUMPDEST POP PUSH1 0x1 ADD SWAP1 JUMP INVALID LOG2 PUSH5 0x6970667358 0x22 SLT KECCAK256 0xDD 0x2C PUSH4 0xDF685A95 PUSH2 0x5BD2 PUSH1 0xF7 0xDA 0x2F 0xE5 PUSH17 0x97D31E9284AD60010036553684A3E60F64 PUSH20 0x6F6C634300080A00330000000000000000000000 ",
  "sha1": "9177649f3effb10f8cc85e4a8642021264ccd317",
  "source": "// SPDX-License-Identifier: MIT\npragma solidity 0.8.10;\n\nimport \"./interfaces/IOverlayV1Deployer.sol\";\nimport \"./interfaces/IOverlayV1Factory.sol\";\nimport \"./interfaces/IOverlayV1Market.sol\";\nimport \"./interfaces/IOverlayV1Token.sol\";\nimport \"./interfaces/feeds/IOverlayV1FeedFactory.sol\";\n\nimport \"./libraries/Risk.sol\";\n\nimport \"./OverlayV1Deployer.sol\";\n\ncontract OverlayV1Factory is IOverlayV1Factory {\n    using Risk for uint256[15];\n\n    // risk param bounds\n    // NOTE: 1bps = 1e14\n    uint256[15] public PARAMS_MIN = [\n        0.000_004e14, // MIN_K = ~ 0.1 bps / 8 hr\n        0.01e18, // MIN_LMBDA = 0.01\n        1e14, // MIN_DELTA = 0.01% (1 bps)\n        1e18, // MIN_CAP_PAYOFF = 1x\n        0, // MIN_CAP_NOTIONAL = 0 OVL\n        1e18, // MIN_CAP_LEVERAGE = 1x\n        86400, // MIN_CIRCUIT_BREAKER_WINDOW = 1 day\n        0, // MIN_CIRCUIT_BREAKER_MINT_TARGET = 0 OVL\n        0.01e18, // MIN_MAINTENANCE_MARGIN_FRACTION = 1%\n        0.01e18, // MIN_MAINTENANCE_MARGIN_BURN_RATE = 1%\n        0.001e18, // MIN_LIQUIDATION_FEE_RATE = 0.10% (10 bps)\n        1e14, // MIN_TRADING_FEE_RATE = 0.01% (1 bps)\n        0.000_001e18, // MIN_MINIMUM_COLLATERAL = 1e-6 OVL\n        0.01e14, // MIN_PRICE_DRIFT_UPPER_LIMIT = 0.01 bps/s\n        0 // MIN_AVERAGE_BLOCK_TIME = 0s\n    ];\n    uint256[15] public PARAMS_MAX = [\n        0.04e14, // MAX_K = ~ 1000 bps / 8 hr\n        10e18, // MAX_LMBDA = 10\n        200e14, // MAX_DELTA = 2% (200 bps)\n        100e18, // MAX_CAP_PAYOFF = 100x\n        8_000_000e18, // MAX_CAP_NOTIONAL = 8,000,000 OVL (initial supply)\n        20e18, // MAX_CAP_LEVERAGE = 20x\n        31536000, // MAX_CIRCUIT_BREAKER_WINDOW = 365 days\n        8_000_000e18, // MAX_CIRCUIT_BREAKER_MINT_TARGET = 8,000,000 OVL\n        0.2e18, // MAX_MAINTENANCE_MARGIN_FRACTION = 20%\n        0.5e18, // MAX_MAINTENANCE_MARGIN_BURN_RATE = 50%\n        0.2e18, // MAX_LIQUIDATION_FEE_RATE = 20.00% (2000 bps)\n        50e14, // MAX_TRADING_FEE_RATE = 0.50% (50 bps)\n        1e18, // MAX_MINIMUM_COLLATERAL = 1 OVL\n        1e14, // MAX_PRICE_DRIFT_UPPER_LIMIT = 1 bps/s\n        3600 // MAX_AVERAGE_BLOCK_TIME = 1h (arbitrary but large)\n    ];\n\n    // event for risk param updates\n    event ParamUpdated(\n        address indexed user,\n        address indexed market,\n        Risk.Parameters name,\n        uint256 value\n    );\n\n    // ovl token\n    IOverlayV1Token public immutable ovl;\n\n    // market deployer\n    IOverlayV1Deployer public immutable deployer;\n\n    // fee related quantities\n    address public feeRecipient;\n\n    // registry of supported feed factories\n    mapping(address => bool) public isFeedFactory;\n\n    // registry of markets; for a given feed address, returns associated market\n    mapping(address => address) public getMarket;\n\n    // registry of deployed markets by factory\n    mapping(address => bool) public isMarket;\n\n    // events for factory functions\n    event MarketDeployed(address indexed user, address market, address feed);\n    event FeedFactoryAdded(address indexed user, address feedFactory);\n    event FeeRecipientUpdated(address indexed user, address recipient);\n\n    // governor modifier for governance sensitive functions\n    modifier onlyGovernor() {\n        require(ovl.hasRole(GOVERNOR_ROLE, msg.sender), \"OVLV1: !governor\");\n        _;\n    }\n\n    constructor(address _ovl, address _feeRecipient) {\n        // set ovl\n        ovl = IOverlayV1Token(_ovl);\n\n        // set the fee recipient\n        feeRecipient = _feeRecipient;\n\n        // create a new deployer to use when deploying markets\n        deployer = new OverlayV1Deployer(_ovl);\n    }\n\n    /// @dev adds a supported feed factory\n    function addFeedFactory(address feedFactory) external onlyGovernor {\n        require(!isFeedFactory[feedFactory], \"OVLV1: feed factory already supported\");\n        isFeedFactory[feedFactory] = true;\n        emit FeedFactoryAdded(msg.sender, feedFactory);\n    }\n\n    /// @dev deploys a new market contract\n    /// @return market_ address of the new market\n    function deployMarket(\n        address feedFactory,\n        address feed,\n        uint256[15] calldata params\n    ) external onlyGovernor returns (address market_) {\n        // check feed and feed factory are available for a new market\n        _checkFeed(feedFactory, feed);\n\n        // check risk parameters are within bounds\n        _checkRiskParams(params);\n\n        // deploy the new market\n        market_ = deployer.deploy(feed);\n\n        // initialize the new market\n        IOverlayV1Market(market_).initialize(params);\n\n        // grant market mint and burn priveleges on ovl\n        ovl.grantRole(MINTER_ROLE, market_);\n        ovl.grantRole(BURNER_ROLE, market_);\n\n        // store market registry record for given feed\n        // and record address as a deployed market\n        getMarket[feed] = market_;\n        isMarket[market_] = true;\n        emit MarketDeployed(msg.sender, market_, feed);\n    }\n\n    /// @notice checks market doesn't exist on feed and feed is from a supported factory\n    function _checkFeed(address feedFactory, address feed) private {\n        require(getMarket[feed] == address(0), \"OVLV1: market already exists\");\n        require(isFeedFactory[feedFactory], \"OVLV1: feed factory not supported\");\n        require(IOverlayV1FeedFactory(feedFactory).isFeed(feed), \"OVLV1: feed does not exist\");\n    }\n\n    /// @notice Checks all risk params are within acceptable bounds\n    function _checkRiskParams(uint256[15] calldata params) private {\n        uint256 length = params.length;\n        for (uint256 i = 0; i < length; i++) {\n            _checkRiskParam(Risk.Parameters(i), params[i]);\n        }\n    }\n\n    /// @notice Checks risk param is within acceptable bounds\n    function _checkRiskParam(Risk.Parameters name, uint256 value) private {\n        uint256 minValue = PARAMS_MIN.get(name);\n        uint256 maxValue = PARAMS_MAX.get(name);\n        require(value >= minValue && value <= maxValue, \"OVLV1: param out of bounds\");\n    }\n\n    /// @notice Setter for per-market risk parameters adjustable by governance\n    function setRiskParam(\n        address feed,\n        Risk.Parameters name,\n        uint256 value\n    ) external onlyGovernor {\n        _checkRiskParam(name, value);\n        OverlayV1Market market = OverlayV1Market(getMarket[feed]);\n        market.setRiskParam(name, value);\n        emit ParamUpdated(msg.sender, address(market), name, value);\n    }\n\n    /// @notice Setter for fee repository\n    function setFeeRecipient(address _feeRecipient) external onlyGovernor {\n        require(_feeRecipient != address(0), \"OVLV1: feeRecipient should not be zero address\");\n        feeRecipient = _feeRecipient;\n        emit FeeRecipientUpdated(msg.sender, _feeRecipient);\n    }\n}\n",
  "sourcePath": "contracts/OverlayV1Factory.sol",
  "type": "contract"
}