{
  "abi": [
    {
      "inputs": [],
      "stateMutability": "nonpayable",
      "type": "constructor"
    },
    {
      "anonymous": false,
      "inputs": [
        {
          "indexed": true,
          "internalType": "address",
          "name": "sender",
          "type": "address"
        },
        {
          "indexed": false,
          "internalType": "uint256",
          "name": "positionId",
          "type": "uint256"
        },
        {
          "indexed": false,
          "internalType": "uint256",
          "name": "oi",
          "type": "uint256"
        },
        {
          "indexed": false,
          "internalType": "uint256",
          "name": "debt",
          "type": "uint256"
        },
        {
          "indexed": false,
          "internalType": "bool",
          "name": "isLong",
          "type": "bool"
        },
        {
          "indexed": false,
          "internalType": "uint256",
          "name": "price",
          "type": "uint256"
        }
      ],
      "name": "Build",
      "type": "event"
    },
    {
      "anonymous": false,
      "inputs": [
        {
          "indexed": true,
          "internalType": "address",
          "name": "sender",
          "type": "address"
        },
        {
          "indexed": true,
          "internalType": "address",
          "name": "owner",
          "type": "address"
        },
        {
          "indexed": false,
          "internalType": "uint256",
          "name": "positionId",
          "type": "uint256"
        },
        {
          "indexed": false,
          "internalType": "int256",
          "name": "mint",
          "type": "int256"
        },
        {
          "indexed": false,
          "internalType": "uint256",
          "name": "price",
          "type": "uint256"
        }
      ],
      "name": "Liquidate",
      "type": "event"
    },
    {
      "anonymous": false,
      "inputs": [
        {
          "indexed": true,
          "internalType": "address",
          "name": "sender",
          "type": "address"
        },
        {
          "indexed": false,
          "internalType": "uint256",
          "name": "positionId",
          "type": "uint256"
        },
        {
          "indexed": false,
          "internalType": "uint256",
          "name": "fraction",
          "type": "uint256"
        },
        {
          "indexed": false,
          "internalType": "int256",
          "name": "mint",
          "type": "int256"
        },
        {
          "indexed": false,
          "internalType": "uint256",
          "name": "price",
          "type": "uint256"
        }
      ],
      "name": "Unwind",
      "type": "event"
    },
    {
      "inputs": [
        {
          "components": [
            {
              "internalType": "uint256",
              "name": "timestamp",
              "type": "uint256"
            },
            {
              "internalType": "uint256",
              "name": "microWindow",
              "type": "uint256"
            },
            {
              "internalType": "uint256",
              "name": "macroWindow",
              "type": "uint256"
            },
            {
              "internalType": "uint256",
              "name": "priceOverMicroWindow",
              "type": "uint256"
            },
            {
              "internalType": "uint256",
              "name": "priceOverMacroWindow",
              "type": "uint256"
            },
            {
              "internalType": "uint256",
              "name": "priceOneMacroWindowAgo",
              "type": "uint256"
            },
            {
              "internalType": "uint256",
              "name": "reserveOverMicroWindow",
              "type": "uint256"
            },
            {
              "internalType": "bool",
              "name": "hasReserve",
              "type": "bool"
            }
          ],
          "internalType": "struct Oracle.Data",
          "name": "data",
          "type": "tuple"
        },
        {
          "internalType": "uint256",
          "name": "volume",
          "type": "uint256"
        }
      ],
      "name": "ask",
      "outputs": [
        {
          "internalType": "uint256",
          "name": "ask_",
          "type": "uint256"
        }
      ],
      "stateMutability": "view",
      "type": "function"
    },
    {
      "inputs": [
        {
          "components": [
            {
              "internalType": "uint256",
              "name": "timestamp",
              "type": "uint256"
            },
            {
              "internalType": "uint256",
              "name": "microWindow",
              "type": "uint256"
            },
            {
              "internalType": "uint256",
              "name": "macroWindow",
              "type": "uint256"
            },
            {
              "internalType": "uint256",
              "name": "priceOverMicroWindow",
              "type": "uint256"
            },
            {
              "internalType": "uint256",
              "name": "priceOverMacroWindow",
              "type": "uint256"
            },
            {
              "internalType": "uint256",
              "name": "priceOneMacroWindowAgo",
              "type": "uint256"
            },
            {
              "internalType": "uint256",
              "name": "reserveOverMicroWindow",
              "type": "uint256"
            },
            {
              "internalType": "bool",
              "name": "hasReserve",
              "type": "bool"
            }
          ],
          "internalType": "struct Oracle.Data",
          "name": "data",
          "type": "tuple"
        }
      ],
      "name": "backRunBound",
      "outputs": [
        {
          "internalType": "uint256",
          "name": "",
          "type": "uint256"
        }
      ],
      "stateMutability": "view",
      "type": "function"
    },
    {
      "inputs": [
        {
          "components": [
            {
              "internalType": "uint256",
              "name": "timestamp",
              "type": "uint256"
            },
            {
              "internalType": "uint256",
              "name": "microWindow",
              "type": "uint256"
            },
            {
              "internalType": "uint256",
              "name": "macroWindow",
              "type": "uint256"
            },
            {
              "internalType": "uint256",
              "name": "priceOverMicroWindow",
              "type": "uint256"
            },
            {
              "internalType": "uint256",
              "name": "priceOverMacroWindow",
              "type": "uint256"
            },
            {
              "internalType": "uint256",
              "name": "priceOneMacroWindowAgo",
              "type": "uint256"
            },
            {
              "internalType": "uint256",
              "name": "reserveOverMicroWindow",
              "type": "uint256"
            },
            {
              "internalType": "bool",
              "name": "hasReserve",
              "type": "bool"
            }
          ],
          "internalType": "struct Oracle.Data",
          "name": "data",
          "type": "tuple"
        },
        {
          "internalType": "uint256",
          "name": "volume",
          "type": "uint256"
        }
      ],
      "name": "bid",
      "outputs": [
        {
          "internalType": "uint256",
          "name": "bid_",
          "type": "uint256"
        }
      ],
      "stateMutability": "view",
      "type": "function"
    },
    {
      "inputs": [
        {
          "internalType": "uint256",
          "name": "collateral",
          "type": "uint256"
        },
        {
          "internalType": "uint256",
          "name": "leverage",
          "type": "uint256"
        },
        {
          "internalType": "bool",
          "name": "isLong",
          "type": "bool"
        },
        {
          "internalType": "uint256",
          "name": "priceLimit",
          "type": "uint256"
        }
      ],
      "name": "build",
      "outputs": [
        {
          "internalType": "uint256",
          "name": "positionId_",
          "type": "uint256"
        }
      ],
      "stateMutability": "nonpayable",
      "type": "function"
    },
    {
      "inputs": [
        {
          "components": [
            {
              "internalType": "uint256",
              "name": "timestamp",
              "type": "uint256"
            },
            {
              "internalType": "uint256",
              "name": "microWindow",
              "type": "uint256"
            },
            {
              "internalType": "uint256",
              "name": "macroWindow",
              "type": "uint256"
            },
            {
              "internalType": "uint256",
              "name": "priceOverMicroWindow",
              "type": "uint256"
            },
            {
              "internalType": "uint256",
              "name": "priceOverMacroWindow",
              "type": "uint256"
            },
            {
              "internalType": "uint256",
              "name": "priceOneMacroWindowAgo",
              "type": "uint256"
            },
            {
              "internalType": "uint256",
              "name": "reserveOverMicroWindow",
              "type": "uint256"
            },
            {
              "internalType": "bool",
              "name": "hasReserve",
              "type": "bool"
            }
          ],
          "internalType": "struct Oracle.Data",
          "name": "data",
          "type": "tuple"
        },
        {
          "internalType": "uint256",
          "name": "cap",
          "type": "uint256"
        }
      ],
      "name": "capNotionalAdjustedForBounds",
      "outputs": [
        {
          "internalType": "uint256",
          "name": "",
          "type": "uint256"
        }
      ],
      "stateMutability": "view",
      "type": "function"
    },
    {
      "inputs": [
        {
          "internalType": "uint256",
          "name": "cap",
          "type": "uint256"
        }
      ],
      "name": "capNotionalAdjustedForCircuitBreaker",
      "outputs": [
        {
          "internalType": "uint256",
          "name": "",
          "type": "uint256"
        }
      ],
      "stateMutability": "view",
      "type": "function"
    },
    {
      "inputs": [
        {
          "components": [
            {
              "internalType": "uint32",
              "name": "timestamp",
              "type": "uint32"
            },
            {
              "internalType": "uint32",
              "name": "window",
              "type": "uint32"
            },
            {
              "internalType": "int192",
              "name": "accumulator",
              "type": "int192"
            }
          ],
          "internalType": "struct Roller.Snapshot",
          "name": "snapshot",
          "type": "tuple"
        },
        {
          "internalType": "uint256",
          "name": "cap",
          "type": "uint256"
        }
      ],
      "name": "circuitBreaker",
      "outputs": [
        {
          "internalType": "uint256",
          "name": "",
          "type": "uint256"
        }
      ],
      "stateMutability": "view",
      "type": "function"
    },
    {
      "inputs": [
        {
          "components": [
            {
              "internalType": "uint256",
              "name": "timestamp",
              "type": "uint256"
            },
            {
              "internalType": "uint256",
              "name": "microWindow",
              "type": "uint256"
            },
            {
              "internalType": "uint256",
              "name": "macroWindow",
              "type": "uint256"
            },
            {
              "internalType": "uint256",
              "name": "priceOverMicroWindow",
              "type": "uint256"
            },
            {
              "internalType": "uint256",
              "name": "priceOverMacroWindow",
              "type": "uint256"
            },
            {
              "internalType": "uint256",
              "name": "priceOneMacroWindowAgo",
              "type": "uint256"
            },
            {
              "internalType": "uint256",
              "name": "reserveOverMicroWindow",
              "type": "uint256"
            },
            {
              "internalType": "bool",
              "name": "hasReserve",
              "type": "bool"
            }
          ],
          "internalType": "struct Oracle.Data",
          "name": "data",
          "type": "tuple"
        }
      ],
      "name": "dataIsValid",
      "outputs": [
        {
          "internalType": "bool",
          "name": "",
          "type": "bool"
        }
      ],
      "stateMutability": "view",
      "type": "function"
    },
    {
      "inputs": [],
      "name": "dpUpperLimit",
      "outputs": [
        {
          "internalType": "uint256",
          "name": "",
          "type": "uint256"
        }
      ],
      "stateMutability": "view",
      "type": "function"
    },
    {
      "inputs": [],
      "name": "factory",
      "outputs": [
        {
          "internalType": "address",
          "name": "",
          "type": "address"
        }
      ],
      "stateMutability": "view",
      "type": "function"
    },
    {
      "inputs": [],
      "name": "feed",
      "outputs": [
        {
          "internalType": "address",
          "name": "",
          "type": "address"
        }
      ],
      "stateMutability": "view",
      "type": "function"
    },
    {
      "inputs": [
        {
          "components": [
            {
              "internalType": "uint256",
              "name": "timestamp",
              "type": "uint256"
            },
            {
              "internalType": "uint256",
              "name": "microWindow",
              "type": "uint256"
            },
            {
              "internalType": "uint256",
              "name": "macroWindow",
              "type": "uint256"
            },
            {
              "internalType": "uint256",
              "name": "priceOverMicroWindow",
              "type": "uint256"
            },
            {
              "internalType": "uint256",
              "name": "priceOverMacroWindow",
              "type": "uint256"
            },
            {
              "internalType": "uint256",
              "name": "priceOneMacroWindowAgo",
              "type": "uint256"
            },
            {
              "internalType": "uint256",
              "name": "reserveOverMicroWindow",
              "type": "uint256"
            },
            {
              "internalType": "bool",
              "name": "hasReserve",
              "type": "bool"
            }
          ],
          "internalType": "struct Oracle.Data",
          "name": "data",
          "type": "tuple"
        }
      ],
      "name": "frontRunBound",
      "outputs": [
        {
          "internalType": "uint256",
          "name": "",
          "type": "uint256"
        }
      ],
      "stateMutability": "view",
      "type": "function"
    },
    {
      "inputs": [
        {
          "internalType": "uint256[15]",
          "name": "_params",
          "type": "uint256[15]"
        }
      ],
      "name": "initialize",
      "outputs": [],
      "stateMutability": "nonpayable",
      "type": "function"
    },
    {
      "inputs": [
        {
          "internalType": "address",
          "name": "owner",
          "type": "address"
        },
        {
          "internalType": "uint256",
          "name": "positionId",
          "type": "uint256"
        }
      ],
      "name": "liquidate",
      "outputs": [],
      "stateMutability": "nonpayable",
      "type": "function"
    },
    {
      "inputs": [
        {
          "internalType": "uint256",
          "name": "oiOverweight",
          "type": "uint256"
        },
        {
          "internalType": "uint256",
          "name": "oiUnderweight",
          "type": "uint256"
        },
        {
          "internalType": "uint256",
          "name": "timeElapsed",
          "type": "uint256"
        }
      ],
      "name": "oiAfterFunding",
      "outputs": [
        {
          "internalType": "uint256",
          "name": "",
          "type": "uint256"
        },
        {
          "internalType": "uint256",
          "name": "",
          "type": "uint256"
        }
      ],
      "stateMutability": "view",
      "type": "function"
    },
    {
      "inputs": [
        {
          "internalType": "uint256",
          "name": "notional",
          "type": "uint256"
        },
        {
          "internalType": "uint256",
          "name": "midPrice",
          "type": "uint256"
        }
      ],
      "name": "oiFromNotional",
      "outputs": [
        {
          "internalType": "uint256",
          "name": "",
          "type": "uint256"
        }
      ],
      "stateMutability": "view",
      "type": "function"
    },
    {
      "inputs": [],
      "name": "oiLong",
      "outputs": [
        {
          "internalType": "uint256",
          "name": "",
          "type": "uint256"
        }
      ],
      "stateMutability": "view",
      "type": "function"
    },
    {
      "inputs": [],
      "name": "oiLongShares",
      "outputs": [
        {
          "internalType": "uint256",
          "name": "",
          "type": "uint256"
        }
      ],
      "stateMutability": "view",
      "type": "function"
    },
    {
      "inputs": [],
      "name": "oiShort",
      "outputs": [
        {
          "internalType": "uint256",
          "name": "",
          "type": "uint256"
        }
      ],
      "stateMutability": "view",
      "type": "function"
    },
    {
      "inputs": [],
      "name": "oiShortShares",
      "outputs": [
        {
          "internalType": "uint256",
          "name": "",
          "type": "uint256"
        }
      ],
      "stateMutability": "view",
      "type": "function"
    },
    {
      "inputs": [],
      "name": "ovl",
      "outputs": [
        {
          "internalType": "contract IOverlayV1Token",
          "name": "",
          "type": "address"
        }
      ],
      "stateMutability": "view",
      "type": "function"
    },
    {
      "inputs": [
        {
          "internalType": "uint256",
          "name": "",
          "type": "uint256"
        }
      ],
      "name": "params",
      "outputs": [
        {
          "internalType": "uint256",
          "name": "",
          "type": "uint256"
        }
      ],
      "stateMutability": "view",
      "type": "function"
    },
    {
      "inputs": [
        {
          "internalType": "bytes32",
          "name": "",
          "type": "bytes32"
        }
      ],
      "name": "positions",
      "outputs": [
        {
          "internalType": "uint96",
          "name": "notionalInitial",
          "type": "uint96"
        },
        {
          "internalType": "uint96",
          "name": "debtInitial",
          "type": "uint96"
        },
        {
          "internalType": "int24",
          "name": "midTick",
          "type": "int24"
        },
        {
          "internalType": "int24",
          "name": "entryTick",
          "type": "int24"
        },
        {
          "internalType": "bool",
          "name": "isLong",
          "type": "bool"
        },
        {
          "internalType": "bool",
          "name": "liquidated",
          "type": "bool"
        },
        {
          "internalType": "uint240",
          "name": "oiShares",
          "type": "uint240"
        },
        {
          "internalType": "uint16",
          "name": "fractionRemaining",
          "type": "uint16"
        }
      ],
      "stateMutability": "view",
      "type": "function"
    },
    {
      "inputs": [
        {
          "internalType": "enum Risk.Parameters",
          "name": "name",
          "type": "uint8"
        },
        {
          "internalType": "uint256",
          "name": "value",
          "type": "uint256"
        }
      ],
      "name": "setRiskParam",
      "outputs": [],
      "stateMutability": "nonpayable",
      "type": "function"
    },
    {
      "inputs": [],
      "name": "snapshotMinted",
      "outputs": [
        {
          "internalType": "uint32",
          "name": "timestamp",
          "type": "uint32"
        },
        {
          "internalType": "uint32",
          "name": "window",
          "type": "uint32"
        },
        {
          "internalType": "int192",
          "name": "accumulator",
          "type": "int192"
        }
      ],
      "stateMutability": "view",
      "type": "function"
    },
    {
      "inputs": [],
      "name": "snapshotVolumeAsk",
      "outputs": [
        {
          "internalType": "uint32",
          "name": "timestamp",
          "type": "uint32"
        },
        {
          "internalType": "uint32",
          "name": "window",
          "type": "uint32"
        },
        {
          "internalType": "int192",
          "name": "accumulator",
          "type": "int192"
        }
      ],
      "stateMutability": "view",
      "type": "function"
    },
    {
      "inputs": [],
      "name": "snapshotVolumeBid",
      "outputs": [
        {
          "internalType": "uint32",
          "name": "timestamp",
          "type": "uint32"
        },
        {
          "internalType": "uint32",
          "name": "window",
          "type": "uint32"
        },
        {
          "internalType": "int192",
          "name": "accumulator",
          "type": "int192"
        }
      ],
      "stateMutability": "view",
      "type": "function"
    },
    {
      "inputs": [],
      "name": "timestampUpdateLast",
      "outputs": [
        {
          "internalType": "uint256",
          "name": "",
          "type": "uint256"
        }
      ],
      "stateMutability": "view",
      "type": "function"
    },
    {
      "inputs": [
        {
          "internalType": "uint256",
          "name": "positionId",
          "type": "uint256"
        },
        {
          "internalType": "uint256",
          "name": "fraction",
          "type": "uint256"
        },
        {
          "internalType": "uint256",
          "name": "priceLimit",
          "type": "uint256"
        }
      ],
      "name": "unwind",
      "outputs": [],
      "stateMutability": "nonpayable",
      "type": "function"
    },
    {
      "inputs": [],
      "name": "update",
      "outputs": [
        {
          "components": [
            {
              "internalType": "uint256",
              "name": "timestamp",
              "type": "uint256"
            },
            {
              "internalType": "uint256",
              "name": "microWindow",
              "type": "uint256"
            },
            {
              "internalType": "uint256",
              "name": "macroWindow",
              "type": "uint256"
            },
            {
              "internalType": "uint256",
              "name": "priceOverMicroWindow",
              "type": "uint256"
            },
            {
              "internalType": "uint256",
              "name": "priceOverMacroWindow",
              "type": "uint256"
            },
            {
              "internalType": "uint256",
              "name": "priceOneMacroWindowAgo",
              "type": "uint256"
            },
            {
              "internalType": "uint256",
              "name": "reserveOverMicroWindow",
              "type": "uint256"
            },
            {
              "internalType": "bool",
              "name": "hasReserve",
              "type": "bool"
            }
          ],
          "internalType": "struct Oracle.Data",
          "name": "",
          "type": "tuple"
        }
      ],
      "stateMutability": "nonpayable",
      "type": "function"
    }
  ],
  "bytecode": "60e06040523480156200001157600080fd5b506000806000336001600160a01b031663890357306040518163ffffffff1660e01b8152600401606060405180830381865afa15801562000056573d6000803e3d6000fd5b505050506040513d601f19601f820116820180604052508101906200007c9190620000bb565b6001600160a01b0392831660805290821660a0521660c0525062000105915050565b80516001600160a01b0381168114620000b657600080fd5b919050565b600080600060608486031215620000d157600080fd5b620000dc846200009e565b9250620000ec602085016200009e565b9150620000fc604085016200009e565b90509250925092565b60805160a05160c051614d6d620001b36000396000818161057b01528181610d2a01528181611397015281816114a00152818161176001526120670152600081816102250152818161150301528181611b9101528181612de7015261325f01526000818161051801528181610b3201528181610bcf01528181610c5901528181610cfb015281816112bc0152818161136801528181611f1a01528181611fbe01526120380152614d6d6000f3fe608060405234801561001057600080fd5b50600436106101da5760003560e01c80638607f5c311610104578063b445e2e7116100a2578063d43cbd8e11610071578063d43cbd8e146105a6578063d565cc33146105b9578063ecc16191146105e2578063f333fe13146105f557600080fd5b8063b445e2e71461053a578063bcbaf48714610563578063c45a015514610576578063c6838e8b1461059d57600080fd5b80639d2f053c116100de5780639d2f053c1461046d5780639f0a545914610480578063a2e62045146104a8578063b29fa9c31461051357600080fd5b80638607f5c3146104345780638eba35351461044757806392aac7011461045a57600080fd5b806358171a611161017c5780635dedde6d1161014b5780635dedde6d146103f2578063640d0c28146103fb5780636c6291591461040e57806383ba19171461042157600080fd5b806358171a611461035a578063599682881461037d5780635ad7226f146103905780635b6df29a146103a357600080fd5b80633197e192116101b85780633197e1921461021757806337a7b7d81461022057806346322c371461025f578063514ea4bf1461027457600080fd5b806309163014146101df5780632acb3810146101fb5780632eda95c214610204575b600080fd5b6101e860105481565b6040519081526020015b60405180910390f35b6101e860115481565b6101e86102123660046147a3565b6105fe565b6101e860195481565b6102477f000000000000000000000000000000000000000000000000000000000000000081565b6040516001600160a01b0390911681526020016101f2565b61027261026d3660046147d0565b6106b9565b005b6102f76102823660046147fc565b601660205260009081526040902080546001909101546bffffffffffffffffffffffff80831692600160601b810490911691600160c01b8204600290810b92600160d81b810490910b91600160f01b80830460ff90811693600160f81b900416916001600160f01b03811691900461ffff1688565b604080516bffffffffffffffffffffffff998a168152989097166020890152600295860b968801969096529290930b60608601521515608085015290151560a08401526001600160f01b031660c083015261ffff1660e0820152610100016101f2565b61036d610368366004614815565b610e25565b60405190151581526020016101f2565b6101e861038b366004614832565b610e91565b61027261039e366004614871565b611495565b6015546103cc9063ffffffff80821691640100000000810490911690600160401b900460170b83565b6040805163ffffffff948516815293909216602084015260170b908201526060016101f2565b6101e8600f5481565b6102726104093660046148f0565b611755565b6101e861041c366004614815565b6117eb565b6101e861042f3660046147fc565b611819565b6101e86104423660046147a3565b611888565b6101e8610455366004614920565b611937565b6101e8610468366004614815565b61194c565b6101e861047b3660046147fc565b6119d2565b61049361048e3660046147d0565b6119e9565b604080519283526020830191909152016101f2565b6104b0611b3b565b6040516101f29190600061010082019050825182526020830151602083015260408301516040830152606083015160608301526080830151608083015260a083015160a083015260c083015160c083015260e0830151151560e083015292915050565b6102477f000000000000000000000000000000000000000000000000000000000000000081565b6013546103cc9063ffffffff80821691640100000000810490911690600160401b900460170b83565b610272610571366004614957565b611c5c565b6102477f000000000000000000000000000000000000000000000000000000000000000081565b6101e860185481565b6101e86105b4366004614989565b612163565b6014546103cc9063ffffffff80821691640100000000810490911690600160401b900460170b83565b6101e86105f03660046147a3565b6121e7565b6101e860125481565b60006106128360600151846080015161221d565b90506000610621816002612234565b90506000610630816001612234565b9050600061063e8286612262565b6106489084614a2b565b90506801158e460913d00000811061069c5760405162461bcd60e51b815260206004820152601260248201527109eac98ac6274e6d8d2e0e0c2ceca7cdac2f60731b60448201526064015b60405180910390fd5b6106af6106a8826122b1565b8590612262565b9695505050505050565b670de0b6b3a76400008211156107115760405162461bcd60e51b815260206004820152601260248201527f4f564c56313a6672616374696f6e3e6d617800000000000000000000000000006044820152606401610693565b61072661071d8361234c565b61ffff166123c5565b9150600082116107785760405162461bcd60e51b815260206004820152601260248201527f4f564c56313a6672616374696f6e3c6d696e00000000000000000000000000006044820152606401610693565b6000806000806000610788611b3b565b905060006107986016338b6123ec565b90506107a38161250a565b6107e15760405162461bcd60e51b815260206004820152600f60248201526e27ab262b189d10b837b9b4ba34b7b760891b6044820152606401610693565b600081608001516107f4576010546107f8565b600f545b90506000826080015161080d57601254610811565b6011545b9050610851828261082187612527565b61082d60006003612234565b61083960006008612234565b6108456000600a612234565b8995949392919061253b565b1561089e5760405162461bcd60e51b815260206004820152601260248201527f4f564c56313a6c6971756964617461626c6500000000000000000000000000006044820152606401610693565b60006108bb6108b2866105f0846004612234565b61045587612527565b905083608001516108f0576108eb85610212876108e58f88888b6125c4909392919063ffffffff16565b85612601565b610915565b610915856104428761090f8f88888b6125c4909392919063ffffffff16565b856126ca565b96508360800151610929578987111561092e565b898710155b61096f5760405162461bcd60e51b815260206004820152601260248201527109eac98ac6274e6d8d2e0e0c2ceca7cdac2f60731b6044820152606401610693565b600061097c816003612234565b905061098c858d86868c8661278e565b9950610998858d61289a565b985060006109a781600b612234565b90506109b8868e87878d87876128c2565b97506109c4888c6128ec565b9750856080015115610a11576109e86109df878f88886125c4565b600f54906128fb565b600f556109f5868e612916565b60116000828254610a069190614a43565b90915550610a4d9050565b610a29610a20878f88886125c4565b601054906128fb565b601055610a36868e612916565b60126000828254610a479190614a43565b90915550505b610a5f610a5a8b8d614a5a565b612939565b50610a6a868e612916565b8660c001818151610a7b9190614a99565b6001600160f01b0316905250610a91868e6129f9565b8660e0019061ffff16908161ffff1681525050610abc338f886016612a7e909392919063ffffffff16565b50505050505050336001600160a01b03167fc13b78a0772a556b5387d497953273371ed42cff2af20c019d9f119a737685ba88888688610afc9190614a5a565b604080519384526020840192909252908201526060810185905260800160405180910390a2828410610bc5576001600160a01b037f0000000000000000000000000000000000000000000000000000000000000000166340c10f1930610b628688614a43565b6040516001600160e01b031960e085901b1681526001600160a01b0390921660048301526024820152604401600060405180830381600087803b158015610ba857600080fd5b505af1158015610bbc573d6000803e3d6000fd5b50505050610c4f565b6001600160a01b037f0000000000000000000000000000000000000000000000000000000000000000166342966c68610bfe8686614a43565b6040518263ffffffff1660e01b8152600401610c1c91815260200190565b600060405180830381600087803b158015610c3657600080fd5b505af1158015610c4a573d6000803e3d6000fd5b505050505b6001600160a01b037f00000000000000000000000000000000000000000000000000000000000000001663a9059cbb33610c898488614a43565b6040516001600160e01b031960e085901b1681526001600160a01b03909216600483015260248201526044016020604051808303816000875af1158015610cd4573d6000803e3d6000fd5b505050506040513d601f19601f82011682018060405250810190610cf89190614ac1565b507f00000000000000000000000000000000000000000000000000000000000000006001600160a01b031663a9059cbb7f00000000000000000000000000000000000000000000000000000000000000006001600160a01b031663469048406040518163ffffffff1660e01b8152600401602060405180830381865afa158015610d86573d6000803e3d6000fd5b505050506040513d601f19601f82011682018060405250810190610daa9190614ade565b6040516001600160e01b031960e084901b1681526001600160a01b039091166004820152602481018490526044016020604051808303816000875af1158015610df7573d6000803e3d6000fd5b505050506040513d601f19601f82011682018060405250810190610e1b9190614ac1565b5050505050505050565b60195460009081610e3e670de0b6b3a764000083612c07565b608085015160a086015191925090801580610e57575081155b15610e685750600095945050505050565b6000610e748383612c36565b9050838110158015610e865750848111155b979650505050505050565b6000670de0b6b3a7640000841015610eeb5760405162461bcd60e51b815260206004820152600d60248201527f4f564c56313a6c65763c6d696e000000000000000000000000000000000000006044820152606401610693565b610ef760006005612234565b841115610f465760405162461bcd60e51b815260206004820152600d60248201527f4f564c56313a6c65763e6d6178000000000000000000000000000000000000006044820152606401610693565b610f526000600c612234565b851015610fa15760405162461bcd60e51b815260206004820152601460248201527f4f564c56313a636f6c6c61746572616c3c6d696e0000000000000000000000006044820152606401610693565b6000806000806000610fb1611b3b565b90506000610fbf8b8b612262565b90506000610fcc83612527565b9050610fd88282611937565b96506000871161102a5760405162461bcd60e51b815260206004820152600b60248201527f4f564c56313a6f693d3d300000000000000000000000000000000000000000006044820152606401610693565b6110348c83614a43565b955061104c6110456000600b612234565b8390612262565b9350600061106b611065856105f061042f856004612234565b83611937565b90508a6110865761108184610442868b856126ca565b611095565b61109584610212868b85612601565b95508a6110a557898610156110aa565b898611155b6110eb5760405162461bcd60e51b815260206004820152601260248201527109eac98ac6274e6d8d2e0e0c2ceca7cdac2f60731b6044820152606401610693565b60006110f889838e612c67565b90506000604051806101000160405280866bffffffffffffffffffffffff1681526020018a6bffffffffffffffffffffffff16815260200161113986612d2f565b60020b815260200161114a8a612d2f565b60020b81528e15156020820152600060408201526001600160f01b0384166060820152608001611181670de0b6b3a764000061234c565b61ffff16905290506111df8d6111995760105461119d565b600f545b8e6111aa576012546111ae565b6011545b866111bb60006003612234565b6111c760006008612234565b6111d36000600a612234565b8795949392919061253b565b1561122c5760405162461bcd60e51b815260206004820152601260248201527f4f564c56313a6c6971756964617461626c6500000000000000000000000000006044820152606401610693565b6017549a5061123e6016338d84612a7e565b6017805490600061124e83614afb565b9091555050604080518c8152602081018c90529081018a90528d15156060820152608081018990523396507fb98b46cc473761b09478db481c36070133bf6b7a18241892f5477e725b063b5a955060a00193506112aa92505050565b60405180910390a26001600160a01b037f0000000000000000000000000000000000000000000000000000000000000000166323b872dd33306112ed858e614a2b565b6040516001600160e01b031960e086901b1681526001600160a01b03938416600482015292909116602483015260448201526064016020604051808303816000875af1158015611341573d6000803e3d6000fd5b505050506040513d601f19601f820116820180604052508101906113659190614ac1565b507f00000000000000000000000000000000000000000000000000000000000000006001600160a01b031663a9059cbb7f00000000000000000000000000000000000000000000000000000000000000006001600160a01b031663469048406040518163ffffffff1660e01b8152600401602060405180830381865afa1580156113f3573d6000803e3d6000fd5b505050506040513d601f19601f820116820180604052508101906114179190614ade565b6040516001600160e01b031960e084901b1681526001600160a01b039091166004820152602481018490526044016020604051808303816000875af1158015611464573d6000803e3d6000fd5b505050506040513d601f19601f820116820180604052508101906114889190614ac1565b5050505050949350505050565b336001600160a01b037f000000000000000000000000000000000000000000000000000000000000000016146114ff5760405162461bcd60e51b815260206004820152600f60248201526e4f564c56313a2021666163746f727960881b6044820152606401610693565b60007f00000000000000000000000000000000000000000000000000000000000000006001600160a01b03166352bfe7896040518163ffffffff1660e01b815260040161010060405180830381865afa158015611560573d6000803e3d6000fd5b505050506040513d601f19601f820116820180604052508101906115849190614b16565b9050600061159182612527565b116115cc5760405162461bcd60e51b815260206004820152600b60248201526a4f564c56313a216461746160a81b6044820152606401610693565b4260185560a082015160408301516101008401516101408501516116296116056115fe83670de0b6b3a7640000614a43565b8490612c07565b611610856002614bdc565b61161a9190614a2b565b670de0b6b3a764000090612c07565b8411156116885760405162461bcd60e51b815260206004820152602760248201527f4f564c56313a206d6178206c657620696d6d6564696174656c79206c6971756960448201526664617461626c6560c81b6064820152608401610693565b6101a086015160408601516801158e460913d00000906116a89083614bdc565b106117005760405162461bcd60e51b815260206004820152602260248201527f4f564c56313a2070726963652064726966742065786365656473206d61782065604482015261078760f41b6064820152608401610693565b61170b600d82612dc9565b60005b600f811015610e1b578781600f811061172957611729614bc6565b6020020151600082600f811061174157611741614bc6565b01558061174d81614afb565b91505061170e565b336001600160a01b037f000000000000000000000000000000000000000000000000000000000000000016146117bf5760405162461bcd60e51b815260206004820152600f60248201526e4f564c56313a2021666163746f727960881b6044820152606401610693565b6117c7612e94565b6117d18282612f18565b6117db8282612dc9565b6117e76000838361335d565b5050565b6000806117f9816001612234565b90506118128360c001518261338890919063ffffffff16565b9392505050565b6040805160608101825260155463ffffffff8082168352640100000000820481166020840152600160401b90910460170b92820192909252600091829061186590829060069061223416565b905061187482428360006133a9565b91506118808285612163565b949350505050565b600061189c836060015184608001516128ec565b905060006118ab816002612234565b905060006118ba816001612234565b905060006118c88286612262565b6118d29084614a2b565b90506801158e460913d0000081106119215760405162461bcd60e51b815260206004820152601260248201527109eac98ac6274e6d8d2e0e0c2ceca7cdac2f60731b6044820152606401610693565b6106af61193061161a836122b1565b8590613388565b60006119438383612c07565b90505b92915050565b60008061195a81600e612234565b9050600081670de0b6b3a764000085604001516119779190614bdc565b6119819190614c11565b90506000611990816002612234565b90506119c96119a8670de0b6b3a76400006002614bdc565b6119c3846119c38960c001518661338890919063ffffffff16565b90613388565b95945050505050565b600081600f81106119e257600080fd5b0154905081565b600080806119f78587614a2b565b90506000611a058688614a43565b90506000611a138789612262565b9050821580611a20575081155b15611a3357878794509450505050611b33565b60008087611a418280612234565b611a4c906002614bdc565b611a569190614bdc565b90506801158e460913d00000811015611a7857611a7561161a826122b1565b91505b6000611a848587612c07565b90506000611ab1611a958580613388565b611aa790670de0b6b3a7640000614a43565b6119c38480613388565b611ac390670de0b6b3a7640000614a43565b9050611aec611ae5611ade6002670de0b6b3a7640000614c11565b83906135a6565b8890613388565b9650611af88685613388565b95506002611b068789614a2b565b611b109190614c11565b9b508b15611b2557611b22858d612c36565b9a505b8b8b98509850505050505050505b935093915050565b611b85604051806101000160405280600081526020016000815260200160008152602001600081526020016000815260200160008152602001600081526020016000151581525090565b611b8d612e94565b60007f00000000000000000000000000000000000000000000000000000000000000006001600160a01b03166352bfe7896040518163ffffffff1660e01b815260040161010060405180830381865afa158015611bee573d6000803e3d6000fd5b505050506040513d601f19601f82011682018060405250810190611c129190614b16565b9050611c1d81610e25565b611c575760405162461bcd60e51b815260206004820152600b60248201526a4f564c56313a216461746160a81b6044820152606401610693565b919050565b6000808080808080611c7060168a8a6123ec565b9050611c7b8161250a565b611cb95760405162461bcd60e51b815260206004820152600f60248201526e27ab262b189d10b837b9b4ba34b7b760891b6044820152606401610693565b6000611cc3611b3b565b905060008260800151611cd857601054611cdc565b600f545b905060008360800151611cf157601254611cf5565b6011545b90506000611d04816003612234565b9050670de0b6b3a7640000611d1885612527565b9950611d4584848c85611d2d60006008612234565b611d396000600a612234565b8c95949392919061253b565b611d915760405162461bcd60e51b815260206004820152601360248201527f4f564c56313a216c6971756964617461626c65000000000000000000000000006044820152606401610693565b611d9f868286868e8761278e565b9b50611dab868261289a565b9a50611dc3611dbc6000600a612234565b8d90613388565b9850611dcf898d614a43565b9650611de0611ae560006009612234565b9750611dec8888614a43565b9650856080015115611e3057611e076109df878387876125c4565b600f55611e148682612916565b60116000828254611e259190614a43565b90915550611e639050565b611e3f610a20878387876125c4565b601055611e4c8682612916565b60126000828254611e5d9190614a43565b90915550505b611e7b88611e718d8f614a5a565b610a5a9190614a5a565b50600160a0870152600060c0870181905260e0870152611e9e60168f8f89612a7e565b505050505050876001600160a01b0316336001600160a01b03167ff1deb4d6391f20e8cad919356063127cf8453da1fdf246eb1b5e4549e848112e8985898b611ee79190614a5a565b611ef19190614a5a565b604080519283526020830191909152810188905260600160405180910390a36001600160a01b037f0000000000000000000000000000000000000000000000000000000000000000166342966c6883611f4a8989614a43565b611f549190614a2b565b6040518263ffffffff1660e01b8152600401611f7291815260200190565b600060405180830381600087803b158015611f8c57600080fd5b505af1158015611fa0573d6000803e3d6000fd5b505060405163a9059cbb60e01b8152336004820152602481018690527f00000000000000000000000000000000000000000000000000000000000000006001600160a01b0316925063a9059cbb91506044016020604051808303816000875af1158015612011573d6000803e3d6000fd5b505050506040513d601f19601f820116820180604052508101906120359190614ac1565b507f00000000000000000000000000000000000000000000000000000000000000006001600160a01b031663a9059cbb7f00000000000000000000000000000000000000000000000000000000000000006001600160a01b031663469048406040518163ffffffff1660e01b8152600401602060405180830381865afa1580156120c3573d6000803e3d6000fd5b505050506040513d601f19601f820116820180604052508101906120e79190614ade565b6040516001600160e01b031960e084901b1681526001600160a01b039091166004820152602481018490526044016020604051808303816000875af1158015612134573d6000803e3d6000fd5b505050506040513d601f19601f820116820180604052508101906121589190614ac1565b505050505050505050565b600080612174846040015160170b90565b90506000612183816007612234565b9050808213612196578392505050611946565b6121a1816002614c25565b82126121b257600092505050611946565b60006121be8383612c07565b6121d1670de0b6b3a76400006002614bdc565b6121db9190614a43565b90506106af8582613388565b60008260e00151156122175761220582612200856117eb565b6128ec565b9150612214826122008561194c565b91505b50919050565b60008183101561222d5781611943565b5090919050565b60008282600e81111561224957612249614bb0565b600f811061225957612259614bc6565b01549392505050565b60008061226f8385614bdc565b905080612280576000915050611946565b670de0b6b3a7640000612294600183614a43565b61229e9190614c11565b6122a9906001614a2b565b915050611946565b6000816122c75750670de0b6b3a7640000919050565b600160ff1b821061231a5760405162461bcd60e51b815260206004820152601b60248201527f4669786564506f696e743a2078206f7574206f6620626f756e647300000000006044820152606401610693565b81600061232682613698565b9050600061234061233983612710612262565b6001613a7b565b90506119c98282613a7b565b600080612363612710670de0b6b3a7640000614c11565b905060006123718285614c11565b905061ffff8111156118125760405162461bcd60e51b815260206004820152601e60248201527f4f564c56313a20466978656443617374206f7574206f6620626f756e647300006044820152606401610693565b6000806123dc612710670de0b6b3a7640000614c11565b90506118128161ffff8516614bdc565b60408051610100810182526000808252602080830182905282840182905260608084018390526080840183905260a0840183905260c0840183905260e090930182905283519590921b6bffffffffffffffffffffffff1916858301526034808601949094528251808603909401845260548501808452845194830194909420815294905292839020610154830190935282546bffffffffffffffffffffffff8082168352600160601b8204166074840152600160c01b8104600290810b6094850152600160d81b8204900b60b4840152600160f01b80820460ff908116151560d4860152600160f81b909204909116151560f48401526001909301546001600160f01b0381166101148401529290920461ffff166101349091015290565b60008160a0015115801561194657505060e0015161ffff16151590565b600061194682606001518360800151613a88565b6000670de0b6b3a7640000816125518a83613aa3565b90508960a0015180612569575060e08a015161ffff16155b1561257957600092505050610e86565b60006125898b848c8c8c8c61278e565b905060006125978388612262565b905060006125a58388613388565b90506125b18183614a2b565b9092109c9b505050505050505050505050565b6000806125d18686612916565b90508015806125de575083155b806125e7575082155b156125f6576000915050611880565b6106af818585613ad9565b6040805160608101825260145463ffffffff8082168352640100000000820481166020840152600160401b90910460170b92820192909252600091829061264c9086908690612c3616565b60208701519091506126629083904290846133a9565b8051601480546020840151604085015163ffffffff94851667ffffffffffffffff199093169290921764010000000094909116939093029290921767ffffffffffffffff16600160401b6001600160c01b0384160217905590925060170b9695505050505050565b6040805160608101825260135463ffffffff8082168352640100000000820481166020840152600160401b90910460170b9282019290925260009182906127159086908690612c3616565b602087015190915061272b9083904290846133a9565b8051601380546020840151604085015163ffffffff94851667ffffffffffffffff199093169290921764010000000094909116939093029290921767ffffffffffffffff16600160401b6001600160c01b0384160217905590925060170b6106af565b60008061279b8888613b8c565b905060006127a98989613aa3565b905060006127b78a8a613ba9565b905060006127c78b8b8b8b6125c4565b905060006127d48c613bd6565b90508b6080015115612857576128126127ed838a612262565b6122006128028a670de0b6b3a7640000614a2b565b61280c8686612262565b90612262565b612826866128208786612262565b90612c36565b6128309190614a2b565b955061285061283f8383612262565b6128499085614a2b565b87906128fb565b955061288b565b6128618282612262565b61286f866128208786612262565b6128799190614a2b565b955061288861283f838a612262565b95505b50505050509695505050505050565b6000806128a78484613aa3565b905060006128b58585613ba9565b9050816106af81836128fb565b6000806128d3898989898989613be5565b90506128df8184612262565b9998505050505050505050565b600081831061222d5781611943565b60008082841161290c576000611880565b6118808385614a43565b60008061292d8460c001516001600160f01b031690565b90506118808184613388565b6040805160608101825260155463ffffffff8082168352640100000000820481166020840152600160401b90910460170b92820192909252600091829061298590829060069061223416565b9050612993824283876133a9565b8051601580546020840151604085015163ffffffff94851667ffffffffffffffff199093169290921764010000000094909116939093029290921767ffffffffffffffff16600160401b6001600160c01b0384160217905590925060009060170b6119c9565b6000670de0b6b3a7640000821115612a535760405162461bcd60e51b815260206004820152601260248201527f4f564c56313a6672616374696f6e3e6d617800000000000000000000000000006044820152606401610693565b6000612a73612a6a84670de0b6b3a7640000614a43565b6119c386613c10565b90506118808161234c565b6040516bffffffffffffffffffffffff19606085901b166020820152603481018390528190859060009060540160408051808303601f1901815291815281516020928301208352828201939093529082016000208351815492850151938501516060860151608087015160a08801516bffffffffffffffffffffffff9485167fffffffffffffffff00000000000000000000000000000000000000000000000090971696909617600160601b9490971693909302959095177fffff000000000000ffffffffffffffffffffffffffffffffffffffffffffffff16600160c01b62ffffff928316027fffff000000ffffffffffffffffffffffffffffffffffffffffffffffffffffff1617600160d81b9190951602939093176001600160f01b03908116600160f01b94151585027effffffffffffffffffffffffffffffffffffffffffffffffffffffffffffff1617600160f81b9315159390930292909217815560c084015160e0909401519390911661ffff9093169091029190911760019091015550505050565b600082612c1657506000611946565b6000612c2a670de0b6b3a764000085614bdc565b90506122a98382614c11565b600082612c4557506000611946565b6000612c59670de0b6b3a764000085614bdc565b905082612294600183614a43565b60008082612c7757601054612c7b565b600f545b9050600083612c8c57601254612c90565b6011545b90506000612c9f878484613c23565b9050612cab8784614a2b565b9250612cb78183614a2b565b915085831115612d095760405162461bcd60e51b815260206004820152600c60248201527f4f564c56313a6f693e63617000000000000000000000000000000000000000006044820152606401610693565b8415612d1e57600f83905560118290556106af565b601092909255601255949350505050565b600080612d4483670de111a6b7de4000613c4c565b90506956d225004ee68c3fffff198112158015612d6b575069fe1c215e8f838e0000008113155b612db75760405162461bcd60e51b815260206004820152601960248201527f4f564c56313a207469636b206f7574206f6620626f756e6473000000000000006044820152606401610693565b611812670de0b6b3a764000082614cac565b600d82600e811115612ddd57612ddd614bb0565b14156117e75760007f00000000000000000000000000000000000000000000000000000000000000006001600160a01b03166352bfe7896040518163ffffffff1660e01b815260040161010060405180830381865afa158015612e44573d6000803e3d6000fd5b505050506040513d601f19601f82011682018060405250810190612e689190614b16565b60408101519091508290600090612e7f9083614bdc565b9050612e8a816122b1565b6019555050505050565b600060185442612ea49190614a43565b90508015612f1557601054600f5411600081612ec257601054612ec6565b600f545b9050600082612ed757600f54612edb565b6010545b9050612ee88282866119e9565b909250905082612ef85780612efa565b815b600f5582612f085781612f0a565b805b601055505042601855505b50565b600282600e811115612f2c57612f2c614bb0565b1415612fe757806000612f40816005612234565b90506000612f4f816008612234565b90506000612f5e81600a612234565b9050612f83612f786115fe83670de0b6b3a7640000614a43565b611610866002614bdc565b831115612fe25760405162461bcd60e51b815260206004820152602760248201527f4f564c56313a206d6178206c657620696d6d6564696174656c79206c6971756960448201526664617461626c6560c81b6064820152608401610693565b505050505b600582600e811115612ffb57612ffb614bb0565b14156130ab5780600061300f816002612234565b9050600061301e816008612234565b9050600061302d81600a612234565b90506130476116056115fe83670de0b6b3a7640000614a43565b8411156130a65760405162461bcd60e51b815260206004820152602760248201527f4f564c56313a206d6178206c657620696d6d6564696174656c79206c6971756960448201526664617461626c6560c81b6064820152608401610693565b505050505b600882600e8111156130bf576130bf614bb0565b1415613176578060006130d3816002612234565b905060006130e2816005612234565b905060006130f181600a612234565b905061311261160561310b83670de0b6b3a7640000614a43565b8690612c07565b8211156131715760405162461bcd60e51b815260206004820152602760248201527f4f564c56313a206d6178206c657620696d6d6564696174656c79206c6971756960448201526664617461626c6560c81b6064820152608401610693565b505050505b600a82600e81111561318a5761318a614bb0565b14156132415780600061319e816002612234565b905060006131ad816005612234565b905060006131bc816008612234565b90506131dd6116056131d686670de0b6b3a7640000614a43565b8390612c07565b82111561323c5760405162461bcd60e51b815260206004820152602760248201527f4f564c56313a206d6178206c657620696d6d6564696174656c79206c6971756960448201526664617461626c6560c81b6064820152608401610693565b505050505b600d82600e81111561325557613255614bb0565b14156117e75760007f00000000000000000000000000000000000000000000000000000000000000006001600160a01b03166352bfe7896040518163ffffffff1660e01b815260040161010060405180830381865afa1580156132bc573d6000803e3d6000fd5b505050506040513d601f19601f820116820180604052508101906132e09190614b16565b604081015190915082906801158e460913d00000906132ff9083614bdc565b106133575760405162461bcd60e51b815260206004820152602260248201527f4f564c56313a2070726963652064726966742065786365656473206d61782065604482015261078760f41b6064820152608401610693565b50505050565b808383600e81111561337157613371614bb0565b600f811061338157613381614bc6565b0155505050565b6000806133958385614bdc565b9050611880670de0b6b3a764000082614c11565b6040805160608101825260008082526020820181905291810182905285519091859163ffffffff908116908316101561340757865163ffffffff908116906133f8908416640100000000614a2b565b6134029190614a43565b61341a565b86516134139083614cda565b63ffffffff165b602088015190915063ffffffff166000613438896040015160170b90565b90508183101580613447575081155b156134915760405180606001604052808563ffffffff16815260200161346c89613d5b565b63ffffffff16815260200161348088613d74565b60170b815250945050505050611880565b8161349c8482614a43565b6134a69083614c25565b6134b09190614cac565b905060006134be8783614cf7565b9050806135025760405180606001604052808663ffffffff1681526020016134e58a613d5b565b63ffffffff16815260006020909101529550611880945050505050565b600061350d83613dfb565b9050600061351a89613dfb565b905060006135288284614a2b565b6135328c84614bdc565b61353c8989614a43565b6135469086614bdc565b6135509190614a2b565b61355a9190614c11565b905060405180606001604052808963ffffffff16815260200161357c83613d5b565b63ffffffff16815260200161359086613d74565b60170b90529d9c50505050505050505050505050565b60008115806135bc5750670de0b6b3a764000083145b156135d05750670de0b6b3a7640000611946565b826135dd57506000611946565b670de0b6b3a76400008214156135f4575081611946565b613607670de0b6b3a76400006002614bdc565b82141561361f576136188384613388565b9050611946565b613632670de0b6b3a76400006004614bdc565b8214156136515760006136458485613388565b90506122a98182613388565b600061365d8484613e12565b9050600061367061233983612710612262565b90508082101561368557600092505050611946565b61368f8282613f13565b92505050611946565b60006136c7680238fd42c5cf03ffff1983121580156136c0575068070c1cc73b00c800008313155b6009613f20565b6000821215613700576136dc82600003613698565b6ec097ce7bc90715b34b9f1000000000816136f9576136f9614bfb565b0592915050565b60006806f05b59d3b2000000831261374057506806f05b59d3b1ffffff1990910190770195e54c5dd42177f53a27172fa9ec630262827000000000613776565b6803782dace9d9000000831261377257506803782dace9d8ffffff19909101906b1425982cf597cd205cef7380613776565b5060015b6064929092029168056bc75e2d6310000068ad78ebc5ac6200000084126137c65768ad78ebc5ac61ffffff199093019268056bc75e2d631000006e01855144814a7ff805980ff008400082020590505b6856bc75e2d6310000008412613802576856bc75e2d630ffffff199093019268056bc75e2d631000006b02df0ab5a80a22c61ab5a70082020590505b682b5e3af16b18800000841261383c57682b5e3af16b187fffff199093019268056bc75e2d63100000693f1fce3da636ea5cf85082020590505b6815af1d78b58c4000008412613876576815af1d78b58c3fffff199093019268056bc75e2d63100000690127fa27722cc06cc5e282020590505b680ad78ebc5ac620000084126138af57680ad78ebc5ac61fffff199093019268056bc75e2d6310000068280e60114edb805d0382020590505b68056bc75e2d6310000084126138e85768056bc75e2d630fffff199093019268056bc75e2d63100000680ebc5fb4174612111082020590505b6802b5e3af16b18800008412613921576802b5e3af16b187ffff199093019268056bc75e2d631000006808f00f760a4b2db55d82020590505b68015af1d78b58c40000841261395a5768015af1d78b58c3ffff199093019268056bc75e2d631000006806f5f177578893793782020590505b68056bc75e2d631000008481019085906002908280020505918201919050600368056bc75e2d631000008783020505918201919050600468056bc75e2d631000008783020505918201919050600568056bc75e2d631000008783020505918201919050600668056bc75e2d631000008783020505918201919050600768056bc75e2d631000008783020505918201919050600868056bc75e2d631000008783020505918201919050600968056bc75e2d631000008783020505918201919050600a68056bc75e2d631000008783020505918201919050600b68056bc75e2d631000008783020505918201919050600c68056bc75e2d631000008783020505918201919050606468056bc75e2d63100000848402058502059695505050505050565b6000806118808385614a2b565b6000613a976002848418614c11565b61194390848416614a2b565b600080613aaf84613c10565b90506000613acd8261280c87516bffffffffffffffffffffffff1690565b90506119c98185612262565b600080806000198587098587029250828110838203039150508060001415613b135760008411613b0857600080fd5b508290049050611812565b808411613b1f57600080fd5b6000848688096000868103871696879004966002600389028118808a02820302808a02820302808a02820302808a02820302808a02820302808a02909103029181900381900460010186841190950394909402919094039290920491909117919091029150509392505050565b600080613b9884613c10565b90506000613acd8261280c87613f2e565b600080613bb584613c10565b90506000613acd8261280c87602001516bffffffffffffffffffffffff1690565b60006119468260600151613f60565b600080613bf688888888888861278e565b90506000613c048989613ba9565b90506128df8183614a2b565b60006119468260e0015161ffff166123c5565b6000821580613c30575081155b613c4457613c3f848385613ad9565b611880565b509192915050565b60008083118015613c605750600160ff1b83105b613cac5760405162461bcd60e51b815260206004820152601b60248201527f4669786564506f696e743a2061206f7574206f6620626f756e647300000000006044820152606401610693565b600082118015613cbf5750600160ff1b82105b613d0b5760405162461bcd60e51b815260206004820152601b60248201527f4669786564506f696e743a2062206f7574206f6620626f756e647300000000006044820152606401610693565b82826000613d198383614029565b9050600080821215613d2e5781600003613d30565b815b90506000613d4361233983612710612262565b9050613d4f8184614a5a565b98975050505050505050565b60008063ffffffff83111561222d5763ffffffff611812565b600080777fffffffffffffffffffffffffffffffffffffffffffffff198312613dda57777fffffffffffffffffffffffffffffffffffffffffffffff8313613dbc5782611812565b777fffffffffffffffffffffffffffffffffffffffffffffff611812565b777fffffffffffffffffffffffffffffffffffffffffffffff199392505050565b600080821215613e0e5781600003611946565b5090565b600081613e285750670de0b6b3a7640000611946565b82613e3557506000611946565b613e46600160ff1b84106006613f20565b82613e6c770bce5086492111aea88f4bb1ca6bcf584181ea8059f7653284106007613f20565b826000670c7d713b49da000083138015613e8d5750670f43fc2c04ee000083125b15613ec4576000613e9d846140e3565b9050670de0b6b3a764000080820784020583670de0b6b3a764000083050201915050613ed2565b81613ece8461420b565b0290505b670de0b6b3a76400009005613f0a680238fd42c5cf03ffff198212801590613f03575068070c1cc73b00c800008213155b6008613f20565b6106af81613698565b6000806118808385614a43565b816117e7576117e7816145b6565b600080613f4783516bffffffffffffffffffffffff1690565b90506000613f5484614609565b90506118808282612c07565b600080613f79670de0b6b3a7640000600285900b614c25565b90506956d225004ee68c3fffff198112158015613fa0575069fe1c215e8f838e0000008113155b613fec5760405162461bcd60e51b815260206004820152601960248201527f4f564c56313a207469636b206f7574206f6620626f756e6473000000000000006044820152606401610693565b6000613ff782613dfb565b9050600082121561401757613c3f61161a670de111a6b7de400083614618565b611880670de111a6b7de4000826135a6565b600080670c7d713b49da00008313801561404a5750670f43fc2c04ee000083125b1561405f57614058836140e3565b9050614075565b670de0b6b3a76400006140718461420b565b0290505b6000670c7d713b49da0000851380156140955750670f43fc2c04ee000085125b156140aa576140a3856140e3565b90506140c0565b670de0b6b3a76400006140bc8661420b565b0290505b81670de0b6b3a76400008202816140d9576140d9614bfb565b0595945050505050565b670de0b6b3a7640000026000806ec097ce7bc90715b34b9f1000000000808401906ec097ce7bc90715b34b9f0fffffffff198501028161412557614125614bfb565b05905060006ec097ce7bc90715b34b9f100000000082800205905081806ec097ce7bc90715b34b9f100000000081840205915060038205016ec097ce7bc90715b34b9f100000000082840205915060058205016ec097ce7bc90715b34b9f100000000082840205915060078205016ec097ce7bc90715b34b9f100000000082840205915060098205016ec097ce7bc90715b34b9f1000000000828402059150600b8205016ec097ce7bc90715b34b9f1000000000828402059150600d8205016ec097ce7bc90715b34b9f1000000000828402059150600f82050160020295945050505050565b6000670de0b6b3a764000082121561424d57614244826ec097ce7bc90715b34b9f10000000008161423e5761423e614bfb565b0561420b565b60000392915050565b60007e1600ef3172e58d2e933ec884fde10064c63b5372d805e203c0000000000000831261429e57770195e54c5dd42177f53a27172fa9ec630262827000000000830592506806f05b59d3b2000000015b73011798004d755d3c8bc8e03204cf44619e00000083126142d6576b1425982cf597cd205cef7380830592506803782dace9d9000000015b606492830292026e01855144814a7ff805980ff0084000831261431e576e01855144814a7ff805980ff008400068056bc75e2d63100000840205925068ad78ebc5ac62000000015b6b02df0ab5a80a22c61ab5a7008312614359576b02df0ab5a80a22c61ab5a70068056bc75e2d6310000084020592506856bc75e2d631000000015b693f1fce3da636ea5cf850831261439057693f1fce3da636ea5cf85068056bc75e2d631000008402059250682b5e3af16b18800000015b690127fa27722cc06cc5e283126143c757690127fa27722cc06cc5e268056bc75e2d6310000084020592506815af1d78b58c400000015b68280e60114edb805d0383126143fc5768280e60114edb805d0368056bc75e2d631000008402059250680ad78ebc5ac6200000015b680ebc5fb41746121110831261442757680ebc5fb4174612111068056bc75e2d631000009384020592015b6808f00f760a4b2db55d831261445c576808f00f760a4b2db55d68056bc75e2d6310000084020592506802b5e3af16b1880000015b6806f5f17757889379378312614491576806f5f177578893793768056bc75e2d63100000840205925068015af1d78b58c40000015b6806248f33704b28660383126144c5576806248f33704b28660368056bc75e2d63100000840205925067ad78ebc5ac620000015b6805c548670b9510e7ac83126144f9576805c548670b9510e7ac68056bc75e2d6310000084020592506756bc75e2d6310000015b600068056bc75e2d63100000840168056bc75e2d63100000808603028161452257614522614bfb565b059050600068056bc75e2d63100000828002059050818068056bc75e2d63100000818402059150600382050168056bc75e2d63100000828402059150600582050168056bc75e2d63100000828402059150600782050168056bc75e2d63100000828402059150600982050168056bc75e2d63100000828402059150600b820501600202606485820105979650505050505050565b62461bcd60e51b6000908152602060045260076024526642414c23000030600a808404818106603090810160081b95839006959095019082900491820690940160101b939093010160c81b604452606490fd5b60006119468260400151613f60565b600081158061462e5750670de0b6b3a764000083145b156146425750670de0b6b3a7640000611946565b8261464f57506000611946565b670de0b6b3a7640000821415614666575081611946565b614679670de0b6b3a76400006002614bdc565b82141561468a576136188384612262565b61469d670de0b6b3a76400006004614bdc565b8214156146bc5760006146b08485612262565b90506122a98182612262565b60006146c88484613e12565b905060006146db61233983612710612262565b905061368f8282613a7b565b634e487b7160e01b600052604160045260246000fd5b8015158114612f1557600080fd5b600061010080838503121561471f57600080fd5b6040519081019067ffffffffffffffff82118183101715614742576147426146e7565b81604052809250833581526020840135602082015260408401356040820152606084013560608201526080840135608082015260a084013560a082015260c084013560c082015260e08401359150614799826146fd565b60e0015292915050565b60008061012083850312156147b757600080fd5b6147c1848461470b565b94610100939093013593505050565b6000806000606084860312156147e557600080fd5b505081359360208301359350604090920135919050565b60006020828403121561480e57600080fd5b5035919050565b6000610100828403121561482857600080fd5b611943838361470b565b6000806000806080858703121561484857600080fd5b84359350602085013592506040850135614861816146fd565b9396929550929360600135925050565b60006101e080838503121561488557600080fd5b83601f84011261489457600080fd5b60405181810181811067ffffffffffffffff821117156148b6576148b66146e7565b6040529083019080858311156148cb57600080fd5b845b838110156148e55780358252602091820191016148cd565b509095945050505050565b6000806040838503121561490357600080fd5b8235600f811061491257600080fd5b946020939093013593505050565b6000806040838503121561493357600080fd5b50508035926020909101359150565b6001600160a01b0381168114612f1557600080fd5b6000806040838503121561496a57600080fd5b823561491281614942565b803563ffffffff81168114611c5757600080fd5b600080828403608081121561499d57600080fd5b60608112156149ab57600080fd5b506040516060810181811067ffffffffffffffff821117156149cf576149cf6146e7565b6040526149db84614975565b81526149e960208501614975565b602082015260408401358060170b8114614a0257600080fd5b6040820152946060939093013593505050565b634e487b7160e01b600052601160045260246000fd5b60008219821115614a3e57614a3e614a15565b500190565b600082821015614a5557614a55614a15565b500390565b60008083128015600160ff1b850184121615614a7857614a78614a15565b836001600160ff1b03018313811615614a9357614a93614a15565b50500390565b60006001600160f01b0383811690831681811015614ab957614ab9614a15565b039392505050565b600060208284031215614ad357600080fd5b8151611812816146fd565b600060208284031215614af057600080fd5b815161181281614942565b6000600019821415614b0f57614b0f614a15565b5060010190565b6000610100808385031215614b2a57600080fd5b6040519081019067ffffffffffffffff82118183101715614b4d57614b4d6146e7565b81604052835181526020840151602082015260408401516040820152606084015160608201526080840151608082015260a084015160a082015260c084015160c082015260e08401519150614ba1826146fd565b60e08101919091529392505050565b634e487b7160e01b600052602160045260246000fd5b634e487b7160e01b600052603260045260246000fd5b6000816000190483118215151615614bf657614bf6614a15565b500290565b634e487b7160e01b600052601260045260246000fd5b600082614c2057614c20614bfb565b500490565b60006001600160ff1b03600084136000841385830485118282161615614c4d57614c4d614a15565b600160ff1b6000871282811687830589121615614c6c57614c6c614a15565b60008712925087820587128484161615614c8857614c88614a15565b87850587128184161615614c9e57614c9e614a15565b505050929093029392505050565b600082614cbb57614cbb614bfb565b600160ff1b821460001984141615614cd557614cd5614a15565b500590565b600063ffffffff83811690831681811015614ab957614ab9614a15565b6000808212826001600160ff1b0303841381151615614d1857614d18614a15565b600160ff1b8390038412811615614d3157614d31614a15565b5050019056fea26469706673582212200021b79928c10c5dd53212990e858c1599d9ac0b76e0ea9db085df1df96072be64736f6c634300080a0033",
  "bytecodeSha1": "59107c6856e02474965fcbd4e3982712df1fc8d0",
  "compiler": {
    "evm_version": "istanbul",
    "optimizer": {
      "enabled": true,
      "runs": 800
    },
    "version": "0.8.10+commit.fc410830"
  },
  "contractName": "OverlayV1Market",
  "language": "Solidity",
  "natspec": {
    "kind": "dev",
    "methods": {
      "ask((uint256,uint256,uint256,uint256,uint256,uint256,uint256,bool),uint256)": {
        "details": "ask price given oracle data and recent volume"
      },
      "backRunBound((uint256,uint256,uint256,uint256,uint256,uint256,uint256,bool))": {
        "details": "bound on notional cap to mitigate back-running attackbound = macroWindowInBlocks * reserveInOvl * 2 * delta"
      },
      "bid((uint256,uint256,uint256,uint256,uint256,uint256,uint256,bool),uint256)": {
        "details": "bid price given oracle data and recent volume"
      },
      "build(uint256,uint256,bool,uint256)": {
        "details": "builds a new position"
      },
      "capNotionalAdjustedForBounds((uint256,uint256,uint256,uint256,uint256,uint256,uint256,bool),uint256)": {
        "details": "current notional cap with adjustments to preventfront-running trade and back-running trade"
      },
      "capNotionalAdjustedForCircuitBreaker(uint256)": {
        "details": "current notional cap with adjustments to lowercap in the event market has printed a lot in recent past"
      },
      "circuitBreaker((uint32,uint32,int192),uint256)": {
        "details": "bound on notional cap from circuit breakerThree cases:1. minted < 1x target amount over circuitBreakerWindow: return cap2. minted > 2x target amount over last circuitBreakerWindow: return 03. minted between 1x and 2x target amount: return cap * (2 - minted/target)"
      },
      "dataIsValid((uint256,uint256,uint256,uint256,uint256,uint256,uint256,bool))": {
        "details": "sanity check on data fetched from oracle in case of manipulationrough check that log price bounded by +/- priceDriftUpperLimit * dtwhen comparing priceMacro(now) vs priceMacro(now - macroWindow)"
      },
      "frontRunBound((uint256,uint256,uint256,uint256,uint256,uint256,uint256,bool))": {
        "details": "bound on notional cap to mitigate front-running attackbound = lmbda * reserveInOvl"
      },
      "initialize(uint256[15])": {
        "notice": "initializes the market and its risk paramscalled only once by factory on deployment"
      },
      "liquidate(address,uint256)": {
        "details": "liquidates a liquidatable position"
      },
      "oiAfterFunding(uint256,uint256,uint256)": {
        "details": "The value of oiOverweight must be >= oiUnderweight",
        "notice": "Current open interest after funding payments transferredfrom overweight oi side to underweight oi side"
      },
      "oiFromNotional(uint256,uint256)": {
        "details": "Returns the open interest in number of contracts for a given notionalUses _midFromFeed(data) price to calculate oi: OI = Q / P"
      },
      "setRiskParam(uint8,uint256)": {
        "details": "updates funding state of market but does not fetch from oracleto avoid edge cases when dataIsValid is false",
        "notice": "Sets the governance per-market risk parameter"
      },
      "unwind(uint256,uint256,uint256)": {
        "details": "unwinds fraction of an existing position"
      },
      "update()": {
        "details": "updates market: pays funding and fetches freshest data from feedupdate is called every time market is interacted with"
      }
    },
    "version": 1
  },
  "opcodes": "PUSH1 0x80 PUSH1 0x40 MSTORE CALLVALUE DUP1 ISZERO PUSH2 0x10 JUMPI PUSH1 0x0 DUP1 REVERT JUMPDEST POP PUSH1 0x4 CALLDATASIZE LT PUSH2 0x1DA JUMPI PUSH1 0x0 CALLDATALOAD PUSH1 0xE0 SHR DUP1 PUSH4 0x8607F5C3 GT PUSH2 0x104 JUMPI DUP1 PUSH4 0xB445E2E7 GT PUSH2 0xA2 JUMPI DUP1 PUSH4 0xD43CBD8E GT PUSH2 0x71 JUMPI DUP1 PUSH4 0xD43CBD8E EQ PUSH2 0x5A6 JUMPI DUP1 PUSH4 0xD565CC33 EQ PUSH2 0x5B9 JUMPI DUP1 PUSH4 0xECC16191 EQ PUSH2 0x5E2 JUMPI DUP1 PUSH4 0xF333FE13 EQ PUSH2 0x5F5 JUMPI PUSH1 0x0 DUP1 REVERT JUMPDEST DUP1 PUSH4 0xB445E2E7 EQ PUSH2 0x53A JUMPI DUP1 PUSH4 0xBCBAF487 EQ PUSH2 0x563 JUMPI DUP1 PUSH4 0xC45A0155 EQ PUSH2 0x576 JUMPI DUP1 PUSH4 0xC6838E8B EQ PUSH2 0x59D JUMPI PUSH1 0x0 DUP1 REVERT JUMPDEST DUP1 PUSH4 0x9D2F053C GT PUSH2 0xDE JUMPI DUP1 PUSH4 0x9D2F053C EQ PUSH2 0x46D JUMPI DUP1 PUSH4 0x9F0A5459 EQ PUSH2 0x480 JUMPI DUP1 PUSH4 0xA2E62045 EQ PUSH2 0x4A8 JUMPI DUP1 PUSH4 0xB29FA9C3 EQ PUSH2 0x513 JUMPI PUSH1 0x0 DUP1 REVERT JUMPDEST DUP1 PUSH4 0x8607F5C3 EQ PUSH2 0x434 JUMPI DUP1 PUSH4 0x8EBA3535 EQ PUSH2 0x447 JUMPI DUP1 PUSH4 0x92AAC701 EQ PUSH2 0x45A JUMPI PUSH1 0x0 DUP1 REVERT JUMPDEST DUP1 PUSH4 0x58171A61 GT PUSH2 0x17C JUMPI DUP1 PUSH4 0x5DEDDE6D GT PUSH2 0x14B JUMPI DUP1 PUSH4 0x5DEDDE6D EQ PUSH2 0x3F2 JUMPI DUP1 PUSH4 0x640D0C28 EQ PUSH2 0x3FB JUMPI DUP1 PUSH4 0x6C629159 EQ PUSH2 0x40E JUMPI DUP1 PUSH4 0x83BA1917 EQ PUSH2 0x421 JUMPI PUSH1 0x0 DUP1 REVERT JUMPDEST DUP1 PUSH4 0x58171A61 EQ PUSH2 0x35A JUMPI DUP1 PUSH4 0x59968288 EQ PUSH2 0x37D JUMPI DUP1 PUSH4 0x5AD7226F EQ PUSH2 0x390 JUMPI DUP1 PUSH4 0x5B6DF29A EQ PUSH2 0x3A3 JUMPI PUSH1 0x0 DUP1 REVERT JUMPDEST DUP1 PUSH4 0x3197E192 GT PUSH2 0x1B8 JUMPI DUP1 PUSH4 0x3197E192 EQ PUSH2 0x217 JUMPI DUP1 PUSH4 0x37A7B7D8 EQ PUSH2 0x220 JUMPI DUP1 PUSH4 0x46322C37 EQ PUSH2 0x25F JUMPI DUP1 PUSH4 0x514EA4BF EQ PUSH2 0x274 JUMPI PUSH1 0x0 DUP1 REVERT JUMPDEST DUP1 PUSH4 0x9163014 EQ PUSH2 0x1DF JUMPI DUP1 PUSH4 0x2ACB3810 EQ PUSH2 0x1FB JUMPI DUP1 PUSH4 0x2EDA95C2 EQ PUSH2 0x204 JUMPI JUMPDEST PUSH1 0x0 DUP1 REVERT JUMPDEST PUSH2 0x1E8 PUSH1 0x10 SLOAD DUP2 JUMP JUMPDEST PUSH1 0x40 MLOAD SWAP1 DUP2 MSTORE PUSH1 0x20 ADD JUMPDEST PUSH1 0x40 MLOAD DUP1 SWAP2 SUB SWAP1 RETURN JUMPDEST PUSH2 0x1E8 PUSH1 0x11 SLOAD DUP2 JUMP JUMPDEST PUSH2 0x1E8 PUSH2 0x212 CALLDATASIZE PUSH1 0x4 PUSH2 0x47A3 JUMP JUMPDEST PUSH2 0x5FE JUMP JUMPDEST PUSH2 0x1E8 PUSH1 0x19 SLOAD DUP2 JUMP JUMPDEST PUSH2 0x247 PUSH32 0x0 DUP2 JUMP JUMPDEST PUSH1 0x40 MLOAD PUSH1 0x1 PUSH1 0x1 PUSH1 0xA0 SHL SUB SWAP1 SWAP2 AND DUP2 MSTORE PUSH1 0x20 ADD PUSH2 0x1F2 JUMP JUMPDEST PUSH2 0x272 PUSH2 0x26D CALLDATASIZE PUSH1 0x4 PUSH2 0x47D0 JUMP JUMPDEST PUSH2 0x6B9 JUMP JUMPDEST STOP JUMPDEST PUSH2 0x2F7 PUSH2 0x282 CALLDATASIZE PUSH1 0x4 PUSH2 0x47FC JUMP JUMPDEST PUSH1 0x16 PUSH1 0x20 MSTORE PUSH1 0x0 SWAP1 DUP2 MSTORE PUSH1 0x40 SWAP1 KECCAK256 DUP1 SLOAD PUSH1 0x1 SWAP1 SWAP2 ADD SLOAD PUSH12 0xFFFFFFFFFFFFFFFFFFFFFFFF DUP1 DUP4 AND SWAP3 PUSH1 0x1 PUSH1 0x60 SHL DUP2 DIV SWAP1 SWAP2 AND SWAP2 PUSH1 0x1 PUSH1 0xC0 SHL DUP3 DIV PUSH1 0x2 SWAP1 DUP2 SIGNEXTEND SWAP3 PUSH1 0x1 PUSH1 0xD8 SHL DUP2 DIV SWAP1 SWAP2 SIGNEXTEND SWAP2 PUSH1 0x1 PUSH1 0xF0 SHL DUP1 DUP4 DIV PUSH1 0xFF SWAP1 DUP2 AND SWAP4 PUSH1 0x1 PUSH1 0xF8 SHL SWAP1 DIV AND SWAP2 PUSH1 0x1 PUSH1 0x1 PUSH1 0xF0 SHL SUB DUP2 AND SWAP2 SWAP1 DIV PUSH2 0xFFFF AND DUP9 JUMP JUMPDEST PUSH1 0x40 DUP1 MLOAD PUSH12 0xFFFFFFFFFFFFFFFFFFFFFFFF SWAP10 DUP11 AND DUP2 MSTORE SWAP9 SWAP1 SWAP8 AND PUSH1 0x20 DUP10 ADD MSTORE PUSH1 0x2 SWAP6 DUP7 SIGNEXTEND SWAP7 DUP9 ADD SWAP7 SWAP1 SWAP7 MSTORE SWAP3 SWAP1 SWAP4 SIGNEXTEND PUSH1 0x60 DUP7 ADD MSTORE ISZERO ISZERO PUSH1 0x80 DUP6 ADD MSTORE SWAP1 ISZERO ISZERO PUSH1 0xA0 DUP5 ADD MSTORE PUSH1 0x1 PUSH1 0x1 PUSH1 0xF0 SHL SUB AND PUSH1 0xC0 DUP4 ADD MSTORE PUSH2 0xFFFF AND PUSH1 0xE0 DUP3 ADD MSTORE PUSH2 0x100 ADD PUSH2 0x1F2 JUMP JUMPDEST PUSH2 0x36D PUSH2 0x368 CALLDATASIZE PUSH1 0x4 PUSH2 0x4815 JUMP JUMPDEST PUSH2 0xE25 JUMP JUMPDEST PUSH1 0x40 MLOAD SWAP1 ISZERO ISZERO DUP2 MSTORE PUSH1 0x20 ADD PUSH2 0x1F2 JUMP JUMPDEST PUSH2 0x1E8 PUSH2 0x38B CALLDATASIZE PUSH1 0x4 PUSH2 0x4832 JUMP JUMPDEST PUSH2 0xE91 JUMP JUMPDEST PUSH2 0x272 PUSH2 0x39E CALLDATASIZE PUSH1 0x4 PUSH2 0x4871 JUMP JUMPDEST PUSH2 0x1495 JUMP JUMPDEST PUSH1 0x15 SLOAD PUSH2 0x3CC SWAP1 PUSH4 0xFFFFFFFF DUP1 DUP3 AND SWAP2 PUSH5 0x100000000 DUP2 DIV SWAP1 SWAP2 AND SWAP1 PUSH1 0x1 PUSH1 0x40 SHL SWAP1 DIV PUSH1 0x17 SIGNEXTEND DUP4 JUMP JUMPDEST PUSH1 0x40 DUP1 MLOAD PUSH4 0xFFFFFFFF SWAP5 DUP6 AND DUP2 MSTORE SWAP4 SWAP1 SWAP3 AND PUSH1 0x20 DUP5 ADD MSTORE PUSH1 0x17 SIGNEXTEND SWAP1 DUP3 ADD MSTORE PUSH1 0x60 ADD PUSH2 0x1F2 JUMP JUMPDEST PUSH2 0x1E8 PUSH1 0xF SLOAD DUP2 JUMP JUMPDEST PUSH2 0x272 PUSH2 0x409 CALLDATASIZE PUSH1 0x4 PUSH2 0x48F0 JUMP JUMPDEST PUSH2 0x1755 JUMP JUMPDEST PUSH2 0x1E8 PUSH2 0x41C CALLDATASIZE PUSH1 0x4 PUSH2 0x4815 JUMP JUMPDEST PUSH2 0x17EB JUMP JUMPDEST PUSH2 0x1E8 PUSH2 0x42F CALLDATASIZE PUSH1 0x4 PUSH2 0x47FC JUMP JUMPDEST PUSH2 0x1819 JUMP JUMPDEST PUSH2 0x1E8 PUSH2 0x442 CALLDATASIZE PUSH1 0x4 PUSH2 0x47A3 JUMP JUMPDEST PUSH2 0x1888 JUMP JUMPDEST PUSH2 0x1E8 PUSH2 0x455 CALLDATASIZE PUSH1 0x4 PUSH2 0x4920 JUMP JUMPDEST PUSH2 0x1937 JUMP JUMPDEST PUSH2 0x1E8 PUSH2 0x468 CALLDATASIZE PUSH1 0x4 PUSH2 0x4815 JUMP JUMPDEST PUSH2 0x194C JUMP JUMPDEST PUSH2 0x1E8 PUSH2 0x47B CALLDATASIZE PUSH1 0x4 PUSH2 0x47FC JUMP JUMPDEST PUSH2 0x19D2 JUMP JUMPDEST PUSH2 0x493 PUSH2 0x48E CALLDATASIZE PUSH1 0x4 PUSH2 0x47D0 JUMP JUMPDEST PUSH2 0x19E9 JUMP JUMPDEST PUSH1 0x40 DUP1 MLOAD SWAP3 DUP4 MSTORE PUSH1 0x20 DUP4 ADD SWAP2 SWAP1 SWAP2 MSTORE ADD PUSH2 0x1F2 JUMP JUMPDEST PUSH2 0x4B0 PUSH2 0x1B3B JUMP JUMPDEST PUSH1 0x40 MLOAD PUSH2 0x1F2 SWAP2 SWAP1 PUSH1 0x0 PUSH2 0x100 DUP3 ADD SWAP1 POP DUP3 MLOAD DUP3 MSTORE PUSH1 0x20 DUP4 ADD MLOAD PUSH1 0x20 DUP4 ADD MSTORE PUSH1 0x40 DUP4 ADD MLOAD PUSH1 0x40 DUP4 ADD MSTORE PUSH1 0x60 DUP4 ADD MLOAD PUSH1 0x60 DUP4 ADD MSTORE PUSH1 0x80 DUP4 ADD MLOAD PUSH1 0x80 DUP4 ADD MSTORE PUSH1 0xA0 DUP4 ADD MLOAD PUSH1 0xA0 DUP4 ADD MSTORE PUSH1 0xC0 DUP4 ADD MLOAD PUSH1 0xC0 DUP4 ADD MSTORE PUSH1 0xE0 DUP4 ADD MLOAD ISZERO ISZERO PUSH1 0xE0 DUP4 ADD MSTORE SWAP3 SWAP2 POP POP JUMP JUMPDEST PUSH2 0x247 PUSH32 0x0 DUP2 JUMP JUMPDEST PUSH1 0x13 SLOAD PUSH2 0x3CC SWAP1 PUSH4 0xFFFFFFFF DUP1 DUP3 AND SWAP2 PUSH5 0x100000000 DUP2 DIV SWAP1 SWAP2 AND SWAP1 PUSH1 0x1 PUSH1 0x40 SHL SWAP1 DIV PUSH1 0x17 SIGNEXTEND DUP4 JUMP JUMPDEST PUSH2 0x272 PUSH2 0x571 CALLDATASIZE PUSH1 0x4 PUSH2 0x4957 JUMP JUMPDEST PUSH2 0x1C5C JUMP JUMPDEST PUSH2 0x247 PUSH32 0x0 DUP2 JUMP JUMPDEST PUSH2 0x1E8 PUSH1 0x18 SLOAD DUP2 JUMP JUMPDEST PUSH2 0x1E8 PUSH2 0x5B4 CALLDATASIZE PUSH1 0x4 PUSH2 0x4989 JUMP JUMPDEST PUSH2 0x2163 JUMP JUMPDEST PUSH1 0x14 SLOAD PUSH2 0x3CC SWAP1 PUSH4 0xFFFFFFFF DUP1 DUP3 AND SWAP2 PUSH5 0x100000000 DUP2 DIV SWAP1 SWAP2 AND SWAP1 PUSH1 0x1 PUSH1 0x40 SHL SWAP1 DIV PUSH1 0x17 SIGNEXTEND DUP4 JUMP JUMPDEST PUSH2 0x1E8 PUSH2 0x5F0 CALLDATASIZE PUSH1 0x4 PUSH2 0x47A3 JUMP JUMPDEST PUSH2 0x21E7 JUMP JUMPDEST PUSH2 0x1E8 PUSH1 0x12 SLOAD DUP2 JUMP JUMPDEST PUSH1 0x0 PUSH2 0x612 DUP4 PUSH1 0x60 ADD MLOAD DUP5 PUSH1 0x80 ADD MLOAD PUSH2 0x221D JUMP JUMPDEST SWAP1 POP PUSH1 0x0 PUSH2 0x621 DUP2 PUSH1 0x2 PUSH2 0x2234 JUMP JUMPDEST SWAP1 POP PUSH1 0x0 PUSH2 0x630 DUP2 PUSH1 0x1 PUSH2 0x2234 JUMP JUMPDEST SWAP1 POP PUSH1 0x0 PUSH2 0x63E DUP3 DUP7 PUSH2 0x2262 JUMP JUMPDEST PUSH2 0x648 SWAP1 DUP5 PUSH2 0x4A2B JUMP JUMPDEST SWAP1 POP PUSH9 0x1158E460913D00000 DUP2 LT PUSH2 0x69C JUMPI PUSH1 0x40 MLOAD PUSH3 0x461BCD PUSH1 0xE5 SHL DUP2 MSTORE PUSH1 0x20 PUSH1 0x4 DUP3 ADD MSTORE PUSH1 0x12 PUSH1 0x24 DUP3 ADD MSTORE PUSH18 0x9EAC98AC6274E6D8D2E0E0C2CECA7CDAC2F PUSH1 0x73 SHL PUSH1 0x44 DUP3 ADD MSTORE PUSH1 0x64 ADD JUMPDEST PUSH1 0x40 MLOAD DUP1 SWAP2 SUB SWAP1 REVERT JUMPDEST PUSH2 0x6AF PUSH2 0x6A8 DUP3 PUSH2 0x22B1 JUMP JUMPDEST DUP6 SWAP1 PUSH2 0x2262 JUMP JUMPDEST SWAP7 SWAP6 POP POP POP POP POP POP JUMP JUMPDEST PUSH8 0xDE0B6B3A7640000 DUP3 GT ISZERO PUSH2 0x711 JUMPI PUSH1 0x40 MLOAD PUSH3 0x461BCD PUSH1 0xE5 SHL DUP2 MSTORE PUSH1 0x20 PUSH1 0x4 DUP3 ADD MSTORE PUSH1 0x12 PUSH1 0x24 DUP3 ADD MSTORE PUSH32 0x4F564C56313A6672616374696F6E3E6D61780000000000000000000000000000 PUSH1 0x44 DUP3 ADD MSTORE PUSH1 0x64 ADD PUSH2 0x693 JUMP JUMPDEST PUSH2 0x726 PUSH2 0x71D DUP4 PUSH2 0x234C JUMP JUMPDEST PUSH2 0xFFFF AND PUSH2 0x23C5 JUMP JUMPDEST SWAP2 POP PUSH1 0x0 DUP3 GT PUSH2 0x778 JUMPI PUSH1 0x40 MLOAD PUSH3 0x461BCD PUSH1 0xE5 SHL DUP2 MSTORE PUSH1 0x20 PUSH1 0x4 DUP3 ADD MSTORE PUSH1 0x12 PUSH1 0x24 DUP3 ADD MSTORE PUSH32 0x4F564C56313A6672616374696F6E3C6D696E0000000000000000000000000000 PUSH1 0x44 DUP3 ADD MSTORE PUSH1 0x64 ADD PUSH2 0x693 JUMP JUMPDEST PUSH1 0x0 DUP1 PUSH1 0x0 DUP1 PUSH1 0x0 PUSH2 0x788 PUSH2 0x1B3B JUMP JUMPDEST SWAP1 POP PUSH1 0x0 PUSH2 0x798 PUSH1 0x16 CALLER DUP12 PUSH2 0x23EC JUMP JUMPDEST SWAP1 POP PUSH2 0x7A3 DUP2 PUSH2 0x250A JUMP JUMPDEST PUSH2 0x7E1 JUMPI PUSH1 0x40 MLOAD PUSH3 0x461BCD PUSH1 0xE5 SHL DUP2 MSTORE PUSH1 0x20 PUSH1 0x4 DUP3 ADD MSTORE PUSH1 0xF PUSH1 0x24 DUP3 ADD MSTORE PUSH15 0x27AB262B189D10B837B9B4BA34B7B7 PUSH1 0x89 SHL PUSH1 0x44 DUP3 ADD MSTORE PUSH1 0x64 ADD PUSH2 0x693 JUMP JUMPDEST PUSH1 0x0 DUP2 PUSH1 0x80 ADD MLOAD PUSH2 0x7F4 JUMPI PUSH1 0x10 SLOAD PUSH2 0x7F8 JUMP JUMPDEST PUSH1 0xF SLOAD JUMPDEST SWAP1 POP PUSH1 0x0 DUP3 PUSH1 0x80 ADD MLOAD PUSH2 0x80D JUMPI PUSH1 0x12 SLOAD PUSH2 0x811 JUMP JUMPDEST PUSH1 0x11 SLOAD JUMPDEST SWAP1 POP PUSH2 0x851 DUP3 DUP3 PUSH2 0x821 DUP8 PUSH2 0x2527 JUMP JUMPDEST PUSH2 0x82D PUSH1 0x0 PUSH1 0x3 PUSH2 0x2234 JUMP JUMPDEST PUSH2 0x839 PUSH1 0x0 PUSH1 0x8 PUSH2 0x2234 JUMP JUMPDEST PUSH2 0x845 PUSH1 0x0 PUSH1 0xA PUSH2 0x2234 JUMP JUMPDEST DUP10 SWAP6 SWAP5 SWAP4 SWAP3 SWAP2 SWAP1 PUSH2 0x253B JUMP JUMPDEST ISZERO PUSH2 0x89E JUMPI PUSH1 0x40 MLOAD PUSH3 0x461BCD PUSH1 0xE5 SHL DUP2 MSTORE PUSH1 0x20 PUSH1 0x4 DUP3 ADD MSTORE PUSH1 0x12 PUSH1 0x24 DUP3 ADD MSTORE PUSH32 0x4F564C56313A6C6971756964617461626C650000000000000000000000000000 PUSH1 0x44 DUP3 ADD MSTORE PUSH1 0x64 ADD PUSH2 0x693 JUMP JUMPDEST PUSH1 0x0 PUSH2 0x8BB PUSH2 0x8B2 DUP7 PUSH2 0x5F0 DUP5 PUSH1 0x4 PUSH2 0x2234 JUMP JUMPDEST PUSH2 0x455 DUP8 PUSH2 0x2527 JUMP JUMPDEST SWAP1 POP DUP4 PUSH1 0x80 ADD MLOAD PUSH2 0x8F0 JUMPI PUSH2 0x8EB DUP6 PUSH2 0x212 DUP8 PUSH2 0x8E5 DUP16 DUP9 DUP9 DUP12 PUSH2 0x25C4 SWAP1 SWAP4 SWAP3 SWAP2 SWAP1 PUSH4 0xFFFFFFFF AND JUMP JUMPDEST DUP6 PUSH2 0x2601 JUMP JUMPDEST PUSH2 0x915 JUMP JUMPDEST PUSH2 0x915 DUP6 PUSH2 0x442 DUP8 PUSH2 0x90F DUP16 DUP9 DUP9 DUP12 PUSH2 0x25C4 SWAP1 SWAP4 SWAP3 SWAP2 SWAP1 PUSH4 0xFFFFFFFF AND JUMP JUMPDEST DUP6 PUSH2 0x26CA JUMP JUMPDEST SWAP7 POP DUP4 PUSH1 0x80 ADD MLOAD PUSH2 0x929 JUMPI DUP10 DUP8 GT ISZERO PUSH2 0x92E JUMP JUMPDEST DUP10 DUP8 LT ISZERO JUMPDEST PUSH2 0x96F JUMPI PUSH1 0x40 MLOAD PUSH3 0x461BCD PUSH1 0xE5 SHL DUP2 MSTORE PUSH1 0x20 PUSH1 0x4 DUP3 ADD MSTORE PUSH1 0x12 PUSH1 0x24 DUP3 ADD MSTORE PUSH18 0x9EAC98AC6274E6D8D2E0E0C2CECA7CDAC2F PUSH1 0x73 SHL PUSH1 0x44 DUP3 ADD MSTORE PUSH1 0x64 ADD PUSH2 0x693 JUMP JUMPDEST PUSH1 0x0 PUSH2 0x97C DUP2 PUSH1 0x3 PUSH2 0x2234 JUMP JUMPDEST SWAP1 POP PUSH2 0x98C DUP6 DUP14 DUP7 DUP7 DUP13 DUP7 PUSH2 0x278E JUMP JUMPDEST SWAP10 POP PUSH2 0x998 DUP6 DUP14 PUSH2 0x289A JUMP JUMPDEST SWAP9 POP PUSH1 0x0 PUSH2 0x9A7 DUP2 PUSH1 0xB PUSH2 0x2234 JUMP JUMPDEST SWAP1 POP PUSH2 0x9B8 DUP7 DUP15 DUP8 DUP8 DUP14 DUP8 DUP8 PUSH2 0x28C2 JUMP JUMPDEST SWAP8 POP PUSH2 0x9C4 DUP9 DUP13 PUSH2 0x28EC JUMP JUMPDEST SWAP8 POP DUP6 PUSH1 0x80 ADD MLOAD ISZERO PUSH2 0xA11 JUMPI PUSH2 0x9E8 PUSH2 0x9DF DUP8 DUP16 DUP9 DUP9 PUSH2 0x25C4 JUMP JUMPDEST PUSH1 0xF SLOAD SWAP1 PUSH2 0x28FB JUMP JUMPDEST PUSH1 0xF SSTORE PUSH2 0x9F5 DUP7 DUP15 PUSH2 0x2916 JUMP JUMPDEST PUSH1 0x11 PUSH1 0x0 DUP3 DUP3 SLOAD PUSH2 0xA06 SWAP2 SWAP1 PUSH2 0x4A43 JUMP JUMPDEST SWAP1 SWAP2 SSTORE POP PUSH2 0xA4D SWAP1 POP JUMP JUMPDEST PUSH2 0xA29 PUSH2 0xA20 DUP8 DUP16 DUP9 DUP9 PUSH2 0x25C4 JUMP JUMPDEST PUSH1 0x10 SLOAD SWAP1 PUSH2 0x28FB JUMP JUMPDEST PUSH1 0x10 SSTORE PUSH2 0xA36 DUP7 DUP15 PUSH2 0x2916 JUMP JUMPDEST PUSH1 0x12 PUSH1 0x0 DUP3 DUP3 SLOAD PUSH2 0xA47 SWAP2 SWAP1 PUSH2 0x4A43 JUMP JUMPDEST SWAP1 SWAP2 SSTORE POP POP JUMPDEST PUSH2 0xA5F PUSH2 0xA5A DUP12 DUP14 PUSH2 0x4A5A JUMP JUMPDEST PUSH2 0x2939 JUMP JUMPDEST POP PUSH2 0xA6A DUP7 DUP15 PUSH2 0x2916 JUMP JUMPDEST DUP7 PUSH1 0xC0 ADD DUP2 DUP2 MLOAD PUSH2 0xA7B SWAP2 SWAP1 PUSH2 0x4A99 JUMP JUMPDEST PUSH1 0x1 PUSH1 0x1 PUSH1 0xF0 SHL SUB AND SWAP1 MSTORE POP PUSH2 0xA91 DUP7 DUP15 PUSH2 0x29F9 JUMP JUMPDEST DUP7 PUSH1 0xE0 ADD SWAP1 PUSH2 0xFFFF AND SWAP1 DUP2 PUSH2 0xFFFF AND DUP2 MSTORE POP POP PUSH2 0xABC CALLER DUP16 DUP9 PUSH1 0x16 PUSH2 0x2A7E SWAP1 SWAP4 SWAP3 SWAP2 SWAP1 PUSH4 0xFFFFFFFF AND JUMP JUMPDEST POP POP POP POP POP POP POP CALLER PUSH1 0x1 PUSH1 0x1 PUSH1 0xA0 SHL SUB AND PUSH32 0xC13B78A0772A556B5387D497953273371ED42CFF2AF20C019D9F119A737685BA DUP9 DUP9 DUP7 DUP9 PUSH2 0xAFC SWAP2 SWAP1 PUSH2 0x4A5A JUMP JUMPDEST PUSH1 0x40 DUP1 MLOAD SWAP4 DUP5 MSTORE PUSH1 0x20 DUP5 ADD SWAP3 SWAP1 SWAP3 MSTORE SWAP1 DUP3 ADD MSTORE PUSH1 0x60 DUP2 ADD DUP6 SWAP1 MSTORE PUSH1 0x80 ADD PUSH1 0x40 MLOAD DUP1 SWAP2 SUB SWAP1 LOG2 DUP3 DUP5 LT PUSH2 0xBC5 JUMPI PUSH1 0x1 PUSH1 0x1 PUSH1 0xA0 SHL SUB PUSH32 0x0 AND PUSH4 0x40C10F19 ADDRESS PUSH2 0xB62 DUP7 DUP9 PUSH2 0x4A43 JUMP JUMPDEST PUSH1 0x40 MLOAD PUSH1 0x1 PUSH1 0x1 PUSH1 0xE0 SHL SUB NOT PUSH1 0xE0 DUP6 SWAP1 SHL AND DUP2 MSTORE PUSH1 0x1 PUSH1 0x1 PUSH1 0xA0 SHL SUB SWAP1 SWAP3 AND PUSH1 0x4 DUP4 ADD MSTORE PUSH1 0x24 DUP3 ADD MSTORE PUSH1 0x44 ADD PUSH1 0x0 PUSH1 0x40 MLOAD DUP1 DUP4 SUB DUP2 PUSH1 0x0 DUP8 DUP1 EXTCODESIZE ISZERO DUP1 ISZERO PUSH2 0xBA8 JUMPI PUSH1 0x0 DUP1 REVERT JUMPDEST POP GAS CALL ISZERO DUP1 ISZERO PUSH2 0xBBC JUMPI RETURNDATASIZE PUSH1 0x0 DUP1 RETURNDATACOPY RETURNDATASIZE PUSH1 0x0 REVERT JUMPDEST POP POP POP POP PUSH2 0xC4F JUMP JUMPDEST PUSH1 0x1 PUSH1 0x1 PUSH1 0xA0 SHL SUB PUSH32 0x0 AND PUSH4 0x42966C68 PUSH2 0xBFE DUP7 DUP7 PUSH2 0x4A43 JUMP JUMPDEST PUSH1 0x40 MLOAD DUP3 PUSH4 0xFFFFFFFF AND PUSH1 0xE0 SHL DUP2 MSTORE PUSH1 0x4 ADD PUSH2 0xC1C SWAP2 DUP2 MSTORE PUSH1 0x20 ADD SWAP1 JUMP JUMPDEST PUSH1 0x0 PUSH1 0x40 MLOAD DUP1 DUP4 SUB DUP2 PUSH1 0x0 DUP8 DUP1 EXTCODESIZE ISZERO DUP1 ISZERO PUSH2 0xC36 JUMPI PUSH1 0x0 DUP1 REVERT JUMPDEST POP GAS CALL ISZERO DUP1 ISZERO PUSH2 0xC4A JUMPI RETURNDATASIZE PUSH1 0x0 DUP1 RETURNDATACOPY RETURNDATASIZE PUSH1 0x0 REVERT JUMPDEST POP POP POP POP JUMPDEST PUSH1 0x1 PUSH1 0x1 PUSH1 0xA0 SHL SUB PUSH32 0x0 AND PUSH4 0xA9059CBB CALLER PUSH2 0xC89 DUP5 DUP9 PUSH2 0x4A43 JUMP JUMPDEST PUSH1 0x40 MLOAD PUSH1 0x1 PUSH1 0x1 PUSH1 0xE0 SHL SUB NOT PUSH1 0xE0 DUP6 SWAP1 SHL AND DUP2 MSTORE PUSH1 0x1 PUSH1 0x1 PUSH1 0xA0 SHL SUB SWAP1 SWAP3 AND PUSH1 0x4 DUP4 ADD MSTORE PUSH1 0x24 DUP3 ADD MSTORE PUSH1 0x44 ADD PUSH1 0x20 PUSH1 0x40 MLOAD DUP1 DUP4 SUB DUP2 PUSH1 0x0 DUP8 GAS CALL ISZERO DUP1 ISZERO PUSH2 0xCD4 JUMPI RETURNDATASIZE PUSH1 0x0 DUP1 RETURNDATACOPY RETURNDATASIZE PUSH1 0x0 REVERT JUMPDEST POP POP POP POP PUSH1 0x40 MLOAD RETURNDATASIZE PUSH1 0x1F NOT PUSH1 0x1F DUP3 ADD AND DUP3 ADD DUP1 PUSH1 0x40 MSTORE POP DUP2 ADD SWAP1 PUSH2 0xCF8 SWAP2 SWAP1 PUSH2 0x4AC1 JUMP JUMPDEST POP PUSH32 0x0 PUSH1 0x1 PUSH1 0x1 PUSH1 0xA0 SHL SUB AND PUSH4 0xA9059CBB PUSH32 0x0 PUSH1 0x1 PUSH1 0x1 PUSH1 0xA0 SHL SUB AND PUSH4 0x46904840 PUSH1 0x40 MLOAD DUP2 PUSH4 0xFFFFFFFF AND PUSH1 0xE0 SHL DUP2 MSTORE PUSH1 0x4 ADD PUSH1 0x20 PUSH1 0x40 MLOAD DUP1 DUP4 SUB DUP2 DUP7 GAS STATICCALL ISZERO DUP1 ISZERO PUSH2 0xD86 JUMPI RETURNDATASIZE PUSH1 0x0 DUP1 RETURNDATACOPY RETURNDATASIZE PUSH1 0x0 REVERT JUMPDEST POP POP POP POP PUSH1 0x40 MLOAD RETURNDATASIZE PUSH1 0x1F NOT PUSH1 0x1F DUP3 ADD AND DUP3 ADD DUP1 PUSH1 0x40 MSTORE POP DUP2 ADD SWAP1 PUSH2 0xDAA SWAP2 SWAP1 PUSH2 0x4ADE JUMP JUMPDEST PUSH1 0x40 MLOAD PUSH1 0x1 PUSH1 0x1 PUSH1 0xE0 SHL SUB NOT PUSH1 0xE0 DUP5 SWAP1 SHL AND DUP2 MSTORE PUSH1 0x1 PUSH1 0x1 PUSH1 0xA0 SHL SUB SWAP1 SWAP2 AND PUSH1 0x4 DUP3 ADD MSTORE PUSH1 0x24 DUP2 ADD DUP5 SWAP1 MSTORE PUSH1 0x44 ADD PUSH1 0x20 PUSH1 0x40 MLOAD DUP1 DUP4 SUB DUP2 PUSH1 0x0 DUP8 GAS CALL ISZERO DUP1 ISZERO PUSH2 0xDF7 JUMPI RETURNDATASIZE PUSH1 0x0 DUP1 RETURNDATACOPY RETURNDATASIZE PUSH1 0x0 REVERT JUMPDEST POP POP POP POP PUSH1 0x40 MLOAD RETURNDATASIZE PUSH1 0x1F NOT PUSH1 0x1F DUP3 ADD AND DUP3 ADD DUP1 PUSH1 0x40 MSTORE POP DUP2 ADD SWAP1 PUSH2 0xE1B SWAP2 SWAP1 PUSH2 0x4AC1 JUMP JUMPDEST POP POP POP POP POP POP POP POP JUMP JUMPDEST PUSH1 0x19 SLOAD PUSH1 0x0 SWAP1 DUP2 PUSH2 0xE3E PUSH8 0xDE0B6B3A7640000 DUP4 PUSH2 0x2C07 JUMP JUMPDEST PUSH1 0x80 DUP6 ADD MLOAD PUSH1 0xA0 DUP7 ADD MLOAD SWAP2 SWAP3 POP SWAP1 DUP1 ISZERO DUP1 PUSH2 0xE57 JUMPI POP DUP2 ISZERO JUMPDEST ISZERO PUSH2 0xE68 JUMPI POP PUSH1 0x0 SWAP6 SWAP5 POP POP POP POP POP JUMP JUMPDEST PUSH1 0x0 PUSH2 0xE74 DUP4 DUP4 PUSH2 0x2C36 JUMP JUMPDEST SWAP1 POP DUP4 DUP2 LT ISZERO DUP1 ISZERO PUSH2 0xE86 JUMPI POP DUP5 DUP2 GT ISZERO JUMPDEST SWAP8 SWAP7 POP POP POP POP POP POP POP JUMP JUMPDEST PUSH1 0x0 PUSH8 0xDE0B6B3A7640000 DUP5 LT ISZERO PUSH2 0xEEB JUMPI PUSH1 0x40 MLOAD PUSH3 0x461BCD PUSH1 0xE5 SHL DUP2 MSTORE PUSH1 0x20 PUSH1 0x4 DUP3 ADD MSTORE PUSH1 0xD PUSH1 0x24 DUP3 ADD MSTORE PUSH32 0x4F564C56313A6C65763C6D696E00000000000000000000000000000000000000 PUSH1 0x44 DUP3 ADD MSTORE PUSH1 0x64 ADD PUSH2 0x693 JUMP JUMPDEST PUSH2 0xEF7 PUSH1 0x0 PUSH1 0x5 PUSH2 0x2234 JUMP JUMPDEST DUP5 GT ISZERO PUSH2 0xF46 JUMPI PUSH1 0x40 MLOAD PUSH3 0x461BCD PUSH1 0xE5 SHL DUP2 MSTORE PUSH1 0x20 PUSH1 0x4 DUP3 ADD MSTORE PUSH1 0xD PUSH1 0x24 DUP3 ADD MSTORE PUSH32 0x4F564C56313A6C65763E6D617800000000000000000000000000000000000000 PUSH1 0x44 DUP3 ADD MSTORE PUSH1 0x64 ADD PUSH2 0x693 JUMP JUMPDEST PUSH2 0xF52 PUSH1 0x0 PUSH1 0xC PUSH2 0x2234 JUMP JUMPDEST DUP6 LT ISZERO PUSH2 0xFA1 JUMPI PUSH1 0x40 MLOAD PUSH3 0x461BCD PUSH1 0xE5 SHL DUP2 MSTORE PUSH1 0x20 PUSH1 0x4 DUP3 ADD MSTORE PUSH1 0x14 PUSH1 0x24 DUP3 ADD MSTORE PUSH32 0x4F564C56313A636F6C6C61746572616C3C6D696E000000000000000000000000 PUSH1 0x44 DUP3 ADD MSTORE PUSH1 0x64 ADD PUSH2 0x693 JUMP JUMPDEST PUSH1 0x0 DUP1 PUSH1 0x0 DUP1 PUSH1 0x0 PUSH2 0xFB1 PUSH2 0x1B3B JUMP JUMPDEST SWAP1 POP PUSH1 0x0 PUSH2 0xFBF DUP12 DUP12 PUSH2 0x2262 JUMP JUMPDEST SWAP1 POP PUSH1 0x0 PUSH2 0xFCC DUP4 PUSH2 0x2527 JUMP JUMPDEST SWAP1 POP PUSH2 0xFD8 DUP3 DUP3 PUSH2 0x1937 JUMP JUMPDEST SWAP7 POP PUSH1 0x0 DUP8 GT PUSH2 0x102A JUMPI PUSH1 0x40 MLOAD PUSH3 0x461BCD PUSH1 0xE5 SHL DUP2 MSTORE PUSH1 0x20 PUSH1 0x4 DUP3 ADD MSTORE PUSH1 0xB PUSH1 0x24 DUP3 ADD MSTORE PUSH32 0x4F564C56313A6F693D3D30000000000000000000000000000000000000000000 PUSH1 0x44 DUP3 ADD MSTORE PUSH1 0x64 ADD PUSH2 0x693 JUMP JUMPDEST PUSH2 0x1034 DUP13 DUP4 PUSH2 0x4A43 JUMP JUMPDEST SWAP6 POP PUSH2 0x104C PUSH2 0x1045 PUSH1 0x0 PUSH1 0xB PUSH2 0x2234 JUMP JUMPDEST DUP4 SWAP1 PUSH2 0x2262 JUMP JUMPDEST SWAP4 POP PUSH1 0x0 PUSH2 0x106B PUSH2 0x1065 DUP6 PUSH2 0x5F0 PUSH2 0x42F DUP6 PUSH1 0x4 PUSH2 0x2234 JUMP JUMPDEST DUP4 PUSH2 0x1937 JUMP JUMPDEST SWAP1 POP DUP11 PUSH2 0x1086 JUMPI PUSH2 0x1081 DUP5 PUSH2 0x442 DUP7 DUP12 DUP6 PUSH2 0x26CA JUMP JUMPDEST PUSH2 0x1095 JUMP JUMPDEST PUSH2 0x1095 DUP5 PUSH2 0x212 DUP7 DUP12 DUP6 PUSH2 0x2601 JUMP JUMPDEST SWAP6 POP DUP11 PUSH2 0x10A5 JUMPI DUP10 DUP7 LT ISZERO PUSH2 0x10AA JUMP JUMPDEST DUP10 DUP7 GT ISZERO JUMPDEST PUSH2 0x10EB JUMPI PUSH1 0x40 MLOAD PUSH3 0x461BCD PUSH1 0xE5 SHL DUP2 MSTORE PUSH1 0x20 PUSH1 0x4 DUP3 ADD MSTORE PUSH1 0x12 PUSH1 0x24 DUP3 ADD MSTORE PUSH18 0x9EAC98AC6274E6D8D2E0E0C2CECA7CDAC2F PUSH1 0x73 SHL PUSH1 0x44 DUP3 ADD MSTORE PUSH1 0x64 ADD PUSH2 0x693 JUMP JUMPDEST PUSH1 0x0 PUSH2 0x10F8 DUP10 DUP4 DUP15 PUSH2 0x2C67 JUMP JUMPDEST SWAP1 POP PUSH1 0x0 PUSH1 0x40 MLOAD DUP1 PUSH2 0x100 ADD PUSH1 0x40 MSTORE DUP1 DUP7 PUSH12 0xFFFFFFFFFFFFFFFFFFFFFFFF AND DUP2 MSTORE PUSH1 0x20 ADD DUP11 PUSH12 0xFFFFFFFFFFFFFFFFFFFFFFFF AND DUP2 MSTORE PUSH1 0x20 ADD PUSH2 0x1139 DUP7 PUSH2 0x2D2F JUMP JUMPDEST PUSH1 0x2 SIGNEXTEND DUP2 MSTORE PUSH1 0x20 ADD PUSH2 0x114A DUP11 PUSH2 0x2D2F JUMP JUMPDEST PUSH1 0x2 SIGNEXTEND DUP2 MSTORE DUP15 ISZERO ISZERO PUSH1 0x20 DUP3 ADD MSTORE PUSH1 0x0 PUSH1 0x40 DUP3 ADD MSTORE PUSH1 0x1 PUSH1 0x1 PUSH1 0xF0 SHL SUB DUP5 AND PUSH1 0x60 DUP3 ADD MSTORE PUSH1 0x80 ADD PUSH2 0x1181 PUSH8 0xDE0B6B3A7640000 PUSH2 0x234C JUMP JUMPDEST PUSH2 0xFFFF AND SWAP1 MSTORE SWAP1 POP PUSH2 0x11DF DUP14 PUSH2 0x1199 JUMPI PUSH1 0x10 SLOAD PUSH2 0x119D JUMP JUMPDEST PUSH1 0xF SLOAD JUMPDEST DUP15 PUSH2 0x11AA JUMPI PUSH1 0x12 SLOAD PUSH2 0x11AE JUMP JUMPDEST PUSH1 0x11 SLOAD JUMPDEST DUP7 PUSH2 0x11BB PUSH1 0x0 PUSH1 0x3 PUSH2 0x2234 JUMP JUMPDEST PUSH2 0x11C7 PUSH1 0x0 PUSH1 0x8 PUSH2 0x2234 JUMP JUMPDEST PUSH2 0x11D3 PUSH1 0x0 PUSH1 0xA PUSH2 0x2234 JUMP JUMPDEST DUP8 SWAP6 SWAP5 SWAP4 SWAP3 SWAP2 SWAP1 PUSH2 0x253B JUMP JUMPDEST ISZERO PUSH2 0x122C JUMPI PUSH1 0x40 MLOAD PUSH3 0x461BCD PUSH1 0xE5 SHL DUP2 MSTORE PUSH1 0x20 PUSH1 0x4 DUP3 ADD MSTORE PUSH1 0x12 PUSH1 0x24 DUP3 ADD MSTORE PUSH32 0x4F564C56313A6C6971756964617461626C650000000000000000000000000000 PUSH1 0x44 DUP3 ADD MSTORE PUSH1 0x64 ADD PUSH2 0x693 JUMP JUMPDEST PUSH1 0x17 SLOAD SWAP11 POP PUSH2 0x123E PUSH1 0x16 CALLER DUP14 DUP5 PUSH2 0x2A7E JUMP JUMPDEST PUSH1 0x17 DUP1 SLOAD SWAP1 PUSH1 0x0 PUSH2 0x124E DUP4 PUSH2 0x4AFB JUMP JUMPDEST SWAP1 SWAP2 SSTORE POP POP PUSH1 0x40 DUP1 MLOAD DUP13 DUP2 MSTORE PUSH1 0x20 DUP2 ADD DUP13 SWAP1 MSTORE SWAP1 DUP2 ADD DUP11 SWAP1 MSTORE DUP14 ISZERO ISZERO PUSH1 0x60 DUP3 ADD MSTORE PUSH1 0x80 DUP2 ADD DUP10 SWAP1 MSTORE CALLER SWAP7 POP PUSH32 0xB98B46CC473761B09478DB481C36070133BF6B7A18241892F5477E725B063B5A SWAP6 POP PUSH1 0xA0 ADD SWAP4 POP PUSH2 0x12AA SWAP3 POP POP POP JUMP JUMPDEST PUSH1 0x40 MLOAD DUP1 SWAP2 SUB SWAP1 LOG2 PUSH1 0x1 PUSH1 0x1 PUSH1 0xA0 SHL SUB PUSH32 0x0 AND PUSH4 0x23B872DD CALLER ADDRESS PUSH2 0x12ED DUP6 DUP15 PUSH2 0x4A2B JUMP JUMPDEST PUSH1 0x40 MLOAD PUSH1 0x1 PUSH1 0x1 PUSH1 0xE0 SHL SUB NOT PUSH1 0xE0 DUP7 SWAP1 SHL AND DUP2 MSTORE PUSH1 0x1 PUSH1 0x1 PUSH1 0xA0 SHL SUB SWAP4 DUP5 AND PUSH1 0x4 DUP3 ADD MSTORE SWAP3 SWAP1 SWAP2 AND PUSH1 0x24 DUP4 ADD MSTORE PUSH1 0x44 DUP3 ADD MSTORE PUSH1 0x64 ADD PUSH1 0x20 PUSH1 0x40 MLOAD DUP1 DUP4 SUB DUP2 PUSH1 0x0 DUP8 GAS CALL ISZERO DUP1 ISZERO PUSH2 0x1341 JUMPI RETURNDATASIZE PUSH1 0x0 DUP1 RETURNDATACOPY RETURNDATASIZE PUSH1 0x0 REVERT JUMPDEST POP POP POP POP PUSH1 0x40 MLOAD RETURNDATASIZE PUSH1 0x1F NOT PUSH1 0x1F DUP3 ADD AND DUP3 ADD DUP1 PUSH1 0x40 MSTORE POP DUP2 ADD SWAP1 PUSH2 0x1365 SWAP2 SWAP1 PUSH2 0x4AC1 JUMP JUMPDEST POP PUSH32 0x0 PUSH1 0x1 PUSH1 0x1 PUSH1 0xA0 SHL SUB AND PUSH4 0xA9059CBB PUSH32 0x0 PUSH1 0x1 PUSH1 0x1 PUSH1 0xA0 SHL SUB AND PUSH4 0x46904840 PUSH1 0x40 MLOAD DUP2 PUSH4 0xFFFFFFFF AND PUSH1 0xE0 SHL DUP2 MSTORE PUSH1 0x4 ADD PUSH1 0x20 PUSH1 0x40 MLOAD DUP1 DUP4 SUB DUP2 DUP7 GAS STATICCALL ISZERO DUP1 ISZERO PUSH2 0x13F3 JUMPI RETURNDATASIZE PUSH1 0x0 DUP1 RETURNDATACOPY RETURNDATASIZE PUSH1 0x0 REVERT JUMPDEST POP POP POP POP PUSH1 0x40 MLOAD RETURNDATASIZE PUSH1 0x1F NOT PUSH1 0x1F DUP3 ADD AND DUP3 ADD DUP1 PUSH1 0x40 MSTORE POP DUP2 ADD SWAP1 PUSH2 0x1417 SWAP2 SWAP1 PUSH2 0x4ADE JUMP JUMPDEST PUSH1 0x40 MLOAD PUSH1 0x1 PUSH1 0x1 PUSH1 0xE0 SHL SUB NOT PUSH1 0xE0 DUP5 SWAP1 SHL AND DUP2 MSTORE PUSH1 0x1 PUSH1 0x1 PUSH1 0xA0 SHL SUB SWAP1 SWAP2 AND PUSH1 0x4 DUP3 ADD MSTORE PUSH1 0x24 DUP2 ADD DUP5 SWAP1 MSTORE PUSH1 0x44 ADD PUSH1 0x20 PUSH1 0x40 MLOAD DUP1 DUP4 SUB DUP2 PUSH1 0x0 DUP8 GAS CALL ISZERO DUP1 ISZERO PUSH2 0x1464 JUMPI RETURNDATASIZE PUSH1 0x0 DUP1 RETURNDATACOPY RETURNDATASIZE PUSH1 0x0 REVERT JUMPDEST POP POP POP POP PUSH1 0x40 MLOAD RETURNDATASIZE PUSH1 0x1F NOT PUSH1 0x1F DUP3 ADD AND DUP3 ADD DUP1 PUSH1 0x40 MSTORE POP DUP2 ADD SWAP1 PUSH2 0x1488 SWAP2 SWAP1 PUSH2 0x4AC1 JUMP JUMPDEST POP POP POP POP POP SWAP5 SWAP4 POP POP POP POP JUMP JUMPDEST CALLER PUSH1 0x1 PUSH1 0x1 PUSH1 0xA0 SHL SUB PUSH32 0x0 AND EQ PUSH2 0x14FF JUMPI PUSH1 0x40 MLOAD PUSH3 0x461BCD PUSH1 0xE5 SHL DUP2 MSTORE PUSH1 0x20 PUSH1 0x4 DUP3 ADD MSTORE PUSH1 0xF PUSH1 0x24 DUP3 ADD MSTORE PUSH15 0x4F564C56313A2021666163746F7279 PUSH1 0x88 SHL PUSH1 0x44 DUP3 ADD MSTORE PUSH1 0x64 ADD PUSH2 0x693 JUMP JUMPDEST PUSH1 0x0 PUSH32 0x0 PUSH1 0x1 PUSH1 0x1 PUSH1 0xA0 SHL SUB AND PUSH4 0x52BFE789 PUSH1 0x40 MLOAD DUP2 PUSH4 0xFFFFFFFF AND PUSH1 0xE0 SHL DUP2 MSTORE PUSH1 0x4 ADD PUSH2 0x100 PUSH1 0x40 MLOAD DUP1 DUP4 SUB DUP2 DUP7 GAS STATICCALL ISZERO DUP1 ISZERO PUSH2 0x1560 JUMPI RETURNDATASIZE PUSH1 0x0 DUP1 RETURNDATACOPY RETURNDATASIZE PUSH1 0x0 REVERT JUMPDEST POP POP POP POP PUSH1 0x40 MLOAD RETURNDATASIZE PUSH1 0x1F NOT PUSH1 0x1F DUP3 ADD AND DUP3 ADD DUP1 PUSH1 0x40 MSTORE POP DUP2 ADD SWAP1 PUSH2 0x1584 SWAP2 SWAP1 PUSH2 0x4B16 JUMP JUMPDEST SWAP1 POP PUSH1 0x0 PUSH2 0x1591 DUP3 PUSH2 0x2527 JUMP JUMPDEST GT PUSH2 0x15CC JUMPI PUSH1 0x40 MLOAD PUSH3 0x461BCD PUSH1 0xE5 SHL DUP2 MSTORE PUSH1 0x20 PUSH1 0x4 DUP3 ADD MSTORE PUSH1 0xB PUSH1 0x24 DUP3 ADD MSTORE PUSH11 0x4F564C56313A2164617461 PUSH1 0xA8 SHL PUSH1 0x44 DUP3 ADD MSTORE PUSH1 0x64 ADD PUSH2 0x693 JUMP JUMPDEST TIMESTAMP PUSH1 0x18 SSTORE PUSH1 0xA0 DUP3 ADD MLOAD PUSH1 0x40 DUP4 ADD MLOAD PUSH2 0x100 DUP5 ADD MLOAD PUSH2 0x140 DUP6 ADD MLOAD PUSH2 0x1629 PUSH2 0x1605 PUSH2 0x15FE DUP4 PUSH8 0xDE0B6B3A7640000 PUSH2 0x4A43 JUMP JUMPDEST DUP5 SWAP1 PUSH2 0x2C07 JUMP JUMPDEST PUSH2 0x1610 DUP6 PUSH1 0x2 PUSH2 0x4BDC JUMP JUMPDEST PUSH2 0x161A SWAP2 SWAP1 PUSH2 0x4A2B JUMP JUMPDEST PUSH8 0xDE0B6B3A7640000 SWAP1 PUSH2 0x2C07 JUMP JUMPDEST DUP5 GT ISZERO PUSH2 0x1688 JUMPI PUSH1 0x40 MLOAD PUSH3 0x461BCD PUSH1 0xE5 SHL DUP2 MSTORE PUSH1 0x20 PUSH1 0x4 DUP3 ADD MSTORE PUSH1 0x27 PUSH1 0x24 DUP3 ADD MSTORE PUSH32 0x4F564C56313A206D6178206C657620696D6D6564696174656C79206C69717569 PUSH1 0x44 DUP3 ADD MSTORE PUSH7 0x64617461626C65 PUSH1 0xC8 SHL PUSH1 0x64 DUP3 ADD MSTORE PUSH1 0x84 ADD PUSH2 0x693 JUMP JUMPDEST PUSH2 0x1A0 DUP7 ADD MLOAD PUSH1 0x40 DUP7 ADD MLOAD PUSH9 0x1158E460913D00000 SWAP1 PUSH2 0x16A8 SWAP1 DUP4 PUSH2 0x4BDC JUMP JUMPDEST LT PUSH2 0x1700 JUMPI PUSH1 0x40 MLOAD PUSH3 0x461BCD PUSH1 0xE5 SHL DUP2 MSTORE PUSH1 0x20 PUSH1 0x4 DUP3 ADD MSTORE PUSH1 0x22 PUSH1 0x24 DUP3 ADD MSTORE PUSH32 0x4F564C56313A2070726963652064726966742065786365656473206D61782065 PUSH1 0x44 DUP3 ADD MSTORE PUSH2 0x787 PUSH1 0xF4 SHL PUSH1 0x64 DUP3 ADD MSTORE PUSH1 0x84 ADD PUSH2 0x693 JUMP JUMPDEST PUSH2 0x170B PUSH1 0xD DUP3 PUSH2 0x2DC9 JUMP JUMPDEST PUSH1 0x0 JUMPDEST PUSH1 0xF DUP2 LT ISZERO PUSH2 0xE1B JUMPI DUP8 DUP2 PUSH1 0xF DUP2 LT PUSH2 0x1729 JUMPI PUSH2 0x1729 PUSH2 0x4BC6 JUMP JUMPDEST PUSH1 0x20 MUL ADD MLOAD PUSH1 0x0 DUP3 PUSH1 0xF DUP2 LT PUSH2 0x1741 JUMPI PUSH2 0x1741 PUSH2 0x4BC6 JUMP JUMPDEST ADD SSTORE DUP1 PUSH2 0x174D DUP2 PUSH2 0x4AFB JUMP JUMPDEST SWAP2 POP POP PUSH2 0x170E JUMP JUMPDEST CALLER PUSH1 0x1 PUSH1 0x1 PUSH1 0xA0 SHL SUB PUSH32 0x0 AND EQ PUSH2 0x17BF JUMPI PUSH1 0x40 MLOAD PUSH3 0x461BCD PUSH1 0xE5 SHL DUP2 MSTORE PUSH1 0x20 PUSH1 0x4 DUP3 ADD MSTORE PUSH1 0xF PUSH1 0x24 DUP3 ADD MSTORE PUSH15 0x4F564C56313A2021666163746F7279 PUSH1 0x88 SHL PUSH1 0x44 DUP3 ADD MSTORE PUSH1 0x64 ADD PUSH2 0x693 JUMP JUMPDEST PUSH2 0x17C7 PUSH2 0x2E94 JUMP JUMPDEST PUSH2 0x17D1 DUP3 DUP3 PUSH2 0x2F18 JUMP JUMPDEST PUSH2 0x17DB DUP3 DUP3 PUSH2 0x2DC9 JUMP JUMPDEST PUSH2 0x17E7 PUSH1 0x0 DUP4 DUP4 PUSH2 0x335D JUMP JUMPDEST POP POP JUMP JUMPDEST PUSH1 0x0 DUP1 PUSH2 0x17F9 DUP2 PUSH1 0x1 PUSH2 0x2234 JUMP JUMPDEST SWAP1 POP PUSH2 0x1812 DUP4 PUSH1 0xC0 ADD MLOAD DUP3 PUSH2 0x3388 SWAP1 SWAP2 SWAP1 PUSH4 0xFFFFFFFF AND JUMP JUMPDEST SWAP4 SWAP3 POP POP POP JUMP JUMPDEST PUSH1 0x40 DUP1 MLOAD PUSH1 0x60 DUP2 ADD DUP3 MSTORE PUSH1 0x15 SLOAD PUSH4 0xFFFFFFFF DUP1 DUP3 AND DUP4 MSTORE PUSH5 0x100000000 DUP3 DIV DUP2 AND PUSH1 0x20 DUP5 ADD MSTORE PUSH1 0x1 PUSH1 0x40 SHL SWAP1 SWAP2 DIV PUSH1 0x17 SIGNEXTEND SWAP3 DUP3 ADD SWAP3 SWAP1 SWAP3 MSTORE PUSH1 0x0 SWAP2 DUP3 SWAP1 PUSH2 0x1865 SWAP1 DUP3 SWAP1 PUSH1 0x6 SWAP1 PUSH2 0x2234 AND JUMP JUMPDEST SWAP1 POP PUSH2 0x1874 DUP3 TIMESTAMP DUP4 PUSH1 0x0 PUSH2 0x33A9 JUMP JUMPDEST SWAP2 POP PUSH2 0x1880 DUP3 DUP6 PUSH2 0x2163 JUMP JUMPDEST SWAP5 SWAP4 POP POP POP POP JUMP JUMPDEST PUSH1 0x0 PUSH2 0x189C DUP4 PUSH1 0x60 ADD MLOAD DUP5 PUSH1 0x80 ADD MLOAD PUSH2 0x28EC JUMP JUMPDEST SWAP1 POP PUSH1 0x0 PUSH2 0x18AB DUP2 PUSH1 0x2 PUSH2 0x2234 JUMP JUMPDEST SWAP1 POP PUSH1 0x0 PUSH2 0x18BA DUP2 PUSH1 0x1 PUSH2 0x2234 JUMP JUMPDEST SWAP1 POP PUSH1 0x0 PUSH2 0x18C8 DUP3 DUP7 PUSH2 0x2262 JUMP JUMPDEST PUSH2 0x18D2 SWAP1 DUP5 PUSH2 0x4A2B JUMP JUMPDEST SWAP1 POP PUSH9 0x1158E460913D00000 DUP2 LT PUSH2 0x1921 JUMPI PUSH1 0x40 MLOAD PUSH3 0x461BCD PUSH1 0xE5 SHL DUP2 MSTORE PUSH1 0x20 PUSH1 0x4 DUP3 ADD MSTORE PUSH1 0x12 PUSH1 0x24 DUP3 ADD MSTORE PUSH18 0x9EAC98AC6274E6D8D2E0E0C2CECA7CDAC2F PUSH1 0x73 SHL PUSH1 0x44 DUP3 ADD MSTORE PUSH1 0x64 ADD PUSH2 0x693 JUMP JUMPDEST PUSH2 0x6AF PUSH2 0x1930 PUSH2 0x161A DUP4 PUSH2 0x22B1 JUMP JUMPDEST DUP6 SWAP1 PUSH2 0x3388 JUMP JUMPDEST PUSH1 0x0 PUSH2 0x1943 DUP4 DUP4 PUSH2 0x2C07 JUMP JUMPDEST SWAP1 POP JUMPDEST SWAP3 SWAP2 POP POP JUMP JUMPDEST PUSH1 0x0 DUP1 PUSH2 0x195A DUP2 PUSH1 0xE PUSH2 0x2234 JUMP JUMPDEST SWAP1 POP PUSH1 0x0 DUP2 PUSH8 0xDE0B6B3A7640000 DUP6 PUSH1 0x40 ADD MLOAD PUSH2 0x1977 SWAP2 SWAP1 PUSH2 0x4BDC JUMP JUMPDEST PUSH2 0x1981 SWAP2 SWAP1 PUSH2 0x4C11 JUMP JUMPDEST SWAP1 POP PUSH1 0x0 PUSH2 0x1990 DUP2 PUSH1 0x2 PUSH2 0x2234 JUMP JUMPDEST SWAP1 POP PUSH2 0x19C9 PUSH2 0x19A8 PUSH8 0xDE0B6B3A7640000 PUSH1 0x2 PUSH2 0x4BDC JUMP JUMPDEST PUSH2 0x19C3 DUP5 PUSH2 0x19C3 DUP10 PUSH1 0xC0 ADD MLOAD DUP7 PUSH2 0x3388 SWAP1 SWAP2 SWAP1 PUSH4 0xFFFFFFFF AND JUMP JUMPDEST SWAP1 PUSH2 0x3388 JUMP JUMPDEST SWAP6 SWAP5 POP POP POP POP POP JUMP JUMPDEST PUSH1 0x0 DUP2 PUSH1 0xF DUP2 LT PUSH2 0x19E2 JUMPI PUSH1 0x0 DUP1 REVERT JUMPDEST ADD SLOAD SWAP1 POP DUP2 JUMP JUMPDEST PUSH1 0x0 DUP1 DUP1 PUSH2 0x19F7 DUP6 DUP8 PUSH2 0x4A2B JUMP JUMPDEST SWAP1 POP PUSH1 0x0 PUSH2 0x1A05 DUP7 DUP9 PUSH2 0x4A43 JUMP JUMPDEST SWAP1 POP PUSH1 0x0 PUSH2 0x1A13 DUP8 DUP10 PUSH2 0x2262 JUMP JUMPDEST SWAP1 POP DUP3 ISZERO DUP1 PUSH2 0x1A20 JUMPI POP DUP2 ISZERO JUMPDEST ISZERO PUSH2 0x1A33 JUMPI DUP8 DUP8 SWAP5 POP SWAP5 POP POP POP POP PUSH2 0x1B33 JUMP JUMPDEST PUSH1 0x0 DUP1 DUP8 PUSH2 0x1A41 DUP3 DUP1 PUSH2 0x2234 JUMP JUMPDEST PUSH2 0x1A4C SWAP1 PUSH1 0x2 PUSH2 0x4BDC JUMP JUMPDEST PUSH2 0x1A56 SWAP2 SWAP1 PUSH2 0x4BDC JUMP JUMPDEST SWAP1 POP PUSH9 0x1158E460913D00000 DUP2 LT ISZERO PUSH2 0x1A78 JUMPI PUSH2 0x1A75 PUSH2 0x161A DUP3 PUSH2 0x22B1 JUMP JUMPDEST SWAP2 POP JUMPDEST PUSH1 0x0 PUSH2 0x1A84 DUP6 DUP8 PUSH2 0x2C07 JUMP JUMPDEST SWAP1 POP PUSH1 0x0 PUSH2 0x1AB1 PUSH2 0x1A95 DUP6 DUP1 PUSH2 0x3388 JUMP JUMPDEST PUSH2 0x1AA7 SWAP1 PUSH8 0xDE0B6B3A7640000 PUSH2 0x4A43 JUMP JUMPDEST PUSH2 0x19C3 DUP5 DUP1 PUSH2 0x3388 JUMP JUMPDEST PUSH2 0x1AC3 SWAP1 PUSH8 0xDE0B6B3A7640000 PUSH2 0x4A43 JUMP JUMPDEST SWAP1 POP PUSH2 0x1AEC PUSH2 0x1AE5 PUSH2 0x1ADE PUSH1 0x2 PUSH8 0xDE0B6B3A7640000 PUSH2 0x4C11 JUMP JUMPDEST DUP4 SWAP1 PUSH2 0x35A6 JUMP JUMPDEST DUP9 SWAP1 PUSH2 0x3388 JUMP JUMPDEST SWAP7 POP PUSH2 0x1AF8 DUP7 DUP6 PUSH2 0x3388 JUMP JUMPDEST SWAP6 POP PUSH1 0x2 PUSH2 0x1B06 DUP8 DUP10 PUSH2 0x4A2B JUMP JUMPDEST PUSH2 0x1B10 SWAP2 SWAP1 PUSH2 0x4C11 JUMP JUMPDEST SWAP12 POP DUP12 ISZERO PUSH2 0x1B25 JUMPI PUSH2 0x1B22 DUP6 DUP14 PUSH2 0x2C36 JUMP JUMPDEST SWAP11 POP JUMPDEST DUP12 DUP12 SWAP9 POP SWAP9 POP POP POP POP POP POP POP POP JUMPDEST SWAP4 POP SWAP4 SWAP2 POP POP JUMP JUMPDEST PUSH2 0x1B85 PUSH1 0x40 MLOAD DUP1 PUSH2 0x100 ADD PUSH1 0x40 MSTORE DUP1 PUSH1 0x0 DUP2 MSTORE PUSH1 0x20 ADD PUSH1 0x0 DUP2 MSTORE PUSH1 0x20 ADD PUSH1 0x0 DUP2 MSTORE PUSH1 0x20 ADD PUSH1 0x0 DUP2 MSTORE PUSH1 0x20 ADD PUSH1 0x0 DUP2 MSTORE PUSH1 0x20 ADD PUSH1 0x0 DUP2 MSTORE PUSH1 0x20 ADD PUSH1 0x0 DUP2 MSTORE PUSH1 0x20 ADD PUSH1 0x0 ISZERO ISZERO DUP2 MSTORE POP SWAP1 JUMP JUMPDEST PUSH2 0x1B8D PUSH2 0x2E94 JUMP JUMPDEST PUSH1 0x0 PUSH32 0x0 PUSH1 0x1 PUSH1 0x1 PUSH1 0xA0 SHL SUB AND PUSH4 0x52BFE789 PUSH1 0x40 MLOAD DUP2 PUSH4 0xFFFFFFFF AND PUSH1 0xE0 SHL DUP2 MSTORE PUSH1 0x4 ADD PUSH2 0x100 PUSH1 0x40 MLOAD DUP1 DUP4 SUB DUP2 DUP7 GAS STATICCALL ISZERO DUP1 ISZERO PUSH2 0x1BEE JUMPI RETURNDATASIZE PUSH1 0x0 DUP1 RETURNDATACOPY RETURNDATASIZE PUSH1 0x0 REVERT JUMPDEST POP POP POP POP PUSH1 0x40 MLOAD RETURNDATASIZE PUSH1 0x1F NOT PUSH1 0x1F DUP3 ADD AND DUP3 ADD DUP1 PUSH1 0x40 MSTORE POP DUP2 ADD SWAP1 PUSH2 0x1C12 SWAP2 SWAP1 PUSH2 0x4B16 JUMP JUMPDEST SWAP1 POP PUSH2 0x1C1D DUP2 PUSH2 0xE25 JUMP JUMPDEST PUSH2 0x1C57 JUMPI PUSH1 0x40 MLOAD PUSH3 0x461BCD PUSH1 0xE5 SHL DUP2 MSTORE PUSH1 0x20 PUSH1 0x4 DUP3 ADD MSTORE PUSH1 0xB PUSH1 0x24 DUP3 ADD MSTORE PUSH11 0x4F564C56313A2164617461 PUSH1 0xA8 SHL PUSH1 0x44 DUP3 ADD MSTORE PUSH1 0x64 ADD PUSH2 0x693 JUMP JUMPDEST SWAP2 SWAP1 POP JUMP JUMPDEST PUSH1 0x0 DUP1 DUP1 DUP1 DUP1 DUP1 DUP1 PUSH2 0x1C70 PUSH1 0x16 DUP11 DUP11 PUSH2 0x23EC JUMP JUMPDEST SWAP1 POP PUSH2 0x1C7B DUP2 PUSH2 0x250A JUMP JUMPDEST PUSH2 0x1CB9 JUMPI PUSH1 0x40 MLOAD PUSH3 0x461BCD PUSH1 0xE5 SHL DUP2 MSTORE PUSH1 0x20 PUSH1 0x4 DUP3 ADD MSTORE PUSH1 0xF PUSH1 0x24 DUP3 ADD MSTORE PUSH15 0x27AB262B189D10B837B9B4BA34B7B7 PUSH1 0x89 SHL PUSH1 0x44 DUP3 ADD MSTORE PUSH1 0x64 ADD PUSH2 0x693 JUMP JUMPDEST PUSH1 0x0 PUSH2 0x1CC3 PUSH2 0x1B3B JUMP JUMPDEST SWAP1 POP PUSH1 0x0 DUP3 PUSH1 0x80 ADD MLOAD PUSH2 0x1CD8 JUMPI PUSH1 0x10 SLOAD PUSH2 0x1CDC JUMP JUMPDEST PUSH1 0xF SLOAD JUMPDEST SWAP1 POP PUSH1 0x0 DUP4 PUSH1 0x80 ADD MLOAD PUSH2 0x1CF1 JUMPI PUSH1 0x12 SLOAD PUSH2 0x1CF5 JUMP JUMPDEST PUSH1 0x11 SLOAD JUMPDEST SWAP1 POP PUSH1 0x0 PUSH2 0x1D04 DUP2 PUSH1 0x3 PUSH2 0x2234 JUMP JUMPDEST SWAP1 POP PUSH8 0xDE0B6B3A7640000 PUSH2 0x1D18 DUP6 PUSH2 0x2527 JUMP JUMPDEST SWAP10 POP PUSH2 0x1D45 DUP5 DUP5 DUP13 DUP6 PUSH2 0x1D2D PUSH1 0x0 PUSH1 0x8 PUSH2 0x2234 JUMP JUMPDEST PUSH2 0x1D39 PUSH1 0x0 PUSH1 0xA PUSH2 0x2234 JUMP JUMPDEST DUP13 SWAP6 SWAP5 SWAP4 SWAP3 SWAP2 SWAP1 PUSH2 0x253B JUMP JUMPDEST PUSH2 0x1D91 JUMPI PUSH1 0x40 MLOAD PUSH3 0x461BCD PUSH1 0xE5 SHL DUP2 MSTORE PUSH1 0x20 PUSH1 0x4 DUP3 ADD MSTORE PUSH1 0x13 PUSH1 0x24 DUP3 ADD MSTORE PUSH32 0x4F564C56313A216C6971756964617461626C6500000000000000000000000000 PUSH1 0x44 DUP3 ADD MSTORE PUSH1 0x64 ADD PUSH2 0x693 JUMP JUMPDEST PUSH2 0x1D9F DUP7 DUP3 DUP7 DUP7 DUP15 DUP8 PUSH2 0x278E JUMP JUMPDEST SWAP12 POP PUSH2 0x1DAB DUP7 DUP3 PUSH2 0x289A JUMP JUMPDEST SWAP11 POP PUSH2 0x1DC3 PUSH2 0x1DBC PUSH1 0x0 PUSH1 0xA PUSH2 0x2234 JUMP JUMPDEST DUP14 SWAP1 PUSH2 0x3388 JUMP JUMPDEST SWAP9 POP PUSH2 0x1DCF DUP10 DUP14 PUSH2 0x4A43 JUMP JUMPDEST SWAP7 POP PUSH2 0x1DE0 PUSH2 0x1AE5 PUSH1 0x0 PUSH1 0x9 PUSH2 0x2234 JUMP JUMPDEST SWAP8 POP PUSH2 0x1DEC DUP9 DUP9 PUSH2 0x4A43 JUMP JUMPDEST SWAP7 POP DUP6 PUSH1 0x80 ADD MLOAD ISZERO PUSH2 0x1E30 JUMPI PUSH2 0x1E07 PUSH2 0x9DF DUP8 DUP4 DUP8 DUP8 PUSH2 0x25C4 JUMP JUMPDEST PUSH1 0xF SSTORE PUSH2 0x1E14 DUP7 DUP3 PUSH2 0x2916 JUMP JUMPDEST PUSH1 0x11 PUSH1 0x0 DUP3 DUP3 SLOAD PUSH2 0x1E25 SWAP2 SWAP1 PUSH2 0x4A43 JUMP JUMPDEST SWAP1 SWAP2 SSTORE POP PUSH2 0x1E63 SWAP1 POP JUMP JUMPDEST PUSH2 0x1E3F PUSH2 0xA20 DUP8 DUP4 DUP8 DUP8 PUSH2 0x25C4 JUMP JUMPDEST PUSH1 0x10 SSTORE PUSH2 0x1E4C DUP7 DUP3 PUSH2 0x2916 JUMP JUMPDEST PUSH1 0x12 PUSH1 0x0 DUP3 DUP3 SLOAD PUSH2 0x1E5D SWAP2 SWAP1 PUSH2 0x4A43 JUMP JUMPDEST SWAP1 SWAP2 SSTORE POP POP JUMPDEST PUSH2 0x1E7B DUP9 PUSH2 0x1E71 DUP14 DUP16 PUSH2 0x4A5A JUMP JUMPDEST PUSH2 0xA5A SWAP2 SWAP1 PUSH2 0x4A5A JUMP JUMPDEST POP PUSH1 0x1 PUSH1 0xA0 DUP8 ADD MSTORE PUSH1 0x0 PUSH1 0xC0 DUP8 ADD DUP2 SWAP1 MSTORE PUSH1 0xE0 DUP8 ADD MSTORE PUSH2 0x1E9E PUSH1 0x16 DUP16 DUP16 DUP10 PUSH2 0x2A7E JUMP JUMPDEST POP POP POP POP POP POP DUP8 PUSH1 0x1 PUSH1 0x1 PUSH1 0xA0 SHL SUB AND CALLER PUSH1 0x1 PUSH1 0x1 PUSH1 0xA0 SHL SUB AND PUSH32 0xF1DEB4D6391F20E8CAD919356063127CF8453DA1FDF246EB1B5E4549E848112E DUP10 DUP6 DUP10 DUP12 PUSH2 0x1EE7 SWAP2 SWAP1 PUSH2 0x4A5A JUMP JUMPDEST PUSH2 0x1EF1 SWAP2 SWAP1 PUSH2 0x4A5A JUMP JUMPDEST PUSH1 0x40 DUP1 MLOAD SWAP3 DUP4 MSTORE PUSH1 0x20 DUP4 ADD SWAP2 SWAP1 SWAP2 MSTORE DUP2 ADD DUP9 SWAP1 MSTORE PUSH1 0x60 ADD PUSH1 0x40 MLOAD DUP1 SWAP2 SUB SWAP1 LOG3 PUSH1 0x1 PUSH1 0x1 PUSH1 0xA0 SHL SUB PUSH32 0x0 AND PUSH4 0x42966C68 DUP4 PUSH2 0x1F4A DUP10 DUP10 PUSH2 0x4A43 JUMP JUMPDEST PUSH2 0x1F54 SWAP2 SWAP1 PUSH2 0x4A2B JUMP JUMPDEST PUSH1 0x40 MLOAD DUP3 PUSH4 0xFFFFFFFF AND PUSH1 0xE0 SHL DUP2 MSTORE PUSH1 0x4 ADD PUSH2 0x1F72 SWAP2 DUP2 MSTORE PUSH1 0x20 ADD SWAP1 JUMP JUMPDEST PUSH1 0x0 PUSH1 0x40 MLOAD DUP1 DUP4 SUB DUP2 PUSH1 0x0 DUP8 DUP1 EXTCODESIZE ISZERO DUP1 ISZERO PUSH2 0x1F8C JUMPI PUSH1 0x0 DUP1 REVERT JUMPDEST POP GAS CALL ISZERO DUP1 ISZERO PUSH2 0x1FA0 JUMPI RETURNDATASIZE PUSH1 0x0 DUP1 RETURNDATACOPY RETURNDATASIZE PUSH1 0x0 REVERT JUMPDEST POP POP PUSH1 0x40 MLOAD PUSH4 0xA9059CBB PUSH1 0xE0 SHL DUP2 MSTORE CALLER PUSH1 0x4 DUP3 ADD MSTORE PUSH1 0x24 DUP2 ADD DUP7 SWAP1 MSTORE PUSH32 0x0 PUSH1 0x1 PUSH1 0x1 PUSH1 0xA0 SHL SUB AND SWAP3 POP PUSH4 0xA9059CBB SWAP2 POP PUSH1 0x44 ADD PUSH1 0x20 PUSH1 0x40 MLOAD DUP1 DUP4 SUB DUP2 PUSH1 0x0 DUP8 GAS CALL ISZERO DUP1 ISZERO PUSH2 0x2011 JUMPI RETURNDATASIZE PUSH1 0x0 DUP1 RETURNDATACOPY RETURNDATASIZE PUSH1 0x0 REVERT JUMPDEST POP POP POP POP PUSH1 0x40 MLOAD RETURNDATASIZE PUSH1 0x1F NOT PUSH1 0x1F DUP3 ADD AND DUP3 ADD DUP1 PUSH1 0x40 MSTORE POP DUP2 ADD SWAP1 PUSH2 0x2035 SWAP2 SWAP1 PUSH2 0x4AC1 JUMP JUMPDEST POP PUSH32 0x0 PUSH1 0x1 PUSH1 0x1 PUSH1 0xA0 SHL SUB AND PUSH4 0xA9059CBB PUSH32 0x0 PUSH1 0x1 PUSH1 0x1 PUSH1 0xA0 SHL SUB AND PUSH4 0x46904840 PUSH1 0x40 MLOAD DUP2 PUSH4 0xFFFFFFFF AND PUSH1 0xE0 SHL DUP2 MSTORE PUSH1 0x4 ADD PUSH1 0x20 PUSH1 0x40 MLOAD DUP1 DUP4 SUB DUP2 DUP7 GAS STATICCALL ISZERO DUP1 ISZERO PUSH2 0x20C3 JUMPI RETURNDATASIZE PUSH1 0x0 DUP1 RETURNDATACOPY RETURNDATASIZE PUSH1 0x0 REVERT JUMPDEST POP POP POP POP PUSH1 0x40 MLOAD RETURNDATASIZE PUSH1 0x1F NOT PUSH1 0x1F DUP3 ADD AND DUP3 ADD DUP1 PUSH1 0x40 MSTORE POP DUP2 ADD SWAP1 PUSH2 0x20E7 SWAP2 SWAP1 PUSH2 0x4ADE JUMP JUMPDEST PUSH1 0x40 MLOAD PUSH1 0x1 PUSH1 0x1 PUSH1 0xE0 SHL SUB NOT PUSH1 0xE0 DUP5 SWAP1 SHL AND DUP2 MSTORE PUSH1 0x1 PUSH1 0x1 PUSH1 0xA0 SHL SUB SWAP1 SWAP2 AND PUSH1 0x4 DUP3 ADD MSTORE PUSH1 0x24 DUP2 ADD DUP5 SWAP1 MSTORE PUSH1 0x44 ADD PUSH1 0x20 PUSH1 0x40 MLOAD DUP1 DUP4 SUB DUP2 PUSH1 0x0 DUP8 GAS CALL ISZERO DUP1 ISZERO PUSH2 0x2134 JUMPI RETURNDATASIZE PUSH1 0x0 DUP1 RETURNDATACOPY RETURNDATASIZE PUSH1 0x0 REVERT JUMPDEST POP POP POP POP PUSH1 0x40 MLOAD RETURNDATASIZE PUSH1 0x1F NOT PUSH1 0x1F DUP3 ADD AND DUP3 ADD DUP1 PUSH1 0x40 MSTORE POP DUP2 ADD SWAP1 PUSH2 0x2158 SWAP2 SWAP1 PUSH2 0x4AC1 JUMP JUMPDEST POP POP POP POP POP POP POP POP POP JUMP JUMPDEST PUSH1 0x0 DUP1 PUSH2 0x2174 DUP5 PUSH1 0x40 ADD MLOAD PUSH1 0x17 SIGNEXTEND SWAP1 JUMP JUMPDEST SWAP1 POP PUSH1 0x0 PUSH2 0x2183 DUP2 PUSH1 0x7 PUSH2 0x2234 JUMP JUMPDEST SWAP1 POP DUP1 DUP3 SGT PUSH2 0x2196 JUMPI DUP4 SWAP3 POP POP POP PUSH2 0x1946 JUMP JUMPDEST PUSH2 0x21A1 DUP2 PUSH1 0x2 PUSH2 0x4C25 JUMP JUMPDEST DUP3 SLT PUSH2 0x21B2 JUMPI PUSH1 0x0 SWAP3 POP POP POP PUSH2 0x1946 JUMP JUMPDEST PUSH1 0x0 PUSH2 0x21BE DUP4 DUP4 PUSH2 0x2C07 JUMP JUMPDEST PUSH2 0x21D1 PUSH8 0xDE0B6B3A7640000 PUSH1 0x2 PUSH2 0x4BDC JUMP JUMPDEST PUSH2 0x21DB SWAP2 SWAP1 PUSH2 0x4A43 JUMP JUMPDEST SWAP1 POP PUSH2 0x6AF DUP6 DUP3 PUSH2 0x3388 JUMP JUMPDEST PUSH1 0x0 DUP3 PUSH1 0xE0 ADD MLOAD ISZERO PUSH2 0x2217 JUMPI PUSH2 0x2205 DUP3 PUSH2 0x2200 DUP6 PUSH2 0x17EB JUMP JUMPDEST PUSH2 0x28EC JUMP JUMPDEST SWAP2 POP PUSH2 0x2214 DUP3 PUSH2 0x2200 DUP6 PUSH2 0x194C JUMP JUMPDEST SWAP2 POP JUMPDEST POP SWAP2 SWAP1 POP JUMP JUMPDEST PUSH1 0x0 DUP2 DUP4 LT ISZERO PUSH2 0x222D JUMPI DUP2 PUSH2 0x1943 JUMP JUMPDEST POP SWAP1 SWAP2 SWAP1 POP JUMP JUMPDEST PUSH1 0x0 DUP3 DUP3 PUSH1 0xE DUP2 GT ISZERO PUSH2 0x2249 JUMPI PUSH2 0x2249 PUSH2 0x4BB0 JUMP JUMPDEST PUSH1 0xF DUP2 LT PUSH2 0x2259 JUMPI PUSH2 0x2259 PUSH2 0x4BC6 JUMP JUMPDEST ADD SLOAD SWAP4 SWAP3 POP POP POP JUMP JUMPDEST PUSH1 0x0 DUP1 PUSH2 0x226F DUP4 DUP6 PUSH2 0x4BDC JUMP JUMPDEST SWAP1 POP DUP1 PUSH2 0x2280 JUMPI PUSH1 0x0 SWAP2 POP POP PUSH2 0x1946 JUMP JUMPDEST PUSH8 0xDE0B6B3A7640000 PUSH2 0x2294 PUSH1 0x1 DUP4 PUSH2 0x4A43 JUMP JUMPDEST PUSH2 0x229E SWAP2 SWAP1 PUSH2 0x4C11 JUMP JUMPDEST PUSH2 0x22A9 SWAP1 PUSH1 0x1 PUSH2 0x4A2B JUMP JUMPDEST SWAP2 POP POP PUSH2 0x1946 JUMP JUMPDEST PUSH1 0x0 DUP2 PUSH2 0x22C7 JUMPI POP PUSH8 0xDE0B6B3A7640000 SWAP2 SWAP1 POP JUMP JUMPDEST PUSH1 0x1 PUSH1 0xFF SHL DUP3 LT PUSH2 0x231A JUMPI PUSH1 0x40 MLOAD PUSH3 0x461BCD PUSH1 0xE5 SHL DUP2 MSTORE PUSH1 0x20 PUSH1 0x4 DUP3 ADD MSTORE PUSH1 0x1B PUSH1 0x24 DUP3 ADD MSTORE PUSH32 0x4669786564506F696E743A2078206F7574206F6620626F756E64730000000000 PUSH1 0x44 DUP3 ADD MSTORE PUSH1 0x64 ADD PUSH2 0x693 JUMP JUMPDEST DUP2 PUSH1 0x0 PUSH2 0x2326 DUP3 PUSH2 0x3698 JUMP JUMPDEST SWAP1 POP PUSH1 0x0 PUSH2 0x2340 PUSH2 0x2339 DUP4 PUSH2 0x2710 PUSH2 0x2262 JUMP JUMPDEST PUSH1 0x1 PUSH2 0x3A7B JUMP JUMPDEST SWAP1 POP PUSH2 0x19C9 DUP3 DUP3 PUSH2 0x3A7B JUMP JUMPDEST PUSH1 0x0 DUP1 PUSH2 0x2363 PUSH2 0x2710 PUSH8 0xDE0B6B3A7640000 PUSH2 0x4C11 JUMP JUMPDEST SWAP1 POP PUSH1 0x0 PUSH2 0x2371 DUP3 DUP6 PUSH2 0x4C11 JUMP JUMPDEST SWAP1 POP PUSH2 0xFFFF DUP2 GT ISZERO PUSH2 0x1812 JUMPI PUSH1 0x40 MLOAD PUSH3 0x461BCD PUSH1 0xE5 SHL DUP2 MSTORE PUSH1 0x20 PUSH1 0x4 DUP3 ADD MSTORE PUSH1 0x1E PUSH1 0x24 DUP3 ADD MSTORE PUSH32 0x4F564C56313A20466978656443617374206F7574206F6620626F756E64730000 PUSH1 0x44 DUP3 ADD MSTORE PUSH1 0x64 ADD PUSH2 0x693 JUMP JUMPDEST PUSH1 0x0 DUP1 PUSH2 0x23DC PUSH2 0x2710 PUSH8 0xDE0B6B3A7640000 PUSH2 0x4C11 JUMP JUMPDEST SWAP1 POP PUSH2 0x1812 DUP2 PUSH2 0xFFFF DUP6 AND PUSH2 0x4BDC JUMP JUMPDEST PUSH1 0x40 DUP1 MLOAD PUSH2 0x100 DUP2 ADD DUP3 MSTORE PUSH1 0x0 DUP1 DUP3 MSTORE PUSH1 0x20 DUP1 DUP4 ADD DUP3 SWAP1 MSTORE DUP3 DUP5 ADD DUP3 SWAP1 MSTORE PUSH1 0x60 DUP1 DUP5 ADD DUP4 SWAP1 MSTORE PUSH1 0x80 DUP5 ADD DUP4 SWAP1 MSTORE PUSH1 0xA0 DUP5 ADD DUP4 SWAP1 MSTORE PUSH1 0xC0 DUP5 ADD DUP4 SWAP1 MSTORE PUSH1 0xE0 SWAP1 SWAP4 ADD DUP3 SWAP1 MSTORE DUP4 MLOAD SWAP6 SWAP1 SWAP3 SHL PUSH12 0xFFFFFFFFFFFFFFFFFFFFFFFF NOT AND DUP6 DUP4 ADD MSTORE PUSH1 0x34 DUP1 DUP7 ADD SWAP5 SWAP1 SWAP5 MSTORE DUP3 MLOAD DUP1 DUP7 SUB SWAP1 SWAP5 ADD DUP5 MSTORE PUSH1 0x54 DUP6 ADD DUP1 DUP5 MSTORE DUP5 MLOAD SWAP5 DUP4 ADD SWAP5 SWAP1 SWAP5 KECCAK256 DUP2 MSTORE SWAP5 SWAP1 MSTORE SWAP3 DUP4 SWAP1 KECCAK256 PUSH2 0x154 DUP4 ADD SWAP1 SWAP4 MSTORE DUP3 SLOAD PUSH12 0xFFFFFFFFFFFFFFFFFFFFFFFF DUP1 DUP3 AND DUP4 MSTORE PUSH1 0x1 PUSH1 0x60 SHL DUP3 DIV AND PUSH1 0x74 DUP5 ADD MSTORE PUSH1 0x1 PUSH1 0xC0 SHL DUP2 DIV PUSH1 0x2 SWAP1 DUP2 SIGNEXTEND PUSH1 0x94 DUP6 ADD MSTORE PUSH1 0x1 PUSH1 0xD8 SHL DUP3 DIV SWAP1 SIGNEXTEND PUSH1 0xB4 DUP5 ADD MSTORE PUSH1 0x1 PUSH1 0xF0 SHL DUP1 DUP3 DIV PUSH1 0xFF SWAP1 DUP2 AND ISZERO ISZERO PUSH1 0xD4 DUP7 ADD MSTORE PUSH1 0x1 PUSH1 0xF8 SHL SWAP1 SWAP3 DIV SWAP1 SWAP2 AND ISZERO ISZERO PUSH1 0xF4 DUP5 ADD MSTORE PUSH1 0x1 SWAP1 SWAP4 ADD SLOAD PUSH1 0x1 PUSH1 0x1 PUSH1 0xF0 SHL SUB DUP2 AND PUSH2 0x114 DUP5 ADD MSTORE SWAP3 SWAP1 SWAP3 DIV PUSH2 0xFFFF AND PUSH2 0x134 SWAP1 SWAP2 ADD MSTORE SWAP1 JUMP JUMPDEST PUSH1 0x0 DUP2 PUSH1 0xA0 ADD MLOAD ISZERO DUP1 ISZERO PUSH2 0x1946 JUMPI POP POP PUSH1 0xE0 ADD MLOAD PUSH2 0xFFFF AND ISZERO ISZERO SWAP1 JUMP JUMPDEST PUSH1 0x0 PUSH2 0x1946 DUP3 PUSH1 0x60 ADD MLOAD DUP4 PUSH1 0x80 ADD MLOAD PUSH2 0x3A88 JUMP JUMPDEST PUSH1 0x0 PUSH8 0xDE0B6B3A7640000 DUP2 PUSH2 0x2551 DUP11 DUP4 PUSH2 0x3AA3 JUMP JUMPDEST SWAP1 POP DUP10 PUSH1 0xA0 ADD MLOAD DUP1 PUSH2 0x2569 JUMPI POP PUSH1 0xE0 DUP11 ADD MLOAD PUSH2 0xFFFF AND ISZERO JUMPDEST ISZERO PUSH2 0x2579 JUMPI PUSH1 0x0 SWAP3 POP POP POP PUSH2 0xE86 JUMP JUMPDEST PUSH1 0x0 PUSH2 0x2589 DUP12 DUP5 DUP13 DUP13 DUP13 DUP13 PUSH2 0x278E JUMP JUMPDEST SWAP1 POP PUSH1 0x0 PUSH2 0x2597 DUP4 DUP9 PUSH2 0x2262 JUMP JUMPDEST SWAP1 POP PUSH1 0x0 PUSH2 0x25A5 DUP4 DUP9 PUSH2 0x3388 JUMP JUMPDEST SWAP1 POP PUSH2 0x25B1 DUP2 DUP4 PUSH2 0x4A2B JUMP JUMPDEST SWAP1 SWAP3 LT SWAP13 SWAP12 POP POP POP POP POP POP POP POP POP POP POP POP JUMP JUMPDEST PUSH1 0x0 DUP1 PUSH2 0x25D1 DUP7 DUP7 PUSH2 0x2916 JUMP JUMPDEST SWAP1 POP DUP1 ISZERO DUP1 PUSH2 0x25DE JUMPI POP DUP4 ISZERO JUMPDEST DUP1 PUSH2 0x25E7 JUMPI POP DUP3 ISZERO JUMPDEST ISZERO PUSH2 0x25F6 JUMPI PUSH1 0x0 SWAP2 POP POP PUSH2 0x1880 JUMP JUMPDEST PUSH2 0x6AF DUP2 DUP6 DUP6 PUSH2 0x3AD9 JUMP JUMPDEST PUSH1 0x40 DUP1 MLOAD PUSH1 0x60 DUP2 ADD DUP3 MSTORE PUSH1 0x14 SLOAD PUSH4 0xFFFFFFFF DUP1 DUP3 AND DUP4 MSTORE PUSH5 0x100000000 DUP3 DIV DUP2 AND PUSH1 0x20 DUP5 ADD MSTORE PUSH1 0x1 PUSH1 0x40 SHL SWAP1 SWAP2 DIV PUSH1 0x17 SIGNEXTEND SWAP3 DUP3 ADD SWAP3 SWAP1 SWAP3 MSTORE PUSH1 0x0 SWAP2 DUP3 SWAP1 PUSH2 0x264C SWAP1 DUP7 SWAP1 DUP7 SWAP1 PUSH2 0x2C36 AND JUMP JUMPDEST PUSH1 0x20 DUP8 ADD MLOAD SWAP1 SWAP2 POP PUSH2 0x2662 SWAP1 DUP4 SWAP1 TIMESTAMP SWAP1 DUP5 PUSH2 0x33A9 JUMP JUMPDEST DUP1 MLOAD PUSH1 0x14 DUP1 SLOAD PUSH1 0x20 DUP5 ADD MLOAD PUSH1 0x40 DUP6 ADD MLOAD PUSH4 0xFFFFFFFF SWAP5 DUP6 AND PUSH8 0xFFFFFFFFFFFFFFFF NOT SWAP1 SWAP4 AND SWAP3 SWAP1 SWAP3 OR PUSH5 0x100000000 SWAP5 SWAP1 SWAP2 AND SWAP4 SWAP1 SWAP4 MUL SWAP3 SWAP1 SWAP3 OR PUSH8 0xFFFFFFFFFFFFFFFF AND PUSH1 0x1 PUSH1 0x40 SHL PUSH1 0x1 PUSH1 0x1 PUSH1 0xC0 SHL SUB DUP5 AND MUL OR SWAP1 SSTORE SWAP1 SWAP3 POP PUSH1 0x17 SIGNEXTEND SWAP7 SWAP6 POP POP POP POP POP POP JUMP JUMPDEST PUSH1 0x40 DUP1 MLOAD PUSH1 0x60 DUP2 ADD DUP3 MSTORE PUSH1 0x13 SLOAD PUSH4 0xFFFFFFFF DUP1 DUP3 AND DUP4 MSTORE PUSH5 0x100000000 DUP3 DIV DUP2 AND PUSH1 0x20 DUP5 ADD MSTORE PUSH1 0x1 PUSH1 0x40 SHL SWAP1 SWAP2 DIV PUSH1 0x17 SIGNEXTEND SWAP3 DUP3 ADD SWAP3 SWAP1 SWAP3 MSTORE PUSH1 0x0 SWAP2 DUP3 SWAP1 PUSH2 0x2715 SWAP1 DUP7 SWAP1 DUP7 SWAP1 PUSH2 0x2C36 AND JUMP JUMPDEST PUSH1 0x20 DUP8 ADD MLOAD SWAP1 SWAP2 POP PUSH2 0x272B SWAP1 DUP4 SWAP1 TIMESTAMP SWAP1 DUP5 PUSH2 0x33A9 JUMP JUMPDEST DUP1 MLOAD PUSH1 0x13 DUP1 SLOAD PUSH1 0x20 DUP5 ADD MLOAD PUSH1 0x40 DUP6 ADD MLOAD PUSH4 0xFFFFFFFF SWAP5 DUP6 AND PUSH8 0xFFFFFFFFFFFFFFFF NOT SWAP1 SWAP4 AND SWAP3 SWAP1 SWAP3 OR PUSH5 0x100000000 SWAP5 SWAP1 SWAP2 AND SWAP4 SWAP1 SWAP4 MUL SWAP3 SWAP1 SWAP3 OR PUSH8 0xFFFFFFFFFFFFFFFF AND PUSH1 0x1 PUSH1 0x40 SHL PUSH1 0x1 PUSH1 0x1 PUSH1 0xC0 SHL SUB DUP5 AND MUL OR SWAP1 SSTORE SWAP1 SWAP3 POP PUSH1 0x17 SIGNEXTEND PUSH2 0x6AF JUMP JUMPDEST PUSH1 0x0 DUP1 PUSH2 0x279B DUP9 DUP9 PUSH2 0x3B8C JUMP JUMPDEST SWAP1 POP PUSH1 0x0 PUSH2 0x27A9 DUP10 DUP10 PUSH2 0x3AA3 JUMP JUMPDEST SWAP1 POP PUSH1 0x0 PUSH2 0x27B7 DUP11 DUP11 PUSH2 0x3BA9 JUMP JUMPDEST SWAP1 POP PUSH1 0x0 PUSH2 0x27C7 DUP12 DUP12 DUP12 DUP12 PUSH2 0x25C4 JUMP JUMPDEST SWAP1 POP PUSH1 0x0 PUSH2 0x27D4 DUP13 PUSH2 0x3BD6 JUMP JUMPDEST SWAP1 POP DUP12 PUSH1 0x80 ADD MLOAD ISZERO PUSH2 0x2857 JUMPI PUSH2 0x2812 PUSH2 0x27ED DUP4 DUP11 PUSH2 0x2262 JUMP JUMPDEST PUSH2 0x2200 PUSH2 0x2802 DUP11 PUSH8 0xDE0B6B3A7640000 PUSH2 0x4A2B JUMP JUMPDEST PUSH2 0x280C DUP7 DUP7 PUSH2 0x2262 JUMP JUMPDEST SWAP1 PUSH2 0x2262 JUMP JUMPDEST PUSH2 0x2826 DUP7 PUSH2 0x2820 DUP8 DUP7 PUSH2 0x2262 JUMP JUMPDEST SWAP1 PUSH2 0x2C36 JUMP JUMPDEST PUSH2 0x2830 SWAP2 SWAP1 PUSH2 0x4A2B JUMP JUMPDEST SWAP6 POP PUSH2 0x2850 PUSH2 0x283F DUP4 DUP4 PUSH2 0x2262 JUMP JUMPDEST PUSH2 0x2849 SWAP1 DUP6 PUSH2 0x4A2B JUMP JUMPDEST DUP8 SWAP1 PUSH2 0x28FB JUMP JUMPDEST SWAP6 POP PUSH2 0x288B JUMP JUMPDEST PUSH2 0x2861 DUP3 DUP3 PUSH2 0x2262 JUMP JUMPDEST PUSH2 0x286F DUP7 PUSH2 0x2820 DUP8 DUP7 PUSH2 0x2262 JUMP JUMPDEST PUSH2 0x2879 SWAP2 SWAP1 PUSH2 0x4A2B JUMP JUMPDEST SWAP6 POP PUSH2 0x2888 PUSH2 0x283F DUP4 DUP11 PUSH2 0x2262 JUMP JUMPDEST SWAP6 POP JUMPDEST POP POP POP POP POP SWAP7 SWAP6 POP POP POP POP POP POP JUMP JUMPDEST PUSH1 0x0 DUP1 PUSH2 0x28A7 DUP5 DUP5 PUSH2 0x3AA3 JUMP JUMPDEST SWAP1 POP PUSH1 0x0 PUSH2 0x28B5 DUP6 DUP6 PUSH2 0x3BA9 JUMP JUMPDEST SWAP1 POP DUP2 PUSH2 0x6AF DUP2 DUP4 PUSH2 0x28FB JUMP JUMPDEST PUSH1 0x0 DUP1 PUSH2 0x28D3 DUP10 DUP10 DUP10 DUP10 DUP10 DUP10 PUSH2 0x3BE5 JUMP JUMPDEST SWAP1 POP PUSH2 0x28DF DUP2 DUP5 PUSH2 0x2262 JUMP JUMPDEST SWAP10 SWAP9 POP POP POP POP POP POP POP POP POP JUMP JUMPDEST PUSH1 0x0 DUP2 DUP4 LT PUSH2 0x222D JUMPI DUP2 PUSH2 0x1943 JUMP JUMPDEST PUSH1 0x0 DUP1 DUP3 DUP5 GT PUSH2 0x290C JUMPI PUSH1 0x0 PUSH2 0x1880 JUMP JUMPDEST PUSH2 0x1880 DUP4 DUP6 PUSH2 0x4A43 JUMP JUMPDEST PUSH1 0x0 DUP1 PUSH2 0x292D DUP5 PUSH1 0xC0 ADD MLOAD PUSH1 0x1 PUSH1 0x1 PUSH1 0xF0 SHL SUB AND SWAP1 JUMP JUMPDEST SWAP1 POP PUSH2 0x1880 DUP2 DUP5 PUSH2 0x3388 JUMP JUMPDEST PUSH1 0x40 DUP1 MLOAD PUSH1 0x60 DUP2 ADD DUP3 MSTORE PUSH1 0x15 SLOAD PUSH4 0xFFFFFFFF DUP1 DUP3 AND DUP4 MSTORE PUSH5 0x100000000 DUP3 DIV DUP2 AND PUSH1 0x20 DUP5 ADD MSTORE PUSH1 0x1 PUSH1 0x40 SHL SWAP1 SWAP2 DIV PUSH1 0x17 SIGNEXTEND SWAP3 DUP3 ADD SWAP3 SWAP1 SWAP3 MSTORE PUSH1 0x0 SWAP2 DUP3 SWAP1 PUSH2 0x2985 SWAP1 DUP3 SWAP1 PUSH1 0x6 SWAP1 PUSH2 0x2234 AND JUMP JUMPDEST SWAP1 POP PUSH2 0x2993 DUP3 TIMESTAMP DUP4 DUP8 PUSH2 0x33A9 JUMP JUMPDEST DUP1 MLOAD PUSH1 0x15 DUP1 SLOAD PUSH1 0x20 DUP5 ADD MLOAD PUSH1 0x40 DUP6 ADD MLOAD PUSH4 0xFFFFFFFF SWAP5 DUP6 AND PUSH8 0xFFFFFFFFFFFFFFFF NOT SWAP1 SWAP4 AND SWAP3 SWAP1 SWAP3 OR PUSH5 0x100000000 SWAP5 SWAP1 SWAP2 AND SWAP4 SWAP1 SWAP4 MUL SWAP3 SWAP1 SWAP3 OR PUSH8 0xFFFFFFFFFFFFFFFF AND PUSH1 0x1 PUSH1 0x40 SHL PUSH1 0x1 PUSH1 0x1 PUSH1 0xC0 SHL SUB DUP5 AND MUL OR SWAP1 SSTORE SWAP1 SWAP3 POP PUSH1 0x0 SWAP1 PUSH1 0x17 SIGNEXTEND PUSH2 0x19C9 JUMP JUMPDEST PUSH1 0x0 PUSH8 0xDE0B6B3A7640000 DUP3 GT ISZERO PUSH2 0x2A53 JUMPI PUSH1 0x40 MLOAD PUSH3 0x461BCD PUSH1 0xE5 SHL DUP2 MSTORE PUSH1 0x20 PUSH1 0x4 DUP3 ADD MSTORE PUSH1 0x12 PUSH1 0x24 DUP3 ADD MSTORE PUSH32 0x4F564C56313A6672616374696F6E3E6D61780000000000000000000000000000 PUSH1 0x44 DUP3 ADD MSTORE PUSH1 0x64 ADD PUSH2 0x693 JUMP JUMPDEST PUSH1 0x0 PUSH2 0x2A73 PUSH2 0x2A6A DUP5 PUSH8 0xDE0B6B3A7640000 PUSH2 0x4A43 JUMP JUMPDEST PUSH2 0x19C3 DUP7 PUSH2 0x3C10 JUMP JUMPDEST SWAP1 POP PUSH2 0x1880 DUP2 PUSH2 0x234C JUMP JUMPDEST PUSH1 0x40 MLOAD PUSH12 0xFFFFFFFFFFFFFFFFFFFFFFFF NOT PUSH1 0x60 DUP6 SWAP1 SHL AND PUSH1 0x20 DUP3 ADD MSTORE PUSH1 0x34 DUP2 ADD DUP4 SWAP1 MSTORE DUP2 SWAP1 DUP6 SWAP1 PUSH1 0x0 SWAP1 PUSH1 0x54 ADD PUSH1 0x40 DUP1 MLOAD DUP1 DUP4 SUB PUSH1 0x1F NOT ADD DUP2 MSTORE SWAP2 DUP2 MSTORE DUP2 MLOAD PUSH1 0x20 SWAP3 DUP4 ADD KECCAK256 DUP4 MSTORE DUP3 DUP3 ADD SWAP4 SWAP1 SWAP4 MSTORE SWAP1 DUP3 ADD PUSH1 0x0 KECCAK256 DUP4 MLOAD DUP2 SLOAD SWAP3 DUP6 ADD MLOAD SWAP4 DUP6 ADD MLOAD PUSH1 0x60 DUP7 ADD MLOAD PUSH1 0x80 DUP8 ADD MLOAD PUSH1 0xA0 DUP9 ADD MLOAD PUSH12 0xFFFFFFFFFFFFFFFFFFFFFFFF SWAP5 DUP6 AND PUSH32 0xFFFFFFFFFFFFFFFF000000000000000000000000000000000000000000000000 SWAP1 SWAP8 AND SWAP7 SWAP1 SWAP7 OR PUSH1 0x1 PUSH1 0x60 SHL SWAP5 SWAP1 SWAP8 AND SWAP4 SWAP1 SWAP4 MUL SWAP6 SWAP1 SWAP6 OR PUSH32 0xFFFF000000000000FFFFFFFFFFFFFFFFFFFFFFFFFFFFFFFFFFFFFFFFFFFFFFFF AND PUSH1 0x1 PUSH1 0xC0 SHL PUSH3 0xFFFFFF SWAP3 DUP4 AND MUL PUSH32 0xFFFF000000FFFFFFFFFFFFFFFFFFFFFFFFFFFFFFFFFFFFFFFFFFFFFFFFFFFFFF AND OR PUSH1 0x1 PUSH1 0xD8 SHL SWAP2 SWAP1 SWAP6 AND MUL SWAP4 SWAP1 SWAP4 OR PUSH1 0x1 PUSH1 0x1 PUSH1 0xF0 SHL SUB SWAP1 DUP2 AND PUSH1 0x1 PUSH1 0xF0 SHL SWAP5 ISZERO ISZERO DUP6 MUL PUSH31 0xFFFFFFFFFFFFFFFFFFFFFFFFFFFFFFFFFFFFFFFFFFFFFFFFFFFFFFFFFFFFFF AND OR PUSH1 0x1 PUSH1 0xF8 SHL SWAP4 ISZERO ISZERO SWAP4 SWAP1 SWAP4 MUL SWAP3 SWAP1 SWAP3 OR DUP2 SSTORE PUSH1 0xC0 DUP5 ADD MLOAD PUSH1 0xE0 SWAP1 SWAP5 ADD MLOAD SWAP4 SWAP1 SWAP2 AND PUSH2 0xFFFF SWAP1 SWAP4 AND SWAP1 SWAP2 MUL SWAP2 SWAP1 SWAP2 OR PUSH1 0x1 SWAP1 SWAP2 ADD SSTORE POP POP POP POP JUMP JUMPDEST PUSH1 0x0 DUP3 PUSH2 0x2C16 JUMPI POP PUSH1 0x0 PUSH2 0x1946 JUMP JUMPDEST PUSH1 0x0 PUSH2 0x2C2A PUSH8 0xDE0B6B3A7640000 DUP6 PUSH2 0x4BDC JUMP JUMPDEST SWAP1 POP PUSH2 0x22A9 DUP4 DUP3 PUSH2 0x4C11 JUMP JUMPDEST PUSH1 0x0 DUP3 PUSH2 0x2C45 JUMPI POP PUSH1 0x0 PUSH2 0x1946 JUMP JUMPDEST PUSH1 0x0 PUSH2 0x2C59 PUSH8 0xDE0B6B3A7640000 DUP6 PUSH2 0x4BDC JUMP JUMPDEST SWAP1 POP DUP3 PUSH2 0x2294 PUSH1 0x1 DUP4 PUSH2 0x4A43 JUMP JUMPDEST PUSH1 0x0 DUP1 DUP3 PUSH2 0x2C77 JUMPI PUSH1 0x10 SLOAD PUSH2 0x2C7B JUMP JUMPDEST PUSH1 0xF SLOAD JUMPDEST SWAP1 POP PUSH1 0x0 DUP4 PUSH2 0x2C8C JUMPI PUSH1 0x12 SLOAD PUSH2 0x2C90 JUMP JUMPDEST PUSH1 0x11 SLOAD JUMPDEST SWAP1 POP PUSH1 0x0 PUSH2 0x2C9F DUP8 DUP5 DUP5 PUSH2 0x3C23 JUMP JUMPDEST SWAP1 POP PUSH2 0x2CAB DUP8 DUP5 PUSH2 0x4A2B JUMP JUMPDEST SWAP3 POP PUSH2 0x2CB7 DUP2 DUP4 PUSH2 0x4A2B JUMP JUMPDEST SWAP2 POP DUP6 DUP4 GT ISZERO PUSH2 0x2D09 JUMPI PUSH1 0x40 MLOAD PUSH3 0x461BCD PUSH1 0xE5 SHL DUP2 MSTORE PUSH1 0x20 PUSH1 0x4 DUP3 ADD MSTORE PUSH1 0xC PUSH1 0x24 DUP3 ADD MSTORE PUSH32 0x4F564C56313A6F693E6361700000000000000000000000000000000000000000 PUSH1 0x44 DUP3 ADD MSTORE PUSH1 0x64 ADD PUSH2 0x693 JUMP JUMPDEST DUP5 ISZERO PUSH2 0x2D1E JUMPI PUSH1 0xF DUP4 SWAP1 SSTORE PUSH1 0x11 DUP3 SWAP1 SSTORE PUSH2 0x6AF JUMP JUMPDEST PUSH1 0x10 SWAP3 SWAP1 SWAP3 SSTORE PUSH1 0x12 SSTORE SWAP5 SWAP4 POP POP POP POP JUMP JUMPDEST PUSH1 0x0 DUP1 PUSH2 0x2D44 DUP4 PUSH8 0xDE111A6B7DE4000 PUSH2 0x3C4C JUMP JUMPDEST SWAP1 POP PUSH10 0x56D225004EE68C3FFFFF NOT DUP2 SLT ISZERO DUP1 ISZERO PUSH2 0x2D6B JUMPI POP PUSH10 0xFE1C215E8F838E000000 DUP2 SGT ISZERO JUMPDEST PUSH2 0x2DB7 JUMPI PUSH1 0x40 MLOAD PUSH3 0x461BCD PUSH1 0xE5 SHL DUP2 MSTORE PUSH1 0x20 PUSH1 0x4 DUP3 ADD MSTORE PUSH1 0x19 PUSH1 0x24 DUP3 ADD MSTORE PUSH32 0x4F564C56313A207469636B206F7574206F6620626F756E647300000000000000 PUSH1 0x44 DUP3 ADD MSTORE PUSH1 0x64 ADD PUSH2 0x693 JUMP JUMPDEST PUSH2 0x1812 PUSH8 0xDE0B6B3A7640000 DUP3 PUSH2 0x4CAC JUMP JUMPDEST PUSH1 0xD DUP3 PUSH1 0xE DUP2 GT ISZERO PUSH2 0x2DDD JUMPI PUSH2 0x2DDD PUSH2 0x4BB0 JUMP JUMPDEST EQ ISZERO PUSH2 0x17E7 JUMPI PUSH1 0x0 PUSH32 0x0 PUSH1 0x1 PUSH1 0x1 PUSH1 0xA0 SHL SUB AND PUSH4 0x52BFE789 PUSH1 0x40 MLOAD DUP2 PUSH4 0xFFFFFFFF AND PUSH1 0xE0 SHL DUP2 MSTORE PUSH1 0x4 ADD PUSH2 0x100 PUSH1 0x40 MLOAD DUP1 DUP4 SUB DUP2 DUP7 GAS STATICCALL ISZERO DUP1 ISZERO PUSH2 0x2E44 JUMPI RETURNDATASIZE PUSH1 0x0 DUP1 RETURNDATACOPY RETURNDATASIZE PUSH1 0x0 REVERT JUMPDEST POP POP POP POP PUSH1 0x40 MLOAD RETURNDATASIZE PUSH1 0x1F NOT PUSH1 0x1F DUP3 ADD AND DUP3 ADD DUP1 PUSH1 0x40 MSTORE POP DUP2 ADD SWAP1 PUSH2 0x2E68 SWAP2 SWAP1 PUSH2 0x4B16 JUMP JUMPDEST PUSH1 0x40 DUP2 ADD MLOAD SWAP1 SWAP2 POP DUP3 SWAP1 PUSH1 0x0 SWAP1 PUSH2 0x2E7F SWAP1 DUP4 PUSH2 0x4BDC JUMP JUMPDEST SWAP1 POP PUSH2 0x2E8A DUP2 PUSH2 0x22B1 JUMP JUMPDEST PUSH1 0x19 SSTORE POP POP POP POP POP JUMP JUMPDEST PUSH1 0x0 PUSH1 0x18 SLOAD TIMESTAMP PUSH2 0x2EA4 SWAP2 SWAP1 PUSH2 0x4A43 JUMP JUMPDEST SWAP1 POP DUP1 ISZERO PUSH2 0x2F15 JUMPI PUSH1 0x10 SLOAD PUSH1 0xF SLOAD GT PUSH1 0x0 DUP2 PUSH2 0x2EC2 JUMPI PUSH1 0x10 SLOAD PUSH2 0x2EC6 JUMP JUMPDEST PUSH1 0xF SLOAD JUMPDEST SWAP1 POP PUSH1 0x0 DUP3 PUSH2 0x2ED7 JUMPI PUSH1 0xF SLOAD PUSH2 0x2EDB JUMP JUMPDEST PUSH1 0x10 SLOAD JUMPDEST SWAP1 POP PUSH2 0x2EE8 DUP3 DUP3 DUP7 PUSH2 0x19E9 JUMP JUMPDEST SWAP1 SWAP3 POP SWAP1 POP DUP3 PUSH2 0x2EF8 JUMPI DUP1 PUSH2 0x2EFA JUMP JUMPDEST DUP2 JUMPDEST PUSH1 0xF SSTORE DUP3 PUSH2 0x2F08 JUMPI DUP2 PUSH2 0x2F0A JUMP JUMPDEST DUP1 JUMPDEST PUSH1 0x10 SSTORE POP POP TIMESTAMP PUSH1 0x18 SSTORE POP JUMPDEST POP JUMP JUMPDEST PUSH1 0x2 DUP3 PUSH1 0xE DUP2 GT ISZERO PUSH2 0x2F2C JUMPI PUSH2 0x2F2C PUSH2 0x4BB0 JUMP JUMPDEST EQ ISZERO PUSH2 0x2FE7 JUMPI DUP1 PUSH1 0x0 PUSH2 0x2F40 DUP2 PUSH1 0x5 PUSH2 0x2234 JUMP JUMPDEST SWAP1 POP PUSH1 0x0 PUSH2 0x2F4F DUP2 PUSH1 0x8 PUSH2 0x2234 JUMP JUMPDEST SWAP1 POP PUSH1 0x0 PUSH2 0x2F5E DUP2 PUSH1 0xA PUSH2 0x2234 JUMP JUMPDEST SWAP1 POP PUSH2 0x2F83 PUSH2 0x2F78 PUSH2 0x15FE DUP4 PUSH8 0xDE0B6B3A7640000 PUSH2 0x4A43 JUMP JUMPDEST PUSH2 0x1610 DUP7 PUSH1 0x2 PUSH2 0x4BDC JUMP JUMPDEST DUP4 GT ISZERO PUSH2 0x2FE2 JUMPI PUSH1 0x40 MLOAD PUSH3 0x461BCD PUSH1 0xE5 SHL DUP2 MSTORE PUSH1 0x20 PUSH1 0x4 DUP3 ADD MSTORE PUSH1 0x27 PUSH1 0x24 DUP3 ADD MSTORE PUSH32 0x4F564C56313A206D6178206C657620696D6D6564696174656C79206C69717569 PUSH1 0x44 DUP3 ADD MSTORE PUSH7 0x64617461626C65 PUSH1 0xC8 SHL PUSH1 0x64 DUP3 ADD MSTORE PUSH1 0x84 ADD PUSH2 0x693 JUMP JUMPDEST POP POP POP POP JUMPDEST PUSH1 0x5 DUP3 PUSH1 0xE DUP2 GT ISZERO PUSH2 0x2FFB JUMPI PUSH2 0x2FFB PUSH2 0x4BB0 JUMP JUMPDEST EQ ISZERO PUSH2 0x30AB JUMPI DUP1 PUSH1 0x0 PUSH2 0x300F DUP2 PUSH1 0x2 PUSH2 0x2234 JUMP JUMPDEST SWAP1 POP PUSH1 0x0 PUSH2 0x301E DUP2 PUSH1 0x8 PUSH2 0x2234 JUMP JUMPDEST SWAP1 POP PUSH1 0x0 PUSH2 0x302D DUP2 PUSH1 0xA PUSH2 0x2234 JUMP JUMPDEST SWAP1 POP PUSH2 0x3047 PUSH2 0x1605 PUSH2 0x15FE DUP4 PUSH8 0xDE0B6B3A7640000 PUSH2 0x4A43 JUMP JUMPDEST DUP5 GT ISZERO PUSH2 0x30A6 JUMPI PUSH1 0x40 MLOAD PUSH3 0x461BCD PUSH1 0xE5 SHL DUP2 MSTORE PUSH1 0x20 PUSH1 0x4 DUP3 ADD MSTORE PUSH1 0x27 PUSH1 0x24 DUP3 ADD MSTORE PUSH32 0x4F564C56313A206D6178206C657620696D6D6564696174656C79206C69717569 PUSH1 0x44 DUP3 ADD MSTORE PUSH7 0x64617461626C65 PUSH1 0xC8 SHL PUSH1 0x64 DUP3 ADD MSTORE PUSH1 0x84 ADD PUSH2 0x693 JUMP JUMPDEST POP POP POP POP JUMPDEST PUSH1 0x8 DUP3 PUSH1 0xE DUP2 GT ISZERO PUSH2 0x30BF JUMPI PUSH2 0x30BF PUSH2 0x4BB0 JUMP JUMPDEST EQ ISZERO PUSH2 0x3176 JUMPI DUP1 PUSH1 0x0 PUSH2 0x30D3 DUP2 PUSH1 0x2 PUSH2 0x2234 JUMP JUMPDEST SWAP1 POP PUSH1 0x0 PUSH2 0x30E2 DUP2 PUSH1 0x5 PUSH2 0x2234 JUMP JUMPDEST SWAP1 POP PUSH1 0x0 PUSH2 0x30F1 DUP2 PUSH1 0xA PUSH2 0x2234 JUMP JUMPDEST SWAP1 POP PUSH2 0x3112 PUSH2 0x1605 PUSH2 0x310B DUP4 PUSH8 0xDE0B6B3A7640000 PUSH2 0x4A43 JUMP JUMPDEST DUP7 SWAP1 PUSH2 0x2C07 JUMP JUMPDEST DUP3 GT ISZERO PUSH2 0x3171 JUMPI PUSH1 0x40 MLOAD PUSH3 0x461BCD PUSH1 0xE5 SHL DUP2 MSTORE PUSH1 0x20 PUSH1 0x4 DUP3 ADD MSTORE PUSH1 0x27 PUSH1 0x24 DUP3 ADD MSTORE PUSH32 0x4F564C56313A206D6178206C657620696D6D6564696174656C79206C69717569 PUSH1 0x44 DUP3 ADD MSTORE PUSH7 0x64617461626C65 PUSH1 0xC8 SHL PUSH1 0x64 DUP3 ADD MSTORE PUSH1 0x84 ADD PUSH2 0x693 JUMP JUMPDEST POP POP POP POP JUMPDEST PUSH1 0xA DUP3 PUSH1 0xE DUP2 GT ISZERO PUSH2 0x318A JUMPI PUSH2 0x318A PUSH2 0x4BB0 JUMP JUMPDEST EQ ISZERO PUSH2 0x3241 JUMPI DUP1 PUSH1 0x0 PUSH2 0x319E DUP2 PUSH1 0x2 PUSH2 0x2234 JUMP JUMPDEST SWAP1 POP PUSH1 0x0 PUSH2 0x31AD DUP2 PUSH1 0x5 PUSH2 0x2234 JUMP JUMPDEST SWAP1 POP PUSH1 0x0 PUSH2 0x31BC DUP2 PUSH1 0x8 PUSH2 0x2234 JUMP JUMPDEST SWAP1 POP PUSH2 0x31DD PUSH2 0x1605 PUSH2 0x31D6 DUP7 PUSH8 0xDE0B6B3A7640000 PUSH2 0x4A43 JUMP JUMPDEST DUP4 SWAP1 PUSH2 0x2C07 JUMP JUMPDEST DUP3 GT ISZERO PUSH2 0x323C JUMPI PUSH1 0x40 MLOAD PUSH3 0x461BCD PUSH1 0xE5 SHL DUP2 MSTORE PUSH1 0x20 PUSH1 0x4 DUP3 ADD MSTORE PUSH1 0x27 PUSH1 0x24 DUP3 ADD MSTORE PUSH32 0x4F564C56313A206D6178206C657620696D6D6564696174656C79206C69717569 PUSH1 0x44 DUP3 ADD MSTORE PUSH7 0x64617461626C65 PUSH1 0xC8 SHL PUSH1 0x64 DUP3 ADD MSTORE PUSH1 0x84 ADD PUSH2 0x693 JUMP JUMPDEST POP POP POP POP JUMPDEST PUSH1 0xD DUP3 PUSH1 0xE DUP2 GT ISZERO PUSH2 0x3255 JUMPI PUSH2 0x3255 PUSH2 0x4BB0 JUMP JUMPDEST EQ ISZERO PUSH2 0x17E7 JUMPI PUSH1 0x0 PUSH32 0x0 PUSH1 0x1 PUSH1 0x1 PUSH1 0xA0 SHL SUB AND PUSH4 0x52BFE789 PUSH1 0x40 MLOAD DUP2 PUSH4 0xFFFFFFFF AND PUSH1 0xE0 SHL DUP2 MSTORE PUSH1 0x4 ADD PUSH2 0x100 PUSH1 0x40 MLOAD DUP1 DUP4 SUB DUP2 DUP7 GAS STATICCALL ISZERO DUP1 ISZERO PUSH2 0x32BC JUMPI RETURNDATASIZE PUSH1 0x0 DUP1 RETURNDATACOPY RETURNDATASIZE PUSH1 0x0 REVERT JUMPDEST POP POP POP POP PUSH1 0x40 MLOAD RETURNDATASIZE PUSH1 0x1F NOT PUSH1 0x1F DUP3 ADD AND DUP3 ADD DUP1 PUSH1 0x40 MSTORE POP DUP2 ADD SWAP1 PUSH2 0x32E0 SWAP2 SWAP1 PUSH2 0x4B16 JUMP JUMPDEST PUSH1 0x40 DUP2 ADD MLOAD SWAP1 SWAP2 POP DUP3 SWAP1 PUSH9 0x1158E460913D00000 SWAP1 PUSH2 0x32FF SWAP1 DUP4 PUSH2 0x4BDC JUMP JUMPDEST LT PUSH2 0x3357 JUMPI PUSH1 0x40 MLOAD PUSH3 0x461BCD PUSH1 0xE5 SHL DUP2 MSTORE PUSH1 0x20 PUSH1 0x4 DUP3 ADD MSTORE PUSH1 0x22 PUSH1 0x24 DUP3 ADD MSTORE PUSH32 0x4F564C56313A2070726963652064726966742065786365656473206D61782065 PUSH1 0x44 DUP3 ADD MSTORE PUSH2 0x787 PUSH1 0xF4 SHL PUSH1 0x64 DUP3 ADD MSTORE PUSH1 0x84 ADD PUSH2 0x693 JUMP JUMPDEST POP POP POP POP JUMP JUMPDEST DUP1 DUP4 DUP4 PUSH1 0xE DUP2 GT ISZERO PUSH2 0x3371 JUMPI PUSH2 0x3371 PUSH2 0x4BB0 JUMP JUMPDEST PUSH1 0xF DUP2 LT PUSH2 0x3381 JUMPI PUSH2 0x3381 PUSH2 0x4BC6 JUMP JUMPDEST ADD SSTORE POP POP POP JUMP JUMPDEST PUSH1 0x0 DUP1 PUSH2 0x3395 DUP4 DUP6 PUSH2 0x4BDC JUMP JUMPDEST SWAP1 POP PUSH2 0x1880 PUSH8 0xDE0B6B3A7640000 DUP3 PUSH2 0x4C11 JUMP JUMPDEST PUSH1 0x40 DUP1 MLOAD PUSH1 0x60 DUP2 ADD DUP3 MSTORE PUSH1 0x0 DUP1 DUP3 MSTORE PUSH1 0x20 DUP3 ADD DUP2 SWAP1 MSTORE SWAP2 DUP2 ADD DUP3 SWAP1 MSTORE DUP6 MLOAD SWAP1 SWAP2 DUP6 SWAP2 PUSH4 0xFFFFFFFF SWAP1 DUP2 AND SWAP1 DUP4 AND LT ISZERO PUSH2 0x3407 JUMPI DUP7 MLOAD PUSH4 0xFFFFFFFF SWAP1 DUP2 AND SWAP1 PUSH2 0x33F8 SWAP1 DUP5 AND PUSH5 0x100000000 PUSH2 0x4A2B JUMP JUMPDEST PUSH2 0x3402 SWAP2 SWAP1 PUSH2 0x4A43 JUMP JUMPDEST PUSH2 0x341A JUMP JUMPDEST DUP7 MLOAD PUSH2 0x3413 SWAP1 DUP4 PUSH2 0x4CDA JUMP JUMPDEST PUSH4 0xFFFFFFFF AND JUMPDEST PUSH1 0x20 DUP9 ADD MLOAD SWAP1 SWAP2 POP PUSH4 0xFFFFFFFF AND PUSH1 0x0 PUSH2 0x3438 DUP10 PUSH1 0x40 ADD MLOAD PUSH1 0x17 SIGNEXTEND SWAP1 JUMP JUMPDEST SWAP1 POP DUP2 DUP4 LT ISZERO DUP1 PUSH2 0x3447 JUMPI POP DUP2 ISZERO JUMPDEST ISZERO PUSH2 0x3491 JUMPI PUSH1 0x40 MLOAD DUP1 PUSH1 0x60 ADD PUSH1 0x40 MSTORE DUP1 DUP6 PUSH4 0xFFFFFFFF AND DUP2 MSTORE PUSH1 0x20 ADD PUSH2 0x346C DUP10 PUSH2 0x3D5B JUMP JUMPDEST PUSH4 0xFFFFFFFF AND DUP2 MSTORE PUSH1 0x20 ADD PUSH2 0x3480 DUP9 PUSH2 0x3D74 JUMP JUMPDEST PUSH1 0x17 SIGNEXTEND DUP2 MSTORE POP SWAP5 POP POP POP POP POP PUSH2 0x1880 JUMP JUMPDEST DUP2 PUSH2 0x349C DUP5 DUP3 PUSH2 0x4A43 JUMP JUMPDEST PUSH2 0x34A6 SWAP1 DUP4 PUSH2 0x4C25 JUMP JUMPDEST PUSH2 0x34B0 SWAP2 SWAP1 PUSH2 0x4CAC JUMP JUMPDEST SWAP1 POP PUSH1 0x0 PUSH2 0x34BE DUP8 DUP4 PUSH2 0x4CF7 JUMP JUMPDEST SWAP1 POP DUP1 PUSH2 0x3502 JUMPI PUSH1 0x40 MLOAD DUP1 PUSH1 0x60 ADD PUSH1 0x40 MSTORE DUP1 DUP7 PUSH4 0xFFFFFFFF AND DUP2 MSTORE PUSH1 0x20 ADD PUSH2 0x34E5 DUP11 PUSH2 0x3D5B JUMP JUMPDEST PUSH4 0xFFFFFFFF AND DUP2 MSTORE PUSH1 0x0 PUSH1 0x20 SWAP1 SWAP2 ADD MSTORE SWAP6 POP PUSH2 0x1880 SWAP5 POP POP POP POP POP JUMP JUMPDEST PUSH1 0x0 PUSH2 0x350D DUP4 PUSH2 0x3DFB JUMP JUMPDEST SWAP1 POP PUSH1 0x0 PUSH2 0x351A DUP10 PUSH2 0x3DFB JUMP JUMPDEST SWAP1 POP PUSH1 0x0 PUSH2 0x3528 DUP3 DUP5 PUSH2 0x4A2B JUMP JUMPDEST PUSH2 0x3532 DUP13 DUP5 PUSH2 0x4BDC JUMP JUMPDEST PUSH2 0x353C DUP10 DUP10 PUSH2 0x4A43 JUMP JUMPDEST PUSH2 0x3546 SWAP1 DUP7 PUSH2 0x4BDC JUMP JUMPDEST PUSH2 0x3550 SWAP2 SWAP1 PUSH2 0x4A2B JUMP JUMPDEST PUSH2 0x355A SWAP2 SWAP1 PUSH2 0x4C11 JUMP JUMPDEST SWAP1 POP PUSH1 0x40 MLOAD DUP1 PUSH1 0x60 ADD PUSH1 0x40 MSTORE DUP1 DUP10 PUSH4 0xFFFFFFFF AND DUP2 MSTORE PUSH1 0x20 ADD PUSH2 0x357C DUP4 PUSH2 0x3D5B JUMP JUMPDEST PUSH4 0xFFFFFFFF AND DUP2 MSTORE PUSH1 0x20 ADD PUSH2 0x3590 DUP7 PUSH2 0x3D74 JUMP JUMPDEST PUSH1 0x17 SIGNEXTEND SWAP1 MSTORE SWAP14 SWAP13 POP POP POP POP POP POP POP POP POP POP POP POP POP JUMP JUMPDEST PUSH1 0x0 DUP2 ISZERO DUP1 PUSH2 0x35BC JUMPI POP PUSH8 0xDE0B6B3A7640000 DUP4 EQ JUMPDEST ISZERO PUSH2 0x35D0 JUMPI POP PUSH8 0xDE0B6B3A7640000 PUSH2 0x1946 JUMP JUMPDEST DUP3 PUSH2 0x35DD JUMPI POP PUSH1 0x0 PUSH2 0x1946 JUMP JUMPDEST PUSH8 0xDE0B6B3A7640000 DUP3 EQ ISZERO PUSH2 0x35F4 JUMPI POP DUP2 PUSH2 0x1946 JUMP JUMPDEST PUSH2 0x3607 PUSH8 0xDE0B6B3A7640000 PUSH1 0x2 PUSH2 0x4BDC JUMP JUMPDEST DUP3 EQ ISZERO PUSH2 0x361F JUMPI PUSH2 0x3618 DUP4 DUP5 PUSH2 0x3388 JUMP JUMPDEST SWAP1 POP PUSH2 0x1946 JUMP JUMPDEST PUSH2 0x3632 PUSH8 0xDE0B6B3A7640000 PUSH1 0x4 PUSH2 0x4BDC JUMP JUMPDEST DUP3 EQ ISZERO PUSH2 0x3651 JUMPI PUSH1 0x0 PUSH2 0x3645 DUP5 DUP6 PUSH2 0x3388 JUMP JUMPDEST SWAP1 POP PUSH2 0x22A9 DUP2 DUP3 PUSH2 0x3388 JUMP JUMPDEST PUSH1 0x0 PUSH2 0x365D DUP5 DUP5 PUSH2 0x3E12 JUMP JUMPDEST SWAP1 POP PUSH1 0x0 PUSH2 0x3670 PUSH2 0x2339 DUP4 PUSH2 0x2710 PUSH2 0x2262 JUMP JUMPDEST SWAP1 POP DUP1 DUP3 LT ISZERO PUSH2 0x3685 JUMPI PUSH1 0x0 SWAP3 POP POP POP PUSH2 0x1946 JUMP JUMPDEST PUSH2 0x368F DUP3 DUP3 PUSH2 0x3F13 JUMP JUMPDEST SWAP3 POP POP POP PUSH2 0x1946 JUMP JUMPDEST PUSH1 0x0 PUSH2 0x36C7 PUSH9 0x238FD42C5CF03FFFF NOT DUP4 SLT ISZERO DUP1 ISZERO PUSH2 0x36C0 JUMPI POP PUSH9 0x70C1CC73B00C80000 DUP4 SGT ISZERO JUMPDEST PUSH1 0x9 PUSH2 0x3F20 JUMP JUMPDEST PUSH1 0x0 DUP3 SLT ISZERO PUSH2 0x3700 JUMPI PUSH2 0x36DC DUP3 PUSH1 0x0 SUB PUSH2 0x3698 JUMP JUMPDEST PUSH15 0xC097CE7BC90715B34B9F1000000000 DUP2 PUSH2 0x36F9 JUMPI PUSH2 0x36F9 PUSH2 0x4BFB JUMP JUMPDEST SDIV SWAP3 SWAP2 POP POP JUMP JUMPDEST PUSH1 0x0 PUSH9 0x6F05B59D3B2000000 DUP4 SLT PUSH2 0x3740 JUMPI POP PUSH9 0x6F05B59D3B1FFFFFF NOT SWAP1 SWAP2 ADD SWAP1 PUSH24 0x195E54C5DD42177F53A27172FA9EC630262827000000000 PUSH2 0x3776 JUMP JUMPDEST PUSH9 0x3782DACE9D9000000 DUP4 SLT PUSH2 0x3772 JUMPI POP PUSH9 0x3782DACE9D8FFFFFF NOT SWAP1 SWAP2 ADD SWAP1 PUSH12 0x1425982CF597CD205CEF7380 PUSH2 0x3776 JUMP JUMPDEST POP PUSH1 0x1 JUMPDEST PUSH1 0x64 SWAP3 SWAP1 SWAP3 MUL SWAP2 PUSH9 0x56BC75E2D63100000 PUSH9 0xAD78EBC5AC62000000 DUP5 SLT PUSH2 0x37C6 JUMPI PUSH9 0xAD78EBC5AC61FFFFFF NOT SWAP1 SWAP4 ADD SWAP3 PUSH9 0x56BC75E2D63100000 PUSH15 0x1855144814A7FF805980FF0084000 DUP3 MUL SDIV SWAP1 POP JUMPDEST PUSH9 0x56BC75E2D631000000 DUP5 SLT PUSH2 0x3802 JUMPI PUSH9 0x56BC75E2D630FFFFFF NOT SWAP1 SWAP4 ADD SWAP3 PUSH9 0x56BC75E2D63100000 PUSH12 0x2DF0AB5A80A22C61AB5A700 DUP3 MUL SDIV SWAP1 POP JUMPDEST PUSH9 0x2B5E3AF16B18800000 DUP5 SLT PUSH2 0x383C JUMPI PUSH9 0x2B5E3AF16B187FFFFF NOT SWAP1 SWAP4 ADD SWAP3 PUSH9 0x56BC75E2D63100000 PUSH10 0x3F1FCE3DA636EA5CF850 DUP3 MUL SDIV SWAP1 POP JUMPDEST PUSH9 0x15AF1D78B58C400000 DUP5 SLT PUSH2 0x3876 JUMPI PUSH9 0x15AF1D78B58C3FFFFF NOT SWAP1 SWAP4 ADD SWAP3 PUSH9 0x56BC75E2D63100000 PUSH10 0x127FA27722CC06CC5E2 DUP3 MUL SDIV SWAP1 POP JUMPDEST PUSH9 0xAD78EBC5AC6200000 DUP5 SLT PUSH2 0x38AF JUMPI PUSH9 0xAD78EBC5AC61FFFFF NOT SWAP1 SWAP4 ADD SWAP3 PUSH9 0x56BC75E2D63100000 PUSH9 0x280E60114EDB805D03 DUP3 MUL SDIV SWAP1 POP JUMPDEST PUSH9 0x56BC75E2D63100000 DUP5 SLT PUSH2 0x38E8 JUMPI PUSH9 0x56BC75E2D630FFFFF NOT SWAP1 SWAP4 ADD SWAP3 PUSH9 0x56BC75E2D63100000 PUSH9 0xEBC5FB41746121110 DUP3 MUL SDIV SWAP1 POP JUMPDEST PUSH9 0x2B5E3AF16B1880000 DUP5 SLT PUSH2 0x3921 JUMPI PUSH9 0x2B5E3AF16B187FFFF NOT SWAP1 SWAP4 ADD SWAP3 PUSH9 0x56BC75E2D63100000 PUSH9 0x8F00F760A4B2DB55D DUP3 MUL SDIV SWAP1 POP JUMPDEST PUSH9 0x15AF1D78B58C40000 DUP5 SLT PUSH2 0x395A JUMPI PUSH9 0x15AF1D78B58C3FFFF NOT SWAP1 SWAP4 ADD SWAP3 PUSH9 0x56BC75E2D63100000 PUSH9 0x6F5F1775788937937 DUP3 MUL SDIV SWAP1 POP JUMPDEST PUSH9 0x56BC75E2D63100000 DUP5 DUP2 ADD SWAP1 DUP6 SWAP1 PUSH1 0x2 SWAP1 DUP3 DUP1 MUL SDIV SDIV SWAP2 DUP3 ADD SWAP2 SWAP1 POP PUSH1 0x3 PUSH9 0x56BC75E2D63100000 DUP8 DUP4 MUL SDIV SDIV SWAP2 DUP3 ADD SWAP2 SWAP1 POP PUSH1 0x4 PUSH9 0x56BC75E2D63100000 DUP8 DUP4 MUL SDIV SDIV SWAP2 DUP3 ADD SWAP2 SWAP1 POP PUSH1 0x5 PUSH9 0x56BC75E2D63100000 DUP8 DUP4 MUL SDIV SDIV SWAP2 DUP3 ADD SWAP2 SWAP1 POP PUSH1 0x6 PUSH9 0x56BC75E2D63100000 DUP8 DUP4 MUL SDIV SDIV SWAP2 DUP3 ADD SWAP2 SWAP1 POP PUSH1 0x7 PUSH9 0x56BC75E2D63100000 DUP8 DUP4 MUL SDIV SDIV SWAP2 DUP3 ADD SWAP2 SWAP1 POP PUSH1 0x8 PUSH9 0x56BC75E2D63100000 DUP8 DUP4 MUL SDIV SDIV SWAP2 DUP3 ADD SWAP2 SWAP1 POP PUSH1 0x9 PUSH9 0x56BC75E2D63100000 DUP8 DUP4 MUL SDIV SDIV SWAP2 DUP3 ADD SWAP2 SWAP1 POP PUSH1 0xA PUSH9 0x56BC75E2D63100000 DUP8 DUP4 MUL SDIV SDIV SWAP2 DUP3 ADD SWAP2 SWAP1 POP PUSH1 0xB PUSH9 0x56BC75E2D63100000 DUP8 DUP4 MUL SDIV SDIV SWAP2 DUP3 ADD SWAP2 SWAP1 POP PUSH1 0xC PUSH9 0x56BC75E2D63100000 DUP8 DUP4 MUL SDIV SDIV SWAP2 DUP3 ADD SWAP2 SWAP1 POP PUSH1 0x64 PUSH9 0x56BC75E2D63100000 DUP5 DUP5 MUL SDIV DUP6 MUL SDIV SWAP7 SWAP6 POP POP POP POP POP POP JUMP JUMPDEST PUSH1 0x0 DUP1 PUSH2 0x1880 DUP4 DUP6 PUSH2 0x4A2B JUMP JUMPDEST PUSH1 0x0 PUSH2 0x3A97 PUSH1 0x2 DUP5 DUP5 XOR PUSH2 0x4C11 JUMP JUMPDEST PUSH2 0x1943 SWAP1 DUP5 DUP5 AND PUSH2 0x4A2B JUMP JUMPDEST PUSH1 0x0 DUP1 PUSH2 0x3AAF DUP5 PUSH2 0x3C10 JUMP JUMPDEST SWAP1 POP PUSH1 0x0 PUSH2 0x3ACD DUP3 PUSH2 0x280C DUP8 MLOAD PUSH12 0xFFFFFFFFFFFFFFFFFFFFFFFF AND SWAP1 JUMP JUMPDEST SWAP1 POP PUSH2 0x19C9 DUP2 DUP6 PUSH2 0x2262 JUMP JUMPDEST PUSH1 0x0 DUP1 DUP1 PUSH1 0x0 NOT DUP6 DUP8 MULMOD DUP6 DUP8 MUL SWAP3 POP DUP3 DUP2 LT DUP4 DUP3 SUB SUB SWAP2 POP POP DUP1 PUSH1 0x0 EQ ISZERO PUSH2 0x3B13 JUMPI PUSH1 0x0 DUP5 GT PUSH2 0x3B08 JUMPI PUSH1 0x0 DUP1 REVERT JUMPDEST POP DUP3 SWAP1 DIV SWAP1 POP PUSH2 0x1812 JUMP JUMPDEST DUP1 DUP5 GT PUSH2 0x3B1F JUMPI PUSH1 0x0 DUP1 REVERT JUMPDEST PUSH1 0x0 DUP5 DUP7 DUP9 MULMOD PUSH1 0x0 DUP7 DUP2 SUB DUP8 AND SWAP7 DUP8 SWAP1 DIV SWAP7 PUSH1 0x2 PUSH1 0x3 DUP10 MUL DUP2 XOR DUP1 DUP11 MUL DUP3 SUB MUL DUP1 DUP11 MUL DUP3 SUB MUL DUP1 DUP11 MUL DUP3 SUB MUL DUP1 DUP11 MUL DUP3 SUB MUL DUP1 DUP11 MUL DUP3 SUB MUL DUP1 DUP11 MUL SWAP1 SWAP2 SUB MUL SWAP2 DUP2 SWAP1 SUB DUP2 SWAP1 DIV PUSH1 0x1 ADD DUP7 DUP5 GT SWAP1 SWAP6 SUB SWAP5 SWAP1 SWAP5 MUL SWAP2 SWAP1 SWAP5 SUB SWAP3 SWAP1 SWAP3 DIV SWAP2 SWAP1 SWAP2 OR SWAP2 SWAP1 SWAP2 MUL SWAP2 POP POP SWAP4 SWAP3 POP POP POP JUMP JUMPDEST PUSH1 0x0 DUP1 PUSH2 0x3B98 DUP5 PUSH2 0x3C10 JUMP JUMPDEST SWAP1 POP PUSH1 0x0 PUSH2 0x3ACD DUP3 PUSH2 0x280C DUP8 PUSH2 0x3F2E JUMP JUMPDEST PUSH1 0x0 DUP1 PUSH2 0x3BB5 DUP5 PUSH2 0x3C10 JUMP JUMPDEST SWAP1 POP PUSH1 0x0 PUSH2 0x3ACD DUP3 PUSH2 0x280C DUP8 PUSH1 0x20 ADD MLOAD PUSH12 0xFFFFFFFFFFFFFFFFFFFFFFFF AND SWAP1 JUMP JUMPDEST PUSH1 0x0 PUSH2 0x1946 DUP3 PUSH1 0x60 ADD MLOAD PUSH2 0x3F60 JUMP JUMPDEST PUSH1 0x0 DUP1 PUSH2 0x3BF6 DUP9 DUP9 DUP9 DUP9 DUP9 DUP9 PUSH2 0x278E JUMP JUMPDEST SWAP1 POP PUSH1 0x0 PUSH2 0x3C04 DUP10 DUP10 PUSH2 0x3BA9 JUMP JUMPDEST SWAP1 POP PUSH2 0x28DF DUP2 DUP4 PUSH2 0x4A2B JUMP JUMPDEST PUSH1 0x0 PUSH2 0x1946 DUP3 PUSH1 0xE0 ADD MLOAD PUSH2 0xFFFF AND PUSH2 0x23C5 JUMP JUMPDEST PUSH1 0x0 DUP3 ISZERO DUP1 PUSH2 0x3C30 JUMPI POP DUP2 ISZERO JUMPDEST PUSH2 0x3C44 JUMPI PUSH2 0x3C3F DUP5 DUP4 DUP6 PUSH2 0x3AD9 JUMP JUMPDEST PUSH2 0x1880 JUMP JUMPDEST POP SWAP2 SWAP3 SWAP2 POP POP JUMP JUMPDEST PUSH1 0x0 DUP1 DUP4 GT DUP1 ISZERO PUSH2 0x3C60 JUMPI POP PUSH1 0x1 PUSH1 0xFF SHL DUP4 LT JUMPDEST PUSH2 0x3CAC JUMPI PUSH1 0x40 MLOAD PUSH3 0x461BCD PUSH1 0xE5 SHL DUP2 MSTORE PUSH1 0x20 PUSH1 0x4 DUP3 ADD MSTORE PUSH1 0x1B PUSH1 0x24 DUP3 ADD MSTORE PUSH32 0x4669786564506F696E743A2061206F7574206F6620626F756E64730000000000 PUSH1 0x44 DUP3 ADD MSTORE PUSH1 0x64 ADD PUSH2 0x693 JUMP JUMPDEST PUSH1 0x0 DUP3 GT DUP1 ISZERO PUSH2 0x3CBF JUMPI POP PUSH1 0x1 PUSH1 0xFF SHL DUP3 LT JUMPDEST PUSH2 0x3D0B JUMPI PUSH1 0x40 MLOAD PUSH3 0x461BCD PUSH1 0xE5 SHL DUP2 MSTORE PUSH1 0x20 PUSH1 0x4 DUP3 ADD MSTORE PUSH1 0x1B PUSH1 0x24 DUP3 ADD MSTORE PUSH32 0x4669786564506F696E743A2062206F7574206F6620626F756E64730000000000 PUSH1 0x44 DUP3 ADD MSTORE PUSH1 0x64 ADD PUSH2 0x693 JUMP JUMPDEST DUP3 DUP3 PUSH1 0x0 PUSH2 0x3D19 DUP4 DUP4 PUSH2 0x4029 JUMP JUMPDEST SWAP1 POP PUSH1 0x0 DUP1 DUP3 SLT ISZERO PUSH2 0x3D2E JUMPI DUP2 PUSH1 0x0 SUB PUSH2 0x3D30 JUMP JUMPDEST DUP2 JUMPDEST SWAP1 POP PUSH1 0x0 PUSH2 0x3D43 PUSH2 0x2339 DUP4 PUSH2 0x2710 PUSH2 0x2262 JUMP JUMPDEST SWAP1 POP PUSH2 0x3D4F DUP2 DUP5 PUSH2 0x4A5A JUMP JUMPDEST SWAP9 SWAP8 POP POP POP POP POP POP POP POP JUMP JUMPDEST PUSH1 0x0 DUP1 PUSH4 0xFFFFFFFF DUP4 GT ISZERO PUSH2 0x222D JUMPI PUSH4 0xFFFFFFFF PUSH2 0x1812 JUMP JUMPDEST PUSH1 0x0 DUP1 PUSH24 0x7FFFFFFFFFFFFFFFFFFFFFFFFFFFFFFFFFFFFFFFFFFFFFFF NOT DUP4 SLT PUSH2 0x3DDA JUMPI PUSH24 0x7FFFFFFFFFFFFFFFFFFFFFFFFFFFFFFFFFFFFFFFFFFFFFFF DUP4 SGT PUSH2 0x3DBC JUMPI DUP3 PUSH2 0x1812 JUMP JUMPDEST PUSH24 0x7FFFFFFFFFFFFFFFFFFFFFFFFFFFFFFFFFFFFFFFFFFFFFFF PUSH2 0x1812 JUMP JUMPDEST PUSH24 0x7FFFFFFFFFFFFFFFFFFFFFFFFFFFFFFFFFFFFFFFFFFFFFFF NOT SWAP4 SWAP3 POP POP POP JUMP JUMPDEST PUSH1 0x0 DUP1 DUP3 SLT ISZERO PUSH2 0x3E0E JUMPI DUP2 PUSH1 0x0 SUB PUSH2 0x1946 JUMP JUMPDEST POP SWAP1 JUMP JUMPDEST PUSH1 0x0 DUP2 PUSH2 0x3E28 JUMPI POP PUSH8 0xDE0B6B3A7640000 PUSH2 0x1946 JUMP JUMPDEST DUP3 PUSH2 0x3E35 JUMPI POP PUSH1 0x0 PUSH2 0x1946 JUMP JUMPDEST PUSH2 0x3E46 PUSH1 0x1 PUSH1 0xFF SHL DUP5 LT PUSH1 0x6 PUSH2 0x3F20 JUMP JUMPDEST DUP3 PUSH2 0x3E6C PUSH24 0xBCE5086492111AEA88F4BB1CA6BCF584181EA8059F76532 DUP5 LT PUSH1 0x7 PUSH2 0x3F20 JUMP JUMPDEST DUP3 PUSH1 0x0 PUSH8 0xC7D713B49DA0000 DUP4 SGT DUP1 ISZERO PUSH2 0x3E8D JUMPI POP PUSH8 0xF43FC2C04EE0000 DUP4 SLT JUMPDEST ISZERO PUSH2 0x3EC4 JUMPI PUSH1 0x0 PUSH2 0x3E9D DUP5 PUSH2 0x40E3 JUMP JUMPDEST SWAP1 POP PUSH8 0xDE0B6B3A7640000 DUP1 DUP3 SMOD DUP5 MUL SDIV DUP4 PUSH8 0xDE0B6B3A7640000 DUP4 SDIV MUL ADD SWAP2 POP POP PUSH2 0x3ED2 JUMP JUMPDEST DUP2 PUSH2 0x3ECE DUP5 PUSH2 0x420B JUMP JUMPDEST MUL SWAP1 POP JUMPDEST PUSH8 0xDE0B6B3A7640000 SWAP1 SDIV PUSH2 0x3F0A PUSH9 0x238FD42C5CF03FFFF NOT DUP3 SLT DUP1 ISZERO SWAP1 PUSH2 0x3F03 JUMPI POP PUSH9 0x70C1CC73B00C80000 DUP3 SGT ISZERO JUMPDEST PUSH1 0x8 PUSH2 0x3F20 JUMP JUMPDEST PUSH2 0x6AF DUP2 PUSH2 0x3698 JUMP JUMPDEST PUSH1 0x0 DUP1 PUSH2 0x1880 DUP4 DUP6 PUSH2 0x4A43 JUMP JUMPDEST DUP2 PUSH2 0x17E7 JUMPI PUSH2 0x17E7 DUP2 PUSH2 0x45B6 JUMP JUMPDEST PUSH1 0x0 DUP1 PUSH2 0x3F47 DUP4 MLOAD PUSH12 0xFFFFFFFFFFFFFFFFFFFFFFFF AND SWAP1 JUMP JUMPDEST SWAP1 POP PUSH1 0x0 PUSH2 0x3F54 DUP5 PUSH2 0x4609 JUMP JUMPDEST SWAP1 POP PUSH2 0x1880 DUP3 DUP3 PUSH2 0x2C07 JUMP JUMPDEST PUSH1 0x0 DUP1 PUSH2 0x3F79 PUSH8 0xDE0B6B3A7640000 PUSH1 0x2 DUP6 SWAP1 SIGNEXTEND PUSH2 0x4C25 JUMP JUMPDEST SWAP1 POP PUSH10 0x56D225004EE68C3FFFFF NOT DUP2 SLT ISZERO DUP1 ISZERO PUSH2 0x3FA0 JUMPI POP PUSH10 0xFE1C215E8F838E000000 DUP2 SGT ISZERO JUMPDEST PUSH2 0x3FEC JUMPI PUSH1 0x40 MLOAD PUSH3 0x461BCD PUSH1 0xE5 SHL DUP2 MSTORE PUSH1 0x20 PUSH1 0x4 DUP3 ADD MSTORE PUSH1 0x19 PUSH1 0x24 DUP3 ADD MSTORE PUSH32 0x4F564C56313A207469636B206F7574206F6620626F756E647300000000000000 PUSH1 0x44 DUP3 ADD MSTORE PUSH1 0x64 ADD PUSH2 0x693 JUMP JUMPDEST PUSH1 0x0 PUSH2 0x3FF7 DUP3 PUSH2 0x3DFB JUMP JUMPDEST SWAP1 POP PUSH1 0x0 DUP3 SLT ISZERO PUSH2 0x4017 JUMPI PUSH2 0x3C3F PUSH2 0x161A PUSH8 0xDE111A6B7DE4000 DUP4 PUSH2 0x4618 JUMP JUMPDEST PUSH2 0x1880 PUSH8 0xDE111A6B7DE4000 DUP3 PUSH2 0x35A6 JUMP JUMPDEST PUSH1 0x0 DUP1 PUSH8 0xC7D713B49DA0000 DUP4 SGT DUP1 ISZERO PUSH2 0x404A JUMPI POP PUSH8 0xF43FC2C04EE0000 DUP4 SLT JUMPDEST ISZERO PUSH2 0x405F JUMPI PUSH2 0x4058 DUP4 PUSH2 0x40E3 JUMP JUMPDEST SWAP1 POP PUSH2 0x4075 JUMP JUMPDEST PUSH8 0xDE0B6B3A7640000 PUSH2 0x4071 DUP5 PUSH2 0x420B JUMP JUMPDEST MUL SWAP1 POP JUMPDEST PUSH1 0x0 PUSH8 0xC7D713B49DA0000 DUP6 SGT DUP1 ISZERO PUSH2 0x4095 JUMPI POP PUSH8 0xF43FC2C04EE0000 DUP6 SLT JUMPDEST ISZERO PUSH2 0x40AA JUMPI PUSH2 0x40A3 DUP6 PUSH2 0x40E3 JUMP JUMPDEST SWAP1 POP PUSH2 0x40C0 JUMP JUMPDEST PUSH8 0xDE0B6B3A7640000 PUSH2 0x40BC DUP7 PUSH2 0x420B JUMP JUMPDEST MUL SWAP1 POP JUMPDEST DUP2 PUSH8 0xDE0B6B3A7640000 DUP3 MUL DUP2 PUSH2 0x40D9 JUMPI PUSH2 0x40D9 PUSH2 0x4BFB JUMP JUMPDEST SDIV SWAP6 SWAP5 POP POP POP POP POP JUMP JUMPDEST PUSH8 0xDE0B6B3A7640000 MUL PUSH1 0x0 DUP1 PUSH15 0xC097CE7BC90715B34B9F1000000000 DUP1 DUP5 ADD SWAP1 PUSH15 0xC097CE7BC90715B34B9F0FFFFFFFFF NOT DUP6 ADD MUL DUP2 PUSH2 0x4125 JUMPI PUSH2 0x4125 PUSH2 0x4BFB JUMP JUMPDEST SDIV SWAP1 POP PUSH1 0x0 PUSH15 0xC097CE7BC90715B34B9F1000000000 DUP3 DUP1 MUL SDIV SWAP1 POP DUP2 DUP1 PUSH15 0xC097CE7BC90715B34B9F1000000000 DUP2 DUP5 MUL SDIV SWAP2 POP PUSH1 0x3 DUP3 SDIV ADD PUSH15 0xC097CE7BC90715B34B9F1000000000 DUP3 DUP5 MUL SDIV SWAP2 POP PUSH1 0x5 DUP3 SDIV ADD PUSH15 0xC097CE7BC90715B34B9F1000000000 DUP3 DUP5 MUL SDIV SWAP2 POP PUSH1 0x7 DUP3 SDIV ADD PUSH15 0xC097CE7BC90715B34B9F1000000000 DUP3 DUP5 MUL SDIV SWAP2 POP PUSH1 0x9 DUP3 SDIV ADD PUSH15 0xC097CE7BC90715B34B9F1000000000 DUP3 DUP5 MUL SDIV SWAP2 POP PUSH1 0xB DUP3 SDIV ADD PUSH15 0xC097CE7BC90715B34B9F1000000000 DUP3 DUP5 MUL SDIV SWAP2 POP PUSH1 0xD DUP3 SDIV ADD PUSH15 0xC097CE7BC90715B34B9F1000000000 DUP3 DUP5 MUL SDIV SWAP2 POP PUSH1 0xF DUP3 SDIV ADD PUSH1 0x2 MUL SWAP6 SWAP5 POP POP POP POP POP JUMP JUMPDEST PUSH1 0x0 PUSH8 0xDE0B6B3A7640000 DUP3 SLT ISZERO PUSH2 0x424D JUMPI PUSH2 0x4244 DUP3 PUSH15 0xC097CE7BC90715B34B9F1000000000 DUP2 PUSH2 0x423E JUMPI PUSH2 0x423E PUSH2 0x4BFB JUMP JUMPDEST SDIV PUSH2 0x420B JUMP JUMPDEST PUSH1 0x0 SUB SWAP3 SWAP2 POP POP JUMP JUMPDEST PUSH1 0x0 PUSH31 0x1600EF3172E58D2E933EC884FDE10064C63B5372D805E203C0000000000000 DUP4 SLT PUSH2 0x429E JUMPI PUSH24 0x195E54C5DD42177F53A27172FA9EC630262827000000000 DUP4 SDIV SWAP3 POP PUSH9 0x6F05B59D3B2000000 ADD JUMPDEST PUSH20 0x11798004D755D3C8BC8E03204CF44619E000000 DUP4 SLT PUSH2 0x42D6 JUMPI PUSH12 0x1425982CF597CD205CEF7380 DUP4 SDIV SWAP3 POP PUSH9 0x3782DACE9D9000000 ADD JUMPDEST PUSH1 0x64 SWAP3 DUP4 MUL SWAP3 MUL PUSH15 0x1855144814A7FF805980FF0084000 DUP4 SLT PUSH2 0x431E JUMPI PUSH15 0x1855144814A7FF805980FF0084000 PUSH9 0x56BC75E2D63100000 DUP5 MUL SDIV SWAP3 POP PUSH9 0xAD78EBC5AC62000000 ADD JUMPDEST PUSH12 0x2DF0AB5A80A22C61AB5A700 DUP4 SLT PUSH2 0x4359 JUMPI PUSH12 0x2DF0AB5A80A22C61AB5A700 PUSH9 0x56BC75E2D63100000 DUP5 MUL SDIV SWAP3 POP PUSH9 0x56BC75E2D631000000 ADD JUMPDEST PUSH10 0x3F1FCE3DA636EA5CF850 DUP4 SLT PUSH2 0x4390 JUMPI PUSH10 0x3F1FCE3DA636EA5CF850 PUSH9 0x56BC75E2D63100000 DUP5 MUL SDIV SWAP3 POP PUSH9 0x2B5E3AF16B18800000 ADD JUMPDEST PUSH10 0x127FA27722CC06CC5E2 DUP4 SLT PUSH2 0x43C7 JUMPI PUSH10 0x127FA27722CC06CC5E2 PUSH9 0x56BC75E2D63100000 DUP5 MUL SDIV SWAP3 POP PUSH9 0x15AF1D78B58C400000 ADD JUMPDEST PUSH9 0x280E60114EDB805D03 DUP4 SLT PUSH2 0x43FC JUMPI PUSH9 0x280E60114EDB805D03 PUSH9 0x56BC75E2D63100000 DUP5 MUL SDIV SWAP3 POP PUSH9 0xAD78EBC5AC6200000 ADD JUMPDEST PUSH9 0xEBC5FB41746121110 DUP4 SLT PUSH2 0x4427 JUMPI PUSH9 0xEBC5FB41746121110 PUSH9 0x56BC75E2D63100000 SWAP4 DUP5 MUL SDIV SWAP3 ADD JUMPDEST PUSH9 0x8F00F760A4B2DB55D DUP4 SLT PUSH2 0x445C JUMPI PUSH9 0x8F00F760A4B2DB55D PUSH9 0x56BC75E2D63100000 DUP5 MUL SDIV SWAP3 POP PUSH9 0x2B5E3AF16B1880000 ADD JUMPDEST PUSH9 0x6F5F1775788937937 DUP4 SLT PUSH2 0x4491 JUMPI PUSH9 0x6F5F1775788937937 PUSH9 0x56BC75E2D63100000 DUP5 MUL SDIV SWAP3 POP PUSH9 0x15AF1D78B58C40000 ADD JUMPDEST PUSH9 0x6248F33704B286603 DUP4 SLT PUSH2 0x44C5 JUMPI PUSH9 0x6248F33704B286603 PUSH9 0x56BC75E2D63100000 DUP5 MUL SDIV SWAP3 POP PUSH8 0xAD78EBC5AC620000 ADD JUMPDEST PUSH9 0x5C548670B9510E7AC DUP4 SLT PUSH2 0x44F9 JUMPI PUSH9 0x5C548670B9510E7AC PUSH9 0x56BC75E2D63100000 DUP5 MUL SDIV SWAP3 POP PUSH8 0x56BC75E2D6310000 ADD JUMPDEST PUSH1 0x0 PUSH9 0x56BC75E2D63100000 DUP5 ADD PUSH9 0x56BC75E2D63100000 DUP1 DUP7 SUB MUL DUP2 PUSH2 0x4522 JUMPI PUSH2 0x4522 PUSH2 0x4BFB JUMP JUMPDEST SDIV SWAP1 POP PUSH1 0x0 PUSH9 0x56BC75E2D63100000 DUP3 DUP1 MUL SDIV SWAP1 POP DUP2 DUP1 PUSH9 0x56BC75E2D63100000 DUP2 DUP5 MUL SDIV SWAP2 POP PUSH1 0x3 DUP3 SDIV ADD PUSH9 0x56BC75E2D63100000 DUP3 DUP5 MUL SDIV SWAP2 POP PUSH1 0x5 DUP3 SDIV ADD PUSH9 0x56BC75E2D63100000 DUP3 DUP5 MUL SDIV SWAP2 POP PUSH1 0x7 DUP3 SDIV ADD PUSH9 0x56BC75E2D63100000 DUP3 DUP5 MUL SDIV SWAP2 POP PUSH1 0x9 DUP3 SDIV ADD PUSH9 0x56BC75E2D63100000 DUP3 DUP5 MUL SDIV SWAP2 POP PUSH1 0xB DUP3 SDIV ADD PUSH1 0x2 MUL PUSH1 0x64 DUP6 DUP3 ADD SDIV SWAP8 SWAP7 POP POP POP POP POP POP POP JUMP JUMPDEST PUSH3 0x461BCD PUSH1 0xE5 SHL PUSH1 0x0 SWAP1 DUP2 MSTORE PUSH1 0x20 PUSH1 0x4 MSTORE PUSH1 0x7 PUSH1 0x24 MSTORE PUSH7 0x42414C23000030 PUSH1 0xA DUP1 DUP5 DIV DUP2 DUP2 MOD PUSH1 0x30 SWAP1 DUP2 ADD PUSH1 0x8 SHL SWAP6 DUP4 SWAP1 MOD SWAP6 SWAP1 SWAP6 ADD SWAP1 DUP3 SWAP1 DIV SWAP2 DUP3 MOD SWAP1 SWAP5 ADD PUSH1 0x10 SHL SWAP4 SWAP1 SWAP4 ADD ADD PUSH1 0xC8 SHL PUSH1 0x44 MSTORE PUSH1 0x64 SWAP1 REVERT JUMPDEST PUSH1 0x0 PUSH2 0x1946 DUP3 PUSH1 0x40 ADD MLOAD PUSH2 0x3F60 JUMP JUMPDEST PUSH1 0x0 DUP2 ISZERO DUP1 PUSH2 0x462E JUMPI POP PUSH8 0xDE0B6B3A7640000 DUP4 EQ JUMPDEST ISZERO PUSH2 0x4642 JUMPI POP PUSH8 0xDE0B6B3A7640000 PUSH2 0x1946 JUMP JUMPDEST DUP3 PUSH2 0x464F JUMPI POP PUSH1 0x0 PUSH2 0x1946 JUMP JUMPDEST PUSH8 0xDE0B6B3A7640000 DUP3 EQ ISZERO PUSH2 0x4666 JUMPI POP DUP2 PUSH2 0x1946 JUMP JUMPDEST PUSH2 0x4679 PUSH8 0xDE0B6B3A7640000 PUSH1 0x2 PUSH2 0x4BDC JUMP JUMPDEST DUP3 EQ ISZERO PUSH2 0x468A JUMPI PUSH2 0x3618 DUP4 DUP5 PUSH2 0x2262 JUMP JUMPDEST PUSH2 0x469D PUSH8 0xDE0B6B3A7640000 PUSH1 0x4 PUSH2 0x4BDC JUMP JUMPDEST DUP3 EQ ISZERO PUSH2 0x46BC JUMPI PUSH1 0x0 PUSH2 0x46B0 DUP5 DUP6 PUSH2 0x2262 JUMP JUMPDEST SWAP1 POP PUSH2 0x22A9 DUP2 DUP3 PUSH2 0x2262 JUMP JUMPDEST PUSH1 0x0 PUSH2 0x46C8 DUP5 DUP5 PUSH2 0x3E12 JUMP JUMPDEST SWAP1 POP PUSH1 0x0 PUSH2 0x46DB PUSH2 0x2339 DUP4 PUSH2 0x2710 PUSH2 0x2262 JUMP JUMPDEST SWAP1 POP PUSH2 0x368F DUP3 DUP3 PUSH2 0x3A7B JUMP JUMPDEST PUSH4 0x4E487B71 PUSH1 0xE0 SHL PUSH1 0x0 MSTORE PUSH1 0x41 PUSH1 0x4 MSTORE PUSH1 0x24 PUSH1 0x0 REVERT JUMPDEST DUP1 ISZERO ISZERO DUP2 EQ PUSH2 0x2F15 JUMPI PUSH1 0x0 DUP1 REVERT JUMPDEST PUSH1 0x0 PUSH2 0x100 DUP1 DUP4 DUP6 SUB SLT ISZERO PUSH2 0x471F JUMPI PUSH1 0x0 DUP1 REVERT JUMPDEST PUSH1 0x40 MLOAD SWAP1 DUP2 ADD SWAP1 PUSH8 0xFFFFFFFFFFFFFFFF DUP3 GT DUP2 DUP4 LT OR ISZERO PUSH2 0x4742 JUMPI PUSH2 0x4742 PUSH2 0x46E7 JUMP JUMPDEST DUP2 PUSH1 0x40 MSTORE DUP1 SWAP3 POP DUP4 CALLDATALOAD DUP2 MSTORE PUSH1 0x20 DUP5 ADD CALLDATALOAD PUSH1 0x20 DUP3 ADD MSTORE PUSH1 0x40 DUP5 ADD CALLDATALOAD PUSH1 0x40 DUP3 ADD MSTORE PUSH1 0x60 DUP5 ADD CALLDATALOAD PUSH1 0x60 DUP3 ADD MSTORE PUSH1 0x80 DUP5 ADD CALLDATALOAD PUSH1 0x80 DUP3 ADD MSTORE PUSH1 0xA0 DUP5 ADD CALLDATALOAD PUSH1 0xA0 DUP3 ADD MSTORE PUSH1 0xC0 DUP5 ADD CALLDATALOAD PUSH1 0xC0 DUP3 ADD MSTORE PUSH1 0xE0 DUP5 ADD CALLDATALOAD SWAP2 POP PUSH2 0x4799 DUP3 PUSH2 0x46FD JUMP JUMPDEST PUSH1 0xE0 ADD MSTORE SWAP3 SWAP2 POP POP JUMP JUMPDEST PUSH1 0x0 DUP1 PUSH2 0x120 DUP4 DUP6 SUB SLT ISZERO PUSH2 0x47B7 JUMPI PUSH1 0x0 DUP1 REVERT JUMPDEST PUSH2 0x47C1 DUP5 DUP5 PUSH2 0x470B JUMP JUMPDEST SWAP5 PUSH2 0x100 SWAP4 SWAP1 SWAP4 ADD CALLDATALOAD SWAP4 POP POP POP JUMP JUMPDEST PUSH1 0x0 DUP1 PUSH1 0x0 PUSH1 0x60 DUP5 DUP7 SUB SLT ISZERO PUSH2 0x47E5 JUMPI PUSH1 0x0 DUP1 REVERT JUMPDEST POP POP DUP2 CALLDATALOAD SWAP4 PUSH1 0x20 DUP4 ADD CALLDATALOAD SWAP4 POP PUSH1 0x40 SWAP1 SWAP3 ADD CALLDATALOAD SWAP2 SWAP1 POP JUMP JUMPDEST PUSH1 0x0 PUSH1 0x20 DUP3 DUP5 SUB SLT ISZERO PUSH2 0x480E JUMPI PUSH1 0x0 DUP1 REVERT JUMPDEST POP CALLDATALOAD SWAP2 SWAP1 POP JUMP JUMPDEST PUSH1 0x0 PUSH2 0x100 DUP3 DUP5 SUB SLT ISZERO PUSH2 0x4828 JUMPI PUSH1 0x0 DUP1 REVERT JUMPDEST PUSH2 0x1943 DUP4 DUP4 PUSH2 0x470B JUMP JUMPDEST PUSH1 0x0 DUP1 PUSH1 0x0 DUP1 PUSH1 0x80 DUP6 DUP8 SUB SLT ISZERO PUSH2 0x4848 JUMPI PUSH1 0x0 DUP1 REVERT JUMPDEST DUP5 CALLDATALOAD SWAP4 POP PUSH1 0x20 DUP6 ADD CALLDATALOAD SWAP3 POP PUSH1 0x40 DUP6 ADD CALLDATALOAD PUSH2 0x4861 DUP2 PUSH2 0x46FD JUMP JUMPDEST SWAP4 SWAP7 SWAP3 SWAP6 POP SWAP3 SWAP4 PUSH1 0x60 ADD CALLDATALOAD SWAP3 POP POP JUMP JUMPDEST PUSH1 0x0 PUSH2 0x1E0 DUP1 DUP4 DUP6 SUB SLT ISZERO PUSH2 0x4885 JUMPI PUSH1 0x0 DUP1 REVERT JUMPDEST DUP4 PUSH1 0x1F DUP5 ADD SLT PUSH2 0x4894 JUMPI PUSH1 0x0 DUP1 REVERT JUMPDEST PUSH1 0x40 MLOAD DUP2 DUP2 ADD DUP2 DUP2 LT PUSH8 0xFFFFFFFFFFFFFFFF DUP3 GT OR ISZERO PUSH2 0x48B6 JUMPI PUSH2 0x48B6 PUSH2 0x46E7 JUMP JUMPDEST PUSH1 0x40 MSTORE SWAP1 DUP4 ADD SWAP1 DUP1 DUP6 DUP4 GT ISZERO PUSH2 0x48CB JUMPI PUSH1 0x0 DUP1 REVERT JUMPDEST DUP5 JUMPDEST DUP4 DUP2 LT ISZERO PUSH2 0x48E5 JUMPI DUP1 CALLDATALOAD DUP3 MSTORE PUSH1 0x20 SWAP2 DUP3 ADD SWAP2 ADD PUSH2 0x48CD JUMP JUMPDEST POP SWAP1 SWAP6 SWAP5 POP POP POP POP POP JUMP JUMPDEST PUSH1 0x0 DUP1 PUSH1 0x40 DUP4 DUP6 SUB SLT ISZERO PUSH2 0x4903 JUMPI PUSH1 0x0 DUP1 REVERT JUMPDEST DUP3 CALLDATALOAD PUSH1 0xF DUP2 LT PUSH2 0x4912 JUMPI PUSH1 0x0 DUP1 REVERT JUMPDEST SWAP5 PUSH1 0x20 SWAP4 SWAP1 SWAP4 ADD CALLDATALOAD SWAP4 POP POP POP JUMP JUMPDEST PUSH1 0x0 DUP1 PUSH1 0x40 DUP4 DUP6 SUB SLT ISZERO PUSH2 0x4933 JUMPI PUSH1 0x0 DUP1 REVERT JUMPDEST POP POP DUP1 CALLDATALOAD SWAP3 PUSH1 0x20 SWAP1 SWAP2 ADD CALLDATALOAD SWAP2 POP JUMP JUMPDEST PUSH1 0x1 PUSH1 0x1 PUSH1 0xA0 SHL SUB DUP2 AND DUP2 EQ PUSH2 0x2F15 JUMPI PUSH1 0x0 DUP1 REVERT JUMPDEST PUSH1 0x0 DUP1 PUSH1 0x40 DUP4 DUP6 SUB SLT ISZERO PUSH2 0x496A JUMPI PUSH1 0x0 DUP1 REVERT JUMPDEST DUP3 CALLDATALOAD PUSH2 0x4912 DUP2 PUSH2 0x4942 JUMP JUMPDEST DUP1 CALLDATALOAD PUSH4 0xFFFFFFFF DUP2 AND DUP2 EQ PUSH2 0x1C57 JUMPI PUSH1 0x0 DUP1 REVERT JUMPDEST PUSH1 0x0 DUP1 DUP3 DUP5 SUB PUSH1 0x80 DUP2 SLT ISZERO PUSH2 0x499D JUMPI PUSH1 0x0 DUP1 REVERT JUMPDEST PUSH1 0x60 DUP2 SLT ISZERO PUSH2 0x49AB JUMPI PUSH1 0x0 DUP1 REVERT JUMPDEST POP PUSH1 0x40 MLOAD PUSH1 0x60 DUP2 ADD DUP2 DUP2 LT PUSH8 0xFFFFFFFFFFFFFFFF DUP3 GT OR ISZERO PUSH2 0x49CF JUMPI PUSH2 0x49CF PUSH2 0x46E7 JUMP JUMPDEST PUSH1 0x40 MSTORE PUSH2 0x49DB DUP5 PUSH2 0x4975 JUMP JUMPDEST DUP2 MSTORE PUSH2 0x49E9 PUSH1 0x20 DUP6 ADD PUSH2 0x4975 JUMP JUMPDEST PUSH1 0x20 DUP3 ADD MSTORE PUSH1 0x40 DUP5 ADD CALLDATALOAD DUP1 PUSH1 0x17 SIGNEXTEND DUP2 EQ PUSH2 0x4A02 JUMPI PUSH1 0x0 DUP1 REVERT JUMPDEST PUSH1 0x40 DUP3 ADD MSTORE SWAP5 PUSH1 0x60 SWAP4 SWAP1 SWAP4 ADD CALLDATALOAD SWAP4 POP POP POP JUMP JUMPDEST PUSH4 0x4E487B71 PUSH1 0xE0 SHL PUSH1 0x0 MSTORE PUSH1 0x11 PUSH1 0x4 MSTORE PUSH1 0x24 PUSH1 0x0 REVERT JUMPDEST PUSH1 0x0 DUP3 NOT DUP3 GT ISZERO PUSH2 0x4A3E JUMPI PUSH2 0x4A3E PUSH2 0x4A15 JUMP JUMPDEST POP ADD SWAP1 JUMP JUMPDEST PUSH1 0x0 DUP3 DUP3 LT ISZERO PUSH2 0x4A55 JUMPI PUSH2 0x4A55 PUSH2 0x4A15 JUMP JUMPDEST POP SUB SWAP1 JUMP JUMPDEST PUSH1 0x0 DUP1 DUP4 SLT DUP1 ISZERO PUSH1 0x1 PUSH1 0xFF SHL DUP6 ADD DUP5 SLT AND ISZERO PUSH2 0x4A78 JUMPI PUSH2 0x4A78 PUSH2 0x4A15 JUMP JUMPDEST DUP4 PUSH1 0x1 PUSH1 0x1 PUSH1 0xFF SHL SUB ADD DUP4 SGT DUP2 AND ISZERO PUSH2 0x4A93 JUMPI PUSH2 0x4A93 PUSH2 0x4A15 JUMP JUMPDEST POP POP SUB SWAP1 JUMP JUMPDEST PUSH1 0x0 PUSH1 0x1 PUSH1 0x1 PUSH1 0xF0 SHL SUB DUP4 DUP2 AND SWAP1 DUP4 AND DUP2 DUP2 LT ISZERO PUSH2 0x4AB9 JUMPI PUSH2 0x4AB9 PUSH2 0x4A15 JUMP JUMPDEST SUB SWAP4 SWAP3 POP POP POP JUMP JUMPDEST PUSH1 0x0 PUSH1 0x20 DUP3 DUP5 SUB SLT ISZERO PUSH2 0x4AD3 JUMPI PUSH1 0x0 DUP1 REVERT JUMPDEST DUP2 MLOAD PUSH2 0x1812 DUP2 PUSH2 0x46FD JUMP JUMPDEST PUSH1 0x0 PUSH1 0x20 DUP3 DUP5 SUB SLT ISZERO PUSH2 0x4AF0 JUMPI PUSH1 0x0 DUP1 REVERT JUMPDEST DUP2 MLOAD PUSH2 0x1812 DUP2 PUSH2 0x4942 JUMP JUMPDEST PUSH1 0x0 PUSH1 0x0 NOT DUP3 EQ ISZERO PUSH2 0x4B0F JUMPI PUSH2 0x4B0F PUSH2 0x4A15 JUMP JUMPDEST POP PUSH1 0x1 ADD SWAP1 JUMP JUMPDEST PUSH1 0x0 PUSH2 0x100 DUP1 DUP4 DUP6 SUB SLT ISZERO PUSH2 0x4B2A JUMPI PUSH1 0x0 DUP1 REVERT JUMPDEST PUSH1 0x40 MLOAD SWAP1 DUP2 ADD SWAP1 PUSH8 0xFFFFFFFFFFFFFFFF DUP3 GT DUP2 DUP4 LT OR ISZERO PUSH2 0x4B4D JUMPI PUSH2 0x4B4D PUSH2 0x46E7 JUMP JUMPDEST DUP2 PUSH1 0x40 MSTORE DUP4 MLOAD DUP2 MSTORE PUSH1 0x20 DUP5 ADD MLOAD PUSH1 0x20 DUP3 ADD MSTORE PUSH1 0x40 DUP5 ADD MLOAD PUSH1 0x40 DUP3 ADD MSTORE PUSH1 0x60 DUP5 ADD MLOAD PUSH1 0x60 DUP3 ADD MSTORE PUSH1 0x80 DUP5 ADD MLOAD PUSH1 0x80 DUP3 ADD MSTORE PUSH1 0xA0 DUP5 ADD MLOAD PUSH1 0xA0 DUP3 ADD MSTORE PUSH1 0xC0 DUP5 ADD MLOAD PUSH1 0xC0 DUP3 ADD MSTORE PUSH1 0xE0 DUP5 ADD MLOAD SWAP2 POP PUSH2 0x4BA1 DUP3 PUSH2 0x46FD JUMP JUMPDEST PUSH1 0xE0 DUP2 ADD SWAP2 SWAP1 SWAP2 MSTORE SWAP4 SWAP3 POP POP POP JUMP JUMPDEST PUSH4 0x4E487B71 PUSH1 0xE0 SHL PUSH1 0x0 MSTORE PUSH1 0x21 PUSH1 0x4 MSTORE PUSH1 0x24 PUSH1 0x0 REVERT JUMPDEST PUSH4 0x4E487B71 PUSH1 0xE0 SHL PUSH1 0x0 MSTORE PUSH1 0x32 PUSH1 0x4 MSTORE PUSH1 0x24 PUSH1 0x0 REVERT JUMPDEST PUSH1 0x0 DUP2 PUSH1 0x0 NOT DIV DUP4 GT DUP3 ISZERO ISZERO AND ISZERO PUSH2 0x4BF6 JUMPI PUSH2 0x4BF6 PUSH2 0x4A15 JUMP JUMPDEST POP MUL SWAP1 JUMP JUMPDEST PUSH4 0x4E487B71 PUSH1 0xE0 SHL PUSH1 0x0 MSTORE PUSH1 0x12 PUSH1 0x4 MSTORE PUSH1 0x24 PUSH1 0x0 REVERT JUMPDEST PUSH1 0x0 DUP3 PUSH2 0x4C20 JUMPI PUSH2 0x4C20 PUSH2 0x4BFB JUMP JUMPDEST POP DIV SWAP1 JUMP JUMPDEST PUSH1 0x0 PUSH1 0x1 PUSH1 0x1 PUSH1 0xFF SHL SUB PUSH1 0x0 DUP5 SGT PUSH1 0x0 DUP5 SGT DUP6 DUP4 DIV DUP6 GT DUP3 DUP3 AND AND ISZERO PUSH2 0x4C4D JUMPI PUSH2 0x4C4D PUSH2 0x4A15 JUMP JUMPDEST PUSH1 0x1 PUSH1 0xFF SHL PUSH1 0x0 DUP8 SLT DUP3 DUP2 AND DUP8 DUP4 SDIV DUP10 SLT AND ISZERO PUSH2 0x4C6C JUMPI PUSH2 0x4C6C PUSH2 0x4A15 JUMP JUMPDEST PUSH1 0x0 DUP8 SLT SWAP3 POP DUP8 DUP3 SDIV DUP8 SLT DUP5 DUP5 AND AND ISZERO PUSH2 0x4C88 JUMPI PUSH2 0x4C88 PUSH2 0x4A15 JUMP JUMPDEST DUP8 DUP6 SDIV DUP8 SLT DUP2 DUP5 AND AND ISZERO PUSH2 0x4C9E JUMPI PUSH2 0x4C9E PUSH2 0x4A15 JUMP JUMPDEST POP POP POP SWAP3 SWAP1 SWAP4 MUL SWAP4 SWAP3 POP POP POP JUMP JUMPDEST PUSH1 0x0 DUP3 PUSH2 0x4CBB JUMPI PUSH2 0x4CBB PUSH2 0x4BFB JUMP JUMPDEST PUSH1 0x1 PUSH1 0xFF SHL DUP3 EQ PUSH1 0x0 NOT DUP5 EQ AND ISZERO PUSH2 0x4CD5 JUMPI PUSH2 0x4CD5 PUSH2 0x4A15 JUMP JUMPDEST POP SDIV SWAP1 JUMP JUMPDEST PUSH1 0x0 PUSH4 0xFFFFFFFF DUP4 DUP2 AND SWAP1 DUP4 AND DUP2 DUP2 LT ISZERO PUSH2 0x4AB9 JUMPI PUSH2 0x4AB9 PUSH2 0x4A15 JUMP JUMPDEST PUSH1 0x0 DUP1 DUP3 SLT DUP3 PUSH1 0x1 PUSH1 0x1 PUSH1 0xFF SHL SUB SUB DUP5 SGT DUP2 ISZERO AND ISZERO PUSH2 0x4D18 JUMPI PUSH2 0x4D18 PUSH2 0x4A15 JUMP JUMPDEST PUSH1 0x1 PUSH1 0xFF SHL DUP4 SWAP1 SUB DUP5 SLT DUP2 AND ISZERO PUSH2 0x4D31 JUMPI PUSH2 0x4D31 PUSH2 0x4A15 JUMP JUMPDEST POP POP ADD SWAP1 JUMP INVALID LOG2 PUSH5 0x6970667358 0x22 SLT KECCAK256 STOP 0x21 0xB7 SWAP10 0x28 0xC1 0xC 0x5D 0xD5 ORIGIN SLT SWAP10 0xE DUP6 DUP13 ISZERO SWAP10 0xD9 0xAC SIGNEXTEND PUSH23 0xE0EA9DB085DF1DF96072BE64736F6C634300080A003300 ",
  "sha1": "b5c9d9315e1278812c1a80cf9e8698441f0d7b7d",
  "source": "// SPDX-License-Identifier: MIT\npragma solidity 0.8.10;\n\nimport \"@openzeppelin/contracts/utils/math/Math.sol\";\n\nimport \"./interfaces/IOverlayV1Factory.sol\";\nimport \"./interfaces/IOverlayV1Market.sol\";\nimport \"./interfaces/IOverlayV1Token.sol\";\nimport \"./interfaces/feeds/IOverlayV1Feed.sol\";\n\nimport \"./libraries/FixedCast.sol\";\nimport \"./libraries/FixedPoint.sol\";\nimport \"./libraries/Oracle.sol\";\nimport \"./libraries/Position.sol\";\nimport \"./libraries/Risk.sol\";\nimport \"./libraries/Roller.sol\";\nimport \"./libraries/Tick.sol\";\n\ncontract OverlayV1Market is IOverlayV1Market {\n    using FixedCast for uint16;\n    using FixedCast for uint256;\n    using FixedPoint for uint256;\n    using Oracle for Oracle.Data;\n    using Position for mapping(bytes32 => Position.Info);\n    using Position for Position.Info;\n    using Risk for uint256[15];\n    using Roller for Roller.Snapshot;\n\n    // internal constants\n    uint256 internal constant ONE = 1e18; // 18 decimal places\n\n    // cap for euler exponent powers; SEE: ./libraries/LogExpMath.sol::pow\n    // using ~ 1/2 library max for substantial padding\n    uint256 internal constant MAX_NATURAL_EXPONENT = 20e18;\n\n    // immutables\n    IOverlayV1Token public immutable ovl; // ovl token\n    address public immutable feed; // oracle feed\n    address public immutable factory; // factory that deployed this market\n\n    // risk params\n    uint256[15] public params; // params.idx order based on Risk.Parameters enum\n\n    // aggregate oi quantities\n    uint256 public oiLong;\n    uint256 public oiShort;\n    uint256 public oiLongShares;\n    uint256 public oiShortShares;\n\n    // rollers\n    Roller.Snapshot public override snapshotVolumeBid; // snapshot of recent volume on bid\n    Roller.Snapshot public override snapshotVolumeAsk; // snapshot of recent volume on ask\n    Roller.Snapshot public override snapshotMinted; // snapshot of recent PnL minted/burned\n\n    // positions\n    mapping(bytes32 => Position.Info) public override positions;\n    uint256 private _totalPositions;\n\n    // data from last call to update\n    uint256 public timestampUpdateLast;\n\n    // cached risk calcs\n    uint256 public dpUpperLimit; // e**(+priceDriftUpperLimit * macroWindow)\n\n    // factory modifier for governance sensitive functions\n    modifier onlyFactory() {\n        require(msg.sender == factory, \"OVLV1: !factory\");\n        _;\n    }\n\n    // events for core functions\n    event Build(\n        address indexed sender, // address that initiated build (owns position)\n        uint256 positionId, // id of built position\n        uint256 oi, // oi of position at build\n        uint256 debt, // debt of position at build\n        bool isLong, // whether is long or short\n        uint256 price // entry price\n    );\n    event Unwind(\n        address indexed sender, // address that initiated unwind (owns position)\n        uint256 positionId, // id of unwound position\n        uint256 fraction, // fraction of position unwound\n        int256 mint, // total amount minted/burned (+/-) at unwind\n        uint256 price // exit price\n    );\n    event Liquidate(\n        address indexed sender, // address that initiated liquidate\n        address indexed owner, // address that owned the liquidated position\n        uint256 positionId, // id of the liquidated position\n        int256 mint, // total amount burned (-) at liquidate\n        uint256 price // liquidation price\n    );\n\n    constructor() {\n        (address _ovl, address _feed, address _factory) = IOverlayV1Deployer(msg.sender)\n            .parameters();\n        ovl = IOverlayV1Token(_ovl);\n        feed = _feed;\n        factory = _factory;\n    }\n\n    /// @notice initializes the market and its risk params\n    /// @notice called only once by factory on deployment\n    function initialize(uint256[15] memory _params) external onlyFactory {\n        // initialize update data\n        Oracle.Data memory data = IOverlayV1Feed(feed).latest();\n        require(_midFromFeed(data) > 0, \"OVLV1:!data\");\n        timestampUpdateLast = block.timestamp;\n\n        // check risk params valid\n        uint256 _capLeverage = _params[uint256(Risk.Parameters.CapLeverage)];\n        uint256 _delta = _params[uint256(Risk.Parameters.Delta)];\n        uint256 _maintenanceMarginFraction = _params[\n            uint256(Risk.Parameters.MaintenanceMarginFraction)\n        ];\n        uint256 _liquidationFeeRate = _params[uint256(Risk.Parameters.LiquidationFeeRate)];\n        require(\n            _capLeverage <=\n                ONE.divDown(\n                    2 * _delta + _maintenanceMarginFraction.divDown(ONE - _liquidationFeeRate)\n                ),\n            \"OVLV1: max lev immediately liquidatable\"\n        );\n\n        uint256 _priceDriftUpperLimit = _params[uint256(Risk.Parameters.PriceDriftUpperLimit)];\n        require(\n            _priceDriftUpperLimit * data.macroWindow < MAX_NATURAL_EXPONENT,\n            \"OVLV1: price drift exceeds max exp\"\n        );\n        _cacheRiskCalc(Risk.Parameters.PriceDriftUpperLimit, _priceDriftUpperLimit);\n\n        // set the risk params\n        for (uint256 i = 0; i < _params.length; i++) {\n            params[i] = _params[i];\n        }\n    }\n\n    /// @dev builds a new position\n    function build(\n        uint256 collateral,\n        uint256 leverage,\n        bool isLong,\n        uint256 priceLimit\n    ) external returns (uint256 positionId_) {\n        require(leverage >= ONE, \"OVLV1:lev<min\");\n        require(leverage <= params.get(Risk.Parameters.CapLeverage), \"OVLV1:lev>max\");\n        require(collateral >= params.get(Risk.Parameters.MinCollateral), \"OVLV1:collateral<min\");\n\n        uint256 oi;\n        uint256 debt;\n        uint256 price;\n        uint256 tradingFee;\n        // avoids stack too deep\n        {\n            // call to update before any effects\n            Oracle.Data memory data = update();\n\n            // calculate notional, oi, and trading fees. fees charged on notional\n            // and added to collateral transferred in\n            uint256 notional = collateral.mulUp(leverage);\n            uint256 midPrice = _midFromFeed(data);\n            oi = oiFromNotional(notional, midPrice);\n\n            // check have more than zero number of contracts built\n            require(oi > 0, \"OVLV1:oi==0\");\n\n            // calculate debt and trading fees. fees charged on notional\n            // and added to collateral transferred in\n            debt = notional - collateral;\n            tradingFee = notional.mulUp(params.get(Risk.Parameters.TradingFeeRate));\n\n            // calculate current notional cap adjusted for circuit breaker *then* adjust\n            // for front run and back run bounds (order matters)\n            // finally, transform into a cap on open interest\n            uint256 capOi = oiFromNotional(\n                capNotionalAdjustedForBounds(\n                    data,\n                    capNotionalAdjustedForCircuitBreaker(params.get(Risk.Parameters.CapNotional))\n                ),\n                midPrice\n            );\n\n            // longs get the ask and shorts get the bid on build\n            // register the additional volume on either the ask or bid\n            // where volume = oi / capOi\n            price = isLong\n                ? ask(data, _registerVolumeAsk(data, oi, capOi))\n                : bid(data, _registerVolumeBid(data, oi, capOi));\n            // check price hasn't changed more than max slippage specified by trader\n            require(isLong ? price <= priceLimit : price >= priceLimit, \"OVLV1:slippage>max\");\n\n            // add new position's open interest to the side's aggregate oi value\n            // and increase number of oi shares issued\n            uint256 oiShares = _addToOiAggregates(oi, capOi, isLong);\n\n            // assemble position info data\n            // check position is not immediately liquidatable prior to storing\n            Position.Info memory pos = Position.Info({\n                notionalInitial: uint96(notional), // won't overflow as capNotional max is 8e24\n                debtInitial: uint96(debt),\n                midTick: Tick.priceToTick(midPrice),\n                entryTick: Tick.priceToTick(price),\n                isLong: isLong,\n                liquidated: false,\n                oiShares: uint240(oiShares), // won't overflow as oiShares ~ notional/mid\n                fractionRemaining: ONE.toUint16Fixed()\n            });\n            require(\n                !pos.liquidatable(\n                    isLong ? oiLong : oiShort,\n                    isLong ? oiLongShares : oiShortShares,\n                    midPrice, // mid price used on liquidations\n                    params.get(Risk.Parameters.CapPayoff),\n                    params.get(Risk.Parameters.MaintenanceMarginFraction),\n                    params.get(Risk.Parameters.LiquidationFeeRate)\n                ),\n                \"OVLV1:liquidatable\"\n            );\n\n            // store the position info data\n            positionId_ = _totalPositions;\n            positions.set(msg.sender, positionId_, pos);\n            _totalPositions++;\n        }\n\n        // emit build event\n        emit Build(msg.sender, positionId_, oi, debt, isLong, price);\n\n        // transfer in the OVL collateral needed to back the position + fees\n        // trading fees charged as a percentage on notional size of position\n        ovl.transferFrom(msg.sender, address(this), collateral + tradingFee);\n\n        // send trading fees to trading fee recipient\n        ovl.transfer(IOverlayV1Factory(factory).feeRecipient(), tradingFee);\n    }\n\n    /// @dev unwinds fraction of an existing position\n    function unwind(\n        uint256 positionId,\n        uint256 fraction,\n        uint256 priceLimit\n    ) external {\n        require(fraction <= ONE, \"OVLV1:fraction>max\");\n        // only keep 4 decimal precision (1 bps) for fraction given\n        // pos.fractionRemaining only to 4 decimals\n        fraction = fraction.toUint16Fixed().toUint256Fixed();\n        require(fraction > 0, \"OVLV1:fraction<min\");\n\n        uint256 value;\n        uint256 cost;\n        uint256 price;\n        uint256 tradingFee;\n        // avoids stack too deep\n        {\n            // call to update before any effects\n            Oracle.Data memory data = update();\n\n            // check position exists\n            Position.Info memory pos = positions.get(msg.sender, positionId);\n            require(pos.exists(), \"OVLV1:!position\");\n\n            // cache for gas savings\n            uint256 oiTotalOnSide = pos.isLong ? oiLong : oiShort;\n            uint256 oiTotalSharesOnSide = pos.isLong ? oiLongShares : oiShortShares;\n\n            // check position not liquidatable otherwise can't unwind\n            require(\n                !pos.liquidatable(\n                    oiTotalOnSide,\n                    oiTotalSharesOnSide,\n                    _midFromFeed(data), // mid price used on liquidations\n                    params.get(Risk.Parameters.CapPayoff),\n                    params.get(Risk.Parameters.MaintenanceMarginFraction),\n                    params.get(Risk.Parameters.LiquidationFeeRate)\n                ),\n                \"OVLV1:liquidatable\"\n            );\n\n            // longs get the bid and shorts get the ask on unwind\n            // register the additional volume on either the ask or bid\n            // where volume = oi / capOi\n            // current cap only adjusted for bounds (no circuit breaker so traders\n            // don't get stuck in a position)\n            uint256 capOi = oiFromNotional(\n                capNotionalAdjustedForBounds(data, params.get(Risk.Parameters.CapNotional)),\n                _midFromFeed(data)\n            );\n            price = pos.isLong\n                ? bid(\n                    data,\n                    _registerVolumeBid(\n                        data,\n                        pos.oiCurrent(fraction, oiTotalOnSide, oiTotalSharesOnSide),\n                        capOi\n                    )\n                )\n                : ask(\n                    data,\n                    _registerVolumeAsk(\n                        data,\n                        pos.oiCurrent(fraction, oiTotalOnSide, oiTotalSharesOnSide),\n                        capOi\n                    )\n                );\n            // check price hasn't changed more than max slippage specified by trader\n            require(pos.isLong ? price >= priceLimit : price <= priceLimit, \"OVLV1:slippage>max\");\n\n            // calculate the value and cost of the position for pnl determinations\n            // and amount to transfer\n            uint256 capPayoff = params.get(Risk.Parameters.CapPayoff);\n            value = pos.value(fraction, oiTotalOnSide, oiTotalSharesOnSide, price, capPayoff);\n            cost = pos.cost(fraction);\n\n            // calculate the trading fee as % on notional\n            uint256 tradingFeeRate = params.get(Risk.Parameters.TradingFeeRate);\n            tradingFee = pos.tradingFee(\n                fraction,\n                oiTotalOnSide,\n                oiTotalSharesOnSide,\n                price,\n                capPayoff,\n                tradingFeeRate\n            );\n            tradingFee = Math.min(tradingFee, value); // if value < tradingFee\n\n            // subtract unwound open interest from the side's aggregate oi value\n            // and decrease number of oi shares issued\n            // NOTE: use subFloor to avoid reverts with oi rounding issues\n            if (pos.isLong) {\n                oiLong = oiLong.subFloor(\n                    pos.oiCurrent(fraction, oiTotalOnSide, oiTotalSharesOnSide)\n                );\n                oiLongShares -= pos.oiSharesCurrent(fraction);\n            } else {\n                oiShort = oiShort.subFloor(\n                    pos.oiCurrent(fraction, oiTotalOnSide, oiTotalSharesOnSide)\n                );\n                oiShortShares -= pos.oiSharesCurrent(fraction);\n            }\n\n            // register the amount to be minted/burned\n            // capPayoff prevents overflow reverts with int256 cast\n            _registerMintOrBurn(int256(value) - int256(cost));\n\n            // store the updated position info data by reducing the\n            // oiShares and fraction remaining of initial position\n            pos.oiShares -= uint240(pos.oiSharesCurrent(fraction));\n            pos.fractionRemaining = pos.updatedFractionRemaining(fraction);\n            positions.set(msg.sender, positionId, pos);\n        }\n\n        // emit unwind event\n        emit Unwind(msg.sender, positionId, fraction, int256(value) - int256(cost), price);\n\n        // mint or burn the pnl for the position\n        if (value >= cost) {\n            ovl.mint(address(this), value - cost);\n        } else {\n            ovl.burn(cost - value);\n        }\n\n        // transfer out the unwound position value less fees to trader\n        ovl.transfer(msg.sender, value - tradingFee);\n\n        // send trading fees to trading fee recipient\n        ovl.transfer(IOverlayV1Factory(factory).feeRecipient(), tradingFee);\n    }\n\n    /// @dev liquidates a liquidatable position\n    function liquidate(address owner, uint256 positionId) external {\n        uint256 value;\n        uint256 cost;\n        uint256 price;\n        uint256 liquidationFee;\n        uint256 marginToBurn;\n        uint256 marginRemaining;\n        // avoids stack too deep\n        {\n            // check position exists\n            Position.Info memory pos = positions.get(owner, positionId);\n            require(pos.exists(), \"OVLV1:!position\");\n\n            // call to update before any effects\n            Oracle.Data memory data = update();\n\n            // cache for gas savings\n            uint256 oiTotalOnSide = pos.isLong ? oiLong : oiShort;\n            uint256 oiTotalSharesOnSide = pos.isLong ? oiLongShares : oiShortShares;\n            uint256 capPayoff = params.get(Risk.Parameters.CapPayoff);\n\n            // entire position should be liquidated\n            uint256 fraction = ONE;\n\n            // Use mid price without volume for liquidation (oracle price effectively) to\n            // prevent market impact manipulation from causing unneccessary liquidations\n            price = _midFromFeed(data);\n\n            // check position is liquidatable\n            require(\n                pos.liquidatable(\n                    oiTotalOnSide,\n                    oiTotalSharesOnSide,\n                    price,\n                    capPayoff,\n                    params.get(Risk.Parameters.MaintenanceMarginFraction),\n                    params.get(Risk.Parameters.LiquidationFeeRate)\n                ),\n                \"OVLV1:!liquidatable\"\n            );\n\n            // calculate the value and cost of the position for pnl determinations\n            // and amount to transfer\n            value = pos.value(fraction, oiTotalOnSide, oiTotalSharesOnSide, price, capPayoff);\n            cost = pos.cost(fraction);\n\n            // calculate the liquidation fee as % on remaining value\n            // sent as reward to liquidator\n            liquidationFee = value.mulDown(params.get(Risk.Parameters.LiquidationFeeRate));\n            marginRemaining = value - liquidationFee;\n\n            // Reduce burn amount further by the mm burn rate, as insurance\n            // for cases when not liquidated in time\n            marginToBurn = marginRemaining.mulDown(\n                params.get(Risk.Parameters.MaintenanceMarginBurnRate)\n            );\n            marginRemaining -= marginToBurn;\n\n            // subtract liquidated open interest from the side's aggregate oi value\n            // and decrease number of oi shares issued\n            // NOTE: use subFloor to avoid reverts with oi rounding issues\n            if (pos.isLong) {\n                oiLong = oiLong.subFloor(\n                    pos.oiCurrent(fraction, oiTotalOnSide, oiTotalSharesOnSide)\n                );\n                oiLongShares -= pos.oiSharesCurrent(fraction);\n            } else {\n                oiShort = oiShort.subFloor(\n                    pos.oiCurrent(fraction, oiTotalOnSide, oiTotalSharesOnSide)\n                );\n                oiShortShares -= pos.oiSharesCurrent(fraction);\n            }\n\n            // register the amount to be burned\n            _registerMintOrBurn(int256(value) - int256(cost) - int256(marginToBurn));\n\n            // store the updated position info data. mark as liquidated\n            pos.liquidated = true;\n            pos.oiShares = 0;\n            pos.fractionRemaining = 0;\n            positions.set(owner, positionId, pos);\n        }\n\n        // emit liquidate event\n        emit Liquidate(\n            msg.sender,\n            owner,\n            positionId,\n            int256(value) - int256(cost) - int256(marginToBurn),\n            price\n        );\n\n        // burn the pnl for the position + insurance margin\n        ovl.burn(cost - value + marginToBurn);\n\n        // transfer out the liquidation fee to liquidator for reward\n        ovl.transfer(msg.sender, liquidationFee);\n\n        // send remaining margin to trading fee recipient\n        ovl.transfer(IOverlayV1Factory(factory).feeRecipient(), marginRemaining);\n    }\n\n    /// @dev updates market: pays funding and fetches freshest data from feed\n    /// @dev update is called every time market is interacted with\n    function update() public returns (Oracle.Data memory) {\n        // pay funding for time elasped since last interaction w market\n        _payFunding();\n\n        // fetch new oracle data from feed\n        // applies sanity check in case of data manipulation\n        Oracle.Data memory data = IOverlayV1Feed(feed).latest();\n        require(dataIsValid(data), \"OVLV1:!data\");\n\n        // return the latest data from feed\n        return data;\n    }\n\n    /// @dev sanity check on data fetched from oracle in case of manipulation\n    /// @dev rough check that log price bounded by +/- priceDriftUpperLimit * dt\n    /// @dev when comparing priceMacro(now) vs priceMacro(now - macroWindow)\n    function dataIsValid(Oracle.Data memory data) public view returns (bool) {\n        // upper and lower limits are e**(+/- priceDriftUpperLimit * dt)\n        uint256 _dpUpperLimit = dpUpperLimit;\n        uint256 _dpLowerLimit = ONE.divDown(_dpUpperLimit);\n\n        // compare current price over macro window vs price over macro window\n        // one macro window in the past\n        uint256 priceNow = data.priceOverMacroWindow;\n        uint256 priceLast = data.priceOneMacroWindowAgo;\n        if (priceLast == 0 || priceNow == 0) {\n            // data is not valid if price is zero\n            return false;\n        }\n\n        // price is valid if within upper and lower limits on drift given\n        // time elapsed over one macro window\n        uint256 dp = priceNow.divUp(priceLast);\n        return (dp >= _dpLowerLimit && dp <= _dpUpperLimit);\n    }\n\n    /// @notice Current open interest after funding payments transferred\n    /// @notice from overweight oi side to underweight oi side\n    /// @dev The value of oiOverweight must be >= oiUnderweight\n    function oiAfterFunding(\n        uint256 oiOverweight,\n        uint256 oiUnderweight,\n        uint256 timeElapsed\n    ) public view returns (uint256, uint256) {\n        uint256 oiTotal = oiOverweight + oiUnderweight;\n        uint256 oiImbalance = oiOverweight - oiUnderweight;\n        uint256 oiInvariant = oiUnderweight.mulUp(oiOverweight);\n\n        // If no OI or imbalance, no funding occurs. Handles div by zero case below\n        if (oiTotal == 0 || oiImbalance == 0) {\n            return (oiOverweight, oiUnderweight);\n        }\n\n        // draw down the imbalance by factor of e**(-2*k*t)\n        // but min to zero if pow = 2*k*t exceeds MAX_NATURAL_EXPONENT\n        uint256 fundingFactor;\n        uint256 pow = 2 * params.get(Risk.Parameters.K) * timeElapsed;\n        if (pow < MAX_NATURAL_EXPONENT) {\n            fundingFactor = ONE.divDown(pow.expUp()); // e**(-pow)\n        }\n\n        // Decrease total aggregate open interest (i.e. oiLong + oiShort)\n        // to compensate protocol for pro-rata share of imbalance liability\n        // OI_tot(t) = OI_tot(0) * \\\n        //  sqrt( 1 - (OI_imb(0)/OI_tot(0))**2 * (1 - e**(-4*k*t)) )\n\n        // Guaranteed 0 <= underRoot <= 1\n        uint256 oiImbFraction = oiImbalance.divDown(oiTotal);\n        uint256 underRoot = ONE -\n            oiImbFraction.mulDown(oiImbFraction).mulDown(\n                ONE - fundingFactor.mulDown(fundingFactor)\n            );\n\n        // oiTotalNow guaranteed <= oiTotalBefore (burn happens)\n        oiTotal = oiTotal.mulDown(underRoot.powDown(ONE / 2));\n\n        // Time decay imbalance: OI_imb(t) = OI_imb(0) * e**(-2*k*t)\n        // oiImbalanceNow guaranteed <= oiImbalanceBefore\n        oiImbalance = oiImbalance.mulDown(fundingFactor);\n\n        // overweight pays underweight\n        // use oiOver * oiUnder = invariant for oiUnderNow to avoid any\n        // potential overflow reverts\n        oiOverweight = (oiTotal + oiImbalance) / 2;\n        if (oiOverweight != 0) {\n            oiUnderweight = oiInvariant.divUp(oiOverweight);\n        }\n        return (oiOverweight, oiUnderweight);\n    }\n\n    /// @dev current notional cap with adjustments to lower\n    /// @dev cap in the event market has printed a lot in recent past\n    function capNotionalAdjustedForCircuitBreaker(uint256 cap) public view returns (uint256) {\n        // Adjust cap downward for circuit breaker. Use snapshotMinted\n        // but transformed to account for decay in magnitude of minted since\n        // last snapshot taken\n        Roller.Snapshot memory snapshot = snapshotMinted;\n        uint256 circuitBreakerWindow = params.get(Risk.Parameters.CircuitBreakerWindow);\n        snapshot = snapshot.transform(block.timestamp, circuitBreakerWindow, 0);\n        cap = circuitBreaker(snapshot, cap);\n        return cap;\n    }\n\n    /// @dev bound on notional cap from circuit breaker\n    /// @dev Three cases:\n    /// @dev 1. minted < 1x target amount over circuitBreakerWindow: return cap\n    /// @dev 2. minted > 2x target amount over last circuitBreakerWindow: return 0\n    /// @dev 3. minted between 1x and 2x target amount: return cap * (2 - minted/target)\n    function circuitBreaker(Roller.Snapshot memory snapshot, uint256 cap)\n        public\n        view\n        returns (uint256)\n    {\n        int256 minted = int256(snapshot.cumulative());\n        uint256 circuitBreakerMintTarget = params.get(Risk.Parameters.CircuitBreakerMintTarget);\n        if (minted <= int256(circuitBreakerMintTarget)) {\n            return cap;\n        } else if (minted >= 2 * int256(circuitBreakerMintTarget)) {\n            return 0;\n        }\n\n        // case 3 (circuit breaker adjustment downward)\n        uint256 adjustment = 2 * ONE - uint256(minted).divDown(circuitBreakerMintTarget);\n        return cap.mulDown(adjustment);\n    }\n\n    /// @dev current notional cap with adjustments to prevent\n    /// @dev front-running trade and back-running trade\n    function capNotionalAdjustedForBounds(Oracle.Data memory data, uint256 cap)\n        public\n        view\n        returns (uint256)\n    {\n        if (data.hasReserve) {\n            // Adjust cap downward if exceeds bounds from front run attack\n            cap = Math.min(cap, frontRunBound(data));\n\n            // Adjust cap downward if exceeds bounds from back run attack\n            cap = Math.min(cap, backRunBound(data));\n        }\n        return cap;\n    }\n\n    /// @dev bound on notional cap to mitigate front-running attack\n    /// @dev bound = lmbda * reserveInOvl\n    function frontRunBound(Oracle.Data memory data) public view returns (uint256) {\n        uint256 lmbda = params.get(Risk.Parameters.Lmbda);\n        return lmbda.mulDown(data.reserveOverMicroWindow);\n    }\n\n    /// @dev bound on notional cap to mitigate back-running attack\n    /// @dev bound = macroWindowInBlocks * reserveInOvl * 2 * delta\n    function backRunBound(Oracle.Data memory data) public view returns (uint256) {\n        uint256 averageBlockTime = params.get(Risk.Parameters.AverageBlockTime);\n        uint256 window = (data.macroWindow * ONE) / averageBlockTime;\n        uint256 delta = params.get(Risk.Parameters.Delta);\n        return delta.mulDown(data.reserveOverMicroWindow).mulDown(window).mulDown(2 * ONE);\n    }\n\n    /// @dev Returns the open interest in number of contracts for a given notional\n    /// @dev Uses _midFromFeed(data) price to calculate oi: OI = Q / P\n    function oiFromNotional(uint256 notional, uint256 midPrice) public view returns (uint256) {\n        return notional.divDown(midPrice);\n    }\n\n    /// @dev bid price given oracle data and recent volume\n    function bid(Oracle.Data memory data, uint256 volume) public view returns (uint256 bid_) {\n        bid_ = Math.min(data.priceOverMicroWindow, data.priceOverMacroWindow);\n\n        // add static spread (delta) and market impact (lmbda * volume)\n        uint256 delta = params.get(Risk.Parameters.Delta);\n        uint256 lmbda = params.get(Risk.Parameters.Lmbda);\n        uint256 pow = delta + lmbda.mulUp(volume);\n        require(pow < MAX_NATURAL_EXPONENT, \"OVLV1:slippage>max\");\n\n        bid_ = bid_.mulDown(ONE.divDown(pow.expUp())); // bid * e**(-pow)\n    }\n\n    /// @dev ask price given oracle data and recent volume\n    function ask(Oracle.Data memory data, uint256 volume) public view returns (uint256 ask_) {\n        ask_ = Math.max(data.priceOverMicroWindow, data.priceOverMacroWindow);\n\n        // add static spread (delta) and market impact (lmbda * volume)\n        uint256 delta = params.get(Risk.Parameters.Delta);\n        uint256 lmbda = params.get(Risk.Parameters.Lmbda);\n        uint256 pow = delta + lmbda.mulUp(volume);\n        require(pow < MAX_NATURAL_EXPONENT, \"OVLV1:slippage>max\");\n\n        ask_ = ask_.mulUp(pow.expUp()); // ask * e**(pow)\n    }\n\n    /// @dev mid price without impact/spread given oracle data and recent volume\n    /// @dev used for gas savings to avoid accessing storage for delta, lmbda\n    function _midFromFeed(Oracle.Data memory data) private view returns (uint256 mid_) {\n        mid_ = Math.average(data.priceOverMicroWindow, data.priceOverMacroWindow);\n    }\n\n    /// @dev Rolling volume adjustments on bid side to be used for market impact.\n    /// @dev Volume values are normalized with respect to cap\n    function _registerVolumeBid(\n        Oracle.Data memory data,\n        uint256 volume,\n        uint256 cap\n    ) private returns (uint256) {\n        // save gas with snapshot in memory\n        Roller.Snapshot memory snapshot = snapshotVolumeBid;\n        int256 value = int256(volume.divUp(cap));\n\n        // calculates the decay in the rolling volume since last snapshot\n        // and determines new window to decay over\n        snapshot = snapshot.transform(block.timestamp, data.microWindow, value);\n\n        // store the transformed snapshot\n        snapshotVolumeBid = snapshot;\n\n        // return the cumulative volume\n        return uint256(snapshot.cumulative());\n    }\n\n    /// @dev Rolling volume adjustments on ask side to be used for market impact.\n    /// @dev Volume values are normalized with respect to cap\n    function _registerVolumeAsk(\n        Oracle.Data memory data,\n        uint256 volume,\n        uint256 cap\n    ) private returns (uint256) {\n        // save gas with snapshot in memory\n        Roller.Snapshot memory snapshot = snapshotVolumeAsk;\n        int256 value = int256(volume.divUp(cap));\n\n        // calculates the decay in the rolling volume since last snapshot\n        // and determines new window to decay over\n        snapshot = snapshot.transform(block.timestamp, data.microWindow, value);\n\n        // store the transformed snapshot\n        snapshotVolumeAsk = snapshot;\n\n        // return the cumulative volume\n        return uint256(snapshot.cumulative());\n    }\n\n    /// @notice Rolling mint accumulator to be used for circuit breaker\n    /// @dev value > 0 registers a mint, value <= 0 registers a burn\n    function _registerMintOrBurn(int256 value) private returns (int256) {\n        // save gas with snapshot in memory\n        Roller.Snapshot memory snapshot = snapshotMinted;\n\n        // calculates the decay in the rolling amount minted since last snapshot\n        // and determines new window to decay over\n        uint256 circuitBreakerWindow = params.get(Risk.Parameters.CircuitBreakerWindow);\n        snapshot = snapshot.transform(block.timestamp, circuitBreakerWindow, value);\n\n        // store the transformed snapshot\n        snapshotMinted = snapshot;\n\n        // return the cumulative mint amount\n        int256 minted = snapshot.cumulative();\n        return minted;\n    }\n\n    /// @notice Updates the market for funding changes to open interest\n    /// @notice since last time market was interacted with\n    function _payFunding() private {\n        // apply funding if at least one block has passed\n        uint256 timeElapsed = block.timestamp - timestampUpdateLast;\n        if (timeElapsed > 0) {\n            // calculate adjustments to oi due to funding\n            bool isLongOverweight = oiLong > oiShort;\n            uint256 oiOverweight = isLongOverweight ? oiLong : oiShort;\n            uint256 oiUnderweight = isLongOverweight ? oiShort : oiLong;\n            (oiOverweight, oiUnderweight) = oiAfterFunding(\n                oiOverweight,\n                oiUnderweight,\n                timeElapsed\n            );\n\n            // pay funding\n            oiLong = isLongOverweight ? oiOverweight : oiUnderweight;\n            oiShort = isLongOverweight ? oiUnderweight : oiOverweight;\n\n            // set last time market was updated\n            timestampUpdateLast = block.timestamp;\n        }\n    }\n\n    /// @notice Adds open interest and open interest shares to aggregate storage\n    /// @notice pairs (oiLong, oiLongShares) or (oiShort, oiShortShares)\n    /// @return oiShares_ as the new position's shares of aggregate open interest\n    function _addToOiAggregates(\n        uint256 oi,\n        uint256 capOi,\n        bool isLong\n    ) private returns (uint256 oiShares_) {\n        // cache for gas savings\n        uint256 oiTotalOnSide = isLong ? oiLong : oiShort;\n        uint256 oiTotalSharesOnSide = isLong ? oiLongShares : oiShortShares;\n\n        // calculate oi shares\n        uint256 oiShares = Position.calcOiShares(oi, oiTotalOnSide, oiTotalSharesOnSide);\n\n        // add oi and oi shares to temp aggregate values\n        oiTotalOnSide += oi;\n        oiTotalSharesOnSide += oiShares;\n\n        // check new total oi on side does not exceed capOi\n        require(oiTotalOnSide <= capOi, \"OVLV1:oi>cap\");\n\n        // update total aggregate oi and oi shares storage vars\n        if (isLong) {\n            oiLong = oiTotalOnSide;\n            oiLongShares = oiTotalSharesOnSide;\n        } else {\n            oiShort = oiTotalOnSide;\n            oiShortShares = oiTotalSharesOnSide;\n        }\n\n        // return new position's oi shares\n        oiShares_ = oiShares;\n    }\n\n    /// @notice Sets the governance per-market risk parameter\n    /// @dev updates funding state of market but does not fetch from oracle\n    /// @dev to avoid edge cases when dataIsValid is false\n    function setRiskParam(Risk.Parameters name, uint256 value) external onlyFactory {\n        // pay funding to update state of market since last interaction\n        _payFunding();\n\n        // check then set risk param\n        _checkRiskParam(name, value);\n        _cacheRiskCalc(name, value);\n        params.set(name, value);\n    }\n\n    /// @notice Checks the governance per-market risk parameter is valid\n    function _checkRiskParam(Risk.Parameters name, uint256 value) private {\n        // checks delta won't cause position to be immediately\n        // liquidatable given current leverage cap (capLeverage),\n        // liquidation fee rate (liquidationFeeRate), and\n        // maintenance margin fraction (maintenanceMarginFraction)\n        if (name == Risk.Parameters.Delta) {\n            uint256 _delta = value;\n            uint256 capLeverage = params.get(Risk.Parameters.CapLeverage);\n            uint256 maintenanceMarginFraction = params.get(\n                Risk.Parameters.MaintenanceMarginFraction\n            );\n            uint256 liquidationFeeRate = params.get(Risk.Parameters.LiquidationFeeRate);\n            require(\n                capLeverage <=\n                    ONE.divDown(\n                        2 * _delta + maintenanceMarginFraction.divDown(ONE - liquidationFeeRate)\n                    ),\n                \"OVLV1: max lev immediately liquidatable\"\n            );\n        }\n\n        // checks capLeverage won't cause position to be immediately\n        // liquidatable given current spread (delta),\n        // liquidation fee rate (liquidationFeeRate), and\n        // maintenance margin fraction (maintenanceMarginFraction)\n        if (name == Risk.Parameters.CapLeverage) {\n            uint256 _capLeverage = value;\n            uint256 delta = params.get(Risk.Parameters.Delta);\n            uint256 maintenanceMarginFraction = params.get(\n                Risk.Parameters.MaintenanceMarginFraction\n            );\n            uint256 liquidationFeeRate = params.get(Risk.Parameters.LiquidationFeeRate);\n            require(\n                _capLeverage <=\n                    ONE.divDown(\n                        2 * delta + maintenanceMarginFraction.divDown(ONE - liquidationFeeRate)\n                    ),\n                \"OVLV1: max lev immediately liquidatable\"\n            );\n        }\n\n        // checks maintenanceMarginFraction won't cause position\n        // to be immediately liquidatable given current spread (delta),\n        // liquidation fee rate (liquidationFeeRate),\n        // and leverage cap (capLeverage)\n        if (name == Risk.Parameters.MaintenanceMarginFraction) {\n            uint256 _maintenanceMarginFraction = value;\n            uint256 delta = params.get(Risk.Parameters.Delta);\n            uint256 capLeverage = params.get(Risk.Parameters.CapLeverage);\n            uint256 liquidationFeeRate = params.get(Risk.Parameters.LiquidationFeeRate);\n            require(\n                capLeverage <=\n                    ONE.divDown(\n                        2 * delta + _maintenanceMarginFraction.divDown(ONE - liquidationFeeRate)\n                    ),\n                \"OVLV1: max lev immediately liquidatable\"\n            );\n        }\n\n        // checks liquidationFeeRate won't cause position\n        // to be immediately liquidatable given current spread (delta),\n        // leverage cap (capLeverage), and\n        // maintenance margin fraction (maintenanceMarginFraction)\n        if (name == Risk.Parameters.LiquidationFeeRate) {\n            uint256 _liquidationFeeRate = value;\n            uint256 delta = params.get(Risk.Parameters.Delta);\n            uint256 capLeverage = params.get(Risk.Parameters.CapLeverage);\n            uint256 maintenanceMarginFraction = params.get(\n                Risk.Parameters.MaintenanceMarginFraction\n            );\n            require(\n                capLeverage <=\n                    ONE.divDown(\n                        2 * delta + maintenanceMarginFraction.divDown(ONE - _liquidationFeeRate)\n                    ),\n                \"OVLV1: max lev immediately liquidatable\"\n            );\n        }\n\n        // checks priceDriftUpperLimit won't cause pow() call in dataIsValid\n        // to exceed max\n        if (name == Risk.Parameters.PriceDriftUpperLimit) {\n            Oracle.Data memory data = IOverlayV1Feed(feed).latest();\n            uint256 _priceDriftUpperLimit = value;\n            require(\n                _priceDriftUpperLimit * data.macroWindow < MAX_NATURAL_EXPONENT,\n                \"OVLV1: price drift exceeds max exp\"\n            );\n        }\n    }\n\n    /// @notice Caches risk param calculations used in market contract\n    /// @notice for gas savings\n    function _cacheRiskCalc(Risk.Parameters name, uint256 value) private {\n        // caches calculations for dpUpperLimit\n        // = e**(priceDriftUpperLimit * data.macroWindow)\n        if (name == Risk.Parameters.PriceDriftUpperLimit) {\n            Oracle.Data memory data = IOverlayV1Feed(feed).latest();\n            uint256 _priceDriftUpperLimit = value;\n            uint256 pow = _priceDriftUpperLimit * data.macroWindow;\n            dpUpperLimit = pow.expUp(); // e**(pow)\n        }\n    }\n}\n",
  "sourcePath": "contracts/OverlayV1Market.sol",
  "type": "contract"
}