{
  "abi": [
    {
      "type": "constructor",
      "inputs": [],
      "stateMutability": "nonpayable"
    },
    {
      "type": "function",
      "name": "BUILD_ON_BEHALF_OF_TYPEHASH",
      "inputs": [],
      "outputs": [
        {
          "name": "",
          "type": "bytes32",
          "internalType": "bytes32"
        }
      ],
      "stateMutability": "view"
    },
    {
      "type": "function",
      "name": "BUILD_SINGLE_ON_BEHALF_OF_TYPEHASH",
      "inputs": [],
      "outputs": [
        {
          "name": "",
          "type": "bytes32",
          "internalType": "bytes32"
        }
      ],
      "stateMutability": "view"
    },
    {
      "type": "function",
      "name": "ONE",
      "inputs": [],
      "outputs": [
        {
          "name": "",
          "type": "uint256",
          "internalType": "uint256"
        }
      ],
      "stateMutability": "view"
    },
    {
      "type": "function",
      "name": "UNWIND_ON_BEHALF_OF_TYPEHASH",
      "inputs": [],
      "outputs": [
        {
          "name": "",
          "type": "bytes32",
          "internalType": "bytes32"
        }
      ],
      "stateMutability": "view"
    },
    {
      "type": "function",
      "name": "addFactory",
      "inputs": [
        {
          "name": "_factory",
          "type": "address",
          "internalType": "contract IOverlayV1Factory"
        }
      ],
      "outputs": [],
      "stateMutability": "nonpayable"
    },
    {
      "type": "function",
      "name": "authorizedFactories",
      "inputs": [
        {
          "name": "",
          "type": "uint256",
          "internalType": "uint256"
        }
      ],
      "outputs": [
        {
          "name": "",
          "type": "address",
          "internalType": "contract IOverlayV1Factory"
        }
      ],
      "stateMutability": "view"
    },
    {
      "type": "function",
      "name": "build",
      "inputs": [
        {
          "name": "params",
          "type": "tuple",
          "internalType": "struct ShivaStructs.Build",
          "components": [
            {
              "name": "ovMarket",
              "type": "address",
              "internalType": "contract IOverlayV1Market"
            },
            {
              "name": "brokerId",
              "type": "uint32",
              "internalType": "uint32"
            },
            {
              "name": "isLong",
              "type": "bool",
              "internalType": "bool"
            },
            {
              "name": "collateral",
              "type": "uint256",
              "internalType": "uint256"
            },
            {
              "name": "leverage",
              "type": "uint256",
              "internalType": "uint256"
            },
            {
              "name": "priceLimit",
              "type": "uint256",
              "internalType": "uint256"
            }
          ]
        },
        {
          "name": "onBehalfOf",
          "type": "tuple",
          "internalType": "struct ShivaStructs.OnBehalfOf",
          "components": [
            {
              "name": "owner",
              "type": "address",
              "internalType": "address"
            },
            {
              "name": "deadline",
              "type": "uint48",
              "internalType": "uint48"
            },
            {
              "name": "signature",
              "type": "bytes",
              "internalType": "bytes"
            }
          ]
        }
      ],
      "outputs": [
        {
          "name": "",
          "type": "uint256",
          "internalType": "uint256"
        }
      ],
      "stateMutability": "nonpayable"
    },
    {
      "type": "function",
      "name": "build",
      "inputs": [
        {
          "name": "params",
          "type": "tuple",
          "internalType": "struct ShivaStructs.Build",
          "components": [
            {
              "name": "ovMarket",
              "type": "address",
              "internalType": "contract IOverlayV1Market"
            },
            {
              "name": "brokerId",
              "type": "uint32",
              "internalType": "uint32"
            },
            {
              "name": "isLong",
              "type": "bool",
              "internalType": "bool"
            },
            {
              "name": "collateral",
              "type": "uint256",
              "internalType": "uint256"
            },
            {
              "name": "leverage",
              "type": "uint256",
              "internalType": "uint256"
            },
            {
              "name": "priceLimit",
              "type": "uint256",
              "internalType": "uint256"
            }
          ]
        }
      ],
      "outputs": [
        {
          "name": "",
          "type": "uint256",
          "internalType": "uint256"
        }
      ],
      "stateMutability": "nonpayable"
    },
    {
      "type": "function",
      "name": "buildSingle",
      "inputs": [
        {
          "name": "params",
          "type": "tuple",
          "internalType": "struct ShivaStructs.BuildSingle",
          "components": [
            {
              "name": "ovMarket",
              "type": "address",
              "internalType": "contract IOverlayV1Market"
            },
            {
              "name": "brokerId",
              "type": "uint32",
              "internalType": "uint32"
            },
            {
              "name": "slippage",
              "type": "uint16",
              "internalType": "uint16"
            },
            {
              "name": "collateral",
              "type": "uint256",
              "internalType": "uint256"
            },
            {
              "name": "leverage",
              "type": "uint256",
              "internalType": "uint256"
            },
            {
              "name": "previousPositionId",
              "type": "uint256",
              "internalType": "uint256"
            }
          ]
        }
      ],
      "outputs": [
        {
          "name": "",
          "type": "uint256",
          "internalType": "uint256"
        }
      ],
      "stateMutability": "nonpayable"
    },
    {
      "type": "function",
      "name": "buildSingle",
      "inputs": [
        {
          "name": "params",
          "type": "tuple",
          "internalType": "struct ShivaStructs.BuildSingle",
          "components": [
            {
              "name": "ovMarket",
              "type": "address",
              "internalType": "contract IOverlayV1Market"
            },
            {
              "name": "brokerId",
              "type": "uint32",
              "internalType": "uint32"
            },
            {
              "name": "slippage",
              "type": "uint16",
              "internalType": "uint16"
            },
            {
              "name": "collateral",
              "type": "uint256",
              "internalType": "uint256"
            },
            {
              "name": "leverage",
              "type": "uint256",
              "internalType": "uint256"
            },
            {
              "name": "previousPositionId",
              "type": "uint256",
              "internalType": "uint256"
            }
          ]
        },
        {
          "name": "onBehalfOf",
          "type": "tuple",
          "internalType": "struct ShivaStructs.OnBehalfOf",
          "components": [
            {
              "name": "owner",
              "type": "address",
              "internalType": "address"
            },
            {
              "name": "deadline",
              "type": "uint48",
              "internalType": "uint48"
            },
            {
              "name": "signature",
              "type": "bytes",
              "internalType": "bytes"
            }
          ]
        }
      ],
      "outputs": [
        {
          "name": "",
          "type": "uint256",
          "internalType": "uint256"
        }
      ],
      "stateMutability": "nonpayable"
    },
    {
      "type": "function",
      "name": "emergencyWithdraw",
      "inputs": [
        {
          "name": "market",
          "type": "address",
          "internalType": "contract IOverlayV1Market"
        },
        {
          "name": "positionId",
          "type": "uint256",
          "internalType": "uint256"
        },
        {
          "name": "owner",
          "type": "address",
          "internalType": "address"
        }
      ],
      "outputs": [],
      "stateMutability": "nonpayable"
    },
    {
      "type": "function",
      "name": "getDigest",
      "inputs": [
        {
          "name": "structHash",
          "type": "bytes32",
          "internalType": "bytes32"
        }
      ],
      "outputs": [
        {
          "name": "",
          "type": "bytes32",
          "internalType": "bytes32"
        }
      ],
      "stateMutability": "view"
    },
    {
      "type": "function",
      "name": "initialize",
      "inputs": [
        {
          "name": "_ovToken",
          "type": "address",
          "internalType": "address"
        },
        {
          "name": "_ovState",
          "type": "address",
          "internalType": "address"
        },
        {
          "name": "_vaultFactory",
          "type": "address",
          "internalType": "address"
        }
      ],
      "outputs": [],
      "stateMutability": "nonpayable"
    },
    {
      "type": "function",
      "name": "marketAllowance",
      "inputs": [
        {
          "name": "",
          "type": "address",
          "internalType": "contract IOverlayV1Market"
        }
      ],
      "outputs": [
        {
          "name": "",
          "type": "bool",
          "internalType": "bool"
        }
      ],
      "stateMutability": "view"
    },
    {
      "type": "function",
      "name": "nonces",
      "inputs": [
        {
          "name": "",
          "type": "address",
          "internalType": "address"
        }
      ],
      "outputs": [
        {
          "name": "",
          "type": "uint256",
          "internalType": "uint256"
        }
      ],
      "stateMutability": "view"
    },
    {
      "type": "function",
      "name": "ovState",
      "inputs": [],
      "outputs": [
        {
          "name": "",
          "type": "address",
          "internalType": "contract IOverlayV1State"
        }
      ],
      "stateMutability": "view"
    },
    {
      "type": "function",
      "name": "ovToken",
      "inputs": [],
      "outputs": [
        {
          "name": "",
          "type": "address",
          "internalType": "contract IOverlayV1Token"
        }
      ],
      "stateMutability": "view"
    },
    {
      "type": "function",
      "name": "overlayMarketLiquidateCallback",
      "inputs": [
        {
          "name": "positionId",
          "type": "uint256",
          "internalType": "uint256"
        }
      ],
      "outputs": [],
      "stateMutability": "nonpayable"
    },
    {
      "type": "function",
      "name": "pause",
      "inputs": [],
      "outputs": [],
      "stateMutability": "nonpayable"
    },
    {
      "type": "function",
      "name": "paused",
      "inputs": [],
      "outputs": [
        {
          "name": "",
          "type": "bool",
          "internalType": "bool"
        }
      ],
      "stateMutability": "view"
    },
    {
      "type": "function",
      "name": "positionOwners",
      "inputs": [
        {
          "name": "",
          "type": "address",
          "internalType": "contract IOverlayV1Market"
        },
        {
          "name": "",
          "type": "uint256",
          "internalType": "uint256"
        }
      ],
      "outputs": [
        {
          "name": "",
          "type": "address",
          "internalType": "address"
        }
      ],
      "stateMutability": "view"
    },
    {
      "type": "function",
      "name": "proxiableUUID",
      "inputs": [],
      "outputs": [
        {
          "name": "",
          "type": "bytes32",
          "internalType": "bytes32"
        }
      ],
      "stateMutability": "view"
    },
    {
      "type": "function",
      "name": "removeFactory",
      "inputs": [
        {
          "name": "_factory",
          "type": "address",
          "internalType": "contract IOverlayV1Factory"
        }
      ],
      "outputs": [],
      "stateMutability": "nonpayable"
    },
    {
      "type": "function",
      "name": "rewardVault",
      "inputs": [],
      "outputs": [
        {
          "name": "",
          "type": "address",
          "internalType": "contract IBerachainRewardsVault"
        }
      ],
      "stateMutability": "view"
    },
    {
      "type": "function",
      "name": "stakingToken",
      "inputs": [],
      "outputs": [
        {
          "name": "",
          "type": "address",
          "internalType": "contract StakingToken"
        }
      ],
      "stateMutability": "view"
    },
    {
      "type": "function",
      "name": "unpause",
      "inputs": [],
      "outputs": [],
      "stateMutability": "nonpayable"
    },
    {
      "type": "function",
      "name": "unwind",
      "inputs": [
        {
          "name": "params",
          "type": "tuple",
          "internalType": "struct ShivaStructs.Unwind",
          "components": [
            {
              "name": "ovMarket",
              "type": "address",
              "internalType": "contract IOverlayV1Market"
            },
            {
              "name": "brokerId",
              "type": "uint32",
              "internalType": "uint32"
            },
            {
              "name": "positionId",
              "type": "uint256",
              "internalType": "uint256"
            },
            {
              "name": "fraction",
              "type": "uint256",
              "internalType": "uint256"
            },
            {
              "name": "priceLimit",
              "type": "uint256",
              "internalType": "uint256"
            }
          ]
        }
      ],
      "outputs": [],
      "stateMutability": "nonpayable"
    },
    {
      "type": "function",
      "name": "unwind",
      "inputs": [
        {
          "name": "params",
          "type": "tuple",
          "internalType": "struct ShivaStructs.Unwind",
          "components": [
            {
              "name": "ovMarket",
              "type": "address",
              "internalType": "contract IOverlayV1Market"
            },
            {
              "name": "brokerId",
              "type": "uint32",
              "internalType": "uint32"
            },
            {
              "name": "positionId",
              "type": "uint256",
              "internalType": "uint256"
            },
            {
              "name": "fraction",
              "type": "uint256",
              "internalType": "uint256"
            },
            {
              "name": "priceLimit",
              "type": "uint256",
              "internalType": "uint256"
            }
          ]
        },
        {
          "name": "onBehalfOf",
          "type": "tuple",
          "internalType": "struct ShivaStructs.OnBehalfOf",
          "components": [
            {
              "name": "owner",
              "type": "address",
              "internalType": "address"
            },
            {
              "name": "deadline",
              "type": "uint48",
              "internalType": "uint48"
            },
            {
              "name": "signature",
              "type": "bytes",
              "internalType": "bytes"
            }
          ]
        }
      ],
      "outputs": [],
      "stateMutability": "nonpayable"
    },
    {
      "type": "function",
      "name": "upgradeTo",
      "inputs": [
        {
          "name": "newImplementation",
          "type": "address",
          "internalType": "address"
        }
      ],
      "outputs": [],
      "stateMutability": "nonpayable"
    },
    {
      "type": "function",
      "name": "upgradeToAndCall",
      "inputs": [
        {
          "name": "newImplementation",
          "type": "address",
          "internalType": "address"
        },
        {
          "name": "data",
          "type": "bytes",
          "internalType": "bytes"
        }
      ],
      "outputs": [],
      "stateMutability": "payable"
    },
    {
      "type": "function",
      "name": "validMarkets",
      "inputs": [
        {
          "name": "",
          "type": "address",
          "internalType": "address"
        }
      ],
      "outputs": [
        {
          "name": "",
          "type": "bool",
          "internalType": "bool"
        }
      ],
      "stateMutability": "view"
    },
    {
      "type": "event",
      "name": "AdminChanged",
      "inputs": [
        {
          "name": "previousAdmin",
          "type": "address",
          "indexed": false,
          "internalType": "address"
        },
        {
          "name": "newAdmin",
          "type": "address",
          "indexed": false,
          "internalType": "address"
        }
      ],
      "anonymous": false
    },
    {
      "type": "event",
      "name": "BeaconUpgraded",
      "inputs": [
        {
          "name": "beacon",
          "type": "address",
          "indexed": true,
          "internalType": "address"
        }
      ],
      "anonymous": false
    },
    {
      "type": "event",
      "name": "FactoryAdded",
      "inputs": [
        {
          "name": "factory",
          "type": "address",
          "indexed": true,
          "internalType": "address"
        }
      ],
      "anonymous": false
    },
    {
      "type": "event",
      "name": "FactoryRemoved",
      "inputs": [
        {
          "name": "factory",
          "type": "address",
          "indexed": true,
          "internalType": "address"
        }
      ],
      "anonymous": false
    },
    {
      "type": "event",
      "name": "Initialized",
      "inputs": [
        {
          "name": "version",
          "type": "uint8",
          "indexed": false,
          "internalType": "uint8"
        }
      ],
      "anonymous": false
    },
    {
      "type": "event",
      "name": "MarketValidated",
      "inputs": [
        {
          "name": "market",
          "type": "address",
          "indexed": true,
          "internalType": "address"
        }
      ],
      "anonymous": false
    },
    {
      "type": "event",
      "name": "Paused",
      "inputs": [
        {
          "name": "account",
          "type": "address",
          "indexed": false,
          "internalType": "address"
        }
      ],
      "anonymous": false
    },
    {
      "type": "event",
      "name": "ShivaBuild",
      "inputs": [
        {
          "name": "owner",
          "type": "address",
          "indexed": true,
          "internalType": "address"
        },
        {
          "name": "market",
          "type": "address",
          "indexed": true,
          "internalType": "address"
        },
        {
          "name": "performer",
          "type": "address",
          "indexed": false,
          "internalType": "address"
        },
        {
          "name": "positionId",
          "type": "uint256",
          "indexed": false,
          "internalType": "uint256"
        },
        {
          "name": "collateral",
          "type": "uint256",
          "indexed": false,
          "internalType": "uint256"
        },
        {
          "name": "leverage",
          "type": "uint256",
          "indexed": false,
          "internalType": "uint256"
        },
        {
          "name": "brokerId",
          "type": "uint32",
          "indexed": false,
          "internalType": "uint32"
        },
        {
          "name": "isLong",
          "type": "bool",
          "indexed": false,
          "internalType": "bool"
        }
      ],
      "anonymous": false
    },
    {
      "type": "event",
      "name": "ShivaEmergencyWithdraw",
      "inputs": [
        {
          "name": "owner",
          "type": "address",
          "indexed": true,
          "internalType": "address"
        },
        {
          "name": "market",
          "type": "address",
          "indexed": true,
          "internalType": "address"
        },
        {
          "name": "performer",
          "type": "address",
          "indexed": false,
          "internalType": "address"
        },
        {
          "name": "positionId",
          "type": "uint256",
          "indexed": false,
          "internalType": "uint256"
        }
      ],
      "anonymous": false
    },
    {
      "type": "event",
      "name": "ShivaStake",
      "inputs": [
        {
          "name": "owner",
          "type": "address",
          "indexed": true,
          "internalType": "address"
        },
        {
          "name": "amount",
          "type": "uint256",
          "indexed": false,
          "internalType": "uint256"
        }
      ],
      "anonymous": false
    },
    {
      "type": "event",
      "name": "ShivaUnstake",
      "inputs": [
        {
          "name": "owner",
          "type": "address",
          "indexed": true,
          "internalType": "address"
        },
        {
          "name": "amount",
          "type": "uint256",
          "indexed": false,
          "internalType": "uint256"
        }
      ],
      "anonymous": false
    },
    {
      "type": "event",
      "name": "ShivaUnwind",
      "inputs": [
        {
          "name": "owner",
          "type": "address",
          "indexed": true,
          "internalType": "address"
        },
        {
          "name": "market",
          "type": "address",
          "indexed": true,
          "internalType": "address"
        },
        {
          "name": "performer",
          "type": "address",
          "indexed": false,
          "internalType": "address"
        },
        {
          "name": "positionId",
          "type": "uint256",
          "indexed": false,
          "internalType": "uint256"
        },
        {
          "name": "fraction",
          "type": "uint256",
          "indexed": false,
          "internalType": "uint256"
        },
        {
          "name": "brokerId",
          "type": "uint32",
          "indexed": false,
          "internalType": "uint32"
        }
      ],
      "anonymous": false
    },
    {
      "type": "event",
      "name": "Unpaused",
      "inputs": [
        {
          "name": "account",
          "type": "address",
          "indexed": false,
          "internalType": "address"
        }
      ],
      "anonymous": false
    },
    {
      "type": "event",
      "name": "Upgraded",
      "inputs": [
        {
          "name": "implementation",
          "type": "address",
          "indexed": true,
          "internalType": "address"
        }
      ],
      "anonymous": false
    },
    {
      "type": "error",
      "name": "ExpiredDeadline",
      "inputs": []
    },
    {
      "type": "error",
      "name": "InvalidSignature",
      "inputs": []
    },
    {
      "type": "error",
      "name": "MarketNotValid",
      "inputs": []
    },
    {
      "type": "error",
      "name": "NotPositionOwner",
      "inputs": []
    }
  ],
  "bytecode": {
    "object": "0x60a0604052306080523480156200001557600080fd5b506200002062000026565b620000e8565b600054610100900460ff1615620000935760405162461bcd60e51b815260206004820152602760248201527f496e697469616c697a61626c653a20636f6e747261637420697320696e697469604482015266616c697a696e6760c81b606482015260840160405180910390fd5b60005460ff9081161015620000e6576000805460ff191660ff9081179091556040519081527f7f26b83ff96e1f2b6a682f133852f6798a09c465da95921460cefb38474024989060200160405180910390a15b565b608051614c1562000120600039600081816108a5015281816108e801528181610cab01528181610cee0152610d8a0152614c156000f3fe608060405260043610620001ff5760003560e01c806372f702f31162000117578063c2ee3a0811620000a1578063e56937e7116200006c578063e56937e71462000654578063ec7940561462000679578063f5dea22e146200069e578063f9613ab214620006c357600080fd5b8063c2ee3a081462000595578063c76a867314620005b3578063d04c95fa14620005f9578063d6da9468146200062f57600080fd5b8063a4c801f011620000e2578063a4c801f014620004e4578063a4cc879c1462000519578063adaf1c43146200053b578063c0c53b8b146200057057600080fd5b806372f702f314620004535780637ecebe0014620004755780638456cb5914620004a757806385cc159a14620004bf57600080fd5b80634b37c73f1162000199578063551512de1162000164578063551512de14620003c15780635c975abb14620003e657806365d81fa8146200040c578063726e97f9146200043157600080fd5b80634b37c73f14620003375780634f1ef286146200035c57806352d1902d146200037357806353e96caa146200038b57600080fd5b80633659cfe611620001da5780633659cfe614620002995780633a2c677714620002be5780633f4ba83a14620002fa578063473d3471146200031257600080fd5b80630388caad14620002045780630a214695146200024d57806329ce1ec51462000274575b600080fd5b3480156200021157600080fd5b506200023a7fb5b65d04e786254352bf44914bf1d718c8fc623a347bf7743ba8458ba78beedc81565b6040519081526020015b60405180910390f35b3480156200025a57600080fd5b50620002726200026c366004620035da565b620006e8565b005b3480156200028157600080fd5b5062000272620002933660046200360f565b62000762565b348015620002a657600080fd5b5062000272620002b83660046200360f565b6200089a565b348015620002cb57600080fd5b5061010054620002e1906001600160a01b031681565b6040516001600160a01b03909116815260200162000244565b3480156200030757600080fd5b506200027262000986565b3480156200031f57600080fd5b50620002e1620003313660046200362f565b62000a65565b3480156200034457600080fd5b5062000272620003563660046200360f565b62000a91565b620002726200036d3660046200365f565b62000ca0565b3480156200038057600080fd5b506200023a62000d7d565b3480156200039857600080fd5b506200023a7f6705b7540e045c408d2be73712e2d0d0e49b22baf994c895d12ce38e0a7cba3b81565b348015620003ce57600080fd5b5062000272620003e03660046200372f565b62000e33565b348015620003f357600080fd5b5060cb5460ff165b604051901515815260200162000244565b3480156200041957600080fd5b50620002726200042b3660046200362f565b62000ea2565b3480156200043e57600080fd5b5060fe54620002e1906001600160a01b031681565b3480156200046057600080fd5b5060ff54620002e1906001600160a01b031681565b3480156200048257600080fd5b506200023a620004943660046200360f565b6101046020526000908152604090205481565b348015620004b457600080fd5b506200027262000f88565b348015620004cc57600080fd5b506200023a620004de36600462003789565b62001067565b348015620004f157600080fd5b50620003fb620005033660046200360f565b6101036020526000908152604090205460ff1681565b3480156200052657600080fd5b5060fd54620002e1906001600160a01b031681565b3480156200054857600080fd5b50620003fb6200055a3660046200360f565b6101056020526000908152604090205460ff1681565b3480156200057d57600080fd5b50620002726200058f366004620037a8565b620010e7565b348015620005a257600080fd5b506200023a670de0b6b3a764000081565b348015620005c057600080fd5b50620002e1620005d2366004620037ef565b6101026020908152600092835260408084209091529082529020546001600160a01b031681565b3480156200060657600080fd5b506200023a7f35c32bc150a15e983662ff3371cbb1bed1367c9065bac1008ca5e9b912d3b74881565b3480156200063c57600080fd5b506200023a6200064e36600462003831565b620013c5565b3480156200066157600080fd5b506200023a6200067336600462003831565b6200158a565b3480156200068657600080fd5b50620002726200069836600462003886565b62001762565b348015620006ab57600080fd5b506200023a620006bd36600462003789565b62001916565b348015620006d057600080fd5b506200023a620006e23660046200362f565b6200196d565b620006f262001980565b6200070160208201826200360f565b6001600160a01b03818116600090815261010260209081526040808320818701358085529252909120549091339116811462000750576040516370d645e360e01b815260040160405180910390fd5b6200075c8433620019ca565b50505050565b60fd54604051632474521560e21b81527f1a6838efa4183e08fe3607359d1259272af9d4716f65e1a7b5921f78fd5a3c6a60048201523360248201819052916001600160a01b0316906391d1485490604401602060405180830381865afa158015620007d2573d6000803e3d6000fd5b505050506040513d601f19601f82011682018060405250810190620007f89190620038d2565b620008205760405162461bcd60e51b81526004016200081790620038f2565b60405180910390fd5b610101805460018101825560009182527f109ea3cebb188b9c1b9fc5bb3920be60dfdc8699098dff92f3d80daaca7476890180546001600160a01b0319166001600160a01b03851690811790915560405190917f6fdc0147105e43e21da80a75b42d0fd464060d5e1a34b0cefbf0b4ccfc2e36a191a25050565b306001600160a01b037f0000000000000000000000000000000000000000000000000000000000000000161415620008e65760405162461bcd60e51b815260040162000817906200391c565b7f00000000000000000000000000000000000000000000000000000000000000006001600160a01b03166200093160008051602062004b99833981519152546001600160a01b031690565b6001600160a01b0316146200095a5760405162461bcd60e51b8152600401620008179062003968565b620009658162001af0565b60408051600080825260208201909252620009839183919062001ba5565b50565b60fd54604051632474521560e21b81527f539440820030c4994db4e31b6b800deafd503688728f932addfe7a410515c14c60048201523360248201819052916001600160a01b0316906391d1485490604401602060405180830381865afa158015620009f6573d6000803e3d6000fd5b505050506040513d601f19601f8201168201806040525081019062000a1c9190620038d2565b62000a5b5760405162461bcd60e51b815260206004820152600e60248201526d29b434bb309d1010b830bab9b2b960911b604482015260640162000817565b6200098362001d1d565b610101818154811062000a7757600080fd5b6000918252602090912001546001600160a01b0316905081565b60fd54604051632474521560e21b81527f1a6838efa4183e08fe3607359d1259272af9d4716f65e1a7b5921f78fd5a3c6a60048201523360248201819052916001600160a01b0316906391d1485490604401602060405180830381865afa15801562000b01573d6000803e3d6000fd5b505050506040513d601f19601f8201168201806040525081019062000b279190620038d2565b62000b465760405162461bcd60e51b81526004016200081790620038f2565b60005b6101015481101562000c9b57826001600160a01b0316610101828154811062000b765762000b76620039b4565b6000918252602090912001546001600160a01b0316141562000c8657610101805462000ba590600190620039e0565b8154811062000bb85762000bb8620039b4565b60009182526020909120015461010180546001600160a01b03909216918390811062000be85762000be8620039b4565b9060005260206000200160006101000a8154816001600160a01b0302191690836001600160a01b0316021790555061010180548062000c2b5762000c2b620039fa565b600082815260208120820160001990810180546001600160a01b03191690559091019091556040516001600160a01b038516917fafa2737b2090fa39c66b7348625f0c03726240f724defbc6216d679506f9444191a2505050565b8062000c928162003a10565b91505062000b49565b505050565b306001600160a01b037f000000000000000000000000000000000000000000000000000000000000000016141562000cec5760405162461bcd60e51b815260040162000817906200391c565b7f00000000000000000000000000000000000000000000000000000000000000006001600160a01b031662000d3760008051602062004b99833981519152546001600160a01b031690565b6001600160a01b03161462000d605760405162461bcd60e51b8152600401620008179062003968565b62000d6b8262001af0565b62000d798282600162001ba5565b5050565b6000306001600160a01b037f0000000000000000000000000000000000000000000000000000000000000000161462000e1f5760405162461bcd60e51b815260206004820152603860248201527f555550535570677261646561626c653a206d757374206e6f742062652063616c60448201527f6c6564207468726f7567682064656c656761746563616c6c0000000000000000606482015260840162000817565b5060008051602062004b9983398151915290565b62000e3d62001980565b6001600160a01b0383811660009081526101026020908152604080832086845290915290205484918491849182811691161462000e8d576040516370d645e360e01b815260040160405180910390fd5b62000e9a86868662001d71565b505050505050565b3362000eae8162001fc2565b62000ecc5760405163b1a9d2c160e01b815260040160405180910390fd5b6040516365ae5e0360e01b8152339060009073__$b775366deb48fb607c6478532aa64b7c40$__906365ae5e039062000f0e9085908890309060040162003a2e565b602060405180830381865af415801562000f2c573d6000803e3d6000fd5b505050506040513d601f19601f8201168201806040525081019062000f52919062003a51565b6001600160a01b038084166000908152610102602090815260408083208984529091529020549192506200075c91168262002104565b60fd54604051632474521560e21b81527f539440820030c4994db4e31b6b800deafd503688728f932addfe7a410515c14c60048201523360248201819052916001600160a01b0316906391d1485490604401602060405180830381865afa15801562000ff8573d6000803e3d6000fd5b505050506040513d601f19601f820116820180604052508101906200101e9190620038d2565b6200105d5760405162461bcd60e51b815260206004820152600e60248201526d29b434bb309d1010b830bab9b2b960911b604482015260640162000817565b620009836200221b565b60006200107362001980565b6200108260208301836200360f565b6001600160a01b0381811660009081526101026020908152604080832060a088013580855292529091205490913391168114620010d2576040516370d645e360e01b815260040160405180910390fd5b620010de85336200225b565b95945050505050565b600054610100900460ff1615808015620011085750600054600160ff909116105b80620011245750303b15801562001124575060005460ff166001145b620011895760405162461bcd60e51b815260206004820152602e60248201527f496e697469616c697a61626c653a20636f6e747261637420697320616c72656160448201526d191e481a5b9a5d1a585b1a5e995960921b606482015260840162000817565b6000805460ff191660011790558015620011ad576000805461ff0019166101001790555b620011f360405180604001604052806005815260200164536869766160d81b815250604051806040016040528060058152602001640302e312e360dc1b81525062002653565b620011fd62002689565b60fd80546001600160a01b038087166001600160a01b03199283161790925560fe8054928616929091169190911790556040516200123b90620035b3565b604051809103906000f08015801562001258573d6000803e3d6000fd5b5060ff80546001600160a01b0319166001600160a01b039283169081179091556040516301a0761760e01b815260048101919091526000918416906301a07617906024016020604051808303816000875af1158015620012bc573d6000803e3d6000fd5b505050506040513d601f19601f82011682018060405250810190620012e2919062003a6b565b61010080546001600160a01b0319166001600160a01b0383811691821790925560ff5460405163095ea7b360e01b81526004810192909252600019602483015292935091169063095ea7b3906044016020604051808303816000875af115801562001351573d6000803e3d6000fd5b505050506040513d601f19601f82011682018060405250810190620013779190620038d2565b505080156200075c576000805461ff0019169055604051600181527f7f26b83ff96e1f2b6a682f133852f6798a09c465da95921460cefb38474024989060200160405180910390a150505050565b6000620013d162001980565b620013e3604083016020840162003a8b565b8065ffffffffffff164211156200140d5760405163f87d927160e01b815260040160405180910390fd5b6200141c60208501856200360f565b60a08501356200143060208601866200360f565b6001600160a01b038381166000908152610102602090815260408083208684529091529020548116908216146200147a576040516370d645e360e01b815260040160405180910390fd5b60007f6705b7540e045c408d2be73712e2d0d0e49b22baf994c895d12ce38e0a7cba3b620014ac60208a018a6200360f565b620014be60408a0160208b0162003a8b565b8a606001358b608001358c60a0013561010460008e6000016020810190620014e791906200360f565b6001600160a01b03166001600160a01b031681526020019081526020016000205460405160200162001520979695949392919062003ab5565b60405160208183030381529060405280519060200120905062001564818880604001906200154f919062003af6565b6200155e60208c018c6200360f565b620026bd565b6200157e886200157860208a018a6200360f565b6200225b565b98975050505050505050565b60006200159662001980565b620015a560208401846200360f565b620015b08162001fc2565b620015ce5760405163b1a9d2c160e01b815260040160405180910390fd5b620015e0604084016020850162003a8b565b8065ffffffffffff164211156200160a5760405163f87d927160e01b815260040160405180910390fd5b60007fb5b65d04e786254352bf44914bf1d718c8fc623a347bf7743ba8458ba78beedc6200163c60208801886200360f565b6200164e604088016020890162003a8b565b6060890180359060808b0135906200166a9060408d0162003b40565b60a08c013561010460006200168360208f018f6200360f565b6001600160a01b03166001600160a01b0316815260200190815260200160002054604051602001620017009897969594939291909788526001600160a01b0396909616602088015265ffffffffffff94909416604087015260608601929092526080850152151560a084015260c083015260e08201526101000190565b6040516020818303038152906040528051906020012090506200173e818680604001906200172f919062003af6565b6200155e60208a018a6200360f565b62001758866200175260208801886200360f565b6200277b565b9695505050505050565b6200176c62001980565b6200177e604082016020830162003a8b565b8065ffffffffffff16421115620017a85760405163f87d927160e01b815260040160405180910390fd5b620017b760208401846200360f565b6040840135620017cb60208501856200360f565b6001600160a01b0383811660009081526101026020908152604080832086845290915290205481169082161462001815576040516370d645e360e01b815260040160405180910390fd5b60007f35c32bc150a15e983662ff3371cbb1bed1367c9065bac1008ca5e9b912d3b7486200184760208901896200360f565b620018596040890160208a0162003a8b565b60408a013560608b013560808c013561010460006200187c60208f018f6200360f565b6001600160a01b03166001600160a01b0316815260200190815260200160002054604051602001620018b5979695949392919062003ab5565b604051602081830303815290604052805190602001209050620018f381878060400190620018e4919062003af6565b6200155e60208b018b6200360f565b6200190d876200190760208901896200360f565b620019ca565b50505050505050565b60006200192262001980565b6200193160208301836200360f565b6200193c8162001fc2565b6200195a5760405163b1a9d2c160e01b815260040160405180910390fd5b6200196683336200277b565b9392505050565b60006200197a82620028f4565b92915050565b60cb5460ff1615620019c85760405162461bcd60e51b815260206004820152601060248201526f14185d5cd8589b194e881c185d5cd95960821b604482015260640162000817565b565b62001a05620019dd60208401846200360f565b60408401803590606086013590608087013590620019ff906020890162003b60565b62002945565b60fd546040516370a0823160e01b81523060048201526001600160a01b039091169063a9059cbb90839083906370a0823190602401602060405180830381865afa15801562001a58573d6000803e3d6000fd5b505050506040513d601f19601f8201168201806040525081019062001a7e919062003a51565b6040516001600160e01b031960e085901b1681526001600160a01b03909216600483015260248201526044016020604051808303816000875af115801562001aca573d6000803e3d6000fd5b505050506040513d601f19601f8201168201806040525081019062000c9b9190620038d2565b60fd54604051632474521560e21b81527f1a6838efa4183e08fe3607359d1259272af9d4716f65e1a7b5921f78fd5a3c6a60048201523360248201819052916001600160a01b0316906391d1485490604401602060405180830381865afa15801562001b60573d6000803e3d6000fd5b505050506040513d601f19601f8201168201806040525081019062001b869190620038d2565b62000d795760405162461bcd60e51b81526004016200081790620038f2565b7f4910fdfa16fed3260ed0e7147f7cc6da11a60208b5b9406d12a635614ffd91435460ff161562001bdb5762000c9b8362002b99565b826001600160a01b03166352d1902d6040518163ffffffff1660e01b8152600401602060405180830381865afa92505050801562001c38575060408051601f3d908101601f1916820190925262001c359181019062003a51565b60015b62001c9d5760405162461bcd60e51b815260206004820152602e60248201527f45524331393637557067726164653a206e657720696d706c656d656e7461746960448201526d6f6e206973206e6f74205555505360901b606482015260840162000817565b60008051602062004b99833981519152811462001d0f5760405162461bcd60e51b815260206004820152602960248201527f45524331393637557067726164653a20756e737570706f727465642070726f786044820152681a58589b195555525160ba1b606482015260840162000817565b5062000c9b83838362002c38565b62001d2762002c63565b60cb805460ff191690557f5db9ee0a495bf2e6ff9c91a7834c1ba4fdd244a5e8aa4e537bd38aeae4b073aa335b6040516001600160a01b03909116815260200160405180910390a1565b6040516365ae5e0360e01b815260009073__$b775366deb48fb607c6478532aa64b7c40$__906365ae5e039062001db19087908790309060040162003a2e565b602060405180830381865af415801562001dcf573d6000803e3d6000fd5b505050506040513d601f19601f8201168201806040525081019062001df5919062003a51565b604051632989754760e11b8152600481018590529091506001600160a01b03851690635312ea8e90602401600060405180830381600087803b15801562001e3b57600080fd5b505af115801562001e50573d6000803e3d6000fd5b5050506001600160a01b0380861660009081526101026020908152604080832088845290915290205462001e879250168262002104565b60fd546040516370a0823160e01b81523060048201526001600160a01b039091169063a9059cbb90849083906370a0823190602401602060405180830381865afa15801562001eda573d6000803e3d6000fd5b505050506040513d601f19601f8201168201806040525081019062001f00919062003a51565b6040516001600160e01b031960e085901b1681526001600160a01b03909216600483015260248201526044016020604051808303816000875af115801562001f4c573d6000803e3d6000fd5b505050506040513d601f19601f8201168201806040525081019062001f729190620038d2565b5060408051338152602081018590526001600160a01b0380871692908516917f171ad70604ac90290d39a03fe068f1de2c978fdcb5665bef63183328435b8f1f910160405180910390a350505050565b6001600160a01b0381166000908152610105602052604081205460ff161562001fed57506001919050565b60005b61010154811015620020fb576101018181548110620020135762002013620039b4565b6000918252602090912001546040516337649a6d60e11b81526001600160a01b03858116600483015290911690636ec934da90602401602060405180830381865afa15801562002067573d6000803e3d6000fd5b505050506040513d601f19601f820116820180604052508101906200208d9190620038d2565b15620020e6576001600160a01b03831660008181526101056020526040808220805460ff19166001179055517fe9e80eeb8f7991e4a52f570cbcccfad539aec6c162f94330904aaf92d9bf6dab9190a250600192915050565b80620020f28162003a10565b91505062001ff0565b50600092915050565b61010054604051635281244f60e01b81526001600160a01b0384811660048301526024820184905290911690635281244f90604401600060405180830381600087803b1580156200215457600080fd5b505af115801562002169573d6000803e3d6000fd5b505060ff54604051632770a7eb60e21b8152306004820152602481018590526001600160a01b039091169250639dc29fac9150604401600060405180830381600087803b158015620021ba57600080fd5b505af1158015620021cf573d6000803e3d6000fd5b50505050816001600160a01b03167f0a7fb1cb6380c9d790e0a9a10751eeffb8369c995dd00c7b95350d3fd8edb0d1826040516200220f91815260200190565b60405180910390a25050565b6200222562001980565b60cb805460ff191660011790557f62e78cea01bee320cd4e420270b5ea74000d11b0c9f74754ebdbfc544b05a25862001d543390565b6000670de0b6b3a764000083608001351015620022ab5760405162461bcd60e51b815260206004820152600d60248201526c29b434bb309d3632bb1e36b4b760991b604482015260640162000817565b60fe54600090819073__$b775366deb48fb607c6478532aa64b7c40$__9063d1f274d1906001600160a01b0316620022e760208901896200360f565b60a089013530670de0b6b3a76400006200230860608d0160408e0162003b88565b6040516001600160e01b031960e089901b1681526001600160a01b0396871660048201529486166024860152604485019390935293166064830152608482019290925261ffff90911660a482015260c4016040805180830381865af415801562002376573d6000803e3d6000fd5b505050506040513d601f19601f820116820180604052508101906200239c919062003bae565b9092509050620023d5620023b460208701876200360f565b60a0870135670de0b6b3a764000085620019ff60408b0160208c0162003b60565b60fd546040516370a0823160e01b81523060048201526000916001600160a01b0316906370a0823190602401602060405180830381865afa1580156200241f573d6000803e3d6000fd5b505050506040513d601f19601f8201168201806040525081019062002445919062003a51565b6200245590606088013562003be1565b90506000620024786200246c60208901896200360f565b83896080013562002cae565b60fd549091506001600160a01b03166323b872dd87306200249e8560608d013562003be1565b6040516001600160e01b031960e086901b1681526001600160a01b03938416600482015292909116602483015260448201526064016020604051808303816000875af1158015620024f3573d6000803e3d6000fd5b505050506040513d601f19601f82011682018060405250810190620025199190620038d2565b50620025336200252d60208901896200360f565b62002d39565b60fe5460009073__$b775366deb48fb607c6478532aa64b7c40$__9063181c00c7906001600160a01b03166200256d60208c018c6200360f565b868c608001358d604001602081019062002588919062003b88565b6040516001600160e01b031960e088901b1681526001600160a01b0395861660048201529490931660248501526044840191909152606483015261ffff16608482015286151560a482015260c401602060405180830381865af4158015620025f4573d6000803e3d6000fd5b505050506040513d601f19601f820116820180604052508101906200261a919062003a51565b90506200157e876200263060208b018b6200360f565b858b6080013588868e60200160208101906200264d919062003b60565b62002dfe565b600054610100900460ff166200267d5760405162461bcd60e51b8152600401620008179062003bfc565b62000d79828262002f42565b600054610100900460ff16620026b35760405162461bcd60e51b8152600401620008179062003bfc565b620019c862002f86565b6000620026ca85620028f4565b905060006200271285858080601f016020809104026020016040519081016040528093929190818152602001838380828437600092019190915250869392505062002fbc9050565b9050826001600160a01b0316816001600160a01b0316146200274757604051638baa579f60e01b815260040160405180910390fd5b6001600160a01b0383166000908152610104602052604081208054916200276e8362003a10565b9190505550505050505050565b6000670de0b6b3a764000083608001351015620027cb5760405162461bcd60e51b815260206004820152600d60248201526c29b434bb309d3632bb1e36b4b760991b604482015260640162000817565b6000620027f0620027e060208601866200360f565b8560600135866080013562002cae565b60fd549091506001600160a01b03166323b872dd8430620028168560608a013562003be1565b6040516001600160e01b031960e086901b1681526001600160a01b03938416600482015292909116602483015260448201526064016020604051808303816000875af11580156200286b573d6000803e3d6000fd5b505050506040513d601f19601f82011682018060405250810190620028919190620038d2565b50620028a56200252d60208601866200360f565b620028ec83620028b960208701876200360f565b60608701803590608089013590620028d59060408b0162003b40565b60a08a01356200264d60408c0160208d0162003b60565b949350505050565b60006200197a6200290462002fe4565b8360405161190160f01b6020820152602281018390526042810182905260009060620160405160208183030381529060405280519060200120905092915050565b62002957655af3107a40008462003c5d565b620029639084620039e0565b9250600073__$b775366deb48fb607c6478532aa64b7c40$__6365ae5e038787306040518463ffffffff1660e01b8152600401620029a49392919062003a2e565b602060405180830381865af4158015620029c2573d6000803e3d6000fd5b505050506040513d601f19601f82011682018060405250810190620029e8919062003a51565b6040516346322c3760e01b81526004810187905260248101869052604481018590529091506001600160a01b038716906346322c3790606401600060405180830381600087803b15801562002a3c57600080fd5b505af115801562002a51573d6000803e3d6000fd5b50506040516365ae5e0360e01b81526000925073__$b775366deb48fb607c6478532aa64b7c40$__91506365ae5e039062002a95908a908a90309060040162003a2e565b602060405180830381865af415801562002ab3573d6000803e3d6000fd5b505050506040513d601f19601f8201168201806040525081019062002ad9919062003a51565b62002ae59083620039e0565b6001600160a01b038089166000908152610102602090815260408083208b845290915290205491925062002b1b91168262002104565b6001600160a01b038781166000818152610102602090815260408083208b84528252918290205482513381529182018b905291810189905263ffffffff87166060820152919216907fa662b14c4fe9e7ae6fa0ebd8f38f786072fc088c1252d604de0cf49cd4344a209060800160405180910390a350505050505050565b6001600160a01b0381163b62002c085760405162461bcd60e51b815260206004820152602d60248201527f455243313936373a206e657720696d706c656d656e746174696f6e206973206e60448201526c1bdd08184818dbdb9d1c9858dd609a1b606482015260840162000817565b60008051602062004b9983398151915280546001600160a01b0319166001600160a01b0392909216919091179055565b62002c438362003066565b60008251118062002c515750805b1562000c9b576200075c8383620030a8565b60cb5460ff16620019c85760405162461bcd60e51b815260206004820152601460248201527314185d5cd8589b194e881b9bdd081c185d5cd95960621b604482015260640162000817565b60008062002cbd84846200319c565b60405163274bc14f60e21b8152600b6004820152909150620010de906001600160a01b03871690639d2f053c90602401602060405180830381865afa15801562002d0b573d6000803e3d6000fd5b505050506040513d601f19601f8201168201806040525081019062002d31919062003a51565b82906200319c565b6001600160a01b0381166000908152610103602052604090205460ff16620009835760fd5460405163095ea7b360e01b81526001600160a01b03838116600483015260001960248301529091169063095ea7b3906044016020604051808303816000875af115801562002db0573d6000803e3d6000fd5b505050506040513d601f19601f8201168201806040525081019062002dd69190620038d2565b506001600160a01b038116600090815261010360205260409020805460ff1916600117905550565b60008062002e0d87876200319c565b905062002e1b8982620031f6565b604051630b32d05160e31b815260048101889052602481018790528515156044820152606481018590526001600160a01b038916906359968288906084016020604051808303816000875af115801562002e79573d6000803e3d6000fd5b505050506040513d601f19601f8201168201806040525081019062002e9f919062003a51565b6001600160a01b0389811660008181526101026020908152604080832086845282529182902080546001600160a01b031916948f16948517905581513381529081018590529081018b9052606081018a905263ffffffff8716608082015288151560a0820152929450917f9766bccc6bc2323e20acd792c3ea10df62d1b9c41a1651655331e345eb76f8419060c00160405180910390a350979650505050505050565b600054610100900460ff1662002f6c5760405162461bcd60e51b8152600401620008179062003bfc565b815160209283012081519190920120606591909155606655565b600054610100900460ff1662002fb05760405162461bcd60e51b8152600401620008179062003bfc565b60cb805460ff19169055565b600080600062002fcd858562003301565b9150915062002fdc816200334b565b509392505050565b6000620030617f8b73c3c69bb8fe3d512ecc4cf759cc79239f7b179b0ffacaa9a75d522b39400f6200301560655490565b6066546040805160208101859052908101839052606081018290524660808201523060a082015260009060c0016040516020818303038152906040528051906020012090509392505050565b905090565b620030718162002b99565b6040516001600160a01b038216907fbc7cd75a20ee27fd9adebab32041f755214dbc6bffa90cc0225b39da2e5c2d3b90600090a250565b60606001600160a01b0383163b620031125760405162461bcd60e51b815260206004820152602660248201527f416464726573733a2064656c65676174652063616c6c20746f206e6f6e2d636f6044820152651b9d1c9858dd60d21b606482015260840162000817565b600080846001600160a01b0316846040516200312f919062003cb9565b600060405180830381855af49150503d80600081146200316c576040519150601f19603f3d011682016040523d82523d6000602084013e62003171565b606091505b5091509150620010de828260405180606001604052806027815260200162004bb960279139620034ac565b600080620031ab838562003cd7565b905080620031be5760009150506200197a565b670de0b6b3a7640000620031d4600183620039e0565b620031e0919062003cf9565b620031ed90600162003be1565b9150506200197a565b60ff546040516340c10f1960e01b8152306004820152602481018390526001600160a01b03909116906340c10f1990604401600060405180830381600087803b1580156200324357600080fd5b505af115801562003258573d6000803e3d6000fd5b505061010054604051633c323a1b60e01b81526001600160a01b038681166004830152602482018690529091169250633c323a1b9150604401600060405180830381600087803b158015620032ac57600080fd5b505af1158015620032c1573d6000803e3d6000fd5b50505050816001600160a01b03167fe25ab9817d84c14c24169d6937b6b47ad5dc2598d297d1c84432b39398dbd01f826040516200220f91815260200190565b6000808251604114156200333c5760208301516040840151606085015160001a6200332f87828585620034ea565b9450945050505062003344565b506000905060025b9250929050565b600081600481111562003362576200336262003c74565b14156200336c5750565b600181600481111562003383576200338362003c74565b1415620033d35760405162461bcd60e51b815260206004820152601860248201527f45434453413a20696e76616c6964207369676e61747572650000000000000000604482015260640162000817565b6002816004811115620033ea57620033ea62003c74565b14156200343a5760405162461bcd60e51b815260206004820152601f60248201527f45434453413a20696e76616c6964207369676e6174757265206c656e67746800604482015260640162000817565b600381600481111562003451576200345162003c74565b1415620009835760405162461bcd60e51b815260206004820152602260248201527f45434453413a20696e76616c6964207369676e6174757265202773272076616c604482015261756560f01b606482015260840162000817565b60608315620034bd57508162001966565b825115620034ce5782518084602001fd5b8160405162461bcd60e51b815260040162000817919062003d10565b6000807f7fffffffffffffffffffffffffffffff5d576e7357a4501ddfe92f46681b20a0831115620035235750600090506003620035aa565b6040805160008082526020820180845289905260ff881692820192909252606081018690526080810185905260019060a0016020604051602081039080840390855afa15801562003578573d6000803e3d6000fd5b5050604051601f1901519150506001600160a01b038116620035a357600060019250925050620035aa565b9150600090505b94509492505050565b610e538062003d4683390190565b600060a08284031215620035d457600080fd5b50919050565b600060a08284031215620035ed57600080fd5b620019668383620035c1565b6001600160a01b03811681146200098357600080fd5b6000602082840312156200362257600080fd5b81356200196681620035f9565b6000602082840312156200364257600080fd5b5035919050565b634e487b7160e01b600052604160045260246000fd5b600080604083850312156200367357600080fd5b82356200368081620035f9565b9150602083013567ffffffffffffffff808211156200369e57600080fd5b818501915085601f830112620036b357600080fd5b813581811115620036c857620036c862003649565b604051601f8201601f19908116603f01168101908382118183101715620036f357620036f362003649565b816040528281528860208487010111156200370d57600080fd5b8260208601602083013760006020848301015280955050505050509250929050565b6000806000606084860312156200374557600080fd5b83356200375281620035f9565b92506020840135915060408401356200376b81620035f9565b809150509250925092565b600060c08284031215620035d457600080fd5b600060c082840312156200379c57600080fd5b62001966838362003776565b600080600060608486031215620037be57600080fd5b8335620037cb81620035f9565b92506020840135620037dd81620035f9565b915060408401356200376b81620035f9565b600080604083850312156200380357600080fd5b82356200381081620035f9565b946020939093013593505050565b600060608284031215620035d457600080fd5b60008060e083850312156200384557600080fd5b62003851848462003776565b915060c083013567ffffffffffffffff8111156200386e57600080fd5b6200387c858286016200381e565b9150509250929050565b60008060c083850312156200389a57600080fd5b620038a68484620035c1565b915060a083013567ffffffffffffffff8111156200386e57600080fd5b80151581146200098357600080fd5b600060208284031215620038e557600080fd5b81516200196681620038c3565b60208082526010908201526f29b434bb309d1010b3b7bb32b93737b960811b604082015260600190565b6020808252602c908201527f46756e6374696f6e206d7573742062652063616c6c6564207468726f7567682060408201526b19195b1959d85d1958d85b1b60a21b606082015260800190565b6020808252602c908201527f46756e6374696f6e206d7573742062652063616c6c6564207468726f7567682060408201526b6163746976652070726f787960a01b606082015260800190565b634e487b7160e01b600052603260045260246000fd5b634e487b7160e01b600052601160045260246000fd5b600082821015620039f557620039f5620039ca565b500390565b634e487b7160e01b600052603160045260246000fd5b600060001982141562003a275762003a27620039ca565b5060010190565b6001600160a01b0393841681526020810192909252909116604082015260600190565b60006020828403121562003a6457600080fd5b5051919050565b60006020828403121562003a7e57600080fd5b81516200196681620035f9565b60006020828403121562003a9e57600080fd5b813565ffffffffffff811681146200196657600080fd5b9687526001600160a01b0395909516602087015265ffffffffffff9390931660408601526060850191909152608084015260a083015260c082015260e00190565b6000808335601e1984360301811262003b0e57600080fd5b83018035915067ffffffffffffffff82111562003b2a57600080fd5b6020019150368190038213156200334457600080fd5b60006020828403121562003b5357600080fd5b81356200196681620038c3565b60006020828403121562003b7357600080fd5b813563ffffffff811681146200196657600080fd5b60006020828403121562003b9b57600080fd5b813561ffff811681146200196657600080fd5b6000806040838503121562003bc257600080fd5b82519150602083015162003bd681620038c3565b809150509250929050565b6000821982111562003bf75762003bf7620039ca565b500190565b6020808252602b908201527f496e697469616c697a61626c653a20636f6e7472616374206973206e6f74206960408201526a6e697469616c697a696e6760a81b606082015260800190565b634e487b7160e01b600052601260045260246000fd5b60008262003c6f5762003c6f62003c47565b500690565b634e487b7160e01b600052602160045260246000fd5b60005b8381101562003ca757818101518382015260200162003c8d565b838111156200075c5750506000910152565b6000825162003ccd81846020870162003c8a565b9190910192915050565b600081600019048311821515161562003cf45762003cf4620039ca565b500290565b60008262003d0b5762003d0b62003c47565b500490565b602081526000825180602084015262003d3181604085016020870162003c8a565b601f01601f1916919091016040019291505056fe60806040523480156200001157600080fd5b50604080518082018252601381527f4f7665726c61795374616b696e67546f6b656e000000000000000000000000006020808301918252835180850190945260058452644f7653544b60d81b908401528151919291620000749160039162000103565b5080516200008a90600490602084019062000103565b505050620000a7620000a1620000ad60201b60201c565b620000b1565b620001e6565b3390565b600580546001600160a01b038381166001600160a01b0319831681179093556040519116919082907f8be0079c531659141344cd1fd0a4f28419497f9722a3daafe3b4186f6b6457e090600090a35050565b8280546200011190620001a9565b90600052602060002090601f01602090048101928262000135576000855562000180565b82601f106200015057805160ff191683800117855562000180565b8280016001018555821562000180579182015b828111156200018057825182559160200191906001019062000163565b506200018e92915062000192565b5090565b5b808211156200018e576000815560010162000193565b600181811c90821680620001be57607f821691505b60208210811415620001e057634e487b7160e01b600052602260045260246000fd5b50919050565b610c5d80620001f66000396000f3fe608060405234801561001057600080fd5b50600436106101005760003560e01c8063715018a611610097578063a457c2d711610066578063a457c2d714610209578063a9059cbb1461021c578063dd62ed3e1461022f578063f2fde38b1461024257600080fd5b8063715018a6146101cb5780638da5cb5b146101d357806395d89b41146101ee5780639dc29fac146101f657600080fd5b8063313ce567116100d3578063313ce5671461016b578063395093511461017a57806340c10f191461018d57806370a08231146101a257600080fd5b806306fdde0314610105578063095ea7b31461012357806318160ddd1461014657806323b872dd14610158575b600080fd5b61010d610255565b60405161011a9190610a9a565b60405180910390f35b610136610131366004610b0b565b6102e7565b604051901515815260200161011a565b6002545b60405190815260200161011a565b610136610166366004610b35565b6102ff565b6040516012815260200161011a565b610136610188366004610b0b565b610323565b6101a061019b366004610b0b565b610345565b005b61014a6101b0366004610b71565b6001600160a01b031660009081526020819052604090205490565b6101a061035b565b6005546040516001600160a01b03909116815260200161011a565b61010d61036f565b6101a0610204366004610b0b565b61037e565b610136610217366004610b0b565b610390565b61013661022a366004610b0b565b610410565b61014a61023d366004610b93565b61041e565b6101a0610250366004610b71565b610449565b60606003805461026490610bc6565b80601f016020809104026020016040519081016040528092919081815260200182805461029090610bc6565b80156102dd5780601f106102b2576101008083540402835291602001916102dd565b820191906000526020600020905b8154815290600101906020018083116102c057829003601f168201915b5050505050905090565b6000336102f58185856104c2565b5060019392505050565b60003361030d8582856105e7565b610318858585610661565b506001949350505050565b6000336102f5818585610336838361041e565b6103409190610c01565b6104c2565b61034d610805565b610357828261085f565b5050565b610363610805565b61036d600061091e565b565b60606004805461026490610bc6565b610386610805565b6103578282610970565b6000338161039e828661041e565b9050838110156104035760405162461bcd60e51b815260206004820152602560248201527f45524332303a2064656372656173656420616c6c6f77616e63652062656c6f77604482015264207a65726f60d81b60648201526084015b60405180910390fd5b61031882868684036104c2565b6000336102f5818585610661565b6001600160a01b03918216600090815260016020908152604080832093909416825291909152205490565b610451610805565b6001600160a01b0381166104b65760405162461bcd60e51b815260206004820152602660248201527f4f776e61626c653a206e6577206f776e657220697320746865207a65726f206160448201526564647265737360d01b60648201526084016103fa565b6104bf8161091e565b50565b6001600160a01b0383166105245760405162461bcd60e51b8152602060048201526024808201527f45524332303a20617070726f76652066726f6d20746865207a65726f206164646044820152637265737360e01b60648201526084016103fa565b6001600160a01b0382166105855760405162461bcd60e51b815260206004820152602260248201527f45524332303a20617070726f766520746f20746865207a65726f206164647265604482015261737360f01b60648201526084016103fa565b6001600160a01b0383811660008181526001602090815260408083209487168084529482529182902085905590518481527f8c5be1e5ebec7d5bd14f71427d1e84f3dd0314c0f7b2291e5b200ac8c7c3b92591015b60405180910390a3505050565b60006105f3848461041e565b9050600019811461065b578181101561064e5760405162461bcd60e51b815260206004820152601d60248201527f45524332303a20696e73756666696369656e7420616c6c6f77616e636500000060448201526064016103fa565b61065b84848484036104c2565b50505050565b6001600160a01b0383166106c55760405162461bcd60e51b815260206004820152602560248201527f45524332303a207472616e736665722066726f6d20746865207a65726f206164604482015264647265737360d81b60648201526084016103fa565b6001600160a01b0382166107275760405162461bcd60e51b815260206004820152602360248201527f45524332303a207472616e7366657220746f20746865207a65726f206164647260448201526265737360e81b60648201526084016103fa565b6001600160a01b0383166000908152602081905260409020548181101561079f5760405162461bcd60e51b815260206004820152602660248201527f45524332303a207472616e7366657220616d6f756e7420657863656564732062604482015265616c616e636560d01b60648201526084016103fa565b6001600160a01b03848116600081815260208181526040808320878703905593871680835291849020805487019055925185815290927fddf252ad1be2c89b69c2b068fc378daa952ba7f163c4a11628f55a4df523b3ef910160405180910390a361065b565b6005546001600160a01b0316331461036d5760405162461bcd60e51b815260206004820181905260248201527f4f776e61626c653a2063616c6c6572206973206e6f7420746865206f776e657260448201526064016103fa565b6001600160a01b0382166108b55760405162461bcd60e51b815260206004820152601f60248201527f45524332303a206d696e7420746f20746865207a65726f20616464726573730060448201526064016103fa565b80600260008282546108c79190610c01565b90915550506001600160a01b038216600081815260208181526040808320805486019055518481527fddf252ad1be2c89b69c2b068fc378daa952ba7f163c4a11628f55a4df523b3ef910160405180910390a35050565b600580546001600160a01b038381166001600160a01b0319831681179093556040519116919082907f8be0079c531659141344cd1fd0a4f28419497f9722a3daafe3b4186f6b6457e090600090a35050565b6001600160a01b0382166109d05760405162461bcd60e51b815260206004820152602160248201527f45524332303a206275726e2066726f6d20746865207a65726f206164647265736044820152607360f81b60648201526084016103fa565b6001600160a01b03821660009081526020819052604090205481811015610a445760405162461bcd60e51b815260206004820152602260248201527f45524332303a206275726e20616d6f756e7420657863656564732062616c616e604482015261636560f01b60648201526084016103fa565b6001600160a01b0383166000818152602081815260408083208686039055600280548790039055518581529192917fddf252ad1be2c89b69c2b068fc378daa952ba7f163c4a11628f55a4df523b3ef91016105da565b600060208083528351808285015260005b81811015610ac757858101830151858201604001528201610aab565b81811115610ad9576000604083870101525b50601f01601f1916929092016040019392505050565b80356001600160a01b0381168114610b0657600080fd5b919050565b60008060408385031215610b1e57600080fd5b610b2783610aef565b946020939093013593505050565b600080600060608486031215610b4a57600080fd5b610b5384610aef565b9250610b6160208501610aef565b9150604084013590509250925092565b600060208284031215610b8357600080fd5b610b8c82610aef565b9392505050565b60008060408385031215610ba657600080fd5b610baf83610aef565b9150610bbd60208401610aef565b90509250929050565b600181811c90821680610bda57607f821691505b60208210811415610bfb57634e487b7160e01b600052602260045260246000fd5b50919050565b60008219821115610c2257634e487b7160e01b600052601160045260246000fd5b50019056fea2646970667358221220dc95d58f65e392666ee5b36c289fd290638f9f340e7fb27c79435ca022f4d89764736f6c634300080a0033360894a13ba1a3210667c828492db98dca3e2076cc3735a920a3ca505d382bbc416464726573733a206c6f772d6c6576656c2064656c65676174652063616c6c206661696c6564a26469706673582212208744eb232a26324270de9c23749fedf2518d4a14012b1c3ebe5ec96ce6ef583764736f6c634300080a0033",
    "linkReferences": {
      "src/utils/Utils.sol": {
        "Utils": [
          {
            "start": 4096,
            "length": 20
          },
          {
            "start": 7843,
            "length": 20
          },
          {
            "start": 9173,
            "length": 20
          },
          {
            "start": 9819,
            "length": 20
          },
          {
            "start": 10889,
            "length": 20
          },
          {
            "start": 11142,
            "length": 20
          }
        ]
      }
    }
  },
  "methodIdentifiers": {
    "BUILD_ON_BEHALF_OF_TYPEHASH()": "0388caad",
    "BUILD_SINGLE_ON_BEHALF_OF_TYPEHASH()": "53e96caa",
    "ONE()": "c2ee3a08",
    "UNWIND_ON_BEHALF_OF_TYPEHASH()": "d04c95fa",
    "addFactory(address)": "29ce1ec5",
    "authorizedFactories(uint256)": "473d3471",
    "build((address,uint32,bool,uint256,uint256,uint256))": "f5dea22e",
    "build((address,uint32,bool,uint256,uint256,uint256),(address,uint48,bytes))": "e56937e7",
    "buildSingle((address,uint32,uint16,uint256,uint256,uint256))": "85cc159a",
    "buildSingle((address,uint32,uint16,uint256,uint256,uint256),(address,uint48,bytes))": "d6da9468",
    "emergencyWithdraw(address,uint256,address)": "551512de",
    "getDigest(bytes32)": "f9613ab2",
    "initialize(address,address,address)": "c0c53b8b",
    "marketAllowance(address)": "a4c801f0",
    "nonces(address)": "7ecebe00",
    "ovState()": "726e97f9",
    "ovToken()": "a4cc879c",
    "overlayMarketLiquidateCallback(uint256)": "65d81fa8",
    "pause()": "8456cb59",
    "paused()": "5c975abb",
    "positionOwners(address,uint256)": "c76a8673",
    "proxiableUUID()": "52d1902d",
    "removeFactory(address)": "4b37c73f",
    "rewardVault()": "3a2c6777",
    "stakingToken()": "72f702f3",
    "unpause()": "3f4ba83a",
    "unwind((address,uint32,uint256,uint256,uint256))": "0a214695",
    "unwind((address,uint32,uint256,uint256,uint256),(address,uint48,bytes))": "ec794056",
    "upgradeTo(address)": "3659cfe6",
    "upgradeToAndCall(address,bytes)": "4f1ef286",
    "validMarkets(address)": "adaf1c43"
  },
  "storageLayout": {
    "storage": [
      {
        "astId": 47298,
        "contract": "src/Shiva.sol:Shiva",
        "label": "_initialized",
        "offset": 0,
        "slot": "0",
        "type": "t_uint8"
      },
      {
        "astId": 47301,
        "contract": "src/Shiva.sol:Shiva",
        "label": "_initializing",
        "offset": 1,
        "slot": "0",
        "type": "t_bool"
      },
      {
        "astId": 47280,
        "contract": "src/Shiva.sol:Shiva",
        "label": "__gap",
        "offset": 0,
        "slot": "1",
        "type": "t_array(t_uint256)50_storage"
      },
      {
        "astId": 47577,
        "contract": "src/Shiva.sol:Shiva",
        "label": "__gap",
        "offset": 0,
        "slot": "51",
        "type": "t_array(t_uint256)50_storage"
      },
      {
        "astId": 48692,
        "contract": "src/Shiva.sol:Shiva",
        "label": "_HASHED_NAME",
        "offset": 0,
        "slot": "101",
        "type": "t_bytes32"
      },
      {
        "astId": 48694,
        "contract": "src/Shiva.sol:Shiva",
        "label": "_HASHED_VERSION",
        "offset": 0,
        "slot": "102",
        "type": "t_bytes32"
      },
      {
        "astId": 48832,
        "contract": "src/Shiva.sol:Shiva",
        "label": "__gap",
        "offset": 0,
        "slot": "103",
        "type": "t_array(t_uint256)50_storage"
      },
      {
        "astId": 47989,
        "contract": "src/Shiva.sol:Shiva",
        "label": "__gap",
        "offset": 0,
        "slot": "153",
        "type": "t_array(t_uint256)50_storage"
      },
      {
        "astId": 47599,
        "contract": "src/Shiva.sol:Shiva",
        "label": "_paused",
        "offset": 0,
        "slot": "203",
        "type": "t_bool"
      },
      {
        "astId": 47704,
        "contract": "src/Shiva.sol:Shiva",
        "label": "__gap",
        "offset": 0,
        "slot": "204",
        "type": "t_array(t_uint256)49_storage"
      },
      {
        "astId": 64489,
        "contract": "src/Shiva.sol:Shiva",
        "label": "ovToken",
        "offset": 0,
        "slot": "253",
        "type": "t_contract(IOverlayV1Token)60551"
      },
      {
        "astId": 64493,
        "contract": "src/Shiva.sol:Shiva",
        "label": "ovState",
        "offset": 0,
        "slot": "254",
        "type": "t_contract(IOverlayV1State)52794"
      },
      {
        "astId": 64497,
        "contract": "src/Shiva.sol:Shiva",
        "label": "stakingToken",
        "offset": 0,
        "slot": "255",
        "type": "t_contract(StakingToken)64400"
      },
      {
        "astId": 64501,
        "contract": "src/Shiva.sol:Shiva",
        "label": "rewardVault",
        "offset": 0,
        "slot": "256",
        "type": "t_contract(IBerachainRewardsVault)66182"
      },
      {
        "astId": 64506,
        "contract": "src/Shiva.sol:Shiva",
        "label": "authorizedFactories",
        "offset": 0,
        "slot": "257",
        "type": "t_array(t_contract(IOverlayV1Factory)60225)dyn_storage"
      },
      {
        "astId": 64514,
        "contract": "src/Shiva.sol:Shiva",
        "label": "positionOwners",
        "offset": 0,
        "slot": "258",
        "type": "t_mapping(t_contract(IOverlayV1Market)60495,t_mapping(t_uint256,t_address))"
      },
      {
        "astId": 64520,
        "contract": "src/Shiva.sol:Shiva",
        "label": "marketAllowance",
        "offset": 0,
        "slot": "259",
        "type": "t_mapping(t_contract(IOverlayV1Market)60495,t_bool)"
      },
      {
        "astId": 64525,
        "contract": "src/Shiva.sol:Shiva",
        "label": "nonces",
        "offset": 0,
        "slot": "260",
        "type": "t_mapping(t_address,t_uint256)"
      },
      {
        "astId": 64530,
        "contract": "src/Shiva.sol:Shiva",
        "label": "validMarkets",
        "offset": 0,
        "slot": "261",
        "type": "t_mapping(t_address,t_bool)"
      }
    ],
    "types": {
      "t_address": {
        "encoding": "inplace",
        "label": "address",
        "numberOfBytes": "20"
      },
      "t_array(t_contract(IOverlayV1Factory)60225)dyn_storage": {
        "encoding": "dynamic_array",
        "label": "contract IOverlayV1Factory[]",
        "numberOfBytes": "32",
        "base": "t_contract(IOverlayV1Factory)60225"
      },
      "t_array(t_uint256)49_storage": {
        "encoding": "inplace",
        "label": "uint256[49]",
        "numberOfBytes": "1568",
        "base": "t_uint256"
      },
      "t_array(t_uint256)50_storage": {
        "encoding": "inplace",
        "label": "uint256[50]",
        "numberOfBytes": "1600",
        "base": "t_uint256"
      },
      "t_bool": {
        "encoding": "inplace",
        "label": "bool",
        "numberOfBytes": "1"
      },
      "t_bytes32": {
        "encoding": "inplace",
        "label": "bytes32",
        "numberOfBytes": "32"
      },
      "t_contract(IBerachainRewardsVault)66182": {
        "encoding": "inplace",
        "label": "contract IBerachainRewardsVault",
        "numberOfBytes": "20"
      },
      "t_contract(IOverlayV1Factory)60225": {
        "encoding": "inplace",
        "label": "contract IOverlayV1Factory",
        "numberOfBytes": "20"
      },
      "t_contract(IOverlayV1Market)60495": {
        "encoding": "inplace",
        "label": "contract IOverlayV1Market",
        "numberOfBytes": "20"
      },
      "t_contract(IOverlayV1State)52794": {
        "encoding": "inplace",
        "label": "contract IOverlayV1State",
        "numberOfBytes": "20"
      },
      "t_contract(IOverlayV1Token)60551": {
        "encoding": "inplace",
        "label": "contract IOverlayV1Token",
        "numberOfBytes": "20"
      },
      "t_contract(StakingToken)64400": {
        "encoding": "inplace",
        "label": "contract StakingToken",
        "numberOfBytes": "20"
      },
      "t_mapping(t_address,t_bool)": {
        "encoding": "mapping",
        "key": "t_address",
        "label": "mapping(address => bool)",
        "numberOfBytes": "32",
        "value": "t_bool"
      },
      "t_mapping(t_address,t_uint256)": {
        "encoding": "mapping",
        "key": "t_address",
        "label": "mapping(address => uint256)",
        "numberOfBytes": "32",
        "value": "t_uint256"
      },
      "t_mapping(t_contract(IOverlayV1Market)60495,t_bool)": {
        "encoding": "mapping",
        "key": "t_contract(IOverlayV1Market)60495",
        "label": "mapping(contract IOverlayV1Market => bool)",
        "numberOfBytes": "32",
        "value": "t_bool"
      },
      "t_mapping(t_contract(IOverlayV1Market)60495,t_mapping(t_uint256,t_address))": {
        "encoding": "mapping",
        "key": "t_contract(IOverlayV1Market)60495",
        "label": "mapping(contract IOverlayV1Market => mapping(uint256 => address))",
        "numberOfBytes": "32",
        "value": "t_mapping(t_uint256,t_address)"
      },
      "t_mapping(t_uint256,t_address)": {
        "encoding": "mapping",
        "key": "t_uint256",
        "label": "mapping(uint256 => address)",
        "numberOfBytes": "32",
        "value": "t_address"
      },
      "t_uint256": {
        "encoding": "inplace",
        "label": "uint256",
        "numberOfBytes": "32"
      },
      "t_uint8": {
        "encoding": "inplace",
        "label": "uint8",
        "numberOfBytes": "1"
      }
    }
  },
  "id": 99
}